{
	"smartContract_flat.sol": {
		"smartContract": {
			"abi": [
				{
					"anonymous": false,
					"inputs": [
						{
							"indexed": true,
							"internalType": "address",
							"name": "previousOwner",
							"type": "address"
						},
						{
							"indexed": true,
							"internalType": "address",
							"name": "newOwner",
							"type": "address"
						}
					],
					"name": "OwnershipTransferred",
					"type": "event"
				},
				{
					"anonymous": false,
					"inputs": [
						{
							"indexed": false,
							"internalType": "uint256",
							"name": "amount",
							"type": "uint256"
						},
						{
							"indexed": false,
							"internalType": "uint256",
							"name": "burningAmount",
							"type": "uint256"
						},
						{
							"indexed": false,
							"internalType": "uint256",
							"name": "amountAfterBurning",
							"type": "uint256"
						},
						{
							"indexed": false,
							"internalType": "uint256",
							"name": "ownerSurplus",
							"type": "uint256"
						},
						{
							"indexed": false,
							"internalType": "uint256",
							"name": "BNBchargedByAdmin",
							"type": "uint256"
						}
					],
					"name": "buyTokenDetails",
					"type": "event"
				},
				{
					"anonymous": false,
					"inputs": [
						{
							"indexed": false,
							"internalType": "address",
							"name": "user",
							"type": "address"
						},
						{
							"indexed": false,
							"internalType": "address",
							"name": "AdminAddress",
							"type": "address"
						},
						{
							"indexed": false,
							"internalType": "address",
							"name": "owner",
							"type": "address"
						}
					],
					"name": "buyTokenDetailsAddresses",
					"type": "event"
				},
				{
					"anonymous": false,
					"inputs": [
						{
							"indexed": false,
							"internalType": "address",
							"name": "user",
							"type": "address"
						},
						{
							"indexed": false,
							"internalType": "uint256",
							"name": "ownerInitiative",
							"type": "uint256"
						},
						{
							"indexed": false,
							"internalType": "uint256",
							"name": "BNB",
							"type": "uint256"
						}
					],
					"name": "swapTokenBNB",
					"type": "event"
				},
				{
					"inputs": [],
					"name": "AdminAddress",
					"outputs": [
						{
							"internalType": "address",
							"name": "",
							"type": "address"
						}
					],
					"stateMutability": "view",
					"type": "function"
				},
				{
					"inputs": [],
					"name": "Coin",
					"outputs": [
						{
							"internalType": "contract Token",
							"name": "",
							"type": "address"
						}
					],
					"stateMutability": "view",
					"type": "function"
				},
				{
					"inputs": [
						{
							"internalType": "uint256",
							"name": "",
							"type": "uint256"
						}
					],
					"name": "amountAfterBurning",
					"outputs": [
						{
							"internalType": "uint256",
							"name": "",
							"type": "uint256"
						}
					],
					"stateMutability": "view",
					"type": "function"
				},
				{
					"inputs": [
						{
							"internalType": "uint256",
							"name": "",
							"type": "uint256"
						}
					],
					"name": "burningAmount",
					"outputs": [
						{
							"internalType": "uint256",
							"name": "",
							"type": "uint256"
						}
					],
					"stateMutability": "view",
					"type": "function"
				},
				{
					"inputs": [
						{
							"internalType": "address",
							"name": "",
							"type": "address"
						},
						{
							"internalType": "uint256",
							"name": "",
							"type": "uint256"
						}
					],
					"name": "buyInfo",
					"outputs": [
						{
							"internalType": "uint256",
							"name": "ID",
							"type": "uint256"
						},
						{
							"internalType": "uint256",
							"name": "buyTime",
							"type": "uint256"
						},
						{
							"internalType": "uint256",
							"name": "purchaseToken",
							"type": "uint256"
						},
						{
							"internalType": "uint256",
							"name": "burnToken",
							"type": "uint256"
						},
						{
							"internalType": "uint256",
							"name": "userGets",
							"type": "uint256"
						},
						{
							"internalType": "uint256",
							"name": "ownerSurplus",
							"type": "uint256"
						},
						{
							"internalType": "uint256",
							"name": "BNBchargedByAdmin",
							"type": "uint256"
						}
					],
					"stateMutability": "view",
					"type": "function"
				},
				{
					"inputs": [
						{
							"internalType": "uint256",
							"name": "amount",
							"type": "uint256"
						},
						{
							"internalType": "address",
							"name": "user",
							"type": "address"
						}
					],
					"name": "buyToken",
					"outputs": [],
					"stateMutability": "payable",
					"type": "function"
				},
				{
					"inputs": [
						{
							"internalType": "address",
							"name": "user",
							"type": "address"
						}
					],
					"name": "getIdsOfUser",
					"outputs": [
						{
							"internalType": "uint256[]",
							"name": "",
							"type": "uint256[]"
						}
					],
					"stateMutability": "view",
					"type": "function"
				},
				{
					"inputs": [
						{
							"internalType": "contract Token",
							"name": "_Coin",
							"type": "address"
						},
						{
							"internalType": "address",
							"name": "_adminAddress",
							"type": "address"
						},
						{
							"internalType": "uint256",
							"name": "amount",
							"type": "uint256"
						}
					],
					"name": "initialize",
					"outputs": [],
					"stateMutability": "nonpayable",
					"type": "function"
				},
				{
					"inputs": [],
					"name": "initialized",
					"outputs": [
						{
							"internalType": "bool",
							"name": "",
							"type": "bool"
						}
					],
					"stateMutability": "view",
					"type": "function"
				},
				{
					"inputs": [],
					"name": "owner",
					"outputs": [
						{
							"internalType": "address",
							"name": "",
							"type": "address"
						}
					],
					"stateMutability": "view",
					"type": "function"
				},
				{
					"inputs": [
						{
							"internalType": "uint256",
							"name": "",
							"type": "uint256"
						}
					],
					"name": "ownerSurplusToAdmin",
					"outputs": [
						{
							"internalType": "uint256",
							"name": "",
							"type": "uint256"
						}
					],
					"stateMutability": "view",
					"type": "function"
				},
				{
					"inputs": [],
					"name": "renounceOwnership",
					"outputs": [],
					"stateMutability": "nonpayable",
					"type": "function"
				},
				{
					"inputs": [
						{
							"internalType": "address",
							"name": "_admin",
							"type": "address"
						}
					],
					"name": "setAdminAddress",
					"outputs": [],
					"stateMutability": "nonpayable",
					"type": "function"
				},
				{
					"inputs": [],
					"name": "totalInvesters",
					"outputs": [
						{
							"internalType": "uint256",
							"name": "",
							"type": "uint256"
						}
					],
					"stateMutability": "view",
					"type": "function"
				},
				{
					"inputs": [
						{
							"internalType": "address",
							"name": "newOwner",
							"type": "address"
						}
					],
					"name": "transferOwnership",
					"outputs": [],
					"stateMutability": "nonpayable",
					"type": "function"
				}
			],
			"devdoc": {
				"kind": "dev",
				"methods": {
					"owner()": {
						"details": "Returns the address of the current owner."
					},
					"renounceOwnership()": {
						"details": "Leaves the contract without owner. It will not be possible to call `onlyOwner` functions anymore. Can only be called by the current owner. NOTE: Renouncing ownership will leave the contract without an owner, thereby removing any functionality that is only available to the owner."
					},
					"transferOwnership(address)": {
						"details": "Transfers ownership of the contract to a new account (`newOwner`). Can only be called by the current owner."
					}
				},
				"version": 1
			},
			"evm": {
				"assembly": "    /* \"smartContract_flat.sol\":28390:32042  contract smartContract is Ownable {... */\n  mstore(0x40, 0x80)\n  callvalue\n  dup1\n  iszero\n  tag_1\n  jumpi\n  0x00\n  dup1\n  revert\ntag_1:\n  pop\n    /* \"smartContract_flat.sol\":18820:18852  _transferOwnership(_msgSender()) */\n  tag_4\n    /* \"smartContract_flat.sol\":4375:4385  msg.sender */\n  caller\n    /* \"smartContract_flat.sol\":18820:18838  _transferOwnership */\n  tag_7\n    /* \"smartContract_flat.sol\":18820:18852  _transferOwnership(_msgSender()) */\n  jump\t// in\ntag_4:\n    /* \"smartContract_flat.sol\":28390:32042  contract smartContract is Ownable {... */\n  jump(tag_8)\n    /* \"smartContract_flat.sol\":20248:20439  function _transferOwnership(address newOwner) internal virtual {... */\ntag_7:\n    /* \"smartContract_flat.sol\":20322:20338  address oldOwner */\n  0x00\n    /* \"smartContract_flat.sol\":20341:20347  _owner */\n  dup1\n  sload\n  sub(shl(0xa0, 0x01), 0x01)\n    /* \"smartContract_flat.sol\":20358:20375  _owner = newOwner */\n  dup4\n  dup2\n  and\n  not(sub(shl(0xa0, 0x01), 0x01))\n  dup4\n  and\n  dup2\n  or\n  dup5\n  sstore\n    /* \"smartContract_flat.sol\":20391:20431  OwnershipTransferred(oldOwner, newOwner) */\n  mload(0x40)\n    /* \"smartContract_flat.sol\":20341:20347  _owner */\n  swap2\n  swap1\n  swap3\n  and\n  swap3\n  dup4\n  swap2\n    /* \"smartContract_flat.sol\":20391:20431  OwnershipTransferred(oldOwner, newOwner) */\n  0x8be0079c531659141344cd1fd0a4f28419497f9722a3daafe3b4186f6b6457e0\n  swap2\n    /* \"smartContract_flat.sol\":20322:20338  address oldOwner */\n  swap1\n    /* \"smartContract_flat.sol\":20391:20431  OwnershipTransferred(oldOwner, newOwner) */\n  log3\n    /* \"smartContract_flat.sol\":20311:20439  {... */\n  pop\n    /* \"smartContract_flat.sol\":20248:20439  function _transferOwnership(address newOwner) internal virtual {... */\n  pop\n  jump\t// out\n    /* \"smartContract_flat.sol\":28390:32042  contract smartContract is Ownable {... */\ntag_8:\n  dataSize(sub_0)\n  dup1\n  dataOffset(sub_0)\n  0x00\n  codecopy\n  0x00\n  return\nstop\n\nsub_0: assembly {\n        /* \"smartContract_flat.sol\":28390:32042  contract smartContract is Ownable {... */\n      mstore(0x40, 0x80)\n      jumpi(tag_1, lt(calldatasize, 0x04))\n      shr(0xe0, calldataload(0x00))\n      dup1\n      0x8637856d\n      gt\n      tag_17\n      jumpi\n      dup1\n      0xaf0afec9\n      gt\n      tag_18\n      jumpi\n      dup1\n      0xaf0afec9\n      eq\n      tag_13\n      jumpi\n      dup1\n      0xd09bf0e4\n      eq\n      tag_14\n      jumpi\n      dup1\n      0xee238506\n      eq\n      tag_15\n      jumpi\n      dup1\n      0xf2fde38b\n      eq\n      tag_16\n      jumpi\n      0x00\n      dup1\n      revert\n    tag_18:\n      dup1\n      0x8637856d\n      eq\n      tag_9\n      jumpi\n      dup1\n      0x8da5cb5b\n      eq\n      tag_10\n      jumpi\n      dup1\n      0x9134709e\n      eq\n      tag_11\n      jumpi\n      dup1\n      0xa77b2e37\n      eq\n      tag_12\n      jumpi\n      0x00\n      dup1\n      revert\n    tag_17:\n      dup1\n      0x2c1e816d\n      gt\n      tag_19\n      jumpi\n      dup1\n      0x2c1e816d\n      eq\n      tag_5\n      jumpi\n      dup1\n      0x3a84374b\n      eq\n      tag_6\n      jumpi\n      dup1\n      0x5f4fd1f7\n      eq\n      tag_7\n      jumpi\n      dup1\n      0x715018a6\n      eq\n      tag_8\n      jumpi\n      0x00\n      dup1\n      revert\n    tag_19:\n      dup1\n      0x158ef93e\n      eq\n      tag_2\n      jumpi\n      dup1\n      0x1794bb3c\n      eq\n      tag_3\n      jumpi\n      dup1\n      0x28f661e3\n      eq\n      tag_4\n      jumpi\n    tag_1:\n      0x00\n      dup1\n      revert\n        /* \"smartContract_flat.sol\":28547:28570  bool public initialized */\n    tag_2:\n      callvalue\n      dup1\n      iszero\n      tag_20\n      jumpi\n      0x00\n      dup1\n      revert\n    tag_20:\n      pop\n      sload(0x04)\n      tag_21\n      swap1\n      0xff\n      and\n      dup2\n      jump\n    tag_21:\n      mload(0x40)\n        /* \"#utility.yul\":179:193   */\n      swap1\n      iszero\n        /* \"#utility.yul\":172:194   */\n      iszero\n        /* \"#utility.yul\":154:195   */\n      dup2\n      mstore\n        /* \"#utility.yul\":142:144   */\n      0x20\n        /* \"#utility.yul\":127:145   */\n      add\n        /* \"smartContract_flat.sol\":28547:28570  bool public initialized */\n    tag_23:\n      mload(0x40)\n      dup1\n      swap2\n      sub\n      swap1\n      return\n        /* \"smartContract_flat.sol\":29572:29933  function initialize(... */\n    tag_3:\n      callvalue\n      dup1\n      iszero\n      tag_25\n      jumpi\n      0x00\n      dup1\n      revert\n    tag_25:\n      pop\n      tag_26\n      tag_27\n      calldatasize\n      0x04\n      tag_28\n      jump\t// in\n    tag_27:\n      tag_29\n      jump\t// in\n    tag_26:\n      stop\n        /* \"smartContract_flat.sol\":28464:28491  address public AdminAddress */\n    tag_4:\n      callvalue\n      dup1\n      iszero\n      tag_30\n      jumpi\n      0x00\n      dup1\n      revert\n    tag_30:\n      pop\n      sload(0x01)\n      tag_31\n      swap1\n      sub(shl(0xa0, 0x01), 0x01)\n      and\n      dup2\n      jump\n    tag_31:\n      mload(0x40)\n      sub(shl(0xa0, 0x01), 0x01)\n        /* \"#utility.yul\":1001:1033   */\n      swap1\n      swap2\n      and\n        /* \"#utility.yul\":983:1034   */\n      dup2\n      mstore\n        /* \"#utility.yul\":971:973   */\n      0x20\n        /* \"#utility.yul\":956:974   */\n      add\n        /* \"smartContract_flat.sol\":28464:28491  address public AdminAddress */\n      tag_23\n        /* \"#utility.yul\":837:1040   */\n      jump\n        /* \"smartContract_flat.sol\":29941:30039  function setAdminAddress(address _admin) public onlyOwner {... */\n    tag_5:\n      callvalue\n      dup1\n      iszero\n      tag_35\n      jumpi\n      0x00\n      dup1\n      revert\n    tag_35:\n      pop\n      tag_26\n      tag_37\n      calldatasize\n      0x04\n      tag_38\n      jump\t// in\n    tag_37:\n      tag_39\n      jump\t// in\n        /* \"smartContract_flat.sol\":28759:28812  mapping(uint256 => uint256) public amountAfterBurning */\n    tag_6:\n      callvalue\n      dup1\n      iszero\n      tag_40\n      jumpi\n      0x00\n      dup1\n      revert\n    tag_40:\n      pop\n      tag_41\n      tag_42\n      calldatasize\n      0x04\n      tag_43\n      jump\t// in\n    tag_42:\n      mstore(0x20, 0x08)\n      0x00\n      swap1\n      dup2\n      mstore\n      0x40\n      swap1\n      keccak256\n      sload\n      dup2\n      jump\n    tag_41:\n      mload(0x40)\n        /* \"#utility.yul\":1635:1660   */\n      swap1\n      dup2\n      mstore\n        /* \"#utility.yul\":1623:1625   */\n      0x20\n        /* \"#utility.yul\":1608:1626   */\n      add\n        /* \"smartContract_flat.sol\":28759:28812  mapping(uint256 => uint256) public amountAfterBurning */\n      tag_23\n        /* \"#utility.yul\":1489:1666   */\n      jump\n        /* \"smartContract_flat.sol\":30147:30268  function getIdsOfUser(address user) public view returns (uint256[] memory) {... */\n    tag_7:\n      callvalue\n      dup1\n      iszero\n      tag_47\n      jumpi\n      0x00\n      dup1\n      revert\n    tag_47:\n      pop\n      tag_48\n      tag_49\n      calldatasize\n      0x04\n      tag_38\n      jump\t// in\n    tag_49:\n      tag_50\n      jump\t// in\n    tag_48:\n      mload(0x40)\n      tag_23\n      swap2\n      swap1\n      tag_52\n      jump\t// in\n        /* \"smartContract_flat.sol\":19592:19695  function renounceOwnership() public virtual onlyOwner {... */\n    tag_8:\n      callvalue\n      dup1\n      iszero\n      tag_53\n      jumpi\n      0x00\n      dup1\n      revert\n    tag_53:\n      pop\n      tag_26\n      tag_55\n      jump\t// in\n        /* \"smartContract_flat.sol\":28579:28646  mapping(address => mapping(uint256 => purchaseInfo)) public buyInfo */\n    tag_9:\n      callvalue\n      dup1\n      iszero\n      tag_56\n      jumpi\n      0x00\n      dup1\n      revert\n    tag_56:\n      pop\n      tag_57\n      tag_58\n      calldatasize\n      0x04\n      tag_59\n      jump\t// in\n    tag_58:\n      0x05\n      0x20\n      dup2\n      dup2\n      mstore\n      0x00\n      swap4\n      dup5\n      mstore\n      0x40\n      dup1\n      dup6\n      keccak256\n      swap1\n      swap2\n      mstore\n      swap2\n      dup4\n      mstore\n      swap2\n      keccak256\n      dup1\n      sload\n      0x01\n      dup3\n      add\n      sload\n      0x02\n      dup4\n      add\n      sload\n      0x03\n      dup5\n      add\n      sload\n      0x04\n      dup6\n      add\n      sload\n      swap6\n      dup6\n      add\n      sload\n      0x06\n      swap1\n      swap6\n      add\n      sload\n      swap4\n      swap6\n      swap3\n      swap5\n      swap2\n      swap4\n      swap1\n      swap3\n      swap2\n      swap1\n      dup8\n      jump\n    tag_57:\n      0x40\n      dup1\n      mload\n        /* \"#utility.yul\":2950:2975   */\n      swap8\n      dup9\n      mstore\n        /* \"#utility.yul\":3006:3008   */\n      0x20\n        /* \"#utility.yul\":2991:3009   */\n      dup9\n      add\n        /* \"#utility.yul\":2984:3018   */\n      swap7\n      swap1\n      swap7\n      mstore\n        /* \"#utility.yul\":3034:3052   */\n      swap5\n      dup7\n      add\n        /* \"#utility.yul\":3027:3061   */\n      swap4\n      swap1\n      swap4\n      mstore\n        /* \"#utility.yul\":3092:3094   */\n      0x60\n        /* \"#utility.yul\":3077:3095   */\n      dup6\n      add\n        /* \"#utility.yul\":3070:3104   */\n      swap2\n      swap1\n      swap2\n      mstore\n        /* \"#utility.yul\":3135:3138   */\n      0x80\n        /* \"#utility.yul\":3120:3139   */\n      dup5\n      add\n        /* \"#utility.yul\":3113:3148   */\n      mstore\n        /* \"#utility.yul\":3179:3182   */\n      0xa0\n        /* \"#utility.yul\":3164:3183   */\n      dup4\n      add\n        /* \"#utility.yul\":3157:3192   */\n      mstore\n        /* \"#utility.yul\":3223:3226   */\n      0xc0\n        /* \"#utility.yul\":3208:3227   */\n      dup3\n      add\n        /* \"#utility.yul\":3201:3236   */\n      mstore\n        /* \"#utility.yul\":2937:2940   */\n      0xe0\n        /* \"#utility.yul\":2922:2941   */\n      add\n        /* \"smartContract_flat.sol\":28579:28646  mapping(address => mapping(uint256 => purchaseInfo)) public buyInfo */\n      tag_23\n        /* \"#utility.yul\":2635:3242   */\n      jump\n        /* \"smartContract_flat.sol\":18941:19028  function owner() public view virtual returns (address) {... */\n    tag_10:\n      callvalue\n      dup1\n      iszero\n      tag_63\n      jumpi\n      0x00\n      dup1\n      revert\n    tag_63:\n      pop\n        /* \"smartContract_flat.sol\":18987:18994  address */\n      0x00\n        /* \"smartContract_flat.sol\":19014:19020  _owner */\n      sload\n      sub(shl(0xa0, 0x01), 0x01)\n      and\n        /* \"smartContract_flat.sol\":18941:19028  function owner() public view virtual returns (address) {... */\n      jump(tag_31)\n        /* \"smartContract_flat.sol\":30276:31960  function buyToken(uint256 amount, address user) public payable {... */\n    tag_11:\n      tag_26\n      tag_68\n      calldatasize\n      0x04\n      tag_69\n      jump\t// in\n    tag_68:\n      tag_70\n      jump\t// in\n        /* \"smartContract_flat.sol\":28498:28515  Token public Coin */\n    tag_12:\n      callvalue\n      dup1\n      iszero\n      tag_71\n      jumpi\n      0x00\n      dup1\n      revert\n    tag_71:\n      pop\n      sload(0x02)\n      tag_31\n      swap1\n      sub(shl(0xa0, 0x01), 0x01)\n      and\n      dup2\n      jump\n        /* \"smartContract_flat.sol\":30047:30139  function totalInvesters() public view returns (uint256) {... */\n    tag_13:\n      callvalue\n      dup1\n      iszero\n      tag_76\n      jumpi\n      0x00\n      dup1\n      revert\n    tag_76:\n      pop\n        /* \"smartContract_flat.sol\":30121:30131  investerID */\n      sload(0x03)\n        /* \"smartContract_flat.sol\":30047:30139  function totalInvesters() public view returns (uint256) {... */\n      jump(tag_41)\n        /* \"smartContract_flat.sol\":28819:28873  mapping(uint256 => uint256) public ownerSurplusToAdmin */\n    tag_14:\n      callvalue\n      dup1\n      iszero\n      tag_80\n      jumpi\n      0x00\n      dup1\n      revert\n    tag_80:\n      pop\n      tag_41\n      tag_82\n      calldatasize\n      0x04\n      tag_43\n      jump\t// in\n    tag_82:\n      mstore(0x20, 0x09)\n      0x00\n      swap1\n      dup2\n      mstore\n      0x40\n      swap1\n      keccak256\n      sload\n      dup2\n      jump\n        /* \"smartContract_flat.sol\":28704:28752  mapping(uint256 => uint256) public burningAmount */\n    tag_15:\n      callvalue\n      dup1\n      iszero\n      tag_85\n      jumpi\n      0x00\n      dup1\n      revert\n    tag_85:\n      pop\n      tag_41\n      tag_87\n      calldatasize\n      0x04\n      tag_43\n      jump\t// in\n    tag_87:\n      mstore(0x20, 0x07)\n      0x00\n      swap1\n      dup2\n      mstore\n      0x40\n      swap1\n      keccak256\n      sload\n      dup2\n      jump\n        /* \"smartContract_flat.sol\":19850:20088  function transferOwnership(address newOwner) public virtual onlyOwner {... */\n    tag_16:\n      callvalue\n      dup1\n      iszero\n      tag_90\n      jumpi\n      0x00\n      dup1\n      revert\n    tag_90:\n      pop\n      tag_26\n      tag_92\n      calldatasize\n      0x04\n      tag_38\n      jump\t// in\n    tag_92:\n      tag_93\n      jump\t// in\n        /* \"smartContract_flat.sol\":29572:29933  function initialize(... */\n    tag_29:\n        /* \"smartContract_flat.sol\":18987:18994  address */\n      0x00\n        /* \"smartContract_flat.sol\":19014:19020  _owner */\n      sload\n      sub(shl(0xa0, 0x01), 0x01)\n      and\n        /* \"smartContract_flat.sol\":4375:4385  msg.sender */\n      caller\n        /* \"smartContract_flat.sol\":19161:19184  owner() == _msgSender() */\n      eq\n        /* \"smartContract_flat.sol\":19153:19221  require(owner() == _msgSender(), \"Ownable: caller is not the owner\") */\n      tag_98\n      jumpi\n      mload(0x40)\n      shl(0xe5, 0x461bcd)\n      dup2\n      mstore\n      0x04\n      add\n      tag_99\n      swap1\n      tag_100\n      jump\t// in\n    tag_99:\n      mload(0x40)\n      dup1\n      swap2\n      sub\n      swap1\n      revert\n    tag_98:\n        /* \"smartContract_flat.sol\":29714:29725  initialized */\n      and(0xff, sload(0x04))\n        /* \"smartContract_flat.sol\":29714:29733  initialized != true */\n      iszero\n      iszero\n        /* \"smartContract_flat.sol\":29714:29725  initialized */\n      0x01\n        /* \"smartContract_flat.sol\":29714:29733  initialized != true */\n      sub\n        /* \"smartContract_flat.sol\":29706:29757  require(initialized != true, \"Already Initialized\") */\n      tag_102\n      jumpi\n      mload(0x40)\n      shl(0xe5, 0x461bcd)\n      dup2\n      mstore\n        /* \"#utility.yul\":4358:4360   */\n      0x20\n        /* \"smartContract_flat.sol\":29706:29757  require(initialized != true, \"Already Initialized\") */\n      0x04\n      dup3\n      add\n        /* \"#utility.yul\":4340:4361   */\n      mstore\n        /* \"#utility.yul\":4397:4399   */\n      0x13\n        /* \"#utility.yul\":4377:4395   */\n      0x24\n      dup3\n      add\n        /* \"#utility.yul\":4370:4400   */\n      mstore\n      shl(0x6a, 0x105b1c9958591e48125b9a5d1a585b1a5e9959)\n        /* \"#utility.yul\":4416:4434   */\n      0x44\n      dup3\n      add\n        /* \"#utility.yul\":4409:4458   */\n      mstore\n        /* \"#utility.yul\":4475:4493   */\n      0x64\n      add\n        /* \"smartContract_flat.sol\":29706:29757  require(initialized != true, \"Already Initialized\") */\n      tag_99\n        /* \"#utility.yul\":4156:4499   */\n      jump\n        /* \"smartContract_flat.sol\":29706:29757  require(initialized != true, \"Already Initialized\") */\n    tag_102:\n        /* \"smartContract_flat.sol\":29768:29772  Coin */\n      0x02\n        /* \"smartContract_flat.sol\":29768:29787  Coin = Token(_Coin) */\n      dup1\n      sload\n      sub(shl(0xa0, 0x01), 0x01)\n      dup1\n      dup7\n      and\n      not(sub(shl(0xa0, 0x01), 0x01))\n      swap3\n      dup4\n      and\n      dup2\n      or\n      swap1\n      swap4\n      sstore\n      0x01\n        /* \"smartContract_flat.sol\":29798:29835  AdminAddress = address(_adminAddress) */\n      dup1\n      sload\n      swap2\n      dup7\n      and\n      swap2\n      swap1\n      swap3\n      and\n      or\n      swap1\n      sstore\n        /* \"smartContract_flat.sol\":29846:29864  Coin.transferPrice */\n      0xb45ee9ef\n        /* \"smartContract_flat.sol\":29865:29872  owner() */\n      tag_105\n        /* \"smartContract_flat.sol\":18987:18994  address */\n      0x00\n        /* \"smartContract_flat.sol\":19014:19020  _owner */\n      sload\n      sub(shl(0xa0, 0x01), 0x01)\n      and\n      swap1\n        /* \"smartContract_flat.sol\":18941:19028  function owner() public view virtual returns (address) {... */\n      jump\n        /* \"smartContract_flat.sol\":29865:29872  owner() */\n    tag_105:\n        /* \"smartContract_flat.sol\":29846:29896  Coin.transferPrice(owner(), _adminAddress, amount) */\n      mload(0x40)\n      not(sub(shl(0xe0, 0x01), 0x01))\n      0xe0\n      dup5\n      swap1\n      shl\n      and\n      dup2\n      mstore\n      sub(shl(0xa0, 0x01), 0x01)\n        /* \"#utility.yul\":4762:4777   */\n      swap2\n      dup3\n      and\n        /* \"smartContract_flat.sol\":29846:29896  Coin.transferPrice(owner(), _adminAddress, amount) */\n      0x04\n      dup3\n      add\n        /* \"#utility.yul\":4744:4778   */\n      mstore\n        /* \"#utility.yul\":4814:4829   */\n      swap1\n      dup6\n      and\n        /* \"#utility.yul\":4794:4812   */\n      0x24\n      dup3\n      add\n        /* \"#utility.yul\":4787:4830   */\n      mstore\n        /* \"#utility.yul\":4846:4864   */\n      0x44\n      dup2\n      add\n        /* \"#utility.yul\":4839:4873   */\n      dup5\n      swap1\n      mstore\n        /* \"#utility.yul\":4679:4697   */\n      0x64\n      add\n        /* \"smartContract_flat.sol\":29846:29896  Coin.transferPrice(owner(), _adminAddress, amount) */\n      0x00\n      mload(0x40)\n      dup1\n      dup4\n      sub\n      dup2\n      0x00\n      dup8\n      dup1\n      extcodesize\n      iszero\n      dup1\n      iszero\n      tag_108\n      jumpi\n      0x00\n      dup1\n      revert\n    tag_108:\n      pop\n      gas\n      call\n      iszero\n      dup1\n      iszero\n      tag_110\n      jumpi\n      returndatasize\n      0x00\n      dup1\n      returndatacopy\n      revert(0x00, returndatasize)\n    tag_110:\n      pop\n      pop\n        /* \"smartContract_flat.sol\":29907:29918  initialized */\n      0x04\n        /* \"smartContract_flat.sol\":29907:29925  initialized = true */\n      dup1\n      sload\n      not(0xff)\n      and\n        /* \"smartContract_flat.sol\":29921:29925  true */\n      0x01\n        /* \"smartContract_flat.sol\":29907:29925  initialized = true */\n      or\n      swap1\n      sstore\n      pop\n      pop\n      pop\n      pop\n      pop\n        /* \"smartContract_flat.sol\":29572:29933  function initialize(... */\n      jump\t// out\n        /* \"smartContract_flat.sol\":29941:30039  function setAdminAddress(address _admin) public onlyOwner {... */\n    tag_39:\n        /* \"smartContract_flat.sol\":18987:18994  address */\n      0x00\n        /* \"smartContract_flat.sol\":19014:19020  _owner */\n      sload\n      sub(shl(0xa0, 0x01), 0x01)\n      and\n        /* \"smartContract_flat.sol\":4375:4385  msg.sender */\n      caller\n        /* \"smartContract_flat.sol\":19161:19184  owner() == _msgSender() */\n      eq\n        /* \"smartContract_flat.sol\":19153:19221  require(owner() == _msgSender(), \"Ownable: caller is not the owner\") */\n      tag_114\n      jumpi\n      mload(0x40)\n      shl(0xe5, 0x461bcd)\n      dup2\n      mstore\n      0x04\n      add\n      tag_99\n      swap1\n      tag_100\n      jump\t// in\n    tag_114:\n        /* \"smartContract_flat.sol\":30010:30022  AdminAddress */\n      0x01\n        /* \"smartContract_flat.sol\":30010:30031  AdminAddress = _admin */\n      dup1\n      sload\n      not(sub(shl(0xa0, 0x01), 0x01))\n      and\n      sub(shl(0xa0, 0x01), 0x01)\n      swap3\n      swap1\n      swap3\n      and\n      swap2\n      swap1\n      swap2\n      or\n      swap1\n      sstore\n        /* \"smartContract_flat.sol\":29941:30039  function setAdminAddress(address _admin) public onlyOwner {... */\n      jump\t// out\n        /* \"smartContract_flat.sol\":30147:30268  function getIdsOfUser(address user) public view returns (uint256[] memory) {... */\n    tag_50:\n      sub(shl(0xa0, 0x01), 0x01)\n        /* \"smartContract_flat.sol\":30240:30260  getIDByAddress[user] */\n      dup2\n      and\n      0x00\n      swap1\n      dup2\n      mstore\n        /* \"smartContract_flat.sol\":30240:30254  getIDByAddress */\n      0x06\n        /* \"smartContract_flat.sol\":30240:30260  getIDByAddress[user] */\n      0x20\n      swap1\n      dup2\n      mstore\n      0x40\n      swap2\n      dup3\n      swap1\n      keccak256\n        /* \"smartContract_flat.sol\":30233:30260  return getIDByAddress[user] */\n      dup1\n      sload\n      dup4\n      mload\n      dup2\n      dup5\n      mul\n      dup2\n      add\n      dup5\n      add\n      swap1\n      swap5\n      mstore\n      dup1\n      dup5\n      mstore\n        /* \"smartContract_flat.sol\":30204:30220  uint256[] memory */\n      0x60\n      swap4\n        /* \"smartContract_flat.sol\":30233:30260  return getIDByAddress[user] */\n      swap3\n      dup4\n      add\n        /* \"smartContract_flat.sol\":30240:30260  getIDByAddress[user] */\n      dup3\n        /* \"smartContract_flat.sol\":30233:30260  return getIDByAddress[user] */\n      dup3\n      dup1\n      iszero\n      tag_118\n      jumpi\n      0x20\n      mul\n      dup3\n      add\n      swap2\n      swap1\n      0x00\n      mstore\n      keccak256(0x00, 0x20)\n      swap1\n    tag_119:\n      dup2\n      sload\n      dup2\n      mstore\n      0x20\n      add\n      swap1\n      0x01\n      add\n      swap1\n      dup1\n      dup4\n      gt\n      tag_119\n      jumpi\n    tag_118:\n      pop\n      pop\n      pop\n      pop\n      pop\n      swap1\n      pop\n        /* \"smartContract_flat.sol\":30147:30268  function getIdsOfUser(address user) public view returns (uint256[] memory) {... */\n      swap2\n      swap1\n      pop\n      jump\t// out\n        /* \"smartContract_flat.sol\":19592:19695  function renounceOwnership() public virtual onlyOwner {... */\n    tag_55:\n        /* \"smartContract_flat.sol\":18987:18994  address */\n      0x00\n        /* \"smartContract_flat.sol\":19014:19020  _owner */\n      sload\n      sub(shl(0xa0, 0x01), 0x01)\n      and\n        /* \"smartContract_flat.sol\":4375:4385  msg.sender */\n      caller\n        /* \"smartContract_flat.sol\":19161:19184  owner() == _msgSender() */\n      eq\n        /* \"smartContract_flat.sol\":19153:19221  require(owner() == _msgSender(), \"Ownable: caller is not the owner\") */\n      tag_123\n      jumpi\n      mload(0x40)\n      shl(0xe5, 0x461bcd)\n      dup2\n      mstore\n      0x04\n      add\n      tag_99\n      swap1\n      tag_100\n      jump\t// in\n    tag_123:\n        /* \"smartContract_flat.sol\":19657:19687  _transferOwnership(address(0)) */\n      tag_126\n        /* \"smartContract_flat.sol\":19684:19685  0 */\n      0x00\n        /* \"smartContract_flat.sol\":19657:19675  _transferOwnership */\n      tag_127\n        /* \"smartContract_flat.sol\":19657:19687  _transferOwnership(address(0)) */\n      jump\t// in\n    tag_126:\n        /* \"smartContract_flat.sol\":19592:19695  function renounceOwnership() public virtual onlyOwner {... */\n      jump\t// out\n        /* \"smartContract_flat.sol\":30276:31960  function buyToken(uint256 amount, address user) public payable {... */\n    tag_70:\n        /* \"smartContract_flat.sol\":30372:30384  AdminAddress */\n      and(sub(shl(0xa0, 0x01), 0x01), sload(0x01))\n        /* \"smartContract_flat.sol\":30358:30368  msg.sender */\n      caller\n        /* \"smartContract_flat.sol\":30358:30384  msg.sender == AdminAddress */\n      eq\n        /* \"smartContract_flat.sol\":30350:30420  require(msg.sender == AdminAddress, \"Only Admin can make transaction\") */\n      tag_130\n      jumpi\n      mload(0x40)\n      shl(0xe5, 0x461bcd)\n      dup2\n      mstore\n        /* \"#utility.yul\":5086:5088   */\n      0x20\n        /* \"smartContract_flat.sol\":30350:30420  require(msg.sender == AdminAddress, \"Only Admin can make transaction\") */\n      0x04\n      dup3\n      add\n        /* \"#utility.yul\":5068:5089   */\n      mstore\n        /* \"#utility.yul\":5125:5127   */\n      0x1f\n        /* \"#utility.yul\":5105:5123   */\n      0x24\n      dup3\n      add\n        /* \"#utility.yul\":5098:5128   */\n      mstore\n        /* \"#utility.yul\":5164:5197   */\n      0x4f6e6c792041646d696e2063616e206d616b65207472616e73616374696f6e00\n        /* \"#utility.yul\":5144:5162   */\n      0x44\n      dup3\n      add\n        /* \"#utility.yul\":5137:5198   */\n      mstore\n        /* \"#utility.yul\":5215:5233   */\n      0x64\n      add\n        /* \"smartContract_flat.sol\":30350:30420  require(msg.sender == AdminAddress, \"Only Admin can make transaction\") */\n      tag_99\n        /* \"#utility.yul\":4884:5239   */\n      jump\n        /* \"smartContract_flat.sol\":30350:30420  require(msg.sender == AdminAddress, \"Only Admin can make transaction\") */\n    tag_130:\n        /* \"smartContract_flat.sol\":30453:30457  Coin */\n      sload(0x02)\n      0x01\n        /* \"smartContract_flat.sol\":30466:30478  AdminAddress */\n      sload\n        /* \"smartContract_flat.sol\":30453:30479  Coin.balance(AdminAddress) */\n      mload(0x40)\n      shl(0xe0, 0xe3d670d7)\n      dup2\n      mstore\n      sub(shl(0xa0, 0x01), 0x01)\n        /* \"smartContract_flat.sol\":30466:30478  AdminAddress */\n      swap2\n      dup3\n      and\n        /* \"smartContract_flat.sol\":30453:30479  Coin.balance(AdminAddress) */\n      0x04\n      dup3\n      add\n        /* \"#utility.yul\":983:1034   */\n      mstore\n        /* \"smartContract_flat.sol\":30482:30488  amount */\n      dup5\n      swap3\n        /* \"smartContract_flat.sol\":30453:30457  Coin */\n      swap2\n      swap1\n      swap2\n      and\n      swap1\n        /* \"smartContract_flat.sol\":30453:30465  Coin.balance */\n      0xe3d670d7\n      swap1\n        /* \"#utility.yul\":956:974   */\n      0x24\n      add\n        /* \"smartContract_flat.sol\":30453:30479  Coin.balance(AdminAddress) */\n      0x20\n      mload(0x40)\n      dup1\n      dup4\n      sub\n      dup2\n      dup7\n      gas\n      staticcall\n      iszero\n      dup1\n      iszero\n      tag_135\n      jumpi\n      returndatasize\n      0x00\n      dup1\n      returndatacopy\n      revert(0x00, returndatasize)\n    tag_135:\n      pop\n      pop\n      pop\n      pop\n      mload(0x40)\n      returndatasize\n      not(0x1f)\n      0x1f\n      dup3\n      add\n      and\n      dup3\n      add\n      dup1\n      0x40\n      mstore\n      pop\n      dup2\n      add\n      swap1\n      tag_136\n      swap2\n      swap1\n      tag_137\n      jump\t// in\n    tag_136:\n        /* \"smartContract_flat.sol\":30453:30488  Coin.balance(AdminAddress) > amount */\n      gt\n        /* \"smartContract_flat.sol\":30431:30557  require(... */\n      tag_138\n      jumpi\n      mload(0x40)\n      shl(0xe5, 0x461bcd)\n      dup2\n      mstore\n        /* \"#utility.yul\":5635:5637   */\n      0x20\n        /* \"smartContract_flat.sol\":30431:30557  require(... */\n      0x04\n      dup3\n      add\n        /* \"#utility.yul\":5617:5638   */\n      mstore\n        /* \"#utility.yul\":5674:5676   */\n      0x29\n        /* \"#utility.yul\":5654:5672   */\n      0x24\n      dup3\n      add\n        /* \"#utility.yul\":5647:5677   */\n      mstore\n        /* \"#utility.yul\":5713:5747   */\n      0x4572726f723a2041646d696e20646f6573206e6f74206861766520656e6f7567\n        /* \"#utility.yul\":5693:5711   */\n      0x44\n      dup3\n      add\n        /* \"#utility.yul\":5686:5748   */\n      mstore\n      shl(0xb8, 0x682062616c616e6365)\n        /* \"#utility.yul\":5764:5782   */\n      0x64\n      dup3\n      add\n        /* \"#utility.yul\":5757:5796   */\n      mstore\n        /* \"#utility.yul\":5813:5832   */\n      0x84\n      add\n        /* \"smartContract_flat.sol\":30431:30557  require(... */\n      tag_99\n        /* \"#utility.yul\":5433:5838   */\n      jump\n        /* \"smartContract_flat.sol\":30431:30557  require(... */\n    tag_138:\n        /* \"smartContract_flat.sol\":30593:30603  investerID */\n      0x03\n        /* \"smartContract_flat.sol\":30593:30605  investerID++ */\n      dup1\n      sload\n      0x01\n      swap1\n      dup2\n      add\n      swap2\n      dup3\n      swap1\n      sstore\n      sub(shl(0xa0, 0x01), 0x01)\n        /* \"smartContract_flat.sol\":30669:30689  getIDByAddress[user] */\n      dup4\n      and\n        /* \"smartContract_flat.sol\":30593:30603  investerID */\n      0x00\n        /* \"smartContract_flat.sol\":30669:30689  getIDByAddress[user] */\n      swap1\n      dup2\n      mstore\n        /* \"smartContract_flat.sol\":30669:30683  getIDByAddress */\n      0x06\n        /* \"smartContract_flat.sol\":30669:30689  getIDByAddress[user] */\n      0x20\n      swap1\n      dup2\n      mstore\n      0x40\n      dup3\n      keccak256\n        /* \"smartContract_flat.sol\":30669:30698  getIDByAddress[user].push(id) */\n      dup1\n      sload\n      dup1\n      dup6\n      add\n      dup3\n      sstore\n      swap1\n      dup4\n      mstore\n      swap2\n      keccak256\n      add\n      dup3\n      swap1\n      sstore\n        /* \"smartContract_flat.sol\":30744:30747  100 */\n      0x64\n      swap1\n        /* \"smartContract_flat.sol\":30730:30740  1 * amount */\n      tag_142\n      swap1\n        /* \"smartContract_flat.sol\":30734:30740  amount */\n      dup6\n      swap1\n        /* \"smartContract_flat.sol\":30730:30740  1 * amount */\n      tag_143\n      jump\t// in\n    tag_142:\n        /* \"smartContract_flat.sol\":30729:30747  (1 * amount) / 100 */\n      tag_144\n      swap2\n      swap1\n      tag_145\n      jump\t// in\n    tag_144:\n        /* \"smartContract_flat.sol\":30709:30726  burningAmount[id] */\n      0x00\n      dup3\n      dup2\n      mstore\n        /* \"smartContract_flat.sol\":30709:30722  burningAmount */\n      0x07\n        /* \"smartContract_flat.sol\":30709:30726  burningAmount[id] */\n      0x20\n      mstore\n      0x40\n      swap1\n      keccak256\n        /* \"smartContract_flat.sol\":30709:30747  burningAmount[id] = (1 * amount) / 100 */\n      dup2\n      swap1\n      sstore\n        /* \"smartContract_flat.sol\":30783:30812  amount.sub(burningAmount[id]) */\n      tag_146\n      swap1\n        /* \"smartContract_flat.sol\":30783:30789  amount */\n      dup5\n      swap1\n        /* \"smartContract_flat.sol\":30783:30793  amount.sub */\n      tag_147\n        /* \"smartContract_flat.sol\":30783:30812  amount.sub(burningAmount[id]) */\n      jump\t// in\n    tag_146:\n        /* \"smartContract_flat.sol\":30758:30780  amountAfterBurning[id] */\n      0x00\n      dup3\n      dup2\n      mstore\n        /* \"smartContract_flat.sol\":30758:30776  amountAfterBurning */\n      0x08\n        /* \"smartContract_flat.sol\":30758:30780  amountAfterBurning[id] */\n      0x20\n      mstore\n      0x40\n      swap1\n      dup2\n      swap1\n      keccak256\n        /* \"smartContract_flat.sol\":30758:30812  amountAfterBurning[id] = amount.sub(burningAmount[id]) */\n      dup3\n      swap1\n      sstore\n        /* \"smartContract_flat.sol\":30823:30827  Coin */\n      sload(0x02)\n      0x01\n        /* \"smartContract_flat.sol\":30842:30854  AdminAddress */\n      sload\n        /* \"smartContract_flat.sol\":30823:30885  Coin.transferPrice(AdminAddress, user, amountAfterBurning[id]) */\n      swap2\n      mload\n      shl(0xe0, 0xb45ee9ef)\n      dup2\n      mstore\n      sub(shl(0xa0, 0x01), 0x01)\n        /* \"smartContract_flat.sol\":30842:30854  AdminAddress */\n      swap3\n      dup4\n      and\n        /* \"smartContract_flat.sol\":30823:30885  Coin.transferPrice(AdminAddress, user, amountAfterBurning[id]) */\n      0x04\n      dup3\n      add\n        /* \"#utility.yul\":4744:4778   */\n      mstore\n        /* \"#utility.yul\":4814:4829   */\n      dup6\n      dup4\n      and\n        /* \"#utility.yul\":4794:4812   */\n      0x24\n      dup3\n      add\n        /* \"#utility.yul\":4787:4830   */\n      mstore\n        /* \"#utility.yul\":4846:4864   */\n      0x44\n      dup2\n      add\n        /* \"#utility.yul\":4839:4873   */\n      swap4\n      swap1\n      swap4\n      mstore\n        /* \"smartContract_flat.sol\":30823:30827  Coin */\n      and\n      swap1\n        /* \"smartContract_flat.sol\":30823:30841  Coin.transferPrice */\n      0xb45ee9ef\n      swap1\n        /* \"#utility.yul\":4679:4697   */\n      0x64\n      add\n        /* \"smartContract_flat.sol\":30823:30885  Coin.transferPrice(AdminAddress, user, amountAfterBurning[id]) */\n      0x00\n      mload(0x40)\n      dup1\n      dup4\n      sub\n      dup2\n      0x00\n      dup8\n      dup1\n      extcodesize\n      iszero\n      dup1\n      iszero\n      tag_149\n      jumpi\n      0x00\n      dup1\n      revert\n    tag_149:\n      pop\n      gas\n      call\n      iszero\n      dup1\n      iszero\n      tag_151\n      jumpi\n      returndatasize\n      0x00\n      dup1\n      returndatacopy\n      revert(0x00, returndatasize)\n    tag_151:\n      pop\n      pop\n        /* \"smartContract_flat.sol\":30921:30931  investerID */\n      0x03\n      dup1\n      sload\n      sub(shl(0xa0, 0x01), 0x01)\n        /* \"smartContract_flat.sol\":30898:30911  buyInfo[user] */\n      dup7\n      and\n      0x00\n      swap1\n      dup2\n      mstore\n        /* \"smartContract_flat.sol\":30898:30905  buyInfo */\n      0x05\n        /* \"smartContract_flat.sol\":30898:30911  buyInfo[user] */\n      0x20\n      swap1\n      dup2\n      mstore\n      0x40\n      dup1\n      dup4\n      keccak256\n        /* \"smartContract_flat.sol\":30898:30915  buyInfo[user][id] */\n      dup9\n      dup5\n      mstore\n      dup3\n      mstore\n      dup1\n      dup4\n      keccak256\n        /* \"smartContract_flat.sol\":30898:30931  buyInfo[user][id].ID = investerID */\n      swap4\n      dup5\n      sstore\n        /* \"smartContract_flat.sol\":30970:30985  block.timestamp */\n      timestamp\n        /* \"smartContract_flat.sol\":30942:30967  buyInfo[user][id].buyTime */\n      0x01\n      dup6\n      add\n        /* \"smartContract_flat.sol\":30942:30985  buyInfo[user][id].buyTime = block.timestamp */\n      sstore\n        /* \"smartContract_flat.sol\":30996:31027  buyInfo[user][id].purchaseToken */\n      0x02\n      dup1\n      dup6\n      add\n        /* \"smartContract_flat.sol\":30996:31036  buyInfo[user][id].purchaseToken = amount */\n      dup12\n      swap1\n      sstore\n        /* \"smartContract_flat.sol\":31077:31090  burningAmount */\n      0x07\n        /* \"smartContract_flat.sol\":31077:31094  burningAmount[id] */\n      dup4\n      mstore\n      dup2\n      dup5\n      keccak256\n      sload\n        /* \"smartContract_flat.sol\":31047:31074  buyInfo[user][id].burnToken */\n      swap6\n      dup6\n      add\n        /* \"smartContract_flat.sol\":31047:31094  buyInfo[user][id].burnToken = burningAmount[id] */\n      swap6\n      swap1\n      swap6\n      sstore\n        /* \"smartContract_flat.sol\":31134:31152  amountAfterBurning */\n      0x08\n        /* \"smartContract_flat.sol\":31134:31156  amountAfterBurning[id] */\n      swap1\n      swap2\n      mstore\n      swap1\n      keccak256\n      sload\n        /* \"smartContract_flat.sol\":31105:31131  buyInfo[user][id].userGets */\n      0x04\n      swap1\n      swap2\n      add\n        /* \"smartContract_flat.sol\":31105:31156  buyInfo[user][id].userGets = amountAfterBurning[id] */\n      dup2\n      swap1\n      sstore\n        /* \"smartContract_flat.sol\":31193:31222  amountAfterBurning[id].div(2) */\n      tag_152\n      swap4\n      pop\n        /* \"smartContract_flat.sol\":31134:31156  amountAfterBurning[id] */\n      swap2\n      pop\n        /* \"smartContract_flat.sol\":31193:31219  amountAfterBurning[id].div */\n      tag_153\n        /* \"smartContract_flat.sol\":31193:31222  amountAfterBurning[id].div(2) */\n      jump\t// in\n    tag_152:\n        /* \"smartContract_flat.sol\":31167:31190  ownerSurplusToAdmin[id] */\n      0x00\n      dup3\n      dup2\n      mstore\n        /* \"smartContract_flat.sol\":31167:31186  ownerSurplusToAdmin */\n      0x09\n        /* \"smartContract_flat.sol\":31167:31190  ownerSurplusToAdmin[id] */\n      0x20\n      mstore\n      0x40\n      swap1\n      keccak256\n        /* \"smartContract_flat.sol\":31167:31222  ownerSurplusToAdmin[id] = amountAfterBurning[id].div(2) */\n      dup2\n      swap1\n      sstore\n        /* \"smartContract_flat.sol\":31255:31259  Coin */\n      and(sub(shl(0xa0, 0x01), 0x01), sload(0x02))\n        /* \"smartContract_flat.sol\":31255:31267  Coin.balance */\n      0xe3d670d7\n        /* \"smartContract_flat.sol\":31268:31275  owner() */\n      tag_154\n        /* \"smartContract_flat.sol\":18987:18994  address */\n      0x00\n        /* \"smartContract_flat.sol\":19014:19020  _owner */\n      sload\n      sub(shl(0xa0, 0x01), 0x01)\n      and\n      swap1\n        /* \"smartContract_flat.sol\":18941:19028  function owner() public view virtual returns (address) {... */\n      jump\n        /* \"smartContract_flat.sol\":31268:31275  owner() */\n    tag_154:\n        /* \"smartContract_flat.sol\":31255:31276  Coin.balance(owner()) */\n      mload(0x40)\n      not(sub(shl(0xe0, 0x01), 0x01))\n      0xe0\n      dup5\n      swap1\n      shl\n      and\n      dup2\n      mstore\n      sub(shl(0xa0, 0x01), 0x01)\n        /* \"#utility.yul\":1001:1033   */\n      swap1\n      swap2\n      and\n        /* \"smartContract_flat.sol\":31255:31276  Coin.balance(owner()) */\n      0x04\n      dup3\n      add\n        /* \"#utility.yul\":983:1034   */\n      mstore\n        /* \"#utility.yul\":956:974   */\n      0x24\n      add\n        /* \"smartContract_flat.sol\":31255:31276  Coin.balance(owner()) */\n      0x20\n      mload(0x40)\n      dup1\n      dup4\n      sub\n      dup2\n      dup7\n      gas\n      staticcall\n      iszero\n      dup1\n      iszero\n      tag_157\n      jumpi\n      returndatasize\n      0x00\n      dup1\n      returndatacopy\n      revert(0x00, returndatasize)\n    tag_157:\n      pop\n      pop\n      pop\n      pop\n      mload(0x40)\n      returndatasize\n      not(0x1f)\n      0x1f\n      dup3\n      add\n      and\n      dup3\n      add\n      dup1\n      0x40\n      mstore\n      pop\n      dup2\n      add\n      swap1\n      tag_158\n      swap2\n      swap1\n      tag_137\n      jump\t// in\n    tag_158:\n        /* \"smartContract_flat.sol\":31255:31302  Coin.balance(owner()) > ownerSurplusToAdmin[id] */\n      gt\n        /* \"smartContract_flat.sol\":31233:31371  require(... */\n      tag_159\n      jumpi\n      mload(0x40)\n      shl(0xe5, 0x461bcd)\n      dup2\n      mstore\n        /* \"#utility.yul\":6572:6574   */\n      0x20\n        /* \"smartContract_flat.sol\":31233:31371  require(... */\n      0x04\n      dup3\n      add\n        /* \"#utility.yul\":6554:6575   */\n      mstore\n        /* \"#utility.yul\":6611:6613   */\n      0x29\n        /* \"#utility.yul\":6591:6609   */\n      0x24\n      dup3\n      add\n        /* \"#utility.yul\":6584:6614   */\n      mstore\n        /* \"#utility.yul\":6650:6684   */\n      0x4572726f723a204f776e657220646f6573206e6f74206861766520656e6f7567\n        /* \"#utility.yul\":6630:6648   */\n      0x44\n      dup3\n      add\n        /* \"#utility.yul\":6623:6685   */\n      mstore\n      shl(0xb8, 0x682062616c616e6365)\n        /* \"#utility.yul\":6701:6719   */\n      0x64\n      dup3\n      add\n        /* \"#utility.yul\":6694:6733   */\n      mstore\n        /* \"#utility.yul\":6750:6769   */\n      0x84\n      add\n        /* \"smartContract_flat.sol\":31233:31371  require(... */\n      tag_99\n        /* \"#utility.yul\":6370:6775   */\n      jump\n        /* \"smartContract_flat.sol\":31233:31371  require(... */\n    tag_159:\n        /* \"smartContract_flat.sol\":31415:31438  ownerSurplusToAdmin[id] */\n      0x00\n      dup2\n      dup2\n      mstore\n        /* \"smartContract_flat.sol\":31415:31434  ownerSurplusToAdmin */\n      0x09\n        /* \"smartContract_flat.sol\":31415:31438  ownerSurplusToAdmin[id] */\n      0x20\n      swap1\n      dup2\n      mstore\n      0x40\n      dup1\n      dup4\n      keccak256\n      sload\n      sub(shl(0xa0, 0x01), 0x01)\n        /* \"smartContract_flat.sol\":31382:31395  buyInfo[user] */\n      dup1\n      dup8\n      and\n      dup6\n      mstore\n        /* \"smartContract_flat.sol\":31382:31389  buyInfo */\n      0x05\n        /* \"smartContract_flat.sol\":31382:31395  buyInfo[user] */\n      dup1\n      dup6\n      mstore\n      dup4\n      dup7\n      keccak256\n        /* \"smartContract_flat.sol\":31382:31399  buyInfo[user][id] */\n      dup8\n      dup8\n      mstore\n      swap1\n      swap5\n      mstore\n      swap2\n      swap1\n      swap4\n      keccak256\n        /* \"smartContract_flat.sol\":31382:31412  buyInfo[user][id].ownerSurplus */\n      swap1\n      swap2\n      add\n        /* \"smartContract_flat.sol\":31382:31438  buyInfo[user][id].ownerSurplus = ownerSurplusToAdmin[id] */\n      swap2\n      swap1\n      swap2\n      sstore\n        /* \"smartContract_flat.sol\":31449:31453  Coin */\n      sload(0x02)\n      and\n        /* \"smartContract_flat.sol\":31449:31467  Coin.transferPrice */\n      0xb45ee9ef\n        /* \"smartContract_flat.sol\":31468:31475  owner() */\n      tag_162\n        /* \"smartContract_flat.sol\":18987:18994  address */\n      0x00\n        /* \"smartContract_flat.sol\":19014:19020  _owner */\n      sload\n      sub(shl(0xa0, 0x01), 0x01)\n      and\n      swap1\n        /* \"smartContract_flat.sol\":18941:19028  function owner() public view virtual returns (address) {... */\n      jump\n        /* \"smartContract_flat.sol\":31468:31475  owner() */\n    tag_162:\n        /* \"smartContract_flat.sol\":31477:31489  AdminAddress */\n      sload(0x01)\n      0x00\n        /* \"smartContract_flat.sol\":31491:31514  ownerSurplusToAdmin[id] */\n      dup6\n      dup2\n      mstore\n        /* \"smartContract_flat.sol\":31491:31510  ownerSurplusToAdmin */\n      0x09\n        /* \"smartContract_flat.sol\":31491:31514  ownerSurplusToAdmin[id] */\n      0x20\n      mstore\n      0x40\n      swap1\n      dup2\n      swap1\n      keccak256\n      sload\n        /* \"smartContract_flat.sol\":31449:31515  Coin.transferPrice(owner(), AdminAddress, ownerSurplusToAdmin[id]) */\n      swap1\n      mload\n      0xe0\n      dup6\n      swap1\n      shl\n      not(sub(shl(0xe0, 0x01), 0x01))\n      and\n      dup2\n      mstore\n      sub(shl(0xa0, 0x01), 0x01)\n        /* \"#utility.yul\":4762:4777   */\n      swap4\n      dup5\n      and\n        /* \"smartContract_flat.sol\":31449:31515  Coin.transferPrice(owner(), AdminAddress, ownerSurplusToAdmin[id]) */\n      0x04\n      dup3\n      add\n        /* \"#utility.yul\":4744:4778   */\n      mstore\n        /* \"smartContract_flat.sol\":31477:31489  AdminAddress */\n      swap3\n      swap1\n      swap2\n      and\n        /* \"#utility.yul\":4794:4812   */\n      0x24\n      dup4\n      add\n        /* \"#utility.yul\":4787:4830   */\n      mstore\n        /* \"#utility.yul\":4846:4864   */\n      0x44\n      dup3\n      add\n        /* \"#utility.yul\":4839:4873   */\n      mstore\n        /* \"#utility.yul\":4679:4697   */\n      0x64\n      add\n        /* \"smartContract_flat.sol\":31449:31515  Coin.transferPrice(owner(), AdminAddress, ownerSurplusToAdmin[id]) */\n      0x00\n      mload(0x40)\n      dup1\n      dup4\n      sub\n      dup2\n      0x00\n      dup8\n      dup1\n      extcodesize\n      iszero\n      dup1\n      iszero\n      tag_164\n      jumpi\n      0x00\n      dup1\n      revert\n    tag_164:\n      pop\n      gas\n      call\n      iszero\n      dup1\n      iszero\n      tag_166\n      jumpi\n      returndatasize\n      0x00\n      dup1\n      returndatacopy\n      revert(0x00, returndatasize)\n    tag_166:\n      pop\n      pop\n      pop\n        /* \"smartContract_flat.sol\":31544:31567  ownerSurplusToAdmin[id] */\n      0x00\n      dup3\n      dup2\n      mstore\n        /* \"smartContract_flat.sol\":31544:31563  ownerSurplusToAdmin */\n      0x09\n        /* \"smartContract_flat.sol\":31544:31567  ownerSurplusToAdmin[id] */\n      0x20\n      mstore\n      0x40\n      swap1\n      keccak256\n      sload\n        /* \"smartContract_flat.sol\":31539:31584  (1 * ownerSurplusToAdmin[id]).div(1000000000) */\n      tag_167\n      swap2\n      pop\n        /* \"smartContract_flat.sol\":31573:31583  1000000000 */\n      0x3b9aca00\n      swap1\n        /* \"smartContract_flat.sol\":31540:31567  1 * ownerSurplusToAdmin[id] */\n      tag_168\n      swap1\n        /* \"smartContract_flat.sol\":31540:31541  1 */\n      0x01\n        /* \"smartContract_flat.sol\":31540:31567  1 * ownerSurplusToAdmin[id] */\n      tag_143\n      jump\t// in\n    tag_168:\n        /* \"smartContract_flat.sol\":31539:31572  (1 * ownerSurplusToAdmin[id]).div */\n      swap1\n      tag_153\n        /* \"smartContract_flat.sol\":31539:31584  (1 * ownerSurplusToAdmin[id]).div(1000000000) */\n      jump\t// in\n    tag_167:\n      pop\n        /* \"smartContract_flat.sol\":18987:18994  address */\n      0x00\n        /* \"smartContract_flat.sol\":19014:19020  _owner */\n      dup1\n      sload\n        /* \"smartContract_flat.sol\":31595:31631  payable(owner()).transfer(msg.value) */\n      mload(0x40)\n      sub(shl(0xa0, 0x01), 0x01)\n        /* \"smartContract_flat.sol\":19014:19020  _owner */\n      swap1\n      swap2\n      and\n      swap2\n        /* \"smartContract_flat.sol\":31621:31630  msg.value */\n      callvalue\n        /* \"smartContract_flat.sol\":31595:31631  payable(owner()).transfer(msg.value) */\n      dup1\n      iszero\n      0x08fc\n      mul\n      swap3\n        /* \"smartContract_flat.sol\":31621:31630  msg.value */\n      swap1\n      swap2\n        /* \"smartContract_flat.sol\":31595:31631  payable(owner()).transfer(msg.value) */\n      dup2\n        /* \"smartContract_flat.sol\":18987:18994  address */\n      dup2\n        /* \"smartContract_flat.sol\":31595:31631  payable(owner()).transfer(msg.value) */\n      dup2\n        /* \"smartContract_flat.sol\":31621:31630  msg.value */\n      dup6\n        /* \"smartContract_flat.sol\":19014:19020  _owner */\n      dup9\n        /* \"smartContract_flat.sol\":31595:31631  payable(owner()).transfer(msg.value) */\n      dup9\n      call\n      swap4\n      pop\n      pop\n      pop\n      pop\n      iszero\n      dup1\n      iszero\n      tag_171\n      jumpi\n      returndatasize\n      0x00\n      dup1\n      returndatacopy\n      revert(0x00, returndatasize)\n    tag_171:\n      pop\n      sub(shl(0xa0, 0x01), 0x01)\n        /* \"smartContract_flat.sol\":31642:31655  buyInfo[user] */\n      dup1\n      dup4\n      and\n      0x00\n      swap1\n      dup2\n      mstore\n        /* \"smartContract_flat.sol\":31642:31649  buyInfo */\n      0x05\n        /* \"smartContract_flat.sol\":31642:31655  buyInfo[user] */\n      0x20\n      swap1\n      dup2\n      mstore\n      0x40\n      dup1\n      dup4\n      keccak256\n        /* \"smartContract_flat.sol\":31642:31659  buyInfo[user][id] */\n      dup6\n      dup5\n      mstore\n      swap1\n      swap2\n      mstore\n      swap1\n      keccak256\n        /* \"smartContract_flat.sol\":31680:31689  msg.value */\n      callvalue\n        /* \"smartContract_flat.sol\":31642:31677  buyInfo[user][id].BNBchargedByAdmin */\n      0x06\n      swap1\n      swap2\n      add\n        /* \"smartContract_flat.sol\":31642:31689  buyInfo[user][id].BNBchargedByAdmin = msg.value */\n      sstore\n        /* \"smartContract_flat.sol\":31736:31748  AdminAddress */\n      sload(0x01)\n        /* \"smartContract_flat.sol\":31705:31758  buyTokenDetailsAddresses(user, AdminAddress, owner()) */\n      0x200e42c44f4b61e64b8298dd340205f3d4fd26f4018958219ac19fa737a4bc93\n      swap2\n        /* \"smartContract_flat.sol\":31650:31654  user */\n      dup5\n      swap2\n        /* \"smartContract_flat.sol\":31736:31748  AdminAddress */\n      and\n        /* \"smartContract_flat.sol\":31750:31757  owner() */\n      tag_172\n        /* \"smartContract_flat.sol\":18987:18994  address */\n      0x00\n        /* \"smartContract_flat.sol\":19014:19020  _owner */\n      sload\n      sub(shl(0xa0, 0x01), 0x01)\n      and\n      swap1\n        /* \"smartContract_flat.sol\":18941:19028  function owner() public view virtual returns (address) {... */\n      jump\n        /* \"smartContract_flat.sol\":31750:31757  owner() */\n    tag_172:\n        /* \"smartContract_flat.sol\":31705:31758  buyTokenDetailsAddresses(user, AdminAddress, owner()) */\n      0x40\n      dup1\n      mload\n      sub(shl(0xa0, 0x01), 0x01)\n        /* \"#utility.yul\":7038:7053   */\n      swap5\n      dup6\n      and\n        /* \"#utility.yul\":7020:7054   */\n      dup2\n      mstore\n        /* \"#utility.yul\":7090:7105   */\n      swap3\n      dup5\n      and\n        /* \"#utility.yul\":7085:7087   */\n      0x20\n        /* \"#utility.yul\":7070:7088   */\n      dup5\n      add\n        /* \"#utility.yul\":7063:7106   */\n      mstore\n        /* \"#utility.yul\":7142:7157   */\n      swap3\n      and\n        /* \"#utility.yul\":7122:7140   */\n      dup2\n      dup4\n      add\n        /* \"#utility.yul\":7115:7158   */\n      mstore\n        /* \"smartContract_flat.sol\":31705:31758  buyTokenDetailsAddresses(user, AdminAddress, owner()) */\n      swap1\n      mload\n      swap1\n      dup2\n      swap1\n      sub\n        /* \"#utility.yul\":6970:6972   */\n      0x60\n        /* \"smartContract_flat.sol\":31705:31758  buyTokenDetailsAddresses(user, AdminAddress, owner()) */\n      add\n      swap1\n      log1\n        /* \"smartContract_flat.sol\":31825:31842  burningAmount[id] */\n      0x00\n      dup2\n      dup2\n      mstore\n        /* \"smartContract_flat.sol\":31825:31838  burningAmount */\n      0x07\n        /* \"smartContract_flat.sol\":31825:31842  burningAmount[id] */\n      0x20\n      swap1\n      dup2\n      mstore\n      0x40\n      dup1\n      dup4\n      keccak256\n      sload\n        /* \"smartContract_flat.sol\":31857:31875  amountAfterBurning */\n      0x08\n        /* \"smartContract_flat.sol\":31857:31879  amountAfterBurning[id] */\n      dup4\n      mstore\n      dup2\n      dup5\n      keccak256\n      sload\n        /* \"smartContract_flat.sol\":31894:31913  ownerSurplusToAdmin */\n      0x09\n        /* \"smartContract_flat.sol\":31894:31917  ownerSurplusToAdmin[id] */\n      dup5\n      mstore\n      swap4\n      dup3\n      swap1\n      keccak256\n      sload\n        /* \"smartContract_flat.sol\":31774:31952  buyTokenDetails(... */\n      dup3\n      mload\n        /* \"#utility.yul\":7428:7453   */\n      dup9\n      dup2\n      mstore\n        /* \"#utility.yul\":7469:7487   */\n      swap4\n      dup5\n      add\n        /* \"#utility.yul\":7462:7496   */\n      swap2\n      swap1\n      swap2\n      mstore\n        /* \"#utility.yul\":7512:7530   */\n      swap1\n      dup3\n      add\n        /* \"#utility.yul\":7505:7539   */\n      swap3\n      swap1\n      swap3\n      mstore\n        /* \"#utility.yul\":7570:7572   */\n      0x60\n        /* \"#utility.yul\":7555:7573   */\n      dup2\n      add\n        /* \"#utility.yul\":7548:7582   */\n      swap2\n      swap1\n      swap2\n      mstore\n        /* \"smartContract_flat.sol\":31932:31941  msg.value */\n      callvalue\n        /* \"#utility.yul\":7613:7616   */\n      0x80\n        /* \"#utility.yul\":7598:7617   */\n      dup3\n      add\n        /* \"#utility.yul\":7591:7626   */\n      mstore\n        /* \"smartContract_flat.sol\":31774:31952  buyTokenDetails(... */\n      0xd3826252b977104a2929fb0e0fea16abe1e1f9d413dbdd04568f52a0a681bf1c\n      swap1\n        /* \"#utility.yul\":7415:7418   */\n      0xa0\n        /* \"#utility.yul\":7400:7419   */\n      add\n        /* \"smartContract_flat.sol\":31774:31952  buyTokenDetails(... */\n      mload(0x40)\n      dup1\n      swap2\n      sub\n      swap1\n      log1\n        /* \"smartContract_flat.sol\":30339:31960  {... */\n      pop\n        /* \"smartContract_flat.sol\":30276:31960  function buyToken(uint256 amount, address user) public payable {... */\n      pop\n      pop\n      jump\t// out\n        /* \"smartContract_flat.sol\":19850:20088  function transferOwnership(address newOwner) public virtual onlyOwner {... */\n    tag_93:\n        /* \"smartContract_flat.sol\":18987:18994  address */\n      0x00\n        /* \"smartContract_flat.sol\":19014:19020  _owner */\n      sload\n      sub(shl(0xa0, 0x01), 0x01)\n      and\n        /* \"smartContract_flat.sol\":4375:4385  msg.sender */\n      caller\n        /* \"smartContract_flat.sol\":19161:19184  owner() == _msgSender() */\n      eq\n        /* \"smartContract_flat.sol\":19153:19221  require(owner() == _msgSender(), \"Ownable: caller is not the owner\") */\n      tag_181\n      jumpi\n      mload(0x40)\n      shl(0xe5, 0x461bcd)\n      dup2\n      mstore\n      0x04\n      add\n      tag_99\n      swap1\n      tag_100\n      jump\t// in\n    tag_181:\n      sub(shl(0xa0, 0x01), 0x01)\n        /* \"smartContract_flat.sol\":19953:19975  newOwner != address(0) */\n      dup2\n      and\n        /* \"smartContract_flat.sol\":19931:20041  require(... */\n      tag_184\n      jumpi\n      mload(0x40)\n      shl(0xe5, 0x461bcd)\n      dup2\n      mstore\n        /* \"#utility.yul\":7839:7841   */\n      0x20\n        /* \"smartContract_flat.sol\":19931:20041  require(... */\n      0x04\n      dup3\n      add\n        /* \"#utility.yul\":7821:7842   */\n      mstore\n        /* \"#utility.yul\":7878:7880   */\n      0x26\n        /* \"#utility.yul\":7858:7876   */\n      0x24\n      dup3\n      add\n        /* \"#utility.yul\":7851:7881   */\n      mstore\n        /* \"#utility.yul\":7917:7951   */\n      0x4f776e61626c653a206e6577206f776e657220697320746865207a65726f2061\n        /* \"#utility.yul\":7897:7915   */\n      0x44\n      dup3\n      add\n        /* \"#utility.yul\":7890:7952   */\n      mstore\n      shl(0xd0, 0x646472657373)\n        /* \"#utility.yul\":7968:7986   */\n      0x64\n      dup3\n      add\n        /* \"#utility.yul\":7961:7997   */\n      mstore\n        /* \"#utility.yul\":8014:8033   */\n      0x84\n      add\n        /* \"smartContract_flat.sol\":19931:20041  require(... */\n      tag_99\n        /* \"#utility.yul\":7637:8039   */\n      jump\n        /* \"smartContract_flat.sol\":19931:20041  require(... */\n    tag_184:\n        /* \"smartContract_flat.sol\":20052:20080  _transferOwnership(newOwner) */\n      tag_187\n        /* \"smartContract_flat.sol\":20071:20079  newOwner */\n      dup2\n        /* \"smartContract_flat.sol\":20052:20070  _transferOwnership */\n      tag_127\n        /* \"smartContract_flat.sol\":20052:20080  _transferOwnership(newOwner) */\n      jump\t// in\n    tag_187:\n        /* \"smartContract_flat.sol\":19850:20088  function transferOwnership(address newOwner) public virtual onlyOwner {... */\n      pop\n      jump\t// out\n        /* \"smartContract_flat.sol\":20248:20439  function _transferOwnership(address newOwner) internal virtual {... */\n    tag_127:\n        /* \"smartContract_flat.sol\":20322:20338  address oldOwner */\n      0x00\n        /* \"smartContract_flat.sol\":20341:20347  _owner */\n      dup1\n      sload\n      sub(shl(0xa0, 0x01), 0x01)\n        /* \"smartContract_flat.sol\":20358:20375  _owner = newOwner */\n      dup4\n      dup2\n      and\n      not(sub(shl(0xa0, 0x01), 0x01))\n      dup4\n      and\n      dup2\n      or\n      dup5\n      sstore\n        /* \"smartContract_flat.sol\":20391:20431  OwnershipTransferred(oldOwner, newOwner) */\n      mload(0x40)\n        /* \"smartContract_flat.sol\":20341:20347  _owner */\n      swap2\n      swap1\n      swap3\n      and\n      swap3\n      dup4\n      swap2\n        /* \"smartContract_flat.sol\":20391:20431  OwnershipTransferred(oldOwner, newOwner) */\n      0x8be0079c531659141344cd1fd0a4f28419497f9722a3daafe3b4186f6b6457e0\n      swap2\n        /* \"smartContract_flat.sol\":20322:20338  address oldOwner */\n      swap1\n        /* \"smartContract_flat.sol\":20391:20431  OwnershipTransferred(oldOwner, newOwner) */\n      log3\n        /* \"smartContract_flat.sol\":20311:20439  {... */\n      pop\n        /* \"smartContract_flat.sol\":20248:20439  function _transferOwnership(address newOwner) internal virtual {... */\n      pop\n      jump\t// out\n        /* \"smartContract_flat.sol\":24554:24652  function sub(uint256 a, uint256 b) internal pure returns (uint256) {... */\n    tag_147:\n        /* \"smartContract_flat.sol\":24612:24619  uint256 */\n      0x00\n        /* \"smartContract_flat.sol\":24639:24644  a - b */\n      tag_191\n        /* \"smartContract_flat.sol\":24643:24644  b */\n      dup3\n        /* \"smartContract_flat.sol\":24639:24640  a */\n      dup5\n        /* \"smartContract_flat.sol\":24639:24644  a - b */\n      tag_192\n      jump\t// in\n    tag_191:\n        /* \"smartContract_flat.sol\":24632:24644  return a - b */\n      swap4\n        /* \"smartContract_flat.sol\":24554:24652  function sub(uint256 a, uint256 b) internal pure returns (uint256) {... */\n      swap3\n      pop\n      pop\n      pop\n      jump\t// out\n        /* \"smartContract_flat.sol\":25310:25408  function div(uint256 a, uint256 b) internal pure returns (uint256) {... */\n    tag_153:\n        /* \"smartContract_flat.sol\":25368:25375  uint256 */\n      0x00\n        /* \"smartContract_flat.sol\":25395:25400  a / b */\n      tag_191\n        /* \"smartContract_flat.sol\":25399:25400  b */\n      dup3\n        /* \"smartContract_flat.sol\":25395:25396  a */\n      dup5\n        /* \"smartContract_flat.sol\":25395:25400  a / b */\n      tag_145\n      jump\t// in\n        /* \"#utility.yul\":206:344   */\n    tag_195:\n      sub(shl(0xa0, 0x01), 0x01)\n        /* \"#utility.yul\":288:319   */\n      dup2\n      and\n        /* \"#utility.yul\":278:320   */\n      dup2\n      eq\n        /* \"#utility.yul\":268:338   */\n      tag_187\n      jumpi\n        /* \"#utility.yul\":334:335   */\n      0x00\n        /* \"#utility.yul\":331:332   */\n      dup1\n        /* \"#utility.yul\":324:336   */\n      revert\n        /* \"#utility.yul\":349:832   */\n    tag_28:\n        /* \"#utility.yul\":439:445   */\n      0x00\n        /* \"#utility.yul\":447:453   */\n      dup1\n        /* \"#utility.yul\":455:461   */\n      0x00\n        /* \"#utility.yul\":508:510   */\n      0x60\n        /* \"#utility.yul\":496:505   */\n      dup5\n        /* \"#utility.yul\":487:494   */\n      dup7\n        /* \"#utility.yul\":483:506   */\n      sub\n        /* \"#utility.yul\":479:511   */\n      slt\n        /* \"#utility.yul\":476:528   */\n      iszero\n      tag_202\n      jumpi\n        /* \"#utility.yul\":524:525   */\n      0x00\n        /* \"#utility.yul\":521:522   */\n      dup1\n        /* \"#utility.yul\":514:526   */\n      revert\n        /* \"#utility.yul\":476:528   */\n    tag_202:\n        /* \"#utility.yul\":563:572   */\n      dup4\n        /* \"#utility.yul\":550:573   */\n      calldataload\n        /* \"#utility.yul\":582:620   */\n      tag_203\n        /* \"#utility.yul\":614:619   */\n      dup2\n        /* \"#utility.yul\":582:620   */\n      tag_195\n      jump\t// in\n    tag_203:\n        /* \"#utility.yul\":639:644   */\n      swap3\n      pop\n        /* \"#utility.yul\":696:698   */\n      0x20\n        /* \"#utility.yul\":681:699   */\n      dup5\n      add\n        /* \"#utility.yul\":668:700   */\n      calldataload\n        /* \"#utility.yul\":709:749   */\n      tag_204\n        /* \"#utility.yul\":668:700   */\n      dup2\n        /* \"#utility.yul\":709:749   */\n      tag_195\n      jump\t// in\n    tag_204:\n        /* \"#utility.yul\":349:832   */\n      swap3\n      swap6\n        /* \"#utility.yul\":768:775   */\n      swap3\n      swap5\n      pop\n      pop\n      pop\n        /* \"#utility.yul\":822:824   */\n      0x40\n        /* \"#utility.yul\":807:825   */\n      swap2\n      swap1\n      swap2\n      add\n        /* \"#utility.yul\":794:826   */\n      calldataload\n      swap1\n        /* \"#utility.yul\":349:832   */\n      jump\t// out\n        /* \"#utility.yul\":1045:1299   */\n    tag_38:\n        /* \"#utility.yul\":1104:1110   */\n      0x00\n        /* \"#utility.yul\":1157:1159   */\n      0x20\n        /* \"#utility.yul\":1145:1154   */\n      dup3\n        /* \"#utility.yul\":1136:1143   */\n      dup5\n        /* \"#utility.yul\":1132:1155   */\n      sub\n        /* \"#utility.yul\":1128:1160   */\n      slt\n        /* \"#utility.yul\":1125:1177   */\n      iszero\n      tag_207\n      jumpi\n        /* \"#utility.yul\":1173:1174   */\n      0x00\n        /* \"#utility.yul\":1170:1171   */\n      dup1\n        /* \"#utility.yul\":1163:1175   */\n      revert\n        /* \"#utility.yul\":1125:1177   */\n    tag_207:\n        /* \"#utility.yul\":1212:1221   */\n      dup2\n        /* \"#utility.yul\":1199:1222   */\n      calldataload\n        /* \"#utility.yul\":1231:1269   */\n      tag_191\n        /* \"#utility.yul\":1263:1268   */\n      dup2\n        /* \"#utility.yul\":1231:1269   */\n      tag_195\n      jump\t// in\n        /* \"#utility.yul\":1304:1484   */\n    tag_43:\n        /* \"#utility.yul\":1363:1369   */\n      0x00\n        /* \"#utility.yul\":1416:1418   */\n      0x20\n        /* \"#utility.yul\":1404:1413   */\n      dup3\n        /* \"#utility.yul\":1395:1402   */\n      dup5\n        /* \"#utility.yul\":1391:1414   */\n      sub\n        /* \"#utility.yul\":1387:1419   */\n      slt\n        /* \"#utility.yul\":1384:1436   */\n      iszero\n      tag_210\n      jumpi\n        /* \"#utility.yul\":1432:1433   */\n      0x00\n        /* \"#utility.yul\":1429:1430   */\n      dup1\n        /* \"#utility.yul\":1422:1434   */\n      revert\n        /* \"#utility.yul\":1384:1436   */\n    tag_210:\n      pop\n        /* \"#utility.yul\":1455:1478   */\n      calldataload\n      swap2\n        /* \"#utility.yul\":1304:1484   */\n      swap1\n      pop\n      jump\t// out\n        /* \"#utility.yul\":1671:2303   */\n    tag_52:\n        /* \"#utility.yul\":1842:1844   */\n      0x20\n        /* \"#utility.yul\":1894:1915   */\n      dup1\n      dup3\n      mstore\n        /* \"#utility.yul\":1964:1977   */\n      dup3\n      mload\n        /* \"#utility.yul\":1867:1885   */\n      dup3\n      dup3\n      add\n        /* \"#utility.yul\":1986:2008   */\n      dup2\n      swap1\n      mstore\n        /* \"#utility.yul\":1813:1817   */\n      0x00\n      swap2\n        /* \"#utility.yul\":1842:1844   */\n      swap1\n        /* \"#utility.yul\":2065:2080   */\n      dup5\n      dup3\n      add\n      swap1\n        /* \"#utility.yul\":2039:2041   */\n      0x40\n        /* \"#utility.yul\":2024:2042   */\n      dup6\n      add\n      swap1\n        /* \"#utility.yul\":1813:1817   */\n      dup5\n        /* \"#utility.yul\":2108:2277   */\n    tag_213:\n        /* \"#utility.yul\":2122:2128   */\n      dup2\n        /* \"#utility.yul\":2119:2120   */\n      dup2\n        /* \"#utility.yul\":2116:2129   */\n      lt\n        /* \"#utility.yul\":2108:2277   */\n      iszero\n      tag_215\n      jumpi\n        /* \"#utility.yul\":2183:2196   */\n      dup4\n      mload\n        /* \"#utility.yul\":2171:2197   */\n      dup4\n      mstore\n        /* \"#utility.yul\":2252:2267   */\n      swap3\n      dup5\n      add\n      swap3\n        /* \"#utility.yul\":2217:2229   */\n      swap2\n      dup5\n      add\n      swap2\n        /* \"#utility.yul\":2144:2145   */\n      0x01\n        /* \"#utility.yul\":2137:2146   */\n      add\n        /* \"#utility.yul\":2108:2277   */\n      jump(tag_213)\n    tag_215:\n      pop\n        /* \"#utility.yul\":2294:2297   */\n      swap1\n      swap7\n        /* \"#utility.yul\":1671:2303   */\n      swap6\n      pop\n      pop\n      pop\n      pop\n      pop\n      pop\n      jump\t// out\n        /* \"#utility.yul\":2308:2630   */\n    tag_59:\n        /* \"#utility.yul\":2376:2382   */\n      0x00\n        /* \"#utility.yul\":2384:2390   */\n      dup1\n        /* \"#utility.yul\":2437:2439   */\n      0x40\n        /* \"#utility.yul\":2425:2434   */\n      dup4\n        /* \"#utility.yul\":2416:2423   */\n      dup6\n        /* \"#utility.yul\":2412:2435   */\n      sub\n        /* \"#utility.yul\":2408:2440   */\n      slt\n        /* \"#utility.yul\":2405:2457   */\n      iszero\n      tag_217\n      jumpi\n        /* \"#utility.yul\":2453:2454   */\n      0x00\n        /* \"#utility.yul\":2450:2451   */\n      dup1\n        /* \"#utility.yul\":2443:2455   */\n      revert\n        /* \"#utility.yul\":2405:2457   */\n    tag_217:\n        /* \"#utility.yul\":2492:2501   */\n      dup3\n        /* \"#utility.yul\":2479:2502   */\n      calldataload\n        /* \"#utility.yul\":2511:2549   */\n      tag_218\n        /* \"#utility.yul\":2543:2548   */\n      dup2\n        /* \"#utility.yul\":2511:2549   */\n      tag_195\n      jump\t// in\n    tag_218:\n        /* \"#utility.yul\":2568:2573   */\n      swap5\n        /* \"#utility.yul\":2620:2622   */\n      0x20\n        /* \"#utility.yul\":2605:2623   */\n      swap4\n      swap1\n      swap4\n      add\n        /* \"#utility.yul\":2592:2624   */\n      calldataload\n      swap4\n      pop\n      pop\n      pop\n        /* \"#utility.yul\":2308:2630   */\n      jump\t// out\n        /* \"#utility.yul\":3247:3569   */\n    tag_69:\n        /* \"#utility.yul\":3315:3321   */\n      0x00\n        /* \"#utility.yul\":3323:3329   */\n      dup1\n        /* \"#utility.yul\":3376:3378   */\n      0x40\n        /* \"#utility.yul\":3364:3373   */\n      dup4\n        /* \"#utility.yul\":3355:3362   */\n      dup6\n        /* \"#utility.yul\":3351:3374   */\n      sub\n        /* \"#utility.yul\":3347:3379   */\n      slt\n        /* \"#utility.yul\":3344:3396   */\n      iszero\n      tag_221\n      jumpi\n        /* \"#utility.yul\":3392:3393   */\n      0x00\n        /* \"#utility.yul\":3389:3390   */\n      dup1\n        /* \"#utility.yul\":3382:3394   */\n      revert\n        /* \"#utility.yul\":3344:3396   */\n    tag_221:\n        /* \"#utility.yul\":3428:3437   */\n      dup3\n        /* \"#utility.yul\":3415:3438   */\n      calldataload\n        /* \"#utility.yul\":3405:3438   */\n      swap2\n      pop\n        /* \"#utility.yul\":3488:3490   */\n      0x20\n        /* \"#utility.yul\":3477:3486   */\n      dup4\n        /* \"#utility.yul\":3473:3491   */\n      add\n        /* \"#utility.yul\":3460:3492   */\n      calldataload\n        /* \"#utility.yul\":3501:3539   */\n      tag_222\n        /* \"#utility.yul\":3533:3538   */\n      dup2\n        /* \"#utility.yul\":3501:3539   */\n      tag_195\n      jump\t// in\n    tag_222:\n        /* \"#utility.yul\":3558:3563   */\n      dup1\n        /* \"#utility.yul\":3548:3563   */\n      swap2\n      pop\n      pop\n        /* \"#utility.yul\":3247:3569   */\n      swap3\n      pop\n      swap3\n      swap1\n      pop\n      jump\t// out\n        /* \"#utility.yul\":3795:4151   */\n    tag_100:\n        /* \"#utility.yul\":3997:3999   */\n      0x20\n        /* \"#utility.yul\":3979:4000   */\n      dup1\n      dup3\n      mstore\n        /* \"#utility.yul\":4016:4034   */\n      dup2\n      dup2\n      add\n        /* \"#utility.yul\":4009:4039   */\n      mstore\n        /* \"#utility.yul\":4075:4109   */\n      0x4f776e61626c653a2063616c6c6572206973206e6f7420746865206f776e6572\n        /* \"#utility.yul\":4070:4072   */\n      0x40\n        /* \"#utility.yul\":4055:4073   */\n      dup3\n      add\n        /* \"#utility.yul\":4048:4110   */\n      mstore\n        /* \"#utility.yul\":4142:4144   */\n      0x60\n        /* \"#utility.yul\":4127:4145   */\n      add\n      swap1\n        /* \"#utility.yul\":3795:4151   */\n      jump\t// out\n        /* \"#utility.yul\":5244:5428   */\n    tag_137:\n        /* \"#utility.yul\":5314:5320   */\n      0x00\n        /* \"#utility.yul\":5367:5369   */\n      0x20\n        /* \"#utility.yul\":5355:5364   */\n      dup3\n        /* \"#utility.yul\":5346:5353   */\n      dup5\n        /* \"#utility.yul\":5342:5365   */\n      sub\n        /* \"#utility.yul\":5338:5370   */\n      slt\n        /* \"#utility.yul\":5335:5387   */\n      iszero\n      tag_229\n      jumpi\n        /* \"#utility.yul\":5383:5384   */\n      0x00\n        /* \"#utility.yul\":5380:5381   */\n      dup1\n        /* \"#utility.yul\":5373:5385   */\n      revert\n        /* \"#utility.yul\":5335:5387   */\n    tag_229:\n      pop\n        /* \"#utility.yul\":5406:5422   */\n      mload\n      swap2\n        /* \"#utility.yul\":5244:5428   */\n      swap1\n      pop\n      jump\t// out\n        /* \"#utility.yul\":5843:5970   */\n    tag_196:\n        /* \"#utility.yul\":5904:5914   */\n      0x4e487b71\n        /* \"#utility.yul\":5899:5902   */\n      0xe0\n        /* \"#utility.yul\":5895:5915   */\n      shl\n        /* \"#utility.yul\":5892:5893   */\n      0x00\n        /* \"#utility.yul\":5885:5916   */\n      mstore\n        /* \"#utility.yul\":5935:5939   */\n      0x11\n        /* \"#utility.yul\":5932:5933   */\n      0x04\n        /* \"#utility.yul\":5925:5940   */\n      mstore\n        /* \"#utility.yul\":5959:5963   */\n      0x24\n        /* \"#utility.yul\":5956:5957   */\n      0x00\n        /* \"#utility.yul\":5949:5964   */\n      revert\n        /* \"#utility.yul\":5975:6143   */\n    tag_143:\n        /* \"#utility.yul\":6015:6022   */\n      0x00\n        /* \"#utility.yul\":6081:6082   */\n      dup2\n        /* \"#utility.yul\":6077:6078   */\n      0x00\n        /* \"#utility.yul\":6073:6079   */\n      not\n        /* \"#utility.yul\":6069:6083   */\n      div\n        /* \"#utility.yul\":6066:6067   */\n      dup4\n        /* \"#utility.yul\":6063:6084   */\n      gt\n        /* \"#utility.yul\":6058:6059   */\n      dup3\n        /* \"#utility.yul\":6051:6060   */\n      iszero\n        /* \"#utility.yul\":6044:6061   */\n      iszero\n        /* \"#utility.yul\":6040:6085   */\n      and\n        /* \"#utility.yul\":6037:6108   */\n      iszero\n      tag_234\n      jumpi\n        /* \"#utility.yul\":6088:6106   */\n      tag_234\n      tag_196\n      jump\t// in\n    tag_234:\n      pop\n        /* \"#utility.yul\":6128:6137   */\n      mul\n      swap1\n        /* \"#utility.yul\":5975:6143   */\n      jump\t// out\n        /* \"#utility.yul\":6148:6365   */\n    tag_145:\n        /* \"#utility.yul\":6188:6189   */\n      0x00\n        /* \"#utility.yul\":6214:6215   */\n      dup3\n        /* \"#utility.yul\":6204:6336   */\n      tag_236\n      jumpi\n        /* \"#utility.yul\":6258:6268   */\n      0x4e487b71\n        /* \"#utility.yul\":6253:6256   */\n      0xe0\n        /* \"#utility.yul\":6249:6269   */\n      shl\n        /* \"#utility.yul\":6246:6247   */\n      0x00\n        /* \"#utility.yul\":6239:6270   */\n      mstore\n        /* \"#utility.yul\":6293:6297   */\n      0x12\n        /* \"#utility.yul\":6290:6291   */\n      0x04\n        /* \"#utility.yul\":6283:6298   */\n      mstore\n        /* \"#utility.yul\":6321:6325   */\n      0x24\n        /* \"#utility.yul\":6318:6319   */\n      0x00\n        /* \"#utility.yul\":6311:6326   */\n      revert\n        /* \"#utility.yul\":6204:6336   */\n    tag_236:\n      pop\n        /* \"#utility.yul\":6350:6359   */\n      div\n      swap1\n        /* \"#utility.yul\":6148:6365   */\n      jump\t// out\n        /* \"#utility.yul\":8044:8169   */\n    tag_192:\n        /* \"#utility.yul\":8084:8088   */\n      0x00\n        /* \"#utility.yul\":8112:8113   */\n      dup3\n        /* \"#utility.yul\":8109:8110   */\n      dup3\n        /* \"#utility.yul\":8106:8114   */\n      lt\n        /* \"#utility.yul\":8103:8137   */\n      iszero\n      tag_243\n      jumpi\n        /* \"#utility.yul\":8117:8135   */\n      tag_243\n      tag_196\n      jump\t// in\n    tag_243:\n      pop\n        /* \"#utility.yul\":8154:8163   */\n      sub\n      swap1\n        /* \"#utility.yul\":8044:8169   */\n      jump\t// out\n\n    auxdata: 0xa2646970667358221220ca28295e4ee1c7656896c46a09dfee419f06b5c7261cb7770fc68feebd64d37864736f6c634300080d0033\n}\n",
				"bytecode": {
					"linkReferences": {},
					"object": "608060405234801561001057600080fd5b5061001a3361001f565b61006f565b600080546001600160a01b038381166001600160a01b0319831681178455604051919092169283917f8be0079c531659141344cd1fd0a4f28419497f9722a3daafe3b4186f6b6457e09190a35050565b610e8c8061007e6000396000f3fe6080604052600436106100e85760003560e01c80638637856d1161008a578063af0afec911610059578063af0afec9146102fa578063d09bf0e41461030f578063ee2385061461033c578063f2fde38b1461036957600080fd5b80638637856d146102135780638da5cb5b146102a95780639134709e146102c7578063a77b2e37146102da57600080fd5b80632c1e816d116100c65780632c1e816d146101765780633a84374b146101965780635f4fd1f7146101d1578063715018a6146101fe57600080fd5b8063158ef93e146100ed5780631794bb3c1461011c57806328f661e31461013e575b600080fd5b3480156100f957600080fd5b506004546101079060ff1681565b60405190151581526020015b60405180910390f35b34801561012857600080fd5b5061013c610137366004610c83565b610389565b005b34801561014a57600080fd5b5060015461015e906001600160a01b031681565b6040516001600160a01b039091168152602001610113565b34801561018257600080fd5b5061013c610191366004610cc4565b6104c8565b3480156101a257600080fd5b506101c36101b1366004610ce1565b60086020526000908152604090205481565b604051908152602001610113565b3480156101dd57600080fd5b506101f16101ec366004610cc4565b610514565b6040516101139190610cfa565b34801561020a57600080fd5b5061013c610580565b34801561021f57600080fd5b5061027461022e366004610d3e565b6005602081815260009384526040808520909152918352912080546001820154600283015460038401546004850154958501546006909501549395929491939092919087565b604080519788526020880196909652948601939093526060850191909152608084015260a083015260c082015260e001610113565b3480156102b557600080fd5b506000546001600160a01b031661015e565b61013c6102d5366004610d6a565b6105b6565b3480156102e657600080fd5b5060025461015e906001600160a01b031681565b34801561030657600080fd5b506003546101c3565b34801561031b57600080fd5b506101c361032a366004610ce1565b60096020526000908152604090205481565b34801561034857600080fd5b506101c3610357366004610ce1565b60076020526000908152604090205481565b34801561037557600080fd5b5061013c610384366004610cc4565b610b64565b6000546001600160a01b031633146103bc5760405162461bcd60e51b81526004016103b390610d9a565b60405180910390fd5b60045460ff1615156001036104095760405162461bcd60e51b8152602060048201526013602482015272105b1c9958591e48125b9a5d1a585b1a5e9959606a1b60448201526064016103b3565b600280546001600160a01b038086166001600160a01b03199283168117909355600180549186169190921617905563b45ee9ef61044e6000546001600160a01b031690565b6040516001600160e01b031960e084901b1681526001600160a01b039182166004820152908516602482015260448101849052606401600060405180830381600087803b15801561049e57600080fd5b505af11580156104b2573d6000803e3d6000fd5b50506004805460ff191660011790555050505050565b6000546001600160a01b031633146104f25760405162461bcd60e51b81526004016103b390610d9a565b600180546001600160a01b0319166001600160a01b0392909216919091179055565b6001600160a01b03811660009081526006602090815260409182902080548351818402810184019094528084526060939283018282801561057457602002820191906000526020600020905b815481526020019060010190808311610560575b50505050509050919050565b6000546001600160a01b031633146105aa5760405162461bcd60e51b81526004016103b390610d9a565b6105b46000610bff565b565b6001546001600160a01b031633146106105760405162461bcd60e51b815260206004820152601f60248201527f4f6e6c792041646d696e2063616e206d616b65207472616e73616374696f6e0060448201526064016103b3565b60025460015460405163e3d670d760e01b81526001600160a01b0391821660048201528492919091169063e3d670d790602401602060405180830381865afa158015610660573d6000803e3d6000fd5b505050506040513d601f19601f820116820180604052508101906106849190610dcf565b116106e35760405162461bcd60e51b815260206004820152602960248201527f4572726f723a2041646d696e20646f6573206e6f74206861766520656e6f7567604482015268682062616c616e636560b81b60648201526084016103b3565b600380546001908101918290556001600160a01b0383166000908152600660209081526040822080548085018255908352912001829055606490610728908590610dfe565b6107329190610e1d565b600082815260076020526040902081905561074e908490610c4f565b60008281526008602052604090819020829055600254600154915163b45ee9ef60e01b81526001600160a01b03928316600482015285831660248201526044810193909352169063b45ee9ef90606401600060405180830381600087803b1580156107b857600080fd5b505af11580156107cc573d6000803e3d6000fd5b5050600380546001600160a01b0386166000908152600560209081526040808320888452825280832093845542600185015560028085018b90556007835281842054958501959095556008909152902054600490910181905561083193509150610c62565b60008281526009602052604090208190556002546001600160a01b031663e3d670d76108656000546001600160a01b031690565b6040516001600160e01b031960e084901b1681526001600160a01b039091166004820152602401602060405180830381865afa1580156108a9573d6000803e3d6000fd5b505050506040513d601f19601f820116820180604052508101906108cd9190610dcf565b1161092c5760405162461bcd60e51b815260206004820152602960248201527f4572726f723a204f776e657220646f6573206e6f74206861766520656e6f7567604482015268682062616c616e636560b81b60648201526084016103b3565b6000818152600960209081526040808320546001600160a01b038087168552600580855283862087875290945291909320909101919091556002541663b45ee9ef61097f6000546001600160a01b031690565b6001546000858152600960205260409081902054905160e085901b6001600160e01b03191681526001600160a01b0393841660048201529290911660248301526044820152606401600060405180830381600087803b1580156109e157600080fd5b505af11580156109f5573d6000803e3d6000fd5b505050600082815260096020526040902054610a239150633b9aca0090610a1d906001610dfe565b90610c62565b50600080546040516001600160a01b03909116913480156108fc02929091818181858888f19350505050158015610a5e573d6000803e3d6000fd5b506001600160a01b0380831660009081526005602090815260408083208584529091529020346006909101556001547f200e42c44f4b61e64b8298dd340205f3d4fd26f4018958219ac19fa737a4bc9391849116610ac46000546001600160a01b031690565b604080516001600160a01b039485168152928416602084015292168183015290519081900360600190a160008181526007602090815260408083205460088352818420546009845293829020548251888152938401919091529082019290925260608101919091523460808201527fd3826252b977104a2929fb0e0fea16abe1e1f9d413dbdd04568f52a0a681bf1c9060a00160405180910390a1505050565b6000546001600160a01b03163314610b8e5760405162461bcd60e51b81526004016103b390610d9a565b6001600160a01b038116610bf35760405162461bcd60e51b815260206004820152602660248201527f4f776e61626c653a206e6577206f776e657220697320746865207a65726f206160448201526564647265737360d01b60648201526084016103b3565b610bfc81610bff565b50565b600080546001600160a01b038381166001600160a01b0319831681178455604051919092169283917f8be0079c531659141344cd1fd0a4f28419497f9722a3daafe3b4186f6b6457e09190a35050565b6000610c5b8284610e3f565b9392505050565b6000610c5b8284610e1d565b6001600160a01b0381168114610bfc57600080fd5b600080600060608486031215610c9857600080fd5b8335610ca381610c6e565b92506020840135610cb381610c6e565b929592945050506040919091013590565b600060208284031215610cd657600080fd5b8135610c5b81610c6e565b600060208284031215610cf357600080fd5b5035919050565b6020808252825182820181905260009190848201906040850190845b81811015610d3257835183529284019291840191600101610d16565b50909695505050505050565b60008060408385031215610d5157600080fd5b8235610d5c81610c6e565b946020939093013593505050565b60008060408385031215610d7d57600080fd5b823591506020830135610d8f81610c6e565b809150509250929050565b6020808252818101527f4f776e61626c653a2063616c6c6572206973206e6f7420746865206f776e6572604082015260600190565b600060208284031215610de157600080fd5b5051919050565b634e487b7160e01b600052601160045260246000fd5b6000816000190483118215151615610e1857610e18610de8565b500290565b600082610e3a57634e487b7160e01b600052601260045260246000fd5b500490565b600082821015610e5157610e51610de8565b50039056fea2646970667358221220ca28295e4ee1c7656896c46a09dfee419f06b5c7261cb7770fc68feebd64d37864736f6c634300080d0033",
					"opcodes": "PUSH1 0x80 PUSH1 0x40 MSTORE CALLVALUE DUP1 ISZERO PUSH2 0x10 JUMPI PUSH1 0x0 DUP1 REVERT JUMPDEST POP PUSH2 0x1A CALLER PUSH2 0x1F JUMP JUMPDEST PUSH2 0x6F JUMP JUMPDEST PUSH1 0x0 DUP1 SLOAD PUSH1 0x1 PUSH1 0x1 PUSH1 0xA0 SHL SUB DUP4 DUP2 AND PUSH1 0x1 PUSH1 0x1 PUSH1 0xA0 SHL SUB NOT DUP4 AND DUP2 OR DUP5 SSTORE PUSH1 0x40 MLOAD SWAP2 SWAP1 SWAP3 AND SWAP3 DUP4 SWAP2 PUSH32 0x8BE0079C531659141344CD1FD0A4F28419497F9722A3DAAFE3B4186F6B6457E0 SWAP2 SWAP1 LOG3 POP POP JUMP JUMPDEST PUSH2 0xE8C DUP1 PUSH2 0x7E PUSH1 0x0 CODECOPY PUSH1 0x0 RETURN INVALID PUSH1 0x80 PUSH1 0x40 MSTORE PUSH1 0x4 CALLDATASIZE LT PUSH2 0xE8 JUMPI PUSH1 0x0 CALLDATALOAD PUSH1 0xE0 SHR DUP1 PUSH4 0x8637856D GT PUSH2 0x8A JUMPI DUP1 PUSH4 0xAF0AFEC9 GT PUSH2 0x59 JUMPI DUP1 PUSH4 0xAF0AFEC9 EQ PUSH2 0x2FA JUMPI DUP1 PUSH4 0xD09BF0E4 EQ PUSH2 0x30F JUMPI DUP1 PUSH4 0xEE238506 EQ PUSH2 0x33C JUMPI DUP1 PUSH4 0xF2FDE38B EQ PUSH2 0x369 JUMPI PUSH1 0x0 DUP1 REVERT JUMPDEST DUP1 PUSH4 0x8637856D EQ PUSH2 0x213 JUMPI DUP1 PUSH4 0x8DA5CB5B EQ PUSH2 0x2A9 JUMPI DUP1 PUSH4 0x9134709E EQ PUSH2 0x2C7 JUMPI DUP1 PUSH4 0xA77B2E37 EQ PUSH2 0x2DA JUMPI PUSH1 0x0 DUP1 REVERT JUMPDEST DUP1 PUSH4 0x2C1E816D GT PUSH2 0xC6 JUMPI DUP1 PUSH4 0x2C1E816D EQ PUSH2 0x176 JUMPI DUP1 PUSH4 0x3A84374B EQ PUSH2 0x196 JUMPI DUP1 PUSH4 0x5F4FD1F7 EQ PUSH2 0x1D1 JUMPI DUP1 PUSH4 0x715018A6 EQ PUSH2 0x1FE JUMPI PUSH1 0x0 DUP1 REVERT JUMPDEST DUP1 PUSH4 0x158EF93E EQ PUSH2 0xED JUMPI DUP1 PUSH4 0x1794BB3C EQ PUSH2 0x11C JUMPI DUP1 PUSH4 0x28F661E3 EQ PUSH2 0x13E JUMPI JUMPDEST PUSH1 0x0 DUP1 REVERT JUMPDEST CALLVALUE DUP1 ISZERO PUSH2 0xF9 JUMPI PUSH1 0x0 DUP1 REVERT JUMPDEST POP PUSH1 0x4 SLOAD PUSH2 0x107 SWAP1 PUSH1 0xFF AND DUP2 JUMP JUMPDEST PUSH1 0x40 MLOAD SWAP1 ISZERO ISZERO DUP2 MSTORE PUSH1 0x20 ADD JUMPDEST PUSH1 0x40 MLOAD DUP1 SWAP2 SUB SWAP1 RETURN JUMPDEST CALLVALUE DUP1 ISZERO PUSH2 0x128 JUMPI PUSH1 0x0 DUP1 REVERT JUMPDEST POP PUSH2 0x13C PUSH2 0x137 CALLDATASIZE PUSH1 0x4 PUSH2 0xC83 JUMP JUMPDEST PUSH2 0x389 JUMP JUMPDEST STOP JUMPDEST CALLVALUE DUP1 ISZERO PUSH2 0x14A JUMPI PUSH1 0x0 DUP1 REVERT JUMPDEST POP PUSH1 0x1 SLOAD PUSH2 0x15E SWAP1 PUSH1 0x1 PUSH1 0x1 PUSH1 0xA0 SHL SUB AND DUP2 JUMP JUMPDEST PUSH1 0x40 MLOAD PUSH1 0x1 PUSH1 0x1 PUSH1 0xA0 SHL SUB SWAP1 SWAP2 AND DUP2 MSTORE PUSH1 0x20 ADD PUSH2 0x113 JUMP JUMPDEST CALLVALUE DUP1 ISZERO PUSH2 0x182 JUMPI PUSH1 0x0 DUP1 REVERT JUMPDEST POP PUSH2 0x13C PUSH2 0x191 CALLDATASIZE PUSH1 0x4 PUSH2 0xCC4 JUMP JUMPDEST PUSH2 0x4C8 JUMP JUMPDEST CALLVALUE DUP1 ISZERO PUSH2 0x1A2 JUMPI PUSH1 0x0 DUP1 REVERT JUMPDEST POP PUSH2 0x1C3 PUSH2 0x1B1 CALLDATASIZE PUSH1 0x4 PUSH2 0xCE1 JUMP JUMPDEST PUSH1 0x8 PUSH1 0x20 MSTORE PUSH1 0x0 SWAP1 DUP2 MSTORE PUSH1 0x40 SWAP1 KECCAK256 SLOAD DUP2 JUMP JUMPDEST PUSH1 0x40 MLOAD SWAP1 DUP2 MSTORE PUSH1 0x20 ADD PUSH2 0x113 JUMP JUMPDEST CALLVALUE DUP1 ISZERO PUSH2 0x1DD JUMPI PUSH1 0x0 DUP1 REVERT JUMPDEST POP PUSH2 0x1F1 PUSH2 0x1EC CALLDATASIZE PUSH1 0x4 PUSH2 0xCC4 JUMP JUMPDEST PUSH2 0x514 JUMP JUMPDEST PUSH1 0x40 MLOAD PUSH2 0x113 SWAP2 SWAP1 PUSH2 0xCFA JUMP JUMPDEST CALLVALUE DUP1 ISZERO PUSH2 0x20A JUMPI PUSH1 0x0 DUP1 REVERT JUMPDEST POP PUSH2 0x13C PUSH2 0x580 JUMP JUMPDEST CALLVALUE DUP1 ISZERO PUSH2 0x21F JUMPI PUSH1 0x0 DUP1 REVERT JUMPDEST POP PUSH2 0x274 PUSH2 0x22E CALLDATASIZE PUSH1 0x4 PUSH2 0xD3E JUMP JUMPDEST PUSH1 0x5 PUSH1 0x20 DUP2 DUP2 MSTORE PUSH1 0x0 SWAP4 DUP5 MSTORE PUSH1 0x40 DUP1 DUP6 KECCAK256 SWAP1 SWAP2 MSTORE SWAP2 DUP4 MSTORE SWAP2 KECCAK256 DUP1 SLOAD PUSH1 0x1 DUP3 ADD SLOAD PUSH1 0x2 DUP4 ADD SLOAD PUSH1 0x3 DUP5 ADD SLOAD PUSH1 0x4 DUP6 ADD SLOAD SWAP6 DUP6 ADD SLOAD PUSH1 0x6 SWAP1 SWAP6 ADD SLOAD SWAP4 SWAP6 SWAP3 SWAP5 SWAP2 SWAP4 SWAP1 SWAP3 SWAP2 SWAP1 DUP8 JUMP JUMPDEST PUSH1 0x40 DUP1 MLOAD SWAP8 DUP9 MSTORE PUSH1 0x20 DUP9 ADD SWAP7 SWAP1 SWAP7 MSTORE SWAP5 DUP7 ADD SWAP4 SWAP1 SWAP4 MSTORE PUSH1 0x60 DUP6 ADD SWAP2 SWAP1 SWAP2 MSTORE PUSH1 0x80 DUP5 ADD MSTORE PUSH1 0xA0 DUP4 ADD MSTORE PUSH1 0xC0 DUP3 ADD MSTORE PUSH1 0xE0 ADD PUSH2 0x113 JUMP JUMPDEST CALLVALUE DUP1 ISZERO PUSH2 0x2B5 JUMPI PUSH1 0x0 DUP1 REVERT JUMPDEST POP PUSH1 0x0 SLOAD PUSH1 0x1 PUSH1 0x1 PUSH1 0xA0 SHL SUB AND PUSH2 0x15E JUMP JUMPDEST PUSH2 0x13C PUSH2 0x2D5 CALLDATASIZE PUSH1 0x4 PUSH2 0xD6A JUMP JUMPDEST PUSH2 0x5B6 JUMP JUMPDEST CALLVALUE DUP1 ISZERO PUSH2 0x2E6 JUMPI PUSH1 0x0 DUP1 REVERT JUMPDEST POP PUSH1 0x2 SLOAD PUSH2 0x15E SWAP1 PUSH1 0x1 PUSH1 0x1 PUSH1 0xA0 SHL SUB AND DUP2 JUMP JUMPDEST CALLVALUE DUP1 ISZERO PUSH2 0x306 JUMPI PUSH1 0x0 DUP1 REVERT JUMPDEST POP PUSH1 0x3 SLOAD PUSH2 0x1C3 JUMP JUMPDEST CALLVALUE DUP1 ISZERO PUSH2 0x31B JUMPI PUSH1 0x0 DUP1 REVERT JUMPDEST POP PUSH2 0x1C3 PUSH2 0x32A CALLDATASIZE PUSH1 0x4 PUSH2 0xCE1 JUMP JUMPDEST PUSH1 0x9 PUSH1 0x20 MSTORE PUSH1 0x0 SWAP1 DUP2 MSTORE PUSH1 0x40 SWAP1 KECCAK256 SLOAD DUP2 JUMP JUMPDEST CALLVALUE DUP1 ISZERO PUSH2 0x348 JUMPI PUSH1 0x0 DUP1 REVERT JUMPDEST POP PUSH2 0x1C3 PUSH2 0x357 CALLDATASIZE PUSH1 0x4 PUSH2 0xCE1 JUMP JUMPDEST PUSH1 0x7 PUSH1 0x20 MSTORE PUSH1 0x0 SWAP1 DUP2 MSTORE PUSH1 0x40 SWAP1 KECCAK256 SLOAD DUP2 JUMP JUMPDEST CALLVALUE DUP1 ISZERO PUSH2 0x375 JUMPI PUSH1 0x0 DUP1 REVERT JUMPDEST POP PUSH2 0x13C PUSH2 0x384 CALLDATASIZE PUSH1 0x4 PUSH2 0xCC4 JUMP JUMPDEST PUSH2 0xB64 JUMP JUMPDEST PUSH1 0x0 SLOAD PUSH1 0x1 PUSH1 0x1 PUSH1 0xA0 SHL SUB AND CALLER EQ PUSH2 0x3BC JUMPI PUSH1 0x40 MLOAD PUSH3 0x461BCD PUSH1 0xE5 SHL DUP2 MSTORE PUSH1 0x4 ADD PUSH2 0x3B3 SWAP1 PUSH2 0xD9A JUMP JUMPDEST PUSH1 0x40 MLOAD DUP1 SWAP2 SUB SWAP1 REVERT JUMPDEST PUSH1 0x4 SLOAD PUSH1 0xFF AND ISZERO ISZERO PUSH1 0x1 SUB PUSH2 0x409 JUMPI PUSH1 0x40 MLOAD PUSH3 0x461BCD PUSH1 0xE5 SHL DUP2 MSTORE PUSH1 0x20 PUSH1 0x4 DUP3 ADD MSTORE PUSH1 0x13 PUSH1 0x24 DUP3 ADD MSTORE PUSH19 0x105B1C9958591E48125B9A5D1A585B1A5E9959 PUSH1 0x6A SHL PUSH1 0x44 DUP3 ADD MSTORE PUSH1 0x64 ADD PUSH2 0x3B3 JUMP JUMPDEST PUSH1 0x2 DUP1 SLOAD PUSH1 0x1 PUSH1 0x1 PUSH1 0xA0 SHL SUB DUP1 DUP7 AND PUSH1 0x1 PUSH1 0x1 PUSH1 0xA0 SHL SUB NOT SWAP3 DUP4 AND DUP2 OR SWAP1 SWAP4 SSTORE PUSH1 0x1 DUP1 SLOAD SWAP2 DUP7 AND SWAP2 SWAP1 SWAP3 AND OR SWAP1 SSTORE PUSH4 0xB45EE9EF PUSH2 0x44E PUSH1 0x0 SLOAD PUSH1 0x1 PUSH1 0x1 PUSH1 0xA0 SHL SUB AND SWAP1 JUMP JUMPDEST PUSH1 0x40 MLOAD PUSH1 0x1 PUSH1 0x1 PUSH1 0xE0 SHL SUB NOT PUSH1 0xE0 DUP5 SWAP1 SHL AND DUP2 MSTORE PUSH1 0x1 PUSH1 0x1 PUSH1 0xA0 SHL SUB SWAP2 DUP3 AND PUSH1 0x4 DUP3 ADD MSTORE SWAP1 DUP6 AND PUSH1 0x24 DUP3 ADD MSTORE PUSH1 0x44 DUP2 ADD DUP5 SWAP1 MSTORE PUSH1 0x64 ADD PUSH1 0x0 PUSH1 0x40 MLOAD DUP1 DUP4 SUB DUP2 PUSH1 0x0 DUP8 DUP1 EXTCODESIZE ISZERO DUP1 ISZERO PUSH2 0x49E JUMPI PUSH1 0x0 DUP1 REVERT JUMPDEST POP GAS CALL ISZERO DUP1 ISZERO PUSH2 0x4B2 JUMPI RETURNDATASIZE PUSH1 0x0 DUP1 RETURNDATACOPY RETURNDATASIZE PUSH1 0x0 REVERT JUMPDEST POP POP PUSH1 0x4 DUP1 SLOAD PUSH1 0xFF NOT AND PUSH1 0x1 OR SWAP1 SSTORE POP POP POP POP POP JUMP JUMPDEST PUSH1 0x0 SLOAD PUSH1 0x1 PUSH1 0x1 PUSH1 0xA0 SHL SUB AND CALLER EQ PUSH2 0x4F2 JUMPI PUSH1 0x40 MLOAD PUSH3 0x461BCD PUSH1 0xE5 SHL DUP2 MSTORE PUSH1 0x4 ADD PUSH2 0x3B3 SWAP1 PUSH2 0xD9A JUMP JUMPDEST PUSH1 0x1 DUP1 SLOAD PUSH1 0x1 PUSH1 0x1 PUSH1 0xA0 SHL SUB NOT AND PUSH1 0x1 PUSH1 0x1 PUSH1 0xA0 SHL SUB SWAP3 SWAP1 SWAP3 AND SWAP2 SWAP1 SWAP2 OR SWAP1 SSTORE JUMP JUMPDEST PUSH1 0x1 PUSH1 0x1 PUSH1 0xA0 SHL SUB DUP2 AND PUSH1 0x0 SWAP1 DUP2 MSTORE PUSH1 0x6 PUSH1 0x20 SWAP1 DUP2 MSTORE PUSH1 0x40 SWAP2 DUP3 SWAP1 KECCAK256 DUP1 SLOAD DUP4 MLOAD DUP2 DUP5 MUL DUP2 ADD DUP5 ADD SWAP1 SWAP5 MSTORE DUP1 DUP5 MSTORE PUSH1 0x60 SWAP4 SWAP3 DUP4 ADD DUP3 DUP3 DUP1 ISZERO PUSH2 0x574 JUMPI PUSH1 0x20 MUL DUP3 ADD SWAP2 SWAP1 PUSH1 0x0 MSTORE PUSH1 0x20 PUSH1 0x0 KECCAK256 SWAP1 JUMPDEST DUP2 SLOAD DUP2 MSTORE PUSH1 0x20 ADD SWAP1 PUSH1 0x1 ADD SWAP1 DUP1 DUP4 GT PUSH2 0x560 JUMPI JUMPDEST POP POP POP POP POP SWAP1 POP SWAP2 SWAP1 POP JUMP JUMPDEST PUSH1 0x0 SLOAD PUSH1 0x1 PUSH1 0x1 PUSH1 0xA0 SHL SUB AND CALLER EQ PUSH2 0x5AA JUMPI PUSH1 0x40 MLOAD PUSH3 0x461BCD PUSH1 0xE5 SHL DUP2 MSTORE PUSH1 0x4 ADD PUSH2 0x3B3 SWAP1 PUSH2 0xD9A JUMP JUMPDEST PUSH2 0x5B4 PUSH1 0x0 PUSH2 0xBFF JUMP JUMPDEST JUMP JUMPDEST PUSH1 0x1 SLOAD PUSH1 0x1 PUSH1 0x1 PUSH1 0xA0 SHL SUB AND CALLER EQ PUSH2 0x610 JUMPI PUSH1 0x40 MLOAD PUSH3 0x461BCD PUSH1 0xE5 SHL DUP2 MSTORE PUSH1 0x20 PUSH1 0x4 DUP3 ADD MSTORE PUSH1 0x1F PUSH1 0x24 DUP3 ADD MSTORE PUSH32 0x4F6E6C792041646D696E2063616E206D616B65207472616E73616374696F6E00 PUSH1 0x44 DUP3 ADD MSTORE PUSH1 0x64 ADD PUSH2 0x3B3 JUMP JUMPDEST PUSH1 0x2 SLOAD PUSH1 0x1 SLOAD PUSH1 0x40 MLOAD PUSH4 0xE3D670D7 PUSH1 0xE0 SHL DUP2 MSTORE PUSH1 0x1 PUSH1 0x1 PUSH1 0xA0 SHL SUB SWAP2 DUP3 AND PUSH1 0x4 DUP3 ADD MSTORE DUP5 SWAP3 SWAP2 SWAP1 SWAP2 AND SWAP1 PUSH4 0xE3D670D7 SWAP1 PUSH1 0x24 ADD PUSH1 0x20 PUSH1 0x40 MLOAD DUP1 DUP4 SUB DUP2 DUP7 GAS STATICCALL ISZERO DUP1 ISZERO PUSH2 0x660 JUMPI RETURNDATASIZE PUSH1 0x0 DUP1 RETURNDATACOPY RETURNDATASIZE PUSH1 0x0 REVERT JUMPDEST POP POP POP POP PUSH1 0x40 MLOAD RETURNDATASIZE PUSH1 0x1F NOT PUSH1 0x1F DUP3 ADD AND DUP3 ADD DUP1 PUSH1 0x40 MSTORE POP DUP2 ADD SWAP1 PUSH2 0x684 SWAP2 SWAP1 PUSH2 0xDCF JUMP JUMPDEST GT PUSH2 0x6E3 JUMPI PUSH1 0x40 MLOAD PUSH3 0x461BCD PUSH1 0xE5 SHL DUP2 MSTORE PUSH1 0x20 PUSH1 0x4 DUP3 ADD MSTORE PUSH1 0x29 PUSH1 0x24 DUP3 ADD MSTORE PUSH32 0x4572726F723A2041646D696E20646F6573206E6F74206861766520656E6F7567 PUSH1 0x44 DUP3 ADD MSTORE PUSH9 0x682062616C616E6365 PUSH1 0xB8 SHL PUSH1 0x64 DUP3 ADD MSTORE PUSH1 0x84 ADD PUSH2 0x3B3 JUMP JUMPDEST PUSH1 0x3 DUP1 SLOAD PUSH1 0x1 SWAP1 DUP2 ADD SWAP2 DUP3 SWAP1 SSTORE PUSH1 0x1 PUSH1 0x1 PUSH1 0xA0 SHL SUB DUP4 AND PUSH1 0x0 SWAP1 DUP2 MSTORE PUSH1 0x6 PUSH1 0x20 SWAP1 DUP2 MSTORE PUSH1 0x40 DUP3 KECCAK256 DUP1 SLOAD DUP1 DUP6 ADD DUP3 SSTORE SWAP1 DUP4 MSTORE SWAP2 KECCAK256 ADD DUP3 SWAP1 SSTORE PUSH1 0x64 SWAP1 PUSH2 0x728 SWAP1 DUP6 SWAP1 PUSH2 0xDFE JUMP JUMPDEST PUSH2 0x732 SWAP2 SWAP1 PUSH2 0xE1D JUMP JUMPDEST PUSH1 0x0 DUP3 DUP2 MSTORE PUSH1 0x7 PUSH1 0x20 MSTORE PUSH1 0x40 SWAP1 KECCAK256 DUP2 SWAP1 SSTORE PUSH2 0x74E SWAP1 DUP5 SWAP1 PUSH2 0xC4F JUMP JUMPDEST PUSH1 0x0 DUP3 DUP2 MSTORE PUSH1 0x8 PUSH1 0x20 MSTORE PUSH1 0x40 SWAP1 DUP2 SWAP1 KECCAK256 DUP3 SWAP1 SSTORE PUSH1 0x2 SLOAD PUSH1 0x1 SLOAD SWAP2 MLOAD PUSH4 0xB45EE9EF PUSH1 0xE0 SHL DUP2 MSTORE PUSH1 0x1 PUSH1 0x1 PUSH1 0xA0 SHL SUB SWAP3 DUP4 AND PUSH1 0x4 DUP3 ADD MSTORE DUP6 DUP4 AND PUSH1 0x24 DUP3 ADD MSTORE PUSH1 0x44 DUP2 ADD SWAP4 SWAP1 SWAP4 MSTORE AND SWAP1 PUSH4 0xB45EE9EF SWAP1 PUSH1 0x64 ADD PUSH1 0x0 PUSH1 0x40 MLOAD DUP1 DUP4 SUB DUP2 PUSH1 0x0 DUP8 DUP1 EXTCODESIZE ISZERO DUP1 ISZERO PUSH2 0x7B8 JUMPI PUSH1 0x0 DUP1 REVERT JUMPDEST POP GAS CALL ISZERO DUP1 ISZERO PUSH2 0x7CC JUMPI RETURNDATASIZE PUSH1 0x0 DUP1 RETURNDATACOPY RETURNDATASIZE PUSH1 0x0 REVERT JUMPDEST POP POP PUSH1 0x3 DUP1 SLOAD PUSH1 0x1 PUSH1 0x1 PUSH1 0xA0 SHL SUB DUP7 AND PUSH1 0x0 SWAP1 DUP2 MSTORE PUSH1 0x5 PUSH1 0x20 SWAP1 DUP2 MSTORE PUSH1 0x40 DUP1 DUP4 KECCAK256 DUP9 DUP5 MSTORE DUP3 MSTORE DUP1 DUP4 KECCAK256 SWAP4 DUP5 SSTORE TIMESTAMP PUSH1 0x1 DUP6 ADD SSTORE PUSH1 0x2 DUP1 DUP6 ADD DUP12 SWAP1 SSTORE PUSH1 0x7 DUP4 MSTORE DUP2 DUP5 KECCAK256 SLOAD SWAP6 DUP6 ADD SWAP6 SWAP1 SWAP6 SSTORE PUSH1 0x8 SWAP1 SWAP2 MSTORE SWAP1 KECCAK256 SLOAD PUSH1 0x4 SWAP1 SWAP2 ADD DUP2 SWAP1 SSTORE PUSH2 0x831 SWAP4 POP SWAP2 POP PUSH2 0xC62 JUMP JUMPDEST PUSH1 0x0 DUP3 DUP2 MSTORE PUSH1 0x9 PUSH1 0x20 MSTORE PUSH1 0x40 SWAP1 KECCAK256 DUP2 SWAP1 SSTORE PUSH1 0x2 SLOAD PUSH1 0x1 PUSH1 0x1 PUSH1 0xA0 SHL SUB AND PUSH4 0xE3D670D7 PUSH2 0x865 PUSH1 0x0 SLOAD PUSH1 0x1 PUSH1 0x1 PUSH1 0xA0 SHL SUB AND SWAP1 JUMP JUMPDEST PUSH1 0x40 MLOAD PUSH1 0x1 PUSH1 0x1 PUSH1 0xE0 SHL SUB NOT PUSH1 0xE0 DUP5 SWAP1 SHL AND DUP2 MSTORE PUSH1 0x1 PUSH1 0x1 PUSH1 0xA0 SHL SUB SWAP1 SWAP2 AND PUSH1 0x4 DUP3 ADD MSTORE PUSH1 0x24 ADD PUSH1 0x20 PUSH1 0x40 MLOAD DUP1 DUP4 SUB DUP2 DUP7 GAS STATICCALL ISZERO DUP1 ISZERO PUSH2 0x8A9 JUMPI RETURNDATASIZE PUSH1 0x0 DUP1 RETURNDATACOPY RETURNDATASIZE PUSH1 0x0 REVERT JUMPDEST POP POP POP POP PUSH1 0x40 MLOAD RETURNDATASIZE PUSH1 0x1F NOT PUSH1 0x1F DUP3 ADD AND DUP3 ADD DUP1 PUSH1 0x40 MSTORE POP DUP2 ADD SWAP1 PUSH2 0x8CD SWAP2 SWAP1 PUSH2 0xDCF JUMP JUMPDEST GT PUSH2 0x92C JUMPI PUSH1 0x40 MLOAD PUSH3 0x461BCD PUSH1 0xE5 SHL DUP2 MSTORE PUSH1 0x20 PUSH1 0x4 DUP3 ADD MSTORE PUSH1 0x29 PUSH1 0x24 DUP3 ADD MSTORE PUSH32 0x4572726F723A204F776E657220646F6573206E6F74206861766520656E6F7567 PUSH1 0x44 DUP3 ADD MSTORE PUSH9 0x682062616C616E6365 PUSH1 0xB8 SHL PUSH1 0x64 DUP3 ADD MSTORE PUSH1 0x84 ADD PUSH2 0x3B3 JUMP JUMPDEST PUSH1 0x0 DUP2 DUP2 MSTORE PUSH1 0x9 PUSH1 0x20 SWAP1 DUP2 MSTORE PUSH1 0x40 DUP1 DUP4 KECCAK256 SLOAD PUSH1 0x1 PUSH1 0x1 PUSH1 0xA0 SHL SUB DUP1 DUP8 AND DUP6 MSTORE PUSH1 0x5 DUP1 DUP6 MSTORE DUP4 DUP7 KECCAK256 DUP8 DUP8 MSTORE SWAP1 SWAP5 MSTORE SWAP2 SWAP1 SWAP4 KECCAK256 SWAP1 SWAP2 ADD SWAP2 SWAP1 SWAP2 SSTORE PUSH1 0x2 SLOAD AND PUSH4 0xB45EE9EF PUSH2 0x97F PUSH1 0x0 SLOAD PUSH1 0x1 PUSH1 0x1 PUSH1 0xA0 SHL SUB AND SWAP1 JUMP JUMPDEST PUSH1 0x1 SLOAD PUSH1 0x0 DUP6 DUP2 MSTORE PUSH1 0x9 PUSH1 0x20 MSTORE PUSH1 0x40 SWAP1 DUP2 SWAP1 KECCAK256 SLOAD SWAP1 MLOAD PUSH1 0xE0 DUP6 SWAP1 SHL PUSH1 0x1 PUSH1 0x1 PUSH1 0xE0 SHL SUB NOT AND DUP2 MSTORE PUSH1 0x1 PUSH1 0x1 PUSH1 0xA0 SHL SUB SWAP4 DUP5 AND PUSH1 0x4 DUP3 ADD MSTORE SWAP3 SWAP1 SWAP2 AND PUSH1 0x24 DUP4 ADD MSTORE PUSH1 0x44 DUP3 ADD MSTORE PUSH1 0x64 ADD PUSH1 0x0 PUSH1 0x40 MLOAD DUP1 DUP4 SUB DUP2 PUSH1 0x0 DUP8 DUP1 EXTCODESIZE ISZERO DUP1 ISZERO PUSH2 0x9E1 JUMPI PUSH1 0x0 DUP1 REVERT JUMPDEST POP GAS CALL ISZERO DUP1 ISZERO PUSH2 0x9F5 JUMPI RETURNDATASIZE PUSH1 0x0 DUP1 RETURNDATACOPY RETURNDATASIZE PUSH1 0x0 REVERT JUMPDEST POP POP POP PUSH1 0x0 DUP3 DUP2 MSTORE PUSH1 0x9 PUSH1 0x20 MSTORE PUSH1 0x40 SWAP1 KECCAK256 SLOAD PUSH2 0xA23 SWAP2 POP PUSH4 0x3B9ACA00 SWAP1 PUSH2 0xA1D SWAP1 PUSH1 0x1 PUSH2 0xDFE JUMP JUMPDEST SWAP1 PUSH2 0xC62 JUMP JUMPDEST POP PUSH1 0x0 DUP1 SLOAD PUSH1 0x40 MLOAD PUSH1 0x1 PUSH1 0x1 PUSH1 0xA0 SHL SUB SWAP1 SWAP2 AND SWAP2 CALLVALUE DUP1 ISZERO PUSH2 0x8FC MUL SWAP3 SWAP1 SWAP2 DUP2 DUP2 DUP2 DUP6 DUP9 DUP9 CALL SWAP4 POP POP POP POP ISZERO DUP1 ISZERO PUSH2 0xA5E JUMPI RETURNDATASIZE PUSH1 0x0 DUP1 RETURNDATACOPY RETURNDATASIZE PUSH1 0x0 REVERT JUMPDEST POP PUSH1 0x1 PUSH1 0x1 PUSH1 0xA0 SHL SUB DUP1 DUP4 AND PUSH1 0x0 SWAP1 DUP2 MSTORE PUSH1 0x5 PUSH1 0x20 SWAP1 DUP2 MSTORE PUSH1 0x40 DUP1 DUP4 KECCAK256 DUP6 DUP5 MSTORE SWAP1 SWAP2 MSTORE SWAP1 KECCAK256 CALLVALUE PUSH1 0x6 SWAP1 SWAP2 ADD SSTORE PUSH1 0x1 SLOAD PUSH32 0x200E42C44F4B61E64B8298DD340205F3D4FD26F4018958219AC19FA737A4BC93 SWAP2 DUP5 SWAP2 AND PUSH2 0xAC4 PUSH1 0x0 SLOAD PUSH1 0x1 PUSH1 0x1 PUSH1 0xA0 SHL SUB AND SWAP1 JUMP JUMPDEST PUSH1 0x40 DUP1 MLOAD PUSH1 0x1 PUSH1 0x1 PUSH1 0xA0 SHL SUB SWAP5 DUP6 AND DUP2 MSTORE SWAP3 DUP5 AND PUSH1 0x20 DUP5 ADD MSTORE SWAP3 AND DUP2 DUP4 ADD MSTORE SWAP1 MLOAD SWAP1 DUP2 SWAP1 SUB PUSH1 0x60 ADD SWAP1 LOG1 PUSH1 0x0 DUP2 DUP2 MSTORE PUSH1 0x7 PUSH1 0x20 SWAP1 DUP2 MSTORE PUSH1 0x40 DUP1 DUP4 KECCAK256 SLOAD PUSH1 0x8 DUP4 MSTORE DUP2 DUP5 KECCAK256 SLOAD PUSH1 0x9 DUP5 MSTORE SWAP4 DUP3 SWAP1 KECCAK256 SLOAD DUP3 MLOAD DUP9 DUP2 MSTORE SWAP4 DUP5 ADD SWAP2 SWAP1 SWAP2 MSTORE SWAP1 DUP3 ADD SWAP3 SWAP1 SWAP3 MSTORE PUSH1 0x60 DUP2 ADD SWAP2 SWAP1 SWAP2 MSTORE CALLVALUE PUSH1 0x80 DUP3 ADD MSTORE PUSH32 0xD3826252B977104A2929FB0E0FEA16ABE1E1F9D413DBDD04568F52A0A681BF1C SWAP1 PUSH1 0xA0 ADD PUSH1 0x40 MLOAD DUP1 SWAP2 SUB SWAP1 LOG1 POP POP POP JUMP JUMPDEST PUSH1 0x0 SLOAD PUSH1 0x1 PUSH1 0x1 PUSH1 0xA0 SHL SUB AND CALLER EQ PUSH2 0xB8E JUMPI PUSH1 0x40 MLOAD PUSH3 0x461BCD PUSH1 0xE5 SHL DUP2 MSTORE PUSH1 0x4 ADD PUSH2 0x3B3 SWAP1 PUSH2 0xD9A JUMP JUMPDEST PUSH1 0x1 PUSH1 0x1 PUSH1 0xA0 SHL SUB DUP2 AND PUSH2 0xBF3 JUMPI PUSH1 0x40 MLOAD PUSH3 0x461BCD PUSH1 0xE5 SHL DUP2 MSTORE PUSH1 0x20 PUSH1 0x4 DUP3 ADD MSTORE PUSH1 0x26 PUSH1 0x24 DUP3 ADD MSTORE PUSH32 0x4F776E61626C653A206E6577206F776E657220697320746865207A65726F2061 PUSH1 0x44 DUP3 ADD MSTORE PUSH6 0x646472657373 PUSH1 0xD0 SHL PUSH1 0x64 DUP3 ADD MSTORE PUSH1 0x84 ADD PUSH2 0x3B3 JUMP JUMPDEST PUSH2 0xBFC DUP2 PUSH2 0xBFF JUMP JUMPDEST POP JUMP JUMPDEST PUSH1 0x0 DUP1 SLOAD PUSH1 0x1 PUSH1 0x1 PUSH1 0xA0 SHL SUB DUP4 DUP2 AND PUSH1 0x1 PUSH1 0x1 PUSH1 0xA0 SHL SUB NOT DUP4 AND DUP2 OR DUP5 SSTORE PUSH1 0x40 MLOAD SWAP2 SWAP1 SWAP3 AND SWAP3 DUP4 SWAP2 PUSH32 0x8BE0079C531659141344CD1FD0A4F28419497F9722A3DAAFE3B4186F6B6457E0 SWAP2 SWAP1 LOG3 POP POP JUMP JUMPDEST PUSH1 0x0 PUSH2 0xC5B DUP3 DUP5 PUSH2 0xE3F JUMP JUMPDEST SWAP4 SWAP3 POP POP POP JUMP JUMPDEST PUSH1 0x0 PUSH2 0xC5B DUP3 DUP5 PUSH2 0xE1D JUMP JUMPDEST PUSH1 0x1 PUSH1 0x1 PUSH1 0xA0 SHL SUB DUP2 AND DUP2 EQ PUSH2 0xBFC JUMPI PUSH1 0x0 DUP1 REVERT JUMPDEST PUSH1 0x0 DUP1 PUSH1 0x0 PUSH1 0x60 DUP5 DUP7 SUB SLT ISZERO PUSH2 0xC98 JUMPI PUSH1 0x0 DUP1 REVERT JUMPDEST DUP4 CALLDATALOAD PUSH2 0xCA3 DUP2 PUSH2 0xC6E JUMP JUMPDEST SWAP3 POP PUSH1 0x20 DUP5 ADD CALLDATALOAD PUSH2 0xCB3 DUP2 PUSH2 0xC6E JUMP JUMPDEST SWAP3 SWAP6 SWAP3 SWAP5 POP POP POP PUSH1 0x40 SWAP2 SWAP1 SWAP2 ADD CALLDATALOAD SWAP1 JUMP JUMPDEST PUSH1 0x0 PUSH1 0x20 DUP3 DUP5 SUB SLT ISZERO PUSH2 0xCD6 JUMPI PUSH1 0x0 DUP1 REVERT JUMPDEST DUP2 CALLDATALOAD PUSH2 0xC5B DUP2 PUSH2 0xC6E JUMP JUMPDEST PUSH1 0x0 PUSH1 0x20 DUP3 DUP5 SUB SLT ISZERO PUSH2 0xCF3 JUMPI PUSH1 0x0 DUP1 REVERT JUMPDEST POP CALLDATALOAD SWAP2 SWAP1 POP JUMP JUMPDEST PUSH1 0x20 DUP1 DUP3 MSTORE DUP3 MLOAD DUP3 DUP3 ADD DUP2 SWAP1 MSTORE PUSH1 0x0 SWAP2 SWAP1 DUP5 DUP3 ADD SWAP1 PUSH1 0x40 DUP6 ADD SWAP1 DUP5 JUMPDEST DUP2 DUP2 LT ISZERO PUSH2 0xD32 JUMPI DUP4 MLOAD DUP4 MSTORE SWAP3 DUP5 ADD SWAP3 SWAP2 DUP5 ADD SWAP2 PUSH1 0x1 ADD PUSH2 0xD16 JUMP JUMPDEST POP SWAP1 SWAP7 SWAP6 POP POP POP POP POP POP JUMP JUMPDEST PUSH1 0x0 DUP1 PUSH1 0x40 DUP4 DUP6 SUB SLT ISZERO PUSH2 0xD51 JUMPI PUSH1 0x0 DUP1 REVERT JUMPDEST DUP3 CALLDATALOAD PUSH2 0xD5C DUP2 PUSH2 0xC6E JUMP JUMPDEST SWAP5 PUSH1 0x20 SWAP4 SWAP1 SWAP4 ADD CALLDATALOAD SWAP4 POP POP POP JUMP JUMPDEST PUSH1 0x0 DUP1 PUSH1 0x40 DUP4 DUP6 SUB SLT ISZERO PUSH2 0xD7D JUMPI PUSH1 0x0 DUP1 REVERT JUMPDEST DUP3 CALLDATALOAD SWAP2 POP PUSH1 0x20 DUP4 ADD CALLDATALOAD PUSH2 0xD8F DUP2 PUSH2 0xC6E JUMP JUMPDEST DUP1 SWAP2 POP POP SWAP3 POP SWAP3 SWAP1 POP JUMP JUMPDEST PUSH1 0x20 DUP1 DUP3 MSTORE DUP2 DUP2 ADD MSTORE PUSH32 0x4F776E61626C653A2063616C6C6572206973206E6F7420746865206F776E6572 PUSH1 0x40 DUP3 ADD MSTORE PUSH1 0x60 ADD SWAP1 JUMP JUMPDEST PUSH1 0x0 PUSH1 0x20 DUP3 DUP5 SUB SLT ISZERO PUSH2 0xDE1 JUMPI PUSH1 0x0 DUP1 REVERT JUMPDEST POP MLOAD SWAP2 SWAP1 POP JUMP JUMPDEST PUSH4 0x4E487B71 PUSH1 0xE0 SHL PUSH1 0x0 MSTORE PUSH1 0x11 PUSH1 0x4 MSTORE PUSH1 0x24 PUSH1 0x0 REVERT JUMPDEST PUSH1 0x0 DUP2 PUSH1 0x0 NOT DIV DUP4 GT DUP3 ISZERO ISZERO AND ISZERO PUSH2 0xE18 JUMPI PUSH2 0xE18 PUSH2 0xDE8 JUMP JUMPDEST POP MUL SWAP1 JUMP JUMPDEST PUSH1 0x0 DUP3 PUSH2 0xE3A JUMPI PUSH4 0x4E487B71 PUSH1 0xE0 SHL PUSH1 0x0 MSTORE PUSH1 0x12 PUSH1 0x4 MSTORE PUSH1 0x24 PUSH1 0x0 REVERT JUMPDEST POP DIV SWAP1 JUMP JUMPDEST PUSH1 0x0 DUP3 DUP3 LT ISZERO PUSH2 0xE51 JUMPI PUSH2 0xE51 PUSH2 0xDE8 JUMP JUMPDEST POP SUB SWAP1 JUMP INVALID LOG2 PUSH5 0x6970667358 0x22 SLT KECCAK256 0xCA 0x28 0x29 0x5E 0x4E 0xE1 0xC7 PUSH6 0x6896C46A09DF 0xEE COINBASE SWAP16 MOD 0xB5 0xC7 0x26 SHR 0xB7 PUSH24 0xFC68FEEBD64D37864736F6C634300080D00330000000000 "
				},
				"gasEstimates": {
					"creation": {
						"codeDepositCost": "744800",
						"executionCost": "26620",
						"totalCost": "771420"
					},
					"external": {
						"AdminAddress()": "2405",
						"Coin()": "2426",
						"amountAfterBurning(uint256)": "2483",
						"burningAmount(uint256)": "2504",
						"buyInfo(address,uint256)": "15439",
						"buyToken(uint256,address)": "infinite",
						"getIdsOfUser(address)": "infinite",
						"initialize(address,address,uint256)": "infinite",
						"initialized()": "2323",
						"owner()": "2376",
						"ownerSurplusToAdmin(uint256)": "2482",
						"renounceOwnership()": "28203",
						"setAdminAddress(address)": "26728",
						"totalInvesters()": "2314",
						"transferOwnership(address)": "infinite"
					}
				},
				"methodIdentifiers": {
					"AdminAddress()": "28f661e3",
					"Coin()": "a77b2e37",
					"amountAfterBurning(uint256)": "3a84374b",
					"burningAmount(uint256)": "ee238506",
					"buyInfo(address,uint256)": "8637856d",
					"buyToken(uint256,address)": "9134709e",
					"getIdsOfUser(address)": "5f4fd1f7",
					"initialize(address,address,uint256)": "1794bb3c",
					"initialized()": "158ef93e",
					"owner()": "8da5cb5b",
					"ownerSurplusToAdmin(uint256)": "d09bf0e4",
					"renounceOwnership()": "715018a6",
					"setAdminAddress(address)": "2c1e816d",
					"totalInvesters()": "af0afec9",
					"transferOwnership(address)": "f2fde38b"
				}
			},
			"storageLayout": {
				"storage": [
					{
						"astId": 713,
						"contract": "smartContract_flat.sol:smartContract",
						"label": "_owner",
						"offset": 0,
						"slot": "0",
						"type": "t_address"
					},
					{
						"astId": 1212,
						"contract": "smartContract_flat.sol:smartContract",
						"label": "AdminAddress",
						"offset": 0,
						"slot": "1",
						"type": "t_address"
					},
					{
						"astId": 1215,
						"contract": "smartContract_flat.sol:smartContract",
						"label": "Coin",
						"offset": 0,
						"slot": "2",
						"type": "t_contract(Token)895"
					},
					{
						"astId": 1217,
						"contract": "smartContract_flat.sol:smartContract",
						"label": "investerID",
						"offset": 0,
						"slot": "3",
						"type": "t_uint256"
					},
					{
						"astId": 1219,
						"contract": "smartContract_flat.sol:smartContract",
						"label": "initialized",
						"offset": 0,
						"slot": "4",
						"type": "t_bool"
					},
					{
						"astId": 1226,
						"contract": "smartContract_flat.sol:smartContract",
						"label": "buyInfo",
						"offset": 0,
						"slot": "5",
						"type": "t_mapping(t_address,t_mapping(t_uint256,t_struct(purchaseInfo)1258_storage))"
					},
					{
						"astId": 1231,
						"contract": "smartContract_flat.sol:smartContract",
						"label": "getIDByAddress",
						"offset": 0,
						"slot": "6",
						"type": "t_mapping(t_address,t_array(t_uint256)dyn_storage)"
					},
					{
						"astId": 1235,
						"contract": "smartContract_flat.sol:smartContract",
						"label": "burningAmount",
						"offset": 0,
						"slot": "7",
						"type": "t_mapping(t_uint256,t_uint256)"
					},
					{
						"astId": 1239,
						"contract": "smartContract_flat.sol:smartContract",
						"label": "amountAfterBurning",
						"offset": 0,
						"slot": "8",
						"type": "t_mapping(t_uint256,t_uint256)"
					},
					{
						"astId": 1243,
						"contract": "smartContract_flat.sol:smartContract",
						"label": "ownerSurplusToAdmin",
						"offset": 0,
						"slot": "9",
						"type": "t_mapping(t_uint256,t_uint256)"
					}
				],
				"types": {
					"t_address": {
						"encoding": "inplace",
						"label": "address",
						"numberOfBytes": "20"
					},
					"t_array(t_uint256)dyn_storage": {
						"base": "t_uint256",
						"encoding": "dynamic_array",
						"label": "uint256[]",
						"numberOfBytes": "32"
					},
					"t_bool": {
						"encoding": "inplace",
						"label": "bool",
						"numberOfBytes": "1"
					},
					"t_contract(Token)895": {
						"encoding": "inplace",
						"label": "contract Token",
						"numberOfBytes": "20"
					},
					"t_mapping(t_address,t_array(t_uint256)dyn_storage)": {
						"encoding": "mapping",
						"key": "t_address",
						"label": "mapping(address => uint256[])",
						"numberOfBytes": "32",
						"value": "t_array(t_uint256)dyn_storage"
					},
					"t_mapping(t_address,t_mapping(t_uint256,t_struct(purchaseInfo)1258_storage))": {
						"encoding": "mapping",
						"key": "t_address",
						"label": "mapping(address => mapping(uint256 => struct smartContract.purchaseInfo))",
						"numberOfBytes": "32",
						"value": "t_mapping(t_uint256,t_struct(purchaseInfo)1258_storage)"
					},
					"t_mapping(t_uint256,t_struct(purchaseInfo)1258_storage)": {
						"encoding": "mapping",
						"key": "t_uint256",
						"label": "mapping(uint256 => struct smartContract.purchaseInfo)",
						"numberOfBytes": "32",
						"value": "t_struct(purchaseInfo)1258_storage"
					},
					"t_mapping(t_uint256,t_uint256)": {
						"encoding": "mapping",
						"key": "t_uint256",
						"label": "mapping(uint256 => uint256)",
						"numberOfBytes": "32",
						"value": "t_uint256"
					},
					"t_struct(purchaseInfo)1258_storage": {
						"encoding": "inplace",
						"label": "struct smartContract.purchaseInfo",
						"members": [
							{
								"astId": 1245,
								"contract": "smartContract_flat.sol:smartContract",
								"label": "ID",
								"offset": 0,
								"slot": "0",
								"type": "t_uint256"
							},
							{
								"astId": 1247,
								"contract": "smartContract_flat.sol:smartContract",
								"label": "buyTime",
								"offset": 0,
								"slot": "1",
								"type": "t_uint256"
							},
							{
								"astId": 1249,
								"contract": "smartContract_flat.sol:smartContract",
								"label": "purchaseToken",
								"offset": 0,
								"slot": "2",
								"type": "t_uint256"
							},
							{
								"astId": 1251,
								"contract": "smartContract_flat.sol:smartContract",
								"label": "burnToken",
								"offset": 0,
								"slot": "3",
								"type": "t_uint256"
							},
							{
								"astId": 1253,
								"contract": "smartContract_flat.sol:smartContract",
								"label": "userGets",
								"offset": 0,
								"slot": "4",
								"type": "t_uint256"
							},
							{
								"astId": 1255,
								"contract": "smartContract_flat.sol:smartContract",
								"label": "ownerSurplus",
								"offset": 0,
								"slot": "5",
								"type": "t_uint256"
							},
							{
								"astId": 1257,
								"contract": "smartContract_flat.sol:smartContract",
								"label": "BNBchargedByAdmin",
								"offset": 0,
								"slot": "6",
								"type": "t_uint256"
							}
						],
						"numberOfBytes": "224"
					},
					"t_uint256": {
						"encoding": "inplace",
						"label": "uint256",
						"numberOfBytes": "32"
					}
				}
			},
			"userdoc": {
				"kind": "user",
				"methods": {},
				"version": 1
			}
		}
	}
}