{
	"smartContract_flat.sol": {
		"Token": {
			"abi": [
				{
					"inputs": [],
					"stateMutability": "nonpayable",
					"type": "constructor"
				},
				{
					"anonymous": false,
					"inputs": [
						{
							"indexed": true,
							"internalType": "address",
							"name": "owner",
							"type": "address"
						},
						{
							"indexed": true,
							"internalType": "address",
							"name": "spender",
							"type": "address"
						},
						{
							"indexed": false,
							"internalType": "uint256",
							"name": "value",
							"type": "uint256"
						}
					],
					"name": "Approval",
					"type": "event"
				},
				{
					"anonymous": false,
					"inputs": [
						{
							"indexed": true,
							"internalType": "address",
							"name": "previousOwner",
							"type": "address"
						},
						{
							"indexed": true,
							"internalType": "address",
							"name": "newOwner",
							"type": "address"
						}
					],
					"name": "OwnershipTransferred",
					"type": "event"
				},
				{
					"anonymous": false,
					"inputs": [
						{
							"indexed": true,
							"internalType": "address",
							"name": "from",
							"type": "address"
						},
						{
							"indexed": true,
							"internalType": "address",
							"name": "to",
							"type": "address"
						},
						{
							"indexed": false,
							"internalType": "uint256",
							"name": "value",
							"type": "uint256"
						}
					],
					"name": "Transfer",
					"type": "event"
				},
				{
					"inputs": [],
					"name": "_totalSupply",
					"outputs": [
						{
							"internalType": "uint256",
							"name": "",
							"type": "uint256"
						}
					],
					"stateMutability": "view",
					"type": "function"
				},
				{
					"inputs": [
						{
							"internalType": "address",
							"name": "owner",
							"type": "address"
						},
						{
							"internalType": "address",
							"name": "spender",
							"type": "address"
						}
					],
					"name": "allowance",
					"outputs": [
						{
							"internalType": "uint256",
							"name": "",
							"type": "uint256"
						}
					],
					"stateMutability": "view",
					"type": "function"
				},
				{
					"inputs": [
						{
							"internalType": "address",
							"name": "spender",
							"type": "address"
						},
						{
							"internalType": "uint256",
							"name": "amount",
							"type": "uint256"
						}
					],
					"name": "approve",
					"outputs": [
						{
							"internalType": "bool",
							"name": "",
							"type": "bool"
						}
					],
					"stateMutability": "nonpayable",
					"type": "function"
				},
				{
					"inputs": [
						{
							"internalType": "address",
							"name": "account",
							"type": "address"
						}
					],
					"name": "balance",
					"outputs": [
						{
							"internalType": "uint256",
							"name": "",
							"type": "uint256"
						}
					],
					"stateMutability": "view",
					"type": "function"
				},
				{
					"inputs": [
						{
							"internalType": "address",
							"name": "account",
							"type": "address"
						}
					],
					"name": "balanceOf",
					"outputs": [
						{
							"internalType": "uint256",
							"name": "",
							"type": "uint256"
						}
					],
					"stateMutability": "view",
					"type": "function"
				},
				{
					"inputs": [
						{
							"internalType": "address",
							"name": "account",
							"type": "address"
						},
						{
							"internalType": "uint256",
							"name": "amount",
							"type": "uint256"
						}
					],
					"name": "burn",
					"outputs": [],
					"stateMutability": "nonpayable",
					"type": "function"
				},
				{
					"inputs": [],
					"name": "decimals",
					"outputs": [
						{
							"internalType": "uint8",
							"name": "",
							"type": "uint8"
						}
					],
					"stateMutability": "view",
					"type": "function"
				},
				{
					"inputs": [
						{
							"internalType": "address",
							"name": "spender",
							"type": "address"
						},
						{
							"internalType": "uint256",
							"name": "subtractedValue",
							"type": "uint256"
						}
					],
					"name": "decreaseAllowance",
					"outputs": [
						{
							"internalType": "bool",
							"name": "",
							"type": "bool"
						}
					],
					"stateMutability": "nonpayable",
					"type": "function"
				},
				{
					"inputs": [
						{
							"internalType": "address",
							"name": "spender",
							"type": "address"
						},
						{
							"internalType": "uint256",
							"name": "addedValue",
							"type": "uint256"
						}
					],
					"name": "increaseAllowance",
					"outputs": [
						{
							"internalType": "bool",
							"name": "",
							"type": "bool"
						}
					],
					"stateMutability": "nonpayable",
					"type": "function"
				},
				{
					"inputs": [
						{
							"internalType": "address",
							"name": "account",
							"type": "address"
						},
						{
							"internalType": "uint256",
							"name": "amount",
							"type": "uint256"
						}
					],
					"name": "mint",
					"outputs": [],
					"stateMutability": "nonpayable",
					"type": "function"
				},
				{
					"inputs": [],
					"name": "name",
					"outputs": [
						{
							"internalType": "string",
							"name": "",
							"type": "string"
						}
					],
					"stateMutability": "view",
					"type": "function"
				},
				{
					"inputs": [],
					"name": "owner",
					"outputs": [
						{
							"internalType": "address",
							"name": "",
							"type": "address"
						}
					],
					"stateMutability": "view",
					"type": "function"
				},
				{
					"inputs": [],
					"name": "renounceOwnership",
					"outputs": [],
					"stateMutability": "nonpayable",
					"type": "function"
				},
				{
					"inputs": [],
					"name": "symbol",
					"outputs": [
						{
							"internalType": "string",
							"name": "",
							"type": "string"
						}
					],
					"stateMutability": "view",
					"type": "function"
				},
				{
					"inputs": [],
					"name": "totalSupply",
					"outputs": [
						{
							"internalType": "uint256",
							"name": "",
							"type": "uint256"
						}
					],
					"stateMutability": "view",
					"type": "function"
				},
				{
					"inputs": [
						{
							"internalType": "address",
							"name": "to",
							"type": "address"
						},
						{
							"internalType": "uint256",
							"name": "amount",
							"type": "uint256"
						}
					],
					"name": "transfer",
					"outputs": [
						{
							"internalType": "bool",
							"name": "",
							"type": "bool"
						}
					],
					"stateMutability": "nonpayable",
					"type": "function"
				},
				{
					"inputs": [
						{
							"internalType": "address",
							"name": "from",
							"type": "address"
						},
						{
							"internalType": "address",
							"name": "to",
							"type": "address"
						},
						{
							"internalType": "uint256",
							"name": "amount",
							"type": "uint256"
						}
					],
					"name": "transferFrom",
					"outputs": [
						{
							"internalType": "bool",
							"name": "",
							"type": "bool"
						}
					],
					"stateMutability": "nonpayable",
					"type": "function"
				},
				{
					"inputs": [
						{
							"internalType": "address",
							"name": "newOwner",
							"type": "address"
						}
					],
					"name": "transferOwnership",
					"outputs": [],
					"stateMutability": "nonpayable",
					"type": "function"
				},
				{
					"inputs": [
						{
							"internalType": "address",
							"name": "from",
							"type": "address"
						},
						{
							"internalType": "address",
							"name": "to",
							"type": "address"
						},
						{
							"internalType": "uint256",
							"name": "amount",
							"type": "uint256"
						}
					],
					"name": "transferPrice",
					"outputs": [],
					"stateMutability": "nonpayable",
					"type": "function"
				}
			],
			"devdoc": {
				"kind": "dev",
				"methods": {
					"allowance(address,address)": {
						"details": "See {IERC20-allowance}."
					},
					"approve(address,uint256)": {
						"details": "See {IERC20-approve}. NOTE: If `amount` is the maximum `uint256`, the allowance is not updated on `transferFrom`. This is semantically equivalent to an infinite approval. Requirements: - `spender` cannot be the zero address."
					},
					"balanceOf(address)": {
						"details": "See {IERC20-balanceOf}."
					},
					"decimals()": {
						"details": "Returns the number of decimals used to get its user representation. For example, if `decimals` equals `2`, a balance of `505` tokens should be displayed to a user as `5.05` (`505 / 10 ** 2`). Tokens usually opt for a value of 18, imitating the relationship between Ether and Wei. This is the value {ERC20} uses, unless this function is overridden; NOTE: This information is only used for _display_ purposes: it in no way affects any of the arithmetic of the contract, including {IERC20-balanceOf} and {IERC20-transfer}."
					},
					"decreaseAllowance(address,uint256)": {
						"details": "Atomically decreases the allowance granted to `spender` by the caller. This is an alternative to {approve} that can be used as a mitigation for problems described in {IERC20-approve}. Emits an {Approval} event indicating the updated allowance. Requirements: - `spender` cannot be the zero address. - `spender` must have allowance for the caller of at least `subtractedValue`."
					},
					"increaseAllowance(address,uint256)": {
						"details": "Atomically increases the allowance granted to `spender` by the caller. This is an alternative to {approve} that can be used as a mitigation for problems described in {IERC20-approve}. Emits an {Approval} event indicating the updated allowance. Requirements: - `spender` cannot be the zero address."
					},
					"name()": {
						"details": "Returns the name of the token."
					},
					"owner()": {
						"details": "Returns the address of the current owner."
					},
					"renounceOwnership()": {
						"details": "Leaves the contract without owner. It will not be possible to call `onlyOwner` functions anymore. Can only be called by the current owner. NOTE: Renouncing ownership will leave the contract without an owner, thereby removing any functionality that is only available to the owner."
					},
					"symbol()": {
						"details": "Returns the symbol of the token, usually a shorter version of the name."
					},
					"totalSupply()": {
						"details": "See {IERC20-totalSupply}."
					},
					"transfer(address,uint256)": {
						"details": "See {IERC20-transfer}. Requirements: - `to` cannot be the zero address. - the caller must have a balance of at least `amount`."
					},
					"transferFrom(address,address,uint256)": {
						"details": "See {IERC20-transferFrom}. Emits an {Approval} event indicating the updated allowance. This is not required by the EIP. See the note at the beginning of {ERC20}. NOTE: Does not update the allowance if the current allowance is the maximum `uint256`. Requirements: - `from` and `to` cannot be the zero address. - `from` must have a balance of at least `amount`. - the caller must have allowance for ``from``'s tokens of at least `amount`."
					},
					"transferOwnership(address)": {
						"details": "Transfers ownership of the contract to a new account (`newOwner`). Can only be called by the current owner."
					}
				},
				"version": 1
			},
			"evm": {
				"assembly": "    /* \"smartContract_flat.sol\":20512:21202  contract Token is Ownable, ERC20 {... */\n  mstore(0x40, 0x80)\n    /* \"smartContract_flat.sol\":20588:20717  constructor() ERC20(\"COIN\", \"CN\", 9) {... */\n  callvalue\n  dup1\n  iszero\n  tag_1\n  jumpi\n  0x00\n  dup1\n  revert\ntag_1:\n  pop\n    /* \"smartContract_flat.sol\":6477:6675  constructor(... */\n  mload(0x40)\n  dup1\n  0x40\n  add\n  0x40\n  mstore\n  dup1\n  0x04\n  dup2\n  mstore\n  0x20\n  add\n  shl(0xe1, 0x21a7a4a7)\n  dup2\n  mstore\n  pop\n  mload(0x40)\n  dup1\n  0x40\n  add\n  0x40\n  mstore\n  dup1\n  0x02\n  dup2\n  mstore\n  0x20\n  add\n  shl(0xf1, 0x21a7)\n  dup2\n  mstore\n  pop\n    /* \"smartContract_flat.sol\":20622:20623  9 */\n  0x09\n    /* \"smartContract_flat.sol\":18840:18872  _transferOwnership(_msgSender()) */\n  tag_6\n    /* \"smartContract_flat.sol\":18859:18871  _msgSender() */\n  tag_7\n    /* \"smartContract_flat.sol\":18859:18869  _msgSender */\n  shl(0x20, tag_8)\n    /* \"smartContract_flat.sol\":18859:18871  _msgSender() */\n  0x20\n  shr\n  jump\t// in\ntag_7:\n    /* \"smartContract_flat.sol\":18840:18858  _transferOwnership */\n  tag_9\n    /* \"smartContract_flat.sol\":18840:18872  _transferOwnership(_msgSender()) */\n  jump\t// in\ntag_6:\n    /* \"smartContract_flat.sol\":6596:6609  _name = name_ */\n  dup3\n  mload\n  tag_11\n  swap1\n    /* \"smartContract_flat.sol\":6596:6601  _name */\n  0x04\n  swap1\n    /* \"smartContract_flat.sol\":6596:6609  _name = name_ */\n  0x20\n  dup7\n  add\n  swap1\n  tag_12\n  jump\t// in\ntag_11:\n  pop\n    /* \"smartContract_flat.sol\":6620:6637  _symbol = symbol_ */\n  dup2\n  mload\n  tag_13\n  swap1\n    /* \"smartContract_flat.sol\":6620:6627  _symbol */\n  0x05\n  swap1\n    /* \"smartContract_flat.sol\":6620:6637  _symbol = symbol_ */\n  0x20\n  dup6\n  add\n  swap1\n  tag_12\n  jump\t// in\ntag_13:\n  pop\n    /* \"smartContract_flat.sol\":6648:6656  _decimal */\n  0x06\n    /* \"smartContract_flat.sol\":6648:6667  _decimal = decimal_ */\n  sstore\n  pop\n  pop\n    /* \"smartContract_flat.sol\":20651:20670  100000000 * (10**9) */\n  0x016345785d8a0000\n    /* \"smartContract_flat.sol\":20636:20648  _totalSupply */\n  0x07\n    /* \"smartContract_flat.sol\":20636:20670  _totalSupply = 100000000 * (10**9) */\n  sstore\n    /* \"smartContract_flat.sol\":20681:20709  _mint(owner(), _totalSupply) */\n  tag_15\n    /* \"smartContract_flat.sol\":20687:20694  owner() */\n  tag_16\n    /* \"smartContract_flat.sol\":19007:19014  address */\n  0x00\n    /* \"smartContract_flat.sol\":19034:19040  _owner */\n  sload\n  sub(shl(0xa0, 0x01), 0x01)\n  and\n  swap1\n    /* \"smartContract_flat.sol\":18961:19048  function owner() public view virtual returns (address) {... */\n  jump\n    /* \"smartContract_flat.sol\":20687:20694  owner() */\ntag_16:\n    /* \"smartContract_flat.sol\":20696:20708  _totalSupply */\n  sload(0x07)\n    /* \"smartContract_flat.sol\":20681:20686  _mint */\n  tag_18\n    /* \"smartContract_flat.sol\":20681:20709  _mint(owner(), _totalSupply) */\n  jump\t// in\ntag_15:\n    /* \"smartContract_flat.sol\":20512:21202  contract Token is Ownable, ERC20 {... */\n  jump(tag_49)\n    /* \"smartContract_flat.sol\":4317:4415  function _msgSender() internal view virtual returns (address) {... */\ntag_8:\n    /* \"smartContract_flat.sol\":4397:4407  msg.sender */\n  caller\n  swap1\n    /* \"smartContract_flat.sol\":4317:4415  function _msgSender() internal view virtual returns (address) {... */\n  jump\t// out\n    /* \"smartContract_flat.sol\":20268:20459  function _transferOwnership(address newOwner) internal virtual {... */\ntag_9:\n    /* \"smartContract_flat.sol\":20342:20358  address oldOwner */\n  0x00\n    /* \"smartContract_flat.sol\":20361:20367  _owner */\n  dup1\n  sload\n  sub(shl(0xa0, 0x01), 0x01)\n    /* \"smartContract_flat.sol\":20378:20395  _owner = newOwner */\n  dup4\n  dup2\n  and\n  not(sub(shl(0xa0, 0x01), 0x01))\n  dup4\n  and\n  dup2\n  or\n  dup5\n  sstore\n    /* \"smartContract_flat.sol\":20411:20451  OwnershipTransferred(oldOwner, newOwner) */\n  mload(0x40)\n    /* \"smartContract_flat.sol\":20361:20367  _owner */\n  swap2\n  swap1\n  swap3\n  and\n  swap3\n  dup4\n  swap2\n    /* \"smartContract_flat.sol\":20411:20451  OwnershipTransferred(oldOwner, newOwner) */\n  0x8be0079c531659141344cd1fd0a4f28419497f9722a3daafe3b4186f6b6457e0\n  swap2\n    /* \"smartContract_flat.sol\":20342:20358  address oldOwner */\n  swap1\n    /* \"smartContract_flat.sol\":20411:20451  OwnershipTransferred(oldOwner, newOwner) */\n  log3\n    /* \"smartContract_flat.sol\":20331:20459  {... */\n  pop\n    /* \"smartContract_flat.sol\":20268:20459  function _transferOwnership(address newOwner) internal virtual {... */\n  pop\n  jump\t// out\n    /* \"smartContract_flat.sol\":13514:13913  function _mint(address account, uint256 amount) internal virtual {... */\ntag_18:\n  sub(shl(0xa0, 0x01), 0x01)\n    /* \"smartContract_flat.sol\":13598:13619  account != address(0) */\n  dup3\n  and\n    /* \"smartContract_flat.sol\":13590:13655  require(account != address(0), \"ERC20: mint to the zero address\") */\n  tag_24\n  jumpi\n  mload(0x40)\n  shl(0xe5, 0x461bcd)\n  dup2\n  mstore\n    /* \"#utility.yul\":216:218   */\n  0x20\n    /* \"smartContract_flat.sol\":13590:13655  require(account != address(0), \"ERC20: mint to the zero address\") */\n  0x04\n  dup3\n  add\n    /* \"#utility.yul\":198:219   */\n  mstore\n    /* \"#utility.yul\":255:257   */\n  0x1f\n    /* \"#utility.yul\":235:253   */\n  0x24\n  dup3\n  add\n    /* \"#utility.yul\":228:258   */\n  mstore\n    /* \"#utility.yul\":294:327   */\n  0x45524332303a206d696e7420746f20746865207a65726f206164647265737300\n    /* \"#utility.yul\":274:292   */\n  0x44\n  dup3\n  add\n    /* \"#utility.yul\":267:328   */\n  mstore\n    /* \"#utility.yul\":345:363   */\n  0x64\n  add\n    /* \"smartContract_flat.sol\":13590:13655  require(account != address(0), \"ERC20: mint to the zero address\") */\n  mload(0x40)\n  dup1\n  swap2\n  sub\n  swap1\n  revert\ntag_24:\n    /* \"smartContract_flat.sol\":13746:13752  amount */\n  dup1\n    /* \"smartContract_flat.sol\":13730:13742  _totalSupply */\n  0x03\n  0x00\n    /* \"smartContract_flat.sol\":13730:13752  _totalSupply += amount */\n  dup3\n  dup3\n  sload\n  tag_29\n  swap2\n  swap1\n  tag_30\n  jump\t// in\ntag_29:\n  swap1\n  swap2\n  sstore\n  pop\n  pop\n  sub(shl(0xa0, 0x01), 0x01)\n    /* \"smartContract_flat.sol\":13763:13781  _balances[account] */\n  dup3\n  and\n  0x00\n  swap1\n  dup2\n  mstore\n    /* \"smartContract_flat.sol\":13763:13772  _balances */\n  0x01\n    /* \"smartContract_flat.sol\":13763:13781  _balances[account] */\n  0x20\n  mstore\n  0x40\n  dup2\n  keccak256\n    /* \"smartContract_flat.sol\":13763:13791  _balances[account] += amount */\n  dup1\n  sload\n    /* \"smartContract_flat.sol\":13785:13791  amount */\n  dup4\n  swap3\n    /* \"smartContract_flat.sol\":13763:13781  _balances[account] */\n  swap1\n    /* \"smartContract_flat.sol\":13763:13791  _balances[account] += amount */\n  tag_31\n  swap1\n    /* \"smartContract_flat.sol\":13785:13791  amount */\n  dup5\n  swap1\n    /* \"smartContract_flat.sol\":13763:13791  _balances[account] += amount */\n  tag_30\n  jump\t// in\ntag_31:\n  swap1\n  swap2\n  sstore\n  pop\n  pop\n    /* \"smartContract_flat.sol\":13807:13844  Transfer(address(0), account, amount) */\n  mload(0x40)\n    /* \"#utility.yul\":750:775   */\n  dup2\n  dup2\n  mstore\n  sub(shl(0xa0, 0x01), 0x01)\n    /* \"smartContract_flat.sol\":13807:13844  Transfer(address(0), account, amount) */\n  dup4\n  and\n  swap1\n    /* \"smartContract_flat.sol\":13824:13825  0 */\n  0x00\n  swap1\n    /* \"smartContract_flat.sol\":13807:13844  Transfer(address(0), account, amount) */\n  0xddf252ad1be2c89b69c2b068fc378daa952ba7f163c4a11628f55a4df523b3ef\n  swap1\n    /* \"#utility.yul\":738:740   */\n  0x20\n    /* \"#utility.yul\":723:741   */\n  add\n    /* \"smartContract_flat.sol\":13807:13844  Transfer(address(0), account, amount) */\n  mload(0x40)\n  dup1\n  swap2\n  sub\n  swap1\n  log3\n    /* \"smartContract_flat.sol\":13514:13913  function _mint(address account, uint256 amount) internal virtual {... */\n  pop\n  pop\n  jump\t// out\n    /* \"smartContract_flat.sol\":20512:21202  contract Token is Ownable, ERC20 {... */\ntag_12:\n  dup3\n  dup1\n  sload\n  tag_38\n  swap1\n  tag_39\n  jump\t// in\ntag_38:\n  swap1\n  0x00\n  mstore\n  keccak256(0x00, 0x20)\n  swap1\n  0x1f\n  add\n  0x20\n  swap1\n  div\n  dup2\n  add\n  swap3\n  dup3\n  tag_41\n  jumpi\n  0x00\n  dup6\n  sstore\n  jump(tag_44)\ntag_41:\n  dup3\n  0x1f\n  lt\n  tag_42\n  jumpi\n  dup1\n  mload\n  not(0xff)\n  and\n  dup4\n  dup1\n  add\n  or\n  dup6\n  sstore\n  jump(tag_44)\ntag_42:\n  dup3\n  dup1\n  add\n  0x01\n  add\n  dup6\n  sstore\n  dup3\n  iszero\n  tag_44\n  jumpi\n  swap2\n  dup3\n  add\ntag_43:\n  dup3\n  dup2\n  gt\n  iszero\n  tag_44\n  jumpi\n  dup3\n  mload\n  dup3\n  sstore\n  swap2\n  0x20\n  add\n  swap2\n  swap1\n  0x01\n  add\n  swap1\n  jump(tag_43)\ntag_44:\n  pop\n  tag_45\n  swap3\n  swap2\n  pop\n  tag_46\n  jump\t// in\ntag_45:\n  pop\n  swap1\n  jump\t// out\ntag_46:\ntag_47:\n  dup1\n  dup3\n  gt\n  iszero\n  tag_45\n  jumpi\n  0x00\n  dup2\n  sstore\n  0x01\n  add\n  jump(tag_47)\n    /* \"#utility.yul\":374:599   */\ntag_30:\n    /* \"#utility.yul\":414:417   */\n  0x00\n    /* \"#utility.yul\":445:446   */\n  dup3\n    /* \"#utility.yul\":441:447   */\n  not\n    /* \"#utility.yul\":438:439   */\n  dup3\n    /* \"#utility.yul\":435:448   */\n  gt\n    /* \"#utility.yul\":432:568   */\n  iszero\n  tag_52\n  jumpi\n    /* \"#utility.yul\":490:500   */\n  0x4e487b71\n    /* \"#utility.yul\":485:488   */\n  0xe0\n    /* \"#utility.yul\":481:501   */\n  shl\n    /* \"#utility.yul\":478:479   */\n  0x00\n    /* \"#utility.yul\":471:502   */\n  mstore\n    /* \"#utility.yul\":525:529   */\n  0x11\n    /* \"#utility.yul\":522:523   */\n  0x04\n    /* \"#utility.yul\":515:530   */\n  mstore\n    /* \"#utility.yul\":553:557   */\n  0x24\n    /* \"#utility.yul\":550:551   */\n  0x00\n    /* \"#utility.yul\":543:558   */\n  revert\n    /* \"#utility.yul\":432:568   */\ntag_52:\n  pop\n    /* \"#utility.yul\":584:593   */\n  add\n  swap1\n    /* \"#utility.yul\":374:599   */\n  jump\t// out\n    /* \"#utility.yul\":786:1166   */\ntag_39:\n    /* \"#utility.yul\":865:866   */\n  0x01\n    /* \"#utility.yul\":861:873   */\n  dup2\n  dup2\n  shr\n  swap1\n    /* \"#utility.yul\":908:920   */\n  dup3\n  and\n  dup1\n    /* \"#utility.yul\":929:990   */\n  tag_55\n  jumpi\n    /* \"#utility.yul\":983:987   */\n  0x7f\n    /* \"#utility.yul\":975:981   */\n  dup3\n    /* \"#utility.yul\":971:988   */\n  and\n    /* \"#utility.yul\":961:988   */\n  swap2\n  pop\n    /* \"#utility.yul\":929:990   */\ntag_55:\n    /* \"#utility.yul\":1036:1038   */\n  0x20\n    /* \"#utility.yul\":1028:1034   */\n  dup3\n    /* \"#utility.yul\":1025:1039   */\n  lt\n    /* \"#utility.yul\":1005:1023   */\n  dup2\n    /* \"#utility.yul\":1002:1040   */\n  sub\n    /* \"#utility.yul\":999:1160   */\n  tag_56\n  jumpi\n    /* \"#utility.yul\":1082:1092   */\n  0x4e487b71\n    /* \"#utility.yul\":1077:1080   */\n  0xe0\n    /* \"#utility.yul\":1073:1093   */\n  shl\n    /* \"#utility.yul\":1070:1071   */\n  0x00\n    /* \"#utility.yul\":1063:1094   */\n  mstore\n    /* \"#utility.yul\":1117:1121   */\n  0x22\n    /* \"#utility.yul\":1114:1115   */\n  0x04\n    /* \"#utility.yul\":1107:1122   */\n  mstore\n    /* \"#utility.yul\":1145:1149   */\n  0x24\n    /* \"#utility.yul\":1142:1143   */\n  0x00\n    /* \"#utility.yul\":1135:1150   */\n  revert\n    /* \"#utility.yul\":999:1160   */\ntag_56:\n  pop\n    /* \"#utility.yul\":786:1166   */\n  swap2\n  swap1\n  pop\n  jump\t// out\ntag_49:\n    /* \"smartContract_flat.sol\":20512:21202  contract Token is Ownable, ERC20 {... */\n  dataSize(sub_0)\n  dup1\n  dataOffset(sub_0)\n  0x00\n  codecopy\n  0x00\n  return\nstop\n\nsub_0: assembly {\n        /* \"smartContract_flat.sol\":20512:21202  contract Token is Ownable, ERC20 {... */\n      mstore(0x40, 0x80)\n      callvalue\n      dup1\n      iszero\n      tag_1\n      jumpi\n      0x00\n      dup1\n      revert\n    tag_1:\n      pop\n      jumpi(tag_2, lt(calldatasize, 0x04))\n      shr(0xe0, calldataload(0x00))\n      dup1\n      0x715018a6\n      gt\n      tag_22\n      jumpi\n      dup1\n      0xa9059cbb\n      gt\n      tag_23\n      jumpi\n      dup1\n      0xa9059cbb\n      eq\n      tag_17\n      jumpi\n      dup1\n      0xb45ee9ef\n      eq\n      tag_18\n      jumpi\n      dup1\n      0xdd62ed3e\n      eq\n      tag_19\n      jumpi\n      dup1\n      0xe3d670d7\n      eq\n      tag_11\n      jumpi\n      dup1\n      0xf2fde38b\n      eq\n      tag_21\n      jumpi\n      0x00\n      dup1\n      revert\n    tag_23:\n      dup1\n      0x715018a6\n      eq\n      tag_12\n      jumpi\n      dup1\n      0x8da5cb5b\n      eq\n      tag_13\n      jumpi\n      dup1\n      0x95d89b41\n      eq\n      tag_14\n      jumpi\n      dup1\n      0x9dc29fac\n      eq\n      tag_15\n      jumpi\n      dup1\n      0xa457c2d7\n      eq\n      tag_16\n      jumpi\n      0x00\n      dup1\n      revert\n    tag_22:\n      dup1\n      0x313ce567\n      gt\n      tag_24\n      jumpi\n      dup1\n      0x313ce567\n      eq\n      tag_7\n      jumpi\n      dup1\n      0x39509351\n      eq\n      tag_8\n      jumpi\n      dup1\n      0x3eaaf86b\n      eq\n      tag_9\n      jumpi\n      dup1\n      0x40c10f19\n      eq\n      tag_10\n      jumpi\n      dup1\n      0x70a08231\n      eq\n      tag_11\n      jumpi\n      0x00\n      dup1\n      revert\n    tag_24:\n      dup1\n      0x06fdde03\n      eq\n      tag_3\n      jumpi\n      dup1\n      0x095ea7b3\n      eq\n      tag_4\n      jumpi\n      dup1\n      0x18160ddd\n      eq\n      tag_5\n      jumpi\n      dup1\n      0x23b872dd\n      eq\n      tag_6\n      jumpi\n    tag_2:\n      0x00\n      dup1\n      revert\n        /* \"smartContract_flat.sol\":6745:6845  function name() public view virtual override returns (string memory) {... */\n    tag_3:\n      tag_25\n      tag_26\n      jump\t// in\n    tag_25:\n      mload(0x40)\n      tag_27\n      swap2\n      swap1\n      tag_28\n      jump\t// in\n    tag_27:\n      mload(0x40)\n      dup1\n      swap2\n      sub\n      swap1\n      return\n        /* \"smartContract_flat.sol\":9236:9478  function approve(address spender, uint256 amount)... */\n    tag_4:\n      tag_29\n      tag_30\n      calldatasize\n      0x04\n      tag_31\n      jump\t// in\n    tag_30:\n      tag_32\n      jump\t// in\n    tag_29:\n      mload(0x40)\n        /* \"#utility.yul\":1218:1232   */\n      swap1\n      iszero\n        /* \"#utility.yul\":1211:1233   */\n      iszero\n        /* \"#utility.yul\":1193:1234   */\n      dup2\n      mstore\n        /* \"#utility.yul\":1181:1183   */\n      0x20\n        /* \"#utility.yul\":1166:1184   */\n      add\n        /* \"smartContract_flat.sol\":9236:9478  function approve(address spender, uint256 amount)... */\n      tag_27\n        /* \"#utility.yul\":1053:1240   */\n      jump\n        /* \"smartContract_flat.sol\":7864:7972  function totalSupply() public view virtual override returns (uint256) {... */\n    tag_5:\n        /* \"smartContract_flat.sol\":7952:7964  _totalSupply */\n      sload(0x03)\n        /* \"smartContract_flat.sol\":7864:7972  function totalSupply() public view virtual override returns (uint256) {... */\n    tag_35:\n      mload(0x40)\n        /* \"#utility.yul\":1391:1416   */\n      swap1\n      dup2\n      mstore\n        /* \"#utility.yul\":1379:1381   */\n      0x20\n        /* \"#utility.yul\":1364:1382   */\n      add\n        /* \"smartContract_flat.sol\":7864:7972  function totalSupply() public view virtual override returns (uint256) {... */\n      tag_27\n        /* \"#utility.yul\":1245:1422   */\n      jump\n        /* \"smartContract_flat.sol\":10058:10353  function transferFrom(... */\n    tag_6:\n      tag_29\n      tag_40\n      calldatasize\n      0x04\n      tag_41\n      jump\t// in\n    tag_40:\n      tag_42\n      jump\t// in\n        /* \"smartContract_flat.sol\":7707:7799  function decimals() public view virtual override returns (uint8) {... */\n    tag_7:\n      mload(0x40)\n        /* \"smartContract_flat.sol\":7790:7791  9 */\n      0x09\n        /* \"#utility.yul\":1902:1938   */\n      dup2\n      mstore\n        /* \"#utility.yul\":1890:1892   */\n      0x20\n        /* \"#utility.yul\":1875:1893   */\n      add\n        /* \"smartContract_flat.sol\":7707:7799  function decimals() public view virtual override returns (uint8) {... */\n      tag_27\n        /* \"#utility.yul\":1760:1944   */\n      jump\n        /* \"smartContract_flat.sol\":10762:11032  function increaseAllowance(address spender, uint256 addedValue)... */\n    tag_8:\n      tag_29\n      tag_49\n      calldatasize\n      0x04\n      tag_31\n      jump\t// in\n    tag_49:\n      tag_50\n      jump\t// in\n        /* \"smartContract_flat.sol\":20552:20579  uint256 public _totalSupply */\n    tag_9:\n      tag_35\n      sload(0x07)\n      dup2\n      jump\n        /* \"smartContract_flat.sol\":21001:21096  function mint(address account, uint256 amount) public {... */\n    tag_10:\n      tag_55\n      tag_56\n      calldatasize\n      0x04\n      tag_31\n      jump\t// in\n    tag_56:\n      tag_57\n      jump\t// in\n    tag_55:\n      stop\n        /* \"smartContract_flat.sol\":8035:8212  function balanceOf(address account)... */\n    tag_11:\n      tag_35\n      tag_59\n      calldatasize\n      0x04\n      tag_60\n      jump\t// in\n    tag_59:\n      sub(shl(0xa0, 0x01), 0x01)\n        /* \"smartContract_flat.sol\":8186:8204  _balances[account] */\n      and\n        /* \"smartContract_flat.sol\":8154:8161  uint256 */\n      0x00\n        /* \"smartContract_flat.sol\":8186:8204  _balances[account] */\n      swap1\n      dup2\n      mstore\n        /* \"smartContract_flat.sol\":8186:8195  _balances */\n      0x01\n        /* \"smartContract_flat.sol\":8186:8204  _balances[account] */\n      0x20\n      mstore\n      0x40\n      swap1\n      keccak256\n      sload\n      swap1\n        /* \"smartContract_flat.sol\":8035:8212  function balanceOf(address account)... */\n      jump\n        /* \"smartContract_flat.sol\":19612:19715  function renounceOwnership() public virtual onlyOwner {... */\n    tag_12:\n      tag_55\n      tag_64\n      jump\t// in\n        /* \"smartContract_flat.sol\":18961:19048  function owner() public view virtual returns (address) {... */\n    tag_13:\n        /* \"smartContract_flat.sol\":19007:19014  address */\n      0x00\n        /* \"smartContract_flat.sol\":19034:19040  _owner */\n      sload\n        /* \"smartContract_flat.sol\":18961:19048  function owner() public view virtual returns (address) {... */\n      mload(0x40)\n      sub(shl(0xa0, 0x01), 0x01)\n        /* \"smartContract_flat.sol\":19034:19040  _owner */\n      swap1\n      swap2\n      and\n        /* \"#utility.yul\":2286:2337   */\n      dup2\n      mstore\n        /* \"#utility.yul\":2274:2276   */\n      0x20\n        /* \"#utility.yul\":2259:2277   */\n      add\n        /* \"smartContract_flat.sol\":18961:19048  function owner() public view virtual returns (address) {... */\n      tag_27\n        /* \"#utility.yul\":2140:2343   */\n      jump\n        /* \"smartContract_flat.sol\":6964:7068  function symbol() public view virtual override returns (string memory) {... */\n    tag_14:\n      tag_25\n      tag_70\n      jump\t// in\n        /* \"smartContract_flat.sol\":21104:21199  function burn(address account, uint256 amount) public {... */\n    tag_15:\n      tag_55\n      tag_73\n      calldatasize\n      0x04\n      tag_31\n      jump\t// in\n    tag_73:\n      tag_74\n      jump\t// in\n        /* \"smartContract_flat.sol\":11535:12040  function decreaseAllowance(address spender, uint256 subtractedValue)... */\n    tag_16:\n      tag_29\n      tag_76\n      calldatasize\n      0x04\n      tag_31\n      jump\t// in\n    tag_76:\n      tag_77\n      jump\t// in\n        /* \"smartContract_flat.sol\":8418:8652  function transfer(address to, uint256 amount)... */\n    tag_17:\n      tag_29\n      tag_80\n      calldatasize\n      0x04\n      tag_31\n      jump\t// in\n    tag_80:\n      tag_81\n      jump\t// in\n        /* \"smartContract_flat.sol\":20841:20993  function transferPrice(... */\n    tag_18:\n      tag_55\n      tag_84\n      calldatasize\n      0x04\n      tag_41\n      jump\t// in\n    tag_84:\n      tag_85\n      jump\t// in\n        /* \"smartContract_flat.sol\":8715:8916  function allowance(address owner, address spender)... */\n    tag_19:\n      tag_35\n      tag_87\n      calldatasize\n      0x04\n      tag_88\n      jump\t// in\n    tag_87:\n      tag_89\n      jump\t// in\n        /* \"smartContract_flat.sol\":19870:20108  function transferOwnership(address newOwner) public virtual onlyOwner {... */\n    tag_21:\n      tag_55\n      tag_96\n      calldatasize\n      0x04\n      tag_60\n      jump\t// in\n    tag_96:\n      tag_97\n      jump\t// in\n        /* \"smartContract_flat.sol\":6745:6845  function name() public view virtual override returns (string memory) {... */\n    tag_26:\n        /* \"smartContract_flat.sol\":6799:6812  string memory */\n      0x60\n        /* \"smartContract_flat.sol\":6832:6837  _name */\n      0x04\n        /* \"smartContract_flat.sol\":6825:6837  return _name */\n      dup1\n      sload\n      tag_99\n      swap1\n      tag_100\n      jump\t// in\n    tag_99:\n      dup1\n      0x1f\n      add\n      0x20\n      dup1\n      swap2\n      div\n      mul\n      0x20\n      add\n      mload(0x40)\n      swap1\n      dup2\n      add\n      0x40\n      mstore\n      dup1\n      swap3\n      swap2\n      swap1\n      dup2\n      dup2\n      mstore\n      0x20\n      add\n      dup3\n      dup1\n      sload\n      tag_101\n      swap1\n      tag_100\n      jump\t// in\n    tag_101:\n      dup1\n      iszero\n      tag_102\n      jumpi\n      dup1\n      0x1f\n      lt\n      tag_103\n      jumpi\n      0x0100\n      dup1\n      dup4\n      sload\n      div\n      mul\n      dup4\n      mstore\n      swap2\n      0x20\n      add\n      swap2\n      jump(tag_102)\n    tag_103:\n      dup3\n      add\n      swap2\n      swap1\n      0x00\n      mstore\n      keccak256(0x00, 0x20)\n      swap1\n    tag_104:\n      dup2\n      sload\n      dup2\n      mstore\n      swap1\n      0x01\n      add\n      swap1\n      0x20\n      add\n      dup1\n      dup4\n      gt\n      tag_104\n      jumpi\n      dup3\n      swap1\n      sub\n      0x1f\n      and\n      dup3\n      add\n      swap2\n    tag_102:\n      pop\n      pop\n      pop\n      pop\n      pop\n      swap1\n      pop\n        /* \"smartContract_flat.sol\":6745:6845  function name() public view virtual override returns (string memory) {... */\n      swap1\n      jump\t// out\n        /* \"smartContract_flat.sol\":9236:9478  function approve(address spender, uint256 amount)... */\n    tag_32:\n        /* \"smartContract_flat.sol\":9355:9359  bool */\n      0x00\n        /* \"smartContract_flat.sol\":4397:4407  msg.sender */\n      caller\n        /* \"smartContract_flat.sol\":9416:9448  _approve(owner, spender, amount) */\n      tag_108\n        /* \"smartContract_flat.sol\":4397:4407  msg.sender */\n      dup2\n        /* \"smartContract_flat.sol\":9432:9439  spender */\n      dup6\n        /* \"smartContract_flat.sol\":9441:9447  amount */\n      dup6\n        /* \"smartContract_flat.sol\":9416:9424  _approve */\n      tag_109\n        /* \"smartContract_flat.sol\":9416:9448  _approve(owner, spender, amount) */\n      jump\t// in\n    tag_108:\n      pop\n        /* \"smartContract_flat.sol\":9466:9470  true */\n      0x01\n      swap4\n        /* \"smartContract_flat.sol\":9236:9478  function approve(address spender, uint256 amount)... */\n      swap3\n      pop\n      pop\n      pop\n      jump\t// out\n        /* \"smartContract_flat.sol\":10058:10353  function transferFrom(... */\n    tag_42:\n        /* \"smartContract_flat.sol\":10189:10193  bool */\n      0x00\n        /* \"smartContract_flat.sol\":4397:4407  msg.sender */\n      caller\n        /* \"smartContract_flat.sol\":10247:10285  _spendAllowance(from, spender, amount) */\n      tag_113\n        /* \"smartContract_flat.sol\":10263:10267  from */\n      dup6\n        /* \"smartContract_flat.sol\":4397:4407  msg.sender */\n      dup3\n        /* \"smartContract_flat.sol\":10278:10284  amount */\n      dup6\n        /* \"smartContract_flat.sol\":10247:10262  _spendAllowance */\n      tag_114\n        /* \"smartContract_flat.sol\":10247:10285  _spendAllowance(from, spender, amount) */\n      jump\t// in\n    tag_113:\n        /* \"smartContract_flat.sol\":10296:10323  _transfer(from, to, amount) */\n      tag_115\n        /* \"smartContract_flat.sol\":10306:10310  from */\n      dup6\n        /* \"smartContract_flat.sol\":10312:10314  to */\n      dup6\n        /* \"smartContract_flat.sol\":10316:10322  amount */\n      dup6\n        /* \"smartContract_flat.sol\":10296:10305  _transfer */\n      tag_116\n        /* \"smartContract_flat.sol\":10296:10323  _transfer(from, to, amount) */\n      jump\t// in\n    tag_115:\n      pop\n        /* \"smartContract_flat.sol\":10341:10345  true */\n      0x01\n      swap5\n        /* \"smartContract_flat.sol\":10058:10353  function transferFrom(... */\n      swap4\n      pop\n      pop\n      pop\n      pop\n      jump\t// out\n        /* \"smartContract_flat.sol\":10762:11032  function increaseAllowance(address spender, uint256 addedValue)... */\n    tag_50:\n        /* \"smartContract_flat.sol\":10877:10881  bool */\n      0x00\n        /* \"smartContract_flat.sol\":4397:4407  msg.sender */\n      caller\n        /* \"smartContract_flat.sol\":10938:11002  _approve(owner, spender, allowance(owner, spender) + addedValue) */\n      tag_108\n        /* \"smartContract_flat.sol\":4397:4407  msg.sender */\n      dup2\n        /* \"smartContract_flat.sol\":10954:10961  spender */\n      dup6\n        /* \"smartContract_flat.sol\":10991:11001  addedValue */\n      dup6\n        /* \"smartContract_flat.sol\":10963:10988  allowance(owner, spender) */\n      tag_121\n        /* \"smartContract_flat.sol\":4397:4407  msg.sender */\n      dup4\n        /* \"smartContract_flat.sol\":10954:10961  spender */\n      dup4\n        /* \"smartContract_flat.sol\":10963:10972  allowance */\n      tag_89\n        /* \"smartContract_flat.sol\":10963:10988  allowance(owner, spender) */\n      jump\t// in\n    tag_121:\n        /* \"smartContract_flat.sol\":10963:11001  allowance(owner, spender) + addedValue */\n      tag_122\n      swap2\n      swap1\n      tag_123\n      jump\t// in\n    tag_122:\n        /* \"smartContract_flat.sol\":10938:10946  _approve */\n      tag_109\n        /* \"smartContract_flat.sol\":10938:11002  _approve(owner, spender, allowance(owner, spender) + addedValue) */\n      jump\t// in\n        /* \"smartContract_flat.sol\":21001:21096  function mint(address account, uint256 amount) public {... */\n    tag_57:\n        /* \"smartContract_flat.sol\":21066:21088  _mint(account, amount) */\n      tag_125\n        /* \"smartContract_flat.sol\":21072:21079  account */\n      dup3\n        /* \"smartContract_flat.sol\":21081:21087  amount */\n      dup3\n        /* \"smartContract_flat.sol\":21066:21071  _mint */\n      tag_126\n        /* \"smartContract_flat.sol\":21066:21088  _mint(account, amount) */\n      jump\t// in\n    tag_125:\n        /* \"smartContract_flat.sol\":21001:21096  function mint(address account, uint256 amount) public {... */\n      pop\n      pop\n      jump\t// out\n        /* \"smartContract_flat.sol\":19612:19715  function renounceOwnership() public virtual onlyOwner {... */\n    tag_64:\n        /* \"smartContract_flat.sol\":19007:19014  address */\n      0x00\n        /* \"smartContract_flat.sol\":19034:19040  _owner */\n      sload\n      sub(shl(0xa0, 0x01), 0x01)\n      and\n        /* \"smartContract_flat.sol\":4397:4407  msg.sender */\n      caller\n        /* \"smartContract_flat.sol\":19181:19204  owner() == _msgSender() */\n      eq\n        /* \"smartContract_flat.sol\":19173:19241  require(owner() == _msgSender(), \"Ownable: caller is not the owner\") */\n      tag_131\n      jumpi\n      mload(0x40)\n      shl(0xe5, 0x461bcd)\n      dup2\n      mstore\n        /* \"#utility.yul\":3465:3467   */\n      0x20\n        /* \"smartContract_flat.sol\":19173:19241  require(owner() == _msgSender(), \"Ownable: caller is not the owner\") */\n      0x04\n      dup3\n      add\n        /* \"#utility.yul\":3447:3468   */\n      dup2\n      swap1\n      mstore\n        /* \"#utility.yul\":3484:3502   */\n      0x24\n      dup3\n      add\n        /* \"#utility.yul\":3477:3507   */\n      mstore\n        /* \"#utility.yul\":3543:3577   */\n      0x4f776e61626c653a2063616c6c6572206973206e6f7420746865206f776e6572\n        /* \"#utility.yul\":3523:3541   */\n      0x44\n      dup3\n      add\n        /* \"#utility.yul\":3516:3578   */\n      mstore\n        /* \"#utility.yul\":3595:3613   */\n      0x64\n      add\n        /* \"smartContract_flat.sol\":19173:19241  require(owner() == _msgSender(), \"Ownable: caller is not the owner\") */\n    tag_132:\n      mload(0x40)\n      dup1\n      swap2\n      sub\n      swap1\n      revert\n    tag_131:\n        /* \"smartContract_flat.sol\":19677:19707  _transferOwnership(address(0)) */\n      tag_135\n        /* \"smartContract_flat.sol\":19704:19705  0 */\n      0x00\n        /* \"smartContract_flat.sol\":19677:19695  _transferOwnership */\n      tag_136\n        /* \"smartContract_flat.sol\":19677:19707  _transferOwnership(address(0)) */\n      jump\t// in\n    tag_135:\n        /* \"smartContract_flat.sol\":19612:19715  function renounceOwnership() public virtual onlyOwner {... */\n      jump\t// out\n        /* \"smartContract_flat.sol\":6964:7068  function symbol() public view virtual override returns (string memory) {... */\n    tag_70:\n        /* \"smartContract_flat.sol\":7020:7033  string memory */\n      0x60\n        /* \"smartContract_flat.sol\":7053:7060  _symbol */\n      0x05\n        /* \"smartContract_flat.sol\":7046:7060  return _symbol */\n      dup1\n      sload\n      tag_99\n      swap1\n      tag_100\n      jump\t// in\n        /* \"smartContract_flat.sol\":21104:21199  function burn(address account, uint256 amount) public {... */\n    tag_74:\n        /* \"smartContract_flat.sol\":21169:21191  _burn(account, amount) */\n      tag_125\n        /* \"smartContract_flat.sol\":21175:21182  account */\n      dup3\n        /* \"smartContract_flat.sol\":21184:21190  amount */\n      dup3\n        /* \"smartContract_flat.sol\":21169:21174  _burn */\n      tag_146\n        /* \"smartContract_flat.sol\":21169:21191  _burn(account, amount) */\n      jump\t// in\n        /* \"smartContract_flat.sol\":11535:12040  function decreaseAllowance(address spender, uint256 subtractedValue)... */\n    tag_77:\n        /* \"smartContract_flat.sol\":11655:11659  bool */\n      0x00\n        /* \"smartContract_flat.sol\":4397:4407  msg.sender */\n      caller\n        /* \"smartContract_flat.sol\":11655:11659  bool */\n      dup2\n        /* \"smartContract_flat.sol\":11743:11768  allowance(owner, spender) */\n      tag_149\n        /* \"smartContract_flat.sol\":4397:4407  msg.sender */\n      dup3\n        /* \"smartContract_flat.sol\":11760:11767  spender */\n      dup7\n        /* \"smartContract_flat.sol\":11743:11752  allowance */\n      tag_89\n        /* \"smartContract_flat.sol\":11743:11768  allowance(owner, spender) */\n      jump\t// in\n    tag_149:\n        /* \"smartContract_flat.sol\":11716:11768  uint256 currentAllowance = allowance(owner, spender) */\n      swap1\n      pop\n        /* \"smartContract_flat.sol\":11821:11836  subtractedValue */\n      dup4\n        /* \"smartContract_flat.sol\":11801:11817  currentAllowance */\n      dup2\n        /* \"smartContract_flat.sol\":11801:11836  currentAllowance >= subtractedValue */\n      lt\n      iszero\n        /* \"smartContract_flat.sol\":11779:11901  require(... */\n      tag_150\n      jumpi\n      mload(0x40)\n      shl(0xe5, 0x461bcd)\n      dup2\n      mstore\n        /* \"#utility.yul\":3826:3828   */\n      0x20\n        /* \"smartContract_flat.sol\":11779:11901  require(... */\n      0x04\n      dup3\n      add\n        /* \"#utility.yul\":3808:3829   */\n      mstore\n        /* \"#utility.yul\":3865:3867   */\n      0x25\n        /* \"#utility.yul\":3845:3863   */\n      0x24\n      dup3\n      add\n        /* \"#utility.yul\":3838:3868   */\n      mstore\n        /* \"#utility.yul\":3904:3938   */\n      0x45524332303a2064656372656173656420616c6c6f77616e63652062656c6f77\n        /* \"#utility.yul\":3884:3902   */\n      0x44\n      dup3\n      add\n        /* \"#utility.yul\":3877:3939   */\n      mstore\n      shl(0xd8, 0x207a65726f)\n        /* \"#utility.yul\":3955:3973   */\n      0x64\n      dup3\n      add\n        /* \"#utility.yul\":3948:3983   */\n      mstore\n        /* \"#utility.yul\":4000:4019   */\n      0x84\n      add\n        /* \"smartContract_flat.sol\":11779:11901  require(... */\n      tag_132\n        /* \"#utility.yul\":3624:4025   */\n      jump\n        /* \"smartContract_flat.sol\":11779:11901  require(... */\n    tag_150:\n        /* \"smartContract_flat.sol\":11937:11997  _approve(owner, spender, currentAllowance - subtractedValue) */\n      tag_115\n        /* \"smartContract_flat.sol\":11946:11951  owner */\n      dup3\n        /* \"smartContract_flat.sol\":11953:11960  spender */\n      dup7\n        /* \"smartContract_flat.sol\":11981:11996  subtractedValue */\n      dup7\n        /* \"smartContract_flat.sol\":11962:11978  currentAllowance */\n      dup5\n        /* \"smartContract_flat.sol\":11962:11996  currentAllowance - subtractedValue */\n      sub\n        /* \"smartContract_flat.sol\":11937:11945  _approve */\n      tag_109\n        /* \"smartContract_flat.sol\":11937:11997  _approve(owner, spender, currentAllowance - subtractedValue) */\n      jump\t// in\n        /* \"smartContract_flat.sol\":8418:8652  function transfer(address to, uint256 amount)... */\n    tag_81:\n        /* \"smartContract_flat.sol\":8533:8537  bool */\n      0x00\n        /* \"smartContract_flat.sol\":4397:4407  msg.sender */\n      caller\n        /* \"smartContract_flat.sol\":8594:8622  _transfer(owner, to, amount) */\n      tag_108\n        /* \"smartContract_flat.sol\":4397:4407  msg.sender */\n      dup2\n        /* \"smartContract_flat.sol\":8611:8613  to */\n      dup6\n        /* \"smartContract_flat.sol\":8615:8621  amount */\n      dup6\n        /* \"smartContract_flat.sol\":8594:8603  _transfer */\n      tag_116\n        /* \"smartContract_flat.sol\":8594:8622  _transfer(owner, to, amount) */\n      jump\t// in\n        /* \"smartContract_flat.sol\":20841:20993  function transferPrice(... */\n    tag_85:\n        /* \"smartContract_flat.sol\":20958:20985  _transfer(from, to, amount) */\n      tag_158\n        /* \"smartContract_flat.sol\":20968:20972  from */\n      dup4\n        /* \"smartContract_flat.sol\":20974:20976  to */\n      dup4\n        /* \"smartContract_flat.sol\":20978:20984  amount */\n      dup4\n        /* \"smartContract_flat.sol\":20958:20967  _transfer */\n      tag_116\n        /* \"smartContract_flat.sol\":20958:20985  _transfer(from, to, amount) */\n      jump\t// in\n    tag_158:\n        /* \"smartContract_flat.sol\":20841:20993  function transferPrice(... */\n      pop\n      pop\n      pop\n      jump\t// out\n        /* \"smartContract_flat.sol\":8715:8916  function allowance(address owner, address spender)... */\n    tag_89:\n      sub(shl(0xa0, 0x01), 0x01)\n        /* \"smartContract_flat.sol\":8881:8899  _allowances[owner] */\n      swap2\n      dup3\n      and\n        /* \"smartContract_flat.sol\":8849:8856  uint256 */\n      0x00\n        /* \"smartContract_flat.sol\":8881:8899  _allowances[owner] */\n      swap1\n      dup2\n      mstore\n        /* \"smartContract_flat.sol\":8881:8892  _allowances */\n      0x02\n        /* \"smartContract_flat.sol\":8881:8899  _allowances[owner] */\n      0x20\n      swap1\n      dup2\n      mstore\n      0x40\n      dup1\n      dup4\n      keccak256\n        /* \"smartContract_flat.sol\":8881:8908  _allowances[owner][spender] */\n      swap4\n      swap1\n      swap5\n      and\n      dup3\n      mstore\n      swap2\n      swap1\n      swap2\n      mstore\n      keccak256\n      sload\n      swap1\n        /* \"smartContract_flat.sol\":8715:8916  function allowance(address owner, address spender)... */\n      jump\t// out\n        /* \"smartContract_flat.sol\":19870:20108  function transferOwnership(address newOwner) public virtual onlyOwner {... */\n    tag_97:\n        /* \"smartContract_flat.sol\":19007:19014  address */\n      0x00\n        /* \"smartContract_flat.sol\":19034:19040  _owner */\n      sload\n      sub(shl(0xa0, 0x01), 0x01)\n      and\n        /* \"smartContract_flat.sol\":4397:4407  msg.sender */\n      caller\n        /* \"smartContract_flat.sol\":19181:19204  owner() == _msgSender() */\n      eq\n        /* \"smartContract_flat.sol\":19173:19241  require(owner() == _msgSender(), \"Ownable: caller is not the owner\") */\n      tag_165\n      jumpi\n      mload(0x40)\n      shl(0xe5, 0x461bcd)\n      dup2\n      mstore\n        /* \"#utility.yul\":3465:3467   */\n      0x20\n        /* \"smartContract_flat.sol\":19173:19241  require(owner() == _msgSender(), \"Ownable: caller is not the owner\") */\n      0x04\n      dup3\n      add\n        /* \"#utility.yul\":3447:3468   */\n      dup2\n      swap1\n      mstore\n        /* \"#utility.yul\":3484:3502   */\n      0x24\n      dup3\n      add\n        /* \"#utility.yul\":3477:3507   */\n      mstore\n        /* \"#utility.yul\":3543:3577   */\n      0x4f776e61626c653a2063616c6c6572206973206e6f7420746865206f776e6572\n        /* \"#utility.yul\":3523:3541   */\n      0x44\n      dup3\n      add\n        /* \"#utility.yul\":3516:3578   */\n      mstore\n        /* \"#utility.yul\":3595:3613   */\n      0x64\n      add\n        /* \"smartContract_flat.sol\":19173:19241  require(owner() == _msgSender(), \"Ownable: caller is not the owner\") */\n      tag_132\n        /* \"#utility.yul\":3263:3619   */\n      jump\n        /* \"smartContract_flat.sol\":19173:19241  require(owner() == _msgSender(), \"Ownable: caller is not the owner\") */\n    tag_165:\n      sub(shl(0xa0, 0x01), 0x01)\n        /* \"smartContract_flat.sol\":19973:19995  newOwner != address(0) */\n      dup2\n      and\n        /* \"smartContract_flat.sol\":19951:20061  require(... */\n      tag_168\n      jumpi\n      mload(0x40)\n      shl(0xe5, 0x461bcd)\n      dup2\n      mstore\n        /* \"#utility.yul\":4232:4234   */\n      0x20\n        /* \"smartContract_flat.sol\":19951:20061  require(... */\n      0x04\n      dup3\n      add\n        /* \"#utility.yul\":4214:4235   */\n      mstore\n        /* \"#utility.yul\":4271:4273   */\n      0x26\n        /* \"#utility.yul\":4251:4269   */\n      0x24\n      dup3\n      add\n        /* \"#utility.yul\":4244:4274   */\n      mstore\n        /* \"#utility.yul\":4310:4344   */\n      0x4f776e61626c653a206e6577206f776e657220697320746865207a65726f2061\n        /* \"#utility.yul\":4290:4308   */\n      0x44\n      dup3\n      add\n        /* \"#utility.yul\":4283:4345   */\n      mstore\n      shl(0xd0, 0x646472657373)\n        /* \"#utility.yul\":4361:4379   */\n      0x64\n      dup3\n      add\n        /* \"#utility.yul\":4354:4390   */\n      mstore\n        /* \"#utility.yul\":4407:4426   */\n      0x84\n      add\n        /* \"smartContract_flat.sol\":19951:20061  require(... */\n      tag_132\n        /* \"#utility.yul\":4030:4432   */\n      jump\n        /* \"smartContract_flat.sol\":19951:20061  require(... */\n    tag_168:\n        /* \"smartContract_flat.sol\":20072:20100  _transferOwnership(newOwner) */\n      tag_171\n        /* \"smartContract_flat.sol\":20091:20099  newOwner */\n      dup2\n        /* \"smartContract_flat.sol\":20072:20090  _transferOwnership */\n      tag_136\n        /* \"smartContract_flat.sol\":20072:20100  _transferOwnership(newOwner) */\n      jump\t// in\n    tag_171:\n        /* \"smartContract_flat.sol\":19870:20108  function transferOwnership(address newOwner) public virtual onlyOwner {... */\n      pop\n      jump\t// out\n        /* \"smartContract_flat.sol\":15275:15655  function _approve(... */\n    tag_109:\n      sub(shl(0xa0, 0x01), 0x01)\n        /* \"smartContract_flat.sol\":15411:15430  owner != address(0) */\n      dup4\n      and\n        /* \"smartContract_flat.sol\":15403:15471  require(owner != address(0), \"ERC20: approve from the zero address\") */\n      tag_174\n      jumpi\n      mload(0x40)\n      shl(0xe5, 0x461bcd)\n      dup2\n      mstore\n        /* \"#utility.yul\":4639:4641   */\n      0x20\n        /* \"smartContract_flat.sol\":15403:15471  require(owner != address(0), \"ERC20: approve from the zero address\") */\n      0x04\n      dup3\n      add\n        /* \"#utility.yul\":4621:4642   */\n      mstore\n        /* \"#utility.yul\":4678:4680   */\n      0x24\n        /* \"#utility.yul\":4658:4676   */\n      dup1\n      dup3\n      add\n        /* \"#utility.yul\":4651:4681   */\n      mstore\n        /* \"#utility.yul\":4717:4751   */\n      0x45524332303a20617070726f76652066726f6d20746865207a65726f20616464\n        /* \"#utility.yul\":4697:4715   */\n      0x44\n      dup3\n      add\n        /* \"#utility.yul\":4690:4752   */\n      mstore\n      shl(0xe0, 0x72657373)\n        /* \"#utility.yul\":4768:4786   */\n      0x64\n      dup3\n      add\n        /* \"#utility.yul\":4761:4795   */\n      mstore\n        /* \"#utility.yul\":4812:4831   */\n      0x84\n      add\n        /* \"smartContract_flat.sol\":15403:15471  require(owner != address(0), \"ERC20: approve from the zero address\") */\n      tag_132\n        /* \"#utility.yul\":4437:4837   */\n      jump\n        /* \"smartContract_flat.sol\":15403:15471  require(owner != address(0), \"ERC20: approve from the zero address\") */\n    tag_174:\n      sub(shl(0xa0, 0x01), 0x01)\n        /* \"smartContract_flat.sol\":15490:15511  spender != address(0) */\n      dup3\n      and\n        /* \"smartContract_flat.sol\":15482:15550  require(spender != address(0), \"ERC20: approve to the zero address\") */\n      tag_177\n      jumpi\n      mload(0x40)\n      shl(0xe5, 0x461bcd)\n      dup2\n      mstore\n        /* \"#utility.yul\":5044:5046   */\n      0x20\n        /* \"smartContract_flat.sol\":15482:15550  require(spender != address(0), \"ERC20: approve to the zero address\") */\n      0x04\n      dup3\n      add\n        /* \"#utility.yul\":5026:5047   */\n      mstore\n        /* \"#utility.yul\":5083:5085   */\n      0x22\n        /* \"#utility.yul\":5063:5081   */\n      0x24\n      dup3\n      add\n        /* \"#utility.yul\":5056:5086   */\n      mstore\n        /* \"#utility.yul\":5122:5156   */\n      0x45524332303a20617070726f766520746f20746865207a65726f206164647265\n        /* \"#utility.yul\":5102:5120   */\n      0x44\n      dup3\n      add\n        /* \"#utility.yul\":5095:5157   */\n      mstore\n      shl(0xf0, 0x7373)\n        /* \"#utility.yul\":5173:5191   */\n      0x64\n      dup3\n      add\n        /* \"#utility.yul\":5166:5198   */\n      mstore\n        /* \"#utility.yul\":5215:5234   */\n      0x84\n      add\n        /* \"smartContract_flat.sol\":15482:15550  require(spender != address(0), \"ERC20: approve to the zero address\") */\n      tag_132\n        /* \"#utility.yul\":4842:5240   */\n      jump\n        /* \"smartContract_flat.sol\":15482:15550  require(spender != address(0), \"ERC20: approve to the zero address\") */\n    tag_177:\n      sub(shl(0xa0, 0x01), 0x01)\n        /* \"smartContract_flat.sol\":15563:15581  _allowances[owner] */\n      dup4\n      dup2\n      and\n      0x00\n      dup2\n      dup2\n      mstore\n        /* \"smartContract_flat.sol\":15563:15574  _allowances */\n      0x02\n        /* \"smartContract_flat.sol\":15563:15581  _allowances[owner] */\n      0x20\n      swap1\n      dup2\n      mstore\n      0x40\n      dup1\n      dup4\n      keccak256\n        /* \"smartContract_flat.sol\":15563:15590  _allowances[owner][spender] */\n      swap5\n      dup8\n      and\n      dup1\n      dup5\n      mstore\n      swap5\n      dup3\n      mstore\n      swap2\n      dup3\n      swap1\n      keccak256\n        /* \"smartContract_flat.sol\":15563:15599  _allowances[owner][spender] = amount */\n      dup6\n      swap1\n      sstore\n        /* \"smartContract_flat.sol\":15615:15647  Approval(owner, spender, amount) */\n      swap1\n      mload\n        /* \"#utility.yul\":1391:1416   */\n      dup5\n      dup2\n      mstore\n        /* \"smartContract_flat.sol\":15615:15647  Approval(owner, spender, amount) */\n      0x8c5be1e5ebec7d5bd14f71427d1e84f3dd0314c0f7b2291e5b200ac8c7c3b925\n      swap2\n        /* \"#utility.yul\":1364:1382   */\n      add\n        /* \"smartContract_flat.sol\":15615:15647  Approval(owner, spender, amount) */\n      mload(0x40)\n      dup1\n      swap2\n      sub\n      swap1\n      log3\n        /* \"smartContract_flat.sol\":15275:15655  function _approve(... */\n      pop\n      pop\n      pop\n      jump\t// out\n        /* \"smartContract_flat.sol\":15946:16448  function _spendAllowance(... */\n    tag_114:\n        /* \"smartContract_flat.sol\":16081:16105  uint256 currentAllowance */\n      0x00\n        /* \"smartContract_flat.sol\":16108:16133  allowance(owner, spender) */\n      tag_182\n        /* \"smartContract_flat.sol\":16118:16123  owner */\n      dup5\n        /* \"smartContract_flat.sol\":16125:16132  spender */\n      dup5\n        /* \"smartContract_flat.sol\":16108:16117  allowance */\n      tag_89\n        /* \"smartContract_flat.sol\":16108:16133  allowance(owner, spender) */\n      jump\t// in\n    tag_182:\n        /* \"smartContract_flat.sol\":16081:16133  uint256 currentAllowance = allowance(owner, spender) */\n      swap1\n      pop\n      not(0x00)\n        /* \"smartContract_flat.sol\":16148:16164  currentAllowance */\n      dup2\n        /* \"smartContract_flat.sol\":16148:16185  currentAllowance != type(uint256).max */\n      eq\n        /* \"smartContract_flat.sol\":16144:16441  if (currentAllowance != type(uint256).max) {... */\n      tag_187\n      jumpi\n        /* \"smartContract_flat.sol\":16248:16254  amount */\n      dup2\n        /* \"smartContract_flat.sol\":16228:16244  currentAllowance */\n      dup2\n        /* \"smartContract_flat.sol\":16228:16254  currentAllowance >= amount */\n      lt\n      iszero\n        /* \"smartContract_flat.sol\":16202:16319  require(... */\n      tag_184\n      jumpi\n      mload(0x40)\n      shl(0xe5, 0x461bcd)\n      dup2\n      mstore\n        /* \"#utility.yul\":5447:5449   */\n      0x20\n        /* \"smartContract_flat.sol\":16202:16319  require(... */\n      0x04\n      dup3\n      add\n        /* \"#utility.yul\":5429:5450   */\n      mstore\n        /* \"#utility.yul\":5486:5488   */\n      0x1d\n        /* \"#utility.yul\":5466:5484   */\n      0x24\n      dup3\n      add\n        /* \"#utility.yul\":5459:5489   */\n      mstore\n        /* \"#utility.yul\":5525:5556   */\n      0x45524332303a20696e73756666696369656e7420616c6c6f77616e6365000000\n        /* \"#utility.yul\":5505:5523   */\n      0x44\n      dup3\n      add\n        /* \"#utility.yul\":5498:5557   */\n      mstore\n        /* \"#utility.yul\":5574:5592   */\n      0x64\n      add\n        /* \"smartContract_flat.sol\":16202:16319  require(... */\n      tag_132\n        /* \"#utility.yul\":5245:5598   */\n      jump\n        /* \"smartContract_flat.sol\":16202:16319  require(... */\n    tag_184:\n        /* \"smartContract_flat.sol\":16363:16414  _approve(owner, spender, currentAllowance - amount) */\n      tag_187\n        /* \"smartContract_flat.sol\":16372:16377  owner */\n      dup5\n        /* \"smartContract_flat.sol\":16379:16386  spender */\n      dup5\n        /* \"smartContract_flat.sol\":16407:16413  amount */\n      dup5\n        /* \"smartContract_flat.sol\":16388:16404  currentAllowance */\n      dup5\n        /* \"smartContract_flat.sol\":16388:16413  currentAllowance - amount */\n      sub\n        /* \"smartContract_flat.sol\":16363:16371  _approve */\n      tag_109\n        /* \"smartContract_flat.sol\":16363:16414  _approve(owner, spender, currentAllowance - amount) */\n      jump\t// in\n    tag_187:\n        /* \"smartContract_flat.sol\":16070:16448  {... */\n      pop\n        /* \"smartContract_flat.sol\":15946:16448  function _spendAllowance(... */\n      pop\n      pop\n      pop\n      jump\t// out\n        /* \"smartContract_flat.sol\":12519:13227  function _transfer(... */\n    tag_116:\n      sub(shl(0xa0, 0x01), 0x01)\n        /* \"smartContract_flat.sol\":12650:12668  from != address(0) */\n      dup4\n      and\n        /* \"smartContract_flat.sol\":12642:12710  require(from != address(0), \"ERC20: transfer from the zero address\") */\n      tag_189\n      jumpi\n      mload(0x40)\n      shl(0xe5, 0x461bcd)\n      dup2\n      mstore\n        /* \"#utility.yul\":5805:5807   */\n      0x20\n        /* \"smartContract_flat.sol\":12642:12710  require(from != address(0), \"ERC20: transfer from the zero address\") */\n      0x04\n      dup3\n      add\n        /* \"#utility.yul\":5787:5808   */\n      mstore\n        /* \"#utility.yul\":5844:5846   */\n      0x25\n        /* \"#utility.yul\":5824:5842   */\n      0x24\n      dup3\n      add\n        /* \"#utility.yul\":5817:5847   */\n      mstore\n        /* \"#utility.yul\":5883:5917   */\n      0x45524332303a207472616e736665722066726f6d20746865207a65726f206164\n        /* \"#utility.yul\":5863:5881   */\n      0x44\n      dup3\n      add\n        /* \"#utility.yul\":5856:5918   */\n      mstore\n      shl(0xd8, 0x6472657373)\n        /* \"#utility.yul\":5934:5952   */\n      0x64\n      dup3\n      add\n        /* \"#utility.yul\":5927:5962   */\n      mstore\n        /* \"#utility.yul\":5979:5998   */\n      0x84\n      add\n        /* \"smartContract_flat.sol\":12642:12710  require(from != address(0), \"ERC20: transfer from the zero address\") */\n      tag_132\n        /* \"#utility.yul\":5603:6004   */\n      jump\n        /* \"smartContract_flat.sol\":12642:12710  require(from != address(0), \"ERC20: transfer from the zero address\") */\n    tag_189:\n      sub(shl(0xa0, 0x01), 0x01)\n        /* \"smartContract_flat.sol\":12729:12745  to != address(0) */\n      dup3\n      and\n        /* \"smartContract_flat.sol\":12721:12785  require(to != address(0), \"ERC20: transfer to the zero address\") */\n      tag_192\n      jumpi\n      mload(0x40)\n      shl(0xe5, 0x461bcd)\n      dup2\n      mstore\n        /* \"#utility.yul\":6211:6213   */\n      0x20\n        /* \"smartContract_flat.sol\":12721:12785  require(to != address(0), \"ERC20: transfer to the zero address\") */\n      0x04\n      dup3\n      add\n        /* \"#utility.yul\":6193:6214   */\n      mstore\n        /* \"#utility.yul\":6250:6252   */\n      0x23\n        /* \"#utility.yul\":6230:6248   */\n      0x24\n      dup3\n      add\n        /* \"#utility.yul\":6223:6253   */\n      mstore\n        /* \"#utility.yul\":6289:6323   */\n      0x45524332303a207472616e7366657220746f20746865207a65726f2061646472\n        /* \"#utility.yul\":6269:6287   */\n      0x44\n      dup3\n      add\n        /* \"#utility.yul\":6262:6324   */\n      mstore\n      shl(0xe8, 0x657373)\n        /* \"#utility.yul\":6340:6358   */\n      0x64\n      dup3\n      add\n        /* \"#utility.yul\":6333:6366   */\n      mstore\n        /* \"#utility.yul\":6383:6402   */\n      0x84\n      add\n        /* \"smartContract_flat.sol\":12721:12785  require(to != address(0), \"ERC20: transfer to the zero address\") */\n      tag_132\n        /* \"#utility.yul\":6009:6408   */\n      jump\n        /* \"smartContract_flat.sol\":12721:12785  require(to != address(0), \"ERC20: transfer to the zero address\") */\n    tag_192:\n      sub(shl(0xa0, 0x01), 0x01)\n        /* \"smartContract_flat.sol\":12871:12886  _balances[from] */\n      dup4\n      and\n        /* \"smartContract_flat.sol\":12849:12868  uint256 fromBalance */\n      0x00\n        /* \"smartContract_flat.sol\":12871:12886  _balances[from] */\n      swap1\n      dup2\n      mstore\n        /* \"smartContract_flat.sol\":12871:12880  _balances */\n      0x01\n        /* \"smartContract_flat.sol\":12871:12886  _balances[from] */\n      0x20\n      mstore\n      0x40\n      swap1\n      keccak256\n      sload\n        /* \"smartContract_flat.sol\":12919:12940  fromBalance >= amount */\n      dup2\n      dup2\n      lt\n      iszero\n        /* \"smartContract_flat.sol\":12897:13006  require(... */\n      tag_197\n      jumpi\n      mload(0x40)\n      shl(0xe5, 0x461bcd)\n      dup2\n      mstore\n        /* \"#utility.yul\":6615:6617   */\n      0x20\n        /* \"smartContract_flat.sol\":12897:13006  require(... */\n      0x04\n      dup3\n      add\n        /* \"#utility.yul\":6597:6618   */\n      mstore\n        /* \"#utility.yul\":6654:6656   */\n      0x26\n        /* \"#utility.yul\":6634:6652   */\n      0x24\n      dup3\n      add\n        /* \"#utility.yul\":6627:6657   */\n      mstore\n        /* \"#utility.yul\":6693:6727   */\n      0x45524332303a207472616e7366657220616d6f756e7420657863656564732062\n        /* \"#utility.yul\":6673:6691   */\n      0x44\n      dup3\n      add\n        /* \"#utility.yul\":6666:6728   */\n      mstore\n      shl(0xd0, 0x616c616e6365)\n        /* \"#utility.yul\":6744:6762   */\n      0x64\n      dup3\n      add\n        /* \"#utility.yul\":6737:6773   */\n      mstore\n        /* \"#utility.yul\":6790:6809   */\n      0x84\n      add\n        /* \"smartContract_flat.sol\":12897:13006  require(... */\n      tag_132\n        /* \"#utility.yul\":6413:6815   */\n      jump\n        /* \"smartContract_flat.sol\":12897:13006  require(... */\n    tag_197:\n      sub(shl(0xa0, 0x01), 0x01)\n        /* \"smartContract_flat.sol\":13042:13057  _balances[from] */\n      dup1\n      dup6\n      and\n      0x00\n      swap1\n      dup2\n      mstore\n        /* \"smartContract_flat.sol\":13042:13051  _balances */\n      0x01\n        /* \"smartContract_flat.sol\":13042:13057  _balances[from] */\n      0x20\n      mstore\n      0x40\n      dup1\n      dup3\n      keccak256\n        /* \"smartContract_flat.sol\":13060:13080  fromBalance - amount */\n      dup6\n      dup6\n      sub\n        /* \"smartContract_flat.sol\":13042:13080  _balances[from] = fromBalance - amount */\n      swap1\n      sstore\n        /* \"smartContract_flat.sol\":13102:13115  _balances[to] */\n      swap2\n      dup6\n      and\n      dup2\n      mstore\n      swap1\n      dup2\n      keccak256\n        /* \"smartContract_flat.sol\":13102:13125  _balances[to] += amount */\n      dup1\n      sload\n        /* \"smartContract_flat.sol\":13074:13080  amount */\n      dup5\n      swap3\n        /* \"smartContract_flat.sol\":13042:13057  _balances[from] */\n      swap1\n        /* \"smartContract_flat.sol\":13102:13125  _balances[to] += amount */\n      tag_200\n      swap1\n        /* \"smartContract_flat.sol\":13074:13080  amount */\n      dup5\n      swap1\n        /* \"smartContract_flat.sol\":13102:13125  _balances[to] += amount */\n      tag_123\n      jump\t// in\n    tag_200:\n      swap3\n      pop\n      pop\n      dup2\n      swap1\n      sstore\n      pop\n        /* \"smartContract_flat.sol\":13158:13160  to */\n      dup3\n      sub(shl(0xa0, 0x01), 0x01)\n        /* \"smartContract_flat.sol\":13143:13169  Transfer(from, to, amount) */\n      and\n        /* \"smartContract_flat.sol\":13152:13156  from */\n      dup5\n      sub(shl(0xa0, 0x01), 0x01)\n        /* \"smartContract_flat.sol\":13143:13169  Transfer(from, to, amount) */\n      and\n      0xddf252ad1be2c89b69c2b068fc378daa952ba7f163c4a11628f55a4df523b3ef\n        /* \"smartContract_flat.sol\":13162:13168  amount */\n      dup5\n        /* \"smartContract_flat.sol\":13143:13169  Transfer(from, to, amount) */\n      mload(0x40)\n      tag_201\n      swap2\n        /* \"#utility.yul\":1391:1416   */\n      dup2\n      mstore\n        /* \"#utility.yul\":1379:1381   */\n      0x20\n        /* \"#utility.yul\":1364:1382   */\n      add\n      swap1\n        /* \"#utility.yul\":1245:1422   */\n      jump\n        /* \"smartContract_flat.sol\":13143:13169  Transfer(from, to, amount) */\n    tag_201:\n      mload(0x40)\n      dup1\n      swap2\n      sub\n      swap1\n      log3\n        /* \"smartContract_flat.sol\":13182:13219  _afterTokenTransfer(from, to, amount) */\n      tag_187\n        /* \"smartContract_flat.sol\":20841:20993  function transferPrice(... */\n      jump\n        /* \"smartContract_flat.sol\":13514:13913  function _mint(address account, uint256 amount) internal virtual {... */\n    tag_126:\n      sub(shl(0xa0, 0x01), 0x01)\n        /* \"smartContract_flat.sol\":13598:13619  account != address(0) */\n      dup3\n      and\n        /* \"smartContract_flat.sol\":13590:13655  require(account != address(0), \"ERC20: mint to the zero address\") */\n      tag_205\n      jumpi\n      mload(0x40)\n      shl(0xe5, 0x461bcd)\n      dup2\n      mstore\n        /* \"#utility.yul\":7022:7024   */\n      0x20\n        /* \"smartContract_flat.sol\":13590:13655  require(account != address(0), \"ERC20: mint to the zero address\") */\n      0x04\n      dup3\n      add\n        /* \"#utility.yul\":7004:7025   */\n      mstore\n        /* \"#utility.yul\":7061:7063   */\n      0x1f\n        /* \"#utility.yul\":7041:7059   */\n      0x24\n      dup3\n      add\n        /* \"#utility.yul\":7034:7064   */\n      mstore\n        /* \"#utility.yul\":7100:7133   */\n      0x45524332303a206d696e7420746f20746865207a65726f206164647265737300\n        /* \"#utility.yul\":7080:7098   */\n      0x44\n      dup3\n      add\n        /* \"#utility.yul\":7073:7134   */\n      mstore\n        /* \"#utility.yul\":7151:7169   */\n      0x64\n      add\n        /* \"smartContract_flat.sol\":13590:13655  require(account != address(0), \"ERC20: mint to the zero address\") */\n      tag_132\n        /* \"#utility.yul\":6820:7175   */\n      jump\n        /* \"smartContract_flat.sol\":13590:13655  require(account != address(0), \"ERC20: mint to the zero address\") */\n    tag_205:\n        /* \"smartContract_flat.sol\":13746:13752  amount */\n      dup1\n        /* \"smartContract_flat.sol\":13730:13742  _totalSupply */\n      0x03\n      0x00\n        /* \"smartContract_flat.sol\":13730:13752  _totalSupply += amount */\n      dup3\n      dup3\n      sload\n      tag_209\n      swap2\n      swap1\n      tag_123\n      jump\t// in\n    tag_209:\n      swap1\n      swap2\n      sstore\n      pop\n      pop\n      sub(shl(0xa0, 0x01), 0x01)\n        /* \"smartContract_flat.sol\":13763:13781  _balances[account] */\n      dup3\n      and\n      0x00\n      swap1\n      dup2\n      mstore\n        /* \"smartContract_flat.sol\":13763:13772  _balances */\n      0x01\n        /* \"smartContract_flat.sol\":13763:13781  _balances[account] */\n      0x20\n      mstore\n      0x40\n      dup2\n      keccak256\n        /* \"smartContract_flat.sol\":13763:13791  _balances[account] += amount */\n      dup1\n      sload\n        /* \"smartContract_flat.sol\":13785:13791  amount */\n      dup4\n      swap3\n        /* \"smartContract_flat.sol\":13763:13781  _balances[account] */\n      swap1\n        /* \"smartContract_flat.sol\":13763:13791  _balances[account] += amount */\n      tag_210\n      swap1\n        /* \"smartContract_flat.sol\":13785:13791  amount */\n      dup5\n      swap1\n        /* \"smartContract_flat.sol\":13763:13791  _balances[account] += amount */\n      tag_123\n      jump\t// in\n    tag_210:\n      swap1\n      swap2\n      sstore\n      pop\n      pop\n        /* \"smartContract_flat.sol\":13807:13844  Transfer(address(0), account, amount) */\n      mload(0x40)\n        /* \"#utility.yul\":1391:1416   */\n      dup2\n      dup2\n      mstore\n      sub(shl(0xa0, 0x01), 0x01)\n        /* \"smartContract_flat.sol\":13807:13844  Transfer(address(0), account, amount) */\n      dup4\n      and\n      swap1\n        /* \"smartContract_flat.sol\":13824:13825  0 */\n      0x00\n      swap1\n        /* \"smartContract_flat.sol\":13807:13844  Transfer(address(0), account, amount) */\n      0xddf252ad1be2c89b69c2b068fc378daa952ba7f163c4a11628f55a4df523b3ef\n      swap1\n        /* \"#utility.yul\":1379:1381   */\n      0x20\n        /* \"#utility.yul\":1364:1382   */\n      add\n        /* \"smartContract_flat.sol\":13807:13844  Transfer(address(0), account, amount) */\n      mload(0x40)\n      dup1\n      swap2\n      sub\n      swap1\n      log3\n        /* \"smartContract_flat.sol\":21001:21096  function mint(address account, uint256 amount) public {... */\n      pop\n      pop\n      jump\t// out\n        /* \"smartContract_flat.sol\":20268:20459  function _transferOwnership(address newOwner) internal virtual {... */\n    tag_136:\n        /* \"smartContract_flat.sol\":20342:20358  address oldOwner */\n      0x00\n        /* \"smartContract_flat.sol\":20361:20367  _owner */\n      dup1\n      sload\n      sub(shl(0xa0, 0x01), 0x01)\n        /* \"smartContract_flat.sol\":20378:20395  _owner = newOwner */\n      dup4\n      dup2\n      and\n      not(sub(shl(0xa0, 0x01), 0x01))\n      dup4\n      and\n      dup2\n      or\n      dup5\n      sstore\n        /* \"smartContract_flat.sol\":20411:20451  OwnershipTransferred(oldOwner, newOwner) */\n      mload(0x40)\n        /* \"smartContract_flat.sol\":20361:20367  _owner */\n      swap2\n      swap1\n      swap3\n      and\n      swap3\n      dup4\n      swap2\n        /* \"smartContract_flat.sol\":20411:20451  OwnershipTransferred(oldOwner, newOwner) */\n      0x8be0079c531659141344cd1fd0a4f28419497f9722a3daafe3b4186f6b6457e0\n      swap2\n        /* \"smartContract_flat.sol\":20342:20358  address oldOwner */\n      swap1\n        /* \"smartContract_flat.sol\":20411:20451  OwnershipTransferred(oldOwner, newOwner) */\n      log3\n        /* \"smartContract_flat.sol\":20331:20459  {... */\n      pop\n        /* \"smartContract_flat.sol\":20268:20459  function _transferOwnership(address newOwner) internal virtual {... */\n      pop\n      jump\t// out\n        /* \"smartContract_flat.sol\":14246:14837  function _burn(address account, uint256 amount) internal virtual {... */\n    tag_146:\n      sub(shl(0xa0, 0x01), 0x01)\n        /* \"smartContract_flat.sol\":14330:14351  account != address(0) */\n      dup3\n      and\n        /* \"smartContract_flat.sol\":14322:14389  require(account != address(0), \"ERC20: burn from the zero address\") */\n      tag_215\n      jumpi\n      mload(0x40)\n      shl(0xe5, 0x461bcd)\n      dup2\n      mstore\n        /* \"#utility.yul\":7382:7384   */\n      0x20\n        /* \"smartContract_flat.sol\":14322:14389  require(account != address(0), \"ERC20: burn from the zero address\") */\n      0x04\n      dup3\n      add\n        /* \"#utility.yul\":7364:7385   */\n      mstore\n        /* \"#utility.yul\":7421:7423   */\n      0x21\n        /* \"#utility.yul\":7401:7419   */\n      0x24\n      dup3\n      add\n        /* \"#utility.yul\":7394:7424   */\n      mstore\n        /* \"#utility.yul\":7460:7494   */\n      0x45524332303a206275726e2066726f6d20746865207a65726f20616464726573\n        /* \"#utility.yul\":7440:7458   */\n      0x44\n      dup3\n      add\n        /* \"#utility.yul\":7433:7495   */\n      mstore\n      shl(0xf8, 0x73)\n        /* \"#utility.yul\":7511:7529   */\n      0x64\n      dup3\n      add\n        /* \"#utility.yul\":7504:7535   */\n      mstore\n        /* \"#utility.yul\":7552:7571   */\n      0x84\n      add\n        /* \"smartContract_flat.sol\":14322:14389  require(account != address(0), \"ERC20: burn from the zero address\") */\n      tag_132\n        /* \"#utility.yul\":7180:7577   */\n      jump\n        /* \"smartContract_flat.sol\":14322:14389  require(account != address(0), \"ERC20: burn from the zero address\") */\n    tag_215:\n      sub(shl(0xa0, 0x01), 0x01)\n        /* \"smartContract_flat.sol\":14489:14507  _balances[account] */\n      dup3\n      and\n        /* \"smartContract_flat.sol\":14464:14486  uint256 accountBalance */\n      0x00\n        /* \"smartContract_flat.sol\":14489:14507  _balances[account] */\n      swap1\n      dup2\n      mstore\n        /* \"smartContract_flat.sol\":14489:14498  _balances */\n      0x01\n        /* \"smartContract_flat.sol\":14489:14507  _balances[account] */\n      0x20\n      mstore\n      0x40\n      swap1\n      keccak256\n      sload\n        /* \"smartContract_flat.sol\":14526:14550  accountBalance >= amount */\n      dup2\n      dup2\n      lt\n      iszero\n        /* \"smartContract_flat.sol\":14518:14589  require(accountBalance >= amount, \"ERC20: burn amount exceeds balance\") */\n      tag_219\n      jumpi\n      mload(0x40)\n      shl(0xe5, 0x461bcd)\n      dup2\n      mstore\n        /* \"#utility.yul\":7784:7786   */\n      0x20\n        /* \"smartContract_flat.sol\":14518:14589  require(accountBalance >= amount, \"ERC20: burn amount exceeds balance\") */\n      0x04\n      dup3\n      add\n        /* \"#utility.yul\":7766:7787   */\n      mstore\n        /* \"#utility.yul\":7823:7825   */\n      0x22\n        /* \"#utility.yul\":7803:7821   */\n      0x24\n      dup3\n      add\n        /* \"#utility.yul\":7796:7826   */\n      mstore\n        /* \"#utility.yul\":7862:7896   */\n      0x45524332303a206275726e20616d6f756e7420657863656564732062616c616e\n        /* \"#utility.yul\":7842:7860   */\n      0x44\n      dup3\n      add\n        /* \"#utility.yul\":7835:7897   */\n      mstore\n      shl(0xf0, 0x6365)\n        /* \"#utility.yul\":7913:7931   */\n      0x64\n      dup3\n      add\n        /* \"#utility.yul\":7906:7938   */\n      mstore\n        /* \"#utility.yul\":7955:7974   */\n      0x84\n      add\n        /* \"smartContract_flat.sol\":14518:14589  require(accountBalance >= amount, \"ERC20: burn amount exceeds balance\") */\n      tag_132\n        /* \"#utility.yul\":7582:7980   */\n      jump\n        /* \"smartContract_flat.sol\":14518:14589  require(accountBalance >= amount, \"ERC20: burn amount exceeds balance\") */\n    tag_219:\n      sub(shl(0xa0, 0x01), 0x01)\n        /* \"smartContract_flat.sol\":14625:14643  _balances[account] */\n      dup4\n      and\n      0x00\n      swap1\n      dup2\n      mstore\n        /* \"smartContract_flat.sol\":14625:14634  _balances */\n      0x01\n        /* \"smartContract_flat.sol\":14625:14643  _balances[account] */\n      0x20\n      mstore\n      0x40\n      dup2\n      keccak256\n        /* \"smartContract_flat.sol\":14646:14669  accountBalance - amount */\n      dup4\n      dup4\n      sub\n        /* \"smartContract_flat.sol\":14625:14669  _balances[account] = accountBalance - amount */\n      swap1\n      sstore\n        /* \"smartContract_flat.sol\":14691:14703  _totalSupply */\n      0x03\n        /* \"smartContract_flat.sol\":14691:14713  _totalSupply -= amount */\n      dup1\n      sload\n        /* \"smartContract_flat.sol\":14663:14669  amount */\n      dup5\n      swap3\n        /* \"smartContract_flat.sol\":14625:14643  _balances[account] */\n      swap1\n        /* \"smartContract_flat.sol\":14691:14713  _totalSupply -= amount */\n      tag_222\n      swap1\n        /* \"smartContract_flat.sol\":14663:14669  amount */\n      dup5\n      swap1\n        /* \"smartContract_flat.sol\":14691:14713  _totalSupply -= amount */\n      tag_223\n      jump\t// in\n    tag_222:\n      swap1\n      swap2\n      sstore\n      pop\n      pop\n        /* \"smartContract_flat.sol\":14731:14768  Transfer(account, address(0), amount) */\n      mload(0x40)\n        /* \"#utility.yul\":1391:1416   */\n      dup3\n      dup2\n      mstore\n        /* \"smartContract_flat.sol\":14757:14758  0 */\n      0x00\n      swap1\n      sub(shl(0xa0, 0x01), 0x01)\n        /* \"smartContract_flat.sol\":14731:14768  Transfer(account, address(0), amount) */\n      dup6\n      and\n      swap1\n      0xddf252ad1be2c89b69c2b068fc378daa952ba7f163c4a11628f55a4df523b3ef\n      swap1\n        /* \"#utility.yul\":1379:1381   */\n      0x20\n        /* \"#utility.yul\":1364:1382   */\n      add\n        /* \"smartContract_flat.sol\":14731:14768  Transfer(account, address(0), amount) */\n      mload(0x40)\n      dup1\n      swap2\n      sub\n      swap1\n      log3\n        /* \"smartContract_flat.sol\":20841:20993  function transferPrice(... */\n      pop\n      pop\n      pop\n      jump\t// out\n        /* \"#utility.yul\":14:611   */\n    tag_28:\n        /* \"#utility.yul\":126:130   */\n      0x00\n        /* \"#utility.yul\":155:157   */\n      0x20\n        /* \"#utility.yul\":184:186   */\n      dup1\n        /* \"#utility.yul\":173:182   */\n      dup4\n        /* \"#utility.yul\":166:187   */\n      mstore\n        /* \"#utility.yul\":216:222   */\n      dup4\n        /* \"#utility.yul\":210:223   */\n      mload\n        /* \"#utility.yul\":259:265   */\n      dup1\n        /* \"#utility.yul\":254:256   */\n      dup3\n        /* \"#utility.yul\":243:252   */\n      dup6\n        /* \"#utility.yul\":239:257   */\n      add\n        /* \"#utility.yul\":232:266   */\n      mstore\n        /* \"#utility.yul\":284:285   */\n      0x00\n        /* \"#utility.yul\":294:434   */\n    tag_232:\n        /* \"#utility.yul\":308:314   */\n      dup2\n        /* \"#utility.yul\":305:306   */\n      dup2\n        /* \"#utility.yul\":302:315   */\n      lt\n        /* \"#utility.yul\":294:434   */\n      iszero\n      tag_234\n      jumpi\n        /* \"#utility.yul\":403:417   */\n      dup6\n      dup2\n      add\n        /* \"#utility.yul\":399:422   */\n      dup4\n      add\n        /* \"#utility.yul\":393:423   */\n      mload\n        /* \"#utility.yul\":369:386   */\n      dup6\n      dup3\n      add\n        /* \"#utility.yul\":388:390   */\n      0x40\n        /* \"#utility.yul\":365:391   */\n      add\n        /* \"#utility.yul\":358:424   */\n      mstore\n        /* \"#utility.yul\":323:333   */\n      dup3\n      add\n        /* \"#utility.yul\":294:434   */\n      jump(tag_232)\n    tag_234:\n        /* \"#utility.yul\":452:458   */\n      dup2\n        /* \"#utility.yul\":449:450   */\n      dup2\n        /* \"#utility.yul\":446:459   */\n      gt\n        /* \"#utility.yul\":443:534   */\n      iszero\n      tag_235\n      jumpi\n        /* \"#utility.yul\":522:523   */\n      0x00\n        /* \"#utility.yul\":517:519   */\n      0x40\n        /* \"#utility.yul\":508:514   */\n      dup4\n        /* \"#utility.yul\":497:506   */\n      dup8\n        /* \"#utility.yul\":493:515   */\n      add\n        /* \"#utility.yul\":489:520   */\n      add\n        /* \"#utility.yul\":482:524   */\n      mstore\n        /* \"#utility.yul\":443:534   */\n    tag_235:\n      pop\n        /* \"#utility.yul\":595:597   */\n      0x1f\n        /* \"#utility.yul\":574:589   */\n      add\n      not(0x1f)\n        /* \"#utility.yul\":570:599   */\n      and\n        /* \"#utility.yul\":555:600   */\n      swap3\n      swap1\n      swap3\n      add\n        /* \"#utility.yul\":602:604   */\n      0x40\n        /* \"#utility.yul\":551:605   */\n      add\n      swap4\n        /* \"#utility.yul\":14:611   */\n      swap3\n      pop\n      pop\n      pop\n      jump\t// out\n        /* \"#utility.yul\":616:789   */\n    tag_228:\n        /* \"#utility.yul\":684:704   */\n      dup1\n      calldataload\n      sub(shl(0xa0, 0x01), 0x01)\n        /* \"#utility.yul\":733:764   */\n      dup2\n      and\n        /* \"#utility.yul\":723:765   */\n      dup2\n      eq\n        /* \"#utility.yul\":713:783   */\n      tag_237\n      jumpi\n        /* \"#utility.yul\":779:780   */\n      0x00\n        /* \"#utility.yul\":776:777   */\n      dup1\n        /* \"#utility.yul\":769:781   */\n      revert\n        /* \"#utility.yul\":713:783   */\n    tag_237:\n        /* \"#utility.yul\":616:789   */\n      swap2\n      swap1\n      pop\n      jump\t// out\n        /* \"#utility.yul\":794:1048   */\n    tag_31:\n        /* \"#utility.yul\":862:868   */\n      0x00\n        /* \"#utility.yul\":870:876   */\n      dup1\n        /* \"#utility.yul\":923:925   */\n      0x40\n        /* \"#utility.yul\":911:920   */\n      dup4\n        /* \"#utility.yul\":902:909   */\n      dup6\n        /* \"#utility.yul\":898:921   */\n      sub\n        /* \"#utility.yul\":894:926   */\n      slt\n        /* \"#utility.yul\":891:943   */\n      iszero\n      tag_239\n      jumpi\n        /* \"#utility.yul\":939:940   */\n      0x00\n        /* \"#utility.yul\":936:937   */\n      dup1\n        /* \"#utility.yul\":929:941   */\n      revert\n        /* \"#utility.yul\":891:943   */\n    tag_239:\n        /* \"#utility.yul\":962:991   */\n      tag_240\n        /* \"#utility.yul\":981:990   */\n      dup4\n        /* \"#utility.yul\":962:991   */\n      tag_228\n      jump\t// in\n    tag_240:\n        /* \"#utility.yul\":952:991   */\n      swap5\n        /* \"#utility.yul\":1038:1040   */\n      0x20\n        /* \"#utility.yul\":1023:1041   */\n      swap4\n      swap1\n      swap4\n      add\n        /* \"#utility.yul\":1010:1042   */\n      calldataload\n      swap4\n      pop\n      pop\n      pop\n        /* \"#utility.yul\":794:1048   */\n      jump\t// out\n        /* \"#utility.yul\":1427:1755   */\n    tag_41:\n        /* \"#utility.yul\":1504:1510   */\n      0x00\n        /* \"#utility.yul\":1512:1518   */\n      dup1\n        /* \"#utility.yul\":1520:1526   */\n      0x00\n        /* \"#utility.yul\":1573:1575   */\n      0x60\n        /* \"#utility.yul\":1561:1570   */\n      dup5\n        /* \"#utility.yul\":1552:1559   */\n      dup7\n        /* \"#utility.yul\":1548:1571   */\n      sub\n        /* \"#utility.yul\":1544:1576   */\n      slt\n        /* \"#utility.yul\":1541:1593   */\n      iszero\n      tag_244\n      jumpi\n        /* \"#utility.yul\":1589:1590   */\n      0x00\n        /* \"#utility.yul\":1586:1587   */\n      dup1\n        /* \"#utility.yul\":1579:1591   */\n      revert\n        /* \"#utility.yul\":1541:1593   */\n    tag_244:\n        /* \"#utility.yul\":1612:1641   */\n      tag_245\n        /* \"#utility.yul\":1631:1640   */\n      dup5\n        /* \"#utility.yul\":1612:1641   */\n      tag_228\n      jump\t// in\n    tag_245:\n        /* \"#utility.yul\":1602:1641   */\n      swap3\n      pop\n        /* \"#utility.yul\":1660:1698   */\n      tag_246\n        /* \"#utility.yul\":1694:1696   */\n      0x20\n        /* \"#utility.yul\":1683:1692   */\n      dup6\n        /* \"#utility.yul\":1679:1697   */\n      add\n        /* \"#utility.yul\":1660:1698   */\n      tag_228\n      jump\t// in\n    tag_246:\n        /* \"#utility.yul\":1650:1698   */\n      swap2\n      pop\n        /* \"#utility.yul\":1745:1747   */\n      0x40\n        /* \"#utility.yul\":1734:1743   */\n      dup5\n        /* \"#utility.yul\":1730:1748   */\n      add\n        /* \"#utility.yul\":1717:1749   */\n      calldataload\n        /* \"#utility.yul\":1707:1749   */\n      swap1\n      pop\n        /* \"#utility.yul\":1427:1755   */\n      swap3\n      pop\n      swap3\n      pop\n      swap3\n      jump\t// out\n        /* \"#utility.yul\":1949:2135   */\n    tag_60:\n        /* \"#utility.yul\":2008:2014   */\n      0x00\n        /* \"#utility.yul\":2061:2063   */\n      0x20\n        /* \"#utility.yul\":2049:2058   */\n      dup3\n        /* \"#utility.yul\":2040:2047   */\n      dup5\n        /* \"#utility.yul\":2036:2059   */\n      sub\n        /* \"#utility.yul\":2032:2064   */\n      slt\n        /* \"#utility.yul\":2029:2081   */\n      iszero\n      tag_249\n      jumpi\n        /* \"#utility.yul\":2077:2078   */\n      0x00\n        /* \"#utility.yul\":2074:2075   */\n      dup1\n        /* \"#utility.yul\":2067:2079   */\n      revert\n        /* \"#utility.yul\":2029:2081   */\n    tag_249:\n        /* \"#utility.yul\":2100:2129   */\n      tag_250\n        /* \"#utility.yul\":2119:2128   */\n      dup3\n        /* \"#utility.yul\":2100:2129   */\n      tag_228\n      jump\t// in\n    tag_250:\n        /* \"#utility.yul\":2090:2129   */\n      swap4\n        /* \"#utility.yul\":1949:2135   */\n      swap3\n      pop\n      pop\n      pop\n      jump\t// out\n        /* \"#utility.yul\":2348:2608   */\n    tag_88:\n        /* \"#utility.yul\":2416:2422   */\n      0x00\n        /* \"#utility.yul\":2424:2430   */\n      dup1\n        /* \"#utility.yul\":2477:2479   */\n      0x40\n        /* \"#utility.yul\":2465:2474   */\n      dup4\n        /* \"#utility.yul\":2456:2463   */\n      dup6\n        /* \"#utility.yul\":2452:2475   */\n      sub\n        /* \"#utility.yul\":2448:2480   */\n      slt\n        /* \"#utility.yul\":2445:2497   */\n      iszero\n      tag_253\n      jumpi\n        /* \"#utility.yul\":2493:2494   */\n      0x00\n        /* \"#utility.yul\":2490:2491   */\n      dup1\n        /* \"#utility.yul\":2483:2495   */\n      revert\n        /* \"#utility.yul\":2445:2497   */\n    tag_253:\n        /* \"#utility.yul\":2516:2545   */\n      tag_254\n        /* \"#utility.yul\":2535:2544   */\n      dup4\n        /* \"#utility.yul\":2516:2545   */\n      tag_228\n      jump\t// in\n    tag_254:\n        /* \"#utility.yul\":2506:2545   */\n      swap2\n      pop\n        /* \"#utility.yul\":2564:2602   */\n      tag_255\n        /* \"#utility.yul\":2598:2600   */\n      0x20\n        /* \"#utility.yul\":2587:2596   */\n      dup5\n        /* \"#utility.yul\":2583:2601   */\n      add\n        /* \"#utility.yul\":2564:2602   */\n      tag_228\n      jump\t// in\n    tag_255:\n        /* \"#utility.yul\":2554:2602   */\n      swap1\n      pop\n        /* \"#utility.yul\":2348:2608   */\n      swap3\n      pop\n      swap3\n      swap1\n      pop\n      jump\t// out\n        /* \"#utility.yul\":2613:2993   */\n    tag_100:\n        /* \"#utility.yul\":2692:2693   */\n      0x01\n        /* \"#utility.yul\":2688:2700   */\n      dup2\n      dup2\n      shr\n      swap1\n        /* \"#utility.yul\":2735:2747   */\n      dup3\n      and\n      dup1\n        /* \"#utility.yul\":2756:2817   */\n      tag_257\n      jumpi\n        /* \"#utility.yul\":2810:2814   */\n      0x7f\n        /* \"#utility.yul\":2802:2808   */\n      dup3\n        /* \"#utility.yul\":2798:2815   */\n      and\n        /* \"#utility.yul\":2788:2815   */\n      swap2\n      pop\n        /* \"#utility.yul\":2756:2817   */\n    tag_257:\n        /* \"#utility.yul\":2863:2865   */\n      0x20\n        /* \"#utility.yul\":2855:2861   */\n      dup3\n        /* \"#utility.yul\":2852:2866   */\n      lt\n        /* \"#utility.yul\":2832:2850   */\n      dup2\n        /* \"#utility.yul\":2829:2867   */\n      sub\n        /* \"#utility.yul\":2826:2987   */\n      tag_258\n      jumpi\n        /* \"#utility.yul\":2909:2919   */\n      0x4e487b71\n        /* \"#utility.yul\":2904:2907   */\n      0xe0\n        /* \"#utility.yul\":2900:2920   */\n      shl\n        /* \"#utility.yul\":2897:2898   */\n      0x00\n        /* \"#utility.yul\":2890:2921   */\n      mstore\n        /* \"#utility.yul\":2944:2948   */\n      0x22\n        /* \"#utility.yul\":2941:2942   */\n      0x04\n        /* \"#utility.yul\":2934:2949   */\n      mstore\n        /* \"#utility.yul\":2972:2976   */\n      0x24\n        /* \"#utility.yul\":2969:2970   */\n      0x00\n        /* \"#utility.yul\":2962:2977   */\n      revert\n        /* \"#utility.yul\":2826:2987   */\n    tag_258:\n      pop\n        /* \"#utility.yul\":2613:2993   */\n      swap2\n      swap1\n      pop\n      jump\t// out\n        /* \"#utility.yul\":2998:3125   */\n    tag_229:\n        /* \"#utility.yul\":3059:3069   */\n      0x4e487b71\n        /* \"#utility.yul\":3054:3057   */\n      0xe0\n        /* \"#utility.yul\":3050:3070   */\n      shl\n        /* \"#utility.yul\":3047:3048   */\n      0x00\n        /* \"#utility.yul\":3040:3071   */\n      mstore\n        /* \"#utility.yul\":3090:3094   */\n      0x11\n        /* \"#utility.yul\":3087:3088   */\n      0x04\n        /* \"#utility.yul\":3080:3095   */\n      mstore\n        /* \"#utility.yul\":3114:3118   */\n      0x24\n        /* \"#utility.yul\":3111:3112   */\n      0x00\n        /* \"#utility.yul\":3104:3119   */\n      revert\n        /* \"#utility.yul\":3130:3258   */\n    tag_123:\n        /* \"#utility.yul\":3170:3173   */\n      0x00\n        /* \"#utility.yul\":3201:3202   */\n      dup3\n        /* \"#utility.yul\":3197:3203   */\n      not\n        /* \"#utility.yul\":3194:3195   */\n      dup3\n        /* \"#utility.yul\":3191:3204   */\n      gt\n        /* \"#utility.yul\":3188:3227   */\n      iszero\n      tag_262\n      jumpi\n        /* \"#utility.yul\":3207:3225   */\n      tag_262\n      tag_229\n      jump\t// in\n    tag_262:\n      pop\n        /* \"#utility.yul\":3243:3252   */\n      add\n      swap1\n        /* \"#utility.yul\":3130:3258   */\n      jump\t// out\n        /* \"#utility.yul\":7985:8110   */\n    tag_223:\n        /* \"#utility.yul\":8025:8029   */\n      0x00\n        /* \"#utility.yul\":8053:8054   */\n      dup3\n        /* \"#utility.yul\":8050:8051   */\n      dup3\n        /* \"#utility.yul\":8047:8055   */\n      lt\n        /* \"#utility.yul\":8044:8078   */\n      iszero\n      tag_277\n      jumpi\n        /* \"#utility.yul\":8058:8076   */\n      tag_277\n      tag_229\n      jump\t// in\n    tag_277:\n      pop\n        /* \"#utility.yul\":8095:8104   */\n      sub\n      swap1\n        /* \"#utility.yul\":7985:8110   */\n      jump\t// out\n\n    auxdata: 0xa2646970667358221220031c1e489ff1ef010153c482dab3051f3c6c2b4bdcd58e07879fab209799d74464736f6c634300080d0033\n}\n",
				"bytecode": {
					"linkReferences": {},
					"object": "60806040523480156200001157600080fd5b506040518060400160405280600481526020016321a7a4a760e11b8152506040518060400160405280600281526020016121a760f11b81525060096200006662000060620000c960201b60201c565b620000cd565b82516200007b90600490602086019062000205565b5081516200009190600590602085019062000205565b50600655505067016345785d8a0000600755620000c3620000ba6000546001600160a01b031690565b6007546200011d565b6200030e565b3390565b600080546001600160a01b038381166001600160a01b0319831681178455604051919092169283917f8be0079c531659141344cd1fd0a4f28419497f9722a3daafe3b4186f6b6457e09190a35050565b6001600160a01b038216620001785760405162461bcd60e51b815260206004820152601f60248201527f45524332303a206d696e7420746f20746865207a65726f206164647265737300604482015260640160405180910390fd5b80600360008282546200018c9190620002ab565b90915550506001600160a01b03821660009081526001602052604081208054839290620001bb908490620002ab565b90915550506040518181526001600160a01b038316906000907fddf252ad1be2c89b69c2b068fc378daa952ba7f163c4a11628f55a4df523b3ef9060200160405180910390a35050565b8280546200021390620002d2565b90600052602060002090601f01602090048101928262000237576000855562000282565b82601f106200025257805160ff191683800117855562000282565b8280016001018555821562000282579182015b828111156200028257825182559160200191906001019062000265565b506200029092915062000294565b5090565b5b8082111562000290576000815560010162000295565b60008219821115620002cd57634e487b7160e01b600052601160045260246000fd5b500190565b600181811c90821680620002e757607f821691505b6020821081036200030857634e487b7160e01b600052602260045260246000fd5b50919050565b610d6d806200031e6000396000f3fe608060405234801561001057600080fd5b50600436106101215760003560e01c8063715018a6116100ad578063a9059cbb11610071578063a9059cbb14610246578063b45ee9ef14610259578063dd62ed3e1461026c578063e3d670d7146101cc578063f2fde38b1461027f57600080fd5b8063715018a6146101f55780638da5cb5b146101fd57806395d89b41146102185780639dc29fac14610220578063a457c2d71461023357600080fd5b8063313ce567116100f4578063313ce5671461018c578063395093511461019b5780633eaaf86b146101ae57806340c10f19146101b757806370a08231146101cc57600080fd5b806306fdde0314610126578063095ea7b31461014457806318160ddd1461016757806323b872dd14610179575b600080fd5b61012e610292565b60405161013b9190610b8c565b60405180910390f35b610157610152366004610bfd565b610324565b604051901515815260200161013b565b6003545b60405190815260200161013b565b610157610187366004610c27565b61033c565b6040516009815260200161013b565b6101576101a9366004610bfd565b610360565b61016b60075481565b6101ca6101c5366004610bfd565b610382565b005b61016b6101da366004610c63565b6001600160a01b031660009081526001602052604090205490565b6101ca610390565b6000546040516001600160a01b03909116815260200161013b565b61012e6103fb565b6101ca61022e366004610bfd565b61040a565b610157610241366004610bfd565b610414565b610157610254366004610bfd565b61048f565b6101ca610267366004610c27565b61049d565b61016b61027a366004610c85565b6104ad565b6101ca61028d366004610c63565b6104d8565b6060600480546102a190610cb8565b80601f01602080910402602001604051908101604052809291908181526020018280546102cd90610cb8565b801561031a5780601f106102ef5761010080835404028352916020019161031a565b820191906000526020600020905b8154815290600101906020018083116102fd57829003601f168201915b5050505050905090565b6000336103328185856105a3565b5060019392505050565b60003361034a8582856106c7565b610355858585610741565b506001949350505050565b60003361033281858561037383836104ad565b61037d9190610d08565b6105a3565b61038c828261090f565b5050565b6000546001600160a01b031633146103ef5760405162461bcd60e51b815260206004820181905260248201527f4f776e61626c653a2063616c6c6572206973206e6f7420746865206f776e657260448201526064015b60405180910390fd5b6103f960006109ee565b565b6060600580546102a190610cb8565b61038c8282610a3e565b6000338161042282866104ad565b9050838110156104825760405162461bcd60e51b815260206004820152602560248201527f45524332303a2064656372656173656420616c6c6f77616e63652062656c6f77604482015264207a65726f60d81b60648201526084016103e6565b61035582868684036105a3565b600033610332818585610741565b6104a8838383610741565b505050565b6001600160a01b03918216600090815260026020908152604080832093909416825291909152205490565b6000546001600160a01b031633146105325760405162461bcd60e51b815260206004820181905260248201527f4f776e61626c653a2063616c6c6572206973206e6f7420746865206f776e657260448201526064016103e6565b6001600160a01b0381166105975760405162461bcd60e51b815260206004820152602660248201527f4f776e61626c653a206e6577206f776e657220697320746865207a65726f206160448201526564647265737360d01b60648201526084016103e6565b6105a0816109ee565b50565b6001600160a01b0383166106055760405162461bcd60e51b8152602060048201526024808201527f45524332303a20617070726f76652066726f6d20746865207a65726f206164646044820152637265737360e01b60648201526084016103e6565b6001600160a01b0382166106665760405162461bcd60e51b815260206004820152602260248201527f45524332303a20617070726f766520746f20746865207a65726f206164647265604482015261737360f01b60648201526084016103e6565b6001600160a01b0383811660008181526002602090815260408083209487168084529482529182902085905590518481527f8c5be1e5ebec7d5bd14f71427d1e84f3dd0314c0f7b2291e5b200ac8c7c3b925910160405180910390a3505050565b60006106d384846104ad565b9050600019811461073b578181101561072e5760405162461bcd60e51b815260206004820152601d60248201527f45524332303a20696e73756666696369656e7420616c6c6f77616e636500000060448201526064016103e6565b61073b84848484036105a3565b50505050565b6001600160a01b0383166107a55760405162461bcd60e51b815260206004820152602560248201527f45524332303a207472616e736665722066726f6d20746865207a65726f206164604482015264647265737360d81b60648201526084016103e6565b6001600160a01b0382166108075760405162461bcd60e51b815260206004820152602360248201527f45524332303a207472616e7366657220746f20746865207a65726f206164647260448201526265737360e81b60648201526084016103e6565b6001600160a01b0383166000908152600160205260409020548181101561087f5760405162461bcd60e51b815260206004820152602660248201527f45524332303a207472616e7366657220616d6f756e7420657863656564732062604482015265616c616e636560d01b60648201526084016103e6565b6001600160a01b038085166000908152600160205260408082208585039055918516815290812080548492906108b6908490610d08565b92505081905550826001600160a01b0316846001600160a01b03167fddf252ad1be2c89b69c2b068fc378daa952ba7f163c4a11628f55a4df523b3ef8460405161090291815260200190565b60405180910390a361073b565b6001600160a01b0382166109655760405162461bcd60e51b815260206004820152601f60248201527f45524332303a206d696e7420746f20746865207a65726f20616464726573730060448201526064016103e6565b80600360008282546109779190610d08565b90915550506001600160a01b038216600090815260016020526040812080548392906109a4908490610d08565b90915550506040518181526001600160a01b038316906000907fddf252ad1be2c89b69c2b068fc378daa952ba7f163c4a11628f55a4df523b3ef9060200160405180910390a35050565b600080546001600160a01b038381166001600160a01b0319831681178455604051919092169283917f8be0079c531659141344cd1fd0a4f28419497f9722a3daafe3b4186f6b6457e09190a35050565b6001600160a01b038216610a9e5760405162461bcd60e51b815260206004820152602160248201527f45524332303a206275726e2066726f6d20746865207a65726f206164647265736044820152607360f81b60648201526084016103e6565b6001600160a01b03821660009081526001602052604090205481811015610b125760405162461bcd60e51b815260206004820152602260248201527f45524332303a206275726e20616d6f756e7420657863656564732062616c616e604482015261636560f01b60648201526084016103e6565b6001600160a01b0383166000908152600160205260408120838303905560038054849290610b41908490610d20565b90915550506040518281526000906001600160a01b038516907fddf252ad1be2c89b69c2b068fc378daa952ba7f163c4a11628f55a4df523b3ef9060200160405180910390a3505050565b600060208083528351808285015260005b81811015610bb957858101830151858201604001528201610b9d565b81811115610bcb576000604083870101525b50601f01601f1916929092016040019392505050565b80356001600160a01b0381168114610bf857600080fd5b919050565b60008060408385031215610c1057600080fd5b610c1983610be1565b946020939093013593505050565b600080600060608486031215610c3c57600080fd5b610c4584610be1565b9250610c5360208501610be1565b9150604084013590509250925092565b600060208284031215610c7557600080fd5b610c7e82610be1565b9392505050565b60008060408385031215610c9857600080fd5b610ca183610be1565b9150610caf60208401610be1565b90509250929050565b600181811c90821680610ccc57607f821691505b602082108103610cec57634e487b7160e01b600052602260045260246000fd5b50919050565b634e487b7160e01b600052601160045260246000fd5b60008219821115610d1b57610d1b610cf2565b500190565b600082821015610d3257610d32610cf2565b50039056fea2646970667358221220031c1e489ff1ef010153c482dab3051f3c6c2b4bdcd58e07879fab209799d74464736f6c634300080d0033",
					"opcodes": "PUSH1 0x80 PUSH1 0x40 MSTORE CALLVALUE DUP1 ISZERO PUSH3 0x11 JUMPI PUSH1 0x0 DUP1 REVERT JUMPDEST POP PUSH1 0x40 MLOAD DUP1 PUSH1 0x40 ADD PUSH1 0x40 MSTORE DUP1 PUSH1 0x4 DUP2 MSTORE PUSH1 0x20 ADD PUSH4 0x21A7A4A7 PUSH1 0xE1 SHL DUP2 MSTORE POP PUSH1 0x40 MLOAD DUP1 PUSH1 0x40 ADD PUSH1 0x40 MSTORE DUP1 PUSH1 0x2 DUP2 MSTORE PUSH1 0x20 ADD PUSH2 0x21A7 PUSH1 0xF1 SHL DUP2 MSTORE POP PUSH1 0x9 PUSH3 0x66 PUSH3 0x60 PUSH3 0xC9 PUSH1 0x20 SHL PUSH1 0x20 SHR JUMP JUMPDEST PUSH3 0xCD JUMP JUMPDEST DUP3 MLOAD PUSH3 0x7B SWAP1 PUSH1 0x4 SWAP1 PUSH1 0x20 DUP7 ADD SWAP1 PUSH3 0x205 JUMP JUMPDEST POP DUP2 MLOAD PUSH3 0x91 SWAP1 PUSH1 0x5 SWAP1 PUSH1 0x20 DUP6 ADD SWAP1 PUSH3 0x205 JUMP JUMPDEST POP PUSH1 0x6 SSTORE POP POP PUSH8 0x16345785D8A0000 PUSH1 0x7 SSTORE PUSH3 0xC3 PUSH3 0xBA PUSH1 0x0 SLOAD PUSH1 0x1 PUSH1 0x1 PUSH1 0xA0 SHL SUB AND SWAP1 JUMP JUMPDEST PUSH1 0x7 SLOAD PUSH3 0x11D JUMP JUMPDEST PUSH3 0x30E JUMP JUMPDEST CALLER SWAP1 JUMP JUMPDEST PUSH1 0x0 DUP1 SLOAD PUSH1 0x1 PUSH1 0x1 PUSH1 0xA0 SHL SUB DUP4 DUP2 AND PUSH1 0x1 PUSH1 0x1 PUSH1 0xA0 SHL SUB NOT DUP4 AND DUP2 OR DUP5 SSTORE PUSH1 0x40 MLOAD SWAP2 SWAP1 SWAP3 AND SWAP3 DUP4 SWAP2 PUSH32 0x8BE0079C531659141344CD1FD0A4F28419497F9722A3DAAFE3B4186F6B6457E0 SWAP2 SWAP1 LOG3 POP POP JUMP JUMPDEST PUSH1 0x1 PUSH1 0x1 PUSH1 0xA0 SHL SUB DUP3 AND PUSH3 0x178 JUMPI PUSH1 0x40 MLOAD PUSH3 0x461BCD PUSH1 0xE5 SHL DUP2 MSTORE PUSH1 0x20 PUSH1 0x4 DUP3 ADD MSTORE PUSH1 0x1F PUSH1 0x24 DUP3 ADD MSTORE PUSH32 0x45524332303A206D696E7420746F20746865207A65726F206164647265737300 PUSH1 0x44 DUP3 ADD MSTORE PUSH1 0x64 ADD PUSH1 0x40 MLOAD DUP1 SWAP2 SUB SWAP1 REVERT JUMPDEST DUP1 PUSH1 0x3 PUSH1 0x0 DUP3 DUP3 SLOAD PUSH3 0x18C SWAP2 SWAP1 PUSH3 0x2AB JUMP JUMPDEST SWAP1 SWAP2 SSTORE POP POP PUSH1 0x1 PUSH1 0x1 PUSH1 0xA0 SHL SUB DUP3 AND PUSH1 0x0 SWAP1 DUP2 MSTORE PUSH1 0x1 PUSH1 0x20 MSTORE PUSH1 0x40 DUP2 KECCAK256 DUP1 SLOAD DUP4 SWAP3 SWAP1 PUSH3 0x1BB SWAP1 DUP5 SWAP1 PUSH3 0x2AB JUMP JUMPDEST SWAP1 SWAP2 SSTORE POP POP PUSH1 0x40 MLOAD DUP2 DUP2 MSTORE PUSH1 0x1 PUSH1 0x1 PUSH1 0xA0 SHL SUB DUP4 AND SWAP1 PUSH1 0x0 SWAP1 PUSH32 0xDDF252AD1BE2C89B69C2B068FC378DAA952BA7F163C4A11628F55A4DF523B3EF SWAP1 PUSH1 0x20 ADD PUSH1 0x40 MLOAD DUP1 SWAP2 SUB SWAP1 LOG3 POP POP JUMP JUMPDEST DUP3 DUP1 SLOAD PUSH3 0x213 SWAP1 PUSH3 0x2D2 JUMP JUMPDEST SWAP1 PUSH1 0x0 MSTORE PUSH1 0x20 PUSH1 0x0 KECCAK256 SWAP1 PUSH1 0x1F ADD PUSH1 0x20 SWAP1 DIV DUP2 ADD SWAP3 DUP3 PUSH3 0x237 JUMPI PUSH1 0x0 DUP6 SSTORE PUSH3 0x282 JUMP JUMPDEST DUP3 PUSH1 0x1F LT PUSH3 0x252 JUMPI DUP1 MLOAD PUSH1 0xFF NOT AND DUP4 DUP1 ADD OR DUP6 SSTORE PUSH3 0x282 JUMP JUMPDEST DUP3 DUP1 ADD PUSH1 0x1 ADD DUP6 SSTORE DUP3 ISZERO PUSH3 0x282 JUMPI SWAP2 DUP3 ADD JUMPDEST DUP3 DUP2 GT ISZERO PUSH3 0x282 JUMPI DUP3 MLOAD DUP3 SSTORE SWAP2 PUSH1 0x20 ADD SWAP2 SWAP1 PUSH1 0x1 ADD SWAP1 PUSH3 0x265 JUMP JUMPDEST POP PUSH3 0x290 SWAP3 SWAP2 POP PUSH3 0x294 JUMP JUMPDEST POP SWAP1 JUMP JUMPDEST JUMPDEST DUP1 DUP3 GT ISZERO PUSH3 0x290 JUMPI PUSH1 0x0 DUP2 SSTORE PUSH1 0x1 ADD PUSH3 0x295 JUMP JUMPDEST PUSH1 0x0 DUP3 NOT DUP3 GT ISZERO PUSH3 0x2CD JUMPI PUSH4 0x4E487B71 PUSH1 0xE0 SHL PUSH1 0x0 MSTORE PUSH1 0x11 PUSH1 0x4 MSTORE PUSH1 0x24 PUSH1 0x0 REVERT JUMPDEST POP ADD SWAP1 JUMP JUMPDEST PUSH1 0x1 DUP2 DUP2 SHR SWAP1 DUP3 AND DUP1 PUSH3 0x2E7 JUMPI PUSH1 0x7F DUP3 AND SWAP2 POP JUMPDEST PUSH1 0x20 DUP3 LT DUP2 SUB PUSH3 0x308 JUMPI PUSH4 0x4E487B71 PUSH1 0xE0 SHL PUSH1 0x0 MSTORE PUSH1 0x22 PUSH1 0x4 MSTORE PUSH1 0x24 PUSH1 0x0 REVERT JUMPDEST POP SWAP2 SWAP1 POP JUMP JUMPDEST PUSH2 0xD6D DUP1 PUSH3 0x31E PUSH1 0x0 CODECOPY PUSH1 0x0 RETURN INVALID PUSH1 0x80 PUSH1 0x40 MSTORE CALLVALUE DUP1 ISZERO PUSH2 0x10 JUMPI PUSH1 0x0 DUP1 REVERT JUMPDEST POP PUSH1 0x4 CALLDATASIZE LT PUSH2 0x121 JUMPI PUSH1 0x0 CALLDATALOAD PUSH1 0xE0 SHR DUP1 PUSH4 0x715018A6 GT PUSH2 0xAD JUMPI DUP1 PUSH4 0xA9059CBB GT PUSH2 0x71 JUMPI DUP1 PUSH4 0xA9059CBB EQ PUSH2 0x246 JUMPI DUP1 PUSH4 0xB45EE9EF EQ PUSH2 0x259 JUMPI DUP1 PUSH4 0xDD62ED3E EQ PUSH2 0x26C JUMPI DUP1 PUSH4 0xE3D670D7 EQ PUSH2 0x1CC JUMPI DUP1 PUSH4 0xF2FDE38B EQ PUSH2 0x27F JUMPI PUSH1 0x0 DUP1 REVERT JUMPDEST DUP1 PUSH4 0x715018A6 EQ PUSH2 0x1F5 JUMPI DUP1 PUSH4 0x8DA5CB5B EQ PUSH2 0x1FD JUMPI DUP1 PUSH4 0x95D89B41 EQ PUSH2 0x218 JUMPI DUP1 PUSH4 0x9DC29FAC EQ PUSH2 0x220 JUMPI DUP1 PUSH4 0xA457C2D7 EQ PUSH2 0x233 JUMPI PUSH1 0x0 DUP1 REVERT JUMPDEST DUP1 PUSH4 0x313CE567 GT PUSH2 0xF4 JUMPI DUP1 PUSH4 0x313CE567 EQ PUSH2 0x18C JUMPI DUP1 PUSH4 0x39509351 EQ PUSH2 0x19B JUMPI DUP1 PUSH4 0x3EAAF86B EQ PUSH2 0x1AE JUMPI DUP1 PUSH4 0x40C10F19 EQ PUSH2 0x1B7 JUMPI DUP1 PUSH4 0x70A08231 EQ PUSH2 0x1CC JUMPI PUSH1 0x0 DUP1 REVERT JUMPDEST DUP1 PUSH4 0x6FDDE03 EQ PUSH2 0x126 JUMPI DUP1 PUSH4 0x95EA7B3 EQ PUSH2 0x144 JUMPI DUP1 PUSH4 0x18160DDD EQ PUSH2 0x167 JUMPI DUP1 PUSH4 0x23B872DD EQ PUSH2 0x179 JUMPI JUMPDEST PUSH1 0x0 DUP1 REVERT JUMPDEST PUSH2 0x12E PUSH2 0x292 JUMP JUMPDEST PUSH1 0x40 MLOAD PUSH2 0x13B SWAP2 SWAP1 PUSH2 0xB8C JUMP JUMPDEST PUSH1 0x40 MLOAD DUP1 SWAP2 SUB SWAP1 RETURN JUMPDEST PUSH2 0x157 PUSH2 0x152 CALLDATASIZE PUSH1 0x4 PUSH2 0xBFD JUMP JUMPDEST PUSH2 0x324 JUMP JUMPDEST PUSH1 0x40 MLOAD SWAP1 ISZERO ISZERO DUP2 MSTORE PUSH1 0x20 ADD PUSH2 0x13B JUMP JUMPDEST PUSH1 0x3 SLOAD JUMPDEST PUSH1 0x40 MLOAD SWAP1 DUP2 MSTORE PUSH1 0x20 ADD PUSH2 0x13B JUMP JUMPDEST PUSH2 0x157 PUSH2 0x187 CALLDATASIZE PUSH1 0x4 PUSH2 0xC27 JUMP JUMPDEST PUSH2 0x33C JUMP JUMPDEST PUSH1 0x40 MLOAD PUSH1 0x9 DUP2 MSTORE PUSH1 0x20 ADD PUSH2 0x13B JUMP JUMPDEST PUSH2 0x157 PUSH2 0x1A9 CALLDATASIZE PUSH1 0x4 PUSH2 0xBFD JUMP JUMPDEST PUSH2 0x360 JUMP JUMPDEST PUSH2 0x16B PUSH1 0x7 SLOAD DUP2 JUMP JUMPDEST PUSH2 0x1CA PUSH2 0x1C5 CALLDATASIZE PUSH1 0x4 PUSH2 0xBFD JUMP JUMPDEST PUSH2 0x382 JUMP JUMPDEST STOP JUMPDEST PUSH2 0x16B PUSH2 0x1DA CALLDATASIZE PUSH1 0x4 PUSH2 0xC63 JUMP JUMPDEST PUSH1 0x1 PUSH1 0x1 PUSH1 0xA0 SHL SUB AND PUSH1 0x0 SWAP1 DUP2 MSTORE PUSH1 0x1 PUSH1 0x20 MSTORE PUSH1 0x40 SWAP1 KECCAK256 SLOAD SWAP1 JUMP JUMPDEST PUSH2 0x1CA PUSH2 0x390 JUMP JUMPDEST PUSH1 0x0 SLOAD PUSH1 0x40 MLOAD PUSH1 0x1 PUSH1 0x1 PUSH1 0xA0 SHL SUB SWAP1 SWAP2 AND DUP2 MSTORE PUSH1 0x20 ADD PUSH2 0x13B JUMP JUMPDEST PUSH2 0x12E PUSH2 0x3FB JUMP JUMPDEST PUSH2 0x1CA PUSH2 0x22E CALLDATASIZE PUSH1 0x4 PUSH2 0xBFD JUMP JUMPDEST PUSH2 0x40A JUMP JUMPDEST PUSH2 0x157 PUSH2 0x241 CALLDATASIZE PUSH1 0x4 PUSH2 0xBFD JUMP JUMPDEST PUSH2 0x414 JUMP JUMPDEST PUSH2 0x157 PUSH2 0x254 CALLDATASIZE PUSH1 0x4 PUSH2 0xBFD JUMP JUMPDEST PUSH2 0x48F JUMP JUMPDEST PUSH2 0x1CA PUSH2 0x267 CALLDATASIZE PUSH1 0x4 PUSH2 0xC27 JUMP JUMPDEST PUSH2 0x49D JUMP JUMPDEST PUSH2 0x16B PUSH2 0x27A CALLDATASIZE PUSH1 0x4 PUSH2 0xC85 JUMP JUMPDEST PUSH2 0x4AD JUMP JUMPDEST PUSH2 0x1CA PUSH2 0x28D CALLDATASIZE PUSH1 0x4 PUSH2 0xC63 JUMP JUMPDEST PUSH2 0x4D8 JUMP JUMPDEST PUSH1 0x60 PUSH1 0x4 DUP1 SLOAD PUSH2 0x2A1 SWAP1 PUSH2 0xCB8 JUMP JUMPDEST DUP1 PUSH1 0x1F ADD PUSH1 0x20 DUP1 SWAP2 DIV MUL PUSH1 0x20 ADD PUSH1 0x40 MLOAD SWAP1 DUP2 ADD PUSH1 0x40 MSTORE DUP1 SWAP3 SWAP2 SWAP1 DUP2 DUP2 MSTORE PUSH1 0x20 ADD DUP3 DUP1 SLOAD PUSH2 0x2CD SWAP1 PUSH2 0xCB8 JUMP JUMPDEST DUP1 ISZERO PUSH2 0x31A JUMPI DUP1 PUSH1 0x1F LT PUSH2 0x2EF JUMPI PUSH2 0x100 DUP1 DUP4 SLOAD DIV MUL DUP4 MSTORE SWAP2 PUSH1 0x20 ADD SWAP2 PUSH2 0x31A JUMP JUMPDEST DUP3 ADD SWAP2 SWAP1 PUSH1 0x0 MSTORE PUSH1 0x20 PUSH1 0x0 KECCAK256 SWAP1 JUMPDEST DUP2 SLOAD DUP2 MSTORE SWAP1 PUSH1 0x1 ADD SWAP1 PUSH1 0x20 ADD DUP1 DUP4 GT PUSH2 0x2FD JUMPI DUP3 SWAP1 SUB PUSH1 0x1F AND DUP3 ADD SWAP2 JUMPDEST POP POP POP POP POP SWAP1 POP SWAP1 JUMP JUMPDEST PUSH1 0x0 CALLER PUSH2 0x332 DUP2 DUP6 DUP6 PUSH2 0x5A3 JUMP JUMPDEST POP PUSH1 0x1 SWAP4 SWAP3 POP POP POP JUMP JUMPDEST PUSH1 0x0 CALLER PUSH2 0x34A DUP6 DUP3 DUP6 PUSH2 0x6C7 JUMP JUMPDEST PUSH2 0x355 DUP6 DUP6 DUP6 PUSH2 0x741 JUMP JUMPDEST POP PUSH1 0x1 SWAP5 SWAP4 POP POP POP POP JUMP JUMPDEST PUSH1 0x0 CALLER PUSH2 0x332 DUP2 DUP6 DUP6 PUSH2 0x373 DUP4 DUP4 PUSH2 0x4AD JUMP JUMPDEST PUSH2 0x37D SWAP2 SWAP1 PUSH2 0xD08 JUMP JUMPDEST PUSH2 0x5A3 JUMP JUMPDEST PUSH2 0x38C DUP3 DUP3 PUSH2 0x90F JUMP JUMPDEST POP POP JUMP JUMPDEST PUSH1 0x0 SLOAD PUSH1 0x1 PUSH1 0x1 PUSH1 0xA0 SHL SUB AND CALLER EQ PUSH2 0x3EF JUMPI PUSH1 0x40 MLOAD PUSH3 0x461BCD PUSH1 0xE5 SHL DUP2 MSTORE PUSH1 0x20 PUSH1 0x4 DUP3 ADD DUP2 SWAP1 MSTORE PUSH1 0x24 DUP3 ADD MSTORE PUSH32 0x4F776E61626C653A2063616C6C6572206973206E6F7420746865206F776E6572 PUSH1 0x44 DUP3 ADD MSTORE PUSH1 0x64 ADD JUMPDEST PUSH1 0x40 MLOAD DUP1 SWAP2 SUB SWAP1 REVERT JUMPDEST PUSH2 0x3F9 PUSH1 0x0 PUSH2 0x9EE JUMP JUMPDEST JUMP JUMPDEST PUSH1 0x60 PUSH1 0x5 DUP1 SLOAD PUSH2 0x2A1 SWAP1 PUSH2 0xCB8 JUMP JUMPDEST PUSH2 0x38C DUP3 DUP3 PUSH2 0xA3E JUMP JUMPDEST PUSH1 0x0 CALLER DUP2 PUSH2 0x422 DUP3 DUP7 PUSH2 0x4AD JUMP JUMPDEST SWAP1 POP DUP4 DUP2 LT ISZERO PUSH2 0x482 JUMPI PUSH1 0x40 MLOAD PUSH3 0x461BCD PUSH1 0xE5 SHL DUP2 MSTORE PUSH1 0x20 PUSH1 0x4 DUP3 ADD MSTORE PUSH1 0x25 PUSH1 0x24 DUP3 ADD MSTORE PUSH32 0x45524332303A2064656372656173656420616C6C6F77616E63652062656C6F77 PUSH1 0x44 DUP3 ADD MSTORE PUSH5 0x207A65726F PUSH1 0xD8 SHL PUSH1 0x64 DUP3 ADD MSTORE PUSH1 0x84 ADD PUSH2 0x3E6 JUMP JUMPDEST PUSH2 0x355 DUP3 DUP7 DUP7 DUP5 SUB PUSH2 0x5A3 JUMP JUMPDEST PUSH1 0x0 CALLER PUSH2 0x332 DUP2 DUP6 DUP6 PUSH2 0x741 JUMP JUMPDEST PUSH2 0x4A8 DUP4 DUP4 DUP4 PUSH2 0x741 JUMP JUMPDEST POP POP POP JUMP JUMPDEST PUSH1 0x1 PUSH1 0x1 PUSH1 0xA0 SHL SUB SWAP2 DUP3 AND PUSH1 0x0 SWAP1 DUP2 MSTORE PUSH1 0x2 PUSH1 0x20 SWAP1 DUP2 MSTORE PUSH1 0x40 DUP1 DUP4 KECCAK256 SWAP4 SWAP1 SWAP5 AND DUP3 MSTORE SWAP2 SWAP1 SWAP2 MSTORE KECCAK256 SLOAD SWAP1 JUMP JUMPDEST PUSH1 0x0 SLOAD PUSH1 0x1 PUSH1 0x1 PUSH1 0xA0 SHL SUB AND CALLER EQ PUSH2 0x532 JUMPI PUSH1 0x40 MLOAD PUSH3 0x461BCD PUSH1 0xE5 SHL DUP2 MSTORE PUSH1 0x20 PUSH1 0x4 DUP3 ADD DUP2 SWAP1 MSTORE PUSH1 0x24 DUP3 ADD MSTORE PUSH32 0x4F776E61626C653A2063616C6C6572206973206E6F7420746865206F776E6572 PUSH1 0x44 DUP3 ADD MSTORE PUSH1 0x64 ADD PUSH2 0x3E6 JUMP JUMPDEST PUSH1 0x1 PUSH1 0x1 PUSH1 0xA0 SHL SUB DUP2 AND PUSH2 0x597 JUMPI PUSH1 0x40 MLOAD PUSH3 0x461BCD PUSH1 0xE5 SHL DUP2 MSTORE PUSH1 0x20 PUSH1 0x4 DUP3 ADD MSTORE PUSH1 0x26 PUSH1 0x24 DUP3 ADD MSTORE PUSH32 0x4F776E61626C653A206E6577206F776E657220697320746865207A65726F2061 PUSH1 0x44 DUP3 ADD MSTORE PUSH6 0x646472657373 PUSH1 0xD0 SHL PUSH1 0x64 DUP3 ADD MSTORE PUSH1 0x84 ADD PUSH2 0x3E6 JUMP JUMPDEST PUSH2 0x5A0 DUP2 PUSH2 0x9EE JUMP JUMPDEST POP JUMP JUMPDEST PUSH1 0x1 PUSH1 0x1 PUSH1 0xA0 SHL SUB DUP4 AND PUSH2 0x605 JUMPI PUSH1 0x40 MLOAD PUSH3 0x461BCD PUSH1 0xE5 SHL DUP2 MSTORE PUSH1 0x20 PUSH1 0x4 DUP3 ADD MSTORE PUSH1 0x24 DUP1 DUP3 ADD MSTORE PUSH32 0x45524332303A20617070726F76652066726F6D20746865207A65726F20616464 PUSH1 0x44 DUP3 ADD MSTORE PUSH4 0x72657373 PUSH1 0xE0 SHL PUSH1 0x64 DUP3 ADD MSTORE PUSH1 0x84 ADD PUSH2 0x3E6 JUMP JUMPDEST PUSH1 0x1 PUSH1 0x1 PUSH1 0xA0 SHL SUB DUP3 AND PUSH2 0x666 JUMPI PUSH1 0x40 MLOAD PUSH3 0x461BCD PUSH1 0xE5 SHL DUP2 MSTORE PUSH1 0x20 PUSH1 0x4 DUP3 ADD MSTORE PUSH1 0x22 PUSH1 0x24 DUP3 ADD MSTORE PUSH32 0x45524332303A20617070726F766520746F20746865207A65726F206164647265 PUSH1 0x44 DUP3 ADD MSTORE PUSH2 0x7373 PUSH1 0xF0 SHL PUSH1 0x64 DUP3 ADD MSTORE PUSH1 0x84 ADD PUSH2 0x3E6 JUMP JUMPDEST PUSH1 0x1 PUSH1 0x1 PUSH1 0xA0 SHL SUB DUP4 DUP2 AND PUSH1 0x0 DUP2 DUP2 MSTORE PUSH1 0x2 PUSH1 0x20 SWAP1 DUP2 MSTORE PUSH1 0x40 DUP1 DUP4 KECCAK256 SWAP5 DUP8 AND DUP1 DUP5 MSTORE SWAP5 DUP3 MSTORE SWAP2 DUP3 SWAP1 KECCAK256 DUP6 SWAP1 SSTORE SWAP1 MLOAD DUP5 DUP2 MSTORE PUSH32 0x8C5BE1E5EBEC7D5BD14F71427D1E84F3DD0314C0F7B2291E5B200AC8C7C3B925 SWAP2 ADD PUSH1 0x40 MLOAD DUP1 SWAP2 SUB SWAP1 LOG3 POP POP POP JUMP JUMPDEST PUSH1 0x0 PUSH2 0x6D3 DUP5 DUP5 PUSH2 0x4AD JUMP JUMPDEST SWAP1 POP PUSH1 0x0 NOT DUP2 EQ PUSH2 0x73B JUMPI DUP2 DUP2 LT ISZERO PUSH2 0x72E JUMPI PUSH1 0x40 MLOAD PUSH3 0x461BCD PUSH1 0xE5 SHL DUP2 MSTORE PUSH1 0x20 PUSH1 0x4 DUP3 ADD MSTORE PUSH1 0x1D PUSH1 0x24 DUP3 ADD MSTORE PUSH32 0x45524332303A20696E73756666696369656E7420616C6C6F77616E6365000000 PUSH1 0x44 DUP3 ADD MSTORE PUSH1 0x64 ADD PUSH2 0x3E6 JUMP JUMPDEST PUSH2 0x73B DUP5 DUP5 DUP5 DUP5 SUB PUSH2 0x5A3 JUMP JUMPDEST POP POP POP POP JUMP JUMPDEST PUSH1 0x1 PUSH1 0x1 PUSH1 0xA0 SHL SUB DUP4 AND PUSH2 0x7A5 JUMPI PUSH1 0x40 MLOAD PUSH3 0x461BCD PUSH1 0xE5 SHL DUP2 MSTORE PUSH1 0x20 PUSH1 0x4 DUP3 ADD MSTORE PUSH1 0x25 PUSH1 0x24 DUP3 ADD MSTORE PUSH32 0x45524332303A207472616E736665722066726F6D20746865207A65726F206164 PUSH1 0x44 DUP3 ADD MSTORE PUSH5 0x6472657373 PUSH1 0xD8 SHL PUSH1 0x64 DUP3 ADD MSTORE PUSH1 0x84 ADD PUSH2 0x3E6 JUMP JUMPDEST PUSH1 0x1 PUSH1 0x1 PUSH1 0xA0 SHL SUB DUP3 AND PUSH2 0x807 JUMPI PUSH1 0x40 MLOAD PUSH3 0x461BCD PUSH1 0xE5 SHL DUP2 MSTORE PUSH1 0x20 PUSH1 0x4 DUP3 ADD MSTORE PUSH1 0x23 PUSH1 0x24 DUP3 ADD MSTORE PUSH32 0x45524332303A207472616E7366657220746F20746865207A65726F2061646472 PUSH1 0x44 DUP3 ADD MSTORE PUSH3 0x657373 PUSH1 0xE8 SHL PUSH1 0x64 DUP3 ADD MSTORE PUSH1 0x84 ADD PUSH2 0x3E6 JUMP JUMPDEST PUSH1 0x1 PUSH1 0x1 PUSH1 0xA0 SHL SUB DUP4 AND PUSH1 0x0 SWAP1 DUP2 MSTORE PUSH1 0x1 PUSH1 0x20 MSTORE PUSH1 0x40 SWAP1 KECCAK256 SLOAD DUP2 DUP2 LT ISZERO PUSH2 0x87F JUMPI PUSH1 0x40 MLOAD PUSH3 0x461BCD PUSH1 0xE5 SHL DUP2 MSTORE PUSH1 0x20 PUSH1 0x4 DUP3 ADD MSTORE PUSH1 0x26 PUSH1 0x24 DUP3 ADD MSTORE PUSH32 0x45524332303A207472616E7366657220616D6F756E7420657863656564732062 PUSH1 0x44 DUP3 ADD MSTORE PUSH6 0x616C616E6365 PUSH1 0xD0 SHL PUSH1 0x64 DUP3 ADD MSTORE PUSH1 0x84 ADD PUSH2 0x3E6 JUMP JUMPDEST PUSH1 0x1 PUSH1 0x1 PUSH1 0xA0 SHL SUB DUP1 DUP6 AND PUSH1 0x0 SWAP1 DUP2 MSTORE PUSH1 0x1 PUSH1 0x20 MSTORE PUSH1 0x40 DUP1 DUP3 KECCAK256 DUP6 DUP6 SUB SWAP1 SSTORE SWAP2 DUP6 AND DUP2 MSTORE SWAP1 DUP2 KECCAK256 DUP1 SLOAD DUP5 SWAP3 SWAP1 PUSH2 0x8B6 SWAP1 DUP5 SWAP1 PUSH2 0xD08 JUMP JUMPDEST SWAP3 POP POP DUP2 SWAP1 SSTORE POP DUP3 PUSH1 0x1 PUSH1 0x1 PUSH1 0xA0 SHL SUB AND DUP5 PUSH1 0x1 PUSH1 0x1 PUSH1 0xA0 SHL SUB AND PUSH32 0xDDF252AD1BE2C89B69C2B068FC378DAA952BA7F163C4A11628F55A4DF523B3EF DUP5 PUSH1 0x40 MLOAD PUSH2 0x902 SWAP2 DUP2 MSTORE PUSH1 0x20 ADD SWAP1 JUMP JUMPDEST PUSH1 0x40 MLOAD DUP1 SWAP2 SUB SWAP1 LOG3 PUSH2 0x73B JUMP JUMPDEST PUSH1 0x1 PUSH1 0x1 PUSH1 0xA0 SHL SUB DUP3 AND PUSH2 0x965 JUMPI PUSH1 0x40 MLOAD PUSH3 0x461BCD PUSH1 0xE5 SHL DUP2 MSTORE PUSH1 0x20 PUSH1 0x4 DUP3 ADD MSTORE PUSH1 0x1F PUSH1 0x24 DUP3 ADD MSTORE PUSH32 0x45524332303A206D696E7420746F20746865207A65726F206164647265737300 PUSH1 0x44 DUP3 ADD MSTORE PUSH1 0x64 ADD PUSH2 0x3E6 JUMP JUMPDEST DUP1 PUSH1 0x3 PUSH1 0x0 DUP3 DUP3 SLOAD PUSH2 0x977 SWAP2 SWAP1 PUSH2 0xD08 JUMP JUMPDEST SWAP1 SWAP2 SSTORE POP POP PUSH1 0x1 PUSH1 0x1 PUSH1 0xA0 SHL SUB DUP3 AND PUSH1 0x0 SWAP1 DUP2 MSTORE PUSH1 0x1 PUSH1 0x20 MSTORE PUSH1 0x40 DUP2 KECCAK256 DUP1 SLOAD DUP4 SWAP3 SWAP1 PUSH2 0x9A4 SWAP1 DUP5 SWAP1 PUSH2 0xD08 JUMP JUMPDEST SWAP1 SWAP2 SSTORE POP POP PUSH1 0x40 MLOAD DUP2 DUP2 MSTORE PUSH1 0x1 PUSH1 0x1 PUSH1 0xA0 SHL SUB DUP4 AND SWAP1 PUSH1 0x0 SWAP1 PUSH32 0xDDF252AD1BE2C89B69C2B068FC378DAA952BA7F163C4A11628F55A4DF523B3EF SWAP1 PUSH1 0x20 ADD PUSH1 0x40 MLOAD DUP1 SWAP2 SUB SWAP1 LOG3 POP POP JUMP JUMPDEST PUSH1 0x0 DUP1 SLOAD PUSH1 0x1 PUSH1 0x1 PUSH1 0xA0 SHL SUB DUP4 DUP2 AND PUSH1 0x1 PUSH1 0x1 PUSH1 0xA0 SHL SUB NOT DUP4 AND DUP2 OR DUP5 SSTORE PUSH1 0x40 MLOAD SWAP2 SWAP1 SWAP3 AND SWAP3 DUP4 SWAP2 PUSH32 0x8BE0079C531659141344CD1FD0A4F28419497F9722A3DAAFE3B4186F6B6457E0 SWAP2 SWAP1 LOG3 POP POP JUMP JUMPDEST PUSH1 0x1 PUSH1 0x1 PUSH1 0xA0 SHL SUB DUP3 AND PUSH2 0xA9E JUMPI PUSH1 0x40 MLOAD PUSH3 0x461BCD PUSH1 0xE5 SHL DUP2 MSTORE PUSH1 0x20 PUSH1 0x4 DUP3 ADD MSTORE PUSH1 0x21 PUSH1 0x24 DUP3 ADD MSTORE PUSH32 0x45524332303A206275726E2066726F6D20746865207A65726F20616464726573 PUSH1 0x44 DUP3 ADD MSTORE PUSH1 0x73 PUSH1 0xF8 SHL PUSH1 0x64 DUP3 ADD MSTORE PUSH1 0x84 ADD PUSH2 0x3E6 JUMP JUMPDEST PUSH1 0x1 PUSH1 0x1 PUSH1 0xA0 SHL SUB DUP3 AND PUSH1 0x0 SWAP1 DUP2 MSTORE PUSH1 0x1 PUSH1 0x20 MSTORE PUSH1 0x40 SWAP1 KECCAK256 SLOAD DUP2 DUP2 LT ISZERO PUSH2 0xB12 JUMPI PUSH1 0x40 MLOAD PUSH3 0x461BCD PUSH1 0xE5 SHL DUP2 MSTORE PUSH1 0x20 PUSH1 0x4 DUP3 ADD MSTORE PUSH1 0x22 PUSH1 0x24 DUP3 ADD MSTORE PUSH32 0x45524332303A206275726E20616D6F756E7420657863656564732062616C616E PUSH1 0x44 DUP3 ADD MSTORE PUSH2 0x6365 PUSH1 0xF0 SHL PUSH1 0x64 DUP3 ADD MSTORE PUSH1 0x84 ADD PUSH2 0x3E6 JUMP JUMPDEST PUSH1 0x1 PUSH1 0x1 PUSH1 0xA0 SHL SUB DUP4 AND PUSH1 0x0 SWAP1 DUP2 MSTORE PUSH1 0x1 PUSH1 0x20 MSTORE PUSH1 0x40 DUP2 KECCAK256 DUP4 DUP4 SUB SWAP1 SSTORE PUSH1 0x3 DUP1 SLOAD DUP5 SWAP3 SWAP1 PUSH2 0xB41 SWAP1 DUP5 SWAP1 PUSH2 0xD20 JUMP JUMPDEST SWAP1 SWAP2 SSTORE POP POP PUSH1 0x40 MLOAD DUP3 DUP2 MSTORE PUSH1 0x0 SWAP1 PUSH1 0x1 PUSH1 0x1 PUSH1 0xA0 SHL SUB DUP6 AND SWAP1 PUSH32 0xDDF252AD1BE2C89B69C2B068FC378DAA952BA7F163C4A11628F55A4DF523B3EF SWAP1 PUSH1 0x20 ADD PUSH1 0x40 MLOAD DUP1 SWAP2 SUB SWAP1 LOG3 POP POP POP JUMP JUMPDEST PUSH1 0x0 PUSH1 0x20 DUP1 DUP4 MSTORE DUP4 MLOAD DUP1 DUP3 DUP6 ADD MSTORE PUSH1 0x0 JUMPDEST DUP2 DUP2 LT ISZERO PUSH2 0xBB9 JUMPI DUP6 DUP2 ADD DUP4 ADD MLOAD DUP6 DUP3 ADD PUSH1 0x40 ADD MSTORE DUP3 ADD PUSH2 0xB9D JUMP JUMPDEST DUP2 DUP2 GT ISZERO PUSH2 0xBCB JUMPI PUSH1 0x0 PUSH1 0x40 DUP4 DUP8 ADD ADD MSTORE JUMPDEST POP PUSH1 0x1F ADD PUSH1 0x1F NOT AND SWAP3 SWAP1 SWAP3 ADD PUSH1 0x40 ADD SWAP4 SWAP3 POP POP POP JUMP JUMPDEST DUP1 CALLDATALOAD PUSH1 0x1 PUSH1 0x1 PUSH1 0xA0 SHL SUB DUP2 AND DUP2 EQ PUSH2 0xBF8 JUMPI PUSH1 0x0 DUP1 REVERT JUMPDEST SWAP2 SWAP1 POP JUMP JUMPDEST PUSH1 0x0 DUP1 PUSH1 0x40 DUP4 DUP6 SUB SLT ISZERO PUSH2 0xC10 JUMPI PUSH1 0x0 DUP1 REVERT JUMPDEST PUSH2 0xC19 DUP4 PUSH2 0xBE1 JUMP JUMPDEST SWAP5 PUSH1 0x20 SWAP4 SWAP1 SWAP4 ADD CALLDATALOAD SWAP4 POP POP POP JUMP JUMPDEST PUSH1 0x0 DUP1 PUSH1 0x0 PUSH1 0x60 DUP5 DUP7 SUB SLT ISZERO PUSH2 0xC3C JUMPI PUSH1 0x0 DUP1 REVERT JUMPDEST PUSH2 0xC45 DUP5 PUSH2 0xBE1 JUMP JUMPDEST SWAP3 POP PUSH2 0xC53 PUSH1 0x20 DUP6 ADD PUSH2 0xBE1 JUMP JUMPDEST SWAP2 POP PUSH1 0x40 DUP5 ADD CALLDATALOAD SWAP1 POP SWAP3 POP SWAP3 POP SWAP3 JUMP JUMPDEST PUSH1 0x0 PUSH1 0x20 DUP3 DUP5 SUB SLT ISZERO PUSH2 0xC75 JUMPI PUSH1 0x0 DUP1 REVERT JUMPDEST PUSH2 0xC7E DUP3 PUSH2 0xBE1 JUMP JUMPDEST SWAP4 SWAP3 POP POP POP JUMP JUMPDEST PUSH1 0x0 DUP1 PUSH1 0x40 DUP4 DUP6 SUB SLT ISZERO PUSH2 0xC98 JUMPI PUSH1 0x0 DUP1 REVERT JUMPDEST PUSH2 0xCA1 DUP4 PUSH2 0xBE1 JUMP JUMPDEST SWAP2 POP PUSH2 0xCAF PUSH1 0x20 DUP5 ADD PUSH2 0xBE1 JUMP JUMPDEST SWAP1 POP SWAP3 POP SWAP3 SWAP1 POP JUMP JUMPDEST PUSH1 0x1 DUP2 DUP2 SHR SWAP1 DUP3 AND DUP1 PUSH2 0xCCC JUMPI PUSH1 0x7F DUP3 AND SWAP2 POP JUMPDEST PUSH1 0x20 DUP3 LT DUP2 SUB PUSH2 0xCEC JUMPI PUSH4 0x4E487B71 PUSH1 0xE0 SHL PUSH1 0x0 MSTORE PUSH1 0x22 PUSH1 0x4 MSTORE PUSH1 0x24 PUSH1 0x0 REVERT JUMPDEST POP SWAP2 SWAP1 POP JUMP JUMPDEST PUSH4 0x4E487B71 PUSH1 0xE0 SHL PUSH1 0x0 MSTORE PUSH1 0x11 PUSH1 0x4 MSTORE PUSH1 0x24 PUSH1 0x0 REVERT JUMPDEST PUSH1 0x0 DUP3 NOT DUP3 GT ISZERO PUSH2 0xD1B JUMPI PUSH2 0xD1B PUSH2 0xCF2 JUMP JUMPDEST POP ADD SWAP1 JUMP JUMPDEST PUSH1 0x0 DUP3 DUP3 LT ISZERO PUSH2 0xD32 JUMPI PUSH2 0xD32 PUSH2 0xCF2 JUMP JUMPDEST POP SUB SWAP1 JUMP INVALID LOG2 PUSH5 0x6970667358 0x22 SLT KECCAK256 SUB SHR 0x1E BASEFEE SWAP16 CALL 0xEF ADD ADD MSTORE8 0xC4 DUP3 0xDA 0xB3 SDIV 0x1F EXTCODECOPY PUSH13 0x2B4BDCD58E07879FAB209799D7 DIFFICULTY PUSH5 0x736F6C6343 STOP ADDMOD 0xD STOP CALLER "
				},
				"gasEstimates": {
					"creation": {
						"codeDepositCost": "687400",
						"executionCost": "infinite",
						"totalCost": "infinite"
					},
					"external": {
						"_totalSupply()": "2362",
						"allowance(address,address)": "infinite",
						"approve(address,uint256)": "24647",
						"balance(address)": "2625",
						"balanceOf(address)": "2648",
						"burn(address,uint256)": "51037",
						"decimals()": "200",
						"decreaseAllowance(address,uint256)": "27061",
						"increaseAllowance(address,uint256)": "27023",
						"mint(address,uint256)": "infinite",
						"name()": "infinite",
						"owner()": "2346",
						"renounceOwnership()": "28137",
						"symbol()": "infinite",
						"totalSupply()": "2349",
						"transfer(address,uint256)": "51198",
						"transferFrom(address,address,uint256)": "infinite",
						"transferOwnership(address)": "28419",
						"transferPrice(address,address,uint256)": "infinite"
					}
				},
				"methodIdentifiers": {
					"_totalSupply()": "3eaaf86b",
					"allowance(address,address)": "dd62ed3e",
					"approve(address,uint256)": "095ea7b3",
					"balance(address)": "e3d670d7",
					"balanceOf(address)": "70a08231",
					"burn(address,uint256)": "9dc29fac",
					"decimals()": "313ce567",
					"decreaseAllowance(address,uint256)": "a457c2d7",
					"increaseAllowance(address,uint256)": "39509351",
					"mint(address,uint256)": "40c10f19",
					"name()": "06fdde03",
					"owner()": "8da5cb5b",
					"renounceOwnership()": "715018a6",
					"symbol()": "95d89b41",
					"totalSupply()": "18160ddd",
					"transfer(address,uint256)": "a9059cbb",
					"transferFrom(address,address,uint256)": "23b872dd",
					"transferOwnership(address)": "f2fde38b",
					"transferPrice(address,address,uint256)": "b45ee9ef"
				}
			},
			"storageLayout": {
				"storage": [
					{
						"astId": 714,
						"contract": "smartContract_flat.sol:Token",
						"label": "_owner",
						"offset": 0,
						"slot": "0",
						"type": "t_address"
					},
					{
						"astId": 131,
						"contract": "smartContract_flat.sol:Token",
						"label": "_balances",
						"offset": 0,
						"slot": "1",
						"type": "t_mapping(t_address,t_uint256)"
					},
					{
						"astId": 137,
						"contract": "smartContract_flat.sol:Token",
						"label": "_allowances",
						"offset": 0,
						"slot": "2",
						"type": "t_mapping(t_address,t_mapping(t_address,t_uint256))"
					},
					{
						"astId": 139,
						"contract": "smartContract_flat.sol:Token",
						"label": "_totalSupply",
						"offset": 0,
						"slot": "3",
						"type": "t_uint256"
					},
					{
						"astId": 141,
						"contract": "smartContract_flat.sol:Token",
						"label": "_name",
						"offset": 0,
						"slot": "4",
						"type": "t_string_storage"
					},
					{
						"astId": 143,
						"contract": "smartContract_flat.sol:Token",
						"label": "_symbol",
						"offset": 0,
						"slot": "5",
						"type": "t_string_storage"
					},
					{
						"astId": 145,
						"contract": "smartContract_flat.sol:Token",
						"label": "_decimal",
						"offset": 0,
						"slot": "6",
						"type": "t_uint256"
					},
					{
						"astId": 817,
						"contract": "smartContract_flat.sol:Token",
						"label": "_totalSupply",
						"offset": 0,
						"slot": "7",
						"type": "t_uint256"
					}
				],
				"types": {
					"t_address": {
						"encoding": "inplace",
						"label": "address",
						"numberOfBytes": "20"
					},
					"t_mapping(t_address,t_mapping(t_address,t_uint256))": {
						"encoding": "mapping",
						"key": "t_address",
						"label": "mapping(address => mapping(address => uint256))",
						"numberOfBytes": "32",
						"value": "t_mapping(t_address,t_uint256)"
					},
					"t_mapping(t_address,t_uint256)": {
						"encoding": "mapping",
						"key": "t_address",
						"label": "mapping(address => uint256)",
						"numberOfBytes": "32",
						"value": "t_uint256"
					},
					"t_string_storage": {
						"encoding": "bytes",
						"label": "string",
						"numberOfBytes": "32"
					},
					"t_uint256": {
						"encoding": "inplace",
						"label": "uint256",
						"numberOfBytes": "32"
					}
				}
			},
			"userdoc": {
				"kind": "user",
				"methods": {},
				"version": 1
			}
		}
	}
}