{
	"smartContract_flat.sol": {
		"smartContract": {
			"abi": [
				{
					"anonymous": false,
					"inputs": [
						{
							"indexed": true,
							"internalType": "address",
							"name": "previousOwner",
							"type": "address"
						},
						{
							"indexed": true,
							"internalType": "address",
							"name": "newOwner",
							"type": "address"
						}
					],
					"name": "OwnershipTransferred",
					"type": "event"
				},
				{
					"inputs": [],
					"name": "AdminAddress",
					"outputs": [
						{
							"internalType": "address",
							"name": "",
							"type": "address"
						}
					],
					"stateMutability": "view",
					"type": "function"
				},
				{
					"inputs": [],
					"name": "Coin",
					"outputs": [
						{
							"internalType": "contract Token",
							"name": "",
							"type": "address"
						}
					],
					"stateMutability": "view",
					"type": "function"
				},
				{
					"inputs": [
						{
							"internalType": "uint256",
							"name": "id",
							"type": "uint256"
						}
					],
					"name": "buyInformation",
					"outputs": [
						{
							"internalType": "uint256",
							"name": "ID",
							"type": "uint256"
						},
						{
							"internalType": "uint256",
							"name": "buyTime",
							"type": "uint256"
						},
						{
							"internalType": "uint256",
							"name": "purchaseToken",
							"type": "uint256"
						},
						{
							"internalType": "uint256",
							"name": "ownerSurplus",
							"type": "uint256"
						},
						{
							"internalType": "uint256",
							"name": "BNBchargedByAdmin",
							"type": "uint256"
						}
					],
					"stateMutability": "view",
					"type": "function"
				},
				{
					"inputs": [
						{
							"internalType": "uint256",
							"name": "amount",
							"type": "uint256"
						}
					],
					"name": "buyToken",
					"outputs": [],
					"stateMutability": "payable",
					"type": "function"
				},
				{
					"inputs": [
						{
							"internalType": "address",
							"name": "user",
							"type": "address"
						}
					],
					"name": "getIdsOfUser",
					"outputs": [
						{
							"internalType": "uint256[]",
							"name": "",
							"type": "uint256[]"
						}
					],
					"stateMutability": "view",
					"type": "function"
				},
				{
					"inputs": [
						{
							"internalType": "contract Token",
							"name": "_Coin",
							"type": "address"
						},
						{
							"internalType": "address",
							"name": "_adminAddress",
							"type": "address"
						},
						{
							"internalType": "uint256",
							"name": "amount",
							"type": "uint256"
						}
					],
					"name": "initialize",
					"outputs": [],
					"stateMutability": "nonpayable",
					"type": "function"
				},
				{
					"inputs": [],
					"name": "initialized",
					"outputs": [
						{
							"internalType": "bool",
							"name": "",
							"type": "bool"
						}
					],
					"stateMutability": "view",
					"type": "function"
				},
				{
					"inputs": [],
					"name": "owner",
					"outputs": [
						{
							"internalType": "address",
							"name": "",
							"type": "address"
						}
					],
					"stateMutability": "view",
					"type": "function"
				},
				{
					"inputs": [],
					"name": "renounceOwnership",
					"outputs": [],
					"stateMutability": "nonpayable",
					"type": "function"
				},
				{
					"inputs": [
						{
							"internalType": "address",
							"name": "_admin",
							"type": "address"
						}
					],
					"name": "setAdminAddress",
					"outputs": [],
					"stateMutability": "nonpayable",
					"type": "function"
				},
				{
					"inputs": [],
					"name": "totalInvesters",
					"outputs": [
						{
							"internalType": "uint256",
							"name": "",
							"type": "uint256"
						}
					],
					"stateMutability": "view",
					"type": "function"
				},
				{
					"inputs": [
						{
							"internalType": "address",
							"name": "newOwner",
							"type": "address"
						}
					],
					"name": "transferOwnership",
					"outputs": [],
					"stateMutability": "nonpayable",
					"type": "function"
				}
			],
			"devdoc": {
				"kind": "dev",
				"methods": {
					"owner()": {
						"details": "Returns the address of the current owner."
					},
					"renounceOwnership()": {
						"details": "Leaves the contract without owner. It will not be possible to call `onlyOwner` functions anymore. Can only be called by the current owner. NOTE: Renouncing ownership will leave the contract without an owner, thereby removing any functionality that is only available to the owner."
					},
					"transferOwnership(address)": {
						"details": "Transfers ownership of the contract to a new account (`newOwner`). Can only be called by the current owner."
					}
				},
				"version": 1
			},
			"evm": {
				"assembly": "    /* \"smartContract_flat.sol\":28479:31369  contract smartContract is Ownable {... */\n  mstore(0x40, 0x80)\n  callvalue\n  dup1\n  iszero\n  tag_1\n  jumpi\n  0x00\n  dup1\n  revert\ntag_1:\n  pop\n    /* \"smartContract_flat.sol\":18915:18947  _transferOwnership(_msgSender()) */\n  tag_4\n    /* \"smartContract_flat.sol\":18934:18946  _msgSender() */\n  tag_5\n    /* \"smartContract_flat.sol\":18934:18944  _msgSender */\n  shl(0x20, tag_6)\n    /* \"smartContract_flat.sol\":18934:18946  _msgSender() */\n  0x20\n  shr\n  jump\t// in\ntag_5:\n    /* \"smartContract_flat.sol\":18915:18933  _transferOwnership */\n  shl(0x20, tag_7)\n    /* \"smartContract_flat.sol\":18915:18947  _transferOwnership(_msgSender()) */\n  0x20\n  shr\n  jump\t// in\ntag_4:\n    /* \"smartContract_flat.sol\":28479:31369  contract smartContract is Ownable {... */\n  jump(tag_8)\n    /* \"smartContract_flat.sol\":4341:4439  function _msgSender() internal view virtual returns (address) {... */\ntag_6:\n    /* \"smartContract_flat.sol\":4394:4401  address */\n  0x00\n    /* \"smartContract_flat.sol\":4421:4431  msg.sender */\n  caller\n    /* \"smartContract_flat.sol\":4414:4431  return msg.sender */\n  swap1\n  pop\n    /* \"smartContract_flat.sol\":4341:4439  function _msgSender() internal view virtual returns (address) {... */\n  swap1\n  jump\t// out\n    /* \"smartContract_flat.sol\":20343:20534  function _transferOwnership(address newOwner) internal virtual {... */\ntag_7:\n    /* \"smartContract_flat.sol\":20417:20433  address oldOwner */\n  0x00\n    /* \"smartContract_flat.sol\":20436:20442  _owner */\n  dup1\n  0x00\n  swap1\n  sload\n  swap1\n  0x0100\n  exp\n  swap1\n  div\n  0xffffffffffffffffffffffffffffffffffffffff\n  and\n    /* \"smartContract_flat.sol\":20417:20442  address oldOwner = _owner */\n  swap1\n  pop\n    /* \"smartContract_flat.sol\":20462:20470  newOwner */\n  dup2\n    /* \"smartContract_flat.sol\":20453:20459  _owner */\n  0x00\n  dup1\n    /* \"smartContract_flat.sol\":20453:20470  _owner = newOwner */\n  0x0100\n  exp\n  dup2\n  sload\n  dup2\n  0xffffffffffffffffffffffffffffffffffffffff\n  mul\n  not\n  and\n  swap1\n  dup4\n  0xffffffffffffffffffffffffffffffffffffffff\n  and\n  mul\n  or\n  swap1\n  sstore\n  pop\n    /* \"smartContract_flat.sol\":20517:20525  newOwner */\n  dup2\n    /* \"smartContract_flat.sol\":20486:20526  OwnershipTransferred(oldOwner, newOwner) */\n  0xffffffffffffffffffffffffffffffffffffffff\n  and\n    /* \"smartContract_flat.sol\":20507:20515  oldOwner */\n  dup2\n    /* \"smartContract_flat.sol\":20486:20526  OwnershipTransferred(oldOwner, newOwner) */\n  0xffffffffffffffffffffffffffffffffffffffff\n  and\n  0x8be0079c531659141344cd1fd0a4f28419497f9722a3daafe3b4186f6b6457e0\n  mload(0x40)\n  mload(0x40)\n  dup1\n  swap2\n  sub\n  swap1\n  log3\n    /* \"smartContract_flat.sol\":20406:20534  {... */\n  pop\n    /* \"smartContract_flat.sol\":20343:20534  function _transferOwnership(address newOwner) internal virtual {... */\n  pop\n  jump\t// out\n    /* \"smartContract_flat.sol\":28479:31369  contract smartContract is Ownable {... */\ntag_8:\n  dataSize(sub_0)\n  dup1\n  dataOffset(sub_0)\n  0x00\n  codecopy\n  0x00\n  return\nstop\n\nsub_0: assembly {\n        /* \"smartContract_flat.sol\":28479:31369  contract smartContract is Ownable {... */\n      mstore(0x40, 0x80)\n      jumpi(tag_1, lt(calldatasize, 0x04))\n      shr(0xe0, calldataload(0x00))\n      dup1\n      0x5f4fd1f7\n      gt\n      tag_14\n      jumpi\n      dup1\n      0x5f4fd1f7\n      eq\n      tag_8\n      jumpi\n      dup1\n      0x715018a6\n      eq\n      tag_9\n      jumpi\n      dup1\n      0x8da5cb5b\n      eq\n      tag_10\n      jumpi\n      dup1\n      0xa77b2e37\n      eq\n      tag_11\n      jumpi\n      dup1\n      0xaf0afec9\n      eq\n      tag_12\n      jumpi\n      dup1\n      0xf2fde38b\n      eq\n      tag_13\n      jumpi\n      jump(tag_1)\n    tag_14:\n      dup1\n      0x158ef93e\n      eq\n      tag_2\n      jumpi\n      dup1\n      0x1794bb3c\n      eq\n      tag_3\n      jumpi\n      dup1\n      0x28f661e3\n      eq\n      tag_4\n      jumpi\n      dup1\n      0x29e78c82\n      eq\n      tag_5\n      jumpi\n      dup1\n      0x2c1e816d\n      eq\n      tag_6\n      jumpi\n      dup1\n      0x2d296bf1\n      eq\n      tag_7\n      jumpi\n    tag_1:\n      0x00\n      dup1\n      revert\n        /* \"smartContract_flat.sol\":28636:28659  bool public initialized */\n    tag_2:\n      callvalue\n      dup1\n      iszero\n      tag_15\n      jumpi\n      0x00\n      dup1\n      revert\n    tag_15:\n      pop\n      tag_16\n      tag_17\n      jump\t// in\n    tag_16:\n      mload(0x40)\n      tag_18\n      swap2\n      swap1\n      tag_19\n      jump\t// in\n    tag_18:\n      mload(0x40)\n      dup1\n      swap2\n      sub\n      swap1\n      return\n        /* \"smartContract_flat.sol\":28978:29339  function initialize(... */\n    tag_3:\n      callvalue\n      dup1\n      iszero\n      tag_20\n      jumpi\n      0x00\n      dup1\n      revert\n    tag_20:\n      pop\n      tag_21\n      0x04\n      dup1\n      calldatasize\n      sub\n      dup2\n      add\n      swap1\n      tag_22\n      swap2\n      swap1\n      tag_23\n      jump\t// in\n    tag_22:\n      tag_24\n      jump\t// in\n    tag_21:\n      stop\n        /* \"smartContract_flat.sol\":28553:28580  address public AdminAddress */\n    tag_4:\n      callvalue\n      dup1\n      iszero\n      tag_25\n      jumpi\n      0x00\n      dup1\n      revert\n    tag_25:\n      pop\n      tag_26\n      tag_27\n      jump\t// in\n    tag_26:\n      mload(0x40)\n      tag_28\n      swap2\n      swap1\n      tag_29\n      jump\t// in\n    tag_28:\n      mload(0x40)\n      dup1\n      swap2\n      sub\n      swap1\n      return\n        /* \"smartContract_flat.sol\":29682:30231  function buyInformation(uint256 id)... */\n    tag_5:\n      callvalue\n      dup1\n      iszero\n      tag_30\n      jumpi\n      0x00\n      dup1\n      revert\n    tag_30:\n      pop\n      tag_31\n      0x04\n      dup1\n      calldatasize\n      sub\n      dup2\n      add\n      swap1\n      tag_32\n      swap2\n      swap1\n      tag_33\n      jump\t// in\n    tag_32:\n      tag_34\n      jump\t// in\n    tag_31:\n      mload(0x40)\n      tag_35\n      swap6\n      swap5\n      swap4\n      swap3\n      swap2\n      swap1\n      tag_36\n      jump\t// in\n    tag_35:\n      mload(0x40)\n      dup1\n      swap2\n      sub\n      swap1\n      return\n        /* \"smartContract_flat.sol\":29347:29445  function setAdminAddress(address _admin) public onlyOwner {... */\n    tag_6:\n      callvalue\n      dup1\n      iszero\n      tag_37\n      jumpi\n      0x00\n      dup1\n      revert\n    tag_37:\n      pop\n      tag_38\n      0x04\n      dup1\n      calldatasize\n      sub\n      dup2\n      add\n      swap1\n      tag_39\n      swap2\n      swap1\n      tag_40\n      jump\t// in\n    tag_39:\n      tag_41\n      jump\t// in\n    tag_38:\n      stop\n        /* \"smartContract_flat.sol\":30239:31366  function buyToken(uint256 amount) public payable {... */\n    tag_7:\n      tag_42\n      0x04\n      dup1\n      calldatasize\n      sub\n      dup2\n      add\n      swap1\n      tag_43\n      swap2\n      swap1\n      tag_33\n      jump\t// in\n    tag_43:\n      tag_44\n      jump\t// in\n    tag_42:\n      stop\n        /* \"smartContract_flat.sol\":29553:29674  function getIdsOfUser(address user) public view returns (uint256[] memory) {... */\n    tag_8:\n      callvalue\n      dup1\n      iszero\n      tag_45\n      jumpi\n      0x00\n      dup1\n      revert\n    tag_45:\n      pop\n      tag_46\n      0x04\n      dup1\n      calldatasize\n      sub\n      dup2\n      add\n      swap1\n      tag_47\n      swap2\n      swap1\n      tag_40\n      jump\t// in\n    tag_47:\n      tag_48\n      jump\t// in\n    tag_46:\n      mload(0x40)\n      tag_49\n      swap2\n      swap1\n      tag_50\n      jump\t// in\n    tag_49:\n      mload(0x40)\n      dup1\n      swap2\n      sub\n      swap1\n      return\n        /* \"smartContract_flat.sol\":19687:19790  function renounceOwnership() public virtual onlyOwner {... */\n    tag_9:\n      callvalue\n      dup1\n      iszero\n      tag_51\n      jumpi\n      0x00\n      dup1\n      revert\n    tag_51:\n      pop\n      tag_52\n      tag_53\n      jump\t// in\n    tag_52:\n      stop\n        /* \"smartContract_flat.sol\":19036:19123  function owner() public view virtual returns (address) {... */\n    tag_10:\n      callvalue\n      dup1\n      iszero\n      tag_54\n      jumpi\n      0x00\n      dup1\n      revert\n    tag_54:\n      pop\n      tag_55\n      tag_56\n      jump\t// in\n    tag_55:\n      mload(0x40)\n      tag_57\n      swap2\n      swap1\n      tag_29\n      jump\t// in\n    tag_57:\n      mload(0x40)\n      dup1\n      swap2\n      sub\n      swap1\n      return\n        /* \"smartContract_flat.sol\":28587:28604  Token public Coin */\n    tag_11:\n      callvalue\n      dup1\n      iszero\n      tag_58\n      jumpi\n      0x00\n      dup1\n      revert\n    tag_58:\n      pop\n      tag_59\n      tag_60\n      jump\t// in\n    tag_59:\n      mload(0x40)\n      tag_61\n      swap2\n      swap1\n      tag_62\n      jump\t// in\n    tag_61:\n      mload(0x40)\n      dup1\n      swap2\n      sub\n      swap1\n      return\n        /* \"smartContract_flat.sol\":29453:29545  function totalInvesters() public view returns (uint256) {... */\n    tag_12:\n      callvalue\n      dup1\n      iszero\n      tag_63\n      jumpi\n      0x00\n      dup1\n      revert\n    tag_63:\n      pop\n      tag_64\n      tag_65\n      jump\t// in\n    tag_64:\n      mload(0x40)\n      tag_66\n      swap2\n      swap1\n      tag_67\n      jump\t// in\n    tag_66:\n      mload(0x40)\n      dup1\n      swap2\n      sub\n      swap1\n      return\n        /* \"smartContract_flat.sol\":19945:20183  function transferOwnership(address newOwner) public virtual onlyOwner {... */\n    tag_13:\n      callvalue\n      dup1\n      iszero\n      tag_68\n      jumpi\n      0x00\n      dup1\n      revert\n    tag_68:\n      pop\n      tag_69\n      0x04\n      dup1\n      calldatasize\n      sub\n      dup2\n      add\n      swap1\n      tag_70\n      swap2\n      swap1\n      tag_40\n      jump\t// in\n    tag_70:\n      tag_71\n      jump\t// in\n    tag_69:\n      stop\n        /* \"smartContract_flat.sol\":28636:28659  bool public initialized */\n    tag_17:\n      0x04\n      0x00\n      swap1\n      sload\n      swap1\n      0x0100\n      exp\n      swap1\n      div\n      0xff\n      and\n      dup2\n      jump\t// out\n        /* \"smartContract_flat.sol\":28978:29339  function initialize(... */\n    tag_24:\n        /* \"smartContract_flat.sol\":19267:19279  _msgSender() */\n      tag_73\n        /* \"smartContract_flat.sol\":19267:19277  _msgSender */\n      tag_74\n        /* \"smartContract_flat.sol\":19267:19279  _msgSender() */\n      jump\t// in\n    tag_73:\n        /* \"smartContract_flat.sol\":19256:19279  owner() == _msgSender() */\n      0xffffffffffffffffffffffffffffffffffffffff\n      and\n        /* \"smartContract_flat.sol\":19256:19263  owner() */\n      tag_75\n        /* \"smartContract_flat.sol\":19256:19261  owner */\n      tag_56\n        /* \"smartContract_flat.sol\":19256:19263  owner() */\n      jump\t// in\n    tag_75:\n        /* \"smartContract_flat.sol\":19256:19279  owner() == _msgSender() */\n      0xffffffffffffffffffffffffffffffffffffffff\n      and\n      eq\n        /* \"smartContract_flat.sol\":19248:19316  require(owner() == _msgSender(), \"Ownable: caller is not the owner\") */\n      tag_76\n      jumpi\n      mload(0x40)\n      0x08c379a000000000000000000000000000000000000000000000000000000000\n      dup2\n      mstore\n      0x04\n      add\n      tag_77\n      swap1\n      tag_78\n      jump\t// in\n    tag_77:\n      mload(0x40)\n      dup1\n      swap2\n      sub\n      swap1\n      revert\n    tag_76:\n        /* \"smartContract_flat.sol\":29135:29139  true */\n      0x01\n        /* \"smartContract_flat.sol\":29120:29139  initialized != true */\n      iszero\n      iszero\n        /* \"smartContract_flat.sol\":29120:29131  initialized */\n      0x04\n      0x00\n      swap1\n      sload\n      swap1\n      0x0100\n      exp\n      swap1\n      div\n      0xff\n      and\n        /* \"smartContract_flat.sol\":29120:29139  initialized != true */\n      iszero\n      iszero\n      sub\n        /* \"smartContract_flat.sol\":29112:29163  require(initialized != true, \"Already Initialized\") */\n      tag_80\n      jumpi\n      mload(0x40)\n      0x08c379a000000000000000000000000000000000000000000000000000000000\n      dup2\n      mstore\n      0x04\n      add\n      tag_81\n      swap1\n      tag_82\n      jump\t// in\n    tag_81:\n      mload(0x40)\n      dup1\n      swap2\n      sub\n      swap1\n      revert\n    tag_80:\n        /* \"smartContract_flat.sol\":29187:29192  _Coin */\n      dup3\n        /* \"smartContract_flat.sol\":29174:29178  Coin */\n      0x02\n      0x00\n        /* \"smartContract_flat.sol\":29174:29193  Coin = Token(_Coin) */\n      0x0100\n      exp\n      dup2\n      sload\n      dup2\n      0xffffffffffffffffffffffffffffffffffffffff\n      mul\n      not\n      and\n      swap1\n      dup4\n      0xffffffffffffffffffffffffffffffffffffffff\n      and\n      mul\n      or\n      swap1\n      sstore\n      pop\n        /* \"smartContract_flat.sol\":29227:29240  _adminAddress */\n      dup2\n        /* \"smartContract_flat.sol\":29204:29216  AdminAddress */\n      0x01\n      0x00\n        /* \"smartContract_flat.sol\":29204:29241  AdminAddress = address(_adminAddress) */\n      0x0100\n      exp\n      dup2\n      sload\n      dup2\n      0xffffffffffffffffffffffffffffffffffffffff\n      mul\n      not\n      and\n      swap1\n      dup4\n      0xffffffffffffffffffffffffffffffffffffffff\n      and\n      mul\n      or\n      swap1\n      sstore\n      pop\n        /* \"smartContract_flat.sol\":29252:29256  Coin */\n      0x02\n      0x00\n      swap1\n      sload\n      swap1\n      0x0100\n      exp\n      swap1\n      div\n      0xffffffffffffffffffffffffffffffffffffffff\n      and\n        /* \"smartContract_flat.sol\":29252:29270  Coin.transferPrice */\n      0xffffffffffffffffffffffffffffffffffffffff\n      and\n      0xb45ee9ef\n        /* \"smartContract_flat.sol\":29271:29278  owner() */\n      tag_83\n        /* \"smartContract_flat.sol\":29271:29276  owner */\n      tag_56\n        /* \"smartContract_flat.sol\":29271:29278  owner() */\n      jump\t// in\n    tag_83:\n        /* \"smartContract_flat.sol\":29280:29293  _adminAddress */\n      dup5\n        /* \"smartContract_flat.sol\":29295:29301  amount */\n      dup5\n        /* \"smartContract_flat.sol\":29252:29302  Coin.transferPrice(owner(), _adminAddress, amount) */\n      mload(0x40)\n      dup5\n      0xffffffff\n      and\n      0xe0\n      shl\n      dup2\n      mstore\n      0x04\n      add\n      tag_84\n      swap4\n      swap3\n      swap2\n      swap1\n      tag_85\n      jump\t// in\n    tag_84:\n      0x00\n      mload(0x40)\n      dup1\n      dup4\n      sub\n      dup2\n      0x00\n      dup8\n      dup1\n      extcodesize\n      iszero\n      dup1\n      iszero\n      tag_86\n      jumpi\n      0x00\n      dup1\n      revert\n    tag_86:\n      pop\n      gas\n      call\n      iszero\n      dup1\n      iszero\n      tag_88\n      jumpi\n      returndatasize\n      0x00\n      dup1\n      returndatacopy\n      revert(0x00, returndatasize)\n    tag_88:\n      pop\n      pop\n      pop\n      pop\n        /* \"smartContract_flat.sol\":29327:29331  true */\n      0x01\n        /* \"smartContract_flat.sol\":29313:29324  initialized */\n      0x04\n      0x00\n        /* \"smartContract_flat.sol\":29313:29331  initialized = true */\n      0x0100\n      exp\n      dup2\n      sload\n      dup2\n      0xff\n      mul\n      not\n      and\n      swap1\n      dup4\n      iszero\n      iszero\n      mul\n      or\n      swap1\n      sstore\n      pop\n        /* \"smartContract_flat.sol\":28978:29339  function initialize(... */\n      pop\n      pop\n      pop\n      jump\t// out\n        /* \"smartContract_flat.sol\":28553:28580  address public AdminAddress */\n    tag_27:\n      0x01\n      0x00\n      swap1\n      sload\n      swap1\n      0x0100\n      exp\n      swap1\n      div\n      0xffffffffffffffffffffffffffffffffffffffff\n      and\n      dup2\n      jump\t// out\n        /* \"smartContract_flat.sol\":29682:30231  function buyInformation(uint256 id)... */\n    tag_34:\n        /* \"smartContract_flat.sol\":29780:29790  uint256 ID */\n      0x00\n        /* \"smartContract_flat.sol\":29805:29820  uint256 buyTime */\n      dup1\n        /* \"smartContract_flat.sol\":29835:29856  uint256 purchaseToken */\n      0x00\n        /* \"smartContract_flat.sol\":29871:29891  uint256 ownerSurplus */\n      dup1\n        /* \"smartContract_flat.sol\":29906:29931  uint256 BNBchargedByAdmin */\n      0x00\n        /* \"smartContract_flat.sol\":29981:29988  buyInfo */\n      0x05\n        /* \"smartContract_flat.sol\":29981:30000  buyInfo[msg.sender] */\n      0x00\n        /* \"smartContract_flat.sol\":29989:29999  msg.sender */\n      caller\n        /* \"smartContract_flat.sol\":29981:30000  buyInfo[msg.sender] */\n      0xffffffffffffffffffffffffffffffffffffffff\n      and\n      0xffffffffffffffffffffffffffffffffffffffff\n      and\n      dup2\n      mstore\n      0x20\n      add\n      swap1\n      dup2\n      mstore\n      0x20\n      add\n      0x00\n      keccak256\n        /* \"smartContract_flat.sol\":29981:30004  buyInfo[msg.sender][id] */\n      0x00\n        /* \"smartContract_flat.sol\":30001:30003  id */\n      dup8\n        /* \"smartContract_flat.sol\":29981:30004  buyInfo[msg.sender][id] */\n      dup2\n      mstore\n      0x20\n      add\n      swap1\n      dup2\n      mstore\n      0x20\n      add\n      0x00\n      keccak256\n        /* \"smartContract_flat.sol\":29981:30007  buyInfo[msg.sender][id].ID */\n      0x00\n      add\n      sload\n        /* \"smartContract_flat.sol\":30022:30029  buyInfo */\n      0x05\n        /* \"smartContract_flat.sol\":30022:30041  buyInfo[msg.sender] */\n      0x00\n        /* \"smartContract_flat.sol\":30030:30040  msg.sender */\n      caller\n        /* \"smartContract_flat.sol\":30022:30041  buyInfo[msg.sender] */\n      0xffffffffffffffffffffffffffffffffffffffff\n      and\n      0xffffffffffffffffffffffffffffffffffffffff\n      and\n      dup2\n      mstore\n      0x20\n      add\n      swap1\n      dup2\n      mstore\n      0x20\n      add\n      0x00\n      keccak256\n        /* \"smartContract_flat.sol\":30022:30045  buyInfo[msg.sender][id] */\n      0x00\n        /* \"smartContract_flat.sol\":30042:30044  id */\n      dup9\n        /* \"smartContract_flat.sol\":30022:30045  buyInfo[msg.sender][id] */\n      dup2\n      mstore\n      0x20\n      add\n      swap1\n      dup2\n      mstore\n      0x20\n      add\n      0x00\n      keccak256\n        /* \"smartContract_flat.sol\":30022:30053  buyInfo[msg.sender][id].buyTime */\n      0x01\n      add\n      sload\n        /* \"smartContract_flat.sol\":30068:30075  buyInfo */\n      0x05\n        /* \"smartContract_flat.sol\":30068:30087  buyInfo[msg.sender] */\n      0x00\n        /* \"smartContract_flat.sol\":30076:30086  msg.sender */\n      caller\n        /* \"smartContract_flat.sol\":30068:30087  buyInfo[msg.sender] */\n      0xffffffffffffffffffffffffffffffffffffffff\n      and\n      0xffffffffffffffffffffffffffffffffffffffff\n      and\n      dup2\n      mstore\n      0x20\n      add\n      swap1\n      dup2\n      mstore\n      0x20\n      add\n      0x00\n      keccak256\n        /* \"smartContract_flat.sol\":30068:30091  buyInfo[msg.sender][id] */\n      0x00\n        /* \"smartContract_flat.sol\":30088:30090  id */\n      dup10\n        /* \"smartContract_flat.sol\":30068:30091  buyInfo[msg.sender][id] */\n      dup2\n      mstore\n      0x20\n      add\n      swap1\n      dup2\n      mstore\n      0x20\n      add\n      0x00\n      keccak256\n        /* \"smartContract_flat.sol\":30068:30105  buyInfo[msg.sender][id].purchaseToken */\n      0x02\n      add\n      sload\n        /* \"smartContract_flat.sol\":30120:30127  buyInfo */\n      0x05\n        /* \"smartContract_flat.sol\":30120:30139  buyInfo[msg.sender] */\n      0x00\n        /* \"smartContract_flat.sol\":30128:30138  msg.sender */\n      caller\n        /* \"smartContract_flat.sol\":30120:30139  buyInfo[msg.sender] */\n      0xffffffffffffffffffffffffffffffffffffffff\n      and\n      0xffffffffffffffffffffffffffffffffffffffff\n      and\n      dup2\n      mstore\n      0x20\n      add\n      swap1\n      dup2\n      mstore\n      0x20\n      add\n      0x00\n      keccak256\n        /* \"smartContract_flat.sol\":30120:30143  buyInfo[msg.sender][id] */\n      0x00\n        /* \"smartContract_flat.sol\":30140:30142  id */\n      dup11\n        /* \"smartContract_flat.sol\":30120:30143  buyInfo[msg.sender][id] */\n      dup2\n      mstore\n      0x20\n      add\n      swap1\n      dup2\n      mstore\n      0x20\n      add\n      0x00\n      keccak256\n        /* \"smartContract_flat.sol\":30120:30156  buyInfo[msg.sender][id].ownerSurplus */\n      0x03\n      add\n      sload\n        /* \"smartContract_flat.sol\":30171:30178  buyInfo */\n      0x05\n        /* \"smartContract_flat.sol\":30171:30190  buyInfo[msg.sender] */\n      0x00\n        /* \"smartContract_flat.sol\":30179:30189  msg.sender */\n      caller\n        /* \"smartContract_flat.sol\":30171:30190  buyInfo[msg.sender] */\n      0xffffffffffffffffffffffffffffffffffffffff\n      and\n      0xffffffffffffffffffffffffffffffffffffffff\n      and\n      dup2\n      mstore\n      0x20\n      add\n      swap1\n      dup2\n      mstore\n      0x20\n      add\n      0x00\n      keccak256\n        /* \"smartContract_flat.sol\":30171:30194  buyInfo[msg.sender][id] */\n      0x00\n        /* \"smartContract_flat.sol\":30191:30193  id */\n      dup12\n        /* \"smartContract_flat.sol\":30171:30194  buyInfo[msg.sender][id] */\n      dup2\n      mstore\n      0x20\n      add\n      swap1\n      dup2\n      mstore\n      0x20\n      add\n      0x00\n      keccak256\n        /* \"smartContract_flat.sol\":30171:30212  buyInfo[msg.sender][id].BNBchargedByAdmin */\n      0x04\n      add\n      sload\n        /* \"smartContract_flat.sol\":29959:30223  return (... */\n      swap5\n      pop\n      swap5\n      pop\n      swap5\n      pop\n      swap5\n      pop\n      swap5\n      pop\n        /* \"smartContract_flat.sol\":29682:30231  function buyInformation(uint256 id)... */\n      swap2\n      swap4\n      swap6\n      swap1\n      swap3\n      swap5\n      pop\n      jump\t// out\n        /* \"smartContract_flat.sol\":29347:29445  function setAdminAddress(address _admin) public onlyOwner {... */\n    tag_41:\n        /* \"smartContract_flat.sol\":19267:19279  _msgSender() */\n      tag_91\n        /* \"smartContract_flat.sol\":19267:19277  _msgSender */\n      tag_74\n        /* \"smartContract_flat.sol\":19267:19279  _msgSender() */\n      jump\t// in\n    tag_91:\n        /* \"smartContract_flat.sol\":19256:19279  owner() == _msgSender() */\n      0xffffffffffffffffffffffffffffffffffffffff\n      and\n        /* \"smartContract_flat.sol\":19256:19263  owner() */\n      tag_92\n        /* \"smartContract_flat.sol\":19256:19261  owner */\n      tag_56\n        /* \"smartContract_flat.sol\":19256:19263  owner() */\n      jump\t// in\n    tag_92:\n        /* \"smartContract_flat.sol\":19256:19279  owner() == _msgSender() */\n      0xffffffffffffffffffffffffffffffffffffffff\n      and\n      eq\n        /* \"smartContract_flat.sol\":19248:19316  require(owner() == _msgSender(), \"Ownable: caller is not the owner\") */\n      tag_93\n      jumpi\n      mload(0x40)\n      0x08c379a000000000000000000000000000000000000000000000000000000000\n      dup2\n      mstore\n      0x04\n      add\n      tag_94\n      swap1\n      tag_78\n      jump\t// in\n    tag_94:\n      mload(0x40)\n      dup1\n      swap2\n      sub\n      swap1\n      revert\n    tag_93:\n        /* \"smartContract_flat.sol\":29431:29437  _admin */\n      dup1\n        /* \"smartContract_flat.sol\":29416:29428  AdminAddress */\n      0x01\n      0x00\n        /* \"smartContract_flat.sol\":29416:29437  AdminAddress = _admin */\n      0x0100\n      exp\n      dup2\n      sload\n      dup2\n      0xffffffffffffffffffffffffffffffffffffffff\n      mul\n      not\n      and\n      swap1\n      dup4\n      0xffffffffffffffffffffffffffffffffffffffff\n      and\n      mul\n      or\n      swap1\n      sstore\n      pop\n        /* \"smartContract_flat.sol\":29347:29445  function setAdminAddress(address _admin) public onlyOwner {... */\n      pop\n      jump\t// out\n        /* \"smartContract_flat.sol\":30239:31366  function buyToken(uint256 amount) public payable {... */\n    tag_44:\n        /* \"smartContract_flat.sol\":30350:30356  amount */\n      dup1\n        /* \"smartContract_flat.sol\":30321:30325  Coin */\n      0x02\n      0x00\n      swap1\n      sload\n      swap1\n      0x0100\n      exp\n      swap1\n      div\n      0xffffffffffffffffffffffffffffffffffffffff\n      and\n        /* \"smartContract_flat.sol\":30321:30333  Coin.balance */\n      0xffffffffffffffffffffffffffffffffffffffff\n      and\n      0xe3d670d7\n        /* \"smartContract_flat.sol\":30334:30346  AdminAddress */\n      0x01\n      0x00\n      swap1\n      sload\n      swap1\n      0x0100\n      exp\n      swap1\n      div\n      0xffffffffffffffffffffffffffffffffffffffff\n      and\n        /* \"smartContract_flat.sol\":30321:30347  Coin.balance(AdminAddress) */\n      mload(0x40)\n      dup3\n      0xffffffff\n      and\n      0xe0\n      shl\n      dup2\n      mstore\n      0x04\n      add\n      tag_97\n      swap2\n      swap1\n      tag_29\n      jump\t// in\n    tag_97:\n      0x20\n      mload(0x40)\n      dup1\n      dup4\n      sub\n      dup2\n      dup7\n      gas\n      staticcall\n      iszero\n      dup1\n      iszero\n      tag_99\n      jumpi\n      returndatasize\n      0x00\n      dup1\n      returndatacopy\n      revert(0x00, returndatasize)\n    tag_99:\n      pop\n      pop\n      pop\n      pop\n      mload(0x40)\n      returndatasize\n      not(0x1f)\n      0x1f\n      dup3\n      add\n      and\n      dup3\n      add\n      dup1\n      0x40\n      mstore\n      pop\n      dup2\n      add\n      swap1\n      tag_100\n      swap2\n      swap1\n      tag_101\n      jump\t// in\n    tag_100:\n        /* \"smartContract_flat.sol\":30321:30356  Coin.balance(AdminAddress) > amount */\n      gt\n        /* \"smartContract_flat.sol\":30299:30425  require(... */\n      tag_102\n      jumpi\n      mload(0x40)\n      0x08c379a000000000000000000000000000000000000000000000000000000000\n      dup2\n      mstore\n      0x04\n      add\n      tag_103\n      swap1\n      tag_104\n      jump\t// in\n    tag_103:\n      mload(0x40)\n      dup1\n      swap2\n      sub\n      swap1\n      revert\n    tag_102:\n        /* \"smartContract_flat.sol\":30436:30440  Coin */\n      0x02\n      0x00\n      swap1\n      sload\n      swap1\n      0x0100\n      exp\n      swap1\n      div\n      0xffffffffffffffffffffffffffffffffffffffff\n      and\n        /* \"smartContract_flat.sol\":30436:30454  Coin.transferPrice */\n      0xffffffffffffffffffffffffffffffffffffffff\n      and\n      0xb45ee9ef\n        /* \"smartContract_flat.sol\":30455:30467  AdminAddress */\n      0x01\n      0x00\n      swap1\n      sload\n      swap1\n      0x0100\n      exp\n      swap1\n      div\n      0xffffffffffffffffffffffffffffffffffffffff\n      and\n        /* \"smartContract_flat.sol\":30469:30479  msg.sender */\n      caller\n        /* \"smartContract_flat.sol\":30481:30487  amount */\n      dup5\n        /* \"smartContract_flat.sol\":30436:30488  Coin.transferPrice(AdminAddress, msg.sender, amount) */\n      mload(0x40)\n      dup5\n      0xffffffff\n      and\n      0xe0\n      shl\n      dup2\n      mstore\n      0x04\n      add\n      tag_105\n      swap4\n      swap3\n      swap2\n      swap1\n      tag_85\n      jump\t// in\n    tag_105:\n      0x00\n      mload(0x40)\n      dup1\n      dup4\n      sub\n      dup2\n      0x00\n      dup8\n      dup1\n      extcodesize\n      iszero\n      dup1\n      iszero\n      tag_106\n      jumpi\n      0x00\n      dup1\n      revert\n    tag_106:\n      pop\n      gas\n      call\n      iszero\n      dup1\n      iszero\n      tag_108\n      jumpi\n      returndatasize\n      0x00\n      dup1\n      returndatacopy\n      revert(0x00, returndatasize)\n    tag_108:\n      pop\n      pop\n      pop\n      pop\n        /* \"smartContract_flat.sol\":30524:30534  investerID */\n      0x03\n      0x00\n        /* \"smartContract_flat.sol\":30524:30536  investerID++ */\n      dup2\n      sload\n      dup1\n      swap3\n      swap2\n      swap1\n      0x01\n      add\n      swap2\n      swap1\n      pop\n      sstore\n      pop\n        /* \"smartContract_flat.sol\":30558:30568  uint256 id */\n      0x00\n        /* \"smartContract_flat.sol\":30571:30581  investerID */\n      sload(0x03)\n        /* \"smartContract_flat.sol\":30558:30581  uint256 id = investerID */\n      swap1\n      pop\n        /* \"smartContract_flat.sol\":30621:30631  investerID */\n      sload(0x03)\n        /* \"smartContract_flat.sol\":30592:30599  buyInfo */\n      0x05\n        /* \"smartContract_flat.sol\":30592:30611  buyInfo[msg.sender] */\n      0x00\n        /* \"smartContract_flat.sol\":30600:30610  msg.sender */\n      caller\n        /* \"smartContract_flat.sol\":30592:30611  buyInfo[msg.sender] */\n      0xffffffffffffffffffffffffffffffffffffffff\n      and\n      0xffffffffffffffffffffffffffffffffffffffff\n      and\n      dup2\n      mstore\n      0x20\n      add\n      swap1\n      dup2\n      mstore\n      0x20\n      add\n      0x00\n      keccak256\n        /* \"smartContract_flat.sol\":30592:30615  buyInfo[msg.sender][id] */\n      0x00\n        /* \"smartContract_flat.sol\":30612:30614  id */\n      dup4\n        /* \"smartContract_flat.sol\":30592:30615  buyInfo[msg.sender][id] */\n      dup2\n      mstore\n      0x20\n      add\n      swap1\n      dup2\n      mstore\n      0x20\n      add\n      0x00\n      keccak256\n        /* \"smartContract_flat.sol\":30592:30618  buyInfo[msg.sender][id].ID */\n      0x00\n      add\n        /* \"smartContract_flat.sol\":30592:30631  buyInfo[msg.sender][id].ID = investerID */\n      dup2\n      swap1\n      sstore\n      pop\n        /* \"smartContract_flat.sol\":30676:30691  block.timestamp */\n      timestamp\n        /* \"smartContract_flat.sol\":30642:30649  buyInfo */\n      0x05\n        /* \"smartContract_flat.sol\":30642:30661  buyInfo[msg.sender] */\n      0x00\n        /* \"smartContract_flat.sol\":30650:30660  msg.sender */\n      caller\n        /* \"smartContract_flat.sol\":30642:30661  buyInfo[msg.sender] */\n      0xffffffffffffffffffffffffffffffffffffffff\n      and\n      0xffffffffffffffffffffffffffffffffffffffff\n      and\n      dup2\n      mstore\n      0x20\n      add\n      swap1\n      dup2\n      mstore\n      0x20\n      add\n      0x00\n      keccak256\n        /* \"smartContract_flat.sol\":30642:30665  buyInfo[msg.sender][id] */\n      0x00\n        /* \"smartContract_flat.sol\":30662:30664  id */\n      dup4\n        /* \"smartContract_flat.sol\":30642:30665  buyInfo[msg.sender][id] */\n      dup2\n      mstore\n      0x20\n      add\n      swap1\n      dup2\n      mstore\n      0x20\n      add\n      0x00\n      keccak256\n        /* \"smartContract_flat.sol\":30642:30673  buyInfo[msg.sender][id].buyTime */\n      0x01\n      add\n        /* \"smartContract_flat.sol\":30642:30691  buyInfo[msg.sender][id].buyTime = block.timestamp */\n      dup2\n      swap1\n      sstore\n      pop\n        /* \"smartContract_flat.sol\":30742:30748  amount */\n      dup2\n        /* \"smartContract_flat.sol\":30702:30709  buyInfo */\n      0x05\n        /* \"smartContract_flat.sol\":30702:30721  buyInfo[msg.sender] */\n      0x00\n        /* \"smartContract_flat.sol\":30710:30720  msg.sender */\n      caller\n        /* \"smartContract_flat.sol\":30702:30721  buyInfo[msg.sender] */\n      0xffffffffffffffffffffffffffffffffffffffff\n      and\n      0xffffffffffffffffffffffffffffffffffffffff\n      and\n      dup2\n      mstore\n      0x20\n      add\n      swap1\n      dup2\n      mstore\n      0x20\n      add\n      0x00\n      keccak256\n        /* \"smartContract_flat.sol\":30702:30725  buyInfo[msg.sender][id] */\n      0x00\n        /* \"smartContract_flat.sol\":30722:30724  id */\n      dup4\n        /* \"smartContract_flat.sol\":30702:30725  buyInfo[msg.sender][id] */\n      dup2\n      mstore\n      0x20\n      add\n      swap1\n      dup2\n      mstore\n      0x20\n      add\n      0x00\n      keccak256\n        /* \"smartContract_flat.sol\":30702:30739  buyInfo[msg.sender][id].purchaseToken */\n      0x02\n      add\n        /* \"smartContract_flat.sol\":30702:30748  buyInfo[msg.sender][id].purchaseToken = amount */\n      dup2\n      swap1\n      sstore\n      pop\n        /* \"smartContract_flat.sol\":30759:30786  uint256 ownerSurplusToAdmin */\n      0x00\n        /* \"smartContract_flat.sol\":30789:30802  amount.div(2) */\n      tag_109\n        /* \"smartContract_flat.sol\":30800:30801  2 */\n      0x02\n        /* \"smartContract_flat.sol\":30789:30795  amount */\n      dup5\n        /* \"smartContract_flat.sol\":30789:30799  amount.div */\n      tag_110\n      swap1\n        /* \"smartContract_flat.sol\":30789:30802  amount.div(2) */\n      swap2\n      swap1\n      0xffffffff\n      and\n      jump\t// in\n    tag_109:\n        /* \"smartContract_flat.sol\":30759:30802  uint256 ownerSurplusToAdmin = amount.div(2) */\n      swap1\n      pop\n        /* \"smartContract_flat.sol\":30859:30878  ownerSurplusToAdmin */\n      dup1\n        /* \"smartContract_flat.sol\":30835:30839  Coin */\n      0x02\n      0x00\n      swap1\n      sload\n      swap1\n      0x0100\n      exp\n      swap1\n      div\n      0xffffffffffffffffffffffffffffffffffffffff\n      and\n        /* \"smartContract_flat.sol\":30835:30847  Coin.balance */\n      0xffffffffffffffffffffffffffffffffffffffff\n      and\n      0xe3d670d7\n        /* \"smartContract_flat.sol\":30848:30855  owner() */\n      tag_111\n        /* \"smartContract_flat.sol\":30848:30853  owner */\n      tag_56\n        /* \"smartContract_flat.sol\":30848:30855  owner() */\n      jump\t// in\n    tag_111:\n        /* \"smartContract_flat.sol\":30835:30856  Coin.balance(owner()) */\n      mload(0x40)\n      dup3\n      0xffffffff\n      and\n      0xe0\n      shl\n      dup2\n      mstore\n      0x04\n      add\n      tag_112\n      swap2\n      swap1\n      tag_29\n      jump\t// in\n    tag_112:\n      0x20\n      mload(0x40)\n      dup1\n      dup4\n      sub\n      dup2\n      dup7\n      gas\n      staticcall\n      iszero\n      dup1\n      iszero\n      tag_114\n      jumpi\n      returndatasize\n      0x00\n      dup1\n      returndatacopy\n      revert(0x00, returndatasize)\n    tag_114:\n      pop\n      pop\n      pop\n      pop\n      mload(0x40)\n      returndatasize\n      not(0x1f)\n      0x1f\n      dup3\n      add\n      and\n      dup3\n      add\n      dup1\n      0x40\n      mstore\n      pop\n      dup2\n      add\n      swap1\n      tag_115\n      swap2\n      swap1\n      tag_101\n      jump\t// in\n    tag_115:\n        /* \"smartContract_flat.sol\":30835:30878  Coin.balance(owner()) > ownerSurplusToAdmin */\n      gt\n        /* \"smartContract_flat.sol\":30813:30947  require(... */\n      tag_116\n      jumpi\n      mload(0x40)\n      0x08c379a000000000000000000000000000000000000000000000000000000000\n      dup2\n      mstore\n      0x04\n      add\n      tag_117\n      swap1\n      tag_118\n      jump\t// in\n    tag_117:\n      mload(0x40)\n      dup1\n      swap2\n      sub\n      swap1\n      revert\n    tag_116:\n        /* \"smartContract_flat.sol\":30958:30962  Coin */\n      0x02\n      0x00\n      swap1\n      sload\n      swap1\n      0x0100\n      exp\n      swap1\n      div\n      0xffffffffffffffffffffffffffffffffffffffff\n      and\n        /* \"smartContract_flat.sol\":30958:30976  Coin.transferPrice */\n      0xffffffffffffffffffffffffffffffffffffffff\n      and\n      0xb45ee9ef\n        /* \"smartContract_flat.sol\":30977:30984  owner() */\n      tag_119\n        /* \"smartContract_flat.sol\":30977:30982  owner */\n      tag_56\n        /* \"smartContract_flat.sol\":30977:30984  owner() */\n      jump\t// in\n    tag_119:\n        /* \"smartContract_flat.sol\":30986:30998  AdminAddress */\n      0x01\n      0x00\n      swap1\n      sload\n      swap1\n      0x0100\n      exp\n      swap1\n      div\n      0xffffffffffffffffffffffffffffffffffffffff\n      and\n        /* \"smartContract_flat.sol\":31000:31019  ownerSurplusToAdmin */\n      dup5\n        /* \"smartContract_flat.sol\":30958:31020  Coin.transferPrice(owner(), AdminAddress, ownerSurplusToAdmin) */\n      mload(0x40)\n      dup5\n      0xffffffff\n      and\n      0xe0\n      shl\n      dup2\n      mstore\n      0x04\n      add\n      tag_120\n      swap4\n      swap3\n      swap2\n      swap1\n      tag_85\n      jump\t// in\n    tag_120:\n      0x00\n      mload(0x40)\n      dup1\n      dup4\n      sub\n      dup2\n      0x00\n      dup8\n      dup1\n      extcodesize\n      iszero\n      dup1\n      iszero\n      tag_121\n      jumpi\n      0x00\n      dup1\n      revert\n    tag_121:\n      pop\n      gas\n      call\n      iszero\n      dup1\n      iszero\n      tag_123\n      jumpi\n      returndatasize\n      0x00\n      dup1\n      returndatacopy\n      revert(0x00, returndatasize)\n    tag_123:\n      pop\n      pop\n      pop\n      pop\n        /* \"smartContract_flat.sol\":31070:31089  ownerSurplusToAdmin */\n      dup1\n        /* \"smartContract_flat.sol\":31031:31038  buyInfo */\n      0x05\n        /* \"smartContract_flat.sol\":31031:31050  buyInfo[msg.sender] */\n      0x00\n        /* \"smartContract_flat.sol\":31039:31049  msg.sender */\n      caller\n        /* \"smartContract_flat.sol\":31031:31050  buyInfo[msg.sender] */\n      0xffffffffffffffffffffffffffffffffffffffff\n      and\n      0xffffffffffffffffffffffffffffffffffffffff\n      and\n      dup2\n      mstore\n      0x20\n      add\n      swap1\n      dup2\n      mstore\n      0x20\n      add\n      0x00\n      keccak256\n        /* \"smartContract_flat.sol\":31031:31054  buyInfo[msg.sender][id] */\n      0x00\n        /* \"smartContract_flat.sol\":31051:31053  id */\n      dup5\n        /* \"smartContract_flat.sol\":31031:31054  buyInfo[msg.sender][id] */\n      dup2\n      mstore\n      0x20\n      add\n      swap1\n      dup2\n      mstore\n      0x20\n      add\n      0x00\n      keccak256\n        /* \"smartContract_flat.sol\":31031:31067  buyInfo[msg.sender][id].ownerSurplus */\n      0x03\n      add\n        /* \"smartContract_flat.sol\":31031:31089  buyInfo[msg.sender][id].ownerSurplus = ownerSurplusToAdmin */\n      dup2\n      swap1\n      sstore\n      pop\n        /* \"smartContract_flat.sol\":31100:31114  getIDByAddress */\n      0x06\n        /* \"smartContract_flat.sol\":31100:31126  getIDByAddress[msg.sender] */\n      0x00\n        /* \"smartContract_flat.sol\":31115:31125  msg.sender */\n      caller\n        /* \"smartContract_flat.sol\":31100:31126  getIDByAddress[msg.sender] */\n      0xffffffffffffffffffffffffffffffffffffffff\n      and\n      0xffffffffffffffffffffffffffffffffffffffff\n      and\n      dup2\n      mstore\n      0x20\n      add\n      swap1\n      dup2\n      mstore\n      0x20\n      add\n      0x00\n      keccak256\n        /* \"smartContract_flat.sol\":31132:31134  id */\n      dup3\n        /* \"smartContract_flat.sol\":31100:31135  getIDByAddress[msg.sender].push(id) */\n      swap1\n      dup1\n      0x01\n      dup2\n      sload\n      add\n      dup1\n      dup3\n      sstore\n      dup1\n      swap2\n      pop\n      pop\n      0x01\n      swap1\n      sub\n      swap1\n      0x00\n      mstore\n      keccak256(0x00, 0x20)\n      add\n      0x00\n      swap1\n      swap2\n      swap1\n      swap2\n      swap1\n      swap2\n      pop\n      sstore\n        /* \"smartContract_flat.sol\":31169:31181  AdminAddress */\n      0x01\n      0x00\n      swap1\n      sload\n      swap1\n      0x0100\n      exp\n      swap1\n      pop\n      pop\n        /* \"smartContract_flat.sol\":31205:31247  (1 * ownerSurplusToAdmin).div(10000000000) */\n      tag_125\n        /* \"smartContract_flat.sol\":31235:31246  10000000000 */\n      0x02540be400\n        /* \"smartContract_flat.sol\":31210:31229  ownerSurplusToAdmin */\n      dup3\n        /* \"smartContract_flat.sol\":31206:31207  1 */\n      0x01\n        /* \"smartContract_flat.sol\":31206:31229  1 * ownerSurplusToAdmin */\n      tag_126\n      swap2\n      swap1\n      tag_127\n      jump\t// in\n    tag_126:\n        /* \"smartContract_flat.sol\":31205:31234  (1 * ownerSurplusToAdmin).div */\n      tag_110\n      swap1\n        /* \"smartContract_flat.sol\":31205:31247  (1 * ownerSurplusToAdmin).div(10000000000) */\n      swap2\n      swap1\n      0xffffffff\n      and\n      jump\t// in\n    tag_125:\n        /* \"smartContract_flat.sol\":31192:31247  msg.value == (1 * ownerSurplusToAdmin).div(10000000000) */\n      pop\n        /* \"smartContract_flat.sol\":31266:31273  owner() */\n      tag_128\n        /* \"smartContract_flat.sol\":31266:31271  owner */\n      tag_56\n        /* \"smartContract_flat.sol\":31266:31273  owner() */\n      jump\t// in\n    tag_128:\n        /* \"smartContract_flat.sol\":31258:31283  payable(owner()).transfer */\n      0xffffffffffffffffffffffffffffffffffffffff\n      and\n        /* \"smartContract_flat.sol\":31258:31294  payable(owner()).transfer(msg.value) */\n      0x08fc\n        /* \"smartContract_flat.sol\":31284:31293  msg.value */\n      callvalue\n        /* \"smartContract_flat.sol\":31258:31294  payable(owner()).transfer(msg.value) */\n      swap1\n      dup2\n      iszero\n      mul\n      swap1\n      mload(0x40)\n      0x00\n      mload(0x40)\n      dup1\n      dup4\n      sub\n      dup2\n      dup6\n      dup9\n      dup9\n      call\n      swap4\n      pop\n      pop\n      pop\n      pop\n      iszero\n      dup1\n      iszero\n      tag_130\n      jumpi\n      returndatasize\n      0x00\n      dup1\n      returndatacopy\n      revert(0x00, returndatasize)\n    tag_130:\n      pop\n        /* \"smartContract_flat.sol\":31349:31358  msg.value */\n      callvalue\n        /* \"smartContract_flat.sol\":31305:31312  buyInfo */\n      0x05\n        /* \"smartContract_flat.sol\":31305:31324  buyInfo[msg.sender] */\n      0x00\n        /* \"smartContract_flat.sol\":31313:31323  msg.sender */\n      caller\n        /* \"smartContract_flat.sol\":31305:31324  buyInfo[msg.sender] */\n      0xffffffffffffffffffffffffffffffffffffffff\n      and\n      0xffffffffffffffffffffffffffffffffffffffff\n      and\n      dup2\n      mstore\n      0x20\n      add\n      swap1\n      dup2\n      mstore\n      0x20\n      add\n      0x00\n      keccak256\n        /* \"smartContract_flat.sol\":31305:31328  buyInfo[msg.sender][id] */\n      0x00\n        /* \"smartContract_flat.sol\":31325:31327  id */\n      dup5\n        /* \"smartContract_flat.sol\":31305:31328  buyInfo[msg.sender][id] */\n      dup2\n      mstore\n      0x20\n      add\n      swap1\n      dup2\n      mstore\n      0x20\n      add\n      0x00\n      keccak256\n        /* \"smartContract_flat.sol\":31305:31346  buyInfo[msg.sender][id].BNBchargedByAdmin */\n      0x04\n      add\n        /* \"smartContract_flat.sol\":31305:31358  buyInfo[msg.sender][id].BNBchargedByAdmin = msg.value */\n      dup2\n      swap1\n      sstore\n      pop\n        /* \"smartContract_flat.sol\":30288:31366  {... */\n      pop\n      pop\n        /* \"smartContract_flat.sol\":30239:31366  function buyToken(uint256 amount) public payable {... */\n      pop\n      jump\t// out\n        /* \"smartContract_flat.sol\":29553:29674  function getIdsOfUser(address user) public view returns (uint256[] memory) {... */\n    tag_48:\n        /* \"smartContract_flat.sol\":29610:29626  uint256[] memory */\n      0x60\n        /* \"smartContract_flat.sol\":29646:29660  getIDByAddress */\n      0x06\n        /* \"smartContract_flat.sol\":29646:29666  getIDByAddress[user] */\n      0x00\n        /* \"smartContract_flat.sol\":29661:29665  user */\n      dup4\n        /* \"smartContract_flat.sol\":29646:29666  getIDByAddress[user] */\n      0xffffffffffffffffffffffffffffffffffffffff\n      and\n      0xffffffffffffffffffffffffffffffffffffffff\n      and\n      dup2\n      mstore\n      0x20\n      add\n      swap1\n      dup2\n      mstore\n      0x20\n      add\n      0x00\n      keccak256\n        /* \"smartContract_flat.sol\":29639:29666  return getIDByAddress[user] */\n      dup1\n      sload\n      dup1\n      0x20\n      mul\n      0x20\n      add\n      mload(0x40)\n      swap1\n      dup2\n      add\n      0x40\n      mstore\n      dup1\n      swap3\n      swap2\n      swap1\n      dup2\n      dup2\n      mstore\n      0x20\n      add\n      dup3\n      dup1\n      sload\n      dup1\n      iszero\n      tag_132\n      jumpi\n      0x20\n      mul\n      dup3\n      add\n      swap2\n      swap1\n      0x00\n      mstore\n      keccak256(0x00, 0x20)\n      swap1\n    tag_133:\n      dup2\n      sload\n      dup2\n      mstore\n      0x20\n      add\n      swap1\n      0x01\n      add\n      swap1\n      dup1\n      dup4\n      gt\n      tag_133\n      jumpi\n    tag_132:\n      pop\n      pop\n      pop\n      pop\n      pop\n      swap1\n      pop\n        /* \"smartContract_flat.sol\":29553:29674  function getIdsOfUser(address user) public view returns (uint256[] memory) {... */\n      swap2\n      swap1\n      pop\n      jump\t// out\n        /* \"smartContract_flat.sol\":19687:19790  function renounceOwnership() public virtual onlyOwner {... */\n    tag_53:\n        /* \"smartContract_flat.sol\":19267:19279  _msgSender() */\n      tag_135\n        /* \"smartContract_flat.sol\":19267:19277  _msgSender */\n      tag_74\n        /* \"smartContract_flat.sol\":19267:19279  _msgSender() */\n      jump\t// in\n    tag_135:\n        /* \"smartContract_flat.sol\":19256:19279  owner() == _msgSender() */\n      0xffffffffffffffffffffffffffffffffffffffff\n      and\n        /* \"smartContract_flat.sol\":19256:19263  owner() */\n      tag_136\n        /* \"smartContract_flat.sol\":19256:19261  owner */\n      tag_56\n        /* \"smartContract_flat.sol\":19256:19263  owner() */\n      jump\t// in\n    tag_136:\n        /* \"smartContract_flat.sol\":19256:19279  owner() == _msgSender() */\n      0xffffffffffffffffffffffffffffffffffffffff\n      and\n      eq\n        /* \"smartContract_flat.sol\":19248:19316  require(owner() == _msgSender(), \"Ownable: caller is not the owner\") */\n      tag_137\n      jumpi\n      mload(0x40)\n      0x08c379a000000000000000000000000000000000000000000000000000000000\n      dup2\n      mstore\n      0x04\n      add\n      tag_138\n      swap1\n      tag_78\n      jump\t// in\n    tag_138:\n      mload(0x40)\n      dup1\n      swap2\n      sub\n      swap1\n      revert\n    tag_137:\n        /* \"smartContract_flat.sol\":19752:19782  _transferOwnership(address(0)) */\n      tag_140\n        /* \"smartContract_flat.sol\":19779:19780  0 */\n      0x00\n        /* \"smartContract_flat.sol\":19752:19770  _transferOwnership */\n      tag_141\n        /* \"smartContract_flat.sol\":19752:19782  _transferOwnership(address(0)) */\n      jump\t// in\n    tag_140:\n        /* \"smartContract_flat.sol\":19687:19790  function renounceOwnership() public virtual onlyOwner {... */\n      jump\t// out\n        /* \"smartContract_flat.sol\":19036:19123  function owner() public view virtual returns (address) {... */\n    tag_56:\n        /* \"smartContract_flat.sol\":19082:19089  address */\n      0x00\n        /* \"smartContract_flat.sol\":19109:19115  _owner */\n      dup1\n      0x00\n      swap1\n      sload\n      swap1\n      0x0100\n      exp\n      swap1\n      div\n      0xffffffffffffffffffffffffffffffffffffffff\n      and\n        /* \"smartContract_flat.sol\":19102:19115  return _owner */\n      swap1\n      pop\n        /* \"smartContract_flat.sol\":19036:19123  function owner() public view virtual returns (address) {... */\n      swap1\n      jump\t// out\n        /* \"smartContract_flat.sol\":28587:28604  Token public Coin */\n    tag_60:\n      0x02\n      0x00\n      swap1\n      sload\n      swap1\n      0x0100\n      exp\n      swap1\n      div\n      0xffffffffffffffffffffffffffffffffffffffff\n      and\n      dup2\n      jump\t// out\n        /* \"smartContract_flat.sol\":29453:29545  function totalInvesters() public view returns (uint256) {... */\n    tag_65:\n        /* \"smartContract_flat.sol\":29500:29507  uint256 */\n      0x00\n        /* \"smartContract_flat.sol\":29527:29537  investerID */\n      sload(0x03)\n        /* \"smartContract_flat.sol\":29520:29537  return investerID */\n      swap1\n      pop\n        /* \"smartContract_flat.sol\":29453:29545  function totalInvesters() public view returns (uint256) {... */\n      swap1\n      jump\t// out\n        /* \"smartContract_flat.sol\":19945:20183  function transferOwnership(address newOwner) public virtual onlyOwner {... */\n    tag_71:\n        /* \"smartContract_flat.sol\":19267:19279  _msgSender() */\n      tag_145\n        /* \"smartContract_flat.sol\":19267:19277  _msgSender */\n      tag_74\n        /* \"smartContract_flat.sol\":19267:19279  _msgSender() */\n      jump\t// in\n    tag_145:\n        /* \"smartContract_flat.sol\":19256:19279  owner() == _msgSender() */\n      0xffffffffffffffffffffffffffffffffffffffff\n      and\n        /* \"smartContract_flat.sol\":19256:19263  owner() */\n      tag_146\n        /* \"smartContract_flat.sol\":19256:19261  owner */\n      tag_56\n        /* \"smartContract_flat.sol\":19256:19263  owner() */\n      jump\t// in\n    tag_146:\n        /* \"smartContract_flat.sol\":19256:19279  owner() == _msgSender() */\n      0xffffffffffffffffffffffffffffffffffffffff\n      and\n      eq\n        /* \"smartContract_flat.sol\":19248:19316  require(owner() == _msgSender(), \"Ownable: caller is not the owner\") */\n      tag_147\n      jumpi\n      mload(0x40)\n      0x08c379a000000000000000000000000000000000000000000000000000000000\n      dup2\n      mstore\n      0x04\n      add\n      tag_148\n      swap1\n      tag_78\n      jump\t// in\n    tag_148:\n      mload(0x40)\n      dup1\n      swap2\n      sub\n      swap1\n      revert\n    tag_147:\n        /* \"smartContract_flat.sol\":20068:20069  0 */\n      0x00\n        /* \"smartContract_flat.sol\":20048:20070  newOwner != address(0) */\n      0xffffffffffffffffffffffffffffffffffffffff\n      and\n        /* \"smartContract_flat.sol\":20048:20056  newOwner */\n      dup2\n        /* \"smartContract_flat.sol\":20048:20070  newOwner != address(0) */\n      0xffffffffffffffffffffffffffffffffffffffff\n      and\n      sub\n        /* \"smartContract_flat.sol\":20026:20136  require(... */\n      tag_150\n      jumpi\n      mload(0x40)\n      0x08c379a000000000000000000000000000000000000000000000000000000000\n      dup2\n      mstore\n      0x04\n      add\n      tag_151\n      swap1\n      tag_152\n      jump\t// in\n    tag_151:\n      mload(0x40)\n      dup1\n      swap2\n      sub\n      swap1\n      revert\n    tag_150:\n        /* \"smartContract_flat.sol\":20147:20175  _transferOwnership(newOwner) */\n      tag_153\n        /* \"smartContract_flat.sol\":20166:20174  newOwner */\n      dup2\n        /* \"smartContract_flat.sol\":20147:20165  _transferOwnership */\n      tag_141\n        /* \"smartContract_flat.sol\":20147:20175  _transferOwnership(newOwner) */\n      jump\t// in\n    tag_153:\n        /* \"smartContract_flat.sol\":19945:20183  function transferOwnership(address newOwner) public virtual onlyOwner {... */\n      pop\n      jump\t// out\n        /* \"smartContract_flat.sol\":4341:4439  function _msgSender() internal view virtual returns (address) {... */\n    tag_74:\n        /* \"smartContract_flat.sol\":4394:4401  address */\n      0x00\n        /* \"smartContract_flat.sol\":4421:4431  msg.sender */\n      caller\n        /* \"smartContract_flat.sol\":4414:4431  return msg.sender */\n      swap1\n      pop\n        /* \"smartContract_flat.sol\":4341:4439  function _msgSender() internal view virtual returns (address) {... */\n      swap1\n      jump\t// out\n        /* \"smartContract_flat.sol\":25401:25499  function div(uint256 a, uint256 b) internal pure returns (uint256) {... */\n    tag_110:\n        /* \"smartContract_flat.sol\":25459:25466  uint256 */\n      0x00\n        /* \"smartContract_flat.sol\":25490:25491  b */\n      dup2\n        /* \"smartContract_flat.sol\":25486:25487  a */\n      dup4\n        /* \"smartContract_flat.sol\":25486:25491  a / b */\n      tag_156\n      swap2\n      swap1\n      tag_157\n      jump\t// in\n    tag_156:\n        /* \"smartContract_flat.sol\":25479:25491  return a / b */\n      swap1\n      pop\n        /* \"smartContract_flat.sol\":25401:25499  function div(uint256 a, uint256 b) internal pure returns (uint256) {... */\n      swap3\n      swap2\n      pop\n      pop\n      jump\t// out\n        /* \"smartContract_flat.sol\":20343:20534  function _transferOwnership(address newOwner) internal virtual {... */\n    tag_141:\n        /* \"smartContract_flat.sol\":20417:20433  address oldOwner */\n      0x00\n        /* \"smartContract_flat.sol\":20436:20442  _owner */\n      dup1\n      0x00\n      swap1\n      sload\n      swap1\n      0x0100\n      exp\n      swap1\n      div\n      0xffffffffffffffffffffffffffffffffffffffff\n      and\n        /* \"smartContract_flat.sol\":20417:20442  address oldOwner = _owner */\n      swap1\n      pop\n        /* \"smartContract_flat.sol\":20462:20470  newOwner */\n      dup2\n        /* \"smartContract_flat.sol\":20453:20459  _owner */\n      0x00\n      dup1\n        /* \"smartContract_flat.sol\":20453:20470  _owner = newOwner */\n      0x0100\n      exp\n      dup2\n      sload\n      dup2\n      0xffffffffffffffffffffffffffffffffffffffff\n      mul\n      not\n      and\n      swap1\n      dup4\n      0xffffffffffffffffffffffffffffffffffffffff\n      and\n      mul\n      or\n      swap1\n      sstore\n      pop\n        /* \"smartContract_flat.sol\":20517:20525  newOwner */\n      dup2\n        /* \"smartContract_flat.sol\":20486:20526  OwnershipTransferred(oldOwner, newOwner) */\n      0xffffffffffffffffffffffffffffffffffffffff\n      and\n        /* \"smartContract_flat.sol\":20507:20515  oldOwner */\n      dup2\n        /* \"smartContract_flat.sol\":20486:20526  OwnershipTransferred(oldOwner, newOwner) */\n      0xffffffffffffffffffffffffffffffffffffffff\n      and\n      0x8be0079c531659141344cd1fd0a4f28419497f9722a3daafe3b4186f6b6457e0\n      mload(0x40)\n      mload(0x40)\n      dup1\n      swap2\n      sub\n      swap1\n      log3\n        /* \"smartContract_flat.sol\":20406:20534  {... */\n      pop\n        /* \"smartContract_flat.sol\":20343:20534  function _transferOwnership(address newOwner) internal virtual {... */\n      pop\n      jump\t// out\n        /* \"#utility.yul\":7:97   */\n    tag_159:\n        /* \"#utility.yul\":41:48   */\n      0x00\n        /* \"#utility.yul\":84:89   */\n      dup2\n        /* \"#utility.yul\":77:90   */\n      iszero\n        /* \"#utility.yul\":70:91   */\n      iszero\n        /* \"#utility.yul\":59:91   */\n      swap1\n      pop\n        /* \"#utility.yul\":7:97   */\n      swap2\n      swap1\n      pop\n      jump\t// out\n        /* \"#utility.yul\":103:212   */\n    tag_160:\n        /* \"#utility.yul\":184:205   */\n      tag_205\n        /* \"#utility.yul\":199:204   */\n      dup2\n        /* \"#utility.yul\":184:205   */\n      tag_159\n      jump\t// in\n    tag_205:\n        /* \"#utility.yul\":179:182   */\n      dup3\n        /* \"#utility.yul\":172:206   */\n      mstore\n        /* \"#utility.yul\":103:212   */\n      pop\n      pop\n      jump\t// out\n        /* \"#utility.yul\":218:428   */\n    tag_19:\n        /* \"#utility.yul\":305:309   */\n      0x00\n        /* \"#utility.yul\":343:345   */\n      0x20\n        /* \"#utility.yul\":332:341   */\n      dup3\n        /* \"#utility.yul\":328:346   */\n      add\n        /* \"#utility.yul\":320:346   */\n      swap1\n      pop\n        /* \"#utility.yul\":356:421   */\n      tag_207\n        /* \"#utility.yul\":418:419   */\n      0x00\n        /* \"#utility.yul\":407:416   */\n      dup4\n        /* \"#utility.yul\":403:420   */\n      add\n        /* \"#utility.yul\":394:400   */\n      dup5\n        /* \"#utility.yul\":356:421   */\n      tag_160\n      jump\t// in\n    tag_207:\n        /* \"#utility.yul\":218:428   */\n      swap3\n      swap2\n      pop\n      pop\n      jump\t// out\n        /* \"#utility.yul\":515:632   */\n    tag_162:\n        /* \"#utility.yul\":624:625   */\n      0x00\n        /* \"#utility.yul\":621:622   */\n      dup1\n        /* \"#utility.yul\":614:626   */\n      revert\n        /* \"#utility.yul\":761:887   */\n    tag_164:\n        /* \"#utility.yul\":798:805   */\n      0x00\n        /* \"#utility.yul\":838:880   */\n      0xffffffffffffffffffffffffffffffffffffffff\n        /* \"#utility.yul\":831:836   */\n      dup3\n        /* \"#utility.yul\":827:881   */\n      and\n        /* \"#utility.yul\":816:881   */\n      swap1\n      pop\n        /* \"#utility.yul\":761:887   */\n      swap2\n      swap1\n      pop\n      jump\t// out\n        /* \"#utility.yul\":893:989   */\n    tag_165:\n        /* \"#utility.yul\":930:937   */\n      0x00\n        /* \"#utility.yul\":959:983   */\n      tag_213\n        /* \"#utility.yul\":977:982   */\n      dup3\n        /* \"#utility.yul\":959:983   */\n      tag_164\n      jump\t// in\n    tag_213:\n        /* \"#utility.yul\":948:983   */\n      swap1\n      pop\n        /* \"#utility.yul\":893:989   */\n      swap2\n      swap1\n      pop\n      jump\t// out\n        /* \"#utility.yul\":995:1104   */\n    tag_166:\n        /* \"#utility.yul\":1045:1052   */\n      0x00\n        /* \"#utility.yul\":1074:1098   */\n      tag_215\n        /* \"#utility.yul\":1092:1097   */\n      dup3\n        /* \"#utility.yul\":1074:1098   */\n      tag_165\n      jump\t// in\n    tag_215:\n        /* \"#utility.yul\":1063:1098   */\n      swap1\n      pop\n        /* \"#utility.yul\":995:1104   */\n      swap2\n      swap1\n      pop\n      jump\t// out\n        /* \"#utility.yul\":1110:1258   */\n    tag_167:\n        /* \"#utility.yul\":1196:1233   */\n      tag_217\n        /* \"#utility.yul\":1227:1232   */\n      dup2\n        /* \"#utility.yul\":1196:1233   */\n      tag_166\n      jump\t// in\n    tag_217:\n        /* \"#utility.yul\":1189:1194   */\n      dup2\n        /* \"#utility.yul\":1186:1234   */\n      eq\n        /* \"#utility.yul\":1176:1252   */\n      tag_218\n      jumpi\n        /* \"#utility.yul\":1248:1249   */\n      0x00\n        /* \"#utility.yul\":1245:1246   */\n      dup1\n        /* \"#utility.yul\":1238:1250   */\n      revert\n        /* \"#utility.yul\":1176:1252   */\n    tag_218:\n        /* \"#utility.yul\":1110:1258   */\n      pop\n      jump\t// out\n        /* \"#utility.yul\":1264:1429   */\n    tag_168:\n        /* \"#utility.yul\":1323:1328   */\n      0x00\n        /* \"#utility.yul\":1361:1367   */\n      dup2\n        /* \"#utility.yul\":1348:1368   */\n      calldataload\n        /* \"#utility.yul\":1339:1368   */\n      swap1\n      pop\n        /* \"#utility.yul\":1377:1423   */\n      tag_220\n        /* \"#utility.yul\":1417:1422   */\n      dup2\n        /* \"#utility.yul\":1377:1423   */\n      tag_167\n      jump\t// in\n    tag_220:\n        /* \"#utility.yul\":1264:1429   */\n      swap3\n      swap2\n      pop\n      pop\n      jump\t// out\n        /* \"#utility.yul\":1435:1557   */\n    tag_169:\n        /* \"#utility.yul\":1508:1532   */\n      tag_222\n        /* \"#utility.yul\":1526:1531   */\n      dup2\n        /* \"#utility.yul\":1508:1532   */\n      tag_165\n      jump\t// in\n    tag_222:\n        /* \"#utility.yul\":1501:1506   */\n      dup2\n        /* \"#utility.yul\":1498:1533   */\n      eq\n        /* \"#utility.yul\":1488:1551   */\n      tag_223\n      jumpi\n        /* \"#utility.yul\":1547:1548   */\n      0x00\n        /* \"#utility.yul\":1544:1545   */\n      dup1\n        /* \"#utility.yul\":1537:1549   */\n      revert\n        /* \"#utility.yul\":1488:1551   */\n    tag_223:\n        /* \"#utility.yul\":1435:1557   */\n      pop\n      jump\t// out\n        /* \"#utility.yul\":1563:1702   */\n    tag_170:\n        /* \"#utility.yul\":1609:1614   */\n      0x00\n        /* \"#utility.yul\":1647:1653   */\n      dup2\n        /* \"#utility.yul\":1634:1654   */\n      calldataload\n        /* \"#utility.yul\":1625:1654   */\n      swap1\n      pop\n        /* \"#utility.yul\":1663:1696   */\n      tag_225\n        /* \"#utility.yul\":1690:1695   */\n      dup2\n        /* \"#utility.yul\":1663:1696   */\n      tag_169\n      jump\t// in\n    tag_225:\n        /* \"#utility.yul\":1563:1702   */\n      swap3\n      swap2\n      pop\n      pop\n      jump\t// out\n        /* \"#utility.yul\":1708:1785   */\n    tag_171:\n        /* \"#utility.yul\":1745:1752   */\n      0x00\n        /* \"#utility.yul\":1774:1779   */\n      dup2\n        /* \"#utility.yul\":1763:1779   */\n      swap1\n      pop\n        /* \"#utility.yul\":1708:1785   */\n      swap2\n      swap1\n      pop\n      jump\t// out\n        /* \"#utility.yul\":1791:1913   */\n    tag_172:\n        /* \"#utility.yul\":1864:1888   */\n      tag_228\n        /* \"#utility.yul\":1882:1887   */\n      dup2\n        /* \"#utility.yul\":1864:1888   */\n      tag_171\n      jump\t// in\n    tag_228:\n        /* \"#utility.yul\":1857:1862   */\n      dup2\n        /* \"#utility.yul\":1854:1889   */\n      eq\n        /* \"#utility.yul\":1844:1907   */\n      tag_229\n      jumpi\n        /* \"#utility.yul\":1903:1904   */\n      0x00\n        /* \"#utility.yul\":1900:1901   */\n      dup1\n        /* \"#utility.yul\":1893:1905   */\n      revert\n        /* \"#utility.yul\":1844:1907   */\n    tag_229:\n        /* \"#utility.yul\":1791:1913   */\n      pop\n      jump\t// out\n        /* \"#utility.yul\":1919:2058   */\n    tag_173:\n        /* \"#utility.yul\":1965:1970   */\n      0x00\n        /* \"#utility.yul\":2003:2009   */\n      dup2\n        /* \"#utility.yul\":1990:2010   */\n      calldataload\n        /* \"#utility.yul\":1981:2010   */\n      swap1\n      pop\n        /* \"#utility.yul\":2019:2052   */\n      tag_231\n        /* \"#utility.yul\":2046:2051   */\n      dup2\n        /* \"#utility.yul\":2019:2052   */\n      tag_172\n      jump\t// in\n    tag_231:\n        /* \"#utility.yul\":1919:2058   */\n      swap3\n      swap2\n      pop\n      pop\n      jump\t// out\n        /* \"#utility.yul\":2064:2709   */\n    tag_23:\n        /* \"#utility.yul\":2154:2160   */\n      0x00\n        /* \"#utility.yul\":2162:2168   */\n      dup1\n        /* \"#utility.yul\":2170:2176   */\n      0x00\n        /* \"#utility.yul\":2219:2221   */\n      0x60\n        /* \"#utility.yul\":2207:2216   */\n      dup5\n        /* \"#utility.yul\":2198:2205   */\n      dup7\n        /* \"#utility.yul\":2194:2217   */\n      sub\n        /* \"#utility.yul\":2190:2222   */\n      slt\n        /* \"#utility.yul\":2187:2306   */\n      iszero\n      tag_233\n      jumpi\n        /* \"#utility.yul\":2225:2304   */\n      tag_234\n      tag_162\n      jump\t// in\n    tag_234:\n        /* \"#utility.yul\":2187:2306   */\n    tag_233:\n        /* \"#utility.yul\":2345:2346   */\n      0x00\n        /* \"#utility.yul\":2370:2436   */\n      tag_235\n        /* \"#utility.yul\":2428:2435   */\n      dup7\n        /* \"#utility.yul\":2419:2425   */\n      dup3\n        /* \"#utility.yul\":2408:2417   */\n      dup8\n        /* \"#utility.yul\":2404:2426   */\n      add\n        /* \"#utility.yul\":2370:2436   */\n      tag_168\n      jump\t// in\n    tag_235:\n        /* \"#utility.yul\":2360:2436   */\n      swap4\n      pop\n        /* \"#utility.yul\":2316:2446   */\n      pop\n        /* \"#utility.yul\":2485:2487   */\n      0x20\n        /* \"#utility.yul\":2511:2564   */\n      tag_236\n        /* \"#utility.yul\":2556:2563   */\n      dup7\n        /* \"#utility.yul\":2547:2553   */\n      dup3\n        /* \"#utility.yul\":2536:2545   */\n      dup8\n        /* \"#utility.yul\":2532:2554   */\n      add\n        /* \"#utility.yul\":2511:2564   */\n      tag_170\n      jump\t// in\n    tag_236:\n        /* \"#utility.yul\":2501:2564   */\n      swap3\n      pop\n        /* \"#utility.yul\":2456:2574   */\n      pop\n        /* \"#utility.yul\":2613:2615   */\n      0x40\n        /* \"#utility.yul\":2639:2692   */\n      tag_237\n        /* \"#utility.yul\":2684:2691   */\n      dup7\n        /* \"#utility.yul\":2675:2681   */\n      dup3\n        /* \"#utility.yul\":2664:2673   */\n      dup8\n        /* \"#utility.yul\":2660:2682   */\n      add\n        /* \"#utility.yul\":2639:2692   */\n      tag_173\n      jump\t// in\n    tag_237:\n        /* \"#utility.yul\":2629:2692   */\n      swap2\n      pop\n        /* \"#utility.yul\":2584:2702   */\n      pop\n        /* \"#utility.yul\":2064:2709   */\n      swap3\n      pop\n      swap3\n      pop\n      swap3\n      jump\t// out\n        /* \"#utility.yul\":2715:2833   */\n    tag_174:\n        /* \"#utility.yul\":2802:2826   */\n      tag_239\n        /* \"#utility.yul\":2820:2825   */\n      dup2\n        /* \"#utility.yul\":2802:2826   */\n      tag_165\n      jump\t// in\n    tag_239:\n        /* \"#utility.yul\":2797:2800   */\n      dup3\n        /* \"#utility.yul\":2790:2827   */\n      mstore\n        /* \"#utility.yul\":2715:2833   */\n      pop\n      pop\n      jump\t// out\n        /* \"#utility.yul\":2839:3061   */\n    tag_29:\n        /* \"#utility.yul\":2932:2936   */\n      0x00\n        /* \"#utility.yul\":2970:2972   */\n      0x20\n        /* \"#utility.yul\":2959:2968   */\n      dup3\n        /* \"#utility.yul\":2955:2973   */\n      add\n        /* \"#utility.yul\":2947:2973   */\n      swap1\n      pop\n        /* \"#utility.yul\":2983:3054   */\n      tag_241\n        /* \"#utility.yul\":3051:3052   */\n      0x00\n        /* \"#utility.yul\":3040:3049   */\n      dup4\n        /* \"#utility.yul\":3036:3053   */\n      add\n        /* \"#utility.yul\":3027:3033   */\n      dup5\n        /* \"#utility.yul\":2983:3054   */\n      tag_174\n      jump\t// in\n    tag_241:\n        /* \"#utility.yul\":2839:3061   */\n      swap3\n      swap2\n      pop\n      pop\n      jump\t// out\n        /* \"#utility.yul\":3067:3396   */\n    tag_33:\n        /* \"#utility.yul\":3126:3132   */\n      0x00\n        /* \"#utility.yul\":3175:3177   */\n      0x20\n        /* \"#utility.yul\":3163:3172   */\n      dup3\n        /* \"#utility.yul\":3154:3161   */\n      dup5\n        /* \"#utility.yul\":3150:3173   */\n      sub\n        /* \"#utility.yul\":3146:3178   */\n      slt\n        /* \"#utility.yul\":3143:3262   */\n      iszero\n      tag_243\n      jumpi\n        /* \"#utility.yul\":3181:3260   */\n      tag_244\n      tag_162\n      jump\t// in\n    tag_244:\n        /* \"#utility.yul\":3143:3262   */\n    tag_243:\n        /* \"#utility.yul\":3301:3302   */\n      0x00\n        /* \"#utility.yul\":3326:3379   */\n      tag_245\n        /* \"#utility.yul\":3371:3378   */\n      dup5\n        /* \"#utility.yul\":3362:3368   */\n      dup3\n        /* \"#utility.yul\":3351:3360   */\n      dup6\n        /* \"#utility.yul\":3347:3369   */\n      add\n        /* \"#utility.yul\":3326:3379   */\n      tag_173\n      jump\t// in\n    tag_245:\n        /* \"#utility.yul\":3316:3379   */\n      swap2\n      pop\n        /* \"#utility.yul\":3272:3389   */\n      pop\n        /* \"#utility.yul\":3067:3396   */\n      swap3\n      swap2\n      pop\n      pop\n      jump\t// out\n        /* \"#utility.yul\":3402:3520   */\n    tag_175:\n        /* \"#utility.yul\":3489:3513   */\n      tag_247\n        /* \"#utility.yul\":3507:3512   */\n      dup2\n        /* \"#utility.yul\":3489:3513   */\n      tag_171\n      jump\t// in\n    tag_247:\n        /* \"#utility.yul\":3484:3487   */\n      dup3\n        /* \"#utility.yul\":3477:3514   */\n      mstore\n        /* \"#utility.yul\":3402:3520   */\n      pop\n      pop\n      jump\t// out\n        /* \"#utility.yul\":3526:4190   */\n    tag_36:\n        /* \"#utility.yul\":3731:3735   */\n      0x00\n        /* \"#utility.yul\":3769:3772   */\n      0xa0\n        /* \"#utility.yul\":3758:3767   */\n      dup3\n        /* \"#utility.yul\":3754:3773   */\n      add\n        /* \"#utility.yul\":3746:3773   */\n      swap1\n      pop\n        /* \"#utility.yul\":3783:3854   */\n      tag_249\n        /* \"#utility.yul\":3851:3852   */\n      0x00\n        /* \"#utility.yul\":3840:3849   */\n      dup4\n        /* \"#utility.yul\":3836:3853   */\n      add\n        /* \"#utility.yul\":3827:3833   */\n      dup9\n        /* \"#utility.yul\":3783:3854   */\n      tag_175\n      jump\t// in\n    tag_249:\n        /* \"#utility.yul\":3864:3936   */\n      tag_250\n        /* \"#utility.yul\":3932:3934   */\n      0x20\n        /* \"#utility.yul\":3921:3930   */\n      dup4\n        /* \"#utility.yul\":3917:3935   */\n      add\n        /* \"#utility.yul\":3908:3914   */\n      dup8\n        /* \"#utility.yul\":3864:3936   */\n      tag_175\n      jump\t// in\n    tag_250:\n        /* \"#utility.yul\":3946:4018   */\n      tag_251\n        /* \"#utility.yul\":4014:4016   */\n      0x40\n        /* \"#utility.yul\":4003:4012   */\n      dup4\n        /* \"#utility.yul\":3999:4017   */\n      add\n        /* \"#utility.yul\":3990:3996   */\n      dup7\n        /* \"#utility.yul\":3946:4018   */\n      tag_175\n      jump\t// in\n    tag_251:\n        /* \"#utility.yul\":4028:4100   */\n      tag_252\n        /* \"#utility.yul\":4096:4098   */\n      0x60\n        /* \"#utility.yul\":4085:4094   */\n      dup4\n        /* \"#utility.yul\":4081:4099   */\n      add\n        /* \"#utility.yul\":4072:4078   */\n      dup6\n        /* \"#utility.yul\":4028:4100   */\n      tag_175\n      jump\t// in\n    tag_252:\n        /* \"#utility.yul\":4110:4183   */\n      tag_253\n        /* \"#utility.yul\":4178:4181   */\n      0x80\n        /* \"#utility.yul\":4167:4176   */\n      dup4\n        /* \"#utility.yul\":4163:4182   */\n      add\n        /* \"#utility.yul\":4154:4160   */\n      dup5\n        /* \"#utility.yul\":4110:4183   */\n      tag_175\n      jump\t// in\n    tag_253:\n        /* \"#utility.yul\":3526:4190   */\n      swap7\n      swap6\n      pop\n      pop\n      pop\n      pop\n      pop\n      pop\n      jump\t// out\n        /* \"#utility.yul\":4196:4525   */\n    tag_40:\n        /* \"#utility.yul\":4255:4261   */\n      0x00\n        /* \"#utility.yul\":4304:4306   */\n      0x20\n        /* \"#utility.yul\":4292:4301   */\n      dup3\n        /* \"#utility.yul\":4283:4290   */\n      dup5\n        /* \"#utility.yul\":4279:4302   */\n      sub\n        /* \"#utility.yul\":4275:4307   */\n      slt\n        /* \"#utility.yul\":4272:4391   */\n      iszero\n      tag_255\n      jumpi\n        /* \"#utility.yul\":4310:4389   */\n      tag_256\n      tag_162\n      jump\t// in\n    tag_256:\n        /* \"#utility.yul\":4272:4391   */\n    tag_255:\n        /* \"#utility.yul\":4430:4431   */\n      0x00\n        /* \"#utility.yul\":4455:4508   */\n      tag_257\n        /* \"#utility.yul\":4500:4507   */\n      dup5\n        /* \"#utility.yul\":4491:4497   */\n      dup3\n        /* \"#utility.yul\":4480:4489   */\n      dup6\n        /* \"#utility.yul\":4476:4498   */\n      add\n        /* \"#utility.yul\":4455:4508   */\n      tag_170\n      jump\t// in\n    tag_257:\n        /* \"#utility.yul\":4445:4508   */\n      swap2\n      pop\n        /* \"#utility.yul\":4401:4518   */\n      pop\n        /* \"#utility.yul\":4196:4525   */\n      swap3\n      swap2\n      pop\n      pop\n      jump\t// out\n        /* \"#utility.yul\":4531:4645   */\n    tag_176:\n        /* \"#utility.yul\":4598:4604   */\n      0x00\n        /* \"#utility.yul\":4632:4637   */\n      dup2\n        /* \"#utility.yul\":4626:4638   */\n      mload\n        /* \"#utility.yul\":4616:4638   */\n      swap1\n      pop\n        /* \"#utility.yul\":4531:4645   */\n      swap2\n      swap1\n      pop\n      jump\t// out\n        /* \"#utility.yul\":4651:4835   */\n    tag_177:\n        /* \"#utility.yul\":4750:4761   */\n      0x00\n        /* \"#utility.yul\":4784:4790   */\n      dup3\n        /* \"#utility.yul\":4779:4782   */\n      dup3\n        /* \"#utility.yul\":4772:4791   */\n      mstore\n        /* \"#utility.yul\":4824:4828   */\n      0x20\n        /* \"#utility.yul\":4819:4822   */\n      dup3\n        /* \"#utility.yul\":4815:4829   */\n      add\n        /* \"#utility.yul\":4800:4829   */\n      swap1\n      pop\n        /* \"#utility.yul\":4651:4835   */\n      swap3\n      swap2\n      pop\n      pop\n      jump\t// out\n        /* \"#utility.yul\":4841:4973   */\n    tag_178:\n        /* \"#utility.yul\":4908:4912   */\n      0x00\n        /* \"#utility.yul\":4931:4934   */\n      dup2\n        /* \"#utility.yul\":4923:4934   */\n      swap1\n      pop\n        /* \"#utility.yul\":4961:4965   */\n      0x20\n        /* \"#utility.yul\":4956:4959   */\n      dup3\n        /* \"#utility.yul\":4952:4966   */\n      add\n        /* \"#utility.yul\":4944:4966   */\n      swap1\n      pop\n        /* \"#utility.yul\":4841:4973   */\n      swap2\n      swap1\n      pop\n      jump\t// out\n        /* \"#utility.yul\":4979:5087   */\n    tag_179:\n        /* \"#utility.yul\":5056:5080   */\n      tag_262\n        /* \"#utility.yul\":5074:5079   */\n      dup2\n        /* \"#utility.yul\":5056:5080   */\n      tag_171\n      jump\t// in\n    tag_262:\n        /* \"#utility.yul\":5051:5054   */\n      dup3\n        /* \"#utility.yul\":5044:5081   */\n      mstore\n        /* \"#utility.yul\":4979:5087   */\n      pop\n      pop\n      jump\t// out\n        /* \"#utility.yul\":5093:5272   */\n    tag_180:\n        /* \"#utility.yul\":5162:5172   */\n      0x00\n        /* \"#utility.yul\":5183:5229   */\n      tag_264\n        /* \"#utility.yul\":5225:5228   */\n      dup4\n        /* \"#utility.yul\":5217:5223   */\n      dup4\n        /* \"#utility.yul\":5183:5229   */\n      tag_179\n      jump\t// in\n    tag_264:\n        /* \"#utility.yul\":5261:5265   */\n      0x20\n        /* \"#utility.yul\":5256:5259   */\n      dup4\n        /* \"#utility.yul\":5252:5266   */\n      add\n        /* \"#utility.yul\":5238:5266   */\n      swap1\n      pop\n        /* \"#utility.yul\":5093:5272   */\n      swap3\n      swap2\n      pop\n      pop\n      jump\t// out\n        /* \"#utility.yul\":5278:5391   */\n    tag_181:\n        /* \"#utility.yul\":5348:5352   */\n      0x00\n        /* \"#utility.yul\":5380:5384   */\n      0x20\n        /* \"#utility.yul\":5375:5378   */\n      dup3\n        /* \"#utility.yul\":5371:5385   */\n      add\n        /* \"#utility.yul\":5363:5385   */\n      swap1\n      pop\n        /* \"#utility.yul\":5278:5391   */\n      swap2\n      swap1\n      pop\n      jump\t// out\n        /* \"#utility.yul\":5427:6159   */\n    tag_182:\n        /* \"#utility.yul\":5546:5549   */\n      0x00\n        /* \"#utility.yul\":5575:5629   */\n      tag_267\n        /* \"#utility.yul\":5623:5628   */\n      dup3\n        /* \"#utility.yul\":5575:5629   */\n      tag_176\n      jump\t// in\n    tag_267:\n        /* \"#utility.yul\":5645:5731   */\n      tag_268\n        /* \"#utility.yul\":5724:5730   */\n      dup2\n        /* \"#utility.yul\":5719:5722   */\n      dup6\n        /* \"#utility.yul\":5645:5731   */\n      tag_177\n      jump\t// in\n    tag_268:\n        /* \"#utility.yul\":5638:5731   */\n      swap4\n      pop\n        /* \"#utility.yul\":5755:5811   */\n      tag_269\n        /* \"#utility.yul\":5805:5810   */\n      dup4\n        /* \"#utility.yul\":5755:5811   */\n      tag_178\n      jump\t// in\n    tag_269:\n        /* \"#utility.yul\":5834:5841   */\n      dup1\n        /* \"#utility.yul\":5865:5866   */\n      0x00\n        /* \"#utility.yul\":5850:6134   */\n    tag_270:\n        /* \"#utility.yul\":5875:5881   */\n      dup4\n        /* \"#utility.yul\":5872:5873   */\n      dup2\n        /* \"#utility.yul\":5869:5882   */\n      lt\n        /* \"#utility.yul\":5850:6134   */\n      iszero\n      tag_272\n      jumpi\n        /* \"#utility.yul\":5951:5957   */\n      dup2\n        /* \"#utility.yul\":5945:5958   */\n      mload\n        /* \"#utility.yul\":5978:6041   */\n      tag_273\n        /* \"#utility.yul\":6037:6040   */\n      dup9\n        /* \"#utility.yul\":6022:6035   */\n      dup3\n        /* \"#utility.yul\":5978:6041   */\n      tag_180\n      jump\t// in\n    tag_273:\n        /* \"#utility.yul\":5971:6041   */\n      swap8\n      pop\n        /* \"#utility.yul\":6064:6124   */\n      tag_274\n        /* \"#utility.yul\":6117:6123   */\n      dup4\n        /* \"#utility.yul\":6064:6124   */\n      tag_181\n      jump\t// in\n    tag_274:\n        /* \"#utility.yul\":6054:6124   */\n      swap3\n      pop\n        /* \"#utility.yul\":5910:6134   */\n      pop\n        /* \"#utility.yul\":5897:5898   */\n      0x01\n        /* \"#utility.yul\":5894:5895   */\n      dup2\n        /* \"#utility.yul\":5890:5899   */\n      add\n        /* \"#utility.yul\":5885:5899   */\n      swap1\n      pop\n        /* \"#utility.yul\":5850:6134   */\n      jump(tag_270)\n    tag_272:\n        /* \"#utility.yul\":5854:5868   */\n      pop\n        /* \"#utility.yul\":6150:6153   */\n      dup6\n        /* \"#utility.yul\":6143:6153   */\n      swap4\n      pop\n        /* \"#utility.yul\":5551:6159   */\n      pop\n      pop\n      pop\n        /* \"#utility.yul\":5427:6159   */\n      swap3\n      swap2\n      pop\n      pop\n      jump\t// out\n        /* \"#utility.yul\":6165:6538   */\n    tag_50:\n        /* \"#utility.yul\":6308:6312   */\n      0x00\n        /* \"#utility.yul\":6346:6348   */\n      0x20\n        /* \"#utility.yul\":6335:6344   */\n      dup3\n        /* \"#utility.yul\":6331:6349   */\n      add\n        /* \"#utility.yul\":6323:6349   */\n      swap1\n      pop\n        /* \"#utility.yul\":6395:6404   */\n      dup2\n        /* \"#utility.yul\":6389:6393   */\n      dup2\n        /* \"#utility.yul\":6385:6405   */\n      sub\n        /* \"#utility.yul\":6381:6382   */\n      0x00\n        /* \"#utility.yul\":6370:6379   */\n      dup4\n        /* \"#utility.yul\":6366:6383   */\n      add\n        /* \"#utility.yul\":6359:6406   */\n      mstore\n        /* \"#utility.yul\":6423:6531   */\n      tag_276\n        /* \"#utility.yul\":6526:6530   */\n      dup2\n        /* \"#utility.yul\":6517:6523   */\n      dup5\n        /* \"#utility.yul\":6423:6531   */\n      tag_182\n      jump\t// in\n    tag_276:\n        /* \"#utility.yul\":6415:6531   */\n      swap1\n      pop\n        /* \"#utility.yul\":6165:6538   */\n      swap3\n      swap2\n      pop\n      pop\n      jump\t// out\n        /* \"#utility.yul\":6544:6604   */\n    tag_183:\n        /* \"#utility.yul\":6572:6575   */\n      0x00\n        /* \"#utility.yul\":6593:6598   */\n      dup2\n        /* \"#utility.yul\":6586:6598   */\n      swap1\n      pop\n        /* \"#utility.yul\":6544:6604   */\n      swap2\n      swap1\n      pop\n      jump\t// out\n        /* \"#utility.yul\":6610:6752   */\n    tag_184:\n        /* \"#utility.yul\":6660:6669   */\n      0x00\n        /* \"#utility.yul\":6693:6746   */\n      tag_279\n        /* \"#utility.yul\":6711:6745   */\n      tag_280\n        /* \"#utility.yul\":6720:6744   */\n      tag_281\n        /* \"#utility.yul\":6738:6743   */\n      dup5\n        /* \"#utility.yul\":6720:6744   */\n      tag_164\n      jump\t// in\n    tag_281:\n        /* \"#utility.yul\":6711:6745   */\n      tag_183\n      jump\t// in\n    tag_280:\n        /* \"#utility.yul\":6693:6746   */\n      tag_164\n      jump\t// in\n    tag_279:\n        /* \"#utility.yul\":6680:6746   */\n      swap1\n      pop\n        /* \"#utility.yul\":6610:6752   */\n      swap2\n      swap1\n      pop\n      jump\t// out\n        /* \"#utility.yul\":6758:6884   */\n    tag_185:\n        /* \"#utility.yul\":6808:6817   */\n      0x00\n        /* \"#utility.yul\":6841:6878   */\n      tag_283\n        /* \"#utility.yul\":6872:6877   */\n      dup3\n        /* \"#utility.yul\":6841:6878   */\n      tag_184\n      jump\t// in\n    tag_283:\n        /* \"#utility.yul\":6828:6878   */\n      swap1\n      pop\n        /* \"#utility.yul\":6758:6884   */\n      swap2\n      swap1\n      pop\n      jump\t// out\n        /* \"#utility.yul\":6890:7029   */\n    tag_186:\n        /* \"#utility.yul\":6953:6962   */\n      0x00\n        /* \"#utility.yul\":6986:7023   */\n      tag_285\n        /* \"#utility.yul\":7017:7022   */\n      dup3\n        /* \"#utility.yul\":6986:7023   */\n      tag_185\n      jump\t// in\n    tag_285:\n        /* \"#utility.yul\":6973:7023   */\n      swap1\n      pop\n        /* \"#utility.yul\":6890:7029   */\n      swap2\n      swap1\n      pop\n      jump\t// out\n        /* \"#utility.yul\":7035:7192   */\n    tag_187:\n        /* \"#utility.yul\":7135:7185   */\n      tag_287\n        /* \"#utility.yul\":7179:7184   */\n      dup2\n        /* \"#utility.yul\":7135:7185   */\n      tag_186\n      jump\t// in\n    tag_287:\n        /* \"#utility.yul\":7130:7133   */\n      dup3\n        /* \"#utility.yul\":7123:7186   */\n      mstore\n        /* \"#utility.yul\":7035:7192   */\n      pop\n      pop\n      jump\t// out\n        /* \"#utility.yul\":7198:7446   */\n    tag_62:\n        /* \"#utility.yul\":7304:7308   */\n      0x00\n        /* \"#utility.yul\":7342:7344   */\n      0x20\n        /* \"#utility.yul\":7331:7340   */\n      dup3\n        /* \"#utility.yul\":7327:7345   */\n      add\n        /* \"#utility.yul\":7319:7345   */\n      swap1\n      pop\n        /* \"#utility.yul\":7355:7439   */\n      tag_289\n        /* \"#utility.yul\":7436:7437   */\n      0x00\n        /* \"#utility.yul\":7425:7434   */\n      dup4\n        /* \"#utility.yul\":7421:7438   */\n      add\n        /* \"#utility.yul\":7412:7418   */\n      dup5\n        /* \"#utility.yul\":7355:7439   */\n      tag_187\n      jump\t// in\n    tag_289:\n        /* \"#utility.yul\":7198:7446   */\n      swap3\n      swap2\n      pop\n      pop\n      jump\t// out\n        /* \"#utility.yul\":7452:7674   */\n    tag_67:\n        /* \"#utility.yul\":7545:7549   */\n      0x00\n        /* \"#utility.yul\":7583:7585   */\n      0x20\n        /* \"#utility.yul\":7572:7581   */\n      dup3\n        /* \"#utility.yul\":7568:7586   */\n      add\n        /* \"#utility.yul\":7560:7586   */\n      swap1\n      pop\n        /* \"#utility.yul\":7596:7667   */\n      tag_291\n        /* \"#utility.yul\":7664:7665   */\n      0x00\n        /* \"#utility.yul\":7653:7662   */\n      dup4\n        /* \"#utility.yul\":7649:7666   */\n      add\n        /* \"#utility.yul\":7640:7646   */\n      dup5\n        /* \"#utility.yul\":7596:7667   */\n      tag_175\n      jump\t// in\n    tag_291:\n        /* \"#utility.yul\":7452:7674   */\n      swap3\n      swap2\n      pop\n      pop\n      jump\t// out\n        /* \"#utility.yul\":7680:7849   */\n    tag_188:\n        /* \"#utility.yul\":7764:7775   */\n      0x00\n        /* \"#utility.yul\":7798:7804   */\n      dup3\n        /* \"#utility.yul\":7793:7796   */\n      dup3\n        /* \"#utility.yul\":7786:7805   */\n      mstore\n        /* \"#utility.yul\":7838:7842   */\n      0x20\n        /* \"#utility.yul\":7833:7836   */\n      dup3\n        /* \"#utility.yul\":7829:7843   */\n      add\n        /* \"#utility.yul\":7814:7843   */\n      swap1\n      pop\n        /* \"#utility.yul\":7680:7849   */\n      swap3\n      swap2\n      pop\n      pop\n      jump\t// out\n        /* \"#utility.yul\":7855:8037   */\n    tag_189:\n        /* \"#utility.yul\":7995:8029   */\n      0x4f776e61626c653a2063616c6c6572206973206e6f7420746865206f776e6572\n        /* \"#utility.yul\":7991:7992   */\n      0x00\n        /* \"#utility.yul\":7983:7989   */\n      dup3\n        /* \"#utility.yul\":7979:7993   */\n      add\n        /* \"#utility.yul\":7972:8030   */\n      mstore\n        /* \"#utility.yul\":7855:8037   */\n      pop\n      jump\t// out\n        /* \"#utility.yul\":8043:8409   */\n    tag_190:\n        /* \"#utility.yul\":8185:8188   */\n      0x00\n        /* \"#utility.yul\":8206:8273   */\n      tag_295\n        /* \"#utility.yul\":8270:8272   */\n      0x20\n        /* \"#utility.yul\":8265:8268   */\n      dup4\n        /* \"#utility.yul\":8206:8273   */\n      tag_188\n      jump\t// in\n    tag_295:\n        /* \"#utility.yul\":8199:8273   */\n      swap2\n      pop\n        /* \"#utility.yul\":8282:8375   */\n      tag_296\n        /* \"#utility.yul\":8371:8374   */\n      dup3\n        /* \"#utility.yul\":8282:8375   */\n      tag_189\n      jump\t// in\n    tag_296:\n        /* \"#utility.yul\":8400:8402   */\n      0x20\n        /* \"#utility.yul\":8395:8398   */\n      dup3\n        /* \"#utility.yul\":8391:8403   */\n      add\n        /* \"#utility.yul\":8384:8403   */\n      swap1\n      pop\n        /* \"#utility.yul\":8043:8409   */\n      swap2\n      swap1\n      pop\n      jump\t// out\n        /* \"#utility.yul\":8415:8834   */\n    tag_78:\n        /* \"#utility.yul\":8581:8585   */\n      0x00\n        /* \"#utility.yul\":8619:8621   */\n      0x20\n        /* \"#utility.yul\":8608:8617   */\n      dup3\n        /* \"#utility.yul\":8604:8622   */\n      add\n        /* \"#utility.yul\":8596:8622   */\n      swap1\n      pop\n        /* \"#utility.yul\":8668:8677   */\n      dup2\n        /* \"#utility.yul\":8662:8666   */\n      dup2\n        /* \"#utility.yul\":8658:8678   */\n      sub\n        /* \"#utility.yul\":8654:8655   */\n      0x00\n        /* \"#utility.yul\":8643:8652   */\n      dup4\n        /* \"#utility.yul\":8639:8656   */\n      add\n        /* \"#utility.yul\":8632:8679   */\n      mstore\n        /* \"#utility.yul\":8696:8827   */\n      tag_298\n        /* \"#utility.yul\":8822:8826   */\n      dup2\n        /* \"#utility.yul\":8696:8827   */\n      tag_190\n      jump\t// in\n    tag_298:\n        /* \"#utility.yul\":8688:8827   */\n      swap1\n      pop\n        /* \"#utility.yul\":8415:8834   */\n      swap2\n      swap1\n      pop\n      jump\t// out\n        /* \"#utility.yul\":8840:9009   */\n    tag_191:\n        /* \"#utility.yul\":8980:9001   */\n      0x416c726561647920496e697469616c697a656400000000000000000000000000\n        /* \"#utility.yul\":8976:8977   */\n      0x00\n        /* \"#utility.yul\":8968:8974   */\n      dup3\n        /* \"#utility.yul\":8964:8978   */\n      add\n        /* \"#utility.yul\":8957:9002   */\n      mstore\n        /* \"#utility.yul\":8840:9009   */\n      pop\n      jump\t// out\n        /* \"#utility.yul\":9015:9381   */\n    tag_192:\n        /* \"#utility.yul\":9157:9160   */\n      0x00\n        /* \"#utility.yul\":9178:9245   */\n      tag_301\n        /* \"#utility.yul\":9242:9244   */\n      0x13\n        /* \"#utility.yul\":9237:9240   */\n      dup4\n        /* \"#utility.yul\":9178:9245   */\n      tag_188\n      jump\t// in\n    tag_301:\n        /* \"#utility.yul\":9171:9245   */\n      swap2\n      pop\n        /* \"#utility.yul\":9254:9347   */\n      tag_302\n        /* \"#utility.yul\":9343:9346   */\n      dup3\n        /* \"#utility.yul\":9254:9347   */\n      tag_191\n      jump\t// in\n    tag_302:\n        /* \"#utility.yul\":9372:9374   */\n      0x20\n        /* \"#utility.yul\":9367:9370   */\n      dup3\n        /* \"#utility.yul\":9363:9375   */\n      add\n        /* \"#utility.yul\":9356:9375   */\n      swap1\n      pop\n        /* \"#utility.yul\":9015:9381   */\n      swap2\n      swap1\n      pop\n      jump\t// out\n        /* \"#utility.yul\":9387:9806   */\n    tag_82:\n        /* \"#utility.yul\":9553:9557   */\n      0x00\n        /* \"#utility.yul\":9591:9593   */\n      0x20\n        /* \"#utility.yul\":9580:9589   */\n      dup3\n        /* \"#utility.yul\":9576:9594   */\n      add\n        /* \"#utility.yul\":9568:9594   */\n      swap1\n      pop\n        /* \"#utility.yul\":9640:9649   */\n      dup2\n        /* \"#utility.yul\":9634:9638   */\n      dup2\n        /* \"#utility.yul\":9630:9650   */\n      sub\n        /* \"#utility.yul\":9626:9627   */\n      0x00\n        /* \"#utility.yul\":9615:9624   */\n      dup4\n        /* \"#utility.yul\":9611:9628   */\n      add\n        /* \"#utility.yul\":9604:9651   */\n      mstore\n        /* \"#utility.yul\":9668:9799   */\n      tag_304\n        /* \"#utility.yul\":9794:9798   */\n      dup2\n        /* \"#utility.yul\":9668:9799   */\n      tag_192\n      jump\t// in\n    tag_304:\n        /* \"#utility.yul\":9660:9799   */\n      swap1\n      pop\n        /* \"#utility.yul\":9387:9806   */\n      swap2\n      swap1\n      pop\n      jump\t// out\n        /* \"#utility.yul\":9812:10254   */\n    tag_85:\n        /* \"#utility.yul\":9961:9965   */\n      0x00\n        /* \"#utility.yul\":9999:10001   */\n      0x60\n        /* \"#utility.yul\":9988:9997   */\n      dup3\n        /* \"#utility.yul\":9984:10002   */\n      add\n        /* \"#utility.yul\":9976:10002   */\n      swap1\n      pop\n        /* \"#utility.yul\":10012:10083   */\n      tag_306\n        /* \"#utility.yul\":10080:10081   */\n      0x00\n        /* \"#utility.yul\":10069:10078   */\n      dup4\n        /* \"#utility.yul\":10065:10082   */\n      add\n        /* \"#utility.yul\":10056:10062   */\n      dup7\n        /* \"#utility.yul\":10012:10083   */\n      tag_174\n      jump\t// in\n    tag_306:\n        /* \"#utility.yul\":10093:10165   */\n      tag_307\n        /* \"#utility.yul\":10161:10163   */\n      0x20\n        /* \"#utility.yul\":10150:10159   */\n      dup4\n        /* \"#utility.yul\":10146:10164   */\n      add\n        /* \"#utility.yul\":10137:10143   */\n      dup6\n        /* \"#utility.yul\":10093:10165   */\n      tag_174\n      jump\t// in\n    tag_307:\n        /* \"#utility.yul\":10175:10247   */\n      tag_308\n        /* \"#utility.yul\":10243:10245   */\n      0x40\n        /* \"#utility.yul\":10232:10241   */\n      dup4\n        /* \"#utility.yul\":10228:10246   */\n      add\n        /* \"#utility.yul\":10219:10225   */\n      dup5\n        /* \"#utility.yul\":10175:10247   */\n      tag_175\n      jump\t// in\n    tag_308:\n        /* \"#utility.yul\":9812:10254   */\n      swap5\n      swap4\n      pop\n      pop\n      pop\n      pop\n      jump\t// out\n        /* \"#utility.yul\":10260:10403   */\n    tag_193:\n        /* \"#utility.yul\":10317:10322   */\n      0x00\n        /* \"#utility.yul\":10348:10354   */\n      dup2\n        /* \"#utility.yul\":10342:10355   */\n      mload\n        /* \"#utility.yul\":10333:10355   */\n      swap1\n      pop\n        /* \"#utility.yul\":10364:10397   */\n      tag_310\n        /* \"#utility.yul\":10391:10396   */\n      dup2\n        /* \"#utility.yul\":10364:10397   */\n      tag_172\n      jump\t// in\n    tag_310:\n        /* \"#utility.yul\":10260:10403   */\n      swap3\n      swap2\n      pop\n      pop\n      jump\t// out\n        /* \"#utility.yul\":10409:10760   */\n    tag_101:\n        /* \"#utility.yul\":10479:10485   */\n      0x00\n        /* \"#utility.yul\":10528:10530   */\n      0x20\n        /* \"#utility.yul\":10516:10525   */\n      dup3\n        /* \"#utility.yul\":10507:10514   */\n      dup5\n        /* \"#utility.yul\":10503:10526   */\n      sub\n        /* \"#utility.yul\":10499:10531   */\n      slt\n        /* \"#utility.yul\":10496:10615   */\n      iszero\n      tag_312\n      jumpi\n        /* \"#utility.yul\":10534:10613   */\n      tag_313\n      tag_162\n      jump\t// in\n    tag_313:\n        /* \"#utility.yul\":10496:10615   */\n    tag_312:\n        /* \"#utility.yul\":10654:10655   */\n      0x00\n        /* \"#utility.yul\":10679:10743   */\n      tag_314\n        /* \"#utility.yul\":10735:10742   */\n      dup5\n        /* \"#utility.yul\":10726:10732   */\n      dup3\n        /* \"#utility.yul\":10715:10724   */\n      dup6\n        /* \"#utility.yul\":10711:10733   */\n      add\n        /* \"#utility.yul\":10679:10743   */\n      tag_193\n      jump\t// in\n    tag_314:\n        /* \"#utility.yul\":10669:10743   */\n      swap2\n      pop\n        /* \"#utility.yul\":10625:10753   */\n      pop\n        /* \"#utility.yul\":10409:10760   */\n      swap3\n      swap2\n      pop\n      pop\n      jump\t// out\n        /* \"#utility.yul\":10766:10994   */\n    tag_194:\n        /* \"#utility.yul\":10906:10940   */\n      0x4572726f723a2041646d696e20646f6573206e6f74206861766520656e6f7567\n        /* \"#utility.yul\":10902:10903   */\n      0x00\n        /* \"#utility.yul\":10894:10900   */\n      dup3\n        /* \"#utility.yul\":10890:10904   */\n      add\n        /* \"#utility.yul\":10883:10941   */\n      mstore\n        /* \"#utility.yul\":10975:10986   */\n      0x682062616c616e63650000000000000000000000000000000000000000000000\n        /* \"#utility.yul\":10970:10972   */\n      0x20\n        /* \"#utility.yul\":10962:10968   */\n      dup3\n        /* \"#utility.yul\":10958:10973   */\n      add\n        /* \"#utility.yul\":10951:10987   */\n      mstore\n        /* \"#utility.yul\":10766:10994   */\n      pop\n      jump\t// out\n        /* \"#utility.yul\":11000:11366   */\n    tag_195:\n        /* \"#utility.yul\":11142:11145   */\n      0x00\n        /* \"#utility.yul\":11163:11230   */\n      tag_317\n        /* \"#utility.yul\":11227:11229   */\n      0x29\n        /* \"#utility.yul\":11222:11225   */\n      dup4\n        /* \"#utility.yul\":11163:11230   */\n      tag_188\n      jump\t// in\n    tag_317:\n        /* \"#utility.yul\":11156:11230   */\n      swap2\n      pop\n        /* \"#utility.yul\":11239:11332   */\n      tag_318\n        /* \"#utility.yul\":11328:11331   */\n      dup3\n        /* \"#utility.yul\":11239:11332   */\n      tag_194\n      jump\t// in\n    tag_318:\n        /* \"#utility.yul\":11357:11359   */\n      0x40\n        /* \"#utility.yul\":11352:11355   */\n      dup3\n        /* \"#utility.yul\":11348:11360   */\n      add\n        /* \"#utility.yul\":11341:11360   */\n      swap1\n      pop\n        /* \"#utility.yul\":11000:11366   */\n      swap2\n      swap1\n      pop\n      jump\t// out\n        /* \"#utility.yul\":11372:11791   */\n    tag_104:\n        /* \"#utility.yul\":11538:11542   */\n      0x00\n        /* \"#utility.yul\":11576:11578   */\n      0x20\n        /* \"#utility.yul\":11565:11574   */\n      dup3\n        /* \"#utility.yul\":11561:11579   */\n      add\n        /* \"#utility.yul\":11553:11579   */\n      swap1\n      pop\n        /* \"#utility.yul\":11625:11634   */\n      dup2\n        /* \"#utility.yul\":11619:11623   */\n      dup2\n        /* \"#utility.yul\":11615:11635   */\n      sub\n        /* \"#utility.yul\":11611:11612   */\n      0x00\n        /* \"#utility.yul\":11600:11609   */\n      dup4\n        /* \"#utility.yul\":11596:11613   */\n      add\n        /* \"#utility.yul\":11589:11636   */\n      mstore\n        /* \"#utility.yul\":11653:11784   */\n      tag_320\n        /* \"#utility.yul\":11779:11783   */\n      dup2\n        /* \"#utility.yul\":11653:11784   */\n      tag_195\n      jump\t// in\n    tag_320:\n        /* \"#utility.yul\":11645:11784   */\n      swap1\n      pop\n        /* \"#utility.yul\":11372:11791   */\n      swap2\n      swap1\n      pop\n      jump\t// out\n        /* \"#utility.yul\":11797:12025   */\n    tag_196:\n        /* \"#utility.yul\":11937:11971   */\n      0x4572726f723a204f776e657220646f6573206e6f74206861766520656e6f7567\n        /* \"#utility.yul\":11933:11934   */\n      0x00\n        /* \"#utility.yul\":11925:11931   */\n      dup3\n        /* \"#utility.yul\":11921:11935   */\n      add\n        /* \"#utility.yul\":11914:11972   */\n      mstore\n        /* \"#utility.yul\":12006:12017   */\n      0x682062616c616e63650000000000000000000000000000000000000000000000\n        /* \"#utility.yul\":12001:12003   */\n      0x20\n        /* \"#utility.yul\":11993:11999   */\n      dup3\n        /* \"#utility.yul\":11989:12004   */\n      add\n        /* \"#utility.yul\":11982:12018   */\n      mstore\n        /* \"#utility.yul\":11797:12025   */\n      pop\n      jump\t// out\n        /* \"#utility.yul\":12031:12397   */\n    tag_197:\n        /* \"#utility.yul\":12173:12176   */\n      0x00\n        /* \"#utility.yul\":12194:12261   */\n      tag_323\n        /* \"#utility.yul\":12258:12260   */\n      0x29\n        /* \"#utility.yul\":12253:12256   */\n      dup4\n        /* \"#utility.yul\":12194:12261   */\n      tag_188\n      jump\t// in\n    tag_323:\n        /* \"#utility.yul\":12187:12261   */\n      swap2\n      pop\n        /* \"#utility.yul\":12270:12363   */\n      tag_324\n        /* \"#utility.yul\":12359:12362   */\n      dup3\n        /* \"#utility.yul\":12270:12363   */\n      tag_196\n      jump\t// in\n    tag_324:\n        /* \"#utility.yul\":12388:12390   */\n      0x40\n        /* \"#utility.yul\":12383:12386   */\n      dup3\n        /* \"#utility.yul\":12379:12391   */\n      add\n        /* \"#utility.yul\":12372:12391   */\n      swap1\n      pop\n        /* \"#utility.yul\":12031:12397   */\n      swap2\n      swap1\n      pop\n      jump\t// out\n        /* \"#utility.yul\":12403:12822   */\n    tag_118:\n        /* \"#utility.yul\":12569:12573   */\n      0x00\n        /* \"#utility.yul\":12607:12609   */\n      0x20\n        /* \"#utility.yul\":12596:12605   */\n      dup3\n        /* \"#utility.yul\":12592:12610   */\n      add\n        /* \"#utility.yul\":12584:12610   */\n      swap1\n      pop\n        /* \"#utility.yul\":12656:12665   */\n      dup2\n        /* \"#utility.yul\":12650:12654   */\n      dup2\n        /* \"#utility.yul\":12646:12666   */\n      sub\n        /* \"#utility.yul\":12642:12643   */\n      0x00\n        /* \"#utility.yul\":12631:12640   */\n      dup4\n        /* \"#utility.yul\":12627:12644   */\n      add\n        /* \"#utility.yul\":12620:12667   */\n      mstore\n        /* \"#utility.yul\":12684:12815   */\n      tag_326\n        /* \"#utility.yul\":12810:12814   */\n      dup2\n        /* \"#utility.yul\":12684:12815   */\n      tag_197\n      jump\t// in\n    tag_326:\n        /* \"#utility.yul\":12676:12815   */\n      swap1\n      pop\n        /* \"#utility.yul\":12403:12822   */\n      swap2\n      swap1\n      pop\n      jump\t// out\n        /* \"#utility.yul\":12828:13008   */\n    tag_198:\n        /* \"#utility.yul\":12876:12953   */\n      0x4e487b7100000000000000000000000000000000000000000000000000000000\n        /* \"#utility.yul\":12873:12874   */\n      0x00\n        /* \"#utility.yul\":12866:12954   */\n      mstore\n        /* \"#utility.yul\":12973:12977   */\n      0x11\n        /* \"#utility.yul\":12970:12971   */\n      0x04\n        /* \"#utility.yul\":12963:12978   */\n      mstore\n        /* \"#utility.yul\":12997:13001   */\n      0x24\n        /* \"#utility.yul\":12994:12995   */\n      0x00\n        /* \"#utility.yul\":12987:13002   */\n      revert\n        /* \"#utility.yul\":13014:13362   */\n    tag_127:\n        /* \"#utility.yul\":13054:13061   */\n      0x00\n        /* \"#utility.yul\":13077:13097   */\n      tag_329\n        /* \"#utility.yul\":13095:13096   */\n      dup3\n        /* \"#utility.yul\":13077:13097   */\n      tag_171\n      jump\t// in\n    tag_329:\n        /* \"#utility.yul\":13072:13097   */\n      swap2\n      pop\n        /* \"#utility.yul\":13111:13131   */\n      tag_330\n        /* \"#utility.yul\":13129:13130   */\n      dup4\n        /* \"#utility.yul\":13111:13131   */\n      tag_171\n      jump\t// in\n    tag_330:\n        /* \"#utility.yul\":13106:13131   */\n      swap3\n      pop\n        /* \"#utility.yul\":13299:13300   */\n      dup2\n        /* \"#utility.yul\":13231:13297   */\n      0xffffffffffffffffffffffffffffffffffffffffffffffffffffffffffffffff\n        /* \"#utility.yul\":13227:13301   */\n      div\n        /* \"#utility.yul\":13224:13225   */\n      dup4\n        /* \"#utility.yul\":13221:13302   */\n      gt\n        /* \"#utility.yul\":13216:13217   */\n      dup3\n        /* \"#utility.yul\":13209:13218   */\n      iszero\n        /* \"#utility.yul\":13202:13219   */\n      iszero\n        /* \"#utility.yul\":13198:13303   */\n      and\n        /* \"#utility.yul\":13195:13326   */\n      iszero\n      tag_331\n      jumpi\n        /* \"#utility.yul\":13306:13324   */\n      tag_332\n      tag_198\n      jump\t// in\n    tag_332:\n        /* \"#utility.yul\":13195:13326   */\n    tag_331:\n        /* \"#utility.yul\":13354:13355   */\n      dup3\n        /* \"#utility.yul\":13351:13352   */\n      dup3\n        /* \"#utility.yul\":13347:13356   */\n      mul\n        /* \"#utility.yul\":13336:13356   */\n      swap1\n      pop\n        /* \"#utility.yul\":13014:13362   */\n      swap3\n      swap2\n      pop\n      pop\n      jump\t// out\n        /* \"#utility.yul\":13368:13593   */\n    tag_199:\n        /* \"#utility.yul\":13508:13542   */\n      0x4f776e61626c653a206e6577206f776e657220697320746865207a65726f2061\n        /* \"#utility.yul\":13504:13505   */\n      0x00\n        /* \"#utility.yul\":13496:13502   */\n      dup3\n        /* \"#utility.yul\":13492:13506   */\n      add\n        /* \"#utility.yul\":13485:13543   */\n      mstore\n        /* \"#utility.yul\":13577:13585   */\n      0x6464726573730000000000000000000000000000000000000000000000000000\n        /* \"#utility.yul\":13572:13574   */\n      0x20\n        /* \"#utility.yul\":13564:13570   */\n      dup3\n        /* \"#utility.yul\":13560:13575   */\n      add\n        /* \"#utility.yul\":13553:13586   */\n      mstore\n        /* \"#utility.yul\":13368:13593   */\n      pop\n      jump\t// out\n        /* \"#utility.yul\":13599:13965   */\n    tag_200:\n        /* \"#utility.yul\":13741:13744   */\n      0x00\n        /* \"#utility.yul\":13762:13829   */\n      tag_335\n        /* \"#utility.yul\":13826:13828   */\n      0x26\n        /* \"#utility.yul\":13821:13824   */\n      dup4\n        /* \"#utility.yul\":13762:13829   */\n      tag_188\n      jump\t// in\n    tag_335:\n        /* \"#utility.yul\":13755:13829   */\n      swap2\n      pop\n        /* \"#utility.yul\":13838:13931   */\n      tag_336\n        /* \"#utility.yul\":13927:13930   */\n      dup3\n        /* \"#utility.yul\":13838:13931   */\n      tag_199\n      jump\t// in\n    tag_336:\n        /* \"#utility.yul\":13956:13958   */\n      0x40\n        /* \"#utility.yul\":13951:13954   */\n      dup3\n        /* \"#utility.yul\":13947:13959   */\n      add\n        /* \"#utility.yul\":13940:13959   */\n      swap1\n      pop\n        /* \"#utility.yul\":13599:13965   */\n      swap2\n      swap1\n      pop\n      jump\t// out\n        /* \"#utility.yul\":13971:14390   */\n    tag_152:\n        /* \"#utility.yul\":14137:14141   */\n      0x00\n        /* \"#utility.yul\":14175:14177   */\n      0x20\n        /* \"#utility.yul\":14164:14173   */\n      dup3\n        /* \"#utility.yul\":14160:14178   */\n      add\n        /* \"#utility.yul\":14152:14178   */\n      swap1\n      pop\n        /* \"#utility.yul\":14224:14233   */\n      dup2\n        /* \"#utility.yul\":14218:14222   */\n      dup2\n        /* \"#utility.yul\":14214:14234   */\n      sub\n        /* \"#utility.yul\":14210:14211   */\n      0x00\n        /* \"#utility.yul\":14199:14208   */\n      dup4\n        /* \"#utility.yul\":14195:14212   */\n      add\n        /* \"#utility.yul\":14188:14235   */\n      mstore\n        /* \"#utility.yul\":14252:14383   */\n      tag_338\n        /* \"#utility.yul\":14378:14382   */\n      dup2\n        /* \"#utility.yul\":14252:14383   */\n      tag_200\n      jump\t// in\n    tag_338:\n        /* \"#utility.yul\":14244:14383   */\n      swap1\n      pop\n        /* \"#utility.yul\":13971:14390   */\n      swap2\n      swap1\n      pop\n      jump\t// out\n        /* \"#utility.yul\":14396:14576   */\n    tag_201:\n        /* \"#utility.yul\":14444:14521   */\n      0x4e487b7100000000000000000000000000000000000000000000000000000000\n        /* \"#utility.yul\":14441:14442   */\n      0x00\n        /* \"#utility.yul\":14434:14522   */\n      mstore\n        /* \"#utility.yul\":14541:14545   */\n      0x12\n        /* \"#utility.yul\":14538:14539   */\n      0x04\n        /* \"#utility.yul\":14531:14546   */\n      mstore\n        /* \"#utility.yul\":14565:14569   */\n      0x24\n        /* \"#utility.yul\":14562:14563   */\n      0x00\n        /* \"#utility.yul\":14555:14570   */\n      revert\n        /* \"#utility.yul\":14582:14767   */\n    tag_157:\n        /* \"#utility.yul\":14622:14623   */\n      0x00\n        /* \"#utility.yul\":14639:14659   */\n      tag_341\n        /* \"#utility.yul\":14657:14658   */\n      dup3\n        /* \"#utility.yul\":14639:14659   */\n      tag_171\n      jump\t// in\n    tag_341:\n        /* \"#utility.yul\":14634:14659   */\n      swap2\n      pop\n        /* \"#utility.yul\":14673:14693   */\n      tag_342\n        /* \"#utility.yul\":14691:14692   */\n      dup4\n        /* \"#utility.yul\":14673:14693   */\n      tag_171\n      jump\t// in\n    tag_342:\n        /* \"#utility.yul\":14668:14693   */\n      swap3\n      pop\n        /* \"#utility.yul\":14712:14713   */\n      dup3\n        /* \"#utility.yul\":14702:14737   */\n      tag_343\n      jumpi\n        /* \"#utility.yul\":14717:14735   */\n      tag_344\n      tag_201\n      jump\t// in\n    tag_344:\n        /* \"#utility.yul\":14702:14737   */\n    tag_343:\n        /* \"#utility.yul\":14759:14760   */\n      dup3\n        /* \"#utility.yul\":14756:14757   */\n      dup3\n        /* \"#utility.yul\":14752:14761   */\n      div\n        /* \"#utility.yul\":14747:14761   */\n      swap1\n      pop\n        /* \"#utility.yul\":14582:14767   */\n      swap3\n      swap2\n      pop\n      pop\n      jump\t// out\n\n    auxdata: 0xa2646970667358221220aed9aa113e24a4ae3faccc06cc9fb85c310816f9737cca154af74b2de2f3043664736f6c634300080e0033\n}\n",
				"bytecode": {
					"linkReferences": {},
					"object": "608060405234801561001057600080fd5b5061002d61002261003260201b60201c565b61003a60201b60201c565b6100fe565b600033905090565b60008060009054906101000a900473ffffffffffffffffffffffffffffffffffffffff169050816000806101000a81548173ffffffffffffffffffffffffffffffffffffffff021916908373ffffffffffffffffffffffffffffffffffffffff1602179055508173ffffffffffffffffffffffffffffffffffffffff168173ffffffffffffffffffffffffffffffffffffffff167f8be0079c531659141344cd1fd0a4f28419497f9722a3daafe3b4186f6b6457e060405160405180910390a35050565b6118dd8061010d6000396000f3fe6080604052600436106100a75760003560e01c80635f4fd1f7116100645780635f4fd1f7146101b1578063715018a6146101ee5780638da5cb5b14610205578063a77b2e3714610230578063af0afec91461025b578063f2fde38b14610286576100a7565b8063158ef93e146100ac5780631794bb3c146100d757806328f661e31461010057806329e78c821461012b5780632c1e816d1461016c5780632d296bf114610195575b600080fd5b3480156100b857600080fd5b506100c16102af565b6040516100ce9190611106565b60405180910390f35b3480156100e357600080fd5b506100fe60048036038101906100f991906111f8565b6102c2565b005b34801561010c57600080fd5b506101156104ce565b604051610122919061125a565b60405180910390f35b34801561013757600080fd5b50610152600480360381019061014d9190611275565b6104f4565b6040516101639594939291906112b1565b60405180910390f35b34801561017857600080fd5b50610193600480360381019061018e9190611304565b6106b3565b005b6101af60048036038101906101aa9190611275565b610773565b005b3480156101bd57600080fd5b506101d860048036038101906101d39190611304565b610d9a565b6040516101e591906113ef565b60405180910390f35b3480156101fa57600080fd5b50610203610e31565b005b34801561021157600080fd5b5061021a610eb9565b604051610227919061125a565b60405180910390f35b34801561023c57600080fd5b50610245610ee2565b6040516102529190611470565b60405180910390f35b34801561026757600080fd5b50610270610f08565b60405161027d919061148b565b60405180910390f35b34801561029257600080fd5b506102ad60048036038101906102a89190611304565b610f12565b005b600460009054906101000a900460ff1681565b6102ca611009565b73ffffffffffffffffffffffffffffffffffffffff166102e8610eb9565b73ffffffffffffffffffffffffffffffffffffffff161461033e576040517f08c379a000000000000000000000000000000000000000000000000000000000815260040161033590611503565b60405180910390fd5b60011515600460009054906101000a900460ff16151503610394576040517f08c379a000000000000000000000000000000000000000000000000000000000815260040161038b9061156f565b60405180910390fd5b82600260006101000a81548173ffffffffffffffffffffffffffffffffffffffff021916908373ffffffffffffffffffffffffffffffffffffffff16021790555081600160006101000a81548173ffffffffffffffffffffffffffffffffffffffff021916908373ffffffffffffffffffffffffffffffffffffffff160217905550600260009054906101000a900473ffffffffffffffffffffffffffffffffffffffff1673ffffffffffffffffffffffffffffffffffffffff1663b45ee9ef61045c610eb9565b84846040518463ffffffff1660e01b815260040161047c9392919061158f565b600060405180830381600087803b15801561049657600080fd5b505af11580156104aa573d6000803e3d6000fd5b505050506001600460006101000a81548160ff021916908315150217905550505050565b600160009054906101000a900473ffffffffffffffffffffffffffffffffffffffff1681565b6000806000806000600560003373ffffffffffffffffffffffffffffffffffffffff1673ffffffffffffffffffffffffffffffffffffffff168152602001908152602001600020600087815260200190815260200160002060000154600560003373ffffffffffffffffffffffffffffffffffffffff1673ffffffffffffffffffffffffffffffffffffffff168152602001908152602001600020600088815260200190815260200160002060010154600560003373ffffffffffffffffffffffffffffffffffffffff1673ffffffffffffffffffffffffffffffffffffffff168152602001908152602001600020600089815260200190815260200160002060020154600560003373ffffffffffffffffffffffffffffffffffffffff1673ffffffffffffffffffffffffffffffffffffffff16815260200190815260200160002060008a815260200190815260200160002060030154600560003373ffffffffffffffffffffffffffffffffffffffff1673ffffffffffffffffffffffffffffffffffffffff16815260200190815260200160002060008b8152602001908152602001600020600401549450945094509450945091939590929450565b6106bb611009565b73ffffffffffffffffffffffffffffffffffffffff166106d9610eb9565b73ffffffffffffffffffffffffffffffffffffffff161461072f576040517f08c379a000000000000000000000000000000000000000000000000000000000815260040161072690611503565b60405180910390fd5b80600160006101000a81548173ffffffffffffffffffffffffffffffffffffffff021916908373ffffffffffffffffffffffffffffffffffffffff16021790555050565b80600260009054906101000a900473ffffffffffffffffffffffffffffffffffffffff1673ffffffffffffffffffffffffffffffffffffffff1663e3d670d7600160009054906101000a900473ffffffffffffffffffffffffffffffffffffffff166040518263ffffffff1660e01b81526004016107f1919061125a565b602060405180830381865afa15801561080e573d6000803e3d6000fd5b505050506040513d601f19601f8201168201806040525081019061083291906115db565b11610872576040517f08c379a00000000000000000000000000000000000000000000000000000000081526004016108699061167a565b60405180910390fd5b600260009054906101000a900473ffffffffffffffffffffffffffffffffffffffff1673ffffffffffffffffffffffffffffffffffffffff1663b45ee9ef600160009054906101000a900473ffffffffffffffffffffffffffffffffffffffff1633846040518463ffffffff1660e01b81526004016108f39392919061158f565b600060405180830381600087803b15801561090d57600080fd5b505af1158015610921573d6000803e3d6000fd5b5050505060036000815480929190600101919050555060006003549050600354600560003373ffffffffffffffffffffffffffffffffffffffff1673ffffffffffffffffffffffffffffffffffffffff16815260200190815260200160002060008381526020019081526020016000206000018190555042600560003373ffffffffffffffffffffffffffffffffffffffff1673ffffffffffffffffffffffffffffffffffffffff16815260200190815260200160002060008381526020019081526020016000206001018190555081600560003373ffffffffffffffffffffffffffffffffffffffff1673ffffffffffffffffffffffffffffffffffffffff1681526020019081526020016000206000838152602001908152602001600020600201819055506000610a5e60028461101190919063ffffffff16565b905080600260009054906101000a900473ffffffffffffffffffffffffffffffffffffffff1673ffffffffffffffffffffffffffffffffffffffff1663e3d670d7610aa7610eb9565b6040518263ffffffff1660e01b8152600401610ac3919061125a565b602060405180830381865afa158015610ae0573d6000803e3d6000fd5b505050506040513d601f19601f82011682018060405250810190610b0491906115db565b11610b44576040517f08c379a0000000000000000000000000000000000000000000000000000000008152600401610b3b9061170c565b60405180910390fd5b600260009054906101000a900473ffffffffffffffffffffffffffffffffffffffff1673ffffffffffffffffffffffffffffffffffffffff1663b45ee9ef610b8a610eb9565b600160009054906101000a900473ffffffffffffffffffffffffffffffffffffffff16846040518463ffffffff1660e01b8152600401610bcc9392919061158f565b600060405180830381600087803b158015610be657600080fd5b505af1158015610bfa573d6000803e3d6000fd5b5050505080600560003373ffffffffffffffffffffffffffffffffffffffff1673ffffffffffffffffffffffffffffffffffffffff168152602001908152602001600020600084815260200190815260200160002060030181905550600660003373ffffffffffffffffffffffffffffffffffffffff1673ffffffffffffffffffffffffffffffffffffffff168152602001908152602001600020829080600181540180825580915050600190039060005260206000200160009091909190915055600160009054906101000a905050610cee6402540be400826001610ce0919061175b565b61101190919063ffffffff16565b50610cf7610eb9565b73ffffffffffffffffffffffffffffffffffffffff166108fc349081150290604051600060405180830381858888f19350505050158015610d3c573d6000803e3d6000fd5b5034600560003373ffffffffffffffffffffffffffffffffffffffff1673ffffffffffffffffffffffffffffffffffffffff168152602001908152602001600020600084815260200190815260200160002060040181905550505050565b6060600660008373ffffffffffffffffffffffffffffffffffffffff1673ffffffffffffffffffffffffffffffffffffffff168152602001908152602001600020805480602002602001604051908101604052809291908181526020018280548015610e2557602002820191906000526020600020905b815481526020019060010190808311610e11575b50505050509050919050565b610e39611009565b73ffffffffffffffffffffffffffffffffffffffff16610e57610eb9565b73ffffffffffffffffffffffffffffffffffffffff1614610ead576040517f08c379a0000000000000000000000000000000000000000000000000000000008152600401610ea490611503565b60405180910390fd5b610eb76000611027565b565b60008060009054906101000a900473ffffffffffffffffffffffffffffffffffffffff16905090565b600260009054906101000a900473ffffffffffffffffffffffffffffffffffffffff1681565b6000600354905090565b610f1a611009565b73ffffffffffffffffffffffffffffffffffffffff16610f38610eb9565b73ffffffffffffffffffffffffffffffffffffffff1614610f8e576040517f08c379a0000000000000000000000000000000000000000000000000000000008152600401610f8590611503565b60405180910390fd5b600073ffffffffffffffffffffffffffffffffffffffff168173ffffffffffffffffffffffffffffffffffffffff1603610ffd576040517f08c379a0000000000000000000000000000000000000000000000000000000008152600401610ff490611827565b60405180910390fd5b61100681611027565b50565b600033905090565b6000818361101f9190611876565b905092915050565b60008060009054906101000a900473ffffffffffffffffffffffffffffffffffffffff169050816000806101000a81548173ffffffffffffffffffffffffffffffffffffffff021916908373ffffffffffffffffffffffffffffffffffffffff1602179055508173ffffffffffffffffffffffffffffffffffffffff168173ffffffffffffffffffffffffffffffffffffffff167f8be0079c531659141344cd1fd0a4f28419497f9722a3daafe3b4186f6b6457e060405160405180910390a35050565b60008115159050919050565b611100816110eb565b82525050565b600060208201905061111b60008301846110f7565b92915050565b600080fd5b600073ffffffffffffffffffffffffffffffffffffffff82169050919050565b600061115182611126565b9050919050565b600061116382611146565b9050919050565b61117381611158565b811461117e57600080fd5b50565b6000813590506111908161116a565b92915050565b61119f81611146565b81146111aa57600080fd5b50565b6000813590506111bc81611196565b92915050565b6000819050919050565b6111d5816111c2565b81146111e057600080fd5b50565b6000813590506111f2816111cc565b92915050565b60008060006060848603121561121157611210611121565b5b600061121f86828701611181565b9350506020611230868287016111ad565b9250506040611241868287016111e3565b9150509250925092565b61125481611146565b82525050565b600060208201905061126f600083018461124b565b92915050565b60006020828403121561128b5761128a611121565b5b6000611299848285016111e3565b91505092915050565b6112ab816111c2565b82525050565b600060a0820190506112c660008301886112a2565b6112d360208301876112a2565b6112e060408301866112a2565b6112ed60608301856112a2565b6112fa60808301846112a2565b9695505050505050565b60006020828403121561131a57611319611121565b5b6000611328848285016111ad565b91505092915050565b600081519050919050565b600082825260208201905092915050565b6000819050602082019050919050565b611366816111c2565b82525050565b6000611378838361135d565b60208301905092915050565b6000602082019050919050565b600061139c82611331565b6113a6818561133c565b93506113b18361134d565b8060005b838110156113e25781516113c9888261136c565b97506113d483611384565b9250506001810190506113b5565b5085935050505092915050565b600060208201905081810360008301526114098184611391565b905092915050565b6000819050919050565b600061143661143161142c84611126565b611411565b611126565b9050919050565b60006114488261141b565b9050919050565b600061145a8261143d565b9050919050565b61146a8161144f565b82525050565b60006020820190506114856000830184611461565b92915050565b60006020820190506114a060008301846112a2565b92915050565b600082825260208201905092915050565b7f4f776e61626c653a2063616c6c6572206973206e6f7420746865206f776e6572600082015250565b60006114ed6020836114a6565b91506114f8826114b7565b602082019050919050565b6000602082019050818103600083015261151c816114e0565b9050919050565b7f416c726561647920496e697469616c697a656400000000000000000000000000600082015250565b60006115596013836114a6565b915061156482611523565b602082019050919050565b600060208201905081810360008301526115888161154c565b9050919050565b60006060820190506115a4600083018661124b565b6115b1602083018561124b565b6115be60408301846112a2565b949350505050565b6000815190506115d5816111cc565b92915050565b6000602082840312156115f1576115f0611121565b5b60006115ff848285016115c6565b91505092915050565b7f4572726f723a2041646d696e20646f6573206e6f74206861766520656e6f756760008201527f682062616c616e63650000000000000000000000000000000000000000000000602082015250565b60006116646029836114a6565b915061166f82611608565b604082019050919050565b6000602082019050818103600083015261169381611657565b9050919050565b7f4572726f723a204f776e657220646f6573206e6f74206861766520656e6f756760008201527f682062616c616e63650000000000000000000000000000000000000000000000602082015250565b60006116f66029836114a6565b91506117018261169a565b604082019050919050565b60006020820190508181036000830152611725816116e9565b9050919050565b7f4e487b7100000000000000000000000000000000000000000000000000000000600052601160045260246000fd5b6000611766826111c2565b9150611771836111c2565b9250817fffffffffffffffffffffffffffffffffffffffffffffffffffffffffffffffff04831182151516156117aa576117a961172c565b5b828202905092915050565b7f4f776e61626c653a206e6577206f776e657220697320746865207a65726f206160008201527f6464726573730000000000000000000000000000000000000000000000000000602082015250565b60006118116026836114a6565b915061181c826117b5565b604082019050919050565b6000602082019050818103600083015261184081611804565b9050919050565b7f4e487b7100000000000000000000000000000000000000000000000000000000600052601260045260246000fd5b6000611881826111c2565b915061188c836111c2565b92508261189c5761189b611847565b5b82820490509291505056fea2646970667358221220aed9aa113e24a4ae3faccc06cc9fb85c310816f9737cca154af74b2de2f3043664736f6c634300080e0033",
					"opcodes": "PUSH1 0x80 PUSH1 0x40 MSTORE CALLVALUE DUP1 ISZERO PUSH2 0x10 JUMPI PUSH1 0x0 DUP1 REVERT JUMPDEST POP PUSH2 0x2D PUSH2 0x22 PUSH2 0x32 PUSH1 0x20 SHL PUSH1 0x20 SHR JUMP JUMPDEST PUSH2 0x3A PUSH1 0x20 SHL PUSH1 0x20 SHR JUMP JUMPDEST PUSH2 0xFE JUMP JUMPDEST PUSH1 0x0 CALLER SWAP1 POP SWAP1 JUMP JUMPDEST PUSH1 0x0 DUP1 PUSH1 0x0 SWAP1 SLOAD SWAP1 PUSH2 0x100 EXP SWAP1 DIV PUSH20 0xFFFFFFFFFFFFFFFFFFFFFFFFFFFFFFFFFFFFFFFF AND SWAP1 POP DUP2 PUSH1 0x0 DUP1 PUSH2 0x100 EXP DUP2 SLOAD DUP2 PUSH20 0xFFFFFFFFFFFFFFFFFFFFFFFFFFFFFFFFFFFFFFFF MUL NOT AND SWAP1 DUP4 PUSH20 0xFFFFFFFFFFFFFFFFFFFFFFFFFFFFFFFFFFFFFFFF AND MUL OR SWAP1 SSTORE POP DUP2 PUSH20 0xFFFFFFFFFFFFFFFFFFFFFFFFFFFFFFFFFFFFFFFF AND DUP2 PUSH20 0xFFFFFFFFFFFFFFFFFFFFFFFFFFFFFFFFFFFFFFFF AND PUSH32 0x8BE0079C531659141344CD1FD0A4F28419497F9722A3DAAFE3B4186F6B6457E0 PUSH1 0x40 MLOAD PUSH1 0x40 MLOAD DUP1 SWAP2 SUB SWAP1 LOG3 POP POP JUMP JUMPDEST PUSH2 0x18DD DUP1 PUSH2 0x10D PUSH1 0x0 CODECOPY PUSH1 0x0 RETURN INVALID PUSH1 0x80 PUSH1 0x40 MSTORE PUSH1 0x4 CALLDATASIZE LT PUSH2 0xA7 JUMPI PUSH1 0x0 CALLDATALOAD PUSH1 0xE0 SHR DUP1 PUSH4 0x5F4FD1F7 GT PUSH2 0x64 JUMPI DUP1 PUSH4 0x5F4FD1F7 EQ PUSH2 0x1B1 JUMPI DUP1 PUSH4 0x715018A6 EQ PUSH2 0x1EE JUMPI DUP1 PUSH4 0x8DA5CB5B EQ PUSH2 0x205 JUMPI DUP1 PUSH4 0xA77B2E37 EQ PUSH2 0x230 JUMPI DUP1 PUSH4 0xAF0AFEC9 EQ PUSH2 0x25B JUMPI DUP1 PUSH4 0xF2FDE38B EQ PUSH2 0x286 JUMPI PUSH2 0xA7 JUMP JUMPDEST DUP1 PUSH4 0x158EF93E EQ PUSH2 0xAC JUMPI DUP1 PUSH4 0x1794BB3C EQ PUSH2 0xD7 JUMPI DUP1 PUSH4 0x28F661E3 EQ PUSH2 0x100 JUMPI DUP1 PUSH4 0x29E78C82 EQ PUSH2 0x12B JUMPI DUP1 PUSH4 0x2C1E816D EQ PUSH2 0x16C JUMPI DUP1 PUSH4 0x2D296BF1 EQ PUSH2 0x195 JUMPI JUMPDEST PUSH1 0x0 DUP1 REVERT JUMPDEST CALLVALUE DUP1 ISZERO PUSH2 0xB8 JUMPI PUSH1 0x0 DUP1 REVERT JUMPDEST POP PUSH2 0xC1 PUSH2 0x2AF JUMP JUMPDEST PUSH1 0x40 MLOAD PUSH2 0xCE SWAP2 SWAP1 PUSH2 0x1106 JUMP JUMPDEST PUSH1 0x40 MLOAD DUP1 SWAP2 SUB SWAP1 RETURN JUMPDEST CALLVALUE DUP1 ISZERO PUSH2 0xE3 JUMPI PUSH1 0x0 DUP1 REVERT JUMPDEST POP PUSH2 0xFE PUSH1 0x4 DUP1 CALLDATASIZE SUB DUP2 ADD SWAP1 PUSH2 0xF9 SWAP2 SWAP1 PUSH2 0x11F8 JUMP JUMPDEST PUSH2 0x2C2 JUMP JUMPDEST STOP JUMPDEST CALLVALUE DUP1 ISZERO PUSH2 0x10C JUMPI PUSH1 0x0 DUP1 REVERT JUMPDEST POP PUSH2 0x115 PUSH2 0x4CE JUMP JUMPDEST PUSH1 0x40 MLOAD PUSH2 0x122 SWAP2 SWAP1 PUSH2 0x125A JUMP JUMPDEST PUSH1 0x40 MLOAD DUP1 SWAP2 SUB SWAP1 RETURN JUMPDEST CALLVALUE DUP1 ISZERO PUSH2 0x137 JUMPI PUSH1 0x0 DUP1 REVERT JUMPDEST POP PUSH2 0x152 PUSH1 0x4 DUP1 CALLDATASIZE SUB DUP2 ADD SWAP1 PUSH2 0x14D SWAP2 SWAP1 PUSH2 0x1275 JUMP JUMPDEST PUSH2 0x4F4 JUMP JUMPDEST PUSH1 0x40 MLOAD PUSH2 0x163 SWAP6 SWAP5 SWAP4 SWAP3 SWAP2 SWAP1 PUSH2 0x12B1 JUMP JUMPDEST PUSH1 0x40 MLOAD DUP1 SWAP2 SUB SWAP1 RETURN JUMPDEST CALLVALUE DUP1 ISZERO PUSH2 0x178 JUMPI PUSH1 0x0 DUP1 REVERT JUMPDEST POP PUSH2 0x193 PUSH1 0x4 DUP1 CALLDATASIZE SUB DUP2 ADD SWAP1 PUSH2 0x18E SWAP2 SWAP1 PUSH2 0x1304 JUMP JUMPDEST PUSH2 0x6B3 JUMP JUMPDEST STOP JUMPDEST PUSH2 0x1AF PUSH1 0x4 DUP1 CALLDATASIZE SUB DUP2 ADD SWAP1 PUSH2 0x1AA SWAP2 SWAP1 PUSH2 0x1275 JUMP JUMPDEST PUSH2 0x773 JUMP JUMPDEST STOP JUMPDEST CALLVALUE DUP1 ISZERO PUSH2 0x1BD JUMPI PUSH1 0x0 DUP1 REVERT JUMPDEST POP PUSH2 0x1D8 PUSH1 0x4 DUP1 CALLDATASIZE SUB DUP2 ADD SWAP1 PUSH2 0x1D3 SWAP2 SWAP1 PUSH2 0x1304 JUMP JUMPDEST PUSH2 0xD9A JUMP JUMPDEST PUSH1 0x40 MLOAD PUSH2 0x1E5 SWAP2 SWAP1 PUSH2 0x13EF JUMP JUMPDEST PUSH1 0x40 MLOAD DUP1 SWAP2 SUB SWAP1 RETURN JUMPDEST CALLVALUE DUP1 ISZERO PUSH2 0x1FA JUMPI PUSH1 0x0 DUP1 REVERT JUMPDEST POP PUSH2 0x203 PUSH2 0xE31 JUMP JUMPDEST STOP JUMPDEST CALLVALUE DUP1 ISZERO PUSH2 0x211 JUMPI PUSH1 0x0 DUP1 REVERT JUMPDEST POP PUSH2 0x21A PUSH2 0xEB9 JUMP JUMPDEST PUSH1 0x40 MLOAD PUSH2 0x227 SWAP2 SWAP1 PUSH2 0x125A JUMP JUMPDEST PUSH1 0x40 MLOAD DUP1 SWAP2 SUB SWAP1 RETURN JUMPDEST CALLVALUE DUP1 ISZERO PUSH2 0x23C JUMPI PUSH1 0x0 DUP1 REVERT JUMPDEST POP PUSH2 0x245 PUSH2 0xEE2 JUMP JUMPDEST PUSH1 0x40 MLOAD PUSH2 0x252 SWAP2 SWAP1 PUSH2 0x1470 JUMP JUMPDEST PUSH1 0x40 MLOAD DUP1 SWAP2 SUB SWAP1 RETURN JUMPDEST CALLVALUE DUP1 ISZERO PUSH2 0x267 JUMPI PUSH1 0x0 DUP1 REVERT JUMPDEST POP PUSH2 0x270 PUSH2 0xF08 JUMP JUMPDEST PUSH1 0x40 MLOAD PUSH2 0x27D SWAP2 SWAP1 PUSH2 0x148B JUMP JUMPDEST PUSH1 0x40 MLOAD DUP1 SWAP2 SUB SWAP1 RETURN JUMPDEST CALLVALUE DUP1 ISZERO PUSH2 0x292 JUMPI PUSH1 0x0 DUP1 REVERT JUMPDEST POP PUSH2 0x2AD PUSH1 0x4 DUP1 CALLDATASIZE SUB DUP2 ADD SWAP1 PUSH2 0x2A8 SWAP2 SWAP1 PUSH2 0x1304 JUMP JUMPDEST PUSH2 0xF12 JUMP JUMPDEST STOP JUMPDEST PUSH1 0x4 PUSH1 0x0 SWAP1 SLOAD SWAP1 PUSH2 0x100 EXP SWAP1 DIV PUSH1 0xFF AND DUP2 JUMP JUMPDEST PUSH2 0x2CA PUSH2 0x1009 JUMP JUMPDEST PUSH20 0xFFFFFFFFFFFFFFFFFFFFFFFFFFFFFFFFFFFFFFFF AND PUSH2 0x2E8 PUSH2 0xEB9 JUMP JUMPDEST PUSH20 0xFFFFFFFFFFFFFFFFFFFFFFFFFFFFFFFFFFFFFFFF AND EQ PUSH2 0x33E JUMPI PUSH1 0x40 MLOAD PUSH32 0x8C379A000000000000000000000000000000000000000000000000000000000 DUP2 MSTORE PUSH1 0x4 ADD PUSH2 0x335 SWAP1 PUSH2 0x1503 JUMP JUMPDEST PUSH1 0x40 MLOAD DUP1 SWAP2 SUB SWAP1 REVERT JUMPDEST PUSH1 0x1 ISZERO ISZERO PUSH1 0x4 PUSH1 0x0 SWAP1 SLOAD SWAP1 PUSH2 0x100 EXP SWAP1 DIV PUSH1 0xFF AND ISZERO ISZERO SUB PUSH2 0x394 JUMPI PUSH1 0x40 MLOAD PUSH32 0x8C379A000000000000000000000000000000000000000000000000000000000 DUP2 MSTORE PUSH1 0x4 ADD PUSH2 0x38B SWAP1 PUSH2 0x156F JUMP JUMPDEST PUSH1 0x40 MLOAD DUP1 SWAP2 SUB SWAP1 REVERT JUMPDEST DUP3 PUSH1 0x2 PUSH1 0x0 PUSH2 0x100 EXP DUP2 SLOAD DUP2 PUSH20 0xFFFFFFFFFFFFFFFFFFFFFFFFFFFFFFFFFFFFFFFF MUL NOT AND SWAP1 DUP4 PUSH20 0xFFFFFFFFFFFFFFFFFFFFFFFFFFFFFFFFFFFFFFFF AND MUL OR SWAP1 SSTORE POP DUP2 PUSH1 0x1 PUSH1 0x0 PUSH2 0x100 EXP DUP2 SLOAD DUP2 PUSH20 0xFFFFFFFFFFFFFFFFFFFFFFFFFFFFFFFFFFFFFFFF MUL NOT AND SWAP1 DUP4 PUSH20 0xFFFFFFFFFFFFFFFFFFFFFFFFFFFFFFFFFFFFFFFF AND MUL OR SWAP1 SSTORE POP PUSH1 0x2 PUSH1 0x0 SWAP1 SLOAD SWAP1 PUSH2 0x100 EXP SWAP1 DIV PUSH20 0xFFFFFFFFFFFFFFFFFFFFFFFFFFFFFFFFFFFFFFFF AND PUSH20 0xFFFFFFFFFFFFFFFFFFFFFFFFFFFFFFFFFFFFFFFF AND PUSH4 0xB45EE9EF PUSH2 0x45C PUSH2 0xEB9 JUMP JUMPDEST DUP5 DUP5 PUSH1 0x40 MLOAD DUP5 PUSH4 0xFFFFFFFF AND PUSH1 0xE0 SHL DUP2 MSTORE PUSH1 0x4 ADD PUSH2 0x47C SWAP4 SWAP3 SWAP2 SWAP1 PUSH2 0x158F JUMP JUMPDEST PUSH1 0x0 PUSH1 0x40 MLOAD DUP1 DUP4 SUB DUP2 PUSH1 0x0 DUP8 DUP1 EXTCODESIZE ISZERO DUP1 ISZERO PUSH2 0x496 JUMPI PUSH1 0x0 DUP1 REVERT JUMPDEST POP GAS CALL ISZERO DUP1 ISZERO PUSH2 0x4AA JUMPI RETURNDATASIZE PUSH1 0x0 DUP1 RETURNDATACOPY RETURNDATASIZE PUSH1 0x0 REVERT JUMPDEST POP POP POP POP PUSH1 0x1 PUSH1 0x4 PUSH1 0x0 PUSH2 0x100 EXP DUP2 SLOAD DUP2 PUSH1 0xFF MUL NOT AND SWAP1 DUP4 ISZERO ISZERO MUL OR SWAP1 SSTORE POP POP POP POP JUMP JUMPDEST PUSH1 0x1 PUSH1 0x0 SWAP1 SLOAD SWAP1 PUSH2 0x100 EXP SWAP1 DIV PUSH20 0xFFFFFFFFFFFFFFFFFFFFFFFFFFFFFFFFFFFFFFFF AND DUP2 JUMP JUMPDEST PUSH1 0x0 DUP1 PUSH1 0x0 DUP1 PUSH1 0x0 PUSH1 0x5 PUSH1 0x0 CALLER PUSH20 0xFFFFFFFFFFFFFFFFFFFFFFFFFFFFFFFFFFFFFFFF AND PUSH20 0xFFFFFFFFFFFFFFFFFFFFFFFFFFFFFFFFFFFFFFFF AND DUP2 MSTORE PUSH1 0x20 ADD SWAP1 DUP2 MSTORE PUSH1 0x20 ADD PUSH1 0x0 KECCAK256 PUSH1 0x0 DUP8 DUP2 MSTORE PUSH1 0x20 ADD SWAP1 DUP2 MSTORE PUSH1 0x20 ADD PUSH1 0x0 KECCAK256 PUSH1 0x0 ADD SLOAD PUSH1 0x5 PUSH1 0x0 CALLER PUSH20 0xFFFFFFFFFFFFFFFFFFFFFFFFFFFFFFFFFFFFFFFF AND PUSH20 0xFFFFFFFFFFFFFFFFFFFFFFFFFFFFFFFFFFFFFFFF AND DUP2 MSTORE PUSH1 0x20 ADD SWAP1 DUP2 MSTORE PUSH1 0x20 ADD PUSH1 0x0 KECCAK256 PUSH1 0x0 DUP9 DUP2 MSTORE PUSH1 0x20 ADD SWAP1 DUP2 MSTORE PUSH1 0x20 ADD PUSH1 0x0 KECCAK256 PUSH1 0x1 ADD SLOAD PUSH1 0x5 PUSH1 0x0 CALLER PUSH20 0xFFFFFFFFFFFFFFFFFFFFFFFFFFFFFFFFFFFFFFFF AND PUSH20 0xFFFFFFFFFFFFFFFFFFFFFFFFFFFFFFFFFFFFFFFF AND DUP2 MSTORE PUSH1 0x20 ADD SWAP1 DUP2 MSTORE PUSH1 0x20 ADD PUSH1 0x0 KECCAK256 PUSH1 0x0 DUP10 DUP2 MSTORE PUSH1 0x20 ADD SWAP1 DUP2 MSTORE PUSH1 0x20 ADD PUSH1 0x0 KECCAK256 PUSH1 0x2 ADD SLOAD PUSH1 0x5 PUSH1 0x0 CALLER PUSH20 0xFFFFFFFFFFFFFFFFFFFFFFFFFFFFFFFFFFFFFFFF AND PUSH20 0xFFFFFFFFFFFFFFFFFFFFFFFFFFFFFFFFFFFFFFFF AND DUP2 MSTORE PUSH1 0x20 ADD SWAP1 DUP2 MSTORE PUSH1 0x20 ADD PUSH1 0x0 KECCAK256 PUSH1 0x0 DUP11 DUP2 MSTORE PUSH1 0x20 ADD SWAP1 DUP2 MSTORE PUSH1 0x20 ADD PUSH1 0x0 KECCAK256 PUSH1 0x3 ADD SLOAD PUSH1 0x5 PUSH1 0x0 CALLER PUSH20 0xFFFFFFFFFFFFFFFFFFFFFFFFFFFFFFFFFFFFFFFF AND PUSH20 0xFFFFFFFFFFFFFFFFFFFFFFFFFFFFFFFFFFFFFFFF AND DUP2 MSTORE PUSH1 0x20 ADD SWAP1 DUP2 MSTORE PUSH1 0x20 ADD PUSH1 0x0 KECCAK256 PUSH1 0x0 DUP12 DUP2 MSTORE PUSH1 0x20 ADD SWAP1 DUP2 MSTORE PUSH1 0x20 ADD PUSH1 0x0 KECCAK256 PUSH1 0x4 ADD SLOAD SWAP5 POP SWAP5 POP SWAP5 POP SWAP5 POP SWAP5 POP SWAP2 SWAP4 SWAP6 SWAP1 SWAP3 SWAP5 POP JUMP JUMPDEST PUSH2 0x6BB PUSH2 0x1009 JUMP JUMPDEST PUSH20 0xFFFFFFFFFFFFFFFFFFFFFFFFFFFFFFFFFFFFFFFF AND PUSH2 0x6D9 PUSH2 0xEB9 JUMP JUMPDEST PUSH20 0xFFFFFFFFFFFFFFFFFFFFFFFFFFFFFFFFFFFFFFFF AND EQ PUSH2 0x72F JUMPI PUSH1 0x40 MLOAD PUSH32 0x8C379A000000000000000000000000000000000000000000000000000000000 DUP2 MSTORE PUSH1 0x4 ADD PUSH2 0x726 SWAP1 PUSH2 0x1503 JUMP JUMPDEST PUSH1 0x40 MLOAD DUP1 SWAP2 SUB SWAP1 REVERT JUMPDEST DUP1 PUSH1 0x1 PUSH1 0x0 PUSH2 0x100 EXP DUP2 SLOAD DUP2 PUSH20 0xFFFFFFFFFFFFFFFFFFFFFFFFFFFFFFFFFFFFFFFF MUL NOT AND SWAP1 DUP4 PUSH20 0xFFFFFFFFFFFFFFFFFFFFFFFFFFFFFFFFFFFFFFFF AND MUL OR SWAP1 SSTORE POP POP JUMP JUMPDEST DUP1 PUSH1 0x2 PUSH1 0x0 SWAP1 SLOAD SWAP1 PUSH2 0x100 EXP SWAP1 DIV PUSH20 0xFFFFFFFFFFFFFFFFFFFFFFFFFFFFFFFFFFFFFFFF AND PUSH20 0xFFFFFFFFFFFFFFFFFFFFFFFFFFFFFFFFFFFFFFFF AND PUSH4 0xE3D670D7 PUSH1 0x1 PUSH1 0x0 SWAP1 SLOAD SWAP1 PUSH2 0x100 EXP SWAP1 DIV PUSH20 0xFFFFFFFFFFFFFFFFFFFFFFFFFFFFFFFFFFFFFFFF AND PUSH1 0x40 MLOAD DUP3 PUSH4 0xFFFFFFFF AND PUSH1 0xE0 SHL DUP2 MSTORE PUSH1 0x4 ADD PUSH2 0x7F1 SWAP2 SWAP1 PUSH2 0x125A JUMP JUMPDEST PUSH1 0x20 PUSH1 0x40 MLOAD DUP1 DUP4 SUB DUP2 DUP7 GAS STATICCALL ISZERO DUP1 ISZERO PUSH2 0x80E JUMPI RETURNDATASIZE PUSH1 0x0 DUP1 RETURNDATACOPY RETURNDATASIZE PUSH1 0x0 REVERT JUMPDEST POP POP POP POP PUSH1 0x40 MLOAD RETURNDATASIZE PUSH1 0x1F NOT PUSH1 0x1F DUP3 ADD AND DUP3 ADD DUP1 PUSH1 0x40 MSTORE POP DUP2 ADD SWAP1 PUSH2 0x832 SWAP2 SWAP1 PUSH2 0x15DB JUMP JUMPDEST GT PUSH2 0x872 JUMPI PUSH1 0x40 MLOAD PUSH32 0x8C379A000000000000000000000000000000000000000000000000000000000 DUP2 MSTORE PUSH1 0x4 ADD PUSH2 0x869 SWAP1 PUSH2 0x167A JUMP JUMPDEST PUSH1 0x40 MLOAD DUP1 SWAP2 SUB SWAP1 REVERT JUMPDEST PUSH1 0x2 PUSH1 0x0 SWAP1 SLOAD SWAP1 PUSH2 0x100 EXP SWAP1 DIV PUSH20 0xFFFFFFFFFFFFFFFFFFFFFFFFFFFFFFFFFFFFFFFF AND PUSH20 0xFFFFFFFFFFFFFFFFFFFFFFFFFFFFFFFFFFFFFFFF AND PUSH4 0xB45EE9EF PUSH1 0x1 PUSH1 0x0 SWAP1 SLOAD SWAP1 PUSH2 0x100 EXP SWAP1 DIV PUSH20 0xFFFFFFFFFFFFFFFFFFFFFFFFFFFFFFFFFFFFFFFF AND CALLER DUP5 PUSH1 0x40 MLOAD DUP5 PUSH4 0xFFFFFFFF AND PUSH1 0xE0 SHL DUP2 MSTORE PUSH1 0x4 ADD PUSH2 0x8F3 SWAP4 SWAP3 SWAP2 SWAP1 PUSH2 0x158F JUMP JUMPDEST PUSH1 0x0 PUSH1 0x40 MLOAD DUP1 DUP4 SUB DUP2 PUSH1 0x0 DUP8 DUP1 EXTCODESIZE ISZERO DUP1 ISZERO PUSH2 0x90D JUMPI PUSH1 0x0 DUP1 REVERT JUMPDEST POP GAS CALL ISZERO DUP1 ISZERO PUSH2 0x921 JUMPI RETURNDATASIZE PUSH1 0x0 DUP1 RETURNDATACOPY RETURNDATASIZE PUSH1 0x0 REVERT JUMPDEST POP POP POP POP PUSH1 0x3 PUSH1 0x0 DUP2 SLOAD DUP1 SWAP3 SWAP2 SWAP1 PUSH1 0x1 ADD SWAP2 SWAP1 POP SSTORE POP PUSH1 0x0 PUSH1 0x3 SLOAD SWAP1 POP PUSH1 0x3 SLOAD PUSH1 0x5 PUSH1 0x0 CALLER PUSH20 0xFFFFFFFFFFFFFFFFFFFFFFFFFFFFFFFFFFFFFFFF AND PUSH20 0xFFFFFFFFFFFFFFFFFFFFFFFFFFFFFFFFFFFFFFFF AND DUP2 MSTORE PUSH1 0x20 ADD SWAP1 DUP2 MSTORE PUSH1 0x20 ADD PUSH1 0x0 KECCAK256 PUSH1 0x0 DUP4 DUP2 MSTORE PUSH1 0x20 ADD SWAP1 DUP2 MSTORE PUSH1 0x20 ADD PUSH1 0x0 KECCAK256 PUSH1 0x0 ADD DUP2 SWAP1 SSTORE POP TIMESTAMP PUSH1 0x5 PUSH1 0x0 CALLER PUSH20 0xFFFFFFFFFFFFFFFFFFFFFFFFFFFFFFFFFFFFFFFF AND PUSH20 0xFFFFFFFFFFFFFFFFFFFFFFFFFFFFFFFFFFFFFFFF AND DUP2 MSTORE PUSH1 0x20 ADD SWAP1 DUP2 MSTORE PUSH1 0x20 ADD PUSH1 0x0 KECCAK256 PUSH1 0x0 DUP4 DUP2 MSTORE PUSH1 0x20 ADD SWAP1 DUP2 MSTORE PUSH1 0x20 ADD PUSH1 0x0 KECCAK256 PUSH1 0x1 ADD DUP2 SWAP1 SSTORE POP DUP2 PUSH1 0x5 PUSH1 0x0 CALLER PUSH20 0xFFFFFFFFFFFFFFFFFFFFFFFFFFFFFFFFFFFFFFFF AND PUSH20 0xFFFFFFFFFFFFFFFFFFFFFFFFFFFFFFFFFFFFFFFF AND DUP2 MSTORE PUSH1 0x20 ADD SWAP1 DUP2 MSTORE PUSH1 0x20 ADD PUSH1 0x0 KECCAK256 PUSH1 0x0 DUP4 DUP2 MSTORE PUSH1 0x20 ADD SWAP1 DUP2 MSTORE PUSH1 0x20 ADD PUSH1 0x0 KECCAK256 PUSH1 0x2 ADD DUP2 SWAP1 SSTORE POP PUSH1 0x0 PUSH2 0xA5E PUSH1 0x2 DUP5 PUSH2 0x1011 SWAP1 SWAP2 SWAP1 PUSH4 0xFFFFFFFF AND JUMP JUMPDEST SWAP1 POP DUP1 PUSH1 0x2 PUSH1 0x0 SWAP1 SLOAD SWAP1 PUSH2 0x100 EXP SWAP1 DIV PUSH20 0xFFFFFFFFFFFFFFFFFFFFFFFFFFFFFFFFFFFFFFFF AND PUSH20 0xFFFFFFFFFFFFFFFFFFFFFFFFFFFFFFFFFFFFFFFF AND PUSH4 0xE3D670D7 PUSH2 0xAA7 PUSH2 0xEB9 JUMP JUMPDEST PUSH1 0x40 MLOAD DUP3 PUSH4 0xFFFFFFFF AND PUSH1 0xE0 SHL DUP2 MSTORE PUSH1 0x4 ADD PUSH2 0xAC3 SWAP2 SWAP1 PUSH2 0x125A JUMP JUMPDEST PUSH1 0x20 PUSH1 0x40 MLOAD DUP1 DUP4 SUB DUP2 DUP7 GAS STATICCALL ISZERO DUP1 ISZERO PUSH2 0xAE0 JUMPI RETURNDATASIZE PUSH1 0x0 DUP1 RETURNDATACOPY RETURNDATASIZE PUSH1 0x0 REVERT JUMPDEST POP POP POP POP PUSH1 0x40 MLOAD RETURNDATASIZE PUSH1 0x1F NOT PUSH1 0x1F DUP3 ADD AND DUP3 ADD DUP1 PUSH1 0x40 MSTORE POP DUP2 ADD SWAP1 PUSH2 0xB04 SWAP2 SWAP1 PUSH2 0x15DB JUMP JUMPDEST GT PUSH2 0xB44 JUMPI PUSH1 0x40 MLOAD PUSH32 0x8C379A000000000000000000000000000000000000000000000000000000000 DUP2 MSTORE PUSH1 0x4 ADD PUSH2 0xB3B SWAP1 PUSH2 0x170C JUMP JUMPDEST PUSH1 0x40 MLOAD DUP1 SWAP2 SUB SWAP1 REVERT JUMPDEST PUSH1 0x2 PUSH1 0x0 SWAP1 SLOAD SWAP1 PUSH2 0x100 EXP SWAP1 DIV PUSH20 0xFFFFFFFFFFFFFFFFFFFFFFFFFFFFFFFFFFFFFFFF AND PUSH20 0xFFFFFFFFFFFFFFFFFFFFFFFFFFFFFFFFFFFFFFFF AND PUSH4 0xB45EE9EF PUSH2 0xB8A PUSH2 0xEB9 JUMP JUMPDEST PUSH1 0x1 PUSH1 0x0 SWAP1 SLOAD SWAP1 PUSH2 0x100 EXP SWAP1 DIV PUSH20 0xFFFFFFFFFFFFFFFFFFFFFFFFFFFFFFFFFFFFFFFF AND DUP5 PUSH1 0x40 MLOAD DUP5 PUSH4 0xFFFFFFFF AND PUSH1 0xE0 SHL DUP2 MSTORE PUSH1 0x4 ADD PUSH2 0xBCC SWAP4 SWAP3 SWAP2 SWAP1 PUSH2 0x158F JUMP JUMPDEST PUSH1 0x0 PUSH1 0x40 MLOAD DUP1 DUP4 SUB DUP2 PUSH1 0x0 DUP8 DUP1 EXTCODESIZE ISZERO DUP1 ISZERO PUSH2 0xBE6 JUMPI PUSH1 0x0 DUP1 REVERT JUMPDEST POP GAS CALL ISZERO DUP1 ISZERO PUSH2 0xBFA JUMPI RETURNDATASIZE PUSH1 0x0 DUP1 RETURNDATACOPY RETURNDATASIZE PUSH1 0x0 REVERT JUMPDEST POP POP POP POP DUP1 PUSH1 0x5 PUSH1 0x0 CALLER PUSH20 0xFFFFFFFFFFFFFFFFFFFFFFFFFFFFFFFFFFFFFFFF AND PUSH20 0xFFFFFFFFFFFFFFFFFFFFFFFFFFFFFFFFFFFFFFFF AND DUP2 MSTORE PUSH1 0x20 ADD SWAP1 DUP2 MSTORE PUSH1 0x20 ADD PUSH1 0x0 KECCAK256 PUSH1 0x0 DUP5 DUP2 MSTORE PUSH1 0x20 ADD SWAP1 DUP2 MSTORE PUSH1 0x20 ADD PUSH1 0x0 KECCAK256 PUSH1 0x3 ADD DUP2 SWAP1 SSTORE POP PUSH1 0x6 PUSH1 0x0 CALLER PUSH20 0xFFFFFFFFFFFFFFFFFFFFFFFFFFFFFFFFFFFFFFFF AND PUSH20 0xFFFFFFFFFFFFFFFFFFFFFFFFFFFFFFFFFFFFFFFF AND DUP2 MSTORE PUSH1 0x20 ADD SWAP1 DUP2 MSTORE PUSH1 0x20 ADD PUSH1 0x0 KECCAK256 DUP3 SWAP1 DUP1 PUSH1 0x1 DUP2 SLOAD ADD DUP1 DUP3 SSTORE DUP1 SWAP2 POP POP PUSH1 0x1 SWAP1 SUB SWAP1 PUSH1 0x0 MSTORE PUSH1 0x20 PUSH1 0x0 KECCAK256 ADD PUSH1 0x0 SWAP1 SWAP2 SWAP1 SWAP2 SWAP1 SWAP2 POP SSTORE PUSH1 0x1 PUSH1 0x0 SWAP1 SLOAD SWAP1 PUSH2 0x100 EXP SWAP1 POP POP PUSH2 0xCEE PUSH5 0x2540BE400 DUP3 PUSH1 0x1 PUSH2 0xCE0 SWAP2 SWAP1 PUSH2 0x175B JUMP JUMPDEST PUSH2 0x1011 SWAP1 SWAP2 SWAP1 PUSH4 0xFFFFFFFF AND JUMP JUMPDEST POP PUSH2 0xCF7 PUSH2 0xEB9 JUMP JUMPDEST PUSH20 0xFFFFFFFFFFFFFFFFFFFFFFFFFFFFFFFFFFFFFFFF AND PUSH2 0x8FC CALLVALUE SWAP1 DUP2 ISZERO MUL SWAP1 PUSH1 0x40 MLOAD PUSH1 0x0 PUSH1 0x40 MLOAD DUP1 DUP4 SUB DUP2 DUP6 DUP9 DUP9 CALL SWAP4 POP POP POP POP ISZERO DUP1 ISZERO PUSH2 0xD3C JUMPI RETURNDATASIZE PUSH1 0x0 DUP1 RETURNDATACOPY RETURNDATASIZE PUSH1 0x0 REVERT JUMPDEST POP CALLVALUE PUSH1 0x5 PUSH1 0x0 CALLER PUSH20 0xFFFFFFFFFFFFFFFFFFFFFFFFFFFFFFFFFFFFFFFF AND PUSH20 0xFFFFFFFFFFFFFFFFFFFFFFFFFFFFFFFFFFFFFFFF AND DUP2 MSTORE PUSH1 0x20 ADD SWAP1 DUP2 MSTORE PUSH1 0x20 ADD PUSH1 0x0 KECCAK256 PUSH1 0x0 DUP5 DUP2 MSTORE PUSH1 0x20 ADD SWAP1 DUP2 MSTORE PUSH1 0x20 ADD PUSH1 0x0 KECCAK256 PUSH1 0x4 ADD DUP2 SWAP1 SSTORE POP POP POP POP JUMP JUMPDEST PUSH1 0x60 PUSH1 0x6 PUSH1 0x0 DUP4 PUSH20 0xFFFFFFFFFFFFFFFFFFFFFFFFFFFFFFFFFFFFFFFF AND PUSH20 0xFFFFFFFFFFFFFFFFFFFFFFFFFFFFFFFFFFFFFFFF AND DUP2 MSTORE PUSH1 0x20 ADD SWAP1 DUP2 MSTORE PUSH1 0x20 ADD PUSH1 0x0 KECCAK256 DUP1 SLOAD DUP1 PUSH1 0x20 MUL PUSH1 0x20 ADD PUSH1 0x40 MLOAD SWAP1 DUP2 ADD PUSH1 0x40 MSTORE DUP1 SWAP3 SWAP2 SWAP1 DUP2 DUP2 MSTORE PUSH1 0x20 ADD DUP3 DUP1 SLOAD DUP1 ISZERO PUSH2 0xE25 JUMPI PUSH1 0x20 MUL DUP3 ADD SWAP2 SWAP1 PUSH1 0x0 MSTORE PUSH1 0x20 PUSH1 0x0 KECCAK256 SWAP1 JUMPDEST DUP2 SLOAD DUP2 MSTORE PUSH1 0x20 ADD SWAP1 PUSH1 0x1 ADD SWAP1 DUP1 DUP4 GT PUSH2 0xE11 JUMPI JUMPDEST POP POP POP POP POP SWAP1 POP SWAP2 SWAP1 POP JUMP JUMPDEST PUSH2 0xE39 PUSH2 0x1009 JUMP JUMPDEST PUSH20 0xFFFFFFFFFFFFFFFFFFFFFFFFFFFFFFFFFFFFFFFF AND PUSH2 0xE57 PUSH2 0xEB9 JUMP JUMPDEST PUSH20 0xFFFFFFFFFFFFFFFFFFFFFFFFFFFFFFFFFFFFFFFF AND EQ PUSH2 0xEAD JUMPI PUSH1 0x40 MLOAD PUSH32 0x8C379A000000000000000000000000000000000000000000000000000000000 DUP2 MSTORE PUSH1 0x4 ADD PUSH2 0xEA4 SWAP1 PUSH2 0x1503 JUMP JUMPDEST PUSH1 0x40 MLOAD DUP1 SWAP2 SUB SWAP1 REVERT JUMPDEST PUSH2 0xEB7 PUSH1 0x0 PUSH2 0x1027 JUMP JUMPDEST JUMP JUMPDEST PUSH1 0x0 DUP1 PUSH1 0x0 SWAP1 SLOAD SWAP1 PUSH2 0x100 EXP SWAP1 DIV PUSH20 0xFFFFFFFFFFFFFFFFFFFFFFFFFFFFFFFFFFFFFFFF AND SWAP1 POP SWAP1 JUMP JUMPDEST PUSH1 0x2 PUSH1 0x0 SWAP1 SLOAD SWAP1 PUSH2 0x100 EXP SWAP1 DIV PUSH20 0xFFFFFFFFFFFFFFFFFFFFFFFFFFFFFFFFFFFFFFFF AND DUP2 JUMP JUMPDEST PUSH1 0x0 PUSH1 0x3 SLOAD SWAP1 POP SWAP1 JUMP JUMPDEST PUSH2 0xF1A PUSH2 0x1009 JUMP JUMPDEST PUSH20 0xFFFFFFFFFFFFFFFFFFFFFFFFFFFFFFFFFFFFFFFF AND PUSH2 0xF38 PUSH2 0xEB9 JUMP JUMPDEST PUSH20 0xFFFFFFFFFFFFFFFFFFFFFFFFFFFFFFFFFFFFFFFF AND EQ PUSH2 0xF8E JUMPI PUSH1 0x40 MLOAD PUSH32 0x8C379A000000000000000000000000000000000000000000000000000000000 DUP2 MSTORE PUSH1 0x4 ADD PUSH2 0xF85 SWAP1 PUSH2 0x1503 JUMP JUMPDEST PUSH1 0x40 MLOAD DUP1 SWAP2 SUB SWAP1 REVERT JUMPDEST PUSH1 0x0 PUSH20 0xFFFFFFFFFFFFFFFFFFFFFFFFFFFFFFFFFFFFFFFF AND DUP2 PUSH20 0xFFFFFFFFFFFFFFFFFFFFFFFFFFFFFFFFFFFFFFFF AND SUB PUSH2 0xFFD JUMPI PUSH1 0x40 MLOAD PUSH32 0x8C379A000000000000000000000000000000000000000000000000000000000 DUP2 MSTORE PUSH1 0x4 ADD PUSH2 0xFF4 SWAP1 PUSH2 0x1827 JUMP JUMPDEST PUSH1 0x40 MLOAD DUP1 SWAP2 SUB SWAP1 REVERT JUMPDEST PUSH2 0x1006 DUP2 PUSH2 0x1027 JUMP JUMPDEST POP JUMP JUMPDEST PUSH1 0x0 CALLER SWAP1 POP SWAP1 JUMP JUMPDEST PUSH1 0x0 DUP2 DUP4 PUSH2 0x101F SWAP2 SWAP1 PUSH2 0x1876 JUMP JUMPDEST SWAP1 POP SWAP3 SWAP2 POP POP JUMP JUMPDEST PUSH1 0x0 DUP1 PUSH1 0x0 SWAP1 SLOAD SWAP1 PUSH2 0x100 EXP SWAP1 DIV PUSH20 0xFFFFFFFFFFFFFFFFFFFFFFFFFFFFFFFFFFFFFFFF AND SWAP1 POP DUP2 PUSH1 0x0 DUP1 PUSH2 0x100 EXP DUP2 SLOAD DUP2 PUSH20 0xFFFFFFFFFFFFFFFFFFFFFFFFFFFFFFFFFFFFFFFF MUL NOT AND SWAP1 DUP4 PUSH20 0xFFFFFFFFFFFFFFFFFFFFFFFFFFFFFFFFFFFFFFFF AND MUL OR SWAP1 SSTORE POP DUP2 PUSH20 0xFFFFFFFFFFFFFFFFFFFFFFFFFFFFFFFFFFFFFFFF AND DUP2 PUSH20 0xFFFFFFFFFFFFFFFFFFFFFFFFFFFFFFFFFFFFFFFF AND PUSH32 0x8BE0079C531659141344CD1FD0A4F28419497F9722A3DAAFE3B4186F6B6457E0 PUSH1 0x40 MLOAD PUSH1 0x40 MLOAD DUP1 SWAP2 SUB SWAP1 LOG3 POP POP JUMP JUMPDEST PUSH1 0x0 DUP2 ISZERO ISZERO SWAP1 POP SWAP2 SWAP1 POP JUMP JUMPDEST PUSH2 0x1100 DUP2 PUSH2 0x10EB JUMP JUMPDEST DUP3 MSTORE POP POP JUMP JUMPDEST PUSH1 0x0 PUSH1 0x20 DUP3 ADD SWAP1 POP PUSH2 0x111B PUSH1 0x0 DUP4 ADD DUP5 PUSH2 0x10F7 JUMP JUMPDEST SWAP3 SWAP2 POP POP JUMP JUMPDEST PUSH1 0x0 DUP1 REVERT JUMPDEST PUSH1 0x0 PUSH20 0xFFFFFFFFFFFFFFFFFFFFFFFFFFFFFFFFFFFFFFFF DUP3 AND SWAP1 POP SWAP2 SWAP1 POP JUMP JUMPDEST PUSH1 0x0 PUSH2 0x1151 DUP3 PUSH2 0x1126 JUMP JUMPDEST SWAP1 POP SWAP2 SWAP1 POP JUMP JUMPDEST PUSH1 0x0 PUSH2 0x1163 DUP3 PUSH2 0x1146 JUMP JUMPDEST SWAP1 POP SWAP2 SWAP1 POP JUMP JUMPDEST PUSH2 0x1173 DUP2 PUSH2 0x1158 JUMP JUMPDEST DUP2 EQ PUSH2 0x117E JUMPI PUSH1 0x0 DUP1 REVERT JUMPDEST POP JUMP JUMPDEST PUSH1 0x0 DUP2 CALLDATALOAD SWAP1 POP PUSH2 0x1190 DUP2 PUSH2 0x116A JUMP JUMPDEST SWAP3 SWAP2 POP POP JUMP JUMPDEST PUSH2 0x119F DUP2 PUSH2 0x1146 JUMP JUMPDEST DUP2 EQ PUSH2 0x11AA JUMPI PUSH1 0x0 DUP1 REVERT JUMPDEST POP JUMP JUMPDEST PUSH1 0x0 DUP2 CALLDATALOAD SWAP1 POP PUSH2 0x11BC DUP2 PUSH2 0x1196 JUMP JUMPDEST SWAP3 SWAP2 POP POP JUMP JUMPDEST PUSH1 0x0 DUP2 SWAP1 POP SWAP2 SWAP1 POP JUMP JUMPDEST PUSH2 0x11D5 DUP2 PUSH2 0x11C2 JUMP JUMPDEST DUP2 EQ PUSH2 0x11E0 JUMPI PUSH1 0x0 DUP1 REVERT JUMPDEST POP JUMP JUMPDEST PUSH1 0x0 DUP2 CALLDATALOAD SWAP1 POP PUSH2 0x11F2 DUP2 PUSH2 0x11CC JUMP JUMPDEST SWAP3 SWAP2 POP POP JUMP JUMPDEST PUSH1 0x0 DUP1 PUSH1 0x0 PUSH1 0x60 DUP5 DUP7 SUB SLT ISZERO PUSH2 0x1211 JUMPI PUSH2 0x1210 PUSH2 0x1121 JUMP JUMPDEST JUMPDEST PUSH1 0x0 PUSH2 0x121F DUP7 DUP3 DUP8 ADD PUSH2 0x1181 JUMP JUMPDEST SWAP4 POP POP PUSH1 0x20 PUSH2 0x1230 DUP7 DUP3 DUP8 ADD PUSH2 0x11AD JUMP JUMPDEST SWAP3 POP POP PUSH1 0x40 PUSH2 0x1241 DUP7 DUP3 DUP8 ADD PUSH2 0x11E3 JUMP JUMPDEST SWAP2 POP POP SWAP3 POP SWAP3 POP SWAP3 JUMP JUMPDEST PUSH2 0x1254 DUP2 PUSH2 0x1146 JUMP JUMPDEST DUP3 MSTORE POP POP JUMP JUMPDEST PUSH1 0x0 PUSH1 0x20 DUP3 ADD SWAP1 POP PUSH2 0x126F PUSH1 0x0 DUP4 ADD DUP5 PUSH2 0x124B JUMP JUMPDEST SWAP3 SWAP2 POP POP JUMP JUMPDEST PUSH1 0x0 PUSH1 0x20 DUP3 DUP5 SUB SLT ISZERO PUSH2 0x128B JUMPI PUSH2 0x128A PUSH2 0x1121 JUMP JUMPDEST JUMPDEST PUSH1 0x0 PUSH2 0x1299 DUP5 DUP3 DUP6 ADD PUSH2 0x11E3 JUMP JUMPDEST SWAP2 POP POP SWAP3 SWAP2 POP POP JUMP JUMPDEST PUSH2 0x12AB DUP2 PUSH2 0x11C2 JUMP JUMPDEST DUP3 MSTORE POP POP JUMP JUMPDEST PUSH1 0x0 PUSH1 0xA0 DUP3 ADD SWAP1 POP PUSH2 0x12C6 PUSH1 0x0 DUP4 ADD DUP9 PUSH2 0x12A2 JUMP JUMPDEST PUSH2 0x12D3 PUSH1 0x20 DUP4 ADD DUP8 PUSH2 0x12A2 JUMP JUMPDEST PUSH2 0x12E0 PUSH1 0x40 DUP4 ADD DUP7 PUSH2 0x12A2 JUMP JUMPDEST PUSH2 0x12ED PUSH1 0x60 DUP4 ADD DUP6 PUSH2 0x12A2 JUMP JUMPDEST PUSH2 0x12FA PUSH1 0x80 DUP4 ADD DUP5 PUSH2 0x12A2 JUMP JUMPDEST SWAP7 SWAP6 POP POP POP POP POP POP JUMP JUMPDEST PUSH1 0x0 PUSH1 0x20 DUP3 DUP5 SUB SLT ISZERO PUSH2 0x131A JUMPI PUSH2 0x1319 PUSH2 0x1121 JUMP JUMPDEST JUMPDEST PUSH1 0x0 PUSH2 0x1328 DUP5 DUP3 DUP6 ADD PUSH2 0x11AD JUMP JUMPDEST SWAP2 POP POP SWAP3 SWAP2 POP POP JUMP JUMPDEST PUSH1 0x0 DUP2 MLOAD SWAP1 POP SWAP2 SWAP1 POP JUMP JUMPDEST PUSH1 0x0 DUP3 DUP3 MSTORE PUSH1 0x20 DUP3 ADD SWAP1 POP SWAP3 SWAP2 POP POP JUMP JUMPDEST PUSH1 0x0 DUP2 SWAP1 POP PUSH1 0x20 DUP3 ADD SWAP1 POP SWAP2 SWAP1 POP JUMP JUMPDEST PUSH2 0x1366 DUP2 PUSH2 0x11C2 JUMP JUMPDEST DUP3 MSTORE POP POP JUMP JUMPDEST PUSH1 0x0 PUSH2 0x1378 DUP4 DUP4 PUSH2 0x135D JUMP JUMPDEST PUSH1 0x20 DUP4 ADD SWAP1 POP SWAP3 SWAP2 POP POP JUMP JUMPDEST PUSH1 0x0 PUSH1 0x20 DUP3 ADD SWAP1 POP SWAP2 SWAP1 POP JUMP JUMPDEST PUSH1 0x0 PUSH2 0x139C DUP3 PUSH2 0x1331 JUMP JUMPDEST PUSH2 0x13A6 DUP2 DUP6 PUSH2 0x133C JUMP JUMPDEST SWAP4 POP PUSH2 0x13B1 DUP4 PUSH2 0x134D JUMP JUMPDEST DUP1 PUSH1 0x0 JUMPDEST DUP4 DUP2 LT ISZERO PUSH2 0x13E2 JUMPI DUP2 MLOAD PUSH2 0x13C9 DUP9 DUP3 PUSH2 0x136C JUMP JUMPDEST SWAP8 POP PUSH2 0x13D4 DUP4 PUSH2 0x1384 JUMP JUMPDEST SWAP3 POP POP PUSH1 0x1 DUP2 ADD SWAP1 POP PUSH2 0x13B5 JUMP JUMPDEST POP DUP6 SWAP4 POP POP POP POP SWAP3 SWAP2 POP POP JUMP JUMPDEST PUSH1 0x0 PUSH1 0x20 DUP3 ADD SWAP1 POP DUP2 DUP2 SUB PUSH1 0x0 DUP4 ADD MSTORE PUSH2 0x1409 DUP2 DUP5 PUSH2 0x1391 JUMP JUMPDEST SWAP1 POP SWAP3 SWAP2 POP POP JUMP JUMPDEST PUSH1 0x0 DUP2 SWAP1 POP SWAP2 SWAP1 POP JUMP JUMPDEST PUSH1 0x0 PUSH2 0x1436 PUSH2 0x1431 PUSH2 0x142C DUP5 PUSH2 0x1126 JUMP JUMPDEST PUSH2 0x1411 JUMP JUMPDEST PUSH2 0x1126 JUMP JUMPDEST SWAP1 POP SWAP2 SWAP1 POP JUMP JUMPDEST PUSH1 0x0 PUSH2 0x1448 DUP3 PUSH2 0x141B JUMP JUMPDEST SWAP1 POP SWAP2 SWAP1 POP JUMP JUMPDEST PUSH1 0x0 PUSH2 0x145A DUP3 PUSH2 0x143D JUMP JUMPDEST SWAP1 POP SWAP2 SWAP1 POP JUMP JUMPDEST PUSH2 0x146A DUP2 PUSH2 0x144F JUMP JUMPDEST DUP3 MSTORE POP POP JUMP JUMPDEST PUSH1 0x0 PUSH1 0x20 DUP3 ADD SWAP1 POP PUSH2 0x1485 PUSH1 0x0 DUP4 ADD DUP5 PUSH2 0x1461 JUMP JUMPDEST SWAP3 SWAP2 POP POP JUMP JUMPDEST PUSH1 0x0 PUSH1 0x20 DUP3 ADD SWAP1 POP PUSH2 0x14A0 PUSH1 0x0 DUP4 ADD DUP5 PUSH2 0x12A2 JUMP JUMPDEST SWAP3 SWAP2 POP POP JUMP JUMPDEST PUSH1 0x0 DUP3 DUP3 MSTORE PUSH1 0x20 DUP3 ADD SWAP1 POP SWAP3 SWAP2 POP POP JUMP JUMPDEST PUSH32 0x4F776E61626C653A2063616C6C6572206973206E6F7420746865206F776E6572 PUSH1 0x0 DUP3 ADD MSTORE POP JUMP JUMPDEST PUSH1 0x0 PUSH2 0x14ED PUSH1 0x20 DUP4 PUSH2 0x14A6 JUMP JUMPDEST SWAP2 POP PUSH2 0x14F8 DUP3 PUSH2 0x14B7 JUMP JUMPDEST PUSH1 0x20 DUP3 ADD SWAP1 POP SWAP2 SWAP1 POP JUMP JUMPDEST PUSH1 0x0 PUSH1 0x20 DUP3 ADD SWAP1 POP DUP2 DUP2 SUB PUSH1 0x0 DUP4 ADD MSTORE PUSH2 0x151C DUP2 PUSH2 0x14E0 JUMP JUMPDEST SWAP1 POP SWAP2 SWAP1 POP JUMP JUMPDEST PUSH32 0x416C726561647920496E697469616C697A656400000000000000000000000000 PUSH1 0x0 DUP3 ADD MSTORE POP JUMP JUMPDEST PUSH1 0x0 PUSH2 0x1559 PUSH1 0x13 DUP4 PUSH2 0x14A6 JUMP JUMPDEST SWAP2 POP PUSH2 0x1564 DUP3 PUSH2 0x1523 JUMP JUMPDEST PUSH1 0x20 DUP3 ADD SWAP1 POP SWAP2 SWAP1 POP JUMP JUMPDEST PUSH1 0x0 PUSH1 0x20 DUP3 ADD SWAP1 POP DUP2 DUP2 SUB PUSH1 0x0 DUP4 ADD MSTORE PUSH2 0x1588 DUP2 PUSH2 0x154C JUMP JUMPDEST SWAP1 POP SWAP2 SWAP1 POP JUMP JUMPDEST PUSH1 0x0 PUSH1 0x60 DUP3 ADD SWAP1 POP PUSH2 0x15A4 PUSH1 0x0 DUP4 ADD DUP7 PUSH2 0x124B JUMP JUMPDEST PUSH2 0x15B1 PUSH1 0x20 DUP4 ADD DUP6 PUSH2 0x124B JUMP JUMPDEST PUSH2 0x15BE PUSH1 0x40 DUP4 ADD DUP5 PUSH2 0x12A2 JUMP JUMPDEST SWAP5 SWAP4 POP POP POP POP JUMP JUMPDEST PUSH1 0x0 DUP2 MLOAD SWAP1 POP PUSH2 0x15D5 DUP2 PUSH2 0x11CC JUMP JUMPDEST SWAP3 SWAP2 POP POP JUMP JUMPDEST PUSH1 0x0 PUSH1 0x20 DUP3 DUP5 SUB SLT ISZERO PUSH2 0x15F1 JUMPI PUSH2 0x15F0 PUSH2 0x1121 JUMP JUMPDEST JUMPDEST PUSH1 0x0 PUSH2 0x15FF DUP5 DUP3 DUP6 ADD PUSH2 0x15C6 JUMP JUMPDEST SWAP2 POP POP SWAP3 SWAP2 POP POP JUMP JUMPDEST PUSH32 0x4572726F723A2041646D696E20646F6573206E6F74206861766520656E6F7567 PUSH1 0x0 DUP3 ADD MSTORE PUSH32 0x682062616C616E63650000000000000000000000000000000000000000000000 PUSH1 0x20 DUP3 ADD MSTORE POP JUMP JUMPDEST PUSH1 0x0 PUSH2 0x1664 PUSH1 0x29 DUP4 PUSH2 0x14A6 JUMP JUMPDEST SWAP2 POP PUSH2 0x166F DUP3 PUSH2 0x1608 JUMP JUMPDEST PUSH1 0x40 DUP3 ADD SWAP1 POP SWAP2 SWAP1 POP JUMP JUMPDEST PUSH1 0x0 PUSH1 0x20 DUP3 ADD SWAP1 POP DUP2 DUP2 SUB PUSH1 0x0 DUP4 ADD MSTORE PUSH2 0x1693 DUP2 PUSH2 0x1657 JUMP JUMPDEST SWAP1 POP SWAP2 SWAP1 POP JUMP JUMPDEST PUSH32 0x4572726F723A204F776E657220646F6573206E6F74206861766520656E6F7567 PUSH1 0x0 DUP3 ADD MSTORE PUSH32 0x682062616C616E63650000000000000000000000000000000000000000000000 PUSH1 0x20 DUP3 ADD MSTORE POP JUMP JUMPDEST PUSH1 0x0 PUSH2 0x16F6 PUSH1 0x29 DUP4 PUSH2 0x14A6 JUMP JUMPDEST SWAP2 POP PUSH2 0x1701 DUP3 PUSH2 0x169A JUMP JUMPDEST PUSH1 0x40 DUP3 ADD SWAP1 POP SWAP2 SWAP1 POP JUMP JUMPDEST PUSH1 0x0 PUSH1 0x20 DUP3 ADD SWAP1 POP DUP2 DUP2 SUB PUSH1 0x0 DUP4 ADD MSTORE PUSH2 0x1725 DUP2 PUSH2 0x16E9 JUMP JUMPDEST SWAP1 POP SWAP2 SWAP1 POP JUMP JUMPDEST PUSH32 0x4E487B7100000000000000000000000000000000000000000000000000000000 PUSH1 0x0 MSTORE PUSH1 0x11 PUSH1 0x4 MSTORE PUSH1 0x24 PUSH1 0x0 REVERT JUMPDEST PUSH1 0x0 PUSH2 0x1766 DUP3 PUSH2 0x11C2 JUMP JUMPDEST SWAP2 POP PUSH2 0x1771 DUP4 PUSH2 0x11C2 JUMP JUMPDEST SWAP3 POP DUP2 PUSH32 0xFFFFFFFFFFFFFFFFFFFFFFFFFFFFFFFFFFFFFFFFFFFFFFFFFFFFFFFFFFFFFFFF DIV DUP4 GT DUP3 ISZERO ISZERO AND ISZERO PUSH2 0x17AA JUMPI PUSH2 0x17A9 PUSH2 0x172C JUMP JUMPDEST JUMPDEST DUP3 DUP3 MUL SWAP1 POP SWAP3 SWAP2 POP POP JUMP JUMPDEST PUSH32 0x4F776E61626C653A206E6577206F776E657220697320746865207A65726F2061 PUSH1 0x0 DUP3 ADD MSTORE PUSH32 0x6464726573730000000000000000000000000000000000000000000000000000 PUSH1 0x20 DUP3 ADD MSTORE POP JUMP JUMPDEST PUSH1 0x0 PUSH2 0x1811 PUSH1 0x26 DUP4 PUSH2 0x14A6 JUMP JUMPDEST SWAP2 POP PUSH2 0x181C DUP3 PUSH2 0x17B5 JUMP JUMPDEST PUSH1 0x40 DUP3 ADD SWAP1 POP SWAP2 SWAP1 POP JUMP JUMPDEST PUSH1 0x0 PUSH1 0x20 DUP3 ADD SWAP1 POP DUP2 DUP2 SUB PUSH1 0x0 DUP4 ADD MSTORE PUSH2 0x1840 DUP2 PUSH2 0x1804 JUMP JUMPDEST SWAP1 POP SWAP2 SWAP1 POP JUMP JUMPDEST PUSH32 0x4E487B7100000000000000000000000000000000000000000000000000000000 PUSH1 0x0 MSTORE PUSH1 0x12 PUSH1 0x4 MSTORE PUSH1 0x24 PUSH1 0x0 REVERT JUMPDEST PUSH1 0x0 PUSH2 0x1881 DUP3 PUSH2 0x11C2 JUMP JUMPDEST SWAP2 POP PUSH2 0x188C DUP4 PUSH2 0x11C2 JUMP JUMPDEST SWAP3 POP DUP3 PUSH2 0x189C JUMPI PUSH2 0x189B PUSH2 0x1847 JUMP JUMPDEST JUMPDEST DUP3 DUP3 DIV SWAP1 POP SWAP3 SWAP2 POP POP JUMP INVALID LOG2 PUSH5 0x6970667358 0x22 SLT KECCAK256 0xAE 0xD9 0xAA GT RETURNDATACOPY 0x24 LOG4 0xAE EXTCODEHASH 0xAC 0xCC MOD 0xCC SWAP16 0xB8 0x5C BALANCE ADDMOD AND 0xF9 PUSH20 0x7CCA154AF74B2DE2F3043664736F6C634300080E STOP CALLER "
				},
				"gasEstimates": {
					"creation": {
						"codeDepositCost": "1273000",
						"executionCost": "infinite",
						"totalCost": "infinite"
					},
					"external": {
						"AdminAddress()": "2559",
						"Coin()": "infinite",
						"buyInformation(uint256)": "infinite",
						"buyToken(uint256)": "infinite",
						"getIdsOfUser(address)": "infinite",
						"initialize(address,address,uint256)": "infinite",
						"initialized()": "2472",
						"owner()": "2566",
						"renounceOwnership()": "30396",
						"setAdminAddress(address)": "27051",
						"totalInvesters()": "2525",
						"transferOwnership(address)": "30830"
					}
				},
				"methodIdentifiers": {
					"AdminAddress()": "28f661e3",
					"Coin()": "a77b2e37",
					"buyInformation(uint256)": "29e78c82",
					"buyToken(uint256)": "2d296bf1",
					"getIdsOfUser(address)": "5f4fd1f7",
					"initialize(address,address,uint256)": "1794bb3c",
					"initialized()": "158ef93e",
					"owner()": "8da5cb5b",
					"renounceOwnership()": "715018a6",
					"setAdminAddress(address)": "2c1e816d",
					"totalInvesters()": "af0afec9",
					"transferOwnership(address)": "f2fde38b"
				}
			},
			"storageLayout": {
				"storage": [
					{
						"astId": 717,
						"contract": "smartContract_flat.sol:smartContract",
						"label": "_owner",
						"offset": 0,
						"slot": "0",
						"type": "t_address"
					},
					{
						"astId": 1216,
						"contract": "smartContract_flat.sol:smartContract",
						"label": "AdminAddress",
						"offset": 0,
						"slot": "1",
						"type": "t_address"
					},
					{
						"astId": 1219,
						"contract": "smartContract_flat.sol:smartContract",
						"label": "Coin",
						"offset": 0,
						"slot": "2",
						"type": "t_contract(Token)899"
					},
					{
						"astId": 1221,
						"contract": "smartContract_flat.sol:smartContract",
						"label": "investerID",
						"offset": 0,
						"slot": "3",
						"type": "t_uint256"
					},
					{
						"astId": 1223,
						"contract": "smartContract_flat.sol:smartContract",
						"label": "initialized",
						"offset": 0,
						"slot": "4",
						"type": "t_bool"
					},
					{
						"astId": 1230,
						"contract": "smartContract_flat.sol:smartContract",
						"label": "buyInfo",
						"offset": 0,
						"slot": "5",
						"type": "t_mapping(t_address,t_mapping(t_uint256,t_struct(purchaseInfo)1246_storage))"
					},
					{
						"astId": 1235,
						"contract": "smartContract_flat.sol:smartContract",
						"label": "getIDByAddress",
						"offset": 0,
						"slot": "6",
						"type": "t_mapping(t_address,t_array(t_uint256)dyn_storage)"
					}
				],
				"types": {
					"t_address": {
						"encoding": "inplace",
						"label": "address",
						"numberOfBytes": "20"
					},
					"t_array(t_uint256)dyn_storage": {
						"base": "t_uint256",
						"encoding": "dynamic_array",
						"label": "uint256[]",
						"numberOfBytes": "32"
					},
					"t_bool": {
						"encoding": "inplace",
						"label": "bool",
						"numberOfBytes": "1"
					},
					"t_contract(Token)899": {
						"encoding": "inplace",
						"label": "contract Token",
						"numberOfBytes": "20"
					},
					"t_mapping(t_address,t_array(t_uint256)dyn_storage)": {
						"encoding": "mapping",
						"key": "t_address",
						"label": "mapping(address => uint256[])",
						"numberOfBytes": "32",
						"value": "t_array(t_uint256)dyn_storage"
					},
					"t_mapping(t_address,t_mapping(t_uint256,t_struct(purchaseInfo)1246_storage))": {
						"encoding": "mapping",
						"key": "t_address",
						"label": "mapping(address => mapping(uint256 => struct smartContract.purchaseInfo))",
						"numberOfBytes": "32",
						"value": "t_mapping(t_uint256,t_struct(purchaseInfo)1246_storage)"
					},
					"t_mapping(t_uint256,t_struct(purchaseInfo)1246_storage)": {
						"encoding": "mapping",
						"key": "t_uint256",
						"label": "mapping(uint256 => struct smartContract.purchaseInfo)",
						"numberOfBytes": "32",
						"value": "t_struct(purchaseInfo)1246_storage"
					},
					"t_struct(purchaseInfo)1246_storage": {
						"encoding": "inplace",
						"label": "struct smartContract.purchaseInfo",
						"members": [
							{
								"astId": 1237,
								"contract": "smartContract_flat.sol:smartContract",
								"label": "ID",
								"offset": 0,
								"slot": "0",
								"type": "t_uint256"
							},
							{
								"astId": 1239,
								"contract": "smartContract_flat.sol:smartContract",
								"label": "buyTime",
								"offset": 0,
								"slot": "1",
								"type": "t_uint256"
							},
							{
								"astId": 1241,
								"contract": "smartContract_flat.sol:smartContract",
								"label": "purchaseToken",
								"offset": 0,
								"slot": "2",
								"type": "t_uint256"
							},
							{
								"astId": 1243,
								"contract": "smartContract_flat.sol:smartContract",
								"label": "ownerSurplus",
								"offset": 0,
								"slot": "3",
								"type": "t_uint256"
							},
							{
								"astId": 1245,
								"contract": "smartContract_flat.sol:smartContract",
								"label": "BNBchargedByAdmin",
								"offset": 0,
								"slot": "4",
								"type": "t_uint256"
							}
						],
						"numberOfBytes": "160"
					},
					"t_uint256": {
						"encoding": "inplace",
						"label": "uint256",
						"numberOfBytes": "32"
					}
				}
			},
			"userdoc": {
				"kind": "user",
				"methods": {},
				"version": 1
			}
		}
	}
}