{
	"smartContract_flat.sol": {
		"smartContract": {
			"abi": [
				{
					"anonymous": false,
					"inputs": [
						{
							"indexed": true,
							"internalType": "address",
							"name": "previousOwner",
							"type": "address"
						},
						{
							"indexed": true,
							"internalType": "address",
							"name": "newOwner",
							"type": "address"
						}
					],
					"name": "OwnershipTransferred",
					"type": "event"
				},
				{
					"anonymous": false,
					"inputs": [
						{
							"indexed": false,
							"internalType": "uint256",
							"name": "amount",
							"type": "uint256"
						},
						{
							"indexed": false,
							"internalType": "uint256",
							"name": "burningAmount",
							"type": "uint256"
						},
						{
							"indexed": false,
							"internalType": "uint256",
							"name": "amountAfterBurning",
							"type": "uint256"
						}
					],
					"name": "buyTokenDetails",
					"type": "event"
				},
				{
					"anonymous": false,
					"inputs": [
						{
							"indexed": false,
							"internalType": "address",
							"name": "user",
							"type": "address"
						},
						{
							"indexed": false,
							"internalType": "address",
							"name": "AdminAddress",
							"type": "address"
						},
						{
							"indexed": false,
							"internalType": "address",
							"name": "owner",
							"type": "address"
						}
					],
					"name": "buyTokenDetailsAddresses",
					"type": "event"
				},
				{
					"anonymous": false,
					"inputs": [
						{
							"indexed": false,
							"internalType": "address",
							"name": "user",
							"type": "address"
						},
						{
							"indexed": false,
							"internalType": "uint256",
							"name": "ownerInitiative",
							"type": "uint256"
						},
						{
							"indexed": false,
							"internalType": "uint256",
							"name": "BNB",
							"type": "uint256"
						}
					],
					"name": "swapTokenBNB",
					"type": "event"
				},
				{
					"inputs": [],
					"name": "AdminAddress",
					"outputs": [
						{
							"internalType": "address",
							"name": "",
							"type": "address"
						}
					],
					"stateMutability": "view",
					"type": "function"
				},
				{
					"inputs": [],
					"name": "Coin",
					"outputs": [
						{
							"internalType": "contract Token",
							"name": "",
							"type": "address"
						}
					],
					"stateMutability": "view",
					"type": "function"
				},
				{
					"inputs": [
						{
							"internalType": "uint256",
							"name": "",
							"type": "uint256"
						}
					],
					"name": "amountAfterBurning",
					"outputs": [
						{
							"internalType": "uint256",
							"name": "",
							"type": "uint256"
						}
					],
					"stateMutability": "view",
					"type": "function"
				},
				{
					"inputs": [
						{
							"internalType": "uint256",
							"name": "",
							"type": "uint256"
						}
					],
					"name": "burningAmount",
					"outputs": [
						{
							"internalType": "uint256",
							"name": "",
							"type": "uint256"
						}
					],
					"stateMutability": "view",
					"type": "function"
				},
				{
					"inputs": [
						{
							"internalType": "address",
							"name": "",
							"type": "address"
						},
						{
							"internalType": "uint256",
							"name": "",
							"type": "uint256"
						}
					],
					"name": "buyInfo",
					"outputs": [
						{
							"internalType": "uint256",
							"name": "ID",
							"type": "uint256"
						},
						{
							"internalType": "uint256",
							"name": "buyTime",
							"type": "uint256"
						},
						{
							"internalType": "uint256",
							"name": "purchaseToken",
							"type": "uint256"
						},
						{
							"internalType": "uint256",
							"name": "burnToken",
							"type": "uint256"
						},
						{
							"internalType": "uint256",
							"name": "userGets",
							"type": "uint256"
						},
						{
							"internalType": "uint256",
							"name": "ownerSurplus",
							"type": "uint256"
						},
						{
							"internalType": "uint256",
							"name": "BNBchargedByAdmin",
							"type": "uint256"
						}
					],
					"stateMutability": "view",
					"type": "function"
				},
				{
					"inputs": [
						{
							"internalType": "uint256",
							"name": "amount",
							"type": "uint256"
						}
					],
					"name": "buyToken",
					"outputs": [],
					"stateMutability": "nonpayable",
					"type": "function"
				},
				{
					"inputs": [
						{
							"internalType": "address",
							"name": "user",
							"type": "address"
						}
					],
					"name": "getIdsOfUser",
					"outputs": [
						{
							"internalType": "uint256[]",
							"name": "",
							"type": "uint256[]"
						}
					],
					"stateMutability": "view",
					"type": "function"
				},
				{
					"inputs": [
						{
							"internalType": "contract Token",
							"name": "_Coin",
							"type": "address"
						},
						{
							"internalType": "address",
							"name": "_adminAddress",
							"type": "address"
						},
						{
							"internalType": "uint256",
							"name": "amount",
							"type": "uint256"
						}
					],
					"name": "initialize",
					"outputs": [],
					"stateMutability": "nonpayable",
					"type": "function"
				},
				{
					"inputs": [],
					"name": "initialized",
					"outputs": [
						{
							"internalType": "bool",
							"name": "",
							"type": "bool"
						}
					],
					"stateMutability": "view",
					"type": "function"
				},
				{
					"inputs": [],
					"name": "owner",
					"outputs": [
						{
							"internalType": "address",
							"name": "",
							"type": "address"
						}
					],
					"stateMutability": "view",
					"type": "function"
				},
				{
					"inputs": [
						{
							"internalType": "uint256",
							"name": "",
							"type": "uint256"
						}
					],
					"name": "ownerSurplusToAdmin",
					"outputs": [
						{
							"internalType": "uint256",
							"name": "",
							"type": "uint256"
						}
					],
					"stateMutability": "view",
					"type": "function"
				},
				{
					"inputs": [],
					"name": "renounceOwnership",
					"outputs": [],
					"stateMutability": "nonpayable",
					"type": "function"
				},
				{
					"inputs": [
						{
							"internalType": "address",
							"name": "_admin",
							"type": "address"
						}
					],
					"name": "setAdminAddress",
					"outputs": [],
					"stateMutability": "nonpayable",
					"type": "function"
				},
				{
					"inputs": [
						{
							"internalType": "uint256",
							"name": "id",
							"type": "uint256"
						},
						{
							"internalType": "address",
							"name": "user",
							"type": "address"
						}
					],
					"name": "swapTokenWithBNB",
					"outputs": [],
					"stateMutability": "payable",
					"type": "function"
				},
				{
					"inputs": [],
					"name": "totalInvesters",
					"outputs": [
						{
							"internalType": "uint256",
							"name": "",
							"type": "uint256"
						}
					],
					"stateMutability": "view",
					"type": "function"
				},
				{
					"inputs": [
						{
							"internalType": "address",
							"name": "newOwner",
							"type": "address"
						}
					],
					"name": "transferOwnership",
					"outputs": [],
					"stateMutability": "nonpayable",
					"type": "function"
				}
			],
			"devdoc": {
				"kind": "dev",
				"methods": {
					"owner()": {
						"details": "Returns the address of the current owner."
					},
					"renounceOwnership()": {
						"details": "Leaves the contract without owner. It will not be possible to call `onlyOwner` functions anymore. Can only be called by the current owner. NOTE: Renouncing ownership will leave the contract without an owner, thereby removing any functionality that is only available to the owner."
					},
					"transferOwnership(address)": {
						"details": "Transfers ownership of the contract to a new account (`newOwner`). Can only be called by the current owner."
					}
				},
				"version": 1
			},
			"evm": {
				"assembly": "    /* \"smartContract_flat.sol\":28559:32296  contract smartContract is Ownable {... */\n  mstore(0x40, 0x80)\n  callvalue\n  dup1\n  iszero\n  tag_1\n  jumpi\n  0x00\n  dup1\n  revert\ntag_1:\n  pop\n    /* \"smartContract_flat.sol\":18917:18949  _transferOwnership(_msgSender()) */\n  tag_4\n    /* \"smartContract_flat.sol\":4423:4433  msg.sender */\n  caller\n    /* \"smartContract_flat.sol\":18917:18935  _transferOwnership */\n  tag_7\n    /* \"smartContract_flat.sol\":18917:18949  _transferOwnership(_msgSender()) */\n  jump\t// in\ntag_4:\n    /* \"smartContract_flat.sol\":28559:32296  contract smartContract is Ownable {... */\n  jump(tag_8)\n    /* \"smartContract_flat.sol\":20345:20536  function _transferOwnership(address newOwner) internal virtual {... */\ntag_7:\n    /* \"smartContract_flat.sol\":20419:20435  address oldOwner */\n  0x00\n    /* \"smartContract_flat.sol\":20438:20444  _owner */\n  dup1\n  sload\n  sub(shl(0xa0, 0x01), 0x01)\n    /* \"smartContract_flat.sol\":20455:20472  _owner = newOwner */\n  dup4\n  dup2\n  and\n  not(sub(shl(0xa0, 0x01), 0x01))\n  dup4\n  and\n  dup2\n  or\n  dup5\n  sstore\n    /* \"smartContract_flat.sol\":20488:20528  OwnershipTransferred(oldOwner, newOwner) */\n  mload(0x40)\n    /* \"smartContract_flat.sol\":20438:20444  _owner */\n  swap2\n  swap1\n  swap3\n  and\n  swap3\n  dup4\n  swap2\n    /* \"smartContract_flat.sol\":20488:20528  OwnershipTransferred(oldOwner, newOwner) */\n  0x8be0079c531659141344cd1fd0a4f28419497f9722a3daafe3b4186f6b6457e0\n  swap2\n    /* \"smartContract_flat.sol\":20419:20435  address oldOwner */\n  swap1\n    /* \"smartContract_flat.sol\":20488:20528  OwnershipTransferred(oldOwner, newOwner) */\n  log3\n    /* \"smartContract_flat.sol\":20408:20536  {... */\n  pop\n    /* \"smartContract_flat.sol\":20345:20536  function _transferOwnership(address newOwner) internal virtual {... */\n  pop\n  jump\t// out\n    /* \"smartContract_flat.sol\":28559:32296  contract smartContract is Ownable {... */\ntag_8:\n  dataSize(sub_0)\n  dup1\n  dataOffset(sub_0)\n  0x00\n  codecopy\n  0x00\n  return\nstop\n\nsub_0: assembly {\n        /* \"smartContract_flat.sol\":28559:32296  contract smartContract is Ownable {... */\n      mstore(0x40, 0x80)\n      jumpi(tag_1, lt(calldatasize, 0x04))\n      shr(0xe0, calldataload(0x00))\n      dup1\n      0x715018a6\n      gt\n      tag_18\n      jumpi\n      dup1\n      0xaf0afec9\n      gt\n      tag_19\n      jumpi\n      dup1\n      0xaf0afec9\n      eq\n      tag_14\n      jumpi\n      dup1\n      0xd09bf0e4\n      eq\n      tag_15\n      jumpi\n      dup1\n      0xee238506\n      eq\n      tag_16\n      jumpi\n      dup1\n      0xf2fde38b\n      eq\n      tag_17\n      jumpi\n      0x00\n      dup1\n      revert\n    tag_19:\n      dup1\n      0x715018a6\n      eq\n      tag_10\n      jumpi\n      dup1\n      0x8637856d\n      eq\n      tag_11\n      jumpi\n      dup1\n      0x8da5cb5b\n      eq\n      tag_12\n      jumpi\n      dup1\n      0xa77b2e37\n      eq\n      tag_13\n      jumpi\n      0x00\n      dup1\n      revert\n    tag_18:\n      dup1\n      0x2c1e816d\n      gt\n      tag_20\n      jumpi\n      dup1\n      0x2c1e816d\n      eq\n      tag_6\n      jumpi\n      dup1\n      0x2d296bf1\n      eq\n      tag_7\n      jumpi\n      dup1\n      0x3a84374b\n      eq\n      tag_8\n      jumpi\n      dup1\n      0x5f4fd1f7\n      eq\n      tag_9\n      jumpi\n      0x00\n      dup1\n      revert\n    tag_20:\n      dup1\n      0x158ef93e\n      eq\n      tag_2\n      jumpi\n      dup1\n      0x1794bb3c\n      eq\n      tag_3\n      jumpi\n      dup1\n      0x23660bd5\n      eq\n      tag_4\n      jumpi\n      dup1\n      0x28f661e3\n      eq\n      tag_5\n      jumpi\n    tag_1:\n      0x00\n      dup1\n      revert\n        /* \"smartContract_flat.sol\":28716:28739  bool public initialized */\n    tag_2:\n      callvalue\n      dup1\n      iszero\n      tag_21\n      jumpi\n      0x00\n      dup1\n      revert\n    tag_21:\n      pop\n      sload(0x04)\n      tag_22\n      swap1\n      0xff\n      and\n      dup2\n      jump\n    tag_22:\n      mload(0x40)\n        /* \"#utility.yul\":179:193   */\n      swap1\n      iszero\n        /* \"#utility.yul\":172:194   */\n      iszero\n        /* \"#utility.yul\":154:195   */\n      dup2\n      mstore\n        /* \"#utility.yul\":142:144   */\n      0x20\n        /* \"#utility.yul\":127:145   */\n      add\n        /* \"smartContract_flat.sol\":28716:28739  bool public initialized */\n    tag_24:\n      mload(0x40)\n      dup1\n      swap2\n      sub\n      swap1\n      return\n        /* \"smartContract_flat.sol\":29674:30035  function initialize(... */\n    tag_3:\n      callvalue\n      dup1\n      iszero\n      tag_26\n      jumpi\n      0x00\n      dup1\n      revert\n    tag_26:\n      pop\n      tag_27\n      tag_28\n      calldatasize\n      0x04\n      tag_29\n      jump\t// in\n    tag_28:\n      tag_30\n      jump\t// in\n    tag_27:\n      stop\n        /* \"smartContract_flat.sol\":31382:32214  function swapTokenWithBNB(uint256 id, address user) public payable {... */\n    tag_4:\n      tag_27\n      tag_32\n      calldatasize\n      0x04\n      tag_33\n      jump\t// in\n    tag_32:\n      tag_34\n      jump\t// in\n        /* \"smartContract_flat.sol\":28633:28660  address public AdminAddress */\n    tag_5:\n      callvalue\n      dup1\n      iszero\n      tag_35\n      jumpi\n      0x00\n      dup1\n      revert\n    tag_35:\n      pop\n      sload(0x01)\n      tag_36\n      swap1\n      sub(shl(0xa0, 0x01), 0x01)\n      and\n      dup2\n      jump\n    tag_36:\n      mload(0x40)\n      sub(shl(0xa0, 0x01), 0x01)\n        /* \"#utility.yul\":1328:1360   */\n      swap1\n      swap2\n      and\n        /* \"#utility.yul\":1310:1361   */\n      dup2\n      mstore\n        /* \"#utility.yul\":1298:1300   */\n      0x20\n        /* \"#utility.yul\":1283:1301   */\n      add\n        /* \"smartContract_flat.sol\":28633:28660  address public AdminAddress */\n      tag_24\n        /* \"#utility.yul\":1164:1367   */\n      jump\n        /* \"smartContract_flat.sol\":30043:30141  function setAdminAddress(address _admin) public onlyOwner {... */\n    tag_6:\n      callvalue\n      dup1\n      iszero\n      tag_40\n      jumpi\n      0x00\n      dup1\n      revert\n    tag_40:\n      pop\n      tag_27\n      tag_42\n      calldatasize\n      0x04\n      tag_43\n      jump\t// in\n    tag_42:\n      tag_44\n      jump\t// in\n        /* \"smartContract_flat.sol\":30378:31374  function buyToken(uint256 amount) public {... */\n    tag_7:\n      callvalue\n      dup1\n      iszero\n      tag_45\n      jumpi\n      0x00\n      dup1\n      revert\n    tag_45:\n      pop\n      tag_27\n      tag_47\n      calldatasize\n      0x04\n      tag_48\n      jump\t// in\n    tag_47:\n      tag_49\n      jump\t// in\n        /* \"smartContract_flat.sol\":28928:28981  mapping(uint256 => uint256) public amountAfterBurning */\n    tag_8:\n      callvalue\n      dup1\n      iszero\n      tag_50\n      jumpi\n      0x00\n      dup1\n      revert\n    tag_50:\n      pop\n      tag_51\n      tag_52\n      calldatasize\n      0x04\n      tag_48\n      jump\t// in\n    tag_52:\n      mstore(0x20, 0x08)\n      0x00\n      swap1\n      dup2\n      mstore\n      0x40\n      swap1\n      keccak256\n      sload\n      dup2\n      jump\n    tag_51:\n      mload(0x40)\n        /* \"#utility.yul\":1962:1987   */\n      swap1\n      dup2\n      mstore\n        /* \"#utility.yul\":1950:1952   */\n      0x20\n        /* \"#utility.yul\":1935:1953   */\n      add\n        /* \"smartContract_flat.sol\":28928:28981  mapping(uint256 => uint256) public amountAfterBurning */\n      tag_24\n        /* \"#utility.yul\":1816:1993   */\n      jump\n        /* \"smartContract_flat.sol\":30249:30370  function getIdsOfUser(address user) public view returns (uint256[] memory) {... */\n    tag_9:\n      callvalue\n      dup1\n      iszero\n      tag_56\n      jumpi\n      0x00\n      dup1\n      revert\n    tag_56:\n      pop\n      tag_57\n      tag_58\n      calldatasize\n      0x04\n      tag_43\n      jump\t// in\n    tag_58:\n      tag_59\n      jump\t// in\n    tag_57:\n      mload(0x40)\n      tag_24\n      swap2\n      swap1\n      tag_61\n      jump\t// in\n        /* \"smartContract_flat.sol\":19689:19792  function renounceOwnership() public virtual onlyOwner {... */\n    tag_10:\n      callvalue\n      dup1\n      iszero\n      tag_62\n      jumpi\n      0x00\n      dup1\n      revert\n    tag_62:\n      pop\n      tag_27\n      tag_64\n      jump\t// in\n        /* \"smartContract_flat.sol\":28748:28815  mapping(address => mapping(uint256 => purchaseInfo)) public buyInfo */\n    tag_11:\n      callvalue\n      dup1\n      iszero\n      tag_65\n      jumpi\n      0x00\n      dup1\n      revert\n    tag_65:\n      pop\n      tag_66\n      tag_67\n      calldatasize\n      0x04\n      tag_68\n      jump\t// in\n    tag_67:\n      0x05\n      0x20\n      dup2\n      dup2\n      mstore\n      0x00\n      swap4\n      dup5\n      mstore\n      0x40\n      dup1\n      dup6\n      keccak256\n      swap1\n      swap2\n      mstore\n      swap2\n      dup4\n      mstore\n      swap2\n      keccak256\n      dup1\n      sload\n      0x01\n      dup3\n      add\n      sload\n      0x02\n      dup4\n      add\n      sload\n      0x03\n      dup5\n      add\n      sload\n      0x04\n      dup6\n      add\n      sload\n      swap6\n      dup6\n      add\n      sload\n      0x06\n      swap1\n      swap6\n      add\n      sload\n      swap4\n      swap6\n      swap3\n      swap5\n      swap2\n      swap4\n      swap1\n      swap3\n      swap2\n      swap1\n      dup8\n      jump\n    tag_66:\n      0x40\n      dup1\n      mload\n        /* \"#utility.yul\":3277:3302   */\n      swap8\n      dup9\n      mstore\n        /* \"#utility.yul\":3333:3335   */\n      0x20\n        /* \"#utility.yul\":3318:3336   */\n      dup9\n      add\n        /* \"#utility.yul\":3311:3345   */\n      swap7\n      swap1\n      swap7\n      mstore\n        /* \"#utility.yul\":3361:3379   */\n      swap5\n      dup7\n      add\n        /* \"#utility.yul\":3354:3388   */\n      swap4\n      swap1\n      swap4\n      mstore\n        /* \"#utility.yul\":3419:3421   */\n      0x60\n        /* \"#utility.yul\":3404:3422   */\n      dup6\n      add\n        /* \"#utility.yul\":3397:3431   */\n      swap2\n      swap1\n      swap2\n      mstore\n        /* \"#utility.yul\":3462:3465   */\n      0x80\n        /* \"#utility.yul\":3447:3466   */\n      dup5\n      add\n        /* \"#utility.yul\":3440:3475   */\n      mstore\n        /* \"#utility.yul\":3506:3509   */\n      0xa0\n        /* \"#utility.yul\":3491:3510   */\n      dup4\n      add\n        /* \"#utility.yul\":3484:3519   */\n      mstore\n        /* \"#utility.yul\":3550:3553   */\n      0xc0\n        /* \"#utility.yul\":3535:3554   */\n      dup3\n      add\n        /* \"#utility.yul\":3528:3563   */\n      mstore\n        /* \"#utility.yul\":3264:3267   */\n      0xe0\n        /* \"#utility.yul\":3249:3268   */\n      add\n        /* \"smartContract_flat.sol\":28748:28815  mapping(address => mapping(uint256 => purchaseInfo)) public buyInfo */\n      tag_24\n        /* \"#utility.yul\":2962:3569   */\n      jump\n        /* \"smartContract_flat.sol\":19038:19125  function owner() public view virtual returns (address) {... */\n    tag_12:\n      callvalue\n      dup1\n      iszero\n      tag_72\n      jumpi\n      0x00\n      dup1\n      revert\n    tag_72:\n      pop\n        /* \"smartContract_flat.sol\":19084:19091  address */\n      0x00\n        /* \"smartContract_flat.sol\":19111:19117  _owner */\n      sload\n      sub(shl(0xa0, 0x01), 0x01)\n      and\n        /* \"smartContract_flat.sol\":19038:19125  function owner() public view virtual returns (address) {... */\n      jump(tag_36)\n        /* \"smartContract_flat.sol\":28667:28684  Token public Coin */\n    tag_13:\n      callvalue\n      dup1\n      iszero\n      tag_76\n      jumpi\n      0x00\n      dup1\n      revert\n    tag_76:\n      pop\n      sload(0x02)\n      tag_36\n      swap1\n      sub(shl(0xa0, 0x01), 0x01)\n      and\n      dup2\n      jump\n        /* \"smartContract_flat.sol\":30149:30241  function totalInvesters() public view returns (uint256) {... */\n    tag_14:\n      callvalue\n      dup1\n      iszero\n      tag_81\n      jumpi\n      0x00\n      dup1\n      revert\n    tag_81:\n      pop\n        /* \"smartContract_flat.sol\":30223:30233  investerID */\n      sload(0x03)\n        /* \"smartContract_flat.sol\":30149:30241  function totalInvesters() public view returns (uint256) {... */\n      jump(tag_51)\n        /* \"smartContract_flat.sol\":28988:29042  mapping(uint256 => uint256) public ownerSurplusToAdmin */\n    tag_15:\n      callvalue\n      dup1\n      iszero\n      tag_85\n      jumpi\n      0x00\n      dup1\n      revert\n    tag_85:\n      pop\n      tag_51\n      tag_87\n      calldatasize\n      0x04\n      tag_48\n      jump\t// in\n    tag_87:\n      mstore(0x20, 0x09)\n      0x00\n      swap1\n      dup2\n      mstore\n      0x40\n      swap1\n      keccak256\n      sload\n      dup2\n      jump\n        /* \"smartContract_flat.sol\":28873:28921  mapping(uint256 => uint256) public burningAmount */\n    tag_16:\n      callvalue\n      dup1\n      iszero\n      tag_90\n      jumpi\n      0x00\n      dup1\n      revert\n    tag_90:\n      pop\n      tag_51\n      tag_92\n      calldatasize\n      0x04\n      tag_48\n      jump\t// in\n    tag_92:\n      mstore(0x20, 0x07)\n      0x00\n      swap1\n      dup2\n      mstore\n      0x40\n      swap1\n      keccak256\n      sload\n      dup2\n      jump\n        /* \"smartContract_flat.sol\":19947:20185  function transferOwnership(address newOwner) public virtual onlyOwner {... */\n    tag_17:\n      callvalue\n      dup1\n      iszero\n      tag_95\n      jumpi\n      0x00\n      dup1\n      revert\n    tag_95:\n      pop\n      tag_27\n      tag_97\n      calldatasize\n      0x04\n      tag_43\n      jump\t// in\n    tag_97:\n      tag_98\n      jump\t// in\n        /* \"smartContract_flat.sol\":29674:30035  function initialize(... */\n    tag_30:\n        /* \"smartContract_flat.sol\":19084:19091  address */\n      0x00\n        /* \"smartContract_flat.sol\":19111:19117  _owner */\n      sload\n      sub(shl(0xa0, 0x01), 0x01)\n      and\n        /* \"smartContract_flat.sol\":4423:4433  msg.sender */\n      caller\n        /* \"smartContract_flat.sol\":19258:19281  owner() == _msgSender() */\n      eq\n        /* \"smartContract_flat.sol\":19250:19318  require(owner() == _msgSender(), \"Ownable: caller is not the owner\") */\n      tag_103\n      jumpi\n      mload(0x40)\n      shl(0xe5, 0x461bcd)\n      dup2\n      mstore\n      0x04\n      add\n      tag_104\n      swap1\n      tag_105\n      jump\t// in\n    tag_104:\n      mload(0x40)\n      dup1\n      swap2\n      sub\n      swap1\n      revert\n    tag_103:\n        /* \"smartContract_flat.sol\":29816:29827  initialized */\n      and(0xff, sload(0x04))\n        /* \"smartContract_flat.sol\":29816:29835  initialized != true */\n      iszero\n      iszero\n        /* \"smartContract_flat.sol\":29816:29827  initialized */\n      0x01\n        /* \"smartContract_flat.sol\":29816:29835  initialized != true */\n      sub\n        /* \"smartContract_flat.sol\":29808:29859  require(initialized != true, \"Already Initialized\") */\n      tag_107\n      jumpi\n      mload(0x40)\n      shl(0xe5, 0x461bcd)\n      dup2\n      mstore\n        /* \"#utility.yul\":4358:4360   */\n      0x20\n        /* \"smartContract_flat.sol\":29808:29859  require(initialized != true, \"Already Initialized\") */\n      0x04\n      dup3\n      add\n        /* \"#utility.yul\":4340:4361   */\n      mstore\n        /* \"#utility.yul\":4397:4399   */\n      0x13\n        /* \"#utility.yul\":4377:4395   */\n      0x24\n      dup3\n      add\n        /* \"#utility.yul\":4370:4400   */\n      mstore\n      shl(0x6a, 0x105b1c9958591e48125b9a5d1a585b1a5e9959)\n        /* \"#utility.yul\":4416:4434   */\n      0x44\n      dup3\n      add\n        /* \"#utility.yul\":4409:4458   */\n      mstore\n        /* \"#utility.yul\":4475:4493   */\n      0x64\n      add\n        /* \"smartContract_flat.sol\":29808:29859  require(initialized != true, \"Already Initialized\") */\n      tag_104\n        /* \"#utility.yul\":4156:4499   */\n      jump\n        /* \"smartContract_flat.sol\":29808:29859  require(initialized != true, \"Already Initialized\") */\n    tag_107:\n        /* \"smartContract_flat.sol\":29870:29874  Coin */\n      0x02\n        /* \"smartContract_flat.sol\":29870:29889  Coin = Token(_Coin) */\n      dup1\n      sload\n      sub(shl(0xa0, 0x01), 0x01)\n      dup1\n      dup7\n      and\n      not(sub(shl(0xa0, 0x01), 0x01))\n      swap3\n      dup4\n      and\n      dup2\n      or\n      swap1\n      swap4\n      sstore\n      0x01\n        /* \"smartContract_flat.sol\":29900:29937  AdminAddress = address(_adminAddress) */\n      dup1\n      sload\n      swap2\n      dup7\n      and\n      swap2\n      swap1\n      swap3\n      and\n      or\n      swap1\n      sstore\n        /* \"smartContract_flat.sol\":29948:29966  Coin.transferPrice */\n      0xb45ee9ef\n        /* \"smartContract_flat.sol\":29967:29974  owner() */\n      tag_110\n        /* \"smartContract_flat.sol\":19084:19091  address */\n      0x00\n        /* \"smartContract_flat.sol\":19111:19117  _owner */\n      sload\n      sub(shl(0xa0, 0x01), 0x01)\n      and\n      swap1\n        /* \"smartContract_flat.sol\":19038:19125  function owner() public view virtual returns (address) {... */\n      jump\n        /* \"smartContract_flat.sol\":29967:29974  owner() */\n    tag_110:\n        /* \"smartContract_flat.sol\":29948:29998  Coin.transferPrice(owner(), _adminAddress, amount) */\n      mload(0x40)\n      not(sub(shl(0xe0, 0x01), 0x01))\n      0xe0\n      dup5\n      swap1\n      shl\n      and\n      dup2\n      mstore\n      sub(shl(0xa0, 0x01), 0x01)\n        /* \"#utility.yul\":4762:4777   */\n      swap2\n      dup3\n      and\n        /* \"smartContract_flat.sol\":29948:29998  Coin.transferPrice(owner(), _adminAddress, amount) */\n      0x04\n      dup3\n      add\n        /* \"#utility.yul\":4744:4778   */\n      mstore\n        /* \"#utility.yul\":4814:4829   */\n      swap1\n      dup6\n      and\n        /* \"#utility.yul\":4794:4812   */\n      0x24\n      dup3\n      add\n        /* \"#utility.yul\":4787:4830   */\n      mstore\n        /* \"#utility.yul\":4846:4864   */\n      0x44\n      dup2\n      add\n        /* \"#utility.yul\":4839:4873   */\n      dup5\n      swap1\n      mstore\n        /* \"#utility.yul\":4679:4697   */\n      0x64\n      add\n        /* \"smartContract_flat.sol\":29948:29998  Coin.transferPrice(owner(), _adminAddress, amount) */\n      0x00\n      mload(0x40)\n      dup1\n      dup4\n      sub\n      dup2\n      0x00\n      dup8\n      dup1\n      extcodesize\n      iszero\n      dup1\n      iszero\n      tag_113\n      jumpi\n      0x00\n      dup1\n      revert\n    tag_113:\n      pop\n      gas\n      call\n      iszero\n      dup1\n      iszero\n      tag_115\n      jumpi\n      returndatasize\n      0x00\n      dup1\n      returndatacopy\n      revert(0x00, returndatasize)\n    tag_115:\n      pop\n      pop\n        /* \"smartContract_flat.sol\":30009:30020  initialized */\n      0x04\n        /* \"smartContract_flat.sol\":30009:30027  initialized = true */\n      dup1\n      sload\n      not(0xff)\n      and\n        /* \"smartContract_flat.sol\":30023:30027  true */\n      0x01\n        /* \"smartContract_flat.sol\":30009:30027  initialized = true */\n      or\n      swap1\n      sstore\n      pop\n      pop\n      pop\n      pop\n      pop\n        /* \"smartContract_flat.sol\":29674:30035  function initialize(... */\n      jump\t// out\n        /* \"smartContract_flat.sol\":31382:32214  function swapTokenWithBNB(uint256 id, address user) public payable {... */\n    tag_34:\n        /* \"smartContract_flat.sol\":31482:31494  AdminAddress */\n      and(sub(shl(0xa0, 0x01), 0x01), sload(0x01))\n        /* \"smartContract_flat.sol\":31468:31478  msg.sender */\n      caller\n        /* \"smartContract_flat.sol\":31468:31494  msg.sender == AdminAddress */\n      eq\n        /* \"smartContract_flat.sol\":31460:31518  require(msg.sender == AdminAddress, \"Only Admin can Swap\") */\n      tag_117\n      jumpi\n      mload(0x40)\n      shl(0xe5, 0x461bcd)\n      dup2\n      mstore\n        /* \"#utility.yul\":5086:5088   */\n      0x20\n        /* \"smartContract_flat.sol\":31460:31518  require(msg.sender == AdminAddress, \"Only Admin can Swap\") */\n      0x04\n      dup3\n      add\n        /* \"#utility.yul\":5068:5089   */\n      mstore\n        /* \"#utility.yul\":5125:5127   */\n      0x13\n        /* \"#utility.yul\":5105:5123   */\n      0x24\n      dup3\n      add\n        /* \"#utility.yul\":5098:5128   */\n      mstore\n      shl(0x6c, 0x04f6e6c792041646d696e2063616e205377617)\n        /* \"#utility.yul\":5144:5162   */\n      0x44\n      dup3\n      add\n        /* \"#utility.yul\":5137:5186   */\n      mstore\n        /* \"#utility.yul\":5203:5221   */\n      0x64\n      add\n        /* \"smartContract_flat.sol\":31460:31518  require(msg.sender == AdminAddress, \"Only Admin can Swap\") */\n      tag_104\n        /* \"#utility.yul\":4884:5227   */\n      jump\n        /* \"smartContract_flat.sol\":31460:31518  require(msg.sender == AdminAddress, \"Only Admin can Swap\") */\n    tag_117:\n      sub(shl(0xa0, 0x01), 0x01)\n        /* \"smartContract_flat.sol\":31557:31570  buyInfo[user] */\n      dup2\n      and\n      0x00\n      swap1\n      dup2\n      mstore\n        /* \"smartContract_flat.sol\":31557:31564  buyInfo */\n      0x05\n        /* \"smartContract_flat.sol\":31557:31570  buyInfo[user] */\n      0x20\n      swap1\n      dup2\n      mstore\n      0x40\n      dup1\n      dup4\n      keccak256\n        /* \"smartContract_flat.sol\":31557:31574  buyInfo[user][id] */\n      dup6\n      dup5\n      mstore\n      swap1\n      swap2\n      mstore\n      swap1\n      keccak256\n        /* \"smartContract_flat.sol\":31557:31577  buyInfo[user][id].ID */\n      sload\n        /* \"smartContract_flat.sol\":31551:31577  id == buyInfo[user][id].ID */\n      dup3\n      eq\n        /* \"smartContract_flat.sol\":31529:31651  require(... */\n      tag_120\n      jumpi\n      mload(0x40)\n      shl(0xe5, 0x461bcd)\n      dup2\n      mstore\n        /* \"#utility.yul\":5434:5436   */\n      0x20\n        /* \"smartContract_flat.sol\":31529:31651  require(... */\n      0x04\n      dup3\n      add\n        /* \"#utility.yul\":5416:5437   */\n      mstore\n        /* \"#utility.yul\":5473:5475   */\n      0x2e\n        /* \"#utility.yul\":5453:5471   */\n      0x24\n      dup3\n      add\n        /* \"#utility.yul\":5446:5476   */\n      mstore\n        /* \"#utility.yul\":5512:5546   */\n      0x4572726f723a204e6f7420612076616c6964204944206f7220506c6561736520\n        /* \"#utility.yul\":5492:5510   */\n      0x44\n      dup3\n      add\n        /* \"#utility.yul\":5485:5547   */\n      mstore\n      shl(0x91, 0x313abc9039b7b6b2903a37b5b2b7)\n        /* \"#utility.yul\":5563:5581   */\n      0x64\n      dup3\n      add\n        /* \"#utility.yul\":5556:5600   */\n      mstore\n        /* \"#utility.yul\":5617:5636   */\n      0x84\n      add\n        /* \"smartContract_flat.sol\":31529:31651  require(... */\n      tag_104\n        /* \"#utility.yul\":5232:5642   */\n      jump\n        /* \"smartContract_flat.sol\":31529:31651  require(... */\n    tag_120:\n        /* \"smartContract_flat.sol\":31708:31731  ownerSurplusToAdmin[id] */\n      0x00\n      dup3\n      dup2\n      mstore\n        /* \"smartContract_flat.sol\":31708:31727  ownerSurplusToAdmin */\n      0x09\n        /* \"smartContract_flat.sol\":31708:31731  ownerSurplusToAdmin[id] */\n      0x20\n      mstore\n      0x40\n      swap1\n      keccak256\n      sload\n        /* \"smartContract_flat.sol\":31684:31688  Coin */\n      and(sub(shl(0xa0, 0x01), 0x01), sload(0x02))\n        /* \"smartContract_flat.sol\":31684:31696  Coin.balance */\n      0xe3d670d7\n        /* \"smartContract_flat.sol\":31697:31704  owner() */\n      tag_123\n        /* \"smartContract_flat.sol\":19084:19091  address */\n      0x00\n        /* \"smartContract_flat.sol\":19111:19117  _owner */\n      sload\n      sub(shl(0xa0, 0x01), 0x01)\n      and\n      swap1\n        /* \"smartContract_flat.sol\":19038:19125  function owner() public view virtual returns (address) {... */\n      jump\n        /* \"smartContract_flat.sol\":31697:31704  owner() */\n    tag_123:\n        /* \"smartContract_flat.sol\":31684:31705  Coin.balance(owner()) */\n      mload(0x40)\n      not(sub(shl(0xe0, 0x01), 0x01))\n      0xe0\n      dup5\n      swap1\n      shl\n      and\n      dup2\n      mstore\n      sub(shl(0xa0, 0x01), 0x01)\n        /* \"#utility.yul\":1328:1360   */\n      swap1\n      swap2\n      and\n        /* \"smartContract_flat.sol\":31684:31705  Coin.balance(owner()) */\n      0x04\n      dup3\n      add\n        /* \"#utility.yul\":1310:1361   */\n      mstore\n        /* \"#utility.yul\":1283:1301   */\n      0x24\n      add\n        /* \"smartContract_flat.sol\":31684:31705  Coin.balance(owner()) */\n      0x20\n      mload(0x40)\n      dup1\n      dup4\n      sub\n      dup2\n      dup7\n      gas\n      staticcall\n      iszero\n      dup1\n      iszero\n      tag_126\n      jumpi\n      returndatasize\n      0x00\n      dup1\n      returndatacopy\n      revert(0x00, returndatasize)\n    tag_126:\n      pop\n      pop\n      pop\n      pop\n      mload(0x40)\n      returndatasize\n      not(0x1f)\n      0x1f\n      dup3\n      add\n      and\n      dup3\n      add\n      dup1\n      0x40\n      mstore\n      pop\n      dup2\n      add\n      swap1\n      tag_127\n      swap2\n      swap1\n      tag_128\n      jump\t// in\n    tag_127:\n        /* \"smartContract_flat.sol\":31684:31731  Coin.balance(owner()) > ownerSurplusToAdmin[id] */\n      gt\n        /* \"smartContract_flat.sol\":31662:31800  require(... */\n      tag_129\n      jumpi\n      mload(0x40)\n      shl(0xe5, 0x461bcd)\n      dup2\n      mstore\n        /* \"#utility.yul\":6038:6040   */\n      0x20\n        /* \"smartContract_flat.sol\":31662:31800  require(... */\n      0x04\n      dup3\n      add\n        /* \"#utility.yul\":6020:6041   */\n      mstore\n        /* \"#utility.yul\":6077:6079   */\n      0x29\n        /* \"#utility.yul\":6057:6075   */\n      0x24\n      dup3\n      add\n        /* \"#utility.yul\":6050:6080   */\n      mstore\n        /* \"#utility.yul\":6116:6150   */\n      0x4572726f723a204f776e657220646f6573206e6f74206861766520656e6f7567\n        /* \"#utility.yul\":6096:6114   */\n      0x44\n      dup3\n      add\n        /* \"#utility.yul\":6089:6151   */\n      mstore\n      shl(0xb8, 0x682062616c616e6365)\n        /* \"#utility.yul\":6167:6185   */\n      0x64\n      dup3\n      add\n        /* \"#utility.yul\":6160:6199   */\n      mstore\n        /* \"#utility.yul\":6216:6235   */\n      0x84\n      add\n        /* \"smartContract_flat.sol\":31662:31800  require(... */\n      tag_104\n        /* \"#utility.yul\":5836:6241   */\n      jump\n        /* \"smartContract_flat.sol\":31662:31800  require(... */\n    tag_129:\n        /* \"smartContract_flat.sol\":31850:31873  ownerSurplusToAdmin[id] */\n      0x00\n      dup3\n      dup2\n      mstore\n        /* \"smartContract_flat.sol\":31850:31869  ownerSurplusToAdmin */\n      0x09\n        /* \"smartContract_flat.sol\":31850:31873  ownerSurplusToAdmin[id] */\n      0x20\n      swap1\n      dup2\n      mstore\n      0x40\n      dup1\n      dup4\n      keccak256\n      sload\n        /* \"smartContract_flat.sol\":31819:31829  msg.sender */\n      caller\n        /* \"smartContract_flat.sol\":31811:31830  buyInfo[msg.sender] */\n      dup5\n      mstore\n        /* \"smartContract_flat.sol\":31811:31818  buyInfo */\n      0x05\n        /* \"smartContract_flat.sol\":31811:31830  buyInfo[msg.sender] */\n      dup1\n      dup5\n      mstore\n      dup3\n      dup6\n      keccak256\n        /* \"smartContract_flat.sol\":31811:31834  buyInfo[msg.sender][id] */\n      dup8\n      dup7\n      mstore\n      swap1\n      swap4\n      mstore\n      swap3\n      keccak256\n        /* \"smartContract_flat.sol\":31811:31847  buyInfo[msg.sender][id].ownerSurplus */\n      add\n        /* \"smartContract_flat.sol\":31811:31873  buyInfo[msg.sender][id].ownerSurplus = ownerSurplusToAdmin[id] */\n      sstore\n        /* \"smartContract_flat.sol\":31884:31888  Coin */\n      and(sub(shl(0xa0, 0x01), 0x01), sload(0x02))\n        /* \"smartContract_flat.sol\":31884:31902  Coin.transferPrice */\n      0xb45ee9ef\n        /* \"smartContract_flat.sol\":31903:31910  owner() */\n      tag_132\n        /* \"smartContract_flat.sol\":19084:19091  address */\n      0x00\n        /* \"smartContract_flat.sol\":19111:19117  _owner */\n      sload\n      sub(shl(0xa0, 0x01), 0x01)\n      and\n      swap1\n        /* \"smartContract_flat.sol\":19038:19125  function owner() public view virtual returns (address) {... */\n      jump\n        /* \"smartContract_flat.sol\":31903:31910  owner() */\n    tag_132:\n        /* \"smartContract_flat.sol\":31912:31924  AdminAddress */\n      sload(0x01)\n      0x00\n        /* \"smartContract_flat.sol\":31926:31949  ownerSurplusToAdmin[id] */\n      dup7\n      dup2\n      mstore\n        /* \"smartContract_flat.sol\":31926:31945  ownerSurplusToAdmin */\n      0x09\n        /* \"smartContract_flat.sol\":31926:31949  ownerSurplusToAdmin[id] */\n      0x20\n      mstore\n      0x40\n      swap1\n      dup2\n      swap1\n      keccak256\n      sload\n        /* \"smartContract_flat.sol\":31884:31950  Coin.transferPrice(owner(), AdminAddress, ownerSurplusToAdmin[id]) */\n      swap1\n      mload\n      0xe0\n      dup6\n      swap1\n      shl\n      not(sub(shl(0xe0, 0x01), 0x01))\n      and\n      dup2\n      mstore\n      sub(shl(0xa0, 0x01), 0x01)\n        /* \"#utility.yul\":4762:4777   */\n      swap4\n      dup5\n      and\n        /* \"smartContract_flat.sol\":31884:31950  Coin.transferPrice(owner(), AdminAddress, ownerSurplusToAdmin[id]) */\n      0x04\n      dup3\n      add\n        /* \"#utility.yul\":4744:4778   */\n      mstore\n        /* \"smartContract_flat.sol\":31912:31924  AdminAddress */\n      swap3\n      swap1\n      swap2\n      and\n        /* \"#utility.yul\":4794:4812   */\n      0x24\n      dup4\n      add\n        /* \"#utility.yul\":4787:4830   */\n      mstore\n        /* \"#utility.yul\":4846:4864   */\n      0x44\n      dup3\n      add\n        /* \"#utility.yul\":4839:4873   */\n      mstore\n        /* \"#utility.yul\":4679:4697   */\n      0x64\n      add\n        /* \"smartContract_flat.sol\":31884:31950  Coin.transferPrice(owner(), AdminAddress, ownerSurplusToAdmin[id]) */\n      0x00\n      mload(0x40)\n      dup1\n      dup4\n      sub\n      dup2\n      0x00\n      dup8\n      dup1\n      extcodesize\n      iszero\n      dup1\n      iszero\n      tag_134\n      jumpi\n      0x00\n      dup1\n      revert\n    tag_134:\n      pop\n      gas\n      call\n      iszero\n      dup1\n      iszero\n      tag_136\n      jumpi\n      returndatasize\n      0x00\n      dup1\n      returndatacopy\n      revert(0x00, returndatasize)\n    tag_136:\n      pop\n      pop\n      pop\n        /* \"smartContract_flat.sol\":31979:32002  ownerSurplusToAdmin[id] */\n      0x00\n      dup4\n      dup2\n      mstore\n        /* \"smartContract_flat.sol\":31979:31998  ownerSurplusToAdmin */\n      0x09\n        /* \"smartContract_flat.sol\":31979:32002  ownerSurplusToAdmin[id] */\n      0x20\n      mstore\n      0x40\n      swap1\n      keccak256\n      sload\n        /* \"smartContract_flat.sol\":31974:32019  (1 * ownerSurplusToAdmin[id]).div(1000000000) */\n      tag_137\n      swap2\n      pop\n        /* \"smartContract_flat.sol\":32008:32018  1000000000 */\n      0x3b9aca00\n      swap1\n        /* \"smartContract_flat.sol\":31975:32002  1 * ownerSurplusToAdmin[id] */\n      tag_138\n      swap1\n        /* \"smartContract_flat.sol\":31975:31976  1 */\n      0x01\n        /* \"smartContract_flat.sol\":31975:32002  1 * ownerSurplusToAdmin[id] */\n      tag_139\n      jump\t// in\n    tag_138:\n        /* \"smartContract_flat.sol\":31974:32007  (1 * ownerSurplusToAdmin[id]).div */\n      swap1\n      tag_140\n        /* \"smartContract_flat.sol\":31974:32019  (1 * ownerSurplusToAdmin[id]).div(1000000000) */\n      jump\t// in\n    tag_137:\n      pop\n        /* \"smartContract_flat.sol\":19084:19091  address */\n      0x00\n        /* \"smartContract_flat.sol\":19111:19117  _owner */\n      dup1\n      sload\n        /* \"smartContract_flat.sol\":32030:32066  payable(owner()).transfer(msg.value) */\n      mload(0x40)\n      sub(shl(0xa0, 0x01), 0x01)\n        /* \"smartContract_flat.sol\":19111:19117  _owner */\n      swap1\n      swap2\n      and\n      swap2\n        /* \"smartContract_flat.sol\":32056:32065  msg.value */\n      callvalue\n        /* \"smartContract_flat.sol\":32030:32066  payable(owner()).transfer(msg.value) */\n      dup1\n      iszero\n      0x08fc\n      mul\n      swap3\n        /* \"smartContract_flat.sol\":32056:32065  msg.value */\n      swap1\n      swap2\n        /* \"smartContract_flat.sol\":32030:32066  payable(owner()).transfer(msg.value) */\n      dup2\n        /* \"smartContract_flat.sol\":19084:19091  address */\n      dup2\n        /* \"smartContract_flat.sol\":32030:32066  payable(owner()).transfer(msg.value) */\n      dup2\n        /* \"smartContract_flat.sol\":32056:32065  msg.value */\n      dup6\n        /* \"smartContract_flat.sol\":19111:19117  _owner */\n      dup9\n        /* \"smartContract_flat.sol\":32030:32066  payable(owner()).transfer(msg.value) */\n      dup9\n      call\n      swap4\n      pop\n      pop\n      pop\n      pop\n      iszero\n      dup1\n      iszero\n      tag_143\n      jumpi\n      returndatasize\n      0x00\n      dup1\n      returndatacopy\n      revert(0x00, returndatasize)\n    tag_143:\n      pop\n        /* \"smartContract_flat.sol\":32085:32095  msg.sender */\n      caller\n        /* \"smartContract_flat.sol\":32077:32096  buyInfo[msg.sender] */\n      0x00\n      dup2\n      dup2\n      mstore\n        /* \"smartContract_flat.sol\":32077:32084  buyInfo */\n      0x05\n        /* \"smartContract_flat.sol\":32077:32096  buyInfo[msg.sender] */\n      0x20\n      swap1\n      dup2\n      mstore\n      0x40\n      dup1\n      dup4\n      keccak256\n        /* \"smartContract_flat.sol\":32077:32100  buyInfo[msg.sender][id] */\n      dup7\n      dup5\n      mstore\n      dup3\n      mstore\n      dup1\n      dup4\n      keccak256\n        /* \"smartContract_flat.sol\":32121:32130  msg.value */\n      callvalue\n        /* \"smartContract_flat.sol\":32077:32118  buyInfo[msg.sender][id].BNBchargedByAdmin */\n      0x06\n      swap1\n      swap2\n      add\n        /* \"smartContract_flat.sol\":32077:32130  buyInfo[msg.sender][id].BNBchargedByAdmin = msg.value */\n      dup2\n      swap1\n      sstore\n        /* \"smartContract_flat.sol\":32171:32190  ownerSurplusToAdmin */\n      0x09\n        /* \"smartContract_flat.sol\":32171:32194  ownerSurplusToAdmin[id] */\n      dup4\n      mstore\n      swap3\n      dup2\n      swap1\n      keccak256\n      sload\n        /* \"smartContract_flat.sol\":32146:32206  swapTokenBNB(msg.sender, ownerSurplusToAdmin[id], msg.value) */\n      dup2\n      mload\n        /* \"#utility.yul\":6753:6804   */\n      swap5\n      dup6\n      mstore\n        /* \"#utility.yul\":6820:6838   */\n      swap2\n      dup5\n      add\n        /* \"#utility.yul\":6813:6847   */\n      swap2\n      swap1\n      swap2\n      mstore\n        /* \"#utility.yul\":6863:6881   */\n      dup3\n      add\n        /* \"#utility.yul\":6856:6890   */\n      mstore\n        /* \"smartContract_flat.sol\":32146:32206  swapTokenBNB(msg.sender, ownerSurplusToAdmin[id], msg.value) */\n      0xef4025816e2adaebc6e491a322497e5d2067b2f3aa8a2f9a73bda13ec867f2bf\n      swap1\n        /* \"#utility.yul\":6741:6743   */\n      0x60\n        /* \"#utility.yul\":6726:6744   */\n      add\n        /* \"smartContract_flat.sol\":32146:32206  swapTokenBNB(msg.sender, ownerSurplusToAdmin[id], msg.value) */\n    tag_144:\n      mload(0x40)\n      dup1\n      swap2\n      sub\n      swap1\n      log1\n        /* \"smartContract_flat.sol\":31382:32214  function swapTokenWithBNB(uint256 id, address user) public payable {... */\n      pop\n      pop\n      jump\t// out\n        /* \"smartContract_flat.sol\":30043:30141  function setAdminAddress(address _admin) public onlyOwner {... */\n    tag_44:\n        /* \"smartContract_flat.sol\":19084:19091  address */\n      0x00\n        /* \"smartContract_flat.sol\":19111:19117  _owner */\n      sload\n      sub(shl(0xa0, 0x01), 0x01)\n      and\n        /* \"smartContract_flat.sol\":4423:4433  msg.sender */\n      caller\n        /* \"smartContract_flat.sol\":19258:19281  owner() == _msgSender() */\n      eq\n        /* \"smartContract_flat.sol\":19250:19318  require(owner() == _msgSender(), \"Ownable: caller is not the owner\") */\n      tag_149\n      jumpi\n      mload(0x40)\n      shl(0xe5, 0x461bcd)\n      dup2\n      mstore\n      0x04\n      add\n      tag_104\n      swap1\n      tag_105\n      jump\t// in\n    tag_149:\n        /* \"smartContract_flat.sol\":30112:30124  AdminAddress */\n      0x01\n        /* \"smartContract_flat.sol\":30112:30133  AdminAddress = _admin */\n      dup1\n      sload\n      not(sub(shl(0xa0, 0x01), 0x01))\n      and\n      sub(shl(0xa0, 0x01), 0x01)\n      swap3\n      swap1\n      swap3\n      and\n      swap2\n      swap1\n      swap2\n      or\n      swap1\n      sstore\n        /* \"smartContract_flat.sol\":30043:30141  function setAdminAddress(address _admin) public onlyOwner {... */\n      jump\t// out\n        /* \"smartContract_flat.sol\":30378:31374  function buyToken(uint256 amount) public {... */\n    tag_49:\n        /* \"smartContract_flat.sol\":30452:30456  Coin */\n      sload(0x02)\n      0x01\n        /* \"smartContract_flat.sol\":30465:30477  AdminAddress */\n      sload\n        /* \"smartContract_flat.sol\":30452:30478  Coin.balance(AdminAddress) */\n      mload(0x40)\n      shl(0xe0, 0xe3d670d7)\n      dup2\n      mstore\n      sub(shl(0xa0, 0x01), 0x01)\n        /* \"smartContract_flat.sol\":30465:30477  AdminAddress */\n      swap2\n      dup3\n      and\n        /* \"smartContract_flat.sol\":30452:30478  Coin.balance(AdminAddress) */\n      0x04\n      dup3\n      add\n        /* \"#utility.yul\":1310:1361   */\n      mstore\n        /* \"smartContract_flat.sol\":30481:30487  amount */\n      dup4\n      swap3\n        /* \"smartContract_flat.sol\":30452:30456  Coin */\n      swap2\n      swap1\n      swap2\n      and\n      swap1\n        /* \"smartContract_flat.sol\":30452:30464  Coin.balance */\n      0xe3d670d7\n      swap1\n        /* \"#utility.yul\":1283:1301   */\n      0x24\n      add\n        /* \"smartContract_flat.sol\":30452:30478  Coin.balance(AdminAddress) */\n      0x20\n      mload(0x40)\n      dup1\n      dup4\n      sub\n      dup2\n      dup7\n      gas\n      staticcall\n      iszero\n      dup1\n      iszero\n      tag_155\n      jumpi\n      returndatasize\n      0x00\n      dup1\n      returndatacopy\n      revert(0x00, returndatasize)\n    tag_155:\n      pop\n      pop\n      pop\n      pop\n      mload(0x40)\n      returndatasize\n      not(0x1f)\n      0x1f\n      dup3\n      add\n      and\n      dup3\n      add\n      dup1\n      0x40\n      mstore\n      pop\n      dup2\n      add\n      swap1\n      tag_156\n      swap2\n      swap1\n      tag_128\n      jump\t// in\n    tag_156:\n        /* \"smartContract_flat.sol\":30452:30487  Coin.balance(AdminAddress) > amount */\n      gt\n        /* \"smartContract_flat.sol\":30430:30556  require(... */\n      tag_157\n      jumpi\n      mload(0x40)\n      shl(0xe5, 0x461bcd)\n      dup2\n      mstore\n        /* \"#utility.yul\":7103:7105   */\n      0x20\n        /* \"smartContract_flat.sol\":30430:30556  require(... */\n      0x04\n      dup3\n      add\n        /* \"#utility.yul\":7085:7106   */\n      mstore\n        /* \"#utility.yul\":7142:7144   */\n      0x29\n        /* \"#utility.yul\":7122:7140   */\n      0x24\n      dup3\n      add\n        /* \"#utility.yul\":7115:7145   */\n      mstore\n        /* \"#utility.yul\":7181:7215   */\n      0x4572726f723a2041646d696e20646f6573206e6f74206861766520656e6f7567\n        /* \"#utility.yul\":7161:7179   */\n      0x44\n      dup3\n      add\n        /* \"#utility.yul\":7154:7216   */\n      mstore\n      shl(0xb8, 0x682062616c616e6365)\n        /* \"#utility.yul\":7232:7250   */\n      0x64\n      dup3\n      add\n        /* \"#utility.yul\":7225:7264   */\n      mstore\n        /* \"#utility.yul\":7281:7300   */\n      0x84\n      add\n        /* \"smartContract_flat.sol\":30430:30556  require(... */\n      tag_104\n        /* \"#utility.yul\":6901:7306   */\n      jump\n        /* \"smartContract_flat.sol\":30430:30556  require(... */\n    tag_157:\n        /* \"smartContract_flat.sol\":30592:30602  investerID */\n      0x03\n        /* \"smartContract_flat.sol\":30592:30604  investerID++ */\n      dup1\n      sload\n      0x01\n      swap1\n      dup2\n      add\n      swap2\n      dup3\n      swap1\n      sstore\n        /* \"smartContract_flat.sol\":30695:30698  100 */\n      0x64\n      swap1\n        /* \"smartContract_flat.sol\":30681:30691  1 * amount */\n      tag_160\n      swap1\n        /* \"smartContract_flat.sol\":30685:30691  amount */\n      dup5\n      swap1\n        /* \"smartContract_flat.sol\":30681:30691  1 * amount */\n      tag_139\n      jump\t// in\n    tag_160:\n        /* \"smartContract_flat.sol\":30680:30698  (1 * amount) / 100 */\n      tag_161\n      swap2\n      swap1\n      tag_162\n      jump\t// in\n    tag_161:\n        /* \"smartContract_flat.sol\":30660:30677  burningAmount[id] */\n      0x00\n      dup3\n      dup2\n      mstore\n        /* \"smartContract_flat.sol\":30660:30673  burningAmount */\n      0x07\n        /* \"smartContract_flat.sol\":30660:30677  burningAmount[id] */\n      0x20\n      mstore\n      0x40\n      swap1\n      keccak256\n        /* \"smartContract_flat.sol\":30660:30698  burningAmount[id] = (1 * amount) / 100 */\n      dup2\n      swap1\n      sstore\n        /* \"smartContract_flat.sol\":30734:30763  amount.sub(burningAmount[id]) */\n      tag_163\n      swap1\n        /* \"smartContract_flat.sol\":30734:30740  amount */\n      dup4\n      swap1\n        /* \"smartContract_flat.sol\":30734:30744  amount.sub */\n      tag_164\n        /* \"smartContract_flat.sol\":30734:30763  amount.sub(burningAmount[id]) */\n      jump\t// in\n    tag_163:\n        /* \"smartContract_flat.sol\":30709:30731  amountAfterBurning[id] */\n      0x00\n      dup3\n      dup2\n      mstore\n        /* \"smartContract_flat.sol\":30709:30727  amountAfterBurning */\n      0x08\n        /* \"smartContract_flat.sol\":30709:30731  amountAfterBurning[id] */\n      0x20\n      mstore\n      0x40\n      swap1\n      dup2\n      swap1\n      keccak256\n        /* \"smartContract_flat.sol\":30709:30763  amountAfterBurning[id] = amount.sub(burningAmount[id]) */\n      dup3\n      swap1\n      sstore\n        /* \"smartContract_flat.sol\":30774:30778  Coin */\n      sload(0x02)\n      0x01\n        /* \"smartContract_flat.sol\":30793:30805  AdminAddress */\n      sload\n        /* \"smartContract_flat.sol\":30774:30842  Coin.transferPrice(AdminAddress, msg.sender, amountAfterBurning[id]) */\n      swap2\n      mload\n      shl(0xe0, 0xb45ee9ef)\n      dup2\n      mstore\n      sub(shl(0xa0, 0x01), 0x01)\n        /* \"smartContract_flat.sol\":30793:30805  AdminAddress */\n      swap3\n      dup4\n      and\n        /* \"smartContract_flat.sol\":30774:30842  Coin.transferPrice(AdminAddress, msg.sender, amountAfterBurning[id]) */\n      0x04\n      dup3\n      add\n        /* \"#utility.yul\":4744:4778   */\n      mstore\n        /* \"smartContract_flat.sol\":30807:30817  msg.sender */\n      caller\n        /* \"#utility.yul\":4794:4812   */\n      0x24\n      dup3\n      add\n        /* \"#utility.yul\":4787:4830   */\n      mstore\n        /* \"#utility.yul\":4846:4864   */\n      0x44\n      dup2\n      add\n        /* \"#utility.yul\":4839:4873   */\n      swap4\n      swap1\n      swap4\n      mstore\n        /* \"smartContract_flat.sol\":30774:30778  Coin */\n      and\n      swap1\n        /* \"smartContract_flat.sol\":30774:30792  Coin.transferPrice */\n      0xb45ee9ef\n      swap1\n        /* \"#utility.yul\":4679:4697   */\n      0x64\n      add\n        /* \"smartContract_flat.sol\":30774:30842  Coin.transferPrice(AdminAddress, msg.sender, amountAfterBurning[id]) */\n      0x00\n      mload(0x40)\n      dup1\n      dup4\n      sub\n      dup2\n      0x00\n      dup8\n      dup1\n      extcodesize\n      iszero\n      dup1\n      iszero\n      tag_166\n      jumpi\n      0x00\n      dup1\n      revert\n    tag_166:\n      pop\n      gas\n      call\n      iszero\n      dup1\n      iszero\n      tag_168\n      jumpi\n      returndatasize\n      0x00\n      dup1\n      returndatacopy\n      revert(0x00, returndatasize)\n    tag_168:\n      pop\n      pop\n        /* \"smartContract_flat.sol\":30884:30894  investerID */\n      0x03\n      dup1\n      sload\n        /* \"smartContract_flat.sol\":30863:30873  msg.sender */\n      caller\n        /* \"smartContract_flat.sol\":30855:30874  buyInfo[msg.sender] */\n      0x00\n      swap1\n      dup2\n      mstore\n        /* \"smartContract_flat.sol\":30855:30862  buyInfo */\n      0x05\n        /* \"smartContract_flat.sol\":30855:30874  buyInfo[msg.sender] */\n      0x20\n      swap1\n      dup2\n      mstore\n      0x40\n      dup1\n      dup4\n      keccak256\n        /* \"smartContract_flat.sol\":30855:30878  buyInfo[msg.sender][id] */\n      dup9\n      dup5\n      mstore\n      dup3\n      mstore\n      dup1\n      dup4\n      keccak256\n        /* \"smartContract_flat.sol\":30855:30894  buyInfo[msg.sender][id].ID = investerID */\n      swap4\n      dup5\n      sstore\n        /* \"smartContract_flat.sol\":30939:30954  block.timestamp */\n      timestamp\n        /* \"smartContract_flat.sol\":30905:30936  buyInfo[msg.sender][id].buyTime */\n      0x01\n      dup6\n      add\n        /* \"smartContract_flat.sol\":30905:30954  buyInfo[msg.sender][id].buyTime = block.timestamp */\n      sstore\n        /* \"smartContract_flat.sol\":30965:31002  buyInfo[msg.sender][id].purchaseToken */\n      0x02\n      dup1\n      dup6\n      add\n        /* \"smartContract_flat.sol\":30965:31011  buyInfo[msg.sender][id].purchaseToken = amount */\n      dup11\n      swap1\n      sstore\n        /* \"smartContract_flat.sol\":31058:31071  burningAmount */\n      0x07\n        /* \"smartContract_flat.sol\":31058:31075  burningAmount[id] */\n      dup4\n      mstore\n      dup2\n      dup5\n      keccak256\n      sload\n        /* \"smartContract_flat.sol\":31022:31055  buyInfo[msg.sender][id].burnToken */\n      swap6\n      dup6\n      add\n        /* \"smartContract_flat.sol\":31022:31075  buyInfo[msg.sender][id].burnToken = burningAmount[id] */\n      swap6\n      swap1\n      swap6\n      sstore\n        /* \"smartContract_flat.sol\":31121:31139  amountAfterBurning */\n      0x08\n        /* \"smartContract_flat.sol\":31121:31143  amountAfterBurning[id] */\n      swap1\n      swap2\n      mstore\n      swap1\n      keccak256\n      sload\n        /* \"smartContract_flat.sol\":31086:31118  buyInfo[msg.sender][id].userGets */\n      0x04\n      swap1\n      swap2\n      add\n        /* \"smartContract_flat.sol\":31086:31143  buyInfo[msg.sender][id].userGets = amountAfterBurning[id] */\n      dup2\n      swap1\n      sstore\n        /* \"smartContract_flat.sol\":31180:31209  amountAfterBurning[id].div(2) */\n      tag_169\n      swap4\n      pop\n        /* \"smartContract_flat.sol\":31121:31143  amountAfterBurning[id] */\n      swap2\n      pop\n        /* \"smartContract_flat.sol\":31180:31206  amountAfterBurning[id].div */\n      tag_140\n        /* \"smartContract_flat.sol\":31180:31209  amountAfterBurning[id].div(2) */\n      jump\t// in\n    tag_169:\n        /* \"smartContract_flat.sol\":31154:31177  ownerSurplusToAdmin[id] */\n      0x00\n      dup3\n      dup2\n      mstore\n        /* \"smartContract_flat.sol\":31154:31173  ownerSurplusToAdmin */\n      0x09\n        /* \"smartContract_flat.sol\":31154:31177  ownerSurplusToAdmin[id] */\n      0x20\n      mstore\n      0x40\n      swap1\n      keccak256\n        /* \"smartContract_flat.sol\":31154:31209  ownerSurplusToAdmin[id] = amountAfterBurning[id].div(2) */\n      sstore\n        /* \"smartContract_flat.sol\":31262:31274  AdminAddress */\n      sload(0x01)\n        /* \"smartContract_flat.sol\":31225:31284  buyTokenDetailsAddresses(msg.sender, AdminAddress, owner()) */\n      0x200e42c44f4b61e64b8298dd340205f3d4fd26f4018958219ac19fa737a4bc93\n      swap1\n        /* \"smartContract_flat.sol\":31250:31260  msg.sender */\n      caller\n      swap1\n      sub(shl(0xa0, 0x01), 0x01)\n        /* \"smartContract_flat.sol\":31262:31274  AdminAddress */\n      and\n        /* \"smartContract_flat.sol\":31276:31283  owner() */\n      tag_170\n        /* \"smartContract_flat.sol\":19084:19091  address */\n      0x00\n        /* \"smartContract_flat.sol\":19111:19117  _owner */\n      sload\n      sub(shl(0xa0, 0x01), 0x01)\n      and\n      swap1\n        /* \"smartContract_flat.sol\":19038:19125  function owner() public view virtual returns (address) {... */\n      jump\n        /* \"smartContract_flat.sol\":31276:31283  owner() */\n    tag_170:\n        /* \"smartContract_flat.sol\":31225:31284  buyTokenDetailsAddresses(msg.sender, AdminAddress, owner()) */\n      0x40\n      dup1\n      mload\n      sub(shl(0xa0, 0x01), 0x01)\n        /* \"#utility.yul\":7791:7806   */\n      swap5\n      dup6\n      and\n        /* \"#utility.yul\":7773:7807   */\n      dup2\n      mstore\n        /* \"#utility.yul\":7843:7858   */\n      swap3\n      dup5\n      and\n        /* \"#utility.yul\":7838:7840   */\n      0x20\n        /* \"#utility.yul\":7823:7841   */\n      dup5\n      add\n        /* \"#utility.yul\":7816:7859   */\n      mstore\n        /* \"#utility.yul\":7895:7910   */\n      swap3\n      and\n        /* \"#utility.yul\":7875:7893   */\n      dup2\n      dup4\n      add\n        /* \"#utility.yul\":7868:7911   */\n      mstore\n        /* \"smartContract_flat.sol\":31225:31284  buyTokenDetailsAddresses(msg.sender, AdminAddress, owner()) */\n      swap1\n      mload\n      swap1\n      dup2\n      swap1\n      sub\n        /* \"#utility.yul\":7723:7725   */\n      0x60\n        /* \"smartContract_flat.sol\":31225:31284  buyTokenDetailsAddresses(msg.sender, AdminAddress, owner()) */\n      add\n      swap1\n      log1\n        /* \"smartContract_flat.sol\":31324:31341  burningAmount[id] */\n      0x00\n      dup2\n      dup2\n      mstore\n        /* \"smartContract_flat.sol\":31324:31337  burningAmount */\n      0x07\n        /* \"smartContract_flat.sol\":31324:31341  burningAmount[id] */\n      0x20\n      swap1\n      dup2\n      mstore\n      0x40\n      dup1\n      dup4\n      keccak256\n      sload\n        /* \"smartContract_flat.sol\":31343:31361  amountAfterBurning */\n      0x08\n        /* \"smartContract_flat.sol\":31343:31365  amountAfterBurning[id] */\n      dup4\n      mstore\n      swap3\n      dup2\n      swap1\n      keccak256\n      sload\n        /* \"smartContract_flat.sol\":31300:31366  buyTokenDetails(amount, burningAmount[id], amountAfterBurning[id]) */\n      dup2\n      mload\n        /* \"#utility.yul\":8124:8149   */\n      dup7\n      dup2\n      mstore\n        /* \"#utility.yul\":8165:8183   */\n      swap3\n      dup4\n      add\n        /* \"#utility.yul\":8158:8192   */\n      swap4\n      swap1\n      swap4\n      mstore\n        /* \"#utility.yul\":8208:8226   */\n      dup2\n      add\n        /* \"#utility.yul\":8201:8235   */\n      swap2\n      swap1\n      swap2\n      mstore\n        /* \"smartContract_flat.sol\":31300:31366  buyTokenDetails(amount, burningAmount[id], amountAfterBurning[id]) */\n      0xea58cb92b8b20e95b17ad470f6f42aeca8d949d80c763c66664d879df9f65ba7\n      swap1\n        /* \"#utility.yul\":8112:8114   */\n      0x60\n        /* \"#utility.yul\":8097:8115   */\n      add\n        /* \"smartContract_flat.sol\":31300:31366  buyTokenDetails(amount, burningAmount[id], amountAfterBurning[id]) */\n      tag_144\n        /* \"#utility.yul\":7922:8241   */\n      jump\n        /* \"smartContract_flat.sol\":30249:30370  function getIdsOfUser(address user) public view returns (uint256[] memory) {... */\n    tag_59:\n      sub(shl(0xa0, 0x01), 0x01)\n        /* \"smartContract_flat.sol\":30342:30362  getIDByAddress[user] */\n      dup2\n      and\n      0x00\n      swap1\n      dup2\n      mstore\n        /* \"smartContract_flat.sol\":30342:30356  getIDByAddress */\n      0x06\n        /* \"smartContract_flat.sol\":30342:30362  getIDByAddress[user] */\n      0x20\n      swap1\n      dup2\n      mstore\n      0x40\n      swap2\n      dup3\n      swap1\n      keccak256\n        /* \"smartContract_flat.sol\":30335:30362  return getIDByAddress[user] */\n      dup1\n      sload\n      dup4\n      mload\n      dup2\n      dup5\n      mul\n      dup2\n      add\n      dup5\n      add\n      swap1\n      swap5\n      mstore\n      dup1\n      dup5\n      mstore\n        /* \"smartContract_flat.sol\":30306:30322  uint256[] memory */\n      0x60\n      swap4\n        /* \"smartContract_flat.sol\":30335:30362  return getIDByAddress[user] */\n      swap3\n      dup4\n      add\n        /* \"smartContract_flat.sol\":30342:30362  getIDByAddress[user] */\n      dup3\n        /* \"smartContract_flat.sol\":30335:30362  return getIDByAddress[user] */\n      dup3\n      dup1\n      iszero\n      tag_176\n      jumpi\n      0x20\n      mul\n      dup3\n      add\n      swap2\n      swap1\n      0x00\n      mstore\n      keccak256(0x00, 0x20)\n      swap1\n    tag_177:\n      dup2\n      sload\n      dup2\n      mstore\n      0x20\n      add\n      swap1\n      0x01\n      add\n      swap1\n      dup1\n      dup4\n      gt\n      tag_177\n      jumpi\n    tag_176:\n      pop\n      pop\n      pop\n      pop\n      pop\n      swap1\n      pop\n        /* \"smartContract_flat.sol\":30249:30370  function getIdsOfUser(address user) public view returns (uint256[] memory) {... */\n      swap2\n      swap1\n      pop\n      jump\t// out\n        /* \"smartContract_flat.sol\":19689:19792  function renounceOwnership() public virtual onlyOwner {... */\n    tag_64:\n        /* \"smartContract_flat.sol\":19084:19091  address */\n      0x00\n        /* \"smartContract_flat.sol\":19111:19117  _owner */\n      sload\n      sub(shl(0xa0, 0x01), 0x01)\n      and\n        /* \"smartContract_flat.sol\":4423:4433  msg.sender */\n      caller\n        /* \"smartContract_flat.sol\":19258:19281  owner() == _msgSender() */\n      eq\n        /* \"smartContract_flat.sol\":19250:19318  require(owner() == _msgSender(), \"Ownable: caller is not the owner\") */\n      tag_181\n      jumpi\n      mload(0x40)\n      shl(0xe5, 0x461bcd)\n      dup2\n      mstore\n      0x04\n      add\n      tag_104\n      swap1\n      tag_105\n      jump\t// in\n    tag_181:\n        /* \"smartContract_flat.sol\":19754:19784  _transferOwnership(address(0)) */\n      tag_184\n        /* \"smartContract_flat.sol\":19781:19782  0 */\n      0x00\n        /* \"smartContract_flat.sol\":19754:19772  _transferOwnership */\n      tag_185\n        /* \"smartContract_flat.sol\":19754:19784  _transferOwnership(address(0)) */\n      jump\t// in\n    tag_184:\n        /* \"smartContract_flat.sol\":19689:19792  function renounceOwnership() public virtual onlyOwner {... */\n      jump\t// out\n        /* \"smartContract_flat.sol\":19947:20185  function transferOwnership(address newOwner) public virtual onlyOwner {... */\n    tag_98:\n        /* \"smartContract_flat.sol\":19084:19091  address */\n      0x00\n        /* \"smartContract_flat.sol\":19111:19117  _owner */\n      sload\n      sub(shl(0xa0, 0x01), 0x01)\n      and\n        /* \"smartContract_flat.sol\":4423:4433  msg.sender */\n      caller\n        /* \"smartContract_flat.sol\":19258:19281  owner() == _msgSender() */\n      eq\n        /* \"smartContract_flat.sol\":19250:19318  require(owner() == _msgSender(), \"Ownable: caller is not the owner\") */\n      tag_191\n      jumpi\n      mload(0x40)\n      shl(0xe5, 0x461bcd)\n      dup2\n      mstore\n      0x04\n      add\n      tag_104\n      swap1\n      tag_105\n      jump\t// in\n    tag_191:\n      sub(shl(0xa0, 0x01), 0x01)\n        /* \"smartContract_flat.sol\":20050:20072  newOwner != address(0) */\n      dup2\n      and\n        /* \"smartContract_flat.sol\":20028:20138  require(... */\n      tag_194\n      jumpi\n      mload(0x40)\n      shl(0xe5, 0x461bcd)\n      dup2\n      mstore\n        /* \"#utility.yul\":8448:8450   */\n      0x20\n        /* \"smartContract_flat.sol\":20028:20138  require(... */\n      0x04\n      dup3\n      add\n        /* \"#utility.yul\":8430:8451   */\n      mstore\n        /* \"#utility.yul\":8487:8489   */\n      0x26\n        /* \"#utility.yul\":8467:8485   */\n      0x24\n      dup3\n      add\n        /* \"#utility.yul\":8460:8490   */\n      mstore\n        /* \"#utility.yul\":8526:8560   */\n      0x4f776e61626c653a206e6577206f776e657220697320746865207a65726f2061\n        /* \"#utility.yul\":8506:8524   */\n      0x44\n      dup3\n      add\n        /* \"#utility.yul\":8499:8561   */\n      mstore\n      shl(0xd0, 0x646472657373)\n        /* \"#utility.yul\":8577:8595   */\n      0x64\n      dup3\n      add\n        /* \"#utility.yul\":8570:8606   */\n      mstore\n        /* \"#utility.yul\":8623:8642   */\n      0x84\n      add\n        /* \"smartContract_flat.sol\":20028:20138  require(... */\n      tag_104\n        /* \"#utility.yul\":8246:8648   */\n      jump\n        /* \"smartContract_flat.sol\":20028:20138  require(... */\n    tag_194:\n        /* \"smartContract_flat.sol\":20149:20177  _transferOwnership(newOwner) */\n      tag_197\n        /* \"smartContract_flat.sol\":20168:20176  newOwner */\n      dup2\n        /* \"smartContract_flat.sol\":20149:20167  _transferOwnership */\n      tag_185\n        /* \"smartContract_flat.sol\":20149:20177  _transferOwnership(newOwner) */\n      jump\t// in\n    tag_197:\n        /* \"smartContract_flat.sol\":19947:20185  function transferOwnership(address newOwner) public virtual onlyOwner {... */\n      pop\n      jump\t// out\n        /* \"smartContract_flat.sol\":25455:25553  function div(uint256 a, uint256 b) internal pure returns (uint256) {... */\n    tag_140:\n        /* \"smartContract_flat.sol\":25513:25520  uint256 */\n      0x00\n        /* \"smartContract_flat.sol\":25540:25545  a / b */\n      tag_200\n        /* \"smartContract_flat.sol\":25544:25545  b */\n      dup3\n        /* \"smartContract_flat.sol\":25540:25541  a */\n      dup5\n        /* \"smartContract_flat.sol\":25540:25545  a / b */\n      tag_162\n      jump\t// in\n    tag_200:\n        /* \"smartContract_flat.sol\":25533:25545  return a / b */\n      swap4\n        /* \"smartContract_flat.sol\":25455:25553  function div(uint256 a, uint256 b) internal pure returns (uint256) {... */\n      swap3\n      pop\n      pop\n      pop\n      jump\t// out\n        /* \"smartContract_flat.sol\":24699:24797  function sub(uint256 a, uint256 b) internal pure returns (uint256) {... */\n    tag_164:\n        /* \"smartContract_flat.sol\":24757:24764  uint256 */\n      0x00\n        /* \"smartContract_flat.sol\":24784:24789  a - b */\n      tag_200\n        /* \"smartContract_flat.sol\":24788:24789  b */\n      dup3\n        /* \"smartContract_flat.sol\":24784:24785  a */\n      dup5\n        /* \"smartContract_flat.sol\":24784:24789  a - b */\n      tag_203\n      jump\t// in\n        /* \"smartContract_flat.sol\":20345:20536  function _transferOwnership(address newOwner) internal virtual {... */\n    tag_185:\n        /* \"smartContract_flat.sol\":20419:20435  address oldOwner */\n      0x00\n        /* \"smartContract_flat.sol\":20438:20444  _owner */\n      dup1\n      sload\n      sub(shl(0xa0, 0x01), 0x01)\n        /* \"smartContract_flat.sol\":20455:20472  _owner = newOwner */\n      dup4\n      dup2\n      and\n      not(sub(shl(0xa0, 0x01), 0x01))\n      dup4\n      and\n      dup2\n      or\n      dup5\n      sstore\n        /* \"smartContract_flat.sol\":20488:20528  OwnershipTransferred(oldOwner, newOwner) */\n      mload(0x40)\n        /* \"smartContract_flat.sol\":20438:20444  _owner */\n      swap2\n      swap1\n      swap3\n      and\n      swap3\n      dup4\n      swap2\n        /* \"smartContract_flat.sol\":20488:20528  OwnershipTransferred(oldOwner, newOwner) */\n      0x8be0079c531659141344cd1fd0a4f28419497f9722a3daafe3b4186f6b6457e0\n      swap2\n        /* \"smartContract_flat.sol\":20419:20435  address oldOwner */\n      swap1\n        /* \"smartContract_flat.sol\":20488:20528  OwnershipTransferred(oldOwner, newOwner) */\n      log3\n        /* \"smartContract_flat.sol\":20408:20536  {... */\n      pop\n        /* \"smartContract_flat.sol\":20345:20536  function _transferOwnership(address newOwner) internal virtual {... */\n      pop\n      jump\t// out\n        /* \"#utility.yul\":206:344   */\n    tag_205:\n      sub(shl(0xa0, 0x01), 0x01)\n        /* \"#utility.yul\":288:319   */\n      dup2\n      and\n        /* \"#utility.yul\":278:320   */\n      dup2\n      eq\n        /* \"#utility.yul\":268:338   */\n      tag_197\n      jumpi\n        /* \"#utility.yul\":334:335   */\n      0x00\n        /* \"#utility.yul\":331:332   */\n      dup1\n        /* \"#utility.yul\":324:336   */\n      revert\n        /* \"#utility.yul\":349:832   */\n    tag_29:\n        /* \"#utility.yul\":439:445   */\n      0x00\n        /* \"#utility.yul\":447:453   */\n      dup1\n        /* \"#utility.yul\":455:461   */\n      0x00\n        /* \"#utility.yul\":508:510   */\n      0x60\n        /* \"#utility.yul\":496:505   */\n      dup5\n        /* \"#utility.yul\":487:494   */\n      dup7\n        /* \"#utility.yul\":483:506   */\n      sub\n        /* \"#utility.yul\":479:511   */\n      slt\n        /* \"#utility.yul\":476:528   */\n      iszero\n      tag_212\n      jumpi\n        /* \"#utility.yul\":524:525   */\n      0x00\n        /* \"#utility.yul\":521:522   */\n      dup1\n        /* \"#utility.yul\":514:526   */\n      revert\n        /* \"#utility.yul\":476:528   */\n    tag_212:\n        /* \"#utility.yul\":563:572   */\n      dup4\n        /* \"#utility.yul\":550:573   */\n      calldataload\n        /* \"#utility.yul\":582:620   */\n      tag_213\n        /* \"#utility.yul\":614:619   */\n      dup2\n        /* \"#utility.yul\":582:620   */\n      tag_205\n      jump\t// in\n    tag_213:\n        /* \"#utility.yul\":639:644   */\n      swap3\n      pop\n        /* \"#utility.yul\":696:698   */\n      0x20\n        /* \"#utility.yul\":681:699   */\n      dup5\n      add\n        /* \"#utility.yul\":668:700   */\n      calldataload\n        /* \"#utility.yul\":709:749   */\n      tag_214\n        /* \"#utility.yul\":668:700   */\n      dup2\n        /* \"#utility.yul\":709:749   */\n      tag_205\n      jump\t// in\n    tag_214:\n        /* \"#utility.yul\":349:832   */\n      swap3\n      swap6\n        /* \"#utility.yul\":768:775   */\n      swap3\n      swap5\n      pop\n      pop\n      pop\n        /* \"#utility.yul\":822:824   */\n      0x40\n        /* \"#utility.yul\":807:825   */\n      swap2\n      swap1\n      swap2\n      add\n        /* \"#utility.yul\":794:826   */\n      calldataload\n      swap1\n        /* \"#utility.yul\":349:832   */\n      jump\t// out\n        /* \"#utility.yul\":837:1159   */\n    tag_33:\n        /* \"#utility.yul\":905:911   */\n      0x00\n        /* \"#utility.yul\":913:919   */\n      dup1\n        /* \"#utility.yul\":966:968   */\n      0x40\n        /* \"#utility.yul\":954:963   */\n      dup4\n        /* \"#utility.yul\":945:952   */\n      dup6\n        /* \"#utility.yul\":941:964   */\n      sub\n        /* \"#utility.yul\":937:969   */\n      slt\n        /* \"#utility.yul\":934:986   */\n      iszero\n      tag_216\n      jumpi\n        /* \"#utility.yul\":982:983   */\n      0x00\n        /* \"#utility.yul\":979:980   */\n      dup1\n        /* \"#utility.yul\":972:984   */\n      revert\n        /* \"#utility.yul\":934:986   */\n    tag_216:\n        /* \"#utility.yul\":1018:1027   */\n      dup3\n        /* \"#utility.yul\":1005:1028   */\n      calldataload\n        /* \"#utility.yul\":995:1028   */\n      swap2\n      pop\n        /* \"#utility.yul\":1078:1080   */\n      0x20\n        /* \"#utility.yul\":1067:1076   */\n      dup4\n        /* \"#utility.yul\":1063:1081   */\n      add\n        /* \"#utility.yul\":1050:1082   */\n      calldataload\n        /* \"#utility.yul\":1091:1129   */\n      tag_217\n        /* \"#utility.yul\":1123:1128   */\n      dup2\n        /* \"#utility.yul\":1091:1129   */\n      tag_205\n      jump\t// in\n    tag_217:\n        /* \"#utility.yul\":1148:1153   */\n      dup1\n        /* \"#utility.yul\":1138:1153   */\n      swap2\n      pop\n      pop\n        /* \"#utility.yul\":837:1159   */\n      swap3\n      pop\n      swap3\n      swap1\n      pop\n      jump\t// out\n        /* \"#utility.yul\":1372:1626   */\n    tag_43:\n        /* \"#utility.yul\":1431:1437   */\n      0x00\n        /* \"#utility.yul\":1484:1486   */\n      0x20\n        /* \"#utility.yul\":1472:1481   */\n      dup3\n        /* \"#utility.yul\":1463:1470   */\n      dup5\n        /* \"#utility.yul\":1459:1482   */\n      sub\n        /* \"#utility.yul\":1455:1487   */\n      slt\n        /* \"#utility.yul\":1452:1504   */\n      iszero\n      tag_220\n      jumpi\n        /* \"#utility.yul\":1500:1501   */\n      0x00\n        /* \"#utility.yul\":1497:1498   */\n      dup1\n        /* \"#utility.yul\":1490:1502   */\n      revert\n        /* \"#utility.yul\":1452:1504   */\n    tag_220:\n        /* \"#utility.yul\":1539:1548   */\n      dup2\n        /* \"#utility.yul\":1526:1549   */\n      calldataload\n        /* \"#utility.yul\":1558:1596   */\n      tag_200\n        /* \"#utility.yul\":1590:1595   */\n      dup2\n        /* \"#utility.yul\":1558:1596   */\n      tag_205\n      jump\t// in\n        /* \"#utility.yul\":1631:1811   */\n    tag_48:\n        /* \"#utility.yul\":1690:1696   */\n      0x00\n        /* \"#utility.yul\":1743:1745   */\n      0x20\n        /* \"#utility.yul\":1731:1740   */\n      dup3\n        /* \"#utility.yul\":1722:1729   */\n      dup5\n        /* \"#utility.yul\":1718:1741   */\n      sub\n        /* \"#utility.yul\":1714:1746   */\n      slt\n        /* \"#utility.yul\":1711:1763   */\n      iszero\n      tag_223\n      jumpi\n        /* \"#utility.yul\":1759:1760   */\n      0x00\n        /* \"#utility.yul\":1756:1757   */\n      dup1\n        /* \"#utility.yul\":1749:1761   */\n      revert\n        /* \"#utility.yul\":1711:1763   */\n    tag_223:\n      pop\n        /* \"#utility.yul\":1782:1805   */\n      calldataload\n      swap2\n        /* \"#utility.yul\":1631:1811   */\n      swap1\n      pop\n      jump\t// out\n        /* \"#utility.yul\":1998:2630   */\n    tag_61:\n        /* \"#utility.yul\":2169:2171   */\n      0x20\n        /* \"#utility.yul\":2221:2242   */\n      dup1\n      dup3\n      mstore\n        /* \"#utility.yul\":2291:2304   */\n      dup3\n      mload\n        /* \"#utility.yul\":2194:2212   */\n      dup3\n      dup3\n      add\n        /* \"#utility.yul\":2313:2335   */\n      dup2\n      swap1\n      mstore\n        /* \"#utility.yul\":2140:2144   */\n      0x00\n      swap2\n        /* \"#utility.yul\":2169:2171   */\n      swap1\n        /* \"#utility.yul\":2392:2407   */\n      dup5\n      dup3\n      add\n      swap1\n        /* \"#utility.yul\":2366:2368   */\n      0x40\n        /* \"#utility.yul\":2351:2369   */\n      dup6\n      add\n      swap1\n        /* \"#utility.yul\":2140:2144   */\n      dup5\n        /* \"#utility.yul\":2435:2604   */\n    tag_226:\n        /* \"#utility.yul\":2449:2455   */\n      dup2\n        /* \"#utility.yul\":2446:2447   */\n      dup2\n        /* \"#utility.yul\":2443:2456   */\n      lt\n        /* \"#utility.yul\":2435:2604   */\n      iszero\n      tag_228\n      jumpi\n        /* \"#utility.yul\":2510:2523   */\n      dup4\n      mload\n        /* \"#utility.yul\":2498:2524   */\n      dup4\n      mstore\n        /* \"#utility.yul\":2579:2594   */\n      swap3\n      dup5\n      add\n      swap3\n        /* \"#utility.yul\":2544:2556   */\n      swap2\n      dup5\n      add\n      swap2\n        /* \"#utility.yul\":2471:2472   */\n      0x01\n        /* \"#utility.yul\":2464:2473   */\n      add\n        /* \"#utility.yul\":2435:2604   */\n      jump(tag_226)\n    tag_228:\n      pop\n        /* \"#utility.yul\":2621:2624   */\n      swap1\n      swap7\n        /* \"#utility.yul\":1998:2630   */\n      swap6\n      pop\n      pop\n      pop\n      pop\n      pop\n      pop\n      jump\t// out\n        /* \"#utility.yul\":2635:2957   */\n    tag_68:\n        /* \"#utility.yul\":2703:2709   */\n      0x00\n        /* \"#utility.yul\":2711:2717   */\n      dup1\n        /* \"#utility.yul\":2764:2766   */\n      0x40\n        /* \"#utility.yul\":2752:2761   */\n      dup4\n        /* \"#utility.yul\":2743:2750   */\n      dup6\n        /* \"#utility.yul\":2739:2762   */\n      sub\n        /* \"#utility.yul\":2735:2767   */\n      slt\n        /* \"#utility.yul\":2732:2784   */\n      iszero\n      tag_230\n      jumpi\n        /* \"#utility.yul\":2780:2781   */\n      0x00\n        /* \"#utility.yul\":2777:2778   */\n      dup1\n        /* \"#utility.yul\":2770:2782   */\n      revert\n        /* \"#utility.yul\":2732:2784   */\n    tag_230:\n        /* \"#utility.yul\":2819:2828   */\n      dup3\n        /* \"#utility.yul\":2806:2829   */\n      calldataload\n        /* \"#utility.yul\":2838:2876   */\n      tag_231\n        /* \"#utility.yul\":2870:2875   */\n      dup2\n        /* \"#utility.yul\":2838:2876   */\n      tag_205\n      jump\t// in\n    tag_231:\n        /* \"#utility.yul\":2895:2900   */\n      swap5\n        /* \"#utility.yul\":2947:2949   */\n      0x20\n        /* \"#utility.yul\":2932:2950   */\n      swap4\n      swap1\n      swap4\n      add\n        /* \"#utility.yul\":2919:2951   */\n      calldataload\n      swap4\n      pop\n      pop\n      pop\n        /* \"#utility.yul\":2635:2957   */\n      jump\t// out\n        /* \"#utility.yul\":3795:4151   */\n    tag_105:\n        /* \"#utility.yul\":3997:3999   */\n      0x20\n        /* \"#utility.yul\":3979:4000   */\n      dup1\n      dup3\n      mstore\n        /* \"#utility.yul\":4016:4034   */\n      dup2\n      dup2\n      add\n        /* \"#utility.yul\":4009:4039   */\n      mstore\n        /* \"#utility.yul\":4075:4109   */\n      0x4f776e61626c653a2063616c6c6572206973206e6f7420746865206f776e6572\n        /* \"#utility.yul\":4070:4072   */\n      0x40\n        /* \"#utility.yul\":4055:4073   */\n      dup3\n      add\n        /* \"#utility.yul\":4048:4110   */\n      mstore\n        /* \"#utility.yul\":4142:4144   */\n      0x60\n        /* \"#utility.yul\":4127:4145   */\n      add\n      swap1\n        /* \"#utility.yul\":3795:4151   */\n      jump\t// out\n        /* \"#utility.yul\":5647:5831   */\n    tag_128:\n        /* \"#utility.yul\":5717:5723   */\n      0x00\n        /* \"#utility.yul\":5770:5772   */\n      0x20\n        /* \"#utility.yul\":5758:5767   */\n      dup3\n        /* \"#utility.yul\":5749:5756   */\n      dup5\n        /* \"#utility.yul\":5745:5768   */\n      sub\n        /* \"#utility.yul\":5741:5773   */\n      slt\n        /* \"#utility.yul\":5738:5790   */\n      iszero\n      tag_240\n      jumpi\n        /* \"#utility.yul\":5786:5787   */\n      0x00\n        /* \"#utility.yul\":5783:5784   */\n      dup1\n        /* \"#utility.yul\":5776:5788   */\n      revert\n        /* \"#utility.yul\":5738:5790   */\n    tag_240:\n      pop\n        /* \"#utility.yul\":5809:5825   */\n      mload\n      swap2\n        /* \"#utility.yul\":5647:5831   */\n      swap1\n      pop\n      jump\t// out\n        /* \"#utility.yul\":6246:6373   */\n    tag_206:\n        /* \"#utility.yul\":6307:6317   */\n      0x4e487b71\n        /* \"#utility.yul\":6302:6305   */\n      0xe0\n        /* \"#utility.yul\":6298:6318   */\n      shl\n        /* \"#utility.yul\":6295:6296   */\n      0x00\n        /* \"#utility.yul\":6288:6319   */\n      mstore\n        /* \"#utility.yul\":6338:6342   */\n      0x11\n        /* \"#utility.yul\":6335:6336   */\n      0x04\n        /* \"#utility.yul\":6328:6343   */\n      mstore\n        /* \"#utility.yul\":6362:6366   */\n      0x24\n        /* \"#utility.yul\":6359:6360   */\n      0x00\n        /* \"#utility.yul\":6352:6367   */\n      revert\n        /* \"#utility.yul\":6378:6546   */\n    tag_139:\n        /* \"#utility.yul\":6418:6425   */\n      0x00\n        /* \"#utility.yul\":6484:6485   */\n      dup2\n        /* \"#utility.yul\":6480:6481   */\n      0x00\n        /* \"#utility.yul\":6476:6482   */\n      not\n        /* \"#utility.yul\":6472:6486   */\n      div\n        /* \"#utility.yul\":6469:6470   */\n      dup4\n        /* \"#utility.yul\":6466:6487   */\n      gt\n        /* \"#utility.yul\":6461:6462   */\n      dup3\n        /* \"#utility.yul\":6454:6463   */\n      iszero\n        /* \"#utility.yul\":6447:6464   */\n      iszero\n        /* \"#utility.yul\":6443:6488   */\n      and\n        /* \"#utility.yul\":6440:6511   */\n      iszero\n      tag_245\n      jumpi\n        /* \"#utility.yul\":6491:6509   */\n      tag_245\n      tag_206\n      jump\t// in\n    tag_245:\n      pop\n        /* \"#utility.yul\":6531:6540   */\n      mul\n      swap1\n        /* \"#utility.yul\":6378:6546   */\n      jump\t// out\n        /* \"#utility.yul\":7311:7528   */\n    tag_162:\n        /* \"#utility.yul\":7351:7352   */\n      0x00\n        /* \"#utility.yul\":7377:7378   */\n      dup3\n        /* \"#utility.yul\":7367:7499   */\n      tag_249\n      jumpi\n        /* \"#utility.yul\":7421:7431   */\n      0x4e487b71\n        /* \"#utility.yul\":7416:7419   */\n      0xe0\n        /* \"#utility.yul\":7412:7432   */\n      shl\n        /* \"#utility.yul\":7409:7410   */\n      0x00\n        /* \"#utility.yul\":7402:7433   */\n      mstore\n        /* \"#utility.yul\":7456:7460   */\n      0x12\n        /* \"#utility.yul\":7453:7454   */\n      0x04\n        /* \"#utility.yul\":7446:7461   */\n      mstore\n        /* \"#utility.yul\":7484:7488   */\n      0x24\n        /* \"#utility.yul\":7481:7482   */\n      0x00\n        /* \"#utility.yul\":7474:7489   */\n      revert\n        /* \"#utility.yul\":7367:7499   */\n    tag_249:\n      pop\n        /* \"#utility.yul\":7513:7522   */\n      div\n      swap1\n        /* \"#utility.yul\":7311:7528   */\n      jump\t// out\n        /* \"#utility.yul\":8653:8778   */\n    tag_203:\n        /* \"#utility.yul\":8693:8697   */\n      0x00\n        /* \"#utility.yul\":8721:8722   */\n      dup3\n        /* \"#utility.yul\":8718:8719   */\n      dup3\n        /* \"#utility.yul\":8715:8723   */\n      lt\n        /* \"#utility.yul\":8712:8746   */\n      iszero\n      tag_255\n      jumpi\n        /* \"#utility.yul\":8726:8744   */\n      tag_255\n      tag_206\n      jump\t// in\n    tag_255:\n      pop\n        /* \"#utility.yul\":8763:8772   */\n      sub\n      swap1\n        /* \"#utility.yul\":8653:8778   */\n      jump\t// out\n\n    auxdata: 0xa2646970667358221220d954b4ac9af40bf75580df01c36b305865c06aaea7a6b55a40109873802d09ef64736f6c634300080d0033\n}\n",
				"bytecode": {
					"linkReferences": {},
					"object": "608060405234801561001057600080fd5b5061001a3361001f565b61006f565b600080546001600160a01b038381166001600160a01b0319831681178455604051919092169283917f8be0079c531659141344cd1fd0a4f28419497f9722a3daafe3b4186f6b6457e09190a35050565b610f308061007e6000396000f3fe6080604052600436106100f35760003560e01c8063715018a61161008a578063af0afec911610059578063af0afec914610325578063d09bf0e41461033a578063ee23850614610367578063f2fde38b1461039457600080fd5b8063715018a61461023c5780638637856d146102515780638da5cb5b146102e7578063a77b2e371461030557600080fd5b80632c1e816d116100c65780632c1e816d146101945780632d296bf1146101b45780633a84374b146101d45780635f4fd1f71461020f57600080fd5b8063158ef93e146100f85780631794bb3c1461012757806323660bd51461014957806328f661e31461015c575b600080fd5b34801561010457600080fd5b506004546101129060ff1681565b60405190151581526020015b60405180910390f35b34801561013357600080fd5b50610147610142366004610d27565b6103b4565b005b610147610157366004610d68565b6104f3565b34801561016857600080fd5b5060015461017c906001600160a01b031681565b6040516001600160a01b03909116815260200161011e565b3480156101a057600080fd5b506101476101af366004610d98565b61085c565b3480156101c057600080fd5b506101476101cf366004610db5565b6108a8565b3480156101e057600080fd5b506102016101ef366004610db5565b60086020526000908152604090205481565b60405190815260200161011e565b34801561021b57600080fd5b5061022f61022a366004610d98565b610b66565b60405161011e9190610dce565b34801561024857600080fd5b50610147610bd2565b34801561025d57600080fd5b506102b261026c366004610e12565b6005602081815260009384526040808520909152918352912080546001820154600283015460038401546004850154958501546006909501549395929491939092919087565b604080519788526020880196909652948601939093526060850191909152608084015260a083015260c082015260e00161011e565b3480156102f357600080fd5b506000546001600160a01b031661017c565b34801561031157600080fd5b5060025461017c906001600160a01b031681565b34801561033157600080fd5b50600354610201565b34801561034657600080fd5b50610201610355366004610db5565b60096020526000908152604090205481565b34801561037357600080fd5b50610201610382366004610db5565b60076020526000908152604090205481565b3480156103a057600080fd5b506101476103af366004610d98565b610c08565b6000546001600160a01b031633146103e75760405162461bcd60e51b81526004016103de90610e3e565b60405180910390fd5b60045460ff1615156001036104345760405162461bcd60e51b8152602060048201526013602482015272105b1c9958591e48125b9a5d1a585b1a5e9959606a1b60448201526064016103de565b600280546001600160a01b038086166001600160a01b03199283168117909355600180549186169190921617905563b45ee9ef6104796000546001600160a01b031690565b6040516001600160e01b031960e084901b1681526001600160a01b039182166004820152908516602482015260448101849052606401600060405180830381600087803b1580156104c957600080fd5b505af11580156104dd573d6000803e3d6000fd5b50506004805460ff191660011790555050505050565b6001546001600160a01b031633146105435760405162461bcd60e51b815260206004820152601360248201527204f6e6c792041646d696e2063616e205377617606c1b60448201526064016103de565b6001600160a01b038116600090815260056020908152604080832085845290915290205482146105cc5760405162461bcd60e51b815260206004820152602e60248201527f4572726f723a204e6f7420612076616c6964204944206f7220506c656173652060448201526d313abc9039b7b6b2903a37b5b2b760911b60648201526084016103de565b6000828152600960205260409020546002546001600160a01b031663e3d670d76105fe6000546001600160a01b031690565b6040516001600160e01b031960e084901b1681526001600160a01b039091166004820152602401602060405180830381865afa158015610642573d6000803e3d6000fd5b505050506040513d601f19601f820116820180604052508101906106669190610e73565b116106c55760405162461bcd60e51b815260206004820152602960248201527f4572726f723a204f776e657220646f6573206e6f74206861766520656e6f7567604482015268682062616c616e636560b81b60648201526084016103de565b6000828152600960209081526040808320543384526005808452828520878652909352922001556002546001600160a01b031663b45ee9ef61070f6000546001600160a01b031690565b6001546000868152600960205260409081902054905160e085901b6001600160e01b03191681526001600160a01b0393841660048201529290911660248301526044820152606401600060405180830381600087803b15801561077157600080fd5b505af1158015610785573d6000803e3d6000fd5b5050506000838152600960205260409020546107b39150633b9aca00906107ad906001610ea2565b90610ca3565b50600080546040516001600160a01b03909116913480156108fc02929091818181858888f193505050501580156107ee573d6000803e3d6000fd5b5033600081815260056020908152604080832086845282528083203460069091018190556009835292819020548151948552918401919091528201527fef4025816e2adaebc6e491a322497e5d2067b2f3aa8a2f9a73bda13ec867f2bf906060015b60405180910390a15050565b6000546001600160a01b031633146108865760405162461bcd60e51b81526004016103de90610e3e565b600180546001600160a01b0319166001600160a01b0392909216919091179055565b60025460015460405163e3d670d760e01b81526001600160a01b0391821660048201528392919091169063e3d670d790602401602060405180830381865afa1580156108f8573d6000803e3d6000fd5b505050506040513d601f19601f8201168201806040525081019061091c9190610e73565b1161097b5760405162461bcd60e51b815260206004820152602960248201527f4572726f723a2041646d696e20646f6573206e6f74206861766520656e6f7567604482015268682062616c616e636560b81b60648201526084016103de565b60038054600190810191829055606490610996908490610ea2565b6109a09190610ec1565b60008281526007602052604090208190556109bc908390610cb6565b60008281526008602052604090819020829055600254600154915163b45ee9ef60e01b81526001600160a01b0392831660048201523360248201526044810193909352169063b45ee9ef90606401600060405180830381600087803b158015610a2457600080fd5b505af1158015610a38573d6000803e3d6000fd5b505060038054336000908152600560209081526040808320888452825280832093845542600185015560028085018a905560078352818420549585019590955560089091529020546004909101819055610a9493509150610ca3565b6000828152600960205260409020556001547f200e42c44f4b61e64b8298dd340205f3d4fd26f4018958219ac19fa737a4bc939033906001600160a01b0316610ae56000546001600160a01b031690565b604080516001600160a01b039485168152928416602084015292168183015290519081900360600190a16000818152600760209081526040808320546008835292819020548151868152928301939093528101919091527fea58cb92b8b20e95b17ad470f6f42aeca8d949d80c763c66664d879df9f65ba790606001610850565b6001600160a01b038116600090815260066020908152604091829020805483518184028101840190945280845260609392830182828015610bc657602002820191906000526020600020905b815481526020019060010190808311610bb2575b50505050509050919050565b6000546001600160a01b03163314610bfc5760405162461bcd60e51b81526004016103de90610e3e565b610c066000610cc2565b565b6000546001600160a01b03163314610c325760405162461bcd60e51b81526004016103de90610e3e565b6001600160a01b038116610c975760405162461bcd60e51b815260206004820152602660248201527f4f776e61626c653a206e6577206f776e657220697320746865207a65726f206160448201526564647265737360d01b60648201526084016103de565b610ca081610cc2565b50565b6000610caf8284610ec1565b9392505050565b6000610caf8284610ee3565b600080546001600160a01b038381166001600160a01b0319831681178455604051919092169283917f8be0079c531659141344cd1fd0a4f28419497f9722a3daafe3b4186f6b6457e09190a35050565b6001600160a01b0381168114610ca057600080fd5b600080600060608486031215610d3c57600080fd5b8335610d4781610d12565b92506020840135610d5781610d12565b929592945050506040919091013590565b60008060408385031215610d7b57600080fd5b823591506020830135610d8d81610d12565b809150509250929050565b600060208284031215610daa57600080fd5b8135610caf81610d12565b600060208284031215610dc757600080fd5b5035919050565b6020808252825182820181905260009190848201906040850190845b81811015610e0657835183529284019291840191600101610dea565b50909695505050505050565b60008060408385031215610e2557600080fd5b8235610e3081610d12565b946020939093013593505050565b6020808252818101527f4f776e61626c653a2063616c6c6572206973206e6f7420746865206f776e6572604082015260600190565b600060208284031215610e8557600080fd5b5051919050565b634e487b7160e01b600052601160045260246000fd5b6000816000190483118215151615610ebc57610ebc610e8c565b500290565b600082610ede57634e487b7160e01b600052601260045260246000fd5b500490565b600082821015610ef557610ef5610e8c565b50039056fea2646970667358221220d954b4ac9af40bf75580df01c36b305865c06aaea7a6b55a40109873802d09ef64736f6c634300080d0033",
					"opcodes": "PUSH1 0x80 PUSH1 0x40 MSTORE CALLVALUE DUP1 ISZERO PUSH2 0x10 JUMPI PUSH1 0x0 DUP1 REVERT JUMPDEST POP PUSH2 0x1A CALLER PUSH2 0x1F JUMP JUMPDEST PUSH2 0x6F JUMP JUMPDEST PUSH1 0x0 DUP1 SLOAD PUSH1 0x1 PUSH1 0x1 PUSH1 0xA0 SHL SUB DUP4 DUP2 AND PUSH1 0x1 PUSH1 0x1 PUSH1 0xA0 SHL SUB NOT DUP4 AND DUP2 OR DUP5 SSTORE PUSH1 0x40 MLOAD SWAP2 SWAP1 SWAP3 AND SWAP3 DUP4 SWAP2 PUSH32 0x8BE0079C531659141344CD1FD0A4F28419497F9722A3DAAFE3B4186F6B6457E0 SWAP2 SWAP1 LOG3 POP POP JUMP JUMPDEST PUSH2 0xF30 DUP1 PUSH2 0x7E PUSH1 0x0 CODECOPY PUSH1 0x0 RETURN INVALID PUSH1 0x80 PUSH1 0x40 MSTORE PUSH1 0x4 CALLDATASIZE LT PUSH2 0xF3 JUMPI PUSH1 0x0 CALLDATALOAD PUSH1 0xE0 SHR DUP1 PUSH4 0x715018A6 GT PUSH2 0x8A JUMPI DUP1 PUSH4 0xAF0AFEC9 GT PUSH2 0x59 JUMPI DUP1 PUSH4 0xAF0AFEC9 EQ PUSH2 0x325 JUMPI DUP1 PUSH4 0xD09BF0E4 EQ PUSH2 0x33A JUMPI DUP1 PUSH4 0xEE238506 EQ PUSH2 0x367 JUMPI DUP1 PUSH4 0xF2FDE38B EQ PUSH2 0x394 JUMPI PUSH1 0x0 DUP1 REVERT JUMPDEST DUP1 PUSH4 0x715018A6 EQ PUSH2 0x23C JUMPI DUP1 PUSH4 0x8637856D EQ PUSH2 0x251 JUMPI DUP1 PUSH4 0x8DA5CB5B EQ PUSH2 0x2E7 JUMPI DUP1 PUSH4 0xA77B2E37 EQ PUSH2 0x305 JUMPI PUSH1 0x0 DUP1 REVERT JUMPDEST DUP1 PUSH4 0x2C1E816D GT PUSH2 0xC6 JUMPI DUP1 PUSH4 0x2C1E816D EQ PUSH2 0x194 JUMPI DUP1 PUSH4 0x2D296BF1 EQ PUSH2 0x1B4 JUMPI DUP1 PUSH4 0x3A84374B EQ PUSH2 0x1D4 JUMPI DUP1 PUSH4 0x5F4FD1F7 EQ PUSH2 0x20F JUMPI PUSH1 0x0 DUP1 REVERT JUMPDEST DUP1 PUSH4 0x158EF93E EQ PUSH2 0xF8 JUMPI DUP1 PUSH4 0x1794BB3C EQ PUSH2 0x127 JUMPI DUP1 PUSH4 0x23660BD5 EQ PUSH2 0x149 JUMPI DUP1 PUSH4 0x28F661E3 EQ PUSH2 0x15C JUMPI JUMPDEST PUSH1 0x0 DUP1 REVERT JUMPDEST CALLVALUE DUP1 ISZERO PUSH2 0x104 JUMPI PUSH1 0x0 DUP1 REVERT JUMPDEST POP PUSH1 0x4 SLOAD PUSH2 0x112 SWAP1 PUSH1 0xFF AND DUP2 JUMP JUMPDEST PUSH1 0x40 MLOAD SWAP1 ISZERO ISZERO DUP2 MSTORE PUSH1 0x20 ADD JUMPDEST PUSH1 0x40 MLOAD DUP1 SWAP2 SUB SWAP1 RETURN JUMPDEST CALLVALUE DUP1 ISZERO PUSH2 0x133 JUMPI PUSH1 0x0 DUP1 REVERT JUMPDEST POP PUSH2 0x147 PUSH2 0x142 CALLDATASIZE PUSH1 0x4 PUSH2 0xD27 JUMP JUMPDEST PUSH2 0x3B4 JUMP JUMPDEST STOP JUMPDEST PUSH2 0x147 PUSH2 0x157 CALLDATASIZE PUSH1 0x4 PUSH2 0xD68 JUMP JUMPDEST PUSH2 0x4F3 JUMP JUMPDEST CALLVALUE DUP1 ISZERO PUSH2 0x168 JUMPI PUSH1 0x0 DUP1 REVERT JUMPDEST POP PUSH1 0x1 SLOAD PUSH2 0x17C SWAP1 PUSH1 0x1 PUSH1 0x1 PUSH1 0xA0 SHL SUB AND DUP2 JUMP JUMPDEST PUSH1 0x40 MLOAD PUSH1 0x1 PUSH1 0x1 PUSH1 0xA0 SHL SUB SWAP1 SWAP2 AND DUP2 MSTORE PUSH1 0x20 ADD PUSH2 0x11E JUMP JUMPDEST CALLVALUE DUP1 ISZERO PUSH2 0x1A0 JUMPI PUSH1 0x0 DUP1 REVERT JUMPDEST POP PUSH2 0x147 PUSH2 0x1AF CALLDATASIZE PUSH1 0x4 PUSH2 0xD98 JUMP JUMPDEST PUSH2 0x85C JUMP JUMPDEST CALLVALUE DUP1 ISZERO PUSH2 0x1C0 JUMPI PUSH1 0x0 DUP1 REVERT JUMPDEST POP PUSH2 0x147 PUSH2 0x1CF CALLDATASIZE PUSH1 0x4 PUSH2 0xDB5 JUMP JUMPDEST PUSH2 0x8A8 JUMP JUMPDEST CALLVALUE DUP1 ISZERO PUSH2 0x1E0 JUMPI PUSH1 0x0 DUP1 REVERT JUMPDEST POP PUSH2 0x201 PUSH2 0x1EF CALLDATASIZE PUSH1 0x4 PUSH2 0xDB5 JUMP JUMPDEST PUSH1 0x8 PUSH1 0x20 MSTORE PUSH1 0x0 SWAP1 DUP2 MSTORE PUSH1 0x40 SWAP1 KECCAK256 SLOAD DUP2 JUMP JUMPDEST PUSH1 0x40 MLOAD SWAP1 DUP2 MSTORE PUSH1 0x20 ADD PUSH2 0x11E JUMP JUMPDEST CALLVALUE DUP1 ISZERO PUSH2 0x21B JUMPI PUSH1 0x0 DUP1 REVERT JUMPDEST POP PUSH2 0x22F PUSH2 0x22A CALLDATASIZE PUSH1 0x4 PUSH2 0xD98 JUMP JUMPDEST PUSH2 0xB66 JUMP JUMPDEST PUSH1 0x40 MLOAD PUSH2 0x11E SWAP2 SWAP1 PUSH2 0xDCE JUMP JUMPDEST CALLVALUE DUP1 ISZERO PUSH2 0x248 JUMPI PUSH1 0x0 DUP1 REVERT JUMPDEST POP PUSH2 0x147 PUSH2 0xBD2 JUMP JUMPDEST CALLVALUE DUP1 ISZERO PUSH2 0x25D JUMPI PUSH1 0x0 DUP1 REVERT JUMPDEST POP PUSH2 0x2B2 PUSH2 0x26C CALLDATASIZE PUSH1 0x4 PUSH2 0xE12 JUMP JUMPDEST PUSH1 0x5 PUSH1 0x20 DUP2 DUP2 MSTORE PUSH1 0x0 SWAP4 DUP5 MSTORE PUSH1 0x40 DUP1 DUP6 KECCAK256 SWAP1 SWAP2 MSTORE SWAP2 DUP4 MSTORE SWAP2 KECCAK256 DUP1 SLOAD PUSH1 0x1 DUP3 ADD SLOAD PUSH1 0x2 DUP4 ADD SLOAD PUSH1 0x3 DUP5 ADD SLOAD PUSH1 0x4 DUP6 ADD SLOAD SWAP6 DUP6 ADD SLOAD PUSH1 0x6 SWAP1 SWAP6 ADD SLOAD SWAP4 SWAP6 SWAP3 SWAP5 SWAP2 SWAP4 SWAP1 SWAP3 SWAP2 SWAP1 DUP8 JUMP JUMPDEST PUSH1 0x40 DUP1 MLOAD SWAP8 DUP9 MSTORE PUSH1 0x20 DUP9 ADD SWAP7 SWAP1 SWAP7 MSTORE SWAP5 DUP7 ADD SWAP4 SWAP1 SWAP4 MSTORE PUSH1 0x60 DUP6 ADD SWAP2 SWAP1 SWAP2 MSTORE PUSH1 0x80 DUP5 ADD MSTORE PUSH1 0xA0 DUP4 ADD MSTORE PUSH1 0xC0 DUP3 ADD MSTORE PUSH1 0xE0 ADD PUSH2 0x11E JUMP JUMPDEST CALLVALUE DUP1 ISZERO PUSH2 0x2F3 JUMPI PUSH1 0x0 DUP1 REVERT JUMPDEST POP PUSH1 0x0 SLOAD PUSH1 0x1 PUSH1 0x1 PUSH1 0xA0 SHL SUB AND PUSH2 0x17C JUMP JUMPDEST CALLVALUE DUP1 ISZERO PUSH2 0x311 JUMPI PUSH1 0x0 DUP1 REVERT JUMPDEST POP PUSH1 0x2 SLOAD PUSH2 0x17C SWAP1 PUSH1 0x1 PUSH1 0x1 PUSH1 0xA0 SHL SUB AND DUP2 JUMP JUMPDEST CALLVALUE DUP1 ISZERO PUSH2 0x331 JUMPI PUSH1 0x0 DUP1 REVERT JUMPDEST POP PUSH1 0x3 SLOAD PUSH2 0x201 JUMP JUMPDEST CALLVALUE DUP1 ISZERO PUSH2 0x346 JUMPI PUSH1 0x0 DUP1 REVERT JUMPDEST POP PUSH2 0x201 PUSH2 0x355 CALLDATASIZE PUSH1 0x4 PUSH2 0xDB5 JUMP JUMPDEST PUSH1 0x9 PUSH1 0x20 MSTORE PUSH1 0x0 SWAP1 DUP2 MSTORE PUSH1 0x40 SWAP1 KECCAK256 SLOAD DUP2 JUMP JUMPDEST CALLVALUE DUP1 ISZERO PUSH2 0x373 JUMPI PUSH1 0x0 DUP1 REVERT JUMPDEST POP PUSH2 0x201 PUSH2 0x382 CALLDATASIZE PUSH1 0x4 PUSH2 0xDB5 JUMP JUMPDEST PUSH1 0x7 PUSH1 0x20 MSTORE PUSH1 0x0 SWAP1 DUP2 MSTORE PUSH1 0x40 SWAP1 KECCAK256 SLOAD DUP2 JUMP JUMPDEST CALLVALUE DUP1 ISZERO PUSH2 0x3A0 JUMPI PUSH1 0x0 DUP1 REVERT JUMPDEST POP PUSH2 0x147 PUSH2 0x3AF CALLDATASIZE PUSH1 0x4 PUSH2 0xD98 JUMP JUMPDEST PUSH2 0xC08 JUMP JUMPDEST PUSH1 0x0 SLOAD PUSH1 0x1 PUSH1 0x1 PUSH1 0xA0 SHL SUB AND CALLER EQ PUSH2 0x3E7 JUMPI PUSH1 0x40 MLOAD PUSH3 0x461BCD PUSH1 0xE5 SHL DUP2 MSTORE PUSH1 0x4 ADD PUSH2 0x3DE SWAP1 PUSH2 0xE3E JUMP JUMPDEST PUSH1 0x40 MLOAD DUP1 SWAP2 SUB SWAP1 REVERT JUMPDEST PUSH1 0x4 SLOAD PUSH1 0xFF AND ISZERO ISZERO PUSH1 0x1 SUB PUSH2 0x434 JUMPI PUSH1 0x40 MLOAD PUSH3 0x461BCD PUSH1 0xE5 SHL DUP2 MSTORE PUSH1 0x20 PUSH1 0x4 DUP3 ADD MSTORE PUSH1 0x13 PUSH1 0x24 DUP3 ADD MSTORE PUSH19 0x105B1C9958591E48125B9A5D1A585B1A5E9959 PUSH1 0x6A SHL PUSH1 0x44 DUP3 ADD MSTORE PUSH1 0x64 ADD PUSH2 0x3DE JUMP JUMPDEST PUSH1 0x2 DUP1 SLOAD PUSH1 0x1 PUSH1 0x1 PUSH1 0xA0 SHL SUB DUP1 DUP7 AND PUSH1 0x1 PUSH1 0x1 PUSH1 0xA0 SHL SUB NOT SWAP3 DUP4 AND DUP2 OR SWAP1 SWAP4 SSTORE PUSH1 0x1 DUP1 SLOAD SWAP2 DUP7 AND SWAP2 SWAP1 SWAP3 AND OR SWAP1 SSTORE PUSH4 0xB45EE9EF PUSH2 0x479 PUSH1 0x0 SLOAD PUSH1 0x1 PUSH1 0x1 PUSH1 0xA0 SHL SUB AND SWAP1 JUMP JUMPDEST PUSH1 0x40 MLOAD PUSH1 0x1 PUSH1 0x1 PUSH1 0xE0 SHL SUB NOT PUSH1 0xE0 DUP5 SWAP1 SHL AND DUP2 MSTORE PUSH1 0x1 PUSH1 0x1 PUSH1 0xA0 SHL SUB SWAP2 DUP3 AND PUSH1 0x4 DUP3 ADD MSTORE SWAP1 DUP6 AND PUSH1 0x24 DUP3 ADD MSTORE PUSH1 0x44 DUP2 ADD DUP5 SWAP1 MSTORE PUSH1 0x64 ADD PUSH1 0x0 PUSH1 0x40 MLOAD DUP1 DUP4 SUB DUP2 PUSH1 0x0 DUP8 DUP1 EXTCODESIZE ISZERO DUP1 ISZERO PUSH2 0x4C9 JUMPI PUSH1 0x0 DUP1 REVERT JUMPDEST POP GAS CALL ISZERO DUP1 ISZERO PUSH2 0x4DD JUMPI RETURNDATASIZE PUSH1 0x0 DUP1 RETURNDATACOPY RETURNDATASIZE PUSH1 0x0 REVERT JUMPDEST POP POP PUSH1 0x4 DUP1 SLOAD PUSH1 0xFF NOT AND PUSH1 0x1 OR SWAP1 SSTORE POP POP POP POP POP JUMP JUMPDEST PUSH1 0x1 SLOAD PUSH1 0x1 PUSH1 0x1 PUSH1 0xA0 SHL SUB AND CALLER EQ PUSH2 0x543 JUMPI PUSH1 0x40 MLOAD PUSH3 0x461BCD PUSH1 0xE5 SHL DUP2 MSTORE PUSH1 0x20 PUSH1 0x4 DUP3 ADD MSTORE PUSH1 0x13 PUSH1 0x24 DUP3 ADD MSTORE PUSH19 0x4F6E6C792041646D696E2063616E205377617 PUSH1 0x6C SHL PUSH1 0x44 DUP3 ADD MSTORE PUSH1 0x64 ADD PUSH2 0x3DE JUMP JUMPDEST PUSH1 0x1 PUSH1 0x1 PUSH1 0xA0 SHL SUB DUP2 AND PUSH1 0x0 SWAP1 DUP2 MSTORE PUSH1 0x5 PUSH1 0x20 SWAP1 DUP2 MSTORE PUSH1 0x40 DUP1 DUP4 KECCAK256 DUP6 DUP5 MSTORE SWAP1 SWAP2 MSTORE SWAP1 KECCAK256 SLOAD DUP3 EQ PUSH2 0x5CC JUMPI PUSH1 0x40 MLOAD PUSH3 0x461BCD PUSH1 0xE5 SHL DUP2 MSTORE PUSH1 0x20 PUSH1 0x4 DUP3 ADD MSTORE PUSH1 0x2E PUSH1 0x24 DUP3 ADD MSTORE PUSH32 0x4572726F723A204E6F7420612076616C6964204944206F7220506C6561736520 PUSH1 0x44 DUP3 ADD MSTORE PUSH14 0x313ABC9039B7B6B2903A37B5B2B7 PUSH1 0x91 SHL PUSH1 0x64 DUP3 ADD MSTORE PUSH1 0x84 ADD PUSH2 0x3DE JUMP JUMPDEST PUSH1 0x0 DUP3 DUP2 MSTORE PUSH1 0x9 PUSH1 0x20 MSTORE PUSH1 0x40 SWAP1 KECCAK256 SLOAD PUSH1 0x2 SLOAD PUSH1 0x1 PUSH1 0x1 PUSH1 0xA0 SHL SUB AND PUSH4 0xE3D670D7 PUSH2 0x5FE PUSH1 0x0 SLOAD PUSH1 0x1 PUSH1 0x1 PUSH1 0xA0 SHL SUB AND SWAP1 JUMP JUMPDEST PUSH1 0x40 MLOAD PUSH1 0x1 PUSH1 0x1 PUSH1 0xE0 SHL SUB NOT PUSH1 0xE0 DUP5 SWAP1 SHL AND DUP2 MSTORE PUSH1 0x1 PUSH1 0x1 PUSH1 0xA0 SHL SUB SWAP1 SWAP2 AND PUSH1 0x4 DUP3 ADD MSTORE PUSH1 0x24 ADD PUSH1 0x20 PUSH1 0x40 MLOAD DUP1 DUP4 SUB DUP2 DUP7 GAS STATICCALL ISZERO DUP1 ISZERO PUSH2 0x642 JUMPI RETURNDATASIZE PUSH1 0x0 DUP1 RETURNDATACOPY RETURNDATASIZE PUSH1 0x0 REVERT JUMPDEST POP POP POP POP PUSH1 0x40 MLOAD RETURNDATASIZE PUSH1 0x1F NOT PUSH1 0x1F DUP3 ADD AND DUP3 ADD DUP1 PUSH1 0x40 MSTORE POP DUP2 ADD SWAP1 PUSH2 0x666 SWAP2 SWAP1 PUSH2 0xE73 JUMP JUMPDEST GT PUSH2 0x6C5 JUMPI PUSH1 0x40 MLOAD PUSH3 0x461BCD PUSH1 0xE5 SHL DUP2 MSTORE PUSH1 0x20 PUSH1 0x4 DUP3 ADD MSTORE PUSH1 0x29 PUSH1 0x24 DUP3 ADD MSTORE PUSH32 0x4572726F723A204F776E657220646F6573206E6F74206861766520656E6F7567 PUSH1 0x44 DUP3 ADD MSTORE PUSH9 0x682062616C616E6365 PUSH1 0xB8 SHL PUSH1 0x64 DUP3 ADD MSTORE PUSH1 0x84 ADD PUSH2 0x3DE JUMP JUMPDEST PUSH1 0x0 DUP3 DUP2 MSTORE PUSH1 0x9 PUSH1 0x20 SWAP1 DUP2 MSTORE PUSH1 0x40 DUP1 DUP4 KECCAK256 SLOAD CALLER DUP5 MSTORE PUSH1 0x5 DUP1 DUP5 MSTORE DUP3 DUP6 KECCAK256 DUP8 DUP7 MSTORE SWAP1 SWAP4 MSTORE SWAP3 KECCAK256 ADD SSTORE PUSH1 0x2 SLOAD PUSH1 0x1 PUSH1 0x1 PUSH1 0xA0 SHL SUB AND PUSH4 0xB45EE9EF PUSH2 0x70F PUSH1 0x0 SLOAD PUSH1 0x1 PUSH1 0x1 PUSH1 0xA0 SHL SUB AND SWAP1 JUMP JUMPDEST PUSH1 0x1 SLOAD PUSH1 0x0 DUP7 DUP2 MSTORE PUSH1 0x9 PUSH1 0x20 MSTORE PUSH1 0x40 SWAP1 DUP2 SWAP1 KECCAK256 SLOAD SWAP1 MLOAD PUSH1 0xE0 DUP6 SWAP1 SHL PUSH1 0x1 PUSH1 0x1 PUSH1 0xE0 SHL SUB NOT AND DUP2 MSTORE PUSH1 0x1 PUSH1 0x1 PUSH1 0xA0 SHL SUB SWAP4 DUP5 AND PUSH1 0x4 DUP3 ADD MSTORE SWAP3 SWAP1 SWAP2 AND PUSH1 0x24 DUP4 ADD MSTORE PUSH1 0x44 DUP3 ADD MSTORE PUSH1 0x64 ADD PUSH1 0x0 PUSH1 0x40 MLOAD DUP1 DUP4 SUB DUP2 PUSH1 0x0 DUP8 DUP1 EXTCODESIZE ISZERO DUP1 ISZERO PUSH2 0x771 JUMPI PUSH1 0x0 DUP1 REVERT JUMPDEST POP GAS CALL ISZERO DUP1 ISZERO PUSH2 0x785 JUMPI RETURNDATASIZE PUSH1 0x0 DUP1 RETURNDATACOPY RETURNDATASIZE PUSH1 0x0 REVERT JUMPDEST POP POP POP PUSH1 0x0 DUP4 DUP2 MSTORE PUSH1 0x9 PUSH1 0x20 MSTORE PUSH1 0x40 SWAP1 KECCAK256 SLOAD PUSH2 0x7B3 SWAP2 POP PUSH4 0x3B9ACA00 SWAP1 PUSH2 0x7AD SWAP1 PUSH1 0x1 PUSH2 0xEA2 JUMP JUMPDEST SWAP1 PUSH2 0xCA3 JUMP JUMPDEST POP PUSH1 0x0 DUP1 SLOAD PUSH1 0x40 MLOAD PUSH1 0x1 PUSH1 0x1 PUSH1 0xA0 SHL SUB SWAP1 SWAP2 AND SWAP2 CALLVALUE DUP1 ISZERO PUSH2 0x8FC MUL SWAP3 SWAP1 SWAP2 DUP2 DUP2 DUP2 DUP6 DUP9 DUP9 CALL SWAP4 POP POP POP POP ISZERO DUP1 ISZERO PUSH2 0x7EE JUMPI RETURNDATASIZE PUSH1 0x0 DUP1 RETURNDATACOPY RETURNDATASIZE PUSH1 0x0 REVERT JUMPDEST POP CALLER PUSH1 0x0 DUP2 DUP2 MSTORE PUSH1 0x5 PUSH1 0x20 SWAP1 DUP2 MSTORE PUSH1 0x40 DUP1 DUP4 KECCAK256 DUP7 DUP5 MSTORE DUP3 MSTORE DUP1 DUP4 KECCAK256 CALLVALUE PUSH1 0x6 SWAP1 SWAP2 ADD DUP2 SWAP1 SSTORE PUSH1 0x9 DUP4 MSTORE SWAP3 DUP2 SWAP1 KECCAK256 SLOAD DUP2 MLOAD SWAP5 DUP6 MSTORE SWAP2 DUP5 ADD SWAP2 SWAP1 SWAP2 MSTORE DUP3 ADD MSTORE PUSH32 0xEF4025816E2ADAEBC6E491A322497E5D2067B2F3AA8A2F9A73BDA13EC867F2BF SWAP1 PUSH1 0x60 ADD JUMPDEST PUSH1 0x40 MLOAD DUP1 SWAP2 SUB SWAP1 LOG1 POP POP JUMP JUMPDEST PUSH1 0x0 SLOAD PUSH1 0x1 PUSH1 0x1 PUSH1 0xA0 SHL SUB AND CALLER EQ PUSH2 0x886 JUMPI PUSH1 0x40 MLOAD PUSH3 0x461BCD PUSH1 0xE5 SHL DUP2 MSTORE PUSH1 0x4 ADD PUSH2 0x3DE SWAP1 PUSH2 0xE3E JUMP JUMPDEST PUSH1 0x1 DUP1 SLOAD PUSH1 0x1 PUSH1 0x1 PUSH1 0xA0 SHL SUB NOT AND PUSH1 0x1 PUSH1 0x1 PUSH1 0xA0 SHL SUB SWAP3 SWAP1 SWAP3 AND SWAP2 SWAP1 SWAP2 OR SWAP1 SSTORE JUMP JUMPDEST PUSH1 0x2 SLOAD PUSH1 0x1 SLOAD PUSH1 0x40 MLOAD PUSH4 0xE3D670D7 PUSH1 0xE0 SHL DUP2 MSTORE PUSH1 0x1 PUSH1 0x1 PUSH1 0xA0 SHL SUB SWAP2 DUP3 AND PUSH1 0x4 DUP3 ADD MSTORE DUP4 SWAP3 SWAP2 SWAP1 SWAP2 AND SWAP1 PUSH4 0xE3D670D7 SWAP1 PUSH1 0x24 ADD PUSH1 0x20 PUSH1 0x40 MLOAD DUP1 DUP4 SUB DUP2 DUP7 GAS STATICCALL ISZERO DUP1 ISZERO PUSH2 0x8F8 JUMPI RETURNDATASIZE PUSH1 0x0 DUP1 RETURNDATACOPY RETURNDATASIZE PUSH1 0x0 REVERT JUMPDEST POP POP POP POP PUSH1 0x40 MLOAD RETURNDATASIZE PUSH1 0x1F NOT PUSH1 0x1F DUP3 ADD AND DUP3 ADD DUP1 PUSH1 0x40 MSTORE POP DUP2 ADD SWAP1 PUSH2 0x91C SWAP2 SWAP1 PUSH2 0xE73 JUMP JUMPDEST GT PUSH2 0x97B JUMPI PUSH1 0x40 MLOAD PUSH3 0x461BCD PUSH1 0xE5 SHL DUP2 MSTORE PUSH1 0x20 PUSH1 0x4 DUP3 ADD MSTORE PUSH1 0x29 PUSH1 0x24 DUP3 ADD MSTORE PUSH32 0x4572726F723A2041646D696E20646F6573206E6F74206861766520656E6F7567 PUSH1 0x44 DUP3 ADD MSTORE PUSH9 0x682062616C616E6365 PUSH1 0xB8 SHL PUSH1 0x64 DUP3 ADD MSTORE PUSH1 0x84 ADD PUSH2 0x3DE JUMP JUMPDEST PUSH1 0x3 DUP1 SLOAD PUSH1 0x1 SWAP1 DUP2 ADD SWAP2 DUP3 SWAP1 SSTORE PUSH1 0x64 SWAP1 PUSH2 0x996 SWAP1 DUP5 SWAP1 PUSH2 0xEA2 JUMP JUMPDEST PUSH2 0x9A0 SWAP2 SWAP1 PUSH2 0xEC1 JUMP JUMPDEST PUSH1 0x0 DUP3 DUP2 MSTORE PUSH1 0x7 PUSH1 0x20 MSTORE PUSH1 0x40 SWAP1 KECCAK256 DUP2 SWAP1 SSTORE PUSH2 0x9BC SWAP1 DUP4 SWAP1 PUSH2 0xCB6 JUMP JUMPDEST PUSH1 0x0 DUP3 DUP2 MSTORE PUSH1 0x8 PUSH1 0x20 MSTORE PUSH1 0x40 SWAP1 DUP2 SWAP1 KECCAK256 DUP3 SWAP1 SSTORE PUSH1 0x2 SLOAD PUSH1 0x1 SLOAD SWAP2 MLOAD PUSH4 0xB45EE9EF PUSH1 0xE0 SHL DUP2 MSTORE PUSH1 0x1 PUSH1 0x1 PUSH1 0xA0 SHL SUB SWAP3 DUP4 AND PUSH1 0x4 DUP3 ADD MSTORE CALLER PUSH1 0x24 DUP3 ADD MSTORE PUSH1 0x44 DUP2 ADD SWAP4 SWAP1 SWAP4 MSTORE AND SWAP1 PUSH4 0xB45EE9EF SWAP1 PUSH1 0x64 ADD PUSH1 0x0 PUSH1 0x40 MLOAD DUP1 DUP4 SUB DUP2 PUSH1 0x0 DUP8 DUP1 EXTCODESIZE ISZERO DUP1 ISZERO PUSH2 0xA24 JUMPI PUSH1 0x0 DUP1 REVERT JUMPDEST POP GAS CALL ISZERO DUP1 ISZERO PUSH2 0xA38 JUMPI RETURNDATASIZE PUSH1 0x0 DUP1 RETURNDATACOPY RETURNDATASIZE PUSH1 0x0 REVERT JUMPDEST POP POP PUSH1 0x3 DUP1 SLOAD CALLER PUSH1 0x0 SWAP1 DUP2 MSTORE PUSH1 0x5 PUSH1 0x20 SWAP1 DUP2 MSTORE PUSH1 0x40 DUP1 DUP4 KECCAK256 DUP9 DUP5 MSTORE DUP3 MSTORE DUP1 DUP4 KECCAK256 SWAP4 DUP5 SSTORE TIMESTAMP PUSH1 0x1 DUP6 ADD SSTORE PUSH1 0x2 DUP1 DUP6 ADD DUP11 SWAP1 SSTORE PUSH1 0x7 DUP4 MSTORE DUP2 DUP5 KECCAK256 SLOAD SWAP6 DUP6 ADD SWAP6 SWAP1 SWAP6 SSTORE PUSH1 0x8 SWAP1 SWAP2 MSTORE SWAP1 KECCAK256 SLOAD PUSH1 0x4 SWAP1 SWAP2 ADD DUP2 SWAP1 SSTORE PUSH2 0xA94 SWAP4 POP SWAP2 POP PUSH2 0xCA3 JUMP JUMPDEST PUSH1 0x0 DUP3 DUP2 MSTORE PUSH1 0x9 PUSH1 0x20 MSTORE PUSH1 0x40 SWAP1 KECCAK256 SSTORE PUSH1 0x1 SLOAD PUSH32 0x200E42C44F4B61E64B8298DD340205F3D4FD26F4018958219AC19FA737A4BC93 SWAP1 CALLER SWAP1 PUSH1 0x1 PUSH1 0x1 PUSH1 0xA0 SHL SUB AND PUSH2 0xAE5 PUSH1 0x0 SLOAD PUSH1 0x1 PUSH1 0x1 PUSH1 0xA0 SHL SUB AND SWAP1 JUMP JUMPDEST PUSH1 0x40 DUP1 MLOAD PUSH1 0x1 PUSH1 0x1 PUSH1 0xA0 SHL SUB SWAP5 DUP6 AND DUP2 MSTORE SWAP3 DUP5 AND PUSH1 0x20 DUP5 ADD MSTORE SWAP3 AND DUP2 DUP4 ADD MSTORE SWAP1 MLOAD SWAP1 DUP2 SWAP1 SUB PUSH1 0x60 ADD SWAP1 LOG1 PUSH1 0x0 DUP2 DUP2 MSTORE PUSH1 0x7 PUSH1 0x20 SWAP1 DUP2 MSTORE PUSH1 0x40 DUP1 DUP4 KECCAK256 SLOAD PUSH1 0x8 DUP4 MSTORE SWAP3 DUP2 SWAP1 KECCAK256 SLOAD DUP2 MLOAD DUP7 DUP2 MSTORE SWAP3 DUP4 ADD SWAP4 SWAP1 SWAP4 MSTORE DUP2 ADD SWAP2 SWAP1 SWAP2 MSTORE PUSH32 0xEA58CB92B8B20E95B17AD470F6F42AECA8D949D80C763C66664D879DF9F65BA7 SWAP1 PUSH1 0x60 ADD PUSH2 0x850 JUMP JUMPDEST PUSH1 0x1 PUSH1 0x1 PUSH1 0xA0 SHL SUB DUP2 AND PUSH1 0x0 SWAP1 DUP2 MSTORE PUSH1 0x6 PUSH1 0x20 SWAP1 DUP2 MSTORE PUSH1 0x40 SWAP2 DUP3 SWAP1 KECCAK256 DUP1 SLOAD DUP4 MLOAD DUP2 DUP5 MUL DUP2 ADD DUP5 ADD SWAP1 SWAP5 MSTORE DUP1 DUP5 MSTORE PUSH1 0x60 SWAP4 SWAP3 DUP4 ADD DUP3 DUP3 DUP1 ISZERO PUSH2 0xBC6 JUMPI PUSH1 0x20 MUL DUP3 ADD SWAP2 SWAP1 PUSH1 0x0 MSTORE PUSH1 0x20 PUSH1 0x0 KECCAK256 SWAP1 JUMPDEST DUP2 SLOAD DUP2 MSTORE PUSH1 0x20 ADD SWAP1 PUSH1 0x1 ADD SWAP1 DUP1 DUP4 GT PUSH2 0xBB2 JUMPI JUMPDEST POP POP POP POP POP SWAP1 POP SWAP2 SWAP1 POP JUMP JUMPDEST PUSH1 0x0 SLOAD PUSH1 0x1 PUSH1 0x1 PUSH1 0xA0 SHL SUB AND CALLER EQ PUSH2 0xBFC JUMPI PUSH1 0x40 MLOAD PUSH3 0x461BCD PUSH1 0xE5 SHL DUP2 MSTORE PUSH1 0x4 ADD PUSH2 0x3DE SWAP1 PUSH2 0xE3E JUMP JUMPDEST PUSH2 0xC06 PUSH1 0x0 PUSH2 0xCC2 JUMP JUMPDEST JUMP JUMPDEST PUSH1 0x0 SLOAD PUSH1 0x1 PUSH1 0x1 PUSH1 0xA0 SHL SUB AND CALLER EQ PUSH2 0xC32 JUMPI PUSH1 0x40 MLOAD PUSH3 0x461BCD PUSH1 0xE5 SHL DUP2 MSTORE PUSH1 0x4 ADD PUSH2 0x3DE SWAP1 PUSH2 0xE3E JUMP JUMPDEST PUSH1 0x1 PUSH1 0x1 PUSH1 0xA0 SHL SUB DUP2 AND PUSH2 0xC97 JUMPI PUSH1 0x40 MLOAD PUSH3 0x461BCD PUSH1 0xE5 SHL DUP2 MSTORE PUSH1 0x20 PUSH1 0x4 DUP3 ADD MSTORE PUSH1 0x26 PUSH1 0x24 DUP3 ADD MSTORE PUSH32 0x4F776E61626C653A206E6577206F776E657220697320746865207A65726F2061 PUSH1 0x44 DUP3 ADD MSTORE PUSH6 0x646472657373 PUSH1 0xD0 SHL PUSH1 0x64 DUP3 ADD MSTORE PUSH1 0x84 ADD PUSH2 0x3DE JUMP JUMPDEST PUSH2 0xCA0 DUP2 PUSH2 0xCC2 JUMP JUMPDEST POP JUMP JUMPDEST PUSH1 0x0 PUSH2 0xCAF DUP3 DUP5 PUSH2 0xEC1 JUMP JUMPDEST SWAP4 SWAP3 POP POP POP JUMP JUMPDEST PUSH1 0x0 PUSH2 0xCAF DUP3 DUP5 PUSH2 0xEE3 JUMP JUMPDEST PUSH1 0x0 DUP1 SLOAD PUSH1 0x1 PUSH1 0x1 PUSH1 0xA0 SHL SUB DUP4 DUP2 AND PUSH1 0x1 PUSH1 0x1 PUSH1 0xA0 SHL SUB NOT DUP4 AND DUP2 OR DUP5 SSTORE PUSH1 0x40 MLOAD SWAP2 SWAP1 SWAP3 AND SWAP3 DUP4 SWAP2 PUSH32 0x8BE0079C531659141344CD1FD0A4F28419497F9722A3DAAFE3B4186F6B6457E0 SWAP2 SWAP1 LOG3 POP POP JUMP JUMPDEST PUSH1 0x1 PUSH1 0x1 PUSH1 0xA0 SHL SUB DUP2 AND DUP2 EQ PUSH2 0xCA0 JUMPI PUSH1 0x0 DUP1 REVERT JUMPDEST PUSH1 0x0 DUP1 PUSH1 0x0 PUSH1 0x60 DUP5 DUP7 SUB SLT ISZERO PUSH2 0xD3C JUMPI PUSH1 0x0 DUP1 REVERT JUMPDEST DUP4 CALLDATALOAD PUSH2 0xD47 DUP2 PUSH2 0xD12 JUMP JUMPDEST SWAP3 POP PUSH1 0x20 DUP5 ADD CALLDATALOAD PUSH2 0xD57 DUP2 PUSH2 0xD12 JUMP JUMPDEST SWAP3 SWAP6 SWAP3 SWAP5 POP POP POP PUSH1 0x40 SWAP2 SWAP1 SWAP2 ADD CALLDATALOAD SWAP1 JUMP JUMPDEST PUSH1 0x0 DUP1 PUSH1 0x40 DUP4 DUP6 SUB SLT ISZERO PUSH2 0xD7B JUMPI PUSH1 0x0 DUP1 REVERT JUMPDEST DUP3 CALLDATALOAD SWAP2 POP PUSH1 0x20 DUP4 ADD CALLDATALOAD PUSH2 0xD8D DUP2 PUSH2 0xD12 JUMP JUMPDEST DUP1 SWAP2 POP POP SWAP3 POP SWAP3 SWAP1 POP JUMP JUMPDEST PUSH1 0x0 PUSH1 0x20 DUP3 DUP5 SUB SLT ISZERO PUSH2 0xDAA JUMPI PUSH1 0x0 DUP1 REVERT JUMPDEST DUP2 CALLDATALOAD PUSH2 0xCAF DUP2 PUSH2 0xD12 JUMP JUMPDEST PUSH1 0x0 PUSH1 0x20 DUP3 DUP5 SUB SLT ISZERO PUSH2 0xDC7 JUMPI PUSH1 0x0 DUP1 REVERT JUMPDEST POP CALLDATALOAD SWAP2 SWAP1 POP JUMP JUMPDEST PUSH1 0x20 DUP1 DUP3 MSTORE DUP3 MLOAD DUP3 DUP3 ADD DUP2 SWAP1 MSTORE PUSH1 0x0 SWAP2 SWAP1 DUP5 DUP3 ADD SWAP1 PUSH1 0x40 DUP6 ADD SWAP1 DUP5 JUMPDEST DUP2 DUP2 LT ISZERO PUSH2 0xE06 JUMPI DUP4 MLOAD DUP4 MSTORE SWAP3 DUP5 ADD SWAP3 SWAP2 DUP5 ADD SWAP2 PUSH1 0x1 ADD PUSH2 0xDEA JUMP JUMPDEST POP SWAP1 SWAP7 SWAP6 POP POP POP POP POP POP JUMP JUMPDEST PUSH1 0x0 DUP1 PUSH1 0x40 DUP4 DUP6 SUB SLT ISZERO PUSH2 0xE25 JUMPI PUSH1 0x0 DUP1 REVERT JUMPDEST DUP3 CALLDATALOAD PUSH2 0xE30 DUP2 PUSH2 0xD12 JUMP JUMPDEST SWAP5 PUSH1 0x20 SWAP4 SWAP1 SWAP4 ADD CALLDATALOAD SWAP4 POP POP POP JUMP JUMPDEST PUSH1 0x20 DUP1 DUP3 MSTORE DUP2 DUP2 ADD MSTORE PUSH32 0x4F776E61626C653A2063616C6C6572206973206E6F7420746865206F776E6572 PUSH1 0x40 DUP3 ADD MSTORE PUSH1 0x60 ADD SWAP1 JUMP JUMPDEST PUSH1 0x0 PUSH1 0x20 DUP3 DUP5 SUB SLT ISZERO PUSH2 0xE85 JUMPI PUSH1 0x0 DUP1 REVERT JUMPDEST POP MLOAD SWAP2 SWAP1 POP JUMP JUMPDEST PUSH4 0x4E487B71 PUSH1 0xE0 SHL PUSH1 0x0 MSTORE PUSH1 0x11 PUSH1 0x4 MSTORE PUSH1 0x24 PUSH1 0x0 REVERT JUMPDEST PUSH1 0x0 DUP2 PUSH1 0x0 NOT DIV DUP4 GT DUP3 ISZERO ISZERO AND ISZERO PUSH2 0xEBC JUMPI PUSH2 0xEBC PUSH2 0xE8C JUMP JUMPDEST POP MUL SWAP1 JUMP JUMPDEST PUSH1 0x0 DUP3 PUSH2 0xEDE JUMPI PUSH4 0x4E487B71 PUSH1 0xE0 SHL PUSH1 0x0 MSTORE PUSH1 0x12 PUSH1 0x4 MSTORE PUSH1 0x24 PUSH1 0x0 REVERT JUMPDEST POP DIV SWAP1 JUMP JUMPDEST PUSH1 0x0 DUP3 DUP3 LT ISZERO PUSH2 0xEF5 JUMPI PUSH2 0xEF5 PUSH2 0xE8C JUMP JUMPDEST POP SUB SWAP1 JUMP INVALID LOG2 PUSH5 0x6970667358 0x22 SLT KECCAK256 0xD9 SLOAD 0xB4 0xAC SWAP11 DELEGATECALL SIGNEXTEND 0xF7 SSTORE DUP1 0xDF ADD 0xC3 PUSH12 0x305865C06AAEA7A6B55A4010 SWAP9 PUSH20 0x802D09EF64736F6C634300080D00330000000000 "
				},
				"gasEstimates": {
					"creation": {
						"codeDepositCost": "777600",
						"executionCost": "26653",
						"totalCost": "804253"
					},
					"external": {
						"AdminAddress()": "2427",
						"Coin()": "2426",
						"amountAfterBurning(uint256)": "2505",
						"burningAmount(uint256)": "2504",
						"buyInfo(address,uint256)": "15461",
						"buyToken(uint256)": "infinite",
						"getIdsOfUser(address)": "infinite",
						"initialize(address,address,uint256)": "infinite",
						"initialized()": "2323",
						"owner()": "2398",
						"ownerSurplusToAdmin(uint256)": "2482",
						"renounceOwnership()": "28137",
						"setAdminAddress(address)": "26728",
						"swapTokenWithBNB(uint256,address)": "infinite",
						"totalInvesters()": "2314",
						"transferOwnership(address)": "infinite"
					}
				},
				"methodIdentifiers": {
					"AdminAddress()": "28f661e3",
					"Coin()": "a77b2e37",
					"amountAfterBurning(uint256)": "3a84374b",
					"burningAmount(uint256)": "ee238506",
					"buyInfo(address,uint256)": "8637856d",
					"buyToken(uint256)": "2d296bf1",
					"getIdsOfUser(address)": "5f4fd1f7",
					"initialize(address,address,uint256)": "1794bb3c",
					"initialized()": "158ef93e",
					"owner()": "8da5cb5b",
					"ownerSurplusToAdmin(uint256)": "d09bf0e4",
					"renounceOwnership()": "715018a6",
					"setAdminAddress(address)": "2c1e816d",
					"swapTokenWithBNB(uint256,address)": "23660bd5",
					"totalInvesters()": "af0afec9",
					"transferOwnership(address)": "f2fde38b"
				}
			},
			"storageLayout": {
				"storage": [
					{
						"astId": 717,
						"contract": "smartContract_flat.sol:smartContract",
						"label": "_owner",
						"offset": 0,
						"slot": "0",
						"type": "t_address"
					},
					{
						"astId": 1219,
						"contract": "smartContract_flat.sol:smartContract",
						"label": "AdminAddress",
						"offset": 0,
						"slot": "1",
						"type": "t_address"
					},
					{
						"astId": 1222,
						"contract": "smartContract_flat.sol:smartContract",
						"label": "Coin",
						"offset": 0,
						"slot": "2",
						"type": "t_contract(Token)900"
					},
					{
						"astId": 1224,
						"contract": "smartContract_flat.sol:smartContract",
						"label": "investerID",
						"offset": 0,
						"slot": "3",
						"type": "t_uint256"
					},
					{
						"astId": 1226,
						"contract": "smartContract_flat.sol:smartContract",
						"label": "initialized",
						"offset": 0,
						"slot": "4",
						"type": "t_bool"
					},
					{
						"astId": 1233,
						"contract": "smartContract_flat.sol:smartContract",
						"label": "buyInfo",
						"offset": 0,
						"slot": "5",
						"type": "t_mapping(t_address,t_mapping(t_uint256,t_struct(purchaseInfo)1265_storage))"
					},
					{
						"astId": 1238,
						"contract": "smartContract_flat.sol:smartContract",
						"label": "getIDByAddress",
						"offset": 0,
						"slot": "6",
						"type": "t_mapping(t_address,t_array(t_uint256)dyn_storage)"
					},
					{
						"astId": 1242,
						"contract": "smartContract_flat.sol:smartContract",
						"label": "burningAmount",
						"offset": 0,
						"slot": "7",
						"type": "t_mapping(t_uint256,t_uint256)"
					},
					{
						"astId": 1246,
						"contract": "smartContract_flat.sol:smartContract",
						"label": "amountAfterBurning",
						"offset": 0,
						"slot": "8",
						"type": "t_mapping(t_uint256,t_uint256)"
					},
					{
						"astId": 1250,
						"contract": "smartContract_flat.sol:smartContract",
						"label": "ownerSurplusToAdmin",
						"offset": 0,
						"slot": "9",
						"type": "t_mapping(t_uint256,t_uint256)"
					}
				],
				"types": {
					"t_address": {
						"encoding": "inplace",
						"label": "address",
						"numberOfBytes": "20"
					},
					"t_array(t_uint256)dyn_storage": {
						"base": "t_uint256",
						"encoding": "dynamic_array",
						"label": "uint256[]",
						"numberOfBytes": "32"
					},
					"t_bool": {
						"encoding": "inplace",
						"label": "bool",
						"numberOfBytes": "1"
					},
					"t_contract(Token)900": {
						"encoding": "inplace",
						"label": "contract Token",
						"numberOfBytes": "20"
					},
					"t_mapping(t_address,t_array(t_uint256)dyn_storage)": {
						"encoding": "mapping",
						"key": "t_address",
						"label": "mapping(address => uint256[])",
						"numberOfBytes": "32",
						"value": "t_array(t_uint256)dyn_storage"
					},
					"t_mapping(t_address,t_mapping(t_uint256,t_struct(purchaseInfo)1265_storage))": {
						"encoding": "mapping",
						"key": "t_address",
						"label": "mapping(address => mapping(uint256 => struct smartContract.purchaseInfo))",
						"numberOfBytes": "32",
						"value": "t_mapping(t_uint256,t_struct(purchaseInfo)1265_storage)"
					},
					"t_mapping(t_uint256,t_struct(purchaseInfo)1265_storage)": {
						"encoding": "mapping",
						"key": "t_uint256",
						"label": "mapping(uint256 => struct smartContract.purchaseInfo)",
						"numberOfBytes": "32",
						"value": "t_struct(purchaseInfo)1265_storage"
					},
					"t_mapping(t_uint256,t_uint256)": {
						"encoding": "mapping",
						"key": "t_uint256",
						"label": "mapping(uint256 => uint256)",
						"numberOfBytes": "32",
						"value": "t_uint256"
					},
					"t_struct(purchaseInfo)1265_storage": {
						"encoding": "inplace",
						"label": "struct smartContract.purchaseInfo",
						"members": [
							{
								"astId": 1252,
								"contract": "smartContract_flat.sol:smartContract",
								"label": "ID",
								"offset": 0,
								"slot": "0",
								"type": "t_uint256"
							},
							{
								"astId": 1254,
								"contract": "smartContract_flat.sol:smartContract",
								"label": "buyTime",
								"offset": 0,
								"slot": "1",
								"type": "t_uint256"
							},
							{
								"astId": 1256,
								"contract": "smartContract_flat.sol:smartContract",
								"label": "purchaseToken",
								"offset": 0,
								"slot": "2",
								"type": "t_uint256"
							},
							{
								"astId": 1258,
								"contract": "smartContract_flat.sol:smartContract",
								"label": "burnToken",
								"offset": 0,
								"slot": "3",
								"type": "t_uint256"
							},
							{
								"astId": 1260,
								"contract": "smartContract_flat.sol:smartContract",
								"label": "userGets",
								"offset": 0,
								"slot": "4",
								"type": "t_uint256"
							},
							{
								"astId": 1262,
								"contract": "smartContract_flat.sol:smartContract",
								"label": "ownerSurplus",
								"offset": 0,
								"slot": "5",
								"type": "t_uint256"
							},
							{
								"astId": 1264,
								"contract": "smartContract_flat.sol:smartContract",
								"label": "BNBchargedByAdmin",
								"offset": 0,
								"slot": "6",
								"type": "t_uint256"
							}
						],
						"numberOfBytes": "224"
					},
					"t_uint256": {
						"encoding": "inplace",
						"label": "uint256",
						"numberOfBytes": "32"
					}
				}
			},
			"userdoc": {
				"kind": "user",
				"methods": {},
				"version": 1
			}
		}
	}
}