{
	"contracts/smartContract.sol": {
		"smartContract": {
			"abi": [
				{
					"anonymous": false,
					"inputs": [
						{
							"indexed": true,
							"internalType": "address",
							"name": "previousOwner",
							"type": "address"
						},
						{
							"indexed": true,
							"internalType": "address",
							"name": "newOwner",
							"type": "address"
						}
					],
					"name": "OwnershipTransferred",
					"type": "event"
				},
				{
					"inputs": [],
					"name": "AdminAddress",
					"outputs": [
						{
							"internalType": "address",
							"name": "",
							"type": "address"
						}
					],
					"stateMutability": "view",
					"type": "function"
				},
				{
					"inputs": [],
					"name": "Coin",
					"outputs": [
						{
							"internalType": "contract Token",
							"name": "",
							"type": "address"
						}
					],
					"stateMutability": "view",
					"type": "function"
				},
				{
					"inputs": [
						{
							"internalType": "address",
							"name": "",
							"type": "address"
						},
						{
							"internalType": "uint256",
							"name": "",
							"type": "uint256"
						}
					],
					"name": "buyInfo",
					"outputs": [
						{
							"internalType": "uint256",
							"name": "ID",
							"type": "uint256"
						},
						{
							"internalType": "uint256",
							"name": "buyTime",
							"type": "uint256"
						},
						{
							"internalType": "uint256",
							"name": "purchaseToken",
							"type": "uint256"
						},
						{
							"internalType": "uint256",
							"name": "burnToken",
							"type": "uint256"
						},
						{
							"internalType": "uint256",
							"name": "userGets",
							"type": "uint256"
						},
						{
							"internalType": "uint256",
							"name": "ownerSurplus",
							"type": "uint256"
						},
						{
							"internalType": "uint256",
							"name": "BNBchargedByAdmin",
							"type": "uint256"
						}
					],
					"stateMutability": "view",
					"type": "function"
				},
				{
					"inputs": [
						{
							"internalType": "uint256",
							"name": "amount",
							"type": "uint256"
						}
					],
					"name": "buyToken",
					"outputs": [],
					"stateMutability": "payable",
					"type": "function"
				},
				{
					"inputs": [
						{
							"internalType": "address",
							"name": "user",
							"type": "address"
						}
					],
					"name": "getIdsOfUser",
					"outputs": [
						{
							"internalType": "uint256[]",
							"name": "",
							"type": "uint256[]"
						}
					],
					"stateMutability": "view",
					"type": "function"
				},
				{
					"inputs": [
						{
							"internalType": "contract Token",
							"name": "_Coin",
							"type": "address"
						},
						{
							"internalType": "address",
							"name": "_adminAddress",
							"type": "address"
						},
						{
							"internalType": "uint256",
							"name": "amount",
							"type": "uint256"
						}
					],
					"name": "initialize",
					"outputs": [],
					"stateMutability": "nonpayable",
					"type": "function"
				},
				{
					"inputs": [],
					"name": "initialized",
					"outputs": [
						{
							"internalType": "bool",
							"name": "",
							"type": "bool"
						}
					],
					"stateMutability": "view",
					"type": "function"
				},
				{
					"inputs": [],
					"name": "owner",
					"outputs": [
						{
							"internalType": "address",
							"name": "",
							"type": "address"
						}
					],
					"stateMutability": "view",
					"type": "function"
				},
				{
					"inputs": [],
					"name": "renounceOwnership",
					"outputs": [],
					"stateMutability": "nonpayable",
					"type": "function"
				},
				{
					"inputs": [
						{
							"internalType": "address",
							"name": "_admin",
							"type": "address"
						}
					],
					"name": "setAdminAddress",
					"outputs": [],
					"stateMutability": "nonpayable",
					"type": "function"
				},
				{
					"inputs": [],
					"name": "totalInvesters",
					"outputs": [
						{
							"internalType": "uint256",
							"name": "",
							"type": "uint256"
						}
					],
					"stateMutability": "view",
					"type": "function"
				},
				{
					"inputs": [
						{
							"internalType": "address",
							"name": "newOwner",
							"type": "address"
						}
					],
					"name": "transferOwnership",
					"outputs": [],
					"stateMutability": "nonpayable",
					"type": "function"
				}
			],
			"devdoc": {
				"kind": "dev",
				"methods": {
					"owner()": {
						"details": "Returns the address of the current owner."
					},
					"renounceOwnership()": {
						"details": "Leaves the contract without owner. It will not be possible to call `onlyOwner` functions anymore. Can only be called by the current owner. NOTE: Renouncing ownership will leave the contract without an owner, thereby removing any functionality that is only available to the owner."
					},
					"transferOwnership(address)": {
						"details": "Transfers ownership of the contract to a new account (`newOwner`). Can only be called by the current owner."
					}
				},
				"version": 1
			},
			"evm": {
				"assembly": "    /* \"contracts/smartContract.sol\":166:3499  contract smartContract is Ownable {... */\n  mstore(0x40, 0x80)\n  callvalue\n  dup1\n  iszero\n  tag_1\n  jumpi\n  0x00\n  dup1\n  revert\ntag_1:\n  pop\n    /* \"contracts/Token/utils/Ownable.sol\":967:999  _transferOwnership(_msgSender()) */\n  tag_4\n    /* \"contracts/Token/utils/Context.sol\":737:747  msg.sender */\n  caller\n    /* \"contracts/Token/utils/Ownable.sol\":967:985  _transferOwnership */\n  tag_7\n    /* \"contracts/Token/utils/Ownable.sol\":967:999  _transferOwnership(_msgSender()) */\n  jump\t// in\ntag_4:\n    /* \"contracts/smartContract.sol\":166:3499  contract smartContract is Ownable {... */\n  jump(tag_8)\n    /* \"contracts/Token/utils/Ownable.sol\":2395:2586  function _transferOwnership(address newOwner) internal virtual {... */\ntag_7:\n    /* \"contracts/Token/utils/Ownable.sol\":2469:2485  address oldOwner */\n  0x00\n    /* \"contracts/Token/utils/Ownable.sol\":2488:2494  _owner */\n  dup1\n  sload\n  sub(shl(0xa0, 0x01), 0x01)\n    /* \"contracts/Token/utils/Ownable.sol\":2505:2522  _owner = newOwner */\n  dup4\n  dup2\n  and\n  not(sub(shl(0xa0, 0x01), 0x01))\n  dup4\n  and\n  dup2\n  or\n  dup5\n  sstore\n    /* \"contracts/Token/utils/Ownable.sol\":2538:2578  OwnershipTransferred(oldOwner, newOwner) */\n  mload(0x40)\n    /* \"contracts/Token/utils/Ownable.sol\":2488:2494  _owner */\n  swap2\n  swap1\n  swap3\n  and\n  swap3\n  dup4\n  swap2\n    /* \"contracts/Token/utils/Ownable.sol\":2538:2578  OwnershipTransferred(oldOwner, newOwner) */\n  0x8be0079c531659141344cd1fd0a4f28419497f9722a3daafe3b4186f6b6457e0\n  swap2\n    /* \"contracts/Token/utils/Ownable.sol\":2469:2485  address oldOwner */\n  swap1\n    /* \"contracts/Token/utils/Ownable.sol\":2538:2578  OwnershipTransferred(oldOwner, newOwner) */\n  log3\n    /* \"contracts/Token/utils/Ownable.sol\":2458:2586  {... */\n  pop\n    /* \"contracts/Token/utils/Ownable.sol\":2395:2586  function _transferOwnership(address newOwner) internal virtual {... */\n  pop\n  jump\t// out\n    /* \"contracts/smartContract.sol\":166:3499  contract smartContract is Ownable {... */\ntag_8:\n  dataSize(sub_0)\n  dup1\n  dataOffset(sub_0)\n  0x00\n  codecopy\n  0x00\n  return\nstop\n\nsub_0: assembly {\n        /* \"contracts/smartContract.sol\":166:3499  contract smartContract is Ownable {... */\n      mstore(0x40, 0x80)\n      jumpi(tag_1, lt(calldatasize, 0x04))\n      shr(0xe0, calldataload(0x00))\n      dup1\n      0x715018a6\n      gt\n      tag_14\n      jumpi\n      dup1\n      0x715018a6\n      eq\n      tag_8\n      jumpi\n      dup1\n      0x8637856d\n      eq\n      tag_9\n      jumpi\n      dup1\n      0x8da5cb5b\n      eq\n      tag_10\n      jumpi\n      dup1\n      0xa77b2e37\n      eq\n      tag_11\n      jumpi\n      dup1\n      0xaf0afec9\n      eq\n      tag_12\n      jumpi\n      dup1\n      0xf2fde38b\n      eq\n      tag_13\n      jumpi\n      0x00\n      dup1\n      revert\n    tag_14:\n      dup1\n      0x158ef93e\n      eq\n      tag_2\n      jumpi\n      dup1\n      0x1794bb3c\n      eq\n      tag_3\n      jumpi\n      dup1\n      0x28f661e3\n      eq\n      tag_4\n      jumpi\n      dup1\n      0x2c1e816d\n      eq\n      tag_5\n      jumpi\n      dup1\n      0x2d296bf1\n      eq\n      tag_6\n      jumpi\n      dup1\n      0x5f4fd1f7\n      eq\n      tag_7\n      jumpi\n    tag_1:\n      0x00\n      dup1\n      revert\n        /* \"contracts/smartContract.sol\":323:346  bool public initialized */\n    tag_2:\n      callvalue\n      dup1\n      iszero\n      tag_15\n      jumpi\n      0x00\n      dup1\n      revert\n    tag_15:\n      pop\n      sload(0x04)\n      tag_16\n      swap1\n      0xff\n      and\n      dup2\n      jump\n    tag_16:\n      mload(0x40)\n        /* \"#utility.yul\":179:193   */\n      swap1\n      iszero\n        /* \"#utility.yul\":172:194   */\n      iszero\n        /* \"#utility.yul\":154:195   */\n      dup2\n      mstore\n        /* \"#utility.yul\":142:144   */\n      0x20\n        /* \"#utility.yul\":127:145   */\n      add\n        /* \"contracts/smartContract.sol\":323:346  bool public initialized */\n    tag_18:\n      mload(0x40)\n      dup1\n      swap2\n      sub\n      swap1\n      return\n        /* \"contracts/smartContract.sol\":719:1080  function initialize(... */\n    tag_3:\n      callvalue\n      dup1\n      iszero\n      tag_20\n      jumpi\n      0x00\n      dup1\n      revert\n    tag_20:\n      pop\n      tag_21\n      tag_22\n      calldatasize\n      0x04\n      tag_23\n      jump\t// in\n    tag_22:\n      tag_24\n      jump\t// in\n    tag_21:\n      stop\n        /* \"contracts/smartContract.sol\":240:267  address public AdminAddress */\n    tag_4:\n      callvalue\n      dup1\n      iszero\n      tag_25\n      jumpi\n      0x00\n      dup1\n      revert\n    tag_25:\n      pop\n      sload(0x01)\n      tag_26\n      swap1\n      sub(shl(0xa0, 0x01), 0x01)\n      and\n      dup2\n      jump\n    tag_26:\n      mload(0x40)\n      sub(shl(0xa0, 0x01), 0x01)\n        /* \"#utility.yul\":1001:1033   */\n      swap1\n      swap2\n      and\n        /* \"#utility.yul\":983:1034   */\n      dup2\n      mstore\n        /* \"#utility.yul\":971:973   */\n      0x20\n        /* \"#utility.yul\":956:974   */\n      add\n        /* \"contracts/smartContract.sol\":240:267  address public AdminAddress */\n      tag_18\n        /* \"#utility.yul\":837:1040   */\n      jump\n        /* \"contracts/smartContract.sol\":1088:1186  function setAdminAddress(address _admin) public onlyOwner {... */\n    tag_5:\n      callvalue\n      dup1\n      iszero\n      tag_30\n      jumpi\n      0x00\n      dup1\n      revert\n    tag_30:\n      pop\n      tag_21\n      tag_32\n      calldatasize\n      0x04\n      tag_33\n      jump\t// in\n    tag_32:\n      tag_34\n      jump\t// in\n        /* \"contracts/smartContract.sol\":2149:3496  function buyToken(uint256 amount) public payable {... */\n    tag_6:\n      tag_21\n      tag_36\n      calldatasize\n      0x04\n      tag_37\n      jump\t// in\n    tag_36:\n      tag_38\n      jump\t// in\n        /* \"contracts/smartContract.sol\":1294:1415  function getIdsOfUser(address user) public view returns (uint256[] memory) {... */\n    tag_7:\n      callvalue\n      dup1\n      iszero\n      tag_39\n      jumpi\n      0x00\n      dup1\n      revert\n    tag_39:\n      pop\n      tag_40\n      tag_41\n      calldatasize\n      0x04\n      tag_33\n      jump\t// in\n    tag_41:\n      tag_42\n      jump\t// in\n    tag_40:\n      mload(0x40)\n      tag_18\n      swap2\n      swap1\n      tag_44\n      jump\t// in\n        /* \"contracts/Token/utils/Ownable.sol\":1739:1842  function renounceOwnership() public virtual onlyOwner {... */\n    tag_8:\n      callvalue\n      dup1\n      iszero\n      tag_45\n      jumpi\n      0x00\n      dup1\n      revert\n    tag_45:\n      pop\n      tag_21\n      tag_47\n      jump\t// in\n        /* \"contracts/smartContract.sol\":355:422  mapping(address => mapping(uint256 => purchaseInfo)) public buyInfo */\n    tag_9:\n      callvalue\n      dup1\n      iszero\n      tag_48\n      jumpi\n      0x00\n      dup1\n      revert\n    tag_48:\n      pop\n      tag_49\n      tag_50\n      calldatasize\n      0x04\n      tag_51\n      jump\t// in\n    tag_50:\n      0x05\n      0x20\n      dup2\n      dup2\n      mstore\n      0x00\n      swap4\n      dup5\n      mstore\n      0x40\n      dup1\n      dup6\n      keccak256\n      swap1\n      swap2\n      mstore\n      swap2\n      dup4\n      mstore\n      swap2\n      keccak256\n      dup1\n      sload\n      0x01\n      dup3\n      add\n      sload\n      0x02\n      dup4\n      add\n      sload\n      0x03\n      dup5\n      add\n      sload\n      0x04\n      dup6\n      add\n      sload\n      swap6\n      dup6\n      add\n      sload\n      0x06\n      swap1\n      swap6\n      add\n      sload\n      swap4\n      swap6\n      swap3\n      swap5\n      swap2\n      swap4\n      swap1\n      swap3\n      swap2\n      swap1\n      dup8\n      jump\n    tag_49:\n      0x40\n      dup1\n      mload\n        /* \"#utility.yul\":2768:2793   */\n      swap8\n      dup9\n      mstore\n        /* \"#utility.yul\":2824:2826   */\n      0x20\n        /* \"#utility.yul\":2809:2827   */\n      dup9\n      add\n        /* \"#utility.yul\":2802:2836   */\n      swap7\n      swap1\n      swap7\n      mstore\n        /* \"#utility.yul\":2852:2870   */\n      swap5\n      dup7\n      add\n        /* \"#utility.yul\":2845:2879   */\n      swap4\n      swap1\n      swap4\n      mstore\n        /* \"#utility.yul\":2910:2912   */\n      0x60\n        /* \"#utility.yul\":2895:2913   */\n      dup6\n      add\n        /* \"#utility.yul\":2888:2922   */\n      swap2\n      swap1\n      swap2\n      mstore\n        /* \"#utility.yul\":2953:2956   */\n      0x80\n        /* \"#utility.yul\":2938:2957   */\n      dup5\n      add\n        /* \"#utility.yul\":2931:2966   */\n      mstore\n        /* \"#utility.yul\":2997:3000   */\n      0xa0\n        /* \"#utility.yul\":2982:3001   */\n      dup4\n      add\n        /* \"#utility.yul\":2975:3010   */\n      mstore\n        /* \"#utility.yul\":3041:3044   */\n      0xc0\n        /* \"#utility.yul\":3026:3045   */\n      dup3\n      add\n        /* \"#utility.yul\":3019:3054   */\n      mstore\n        /* \"#utility.yul\":2755:2758   */\n      0xe0\n        /* \"#utility.yul\":2740:2759   */\n      add\n        /* \"contracts/smartContract.sol\":355:422  mapping(address => mapping(uint256 => purchaseInfo)) public buyInfo */\n      tag_18\n        /* \"#utility.yul\":2453:3060   */\n      jump\n        /* \"contracts/Token/utils/Ownable.sol\":1088:1175  function owner() public view virtual returns (address) {... */\n    tag_10:\n      callvalue\n      dup1\n      iszero\n      tag_55\n      jumpi\n      0x00\n      dup1\n      revert\n    tag_55:\n      pop\n        /* \"contracts/Token/utils/Ownable.sol\":1134:1141  address */\n      0x00\n        /* \"contracts/Token/utils/Ownable.sol\":1161:1167  _owner */\n      sload\n      sub(shl(0xa0, 0x01), 0x01)\n      and\n        /* \"contracts/Token/utils/Ownable.sol\":1088:1175  function owner() public view virtual returns (address) {... */\n      jump(tag_26)\n        /* \"contracts/smartContract.sol\":274:291  Token public Coin */\n    tag_11:\n      callvalue\n      dup1\n      iszero\n      tag_59\n      jumpi\n      0x00\n      dup1\n      revert\n    tag_59:\n      pop\n      sload(0x02)\n      tag_26\n      swap1\n      sub(shl(0xa0, 0x01), 0x01)\n      and\n      dup2\n      jump\n        /* \"contracts/smartContract.sol\":1194:1286  function totalInvesters() public view returns (uint256) {... */\n    tag_12:\n      callvalue\n      dup1\n      iszero\n      tag_64\n      jumpi\n      0x00\n      dup1\n      revert\n    tag_64:\n      pop\n        /* \"contracts/smartContract.sol\":1268:1278  investerID */\n      sload(0x03)\n        /* \"contracts/smartContract.sol\":1194:1286  function totalInvesters() public view returns (uint256) {... */\n      mload(0x40)\n        /* \"#utility.yul\":3432:3457   */\n      swap1\n      dup2\n      mstore\n        /* \"#utility.yul\":3420:3422   */\n      0x20\n        /* \"#utility.yul\":3405:3423   */\n      add\n        /* \"contracts/smartContract.sol\":1194:1286  function totalInvesters() public view returns (uint256) {... */\n      tag_18\n        /* \"#utility.yul\":3286:3463   */\n      jump\n        /* \"contracts/Token/utils/Ownable.sol\":1997:2235  function transferOwnership(address newOwner) public virtual onlyOwner {... */\n    tag_13:\n      callvalue\n      dup1\n      iszero\n      tag_69\n      jumpi\n      0x00\n      dup1\n      revert\n    tag_69:\n      pop\n      tag_21\n      tag_71\n      calldatasize\n      0x04\n      tag_33\n      jump\t// in\n    tag_71:\n      tag_72\n      jump\t// in\n        /* \"contracts/smartContract.sol\":719:1080  function initialize(... */\n    tag_24:\n        /* \"contracts/Token/utils/Ownable.sol\":1134:1141  address */\n      0x00\n        /* \"contracts/Token/utils/Ownable.sol\":1161:1167  _owner */\n      sload\n      sub(shl(0xa0, 0x01), 0x01)\n      and\n        /* \"contracts/Token/utils/Context.sol\":737:747  msg.sender */\n      caller\n        /* \"contracts/Token/utils/Ownable.sol\":1308:1331  owner() == _msgSender() */\n      eq\n        /* \"contracts/Token/utils/Ownable.sol\":1300:1368  require(owner() == _msgSender(), \"Ownable: caller is not the owner\") */\n      tag_77\n      jumpi\n      mload(0x40)\n      shl(0xe5, 0x461bcd)\n      dup2\n      mstore\n      0x04\n      add\n      tag_78\n      swap1\n      tag_79\n      jump\t// in\n    tag_78:\n      mload(0x40)\n      dup1\n      swap2\n      sub\n      swap1\n      revert\n    tag_77:\n        /* \"contracts/smartContract.sol\":861:872  initialized */\n      and(0xff, sload(0x04))\n        /* \"contracts/smartContract.sol\":861:880  initialized != true */\n      iszero\n      iszero\n        /* \"contracts/smartContract.sol\":861:872  initialized */\n      0x01\n        /* \"contracts/smartContract.sol\":861:880  initialized != true */\n      sub\n        /* \"contracts/smartContract.sol\":853:904  require(initialized != true, \"Already Initialized\") */\n      tag_81\n      jumpi\n      mload(0x40)\n      shl(0xe5, 0x461bcd)\n      dup2\n      mstore\n        /* \"#utility.yul\":4031:4033   */\n      0x20\n        /* \"contracts/smartContract.sol\":853:904  require(initialized != true, \"Already Initialized\") */\n      0x04\n      dup3\n      add\n        /* \"#utility.yul\":4013:4034   */\n      mstore\n        /* \"#utility.yul\":4070:4072   */\n      0x13\n        /* \"#utility.yul\":4050:4068   */\n      0x24\n      dup3\n      add\n        /* \"#utility.yul\":4043:4073   */\n      mstore\n      shl(0x6a, 0x105b1c9958591e48125b9a5d1a585b1a5e9959)\n        /* \"#utility.yul\":4089:4107   */\n      0x44\n      dup3\n      add\n        /* \"#utility.yul\":4082:4131   */\n      mstore\n        /* \"#utility.yul\":4148:4166   */\n      0x64\n      add\n        /* \"contracts/smartContract.sol\":853:904  require(initialized != true, \"Already Initialized\") */\n      tag_78\n        /* \"#utility.yul\":3829:4172   */\n      jump\n        /* \"contracts/smartContract.sol\":853:904  require(initialized != true, \"Already Initialized\") */\n    tag_81:\n        /* \"contracts/smartContract.sol\":915:919  Coin */\n      0x02\n        /* \"contracts/smartContract.sol\":915:934  Coin = Token(_Coin) */\n      dup1\n      sload\n      sub(shl(0xa0, 0x01), 0x01)\n      dup1\n      dup7\n      and\n      not(sub(shl(0xa0, 0x01), 0x01))\n      swap3\n      dup4\n      and\n      dup2\n      or\n      swap1\n      swap4\n      sstore\n      0x01\n        /* \"contracts/smartContract.sol\":945:982  AdminAddress = address(_adminAddress) */\n      dup1\n      sload\n      swap2\n      dup7\n      and\n      swap2\n      swap1\n      swap3\n      and\n      or\n      swap1\n      sstore\n        /* \"contracts/smartContract.sol\":993:1011  Coin.transferPrice */\n      0xb45ee9ef\n        /* \"contracts/smartContract.sol\":1012:1019  owner() */\n      tag_84\n        /* \"contracts/Token/utils/Ownable.sol\":1134:1141  address */\n      0x00\n        /* \"contracts/Token/utils/Ownable.sol\":1161:1167  _owner */\n      sload\n      sub(shl(0xa0, 0x01), 0x01)\n      and\n      swap1\n        /* \"contracts/Token/utils/Ownable.sol\":1088:1175  function owner() public view virtual returns (address) {... */\n      jump\n        /* \"contracts/smartContract.sol\":1012:1019  owner() */\n    tag_84:\n        /* \"contracts/smartContract.sol\":993:1043  Coin.transferPrice(owner(), _adminAddress, amount) */\n      mload(0x40)\n      not(sub(shl(0xe0, 0x01), 0x01))\n      0xe0\n      dup5\n      swap1\n      shl\n      and\n      dup2\n      mstore\n      sub(shl(0xa0, 0x01), 0x01)\n        /* \"#utility.yul\":4435:4450   */\n      swap2\n      dup3\n      and\n        /* \"contracts/smartContract.sol\":993:1043  Coin.transferPrice(owner(), _adminAddress, amount) */\n      0x04\n      dup3\n      add\n        /* \"#utility.yul\":4417:4451   */\n      mstore\n        /* \"#utility.yul\":4487:4502   */\n      swap1\n      dup6\n      and\n        /* \"#utility.yul\":4467:4485   */\n      0x24\n      dup3\n      add\n        /* \"#utility.yul\":4460:4503   */\n      mstore\n        /* \"#utility.yul\":4519:4537   */\n      0x44\n      dup2\n      add\n        /* \"#utility.yul\":4512:4546   */\n      dup5\n      swap1\n      mstore\n        /* \"#utility.yul\":4352:4370   */\n      0x64\n      add\n        /* \"contracts/smartContract.sol\":993:1043  Coin.transferPrice(owner(), _adminAddress, amount) */\n      0x00\n      mload(0x40)\n      dup1\n      dup4\n      sub\n      dup2\n      0x00\n      dup8\n      dup1\n      extcodesize\n      iszero\n      dup1\n      iszero\n      tag_87\n      jumpi\n      0x00\n      dup1\n      revert\n    tag_87:\n      pop\n      gas\n      call\n      iszero\n      dup1\n      iszero\n      tag_89\n      jumpi\n      returndatasize\n      0x00\n      dup1\n      returndatacopy\n      revert(0x00, returndatasize)\n    tag_89:\n      pop\n      pop\n        /* \"contracts/smartContract.sol\":1054:1065  initialized */\n      0x04\n        /* \"contracts/smartContract.sol\":1054:1072  initialized = true */\n      dup1\n      sload\n      not(0xff)\n      and\n        /* \"contracts/smartContract.sol\":1068:1072  true */\n      0x01\n        /* \"contracts/smartContract.sol\":1054:1072  initialized = true */\n      or\n      swap1\n      sstore\n      pop\n      pop\n      pop\n      pop\n      pop\n        /* \"contracts/smartContract.sol\":719:1080  function initialize(... */\n      jump\t// out\n        /* \"contracts/smartContract.sol\":1088:1186  function setAdminAddress(address _admin) public onlyOwner {... */\n    tag_34:\n        /* \"contracts/Token/utils/Ownable.sol\":1134:1141  address */\n      0x00\n        /* \"contracts/Token/utils/Ownable.sol\":1161:1167  _owner */\n      sload\n      sub(shl(0xa0, 0x01), 0x01)\n      and\n        /* \"contracts/Token/utils/Context.sol\":737:747  msg.sender */\n      caller\n        /* \"contracts/Token/utils/Ownable.sol\":1308:1331  owner() == _msgSender() */\n      eq\n        /* \"contracts/Token/utils/Ownable.sol\":1300:1368  require(owner() == _msgSender(), \"Ownable: caller is not the owner\") */\n      tag_93\n      jumpi\n      mload(0x40)\n      shl(0xe5, 0x461bcd)\n      dup2\n      mstore\n      0x04\n      add\n      tag_78\n      swap1\n      tag_79\n      jump\t// in\n    tag_93:\n        /* \"contracts/smartContract.sol\":1157:1169  AdminAddress */\n      0x01\n        /* \"contracts/smartContract.sol\":1157:1178  AdminAddress = _admin */\n      dup1\n      sload\n      not(sub(shl(0xa0, 0x01), 0x01))\n      and\n      sub(shl(0xa0, 0x01), 0x01)\n      swap3\n      swap1\n      swap3\n      and\n      swap2\n      swap1\n      swap2\n      or\n      swap1\n      sstore\n        /* \"contracts/smartContract.sol\":1088:1186  function setAdminAddress(address _admin) public onlyOwner {... */\n      jump\t// out\n        /* \"contracts/smartContract.sol\":2149:3496  function buyToken(uint256 amount) public payable {... */\n    tag_38:\n        /* \"contracts/smartContract.sol\":2231:2235  Coin */\n      sload(0x02)\n      0x01\n        /* \"contracts/smartContract.sol\":2244:2256  AdminAddress */\n      sload\n        /* \"contracts/smartContract.sol\":2231:2257  Coin.balance(AdminAddress) */\n      mload(0x40)\n      shl(0xe0, 0xe3d670d7)\n      dup2\n      mstore\n      sub(shl(0xa0, 0x01), 0x01)\n        /* \"contracts/smartContract.sol\":2244:2256  AdminAddress */\n      swap2\n      dup3\n      and\n        /* \"contracts/smartContract.sol\":2231:2257  Coin.balance(AdminAddress) */\n      0x04\n      dup3\n      add\n        /* \"#utility.yul\":983:1034   */\n      mstore\n        /* \"contracts/smartContract.sol\":2260:2266  amount */\n      dup4\n      swap3\n        /* \"contracts/smartContract.sol\":2231:2235  Coin */\n      swap2\n      swap1\n      swap2\n      and\n      swap1\n        /* \"contracts/smartContract.sol\":2231:2243  Coin.balance */\n      0xe3d670d7\n      swap1\n        /* \"#utility.yul\":956:974   */\n      0x24\n      add\n        /* \"contracts/smartContract.sol\":2231:2257  Coin.balance(AdminAddress) */\n      0x20\n      mload(0x40)\n      dup1\n      dup4\n      sub\n      dup2\n      dup7\n      gas\n      staticcall\n      iszero\n      dup1\n      iszero\n      tag_99\n      jumpi\n      returndatasize\n      0x00\n      dup1\n      returndatacopy\n      revert(0x00, returndatasize)\n    tag_99:\n      pop\n      pop\n      pop\n      pop\n      mload(0x40)\n      returndatasize\n      not(0x1f)\n      0x1f\n      dup3\n      add\n      and\n      dup3\n      add\n      dup1\n      0x40\n      mstore\n      pop\n      dup2\n      add\n      swap1\n      tag_100\n      swap2\n      swap1\n      tag_101\n      jump\t// in\n    tag_100:\n        /* \"contracts/smartContract.sol\":2231:2266  Coin.balance(AdminAddress) > amount */\n      gt\n        /* \"contracts/smartContract.sol\":2209:2335  require(... */\n      tag_102\n      jumpi\n      mload(0x40)\n      shl(0xe5, 0x461bcd)\n      dup2\n      mstore\n        /* \"#utility.yul\":4948:4950   */\n      0x20\n        /* \"contracts/smartContract.sol\":2209:2335  require(... */\n      0x04\n      dup3\n      add\n        /* \"#utility.yul\":4930:4951   */\n      mstore\n        /* \"#utility.yul\":4987:4989   */\n      0x29\n        /* \"#utility.yul\":4967:4985   */\n      0x24\n      dup3\n      add\n        /* \"#utility.yul\":4960:4990   */\n      mstore\n        /* \"#utility.yul\":5026:5060   */\n      0x4572726f723a2041646d696e20646f6573206e6f74206861766520656e6f7567\n        /* \"#utility.yul\":5006:5024   */\n      0x44\n      dup3\n      add\n        /* \"#utility.yul\":4999:5061   */\n      mstore\n      shl(0xb8, 0x682062616c616e6365)\n        /* \"#utility.yul\":5077:5095   */\n      0x64\n      dup3\n      add\n        /* \"#utility.yul\":5070:5109   */\n      mstore\n        /* \"#utility.yul\":5126:5145   */\n      0x84\n      add\n        /* \"contracts/smartContract.sol\":2209:2335  require(... */\n      tag_78\n        /* \"#utility.yul\":4746:5151   */\n      jump\n        /* \"contracts/smartContract.sol\":2209:2335  require(... */\n    tag_102:\n        /* \"contracts/smartContract.sol\":2346:2367  uint256 burningAmount */\n      0x00\n        /* \"contracts/smartContract.sol\":2385:2388  100 */\n      0x64\n        /* \"contracts/smartContract.sol\":2371:2381  1 * amount */\n      tag_105\n        /* \"contracts/smartContract.sol\":2375:2381  amount */\n      dup4\n        /* \"contracts/smartContract.sol\":2371:2372  1 */\n      0x01\n        /* \"contracts/smartContract.sol\":2371:2381  1 * amount */\n      tag_106\n      jump\t// in\n    tag_105:\n        /* \"contracts/smartContract.sol\":2370:2388  (1 * amount) / 100 */\n      tag_107\n      swap2\n      swap1\n      tag_108\n      jump\t// in\n    tag_107:\n        /* \"contracts/smartContract.sol\":2346:2388  uint256 burningAmount = (1 * amount) / 100 */\n      swap1\n      pop\n        /* \"contracts/smartContract.sol\":2399:2425  uint256 amountAfterBurning */\n      0x00\n        /* \"contracts/smartContract.sol\":2428:2453  amount.sub(burningAmount) */\n      tag_109\n        /* \"contracts/smartContract.sol\":2428:2434  amount */\n      dup4\n        /* \"contracts/smartContract.sol\":2346:2388  uint256 burningAmount = (1 * amount) / 100 */\n      dup4\n        /* \"contracts/smartContract.sol\":2428:2438  amount.sub */\n      tag_110\n        /* \"contracts/smartContract.sol\":2428:2453  amount.sub(burningAmount) */\n      jump\t// in\n    tag_109:\n        /* \"contracts/smartContract.sol\":2464:2468  Coin */\n      sload(0x02)\n      0x01\n        /* \"contracts/smartContract.sol\":2483:2495  AdminAddress */\n      sload\n        /* \"contracts/smartContract.sol\":2464:2528  Coin.transferPrice(AdminAddress, msg.sender, amountAfterBurning) */\n      mload(0x40)\n      shl(0xe0, 0xb45ee9ef)\n      dup2\n      mstore\n      sub(shl(0xa0, 0x01), 0x01)\n        /* \"contracts/smartContract.sol\":2483:2495  AdminAddress */\n      swap2\n      dup3\n      and\n        /* \"contracts/smartContract.sol\":2464:2528  Coin.transferPrice(AdminAddress, msg.sender, amountAfterBurning) */\n      0x04\n      dup3\n      add\n        /* \"#utility.yul\":4417:4451   */\n      mstore\n        /* \"contracts/smartContract.sol\":2497:2507  msg.sender */\n      caller\n        /* \"#utility.yul\":4467:4485   */\n      0x24\n      dup3\n      add\n        /* \"#utility.yul\":4460:4503   */\n      mstore\n        /* \"#utility.yul\":4519:4537   */\n      0x44\n      dup2\n      add\n        /* \"#utility.yul\":4512:4546   */\n      dup5\n      swap1\n      mstore\n        /* \"contracts/smartContract.sol\":2399:2453  uint256 amountAfterBurning = amount.sub(burningAmount) */\n      swap3\n      swap4\n      pop\n        /* \"contracts/smartContract.sol\":2464:2468  Coin */\n      and\n      swap1\n        /* \"contracts/smartContract.sol\":2464:2482  Coin.transferPrice */\n      0xb45ee9ef\n      swap1\n        /* \"#utility.yul\":4352:4370   */\n      0x64\n      add\n        /* \"contracts/smartContract.sol\":2464:2528  Coin.transferPrice(AdminAddress, msg.sender, amountAfterBurning) */\n      0x00\n      mload(0x40)\n      dup1\n      dup4\n      sub\n      dup2\n      0x00\n      dup8\n      dup1\n      extcodesize\n      iszero\n      dup1\n      iszero\n      tag_112\n      jumpi\n      0x00\n      dup1\n      revert\n    tag_112:\n      pop\n      gas\n      call\n      iszero\n      dup1\n      iszero\n      tag_114\n      jumpi\n      returndatasize\n      0x00\n      dup1\n      returndatacopy\n      revert(0x00, returndatasize)\n    tag_114:\n      pop\n      pop\n        /* \"contracts/smartContract.sol\":2564:2574  investerID */\n      0x03\n        /* \"contracts/smartContract.sol\":2564:2576  investerID++ */\n      dup1\n      sload\n      0x01\n      swap1\n      dup2\n      add\n      dup1\n      dup4\n      sstore\n        /* \"contracts/smartContract.sol\":2640:2650  msg.sender */\n      caller\n      0x00\n        /* \"contracts/smartContract.sol\":2632:2651  buyInfo[msg.sender] */\n      swap1\n      dup2\n      mstore\n        /* \"contracts/smartContract.sol\":2632:2639  buyInfo */\n      0x05\n        /* \"contracts/smartContract.sol\":2632:2651  buyInfo[msg.sender] */\n      0x20\n      swap1\n      dup2\n      mstore\n      0x40\n      dup1\n      dup4\n      keccak256\n        /* \"contracts/smartContract.sol\":2632:2655  buyInfo[msg.sender][id] */\n      dup5\n      dup5\n      mstore\n      swap1\n      swap2\n      mstore\n      dup2\n      keccak256\n        /* \"contracts/smartContract.sol\":2632:2671  buyInfo[msg.sender][id].ID = investerID */\n      dup3\n      dup2\n      sstore\n        /* \"contracts/smartContract.sol\":2716:2731  block.timestamp */\n      timestamp\n        /* \"contracts/smartContract.sol\":2682:2713  buyInfo[msg.sender][id].buyTime */\n      swap4\n      dup2\n      add\n        /* \"contracts/smartContract.sol\":2682:2731  buyInfo[msg.sender][id].buyTime = block.timestamp */\n      swap4\n      swap1\n      swap4\n      sstore\n        /* \"contracts/smartContract.sol\":2742:2779  buyInfo[msg.sender][id].purchaseToken */\n      0x02\n      dup1\n      dup5\n      add\n        /* \"contracts/smartContract.sol\":2742:2788  buyInfo[msg.sender][id].purchaseToken = amount */\n      dup11\n      swap1\n      sstore\n        /* \"contracts/smartContract.sol\":2799:2832  buyInfo[msg.sender][id].burnToken */\n      swap4\n      dup4\n      add\n        /* \"contracts/smartContract.sol\":2799:2848  buyInfo[msg.sender][id].burnToken = burningAmount */\n      dup9\n      swap1\n      sstore\n        /* \"contracts/smartContract.sol\":2859:2891  buyInfo[msg.sender][id].userGets */\n      0x04\n      swap1\n      swap3\n      add\n        /* \"contracts/smartContract.sol\":2859:2912  buyInfo[msg.sender][id].userGets = amountAfterBurning */\n      dup7\n      swap1\n      sstore\n        /* \"contracts/smartContract.sol\":2564:2576  investerID++ */\n      swap4\n      pop\n      swap2\n      pop\n        /* \"contracts/smartContract.sol\":2953:2978  amountAfterBurning.div(2) */\n      tag_115\n      swap1\n        /* \"contracts/smartContract.sol\":2859:2912  buyInfo[msg.sender][id].userGets = amountAfterBurning */\n      dup5\n      swap1\n        /* \"contracts/smartContract.sol\":2953:2975  amountAfterBurning.div */\n      tag_116\n        /* \"contracts/smartContract.sol\":2953:2978  amountAfterBurning.div(2) */\n      jump\t// in\n    tag_115:\n        /* \"contracts/smartContract.sol\":3011:3015  Coin */\n      sload(0x02)\n        /* \"contracts/smartContract.sol\":2923:2978  uint256 ownerSurplusToAdmin = amountAfterBurning.div(2) */\n      swap1\n      swap2\n      pop\n      dup2\n      swap1\n      sub(shl(0xa0, 0x01), 0x01)\n        /* \"contracts/smartContract.sol\":3011:3015  Coin */\n      and\n        /* \"contracts/smartContract.sol\":3011:3023  Coin.balance */\n      0xe3d670d7\n        /* \"contracts/smartContract.sol\":3024:3031  owner() */\n      tag_117\n        /* \"contracts/Token/utils/Ownable.sol\":1134:1141  address */\n      0x00\n        /* \"contracts/Token/utils/Ownable.sol\":1161:1167  _owner */\n      sload\n      sub(shl(0xa0, 0x01), 0x01)\n      and\n      swap1\n        /* \"contracts/Token/utils/Ownable.sol\":1088:1175  function owner() public view virtual returns (address) {... */\n      jump\n        /* \"contracts/smartContract.sol\":3024:3031  owner() */\n    tag_117:\n        /* \"contracts/smartContract.sol\":3011:3032  Coin.balance(owner()) */\n      mload(0x40)\n      not(sub(shl(0xe0, 0x01), 0x01))\n      0xe0\n      dup5\n      swap1\n      shl\n      and\n      dup2\n      mstore\n      sub(shl(0xa0, 0x01), 0x01)\n        /* \"#utility.yul\":1001:1033   */\n      swap1\n      swap2\n      and\n        /* \"contracts/smartContract.sol\":3011:3032  Coin.balance(owner()) */\n      0x04\n      dup3\n      add\n        /* \"#utility.yul\":983:1034   */\n      mstore\n        /* \"#utility.yul\":956:974   */\n      0x24\n      add\n        /* \"contracts/smartContract.sol\":3011:3032  Coin.balance(owner()) */\n      0x20\n      mload(0x40)\n      dup1\n      dup4\n      sub\n      dup2\n      dup7\n      gas\n      staticcall\n      iszero\n      dup1\n      iszero\n      tag_120\n      jumpi\n      returndatasize\n      0x00\n      dup1\n      returndatacopy\n      revert(0x00, returndatasize)\n    tag_120:\n      pop\n      pop\n      pop\n      pop\n      mload(0x40)\n      returndatasize\n      not(0x1f)\n      0x1f\n      dup3\n      add\n      and\n      dup3\n      add\n      dup1\n      0x40\n      mstore\n      pop\n      dup2\n      add\n      swap1\n      tag_121\n      swap2\n      swap1\n      tag_101\n      jump\t// in\n    tag_121:\n        /* \"contracts/smartContract.sol\":3011:3054  Coin.balance(owner()) > ownerSurplusToAdmin */\n      gt\n        /* \"contracts/smartContract.sol\":2989:3123  require(... */\n      tag_122\n      jumpi\n      mload(0x40)\n      shl(0xe5, 0x461bcd)\n      dup2\n      mstore\n        /* \"#utility.yul\":5885:5887   */\n      0x20\n        /* \"contracts/smartContract.sol\":2989:3123  require(... */\n      0x04\n      dup3\n      add\n        /* \"#utility.yul\":5867:5888   */\n      mstore\n        /* \"#utility.yul\":5924:5926   */\n      0x29\n        /* \"#utility.yul\":5904:5922   */\n      0x24\n      dup3\n      add\n        /* \"#utility.yul\":5897:5927   */\n      mstore\n        /* \"#utility.yul\":5963:5997   */\n      0x4572726f723a204f776e657220646f6573206e6f74206861766520656e6f7567\n        /* \"#utility.yul\":5943:5961   */\n      0x44\n      dup3\n      add\n        /* \"#utility.yul\":5936:5998   */\n      mstore\n      shl(0xb8, 0x682062616c616e6365)\n        /* \"#utility.yul\":6014:6032   */\n      0x64\n      dup3\n      add\n        /* \"#utility.yul\":6007:6046   */\n      mstore\n        /* \"#utility.yul\":6063:6082   */\n      0x84\n      add\n        /* \"contracts/smartContract.sol\":2989:3123  require(... */\n      tag_78\n        /* \"#utility.yul\":5683:6088   */\n      jump\n        /* \"contracts/smartContract.sol\":2989:3123  require(... */\n    tag_122:\n        /* \"contracts/smartContract.sol\":3134:3138  Coin */\n      and(sub(shl(0xa0, 0x01), 0x01), sload(0x02))\n        /* \"contracts/smartContract.sol\":3134:3152  Coin.transferPrice */\n      0xb45ee9ef\n        /* \"contracts/smartContract.sol\":3153:3160  owner() */\n      tag_125\n        /* \"contracts/Token/utils/Ownable.sol\":1134:1141  address */\n      0x00\n        /* \"contracts/Token/utils/Ownable.sol\":1161:1167  _owner */\n      sload\n      sub(shl(0xa0, 0x01), 0x01)\n      and\n      swap1\n        /* \"contracts/Token/utils/Ownable.sol\":1088:1175  function owner() public view virtual returns (address) {... */\n      jump\n        /* \"contracts/smartContract.sol\":3153:3160  owner() */\n    tag_125:\n        /* \"contracts/smartContract.sol\":3162:3174  AdminAddress */\n      sload(0x01)\n        /* \"contracts/smartContract.sol\":3134:3196  Coin.transferPrice(owner(), AdminAddress, ownerSurplusToAdmin) */\n      mload(0x40)\n      0xe0\n      dup5\n      swap1\n      shl\n      not(sub(shl(0xe0, 0x01), 0x01))\n      and\n      dup2\n      mstore\n      sub(shl(0xa0, 0x01), 0x01)\n        /* \"#utility.yul\":4435:4450   */\n      swap3\n      dup4\n      and\n        /* \"contracts/smartContract.sol\":3134:3196  Coin.transferPrice(owner(), AdminAddress, ownerSurplusToAdmin) */\n      0x04\n      dup3\n      add\n        /* \"#utility.yul\":4417:4451   */\n      mstore\n        /* \"contracts/smartContract.sol\":3162:3174  AdminAddress */\n      swap2\n      and\n        /* \"#utility.yul\":4467:4485   */\n      0x24\n      dup3\n      add\n        /* \"#utility.yul\":4460:4503   */\n      mstore\n        /* \"#utility.yul\":4519:4537   */\n      0x44\n      dup2\n      add\n        /* \"#utility.yul\":4512:4546   */\n      dup5\n      swap1\n      mstore\n        /* \"#utility.yul\":4352:4370   */\n      0x64\n      add\n        /* \"contracts/smartContract.sol\":3134:3196  Coin.transferPrice(owner(), AdminAddress, ownerSurplusToAdmin) */\n      0x00\n      mload(0x40)\n      dup1\n      dup4\n      sub\n      dup2\n      0x00\n      dup8\n      dup1\n      extcodesize\n      iszero\n      dup1\n      iszero\n      tag_127\n      jumpi\n      0x00\n      dup1\n      revert\n    tag_127:\n      pop\n      gas\n      call\n      iszero\n      dup1\n      iszero\n      tag_129\n      jumpi\n      returndatasize\n      0x00\n      dup1\n      returndatacopy\n      revert(0x00, returndatasize)\n    tag_129:\n      pop\n      pop\n        /* \"contracts/smartContract.sol\":3215:3225  msg.sender */\n      caller\n        /* \"contracts/smartContract.sol\":3207:3226  buyInfo[msg.sender] */\n      0x00\n      dup2\n      dup2\n      mstore\n        /* \"contracts/smartContract.sol\":3207:3214  buyInfo */\n      0x05\n        /* \"contracts/smartContract.sol\":3207:3226  buyInfo[msg.sender] */\n      0x20\n      dup2\n      dup2\n      mstore\n      0x40\n      dup1\n      dup5\n      keccak256\n        /* \"contracts/smartContract.sol\":3207:3230  buyInfo[msg.sender][id] */\n      dup10\n      dup6\n      mstore\n      dup3\n      mstore\n      dup1\n      dup5\n      keccak256\n        /* \"contracts/smartContract.sol\":3207:3243  buyInfo[msg.sender][id].ownerSurplus */\n      swap1\n      swap3\n      add\n        /* \"contracts/smartContract.sol\":3207:3265  buyInfo[msg.sender][id].ownerSurplus = ownerSurplusToAdmin */\n      dup8\n      swap1\n      sstore\n        /* \"contracts/smartContract.sol\":3276:3302  getIDByAddress[msg.sender] */\n      swap3\n      dup3\n      mstore\n        /* \"contracts/smartContract.sol\":3276:3290  getIDByAddress */\n      0x06\n        /* \"contracts/smartContract.sol\":3276:3302  getIDByAddress[msg.sender] */\n      dup4\n      mstore\n      dup2\n      keccak256\n        /* \"contracts/smartContract.sol\":3276:3311  getIDByAddress[msg.sender].push(id) */\n      dup1\n      sload\n      0x01\n      dup2\n      dup2\n      add\n      dup4\n      sstore\n      swap2\n      dup4\n      mstore\n      swap3\n      swap1\n      swap2\n      keccak256\n      swap1\n      swap2\n      add\n      dup6\n      swap1\n      sstore\n        /* \"contracts/smartContract.sol\":3335:3377  (1 * ownerSurplusToAdmin).div(10000000000) */\n      tag_131\n      swap3\n      pop\n        /* \"contracts/smartContract.sol\":3365:3376  10000000000 */\n      0x02540be400\n      swap2\n      pop\n        /* \"contracts/smartContract.sol\":3336:3359  1 * ownerSurplusToAdmin */\n      tag_132\n      swap1\n        /* \"contracts/smartContract.sol\":3246:3265  ownerSurplusToAdmin */\n      dup5\n      swap1\n        /* \"contracts/smartContract.sol\":3336:3359  1 * ownerSurplusToAdmin */\n      tag_106\n      jump\t// in\n    tag_132:\n        /* \"contracts/smartContract.sol\":3335:3364  (1 * ownerSurplusToAdmin).div */\n      swap1\n      tag_116\n        /* \"contracts/smartContract.sol\":3335:3377  (1 * ownerSurplusToAdmin).div(10000000000) */\n      jump\t// in\n    tag_131:\n      pop\n        /* \"contracts/Token/utils/Ownable.sol\":1134:1141  address */\n      0x00\n        /* \"contracts/Token/utils/Ownable.sol\":1161:1167  _owner */\n      dup1\n      sload\n        /* \"contracts/smartContract.sol\":3388:3424  payable(owner()).transfer(msg.value) */\n      mload(0x40)\n      sub(shl(0xa0, 0x01), 0x01)\n        /* \"contracts/Token/utils/Ownable.sol\":1161:1167  _owner */\n      swap1\n      swap2\n      and\n      swap2\n        /* \"contracts/smartContract.sol\":3414:3423  msg.value */\n      callvalue\n        /* \"contracts/smartContract.sol\":3388:3424  payable(owner()).transfer(msg.value) */\n      dup1\n      iszero\n      0x08fc\n      mul\n      swap3\n        /* \"contracts/smartContract.sol\":3414:3423  msg.value */\n      swap1\n      swap2\n        /* \"contracts/smartContract.sol\":3388:3424  payable(owner()).transfer(msg.value) */\n      dup2\n        /* \"contracts/Token/utils/Ownable.sol\":1134:1141  address */\n      dup2\n        /* \"contracts/smartContract.sol\":3388:3424  payable(owner()).transfer(msg.value) */\n      dup2\n        /* \"contracts/smartContract.sol\":3414:3423  msg.value */\n      dup6\n        /* \"contracts/Token/utils/Ownable.sol\":1161:1167  _owner */\n      dup9\n        /* \"contracts/smartContract.sol\":3388:3424  payable(owner()).transfer(msg.value) */\n      dup9\n      call\n      swap4\n      pop\n      pop\n      pop\n      pop\n      iszero\n      dup1\n      iszero\n      tag_135\n      jumpi\n      returndatasize\n      0x00\n      dup1\n      returndatacopy\n      revert(0x00, returndatasize)\n    tag_135:\n      pop\n      pop\n        /* \"contracts/smartContract.sol\":3443:3453  msg.sender */\n      caller\n        /* \"contracts/smartContract.sol\":3435:3454  buyInfo[msg.sender] */\n      0x00\n      swap1\n      dup2\n      mstore\n        /* \"contracts/smartContract.sol\":3435:3442  buyInfo */\n      0x05\n        /* \"contracts/smartContract.sol\":3435:3454  buyInfo[msg.sender] */\n      0x20\n      swap1\n      dup2\n      mstore\n      0x40\n      dup1\n      dup4\n      keccak256\n        /* \"contracts/smartContract.sol\":3435:3458  buyInfo[msg.sender][id] */\n      swap4\n      dup4\n      mstore\n      swap3\n      swap1\n      mstore\n      keccak256\n        /* \"contracts/smartContract.sol\":3479:3488  msg.value */\n      callvalue\n        /* \"contracts/smartContract.sol\":3435:3476  buyInfo[msg.sender][id].BNBchargedByAdmin */\n      0x06\n      swap1\n      swap2\n      add\n        /* \"contracts/smartContract.sol\":3435:3488  buyInfo[msg.sender][id].BNBchargedByAdmin = msg.value */\n      sstore\n      pop\n      pop\n      pop\n        /* \"contracts/smartContract.sol\":2149:3496  function buyToken(uint256 amount) public payable {... */\n      jump\t// out\n        /* \"contracts/smartContract.sol\":1294:1415  function getIdsOfUser(address user) public view returns (uint256[] memory) {... */\n    tag_42:\n      sub(shl(0xa0, 0x01), 0x01)\n        /* \"contracts/smartContract.sol\":1387:1407  getIDByAddress[user] */\n      dup2\n      and\n      0x00\n      swap1\n      dup2\n      mstore\n        /* \"contracts/smartContract.sol\":1387:1401  getIDByAddress */\n      0x06\n        /* \"contracts/smartContract.sol\":1387:1407  getIDByAddress[user] */\n      0x20\n      swap1\n      dup2\n      mstore\n      0x40\n      swap2\n      dup3\n      swap1\n      keccak256\n        /* \"contracts/smartContract.sol\":1380:1407  return getIDByAddress[user] */\n      dup1\n      sload\n      dup4\n      mload\n      dup2\n      dup5\n      mul\n      dup2\n      add\n      dup5\n      add\n      swap1\n      swap5\n      mstore\n      dup1\n      dup5\n      mstore\n        /* \"contracts/smartContract.sol\":1351:1367  uint256[] memory */\n      0x60\n      swap4\n        /* \"contracts/smartContract.sol\":1380:1407  return getIDByAddress[user] */\n      swap3\n      dup4\n      add\n        /* \"contracts/smartContract.sol\":1387:1407  getIDByAddress[user] */\n      dup3\n        /* \"contracts/smartContract.sol\":1380:1407  return getIDByAddress[user] */\n      dup3\n      dup1\n      iszero\n      tag_137\n      jumpi\n      0x20\n      mul\n      dup3\n      add\n      swap2\n      swap1\n      0x00\n      mstore\n      keccak256(0x00, 0x20)\n      swap1\n    tag_138:\n      dup2\n      sload\n      dup2\n      mstore\n      0x20\n      add\n      swap1\n      0x01\n      add\n      swap1\n      dup1\n      dup4\n      gt\n      tag_138\n      jumpi\n    tag_137:\n      pop\n      pop\n      pop\n      pop\n      pop\n      swap1\n      pop\n        /* \"contracts/smartContract.sol\":1294:1415  function getIdsOfUser(address user) public view returns (uint256[] memory) {... */\n      swap2\n      swap1\n      pop\n      jump\t// out\n        /* \"contracts/Token/utils/Ownable.sol\":1739:1842  function renounceOwnership() public virtual onlyOwner {... */\n    tag_47:\n        /* \"contracts/Token/utils/Ownable.sol\":1134:1141  address */\n      0x00\n        /* \"contracts/Token/utils/Ownable.sol\":1161:1167  _owner */\n      sload\n      sub(shl(0xa0, 0x01), 0x01)\n      and\n        /* \"contracts/Token/utils/Context.sol\":737:747  msg.sender */\n      caller\n        /* \"contracts/Token/utils/Ownable.sol\":1308:1331  owner() == _msgSender() */\n      eq\n        /* \"contracts/Token/utils/Ownable.sol\":1300:1368  require(owner() == _msgSender(), \"Ownable: caller is not the owner\") */\n      tag_142\n      jumpi\n      mload(0x40)\n      shl(0xe5, 0x461bcd)\n      dup2\n      mstore\n      0x04\n      add\n      tag_78\n      swap1\n      tag_79\n      jump\t// in\n    tag_142:\n        /* \"contracts/Token/utils/Ownable.sol\":1804:1834  _transferOwnership(address(0)) */\n      tag_145\n        /* \"contracts/Token/utils/Ownable.sol\":1831:1832  0 */\n      0x00\n        /* \"contracts/Token/utils/Ownable.sol\":1804:1822  _transferOwnership */\n      tag_146\n        /* \"contracts/Token/utils/Ownable.sol\":1804:1834  _transferOwnership(address(0)) */\n      jump\t// in\n    tag_145:\n        /* \"contracts/Token/utils/Ownable.sol\":1739:1842  function renounceOwnership() public virtual onlyOwner {... */\n      jump\t// out\n        /* \"contracts/Token/utils/Ownable.sol\":1997:2235  function transferOwnership(address newOwner) public virtual onlyOwner {... */\n    tag_72:\n        /* \"contracts/Token/utils/Ownable.sol\":1134:1141  address */\n      0x00\n        /* \"contracts/Token/utils/Ownable.sol\":1161:1167  _owner */\n      sload\n      sub(shl(0xa0, 0x01), 0x01)\n      and\n        /* \"contracts/Token/utils/Context.sol\":737:747  msg.sender */\n      caller\n        /* \"contracts/Token/utils/Ownable.sol\":1308:1331  owner() == _msgSender() */\n      eq\n        /* \"contracts/Token/utils/Ownable.sol\":1300:1368  require(owner() == _msgSender(), \"Ownable: caller is not the owner\") */\n      tag_152\n      jumpi\n      mload(0x40)\n      shl(0xe5, 0x461bcd)\n      dup2\n      mstore\n      0x04\n      add\n      tag_78\n      swap1\n      tag_79\n      jump\t// in\n    tag_152:\n      sub(shl(0xa0, 0x01), 0x01)\n        /* \"contracts/Token/utils/Ownable.sol\":2100:2122  newOwner != address(0) */\n      dup2\n      and\n        /* \"contracts/Token/utils/Ownable.sol\":2078:2188  require(... */\n      tag_155\n      jumpi\n      mload(0x40)\n      shl(0xe5, 0x461bcd)\n      dup2\n      mstore\n        /* \"#utility.yul\":6295:6297   */\n      0x20\n        /* \"contracts/Token/utils/Ownable.sol\":2078:2188  require(... */\n      0x04\n      dup3\n      add\n        /* \"#utility.yul\":6277:6298   */\n      mstore\n        /* \"#utility.yul\":6334:6336   */\n      0x26\n        /* \"#utility.yul\":6314:6332   */\n      0x24\n      dup3\n      add\n        /* \"#utility.yul\":6307:6337   */\n      mstore\n        /* \"#utility.yul\":6373:6407   */\n      0x4f776e61626c653a206e6577206f776e657220697320746865207a65726f2061\n        /* \"#utility.yul\":6353:6371   */\n      0x44\n      dup3\n      add\n        /* \"#utility.yul\":6346:6408   */\n      mstore\n      shl(0xd0, 0x646472657373)\n        /* \"#utility.yul\":6424:6442   */\n      0x64\n      dup3\n      add\n        /* \"#utility.yul\":6417:6453   */\n      mstore\n        /* \"#utility.yul\":6470:6489   */\n      0x84\n      add\n        /* \"contracts/Token/utils/Ownable.sol\":2078:2188  require(... */\n      tag_78\n        /* \"#utility.yul\":6093:6495   */\n      jump\n        /* \"contracts/Token/utils/Ownable.sol\":2078:2188  require(... */\n    tag_155:\n        /* \"contracts/Token/utils/Ownable.sol\":2199:2227  _transferOwnership(newOwner) */\n      tag_158\n        /* \"contracts/Token/utils/Ownable.sol\":2218:2226  newOwner */\n      dup2\n        /* \"contracts/Token/utils/Ownable.sol\":2199:2217  _transferOwnership */\n      tag_146\n        /* \"contracts/Token/utils/Ownable.sol\":2199:2227  _transferOwnership(newOwner) */\n      jump\t// in\n    tag_158:\n        /* \"contracts/Token/utils/Ownable.sol\":1997:2235  function transferOwnership(address newOwner) public virtual onlyOwner {... */\n      pop\n      jump\t// out\n        /* \"contracts/Token/utils/SafeMath.sol\":3374:3472  function sub(uint256 a, uint256 b) internal pure returns (uint256) {... */\n    tag_110:\n        /* \"contracts/Token/utils/SafeMath.sol\":3432:3439  uint256 */\n      0x00\n        /* \"contracts/Token/utils/SafeMath.sol\":3459:3464  a - b */\n      tag_161\n        /* \"contracts/Token/utils/SafeMath.sol\":3463:3464  b */\n      dup3\n        /* \"contracts/Token/utils/SafeMath.sol\":3459:3460  a */\n      dup5\n        /* \"contracts/Token/utils/SafeMath.sol\":3459:3464  a - b */\n      tag_162\n      jump\t// in\n    tag_161:\n        /* \"contracts/Token/utils/SafeMath.sol\":3452:3464  return a - b */\n      swap4\n        /* \"contracts/Token/utils/SafeMath.sol\":3374:3472  function sub(uint256 a, uint256 b) internal pure returns (uint256) {... */\n      swap3\n      pop\n      pop\n      pop\n      jump\t// out\n        /* \"contracts/Token/utils/SafeMath.sol\":4130:4228  function div(uint256 a, uint256 b) internal pure returns (uint256) {... */\n    tag_116:\n        /* \"contracts/Token/utils/SafeMath.sol\":4188:4195  uint256 */\n      0x00\n        /* \"contracts/Token/utils/SafeMath.sol\":4215:4220  a / b */\n      tag_161\n        /* \"contracts/Token/utils/SafeMath.sol\":4219:4220  b */\n      dup3\n        /* \"contracts/Token/utils/SafeMath.sol\":4215:4216  a */\n      dup5\n        /* \"contracts/Token/utils/SafeMath.sol\":4215:4220  a / b */\n      tag_108\n      jump\t// in\n        /* \"contracts/Token/utils/Ownable.sol\":2395:2586  function _transferOwnership(address newOwner) internal virtual {... */\n    tag_146:\n        /* \"contracts/Token/utils/Ownable.sol\":2469:2485  address oldOwner */\n      0x00\n        /* \"contracts/Token/utils/Ownable.sol\":2488:2494  _owner */\n      dup1\n      sload\n      sub(shl(0xa0, 0x01), 0x01)\n        /* \"contracts/Token/utils/Ownable.sol\":2505:2522  _owner = newOwner */\n      dup4\n      dup2\n      and\n      not(sub(shl(0xa0, 0x01), 0x01))\n      dup4\n      and\n      dup2\n      or\n      dup5\n      sstore\n        /* \"contracts/Token/utils/Ownable.sol\":2538:2578  OwnershipTransferred(oldOwner, newOwner) */\n      mload(0x40)\n        /* \"contracts/Token/utils/Ownable.sol\":2488:2494  _owner */\n      swap2\n      swap1\n      swap3\n      and\n      swap3\n      dup4\n      swap2\n        /* \"contracts/Token/utils/Ownable.sol\":2538:2578  OwnershipTransferred(oldOwner, newOwner) */\n      0x8be0079c531659141344cd1fd0a4f28419497f9722a3daafe3b4186f6b6457e0\n      swap2\n        /* \"contracts/Token/utils/Ownable.sol\":2469:2485  address oldOwner */\n      swap1\n        /* \"contracts/Token/utils/Ownable.sol\":2538:2578  OwnershipTransferred(oldOwner, newOwner) */\n      log3\n        /* \"contracts/Token/utils/Ownable.sol\":2458:2586  {... */\n      pop\n        /* \"contracts/Token/utils/Ownable.sol\":2395:2586  function _transferOwnership(address newOwner) internal virtual {... */\n      pop\n      jump\t// out\n        /* \"#utility.yul\":206:344   */\n    tag_166:\n      sub(shl(0xa0, 0x01), 0x01)\n        /* \"#utility.yul\":288:319   */\n      dup2\n      and\n        /* \"#utility.yul\":278:320   */\n      dup2\n      eq\n        /* \"#utility.yul\":268:338   */\n      tag_158\n      jumpi\n        /* \"#utility.yul\":334:335   */\n      0x00\n        /* \"#utility.yul\":331:332   */\n      dup1\n        /* \"#utility.yul\":324:336   */\n      revert\n        /* \"#utility.yul\":349:832   */\n    tag_23:\n        /* \"#utility.yul\":439:445   */\n      0x00\n        /* \"#utility.yul\":447:453   */\n      dup1\n        /* \"#utility.yul\":455:461   */\n      0x00\n        /* \"#utility.yul\":508:510   */\n      0x60\n        /* \"#utility.yul\":496:505   */\n      dup5\n        /* \"#utility.yul\":487:494   */\n      dup7\n        /* \"#utility.yul\":483:506   */\n      sub\n        /* \"#utility.yul\":479:511   */\n      slt\n        /* \"#utility.yul\":476:528   */\n      iszero\n      tag_173\n      jumpi\n        /* \"#utility.yul\":524:525   */\n      0x00\n        /* \"#utility.yul\":521:522   */\n      dup1\n        /* \"#utility.yul\":514:526   */\n      revert\n        /* \"#utility.yul\":476:528   */\n    tag_173:\n        /* \"#utility.yul\":563:572   */\n      dup4\n        /* \"#utility.yul\":550:573   */\n      calldataload\n        /* \"#utility.yul\":582:620   */\n      tag_174\n        /* \"#utility.yul\":614:619   */\n      dup2\n        /* \"#utility.yul\":582:620   */\n      tag_166\n      jump\t// in\n    tag_174:\n        /* \"#utility.yul\":639:644   */\n      swap3\n      pop\n        /* \"#utility.yul\":696:698   */\n      0x20\n        /* \"#utility.yul\":681:699   */\n      dup5\n      add\n        /* \"#utility.yul\":668:700   */\n      calldataload\n        /* \"#utility.yul\":709:749   */\n      tag_175\n        /* \"#utility.yul\":668:700   */\n      dup2\n        /* \"#utility.yul\":709:749   */\n      tag_166\n      jump\t// in\n    tag_175:\n        /* \"#utility.yul\":349:832   */\n      swap3\n      swap6\n        /* \"#utility.yul\":768:775   */\n      swap3\n      swap5\n      pop\n      pop\n      pop\n        /* \"#utility.yul\":822:824   */\n      0x40\n        /* \"#utility.yul\":807:825   */\n      swap2\n      swap1\n      swap2\n      add\n        /* \"#utility.yul\":794:826   */\n      calldataload\n      swap1\n        /* \"#utility.yul\":349:832   */\n      jump\t// out\n        /* \"#utility.yul\":1045:1299   */\n    tag_33:\n        /* \"#utility.yul\":1104:1110   */\n      0x00\n        /* \"#utility.yul\":1157:1159   */\n      0x20\n        /* \"#utility.yul\":1145:1154   */\n      dup3\n        /* \"#utility.yul\":1136:1143   */\n      dup5\n        /* \"#utility.yul\":1132:1155   */\n      sub\n        /* \"#utility.yul\":1128:1160   */\n      slt\n        /* \"#utility.yul\":1125:1177   */\n      iszero\n      tag_178\n      jumpi\n        /* \"#utility.yul\":1173:1174   */\n      0x00\n        /* \"#utility.yul\":1170:1171   */\n      dup1\n        /* \"#utility.yul\":1163:1175   */\n      revert\n        /* \"#utility.yul\":1125:1177   */\n    tag_178:\n        /* \"#utility.yul\":1212:1221   */\n      dup2\n        /* \"#utility.yul\":1199:1222   */\n      calldataload\n        /* \"#utility.yul\":1231:1269   */\n      tag_161\n        /* \"#utility.yul\":1263:1268   */\n      dup2\n        /* \"#utility.yul\":1231:1269   */\n      tag_166\n      jump\t// in\n        /* \"#utility.yul\":1304:1484   */\n    tag_37:\n        /* \"#utility.yul\":1363:1369   */\n      0x00\n        /* \"#utility.yul\":1416:1418   */\n      0x20\n        /* \"#utility.yul\":1404:1413   */\n      dup3\n        /* \"#utility.yul\":1395:1402   */\n      dup5\n        /* \"#utility.yul\":1391:1414   */\n      sub\n        /* \"#utility.yul\":1387:1419   */\n      slt\n        /* \"#utility.yul\":1384:1436   */\n      iszero\n      tag_181\n      jumpi\n        /* \"#utility.yul\":1432:1433   */\n      0x00\n        /* \"#utility.yul\":1429:1430   */\n      dup1\n        /* \"#utility.yul\":1422:1434   */\n      revert\n        /* \"#utility.yul\":1384:1436   */\n    tag_181:\n      pop\n        /* \"#utility.yul\":1455:1478   */\n      calldataload\n      swap2\n        /* \"#utility.yul\":1304:1484   */\n      swap1\n      pop\n      jump\t// out\n        /* \"#utility.yul\":1489:2121   */\n    tag_44:\n        /* \"#utility.yul\":1660:1662   */\n      0x20\n        /* \"#utility.yul\":1712:1733   */\n      dup1\n      dup3\n      mstore\n        /* \"#utility.yul\":1782:1795   */\n      dup3\n      mload\n        /* \"#utility.yul\":1685:1703   */\n      dup3\n      dup3\n      add\n        /* \"#utility.yul\":1804:1826   */\n      dup2\n      swap1\n      mstore\n        /* \"#utility.yul\":1631:1635   */\n      0x00\n      swap2\n        /* \"#utility.yul\":1660:1662   */\n      swap1\n        /* \"#utility.yul\":1883:1898   */\n      dup5\n      dup3\n      add\n      swap1\n        /* \"#utility.yul\":1857:1859   */\n      0x40\n        /* \"#utility.yul\":1842:1860   */\n      dup6\n      add\n      swap1\n        /* \"#utility.yul\":1631:1635   */\n      dup5\n        /* \"#utility.yul\":1926:2095   */\n    tag_183:\n        /* \"#utility.yul\":1940:1946   */\n      dup2\n        /* \"#utility.yul\":1937:1938   */\n      dup2\n        /* \"#utility.yul\":1934:1947   */\n      lt\n        /* \"#utility.yul\":1926:2095   */\n      iszero\n      tag_185\n      jumpi\n        /* \"#utility.yul\":2001:2014   */\n      dup4\n      mload\n        /* \"#utility.yul\":1989:2015   */\n      dup4\n      mstore\n        /* \"#utility.yul\":2070:2085   */\n      swap3\n      dup5\n      add\n      swap3\n        /* \"#utility.yul\":2035:2047   */\n      swap2\n      dup5\n      add\n      swap2\n        /* \"#utility.yul\":1962:1963   */\n      0x01\n        /* \"#utility.yul\":1955:1964   */\n      add\n        /* \"#utility.yul\":1926:2095   */\n      jump(tag_183)\n    tag_185:\n      pop\n        /* \"#utility.yul\":2112:2115   */\n      swap1\n      swap7\n        /* \"#utility.yul\":1489:2121   */\n      swap6\n      pop\n      pop\n      pop\n      pop\n      pop\n      pop\n      jump\t// out\n        /* \"#utility.yul\":2126:2448   */\n    tag_51:\n        /* \"#utility.yul\":2194:2200   */\n      0x00\n        /* \"#utility.yul\":2202:2208   */\n      dup1\n        /* \"#utility.yul\":2255:2257   */\n      0x40\n        /* \"#utility.yul\":2243:2252   */\n      dup4\n        /* \"#utility.yul\":2234:2241   */\n      dup6\n        /* \"#utility.yul\":2230:2253   */\n      sub\n        /* \"#utility.yul\":2226:2258   */\n      slt\n        /* \"#utility.yul\":2223:2275   */\n      iszero\n      tag_187\n      jumpi\n        /* \"#utility.yul\":2271:2272   */\n      0x00\n        /* \"#utility.yul\":2268:2269   */\n      dup1\n        /* \"#utility.yul\":2261:2273   */\n      revert\n        /* \"#utility.yul\":2223:2275   */\n    tag_187:\n        /* \"#utility.yul\":2310:2319   */\n      dup3\n        /* \"#utility.yul\":2297:2320   */\n      calldataload\n        /* \"#utility.yul\":2329:2367   */\n      tag_188\n        /* \"#utility.yul\":2361:2366   */\n      dup2\n        /* \"#utility.yul\":2329:2367   */\n      tag_166\n      jump\t// in\n    tag_188:\n        /* \"#utility.yul\":2386:2391   */\n      swap5\n        /* \"#utility.yul\":2438:2440   */\n      0x20\n        /* \"#utility.yul\":2423:2441   */\n      swap4\n      swap1\n      swap4\n      add\n        /* \"#utility.yul\":2410:2442   */\n      calldataload\n      swap4\n      pop\n      pop\n      pop\n        /* \"#utility.yul\":2126:2448   */\n      jump\t// out\n        /* \"#utility.yul\":3468:3824   */\n    tag_79:\n        /* \"#utility.yul\":3670:3672   */\n      0x20\n        /* \"#utility.yul\":3652:3673   */\n      dup1\n      dup3\n      mstore\n        /* \"#utility.yul\":3689:3707   */\n      dup2\n      dup2\n      add\n        /* \"#utility.yul\":3682:3712   */\n      mstore\n        /* \"#utility.yul\":3748:3782   */\n      0x4f776e61626c653a2063616c6c6572206973206e6f7420746865206f776e6572\n        /* \"#utility.yul\":3743:3745   */\n      0x40\n        /* \"#utility.yul\":3728:3746   */\n      dup3\n      add\n        /* \"#utility.yul\":3721:3783   */\n      mstore\n        /* \"#utility.yul\":3815:3817   */\n      0x60\n        /* \"#utility.yul\":3800:3818   */\n      add\n      swap1\n        /* \"#utility.yul\":3468:3824   */\n      jump\t// out\n        /* \"#utility.yul\":4557:4741   */\n    tag_101:\n        /* \"#utility.yul\":4627:4633   */\n      0x00\n        /* \"#utility.yul\":4680:4682   */\n      0x20\n        /* \"#utility.yul\":4668:4677   */\n      dup3\n        /* \"#utility.yul\":4659:4666   */\n      dup5\n        /* \"#utility.yul\":4655:4678   */\n      sub\n        /* \"#utility.yul\":4651:4683   */\n      slt\n        /* \"#utility.yul\":4648:4700   */\n      iszero\n      tag_196\n      jumpi\n        /* \"#utility.yul\":4696:4697   */\n      0x00\n        /* \"#utility.yul\":4693:4694   */\n      dup1\n        /* \"#utility.yul\":4686:4698   */\n      revert\n        /* \"#utility.yul\":4648:4700   */\n    tag_196:\n      pop\n        /* \"#utility.yul\":4719:4735   */\n      mload\n      swap2\n        /* \"#utility.yul\":4557:4741   */\n      swap1\n      pop\n      jump\t// out\n        /* \"#utility.yul\":5156:5283   */\n    tag_167:\n        /* \"#utility.yul\":5217:5227   */\n      0x4e487b71\n        /* \"#utility.yul\":5212:5215   */\n      0xe0\n        /* \"#utility.yul\":5208:5228   */\n      shl\n        /* \"#utility.yul\":5205:5206   */\n      0x00\n        /* \"#utility.yul\":5198:5229   */\n      mstore\n        /* \"#utility.yul\":5248:5252   */\n      0x11\n        /* \"#utility.yul\":5245:5246   */\n      0x04\n        /* \"#utility.yul\":5238:5253   */\n      mstore\n        /* \"#utility.yul\":5272:5276   */\n      0x24\n        /* \"#utility.yul\":5269:5270   */\n      0x00\n        /* \"#utility.yul\":5262:5277   */\n      revert\n        /* \"#utility.yul\":5288:5456   */\n    tag_106:\n        /* \"#utility.yul\":5328:5335   */\n      0x00\n        /* \"#utility.yul\":5394:5395   */\n      dup2\n        /* \"#utility.yul\":5390:5391   */\n      0x00\n        /* \"#utility.yul\":5386:5392   */\n      not\n        /* \"#utility.yul\":5382:5396   */\n      div\n        /* \"#utility.yul\":5379:5380   */\n      dup4\n        /* \"#utility.yul\":5376:5397   */\n      gt\n        /* \"#utility.yul\":5371:5372   */\n      dup3\n        /* \"#utility.yul\":5364:5373   */\n      iszero\n        /* \"#utility.yul\":5357:5374   */\n      iszero\n        /* \"#utility.yul\":5353:5398   */\n      and\n        /* \"#utility.yul\":5350:5421   */\n      iszero\n      tag_201\n      jumpi\n        /* \"#utility.yul\":5401:5419   */\n      tag_201\n      tag_167\n      jump\t// in\n    tag_201:\n      pop\n        /* \"#utility.yul\":5441:5450   */\n      mul\n      swap1\n        /* \"#utility.yul\":5288:5456   */\n      jump\t// out\n        /* \"#utility.yul\":5461:5678   */\n    tag_108:\n        /* \"#utility.yul\":5501:5502   */\n      0x00\n        /* \"#utility.yul\":5527:5528   */\n      dup3\n        /* \"#utility.yul\":5517:5649   */\n      tag_203\n      jumpi\n        /* \"#utility.yul\":5571:5581   */\n      0x4e487b71\n        /* \"#utility.yul\":5566:5569   */\n      0xe0\n        /* \"#utility.yul\":5562:5582   */\n      shl\n        /* \"#utility.yul\":5559:5560   */\n      0x00\n        /* \"#utility.yul\":5552:5583   */\n      mstore\n        /* \"#utility.yul\":5606:5610   */\n      0x12\n        /* \"#utility.yul\":5603:5604   */\n      0x04\n        /* \"#utility.yul\":5596:5611   */\n      mstore\n        /* \"#utility.yul\":5634:5638   */\n      0x24\n        /* \"#utility.yul\":5631:5632   */\n      0x00\n        /* \"#utility.yul\":5624:5639   */\n      revert\n        /* \"#utility.yul\":5517:5649   */\n    tag_203:\n      pop\n        /* \"#utility.yul\":5663:5672   */\n      div\n      swap1\n        /* \"#utility.yul\":5461:5678   */\n      jump\t// out\n        /* \"#utility.yul\":6500:6625   */\n    tag_162:\n        /* \"#utility.yul\":6540:6544   */\n      0x00\n        /* \"#utility.yul\":6568:6569   */\n      dup3\n        /* \"#utility.yul\":6565:6566   */\n      dup3\n        /* \"#utility.yul\":6562:6570   */\n      lt\n        /* \"#utility.yul\":6559:6593   */\n      iszero\n      tag_208\n      jumpi\n        /* \"#utility.yul\":6573:6591   */\n      tag_208\n      tag_167\n      jump\t// in\n    tag_208:\n      pop\n        /* \"#utility.yul\":6610:6619   */\n      sub\n      swap1\n        /* \"#utility.yul\":6500:6625   */\n      jump\t// out\n\n    auxdata: 0xa2646970667358221220c0fe270d58a4e9a40f51e14027626a78aba5accb9a36572e5a638cd96e243a5364736f6c634300080d0033\n}\n",
				"bytecode": {
					"linkReferences": {},
					"object": "608060405234801561001057600080fd5b5061001a3361001f565b61006f565b600080546001600160a01b038381166001600160a01b0319831681178455604051919092169283917f8be0079c531659141344cd1fd0a4f28419497f9722a3daafe3b4186f6b6457e09190a35050565b610bd88061007e6000396000f3fe6080604052600436106100a75760003560e01c8063715018a611610064578063715018a6146101955780638637856d146101aa5780638da5cb5b14610240578063a77b2e371461025e578063af0afec91461027e578063f2fde38b1461029c57600080fd5b8063158ef93e146100ac5780631794bb3c146100db57806328f661e3146100fd5780632c1e816d146101355780632d296bf1146101555780635f4fd1f714610168575b600080fd5b3480156100b857600080fd5b506004546100c69060ff1681565b60405190151581526020015b60405180910390f35b3480156100e757600080fd5b506100fb6100f63660046109ff565b6102bc565b005b34801561010957600080fd5b5060015461011d906001600160a01b031681565b6040516001600160a01b0390911681526020016100d2565b34801561014157600080fd5b506100fb610150366004610a40565b6103fb565b6100fb610163366004610a5d565b610447565b34801561017457600080fd5b50610188610183366004610a40565b61083e565b6040516100d29190610a76565b3480156101a157600080fd5b506100fb6108aa565b3480156101b657600080fd5b5061020b6101c5366004610aba565b6005602081815260009384526040808520909152918352912080546001820154600283015460038401546004850154958501546006909501549395929491939092919087565b604080519788526020880196909652948601939093526060850191909152608084015260a083015260c082015260e0016100d2565b34801561024c57600080fd5b506000546001600160a01b031661011d565b34801561026a57600080fd5b5060025461011d906001600160a01b031681565b34801561028a57600080fd5b506003546040519081526020016100d2565b3480156102a857600080fd5b506100fb6102b7366004610a40565b6108e0565b6000546001600160a01b031633146102ef5760405162461bcd60e51b81526004016102e690610ae6565b60405180910390fd5b60045460ff16151560010361033c5760405162461bcd60e51b8152602060048201526013602482015272105b1c9958591e48125b9a5d1a585b1a5e9959606a1b60448201526064016102e6565b600280546001600160a01b038086166001600160a01b03199283168117909355600180549186169190921617905563b45ee9ef6103816000546001600160a01b031690565b6040516001600160e01b031960e084901b1681526001600160a01b039182166004820152908516602482015260448101849052606401600060405180830381600087803b1580156103d157600080fd5b505af11580156103e5573d6000803e3d6000fd5b50506004805460ff191660011790555050505050565b6000546001600160a01b031633146104255760405162461bcd60e51b81526004016102e690610ae6565b600180546001600160a01b0319166001600160a01b0392909216919091179055565b60025460015460405163e3d670d760e01b81526001600160a01b0391821660048201528392919091169063e3d670d790602401602060405180830381865afa158015610497573d6000803e3d6000fd5b505050506040513d601f19601f820116820180604052508101906104bb9190610b1b565b1161051a5760405162461bcd60e51b815260206004820152602960248201527f4572726f723a2041646d696e20646f6573206e6f74206861766520656e6f7567604482015268682062616c616e636560b81b60648201526084016102e6565b60006064610529836001610b4a565b6105339190610b69565b90506000610541838361097b565b60025460015460405163b45ee9ef60e01b81526001600160a01b03918216600482015233602482015260448101849052929350169063b45ee9ef90606401600060405180830381600087803b15801561059957600080fd5b505af11580156105ad573d6000803e3d6000fd5b50506003805460019081018083553360009081526005602090815260408083208484529091528120828155429381019390935560028084018a905593830188905560049092018690559350915061060590849061098e565b60025490915081906001600160a01b031663e3d670d761062d6000546001600160a01b031690565b6040516001600160e01b031960e084901b1681526001600160a01b039091166004820152602401602060405180830381865afa158015610671573d6000803e3d6000fd5b505050506040513d601f19601f820116820180604052508101906106959190610b1b565b116106f45760405162461bcd60e51b815260206004820152602960248201527f4572726f723a204f776e657220646f6573206e6f74206861766520656e6f7567604482015268682062616c616e636560b81b60648201526084016102e6565b6002546001600160a01b031663b45ee9ef6107176000546001600160a01b031690565b60015460405160e084901b6001600160e01b03191681526001600160a01b0392831660048201529116602482015260448101849052606401600060405180830381600087803b15801561076957600080fd5b505af115801561077d573d6000803e3d6000fd5b50503360008181526005602081815260408084208985528252808420909201879055928252600683528120805460018181018355918352929091209091018590556107dc92506402540be40091506107d6908490610b4a565b9061098e565b50600080546040516001600160a01b03909116913480156108fc02929091818181858888f19350505050158015610817573d6000803e3d6000fd5b50503360009081526005602090815260408083209383529290522034600690910155505050565b6001600160a01b03811660009081526006602090815260409182902080548351818402810184019094528084526060939283018282801561089e57602002820191906000526020600020905b81548152602001906001019080831161088a575b50505050509050919050565b6000546001600160a01b031633146108d45760405162461bcd60e51b81526004016102e690610ae6565b6108de600061099a565b565b6000546001600160a01b0316331461090a5760405162461bcd60e51b81526004016102e690610ae6565b6001600160a01b03811661096f5760405162461bcd60e51b815260206004820152602660248201527f4f776e61626c653a206e6577206f776e657220697320746865207a65726f206160448201526564647265737360d01b60648201526084016102e6565b6109788161099a565b50565b60006109878284610b8b565b9392505050565b60006109878284610b69565b600080546001600160a01b038381166001600160a01b0319831681178455604051919092169283917f8be0079c531659141344cd1fd0a4f28419497f9722a3daafe3b4186f6b6457e09190a35050565b6001600160a01b038116811461097857600080fd5b600080600060608486031215610a1457600080fd5b8335610a1f816109ea565b92506020840135610a2f816109ea565b929592945050506040919091013590565b600060208284031215610a5257600080fd5b8135610987816109ea565b600060208284031215610a6f57600080fd5b5035919050565b6020808252825182820181905260009190848201906040850190845b81811015610aae57835183529284019291840191600101610a92565b50909695505050505050565b60008060408385031215610acd57600080fd5b8235610ad8816109ea565b946020939093013593505050565b6020808252818101527f4f776e61626c653a2063616c6c6572206973206e6f7420746865206f776e6572604082015260600190565b600060208284031215610b2d57600080fd5b5051919050565b634e487b7160e01b600052601160045260246000fd5b6000816000190483118215151615610b6457610b64610b34565b500290565b600082610b8657634e487b7160e01b600052601260045260246000fd5b500490565b600082821015610b9d57610b9d610b34565b50039056fea2646970667358221220c0fe270d58a4e9a40f51e14027626a78aba5accb9a36572e5a638cd96e243a5364736f6c634300080d0033",
					"opcodes": "PUSH1 0x80 PUSH1 0x40 MSTORE CALLVALUE DUP1 ISZERO PUSH2 0x10 JUMPI PUSH1 0x0 DUP1 REVERT JUMPDEST POP PUSH2 0x1A CALLER PUSH2 0x1F JUMP JUMPDEST PUSH2 0x6F JUMP JUMPDEST PUSH1 0x0 DUP1 SLOAD PUSH1 0x1 PUSH1 0x1 PUSH1 0xA0 SHL SUB DUP4 DUP2 AND PUSH1 0x1 PUSH1 0x1 PUSH1 0xA0 SHL SUB NOT DUP4 AND DUP2 OR DUP5 SSTORE PUSH1 0x40 MLOAD SWAP2 SWAP1 SWAP3 AND SWAP3 DUP4 SWAP2 PUSH32 0x8BE0079C531659141344CD1FD0A4F28419497F9722A3DAAFE3B4186F6B6457E0 SWAP2 SWAP1 LOG3 POP POP JUMP JUMPDEST PUSH2 0xBD8 DUP1 PUSH2 0x7E PUSH1 0x0 CODECOPY PUSH1 0x0 RETURN INVALID PUSH1 0x80 PUSH1 0x40 MSTORE PUSH1 0x4 CALLDATASIZE LT PUSH2 0xA7 JUMPI PUSH1 0x0 CALLDATALOAD PUSH1 0xE0 SHR DUP1 PUSH4 0x715018A6 GT PUSH2 0x64 JUMPI DUP1 PUSH4 0x715018A6 EQ PUSH2 0x195 JUMPI DUP1 PUSH4 0x8637856D EQ PUSH2 0x1AA JUMPI DUP1 PUSH4 0x8DA5CB5B EQ PUSH2 0x240 JUMPI DUP1 PUSH4 0xA77B2E37 EQ PUSH2 0x25E JUMPI DUP1 PUSH4 0xAF0AFEC9 EQ PUSH2 0x27E JUMPI DUP1 PUSH4 0xF2FDE38B EQ PUSH2 0x29C JUMPI PUSH1 0x0 DUP1 REVERT JUMPDEST DUP1 PUSH4 0x158EF93E EQ PUSH2 0xAC JUMPI DUP1 PUSH4 0x1794BB3C EQ PUSH2 0xDB JUMPI DUP1 PUSH4 0x28F661E3 EQ PUSH2 0xFD JUMPI DUP1 PUSH4 0x2C1E816D EQ PUSH2 0x135 JUMPI DUP1 PUSH4 0x2D296BF1 EQ PUSH2 0x155 JUMPI DUP1 PUSH4 0x5F4FD1F7 EQ PUSH2 0x168 JUMPI JUMPDEST PUSH1 0x0 DUP1 REVERT JUMPDEST CALLVALUE DUP1 ISZERO PUSH2 0xB8 JUMPI PUSH1 0x0 DUP1 REVERT JUMPDEST POP PUSH1 0x4 SLOAD PUSH2 0xC6 SWAP1 PUSH1 0xFF AND DUP2 JUMP JUMPDEST PUSH1 0x40 MLOAD SWAP1 ISZERO ISZERO DUP2 MSTORE PUSH1 0x20 ADD JUMPDEST PUSH1 0x40 MLOAD DUP1 SWAP2 SUB SWAP1 RETURN JUMPDEST CALLVALUE DUP1 ISZERO PUSH2 0xE7 JUMPI PUSH1 0x0 DUP1 REVERT JUMPDEST POP PUSH2 0xFB PUSH2 0xF6 CALLDATASIZE PUSH1 0x4 PUSH2 0x9FF JUMP JUMPDEST PUSH2 0x2BC JUMP JUMPDEST STOP JUMPDEST CALLVALUE DUP1 ISZERO PUSH2 0x109 JUMPI PUSH1 0x0 DUP1 REVERT JUMPDEST POP PUSH1 0x1 SLOAD PUSH2 0x11D SWAP1 PUSH1 0x1 PUSH1 0x1 PUSH1 0xA0 SHL SUB AND DUP2 JUMP JUMPDEST PUSH1 0x40 MLOAD PUSH1 0x1 PUSH1 0x1 PUSH1 0xA0 SHL SUB SWAP1 SWAP2 AND DUP2 MSTORE PUSH1 0x20 ADD PUSH2 0xD2 JUMP JUMPDEST CALLVALUE DUP1 ISZERO PUSH2 0x141 JUMPI PUSH1 0x0 DUP1 REVERT JUMPDEST POP PUSH2 0xFB PUSH2 0x150 CALLDATASIZE PUSH1 0x4 PUSH2 0xA40 JUMP JUMPDEST PUSH2 0x3FB JUMP JUMPDEST PUSH2 0xFB PUSH2 0x163 CALLDATASIZE PUSH1 0x4 PUSH2 0xA5D JUMP JUMPDEST PUSH2 0x447 JUMP JUMPDEST CALLVALUE DUP1 ISZERO PUSH2 0x174 JUMPI PUSH1 0x0 DUP1 REVERT JUMPDEST POP PUSH2 0x188 PUSH2 0x183 CALLDATASIZE PUSH1 0x4 PUSH2 0xA40 JUMP JUMPDEST PUSH2 0x83E JUMP JUMPDEST PUSH1 0x40 MLOAD PUSH2 0xD2 SWAP2 SWAP1 PUSH2 0xA76 JUMP JUMPDEST CALLVALUE DUP1 ISZERO PUSH2 0x1A1 JUMPI PUSH1 0x0 DUP1 REVERT JUMPDEST POP PUSH2 0xFB PUSH2 0x8AA JUMP JUMPDEST CALLVALUE DUP1 ISZERO PUSH2 0x1B6 JUMPI PUSH1 0x0 DUP1 REVERT JUMPDEST POP PUSH2 0x20B PUSH2 0x1C5 CALLDATASIZE PUSH1 0x4 PUSH2 0xABA JUMP JUMPDEST PUSH1 0x5 PUSH1 0x20 DUP2 DUP2 MSTORE PUSH1 0x0 SWAP4 DUP5 MSTORE PUSH1 0x40 DUP1 DUP6 KECCAK256 SWAP1 SWAP2 MSTORE SWAP2 DUP4 MSTORE SWAP2 KECCAK256 DUP1 SLOAD PUSH1 0x1 DUP3 ADD SLOAD PUSH1 0x2 DUP4 ADD SLOAD PUSH1 0x3 DUP5 ADD SLOAD PUSH1 0x4 DUP6 ADD SLOAD SWAP6 DUP6 ADD SLOAD PUSH1 0x6 SWAP1 SWAP6 ADD SLOAD SWAP4 SWAP6 SWAP3 SWAP5 SWAP2 SWAP4 SWAP1 SWAP3 SWAP2 SWAP1 DUP8 JUMP JUMPDEST PUSH1 0x40 DUP1 MLOAD SWAP8 DUP9 MSTORE PUSH1 0x20 DUP9 ADD SWAP7 SWAP1 SWAP7 MSTORE SWAP5 DUP7 ADD SWAP4 SWAP1 SWAP4 MSTORE PUSH1 0x60 DUP6 ADD SWAP2 SWAP1 SWAP2 MSTORE PUSH1 0x80 DUP5 ADD MSTORE PUSH1 0xA0 DUP4 ADD MSTORE PUSH1 0xC0 DUP3 ADD MSTORE PUSH1 0xE0 ADD PUSH2 0xD2 JUMP JUMPDEST CALLVALUE DUP1 ISZERO PUSH2 0x24C JUMPI PUSH1 0x0 DUP1 REVERT JUMPDEST POP PUSH1 0x0 SLOAD PUSH1 0x1 PUSH1 0x1 PUSH1 0xA0 SHL SUB AND PUSH2 0x11D JUMP JUMPDEST CALLVALUE DUP1 ISZERO PUSH2 0x26A JUMPI PUSH1 0x0 DUP1 REVERT JUMPDEST POP PUSH1 0x2 SLOAD PUSH2 0x11D SWAP1 PUSH1 0x1 PUSH1 0x1 PUSH1 0xA0 SHL SUB AND DUP2 JUMP JUMPDEST CALLVALUE DUP1 ISZERO PUSH2 0x28A JUMPI PUSH1 0x0 DUP1 REVERT JUMPDEST POP PUSH1 0x3 SLOAD PUSH1 0x40 MLOAD SWAP1 DUP2 MSTORE PUSH1 0x20 ADD PUSH2 0xD2 JUMP JUMPDEST CALLVALUE DUP1 ISZERO PUSH2 0x2A8 JUMPI PUSH1 0x0 DUP1 REVERT JUMPDEST POP PUSH2 0xFB PUSH2 0x2B7 CALLDATASIZE PUSH1 0x4 PUSH2 0xA40 JUMP JUMPDEST PUSH2 0x8E0 JUMP JUMPDEST PUSH1 0x0 SLOAD PUSH1 0x1 PUSH1 0x1 PUSH1 0xA0 SHL SUB AND CALLER EQ PUSH2 0x2EF JUMPI PUSH1 0x40 MLOAD PUSH3 0x461BCD PUSH1 0xE5 SHL DUP2 MSTORE PUSH1 0x4 ADD PUSH2 0x2E6 SWAP1 PUSH2 0xAE6 JUMP JUMPDEST PUSH1 0x40 MLOAD DUP1 SWAP2 SUB SWAP1 REVERT JUMPDEST PUSH1 0x4 SLOAD PUSH1 0xFF AND ISZERO ISZERO PUSH1 0x1 SUB PUSH2 0x33C JUMPI PUSH1 0x40 MLOAD PUSH3 0x461BCD PUSH1 0xE5 SHL DUP2 MSTORE PUSH1 0x20 PUSH1 0x4 DUP3 ADD MSTORE PUSH1 0x13 PUSH1 0x24 DUP3 ADD MSTORE PUSH19 0x105B1C9958591E48125B9A5D1A585B1A5E9959 PUSH1 0x6A SHL PUSH1 0x44 DUP3 ADD MSTORE PUSH1 0x64 ADD PUSH2 0x2E6 JUMP JUMPDEST PUSH1 0x2 DUP1 SLOAD PUSH1 0x1 PUSH1 0x1 PUSH1 0xA0 SHL SUB DUP1 DUP7 AND PUSH1 0x1 PUSH1 0x1 PUSH1 0xA0 SHL SUB NOT SWAP3 DUP4 AND DUP2 OR SWAP1 SWAP4 SSTORE PUSH1 0x1 DUP1 SLOAD SWAP2 DUP7 AND SWAP2 SWAP1 SWAP3 AND OR SWAP1 SSTORE PUSH4 0xB45EE9EF PUSH2 0x381 PUSH1 0x0 SLOAD PUSH1 0x1 PUSH1 0x1 PUSH1 0xA0 SHL SUB AND SWAP1 JUMP JUMPDEST PUSH1 0x40 MLOAD PUSH1 0x1 PUSH1 0x1 PUSH1 0xE0 SHL SUB NOT PUSH1 0xE0 DUP5 SWAP1 SHL AND DUP2 MSTORE PUSH1 0x1 PUSH1 0x1 PUSH1 0xA0 SHL SUB SWAP2 DUP3 AND PUSH1 0x4 DUP3 ADD MSTORE SWAP1 DUP6 AND PUSH1 0x24 DUP3 ADD MSTORE PUSH1 0x44 DUP2 ADD DUP5 SWAP1 MSTORE PUSH1 0x64 ADD PUSH1 0x0 PUSH1 0x40 MLOAD DUP1 DUP4 SUB DUP2 PUSH1 0x0 DUP8 DUP1 EXTCODESIZE ISZERO DUP1 ISZERO PUSH2 0x3D1 JUMPI PUSH1 0x0 DUP1 REVERT JUMPDEST POP GAS CALL ISZERO DUP1 ISZERO PUSH2 0x3E5 JUMPI RETURNDATASIZE PUSH1 0x0 DUP1 RETURNDATACOPY RETURNDATASIZE PUSH1 0x0 REVERT JUMPDEST POP POP PUSH1 0x4 DUP1 SLOAD PUSH1 0xFF NOT AND PUSH1 0x1 OR SWAP1 SSTORE POP POP POP POP POP JUMP JUMPDEST PUSH1 0x0 SLOAD PUSH1 0x1 PUSH1 0x1 PUSH1 0xA0 SHL SUB AND CALLER EQ PUSH2 0x425 JUMPI PUSH1 0x40 MLOAD PUSH3 0x461BCD PUSH1 0xE5 SHL DUP2 MSTORE PUSH1 0x4 ADD PUSH2 0x2E6 SWAP1 PUSH2 0xAE6 JUMP JUMPDEST PUSH1 0x1 DUP1 SLOAD PUSH1 0x1 PUSH1 0x1 PUSH1 0xA0 SHL SUB NOT AND PUSH1 0x1 PUSH1 0x1 PUSH1 0xA0 SHL SUB SWAP3 SWAP1 SWAP3 AND SWAP2 SWAP1 SWAP2 OR SWAP1 SSTORE JUMP JUMPDEST PUSH1 0x2 SLOAD PUSH1 0x1 SLOAD PUSH1 0x40 MLOAD PUSH4 0xE3D670D7 PUSH1 0xE0 SHL DUP2 MSTORE PUSH1 0x1 PUSH1 0x1 PUSH1 0xA0 SHL SUB SWAP2 DUP3 AND PUSH1 0x4 DUP3 ADD MSTORE DUP4 SWAP3 SWAP2 SWAP1 SWAP2 AND SWAP1 PUSH4 0xE3D670D7 SWAP1 PUSH1 0x24 ADD PUSH1 0x20 PUSH1 0x40 MLOAD DUP1 DUP4 SUB DUP2 DUP7 GAS STATICCALL ISZERO DUP1 ISZERO PUSH2 0x497 JUMPI RETURNDATASIZE PUSH1 0x0 DUP1 RETURNDATACOPY RETURNDATASIZE PUSH1 0x0 REVERT JUMPDEST POP POP POP POP PUSH1 0x40 MLOAD RETURNDATASIZE PUSH1 0x1F NOT PUSH1 0x1F DUP3 ADD AND DUP3 ADD DUP1 PUSH1 0x40 MSTORE POP DUP2 ADD SWAP1 PUSH2 0x4BB SWAP2 SWAP1 PUSH2 0xB1B JUMP JUMPDEST GT PUSH2 0x51A JUMPI PUSH1 0x40 MLOAD PUSH3 0x461BCD PUSH1 0xE5 SHL DUP2 MSTORE PUSH1 0x20 PUSH1 0x4 DUP3 ADD MSTORE PUSH1 0x29 PUSH1 0x24 DUP3 ADD MSTORE PUSH32 0x4572726F723A2041646D696E20646F6573206E6F74206861766520656E6F7567 PUSH1 0x44 DUP3 ADD MSTORE PUSH9 0x682062616C616E6365 PUSH1 0xB8 SHL PUSH1 0x64 DUP3 ADD MSTORE PUSH1 0x84 ADD PUSH2 0x2E6 JUMP JUMPDEST PUSH1 0x0 PUSH1 0x64 PUSH2 0x529 DUP4 PUSH1 0x1 PUSH2 0xB4A JUMP JUMPDEST PUSH2 0x533 SWAP2 SWAP1 PUSH2 0xB69 JUMP JUMPDEST SWAP1 POP PUSH1 0x0 PUSH2 0x541 DUP4 DUP4 PUSH2 0x97B JUMP JUMPDEST PUSH1 0x2 SLOAD PUSH1 0x1 SLOAD PUSH1 0x40 MLOAD PUSH4 0xB45EE9EF PUSH1 0xE0 SHL DUP2 MSTORE PUSH1 0x1 PUSH1 0x1 PUSH1 0xA0 SHL SUB SWAP2 DUP3 AND PUSH1 0x4 DUP3 ADD MSTORE CALLER PUSH1 0x24 DUP3 ADD MSTORE PUSH1 0x44 DUP2 ADD DUP5 SWAP1 MSTORE SWAP3 SWAP4 POP AND SWAP1 PUSH4 0xB45EE9EF SWAP1 PUSH1 0x64 ADD PUSH1 0x0 PUSH1 0x40 MLOAD DUP1 DUP4 SUB DUP2 PUSH1 0x0 DUP8 DUP1 EXTCODESIZE ISZERO DUP1 ISZERO PUSH2 0x599 JUMPI PUSH1 0x0 DUP1 REVERT JUMPDEST POP GAS CALL ISZERO DUP1 ISZERO PUSH2 0x5AD JUMPI RETURNDATASIZE PUSH1 0x0 DUP1 RETURNDATACOPY RETURNDATASIZE PUSH1 0x0 REVERT JUMPDEST POP POP PUSH1 0x3 DUP1 SLOAD PUSH1 0x1 SWAP1 DUP2 ADD DUP1 DUP4 SSTORE CALLER PUSH1 0x0 SWAP1 DUP2 MSTORE PUSH1 0x5 PUSH1 0x20 SWAP1 DUP2 MSTORE PUSH1 0x40 DUP1 DUP4 KECCAK256 DUP5 DUP5 MSTORE SWAP1 SWAP2 MSTORE DUP2 KECCAK256 DUP3 DUP2 SSTORE TIMESTAMP SWAP4 DUP2 ADD SWAP4 SWAP1 SWAP4 SSTORE PUSH1 0x2 DUP1 DUP5 ADD DUP11 SWAP1 SSTORE SWAP4 DUP4 ADD DUP9 SWAP1 SSTORE PUSH1 0x4 SWAP1 SWAP3 ADD DUP7 SWAP1 SSTORE SWAP4 POP SWAP2 POP PUSH2 0x605 SWAP1 DUP5 SWAP1 PUSH2 0x98E JUMP JUMPDEST PUSH1 0x2 SLOAD SWAP1 SWAP2 POP DUP2 SWAP1 PUSH1 0x1 PUSH1 0x1 PUSH1 0xA0 SHL SUB AND PUSH4 0xE3D670D7 PUSH2 0x62D PUSH1 0x0 SLOAD PUSH1 0x1 PUSH1 0x1 PUSH1 0xA0 SHL SUB AND SWAP1 JUMP JUMPDEST PUSH1 0x40 MLOAD PUSH1 0x1 PUSH1 0x1 PUSH1 0xE0 SHL SUB NOT PUSH1 0xE0 DUP5 SWAP1 SHL AND DUP2 MSTORE PUSH1 0x1 PUSH1 0x1 PUSH1 0xA0 SHL SUB SWAP1 SWAP2 AND PUSH1 0x4 DUP3 ADD MSTORE PUSH1 0x24 ADD PUSH1 0x20 PUSH1 0x40 MLOAD DUP1 DUP4 SUB DUP2 DUP7 GAS STATICCALL ISZERO DUP1 ISZERO PUSH2 0x671 JUMPI RETURNDATASIZE PUSH1 0x0 DUP1 RETURNDATACOPY RETURNDATASIZE PUSH1 0x0 REVERT JUMPDEST POP POP POP POP PUSH1 0x40 MLOAD RETURNDATASIZE PUSH1 0x1F NOT PUSH1 0x1F DUP3 ADD AND DUP3 ADD DUP1 PUSH1 0x40 MSTORE POP DUP2 ADD SWAP1 PUSH2 0x695 SWAP2 SWAP1 PUSH2 0xB1B JUMP JUMPDEST GT PUSH2 0x6F4 JUMPI PUSH1 0x40 MLOAD PUSH3 0x461BCD PUSH1 0xE5 SHL DUP2 MSTORE PUSH1 0x20 PUSH1 0x4 DUP3 ADD MSTORE PUSH1 0x29 PUSH1 0x24 DUP3 ADD MSTORE PUSH32 0x4572726F723A204F776E657220646F6573206E6F74206861766520656E6F7567 PUSH1 0x44 DUP3 ADD MSTORE PUSH9 0x682062616C616E6365 PUSH1 0xB8 SHL PUSH1 0x64 DUP3 ADD MSTORE PUSH1 0x84 ADD PUSH2 0x2E6 JUMP JUMPDEST PUSH1 0x2 SLOAD PUSH1 0x1 PUSH1 0x1 PUSH1 0xA0 SHL SUB AND PUSH4 0xB45EE9EF PUSH2 0x717 PUSH1 0x0 SLOAD PUSH1 0x1 PUSH1 0x1 PUSH1 0xA0 SHL SUB AND SWAP1 JUMP JUMPDEST PUSH1 0x1 SLOAD PUSH1 0x40 MLOAD PUSH1 0xE0 DUP5 SWAP1 SHL PUSH1 0x1 PUSH1 0x1 PUSH1 0xE0 SHL SUB NOT AND DUP2 MSTORE PUSH1 0x1 PUSH1 0x1 PUSH1 0xA0 SHL SUB SWAP3 DUP4 AND PUSH1 0x4 DUP3 ADD MSTORE SWAP2 AND PUSH1 0x24 DUP3 ADD MSTORE PUSH1 0x44 DUP2 ADD DUP5 SWAP1 MSTORE PUSH1 0x64 ADD PUSH1 0x0 PUSH1 0x40 MLOAD DUP1 DUP4 SUB DUP2 PUSH1 0x0 DUP8 DUP1 EXTCODESIZE ISZERO DUP1 ISZERO PUSH2 0x769 JUMPI PUSH1 0x0 DUP1 REVERT JUMPDEST POP GAS CALL ISZERO DUP1 ISZERO PUSH2 0x77D JUMPI RETURNDATASIZE PUSH1 0x0 DUP1 RETURNDATACOPY RETURNDATASIZE PUSH1 0x0 REVERT JUMPDEST POP POP CALLER PUSH1 0x0 DUP2 DUP2 MSTORE PUSH1 0x5 PUSH1 0x20 DUP2 DUP2 MSTORE PUSH1 0x40 DUP1 DUP5 KECCAK256 DUP10 DUP6 MSTORE DUP3 MSTORE DUP1 DUP5 KECCAK256 SWAP1 SWAP3 ADD DUP8 SWAP1 SSTORE SWAP3 DUP3 MSTORE PUSH1 0x6 DUP4 MSTORE DUP2 KECCAK256 DUP1 SLOAD PUSH1 0x1 DUP2 DUP2 ADD DUP4 SSTORE SWAP2 DUP4 MSTORE SWAP3 SWAP1 SWAP2 KECCAK256 SWAP1 SWAP2 ADD DUP6 SWAP1 SSTORE PUSH2 0x7DC SWAP3 POP PUSH5 0x2540BE400 SWAP2 POP PUSH2 0x7D6 SWAP1 DUP5 SWAP1 PUSH2 0xB4A JUMP JUMPDEST SWAP1 PUSH2 0x98E JUMP JUMPDEST POP PUSH1 0x0 DUP1 SLOAD PUSH1 0x40 MLOAD PUSH1 0x1 PUSH1 0x1 PUSH1 0xA0 SHL SUB SWAP1 SWAP2 AND SWAP2 CALLVALUE DUP1 ISZERO PUSH2 0x8FC MUL SWAP3 SWAP1 SWAP2 DUP2 DUP2 DUP2 DUP6 DUP9 DUP9 CALL SWAP4 POP POP POP POP ISZERO DUP1 ISZERO PUSH2 0x817 JUMPI RETURNDATASIZE PUSH1 0x0 DUP1 RETURNDATACOPY RETURNDATASIZE PUSH1 0x0 REVERT JUMPDEST POP POP CALLER PUSH1 0x0 SWAP1 DUP2 MSTORE PUSH1 0x5 PUSH1 0x20 SWAP1 DUP2 MSTORE PUSH1 0x40 DUP1 DUP4 KECCAK256 SWAP4 DUP4 MSTORE SWAP3 SWAP1 MSTORE KECCAK256 CALLVALUE PUSH1 0x6 SWAP1 SWAP2 ADD SSTORE POP POP POP JUMP JUMPDEST PUSH1 0x1 PUSH1 0x1 PUSH1 0xA0 SHL SUB DUP2 AND PUSH1 0x0 SWAP1 DUP2 MSTORE PUSH1 0x6 PUSH1 0x20 SWAP1 DUP2 MSTORE PUSH1 0x40 SWAP2 DUP3 SWAP1 KECCAK256 DUP1 SLOAD DUP4 MLOAD DUP2 DUP5 MUL DUP2 ADD DUP5 ADD SWAP1 SWAP5 MSTORE DUP1 DUP5 MSTORE PUSH1 0x60 SWAP4 SWAP3 DUP4 ADD DUP3 DUP3 DUP1 ISZERO PUSH2 0x89E JUMPI PUSH1 0x20 MUL DUP3 ADD SWAP2 SWAP1 PUSH1 0x0 MSTORE PUSH1 0x20 PUSH1 0x0 KECCAK256 SWAP1 JUMPDEST DUP2 SLOAD DUP2 MSTORE PUSH1 0x20 ADD SWAP1 PUSH1 0x1 ADD SWAP1 DUP1 DUP4 GT PUSH2 0x88A JUMPI JUMPDEST POP POP POP POP POP SWAP1 POP SWAP2 SWAP1 POP JUMP JUMPDEST PUSH1 0x0 SLOAD PUSH1 0x1 PUSH1 0x1 PUSH1 0xA0 SHL SUB AND CALLER EQ PUSH2 0x8D4 JUMPI PUSH1 0x40 MLOAD PUSH3 0x461BCD PUSH1 0xE5 SHL DUP2 MSTORE PUSH1 0x4 ADD PUSH2 0x2E6 SWAP1 PUSH2 0xAE6 JUMP JUMPDEST PUSH2 0x8DE PUSH1 0x0 PUSH2 0x99A JUMP JUMPDEST JUMP JUMPDEST PUSH1 0x0 SLOAD PUSH1 0x1 PUSH1 0x1 PUSH1 0xA0 SHL SUB AND CALLER EQ PUSH2 0x90A JUMPI PUSH1 0x40 MLOAD PUSH3 0x461BCD PUSH1 0xE5 SHL DUP2 MSTORE PUSH1 0x4 ADD PUSH2 0x2E6 SWAP1 PUSH2 0xAE6 JUMP JUMPDEST PUSH1 0x1 PUSH1 0x1 PUSH1 0xA0 SHL SUB DUP2 AND PUSH2 0x96F JUMPI PUSH1 0x40 MLOAD PUSH3 0x461BCD PUSH1 0xE5 SHL DUP2 MSTORE PUSH1 0x20 PUSH1 0x4 DUP3 ADD MSTORE PUSH1 0x26 PUSH1 0x24 DUP3 ADD MSTORE PUSH32 0x4F776E61626C653A206E6577206F776E657220697320746865207A65726F2061 PUSH1 0x44 DUP3 ADD MSTORE PUSH6 0x646472657373 PUSH1 0xD0 SHL PUSH1 0x64 DUP3 ADD MSTORE PUSH1 0x84 ADD PUSH2 0x2E6 JUMP JUMPDEST PUSH2 0x978 DUP2 PUSH2 0x99A JUMP JUMPDEST POP JUMP JUMPDEST PUSH1 0x0 PUSH2 0x987 DUP3 DUP5 PUSH2 0xB8B JUMP JUMPDEST SWAP4 SWAP3 POP POP POP JUMP JUMPDEST PUSH1 0x0 PUSH2 0x987 DUP3 DUP5 PUSH2 0xB69 JUMP JUMPDEST PUSH1 0x0 DUP1 SLOAD PUSH1 0x1 PUSH1 0x1 PUSH1 0xA0 SHL SUB DUP4 DUP2 AND PUSH1 0x1 PUSH1 0x1 PUSH1 0xA0 SHL SUB NOT DUP4 AND DUP2 OR DUP5 SSTORE PUSH1 0x40 MLOAD SWAP2 SWAP1 SWAP3 AND SWAP3 DUP4 SWAP2 PUSH32 0x8BE0079C531659141344CD1FD0A4F28419497F9722A3DAAFE3B4186F6B6457E0 SWAP2 SWAP1 LOG3 POP POP JUMP JUMPDEST PUSH1 0x1 PUSH1 0x1 PUSH1 0xA0 SHL SUB DUP2 AND DUP2 EQ PUSH2 0x978 JUMPI PUSH1 0x0 DUP1 REVERT JUMPDEST PUSH1 0x0 DUP1 PUSH1 0x0 PUSH1 0x60 DUP5 DUP7 SUB SLT ISZERO PUSH2 0xA14 JUMPI PUSH1 0x0 DUP1 REVERT JUMPDEST DUP4 CALLDATALOAD PUSH2 0xA1F DUP2 PUSH2 0x9EA JUMP JUMPDEST SWAP3 POP PUSH1 0x20 DUP5 ADD CALLDATALOAD PUSH2 0xA2F DUP2 PUSH2 0x9EA JUMP JUMPDEST SWAP3 SWAP6 SWAP3 SWAP5 POP POP POP PUSH1 0x40 SWAP2 SWAP1 SWAP2 ADD CALLDATALOAD SWAP1 JUMP JUMPDEST PUSH1 0x0 PUSH1 0x20 DUP3 DUP5 SUB SLT ISZERO PUSH2 0xA52 JUMPI PUSH1 0x0 DUP1 REVERT JUMPDEST DUP2 CALLDATALOAD PUSH2 0x987 DUP2 PUSH2 0x9EA JUMP JUMPDEST PUSH1 0x0 PUSH1 0x20 DUP3 DUP5 SUB SLT ISZERO PUSH2 0xA6F JUMPI PUSH1 0x0 DUP1 REVERT JUMPDEST POP CALLDATALOAD SWAP2 SWAP1 POP JUMP JUMPDEST PUSH1 0x20 DUP1 DUP3 MSTORE DUP3 MLOAD DUP3 DUP3 ADD DUP2 SWAP1 MSTORE PUSH1 0x0 SWAP2 SWAP1 DUP5 DUP3 ADD SWAP1 PUSH1 0x40 DUP6 ADD SWAP1 DUP5 JUMPDEST DUP2 DUP2 LT ISZERO PUSH2 0xAAE JUMPI DUP4 MLOAD DUP4 MSTORE SWAP3 DUP5 ADD SWAP3 SWAP2 DUP5 ADD SWAP2 PUSH1 0x1 ADD PUSH2 0xA92 JUMP JUMPDEST POP SWAP1 SWAP7 SWAP6 POP POP POP POP POP POP JUMP JUMPDEST PUSH1 0x0 DUP1 PUSH1 0x40 DUP4 DUP6 SUB SLT ISZERO PUSH2 0xACD JUMPI PUSH1 0x0 DUP1 REVERT JUMPDEST DUP3 CALLDATALOAD PUSH2 0xAD8 DUP2 PUSH2 0x9EA JUMP JUMPDEST SWAP5 PUSH1 0x20 SWAP4 SWAP1 SWAP4 ADD CALLDATALOAD SWAP4 POP POP POP JUMP JUMPDEST PUSH1 0x20 DUP1 DUP3 MSTORE DUP2 DUP2 ADD MSTORE PUSH32 0x4F776E61626C653A2063616C6C6572206973206E6F7420746865206F776E6572 PUSH1 0x40 DUP3 ADD MSTORE PUSH1 0x60 ADD SWAP1 JUMP JUMPDEST PUSH1 0x0 PUSH1 0x20 DUP3 DUP5 SUB SLT ISZERO PUSH2 0xB2D JUMPI PUSH1 0x0 DUP1 REVERT JUMPDEST POP MLOAD SWAP2 SWAP1 POP JUMP JUMPDEST PUSH4 0x4E487B71 PUSH1 0xE0 SHL PUSH1 0x0 MSTORE PUSH1 0x11 PUSH1 0x4 MSTORE PUSH1 0x24 PUSH1 0x0 REVERT JUMPDEST PUSH1 0x0 DUP2 PUSH1 0x0 NOT DIV DUP4 GT DUP3 ISZERO ISZERO AND ISZERO PUSH2 0xB64 JUMPI PUSH2 0xB64 PUSH2 0xB34 JUMP JUMPDEST POP MUL SWAP1 JUMP JUMPDEST PUSH1 0x0 DUP3 PUSH2 0xB86 JUMPI PUSH4 0x4E487B71 PUSH1 0xE0 SHL PUSH1 0x0 MSTORE PUSH1 0x12 PUSH1 0x4 MSTORE PUSH1 0x24 PUSH1 0x0 REVERT JUMPDEST POP DIV SWAP1 JUMP JUMPDEST PUSH1 0x0 DUP3 DUP3 LT ISZERO PUSH2 0xB9D JUMPI PUSH2 0xB9D PUSH2 0xB34 JUMP JUMPDEST POP SUB SWAP1 JUMP INVALID LOG2 PUSH5 0x6970667358 0x22 SLT KECCAK256 0xC0 INVALID 0x27 0xD PC LOG4 0xE9 LOG4 0xF MLOAD 0xE1 BLOCKHASH 0x27 PUSH3 0x6A78AB 0xA5 0xAC 0xCB SWAP11 CALLDATASIZE JUMPI 0x2E GAS PUSH4 0x8CD96E24 GASPRICE MSTORE8 PUSH5 0x736F6C6343 STOP ADDMOD 0xD STOP CALLER "
				},
				"gasEstimates": {
					"creation": {
						"codeDepositCost": "606400",
						"executionCost": "26479",
						"totalCost": "632879"
					},
					"external": {
						"AdminAddress()": "2382",
						"Coin()": "2403",
						"buyInfo(address,uint256)": "15438",
						"buyToken(uint256)": "infinite",
						"getIdsOfUser(address)": "infinite",
						"initialize(address,address,uint256)": "infinite",
						"initialized()": "2300",
						"owner()": "2375",
						"renounceOwnership()": "28114",
						"setAdminAddress(address)": "26772",
						"totalInvesters()": "2368",
						"transferOwnership(address)": "infinite"
					}
				},
				"methodIdentifiers": {
					"AdminAddress()": "28f661e3",
					"Coin()": "a77b2e37",
					"buyInfo(address,uint256)": "8637856d",
					"buyToken(uint256)": "2d296bf1",
					"getIdsOfUser(address)": "5f4fd1f7",
					"initialize(address,address,uint256)": "1794bb3c",
					"initialized()": "158ef93e",
					"owner()": "8da5cb5b",
					"renounceOwnership()": "715018a6",
					"setAdminAddress(address)": "2c1e816d",
					"totalInvesters()": "af0afec9",
					"transferOwnership(address)": "f2fde38b"
				}
			},
			"storageLayout": {
				"storage": [
					{
						"astId": 815,
						"contract": "contracts/smartContract.sol:smartContract",
						"label": "_owner",
						"offset": 0,
						"slot": "0",
						"type": "t_address"
					},
					{
						"astId": 1236,
						"contract": "contracts/smartContract.sol:smartContract",
						"label": "AdminAddress",
						"offset": 0,
						"slot": "1",
						"type": "t_address"
					},
					{
						"astId": 1239,
						"contract": "contracts/smartContract.sol:smartContract",
						"label": "Coin",
						"offset": 0,
						"slot": "2",
						"type": "t_contract(Token)760"
					},
					{
						"astId": 1241,
						"contract": "contracts/smartContract.sol:smartContract",
						"label": "investerID",
						"offset": 0,
						"slot": "3",
						"type": "t_uint256"
					},
					{
						"astId": 1243,
						"contract": "contracts/smartContract.sol:smartContract",
						"label": "initialized",
						"offset": 0,
						"slot": "4",
						"type": "t_bool"
					},
					{
						"astId": 1250,
						"contract": "contracts/smartContract.sol:smartContract",
						"label": "buyInfo",
						"offset": 0,
						"slot": "5",
						"type": "t_mapping(t_address,t_mapping(t_uint256,t_struct(purchaseInfo)1270_storage))"
					},
					{
						"astId": 1255,
						"contract": "contracts/smartContract.sol:smartContract",
						"label": "getIDByAddress",
						"offset": 0,
						"slot": "6",
						"type": "t_mapping(t_address,t_array(t_uint256)dyn_storage)"
					}
				],
				"types": {
					"t_address": {
						"encoding": "inplace",
						"label": "address",
						"numberOfBytes": "20"
					},
					"t_array(t_uint256)dyn_storage": {
						"base": "t_uint256",
						"encoding": "dynamic_array",
						"label": "uint256[]",
						"numberOfBytes": "32"
					},
					"t_bool": {
						"encoding": "inplace",
						"label": "bool",
						"numberOfBytes": "1"
					},
					"t_contract(Token)760": {
						"encoding": "inplace",
						"label": "contract Token",
						"numberOfBytes": "20"
					},
					"t_mapping(t_address,t_array(t_uint256)dyn_storage)": {
						"encoding": "mapping",
						"key": "t_address",
						"label": "mapping(address => uint256[])",
						"numberOfBytes": "32",
						"value": "t_array(t_uint256)dyn_storage"
					},
					"t_mapping(t_address,t_mapping(t_uint256,t_struct(purchaseInfo)1270_storage))": {
						"encoding": "mapping",
						"key": "t_address",
						"label": "mapping(address => mapping(uint256 => struct smartContract.purchaseInfo))",
						"numberOfBytes": "32",
						"value": "t_mapping(t_uint256,t_struct(purchaseInfo)1270_storage)"
					},
					"t_mapping(t_uint256,t_struct(purchaseInfo)1270_storage)": {
						"encoding": "mapping",
						"key": "t_uint256",
						"label": "mapping(uint256 => struct smartContract.purchaseInfo)",
						"numberOfBytes": "32",
						"value": "t_struct(purchaseInfo)1270_storage"
					},
					"t_struct(purchaseInfo)1270_storage": {
						"encoding": "inplace",
						"label": "struct smartContract.purchaseInfo",
						"members": [
							{
								"astId": 1257,
								"contract": "contracts/smartContract.sol:smartContract",
								"label": "ID",
								"offset": 0,
								"slot": "0",
								"type": "t_uint256"
							},
							{
								"astId": 1259,
								"contract": "contracts/smartContract.sol:smartContract",
								"label": "buyTime",
								"offset": 0,
								"slot": "1",
								"type": "t_uint256"
							},
							{
								"astId": 1261,
								"contract": "contracts/smartContract.sol:smartContract",
								"label": "purchaseToken",
								"offset": 0,
								"slot": "2",
								"type": "t_uint256"
							},
							{
								"astId": 1263,
								"contract": "contracts/smartContract.sol:smartContract",
								"label": "burnToken",
								"offset": 0,
								"slot": "3",
								"type": "t_uint256"
							},
							{
								"astId": 1265,
								"contract": "contracts/smartContract.sol:smartContract",
								"label": "userGets",
								"offset": 0,
								"slot": "4",
								"type": "t_uint256"
							},
							{
								"astId": 1267,
								"contract": "contracts/smartContract.sol:smartContract",
								"label": "ownerSurplus",
								"offset": 0,
								"slot": "5",
								"type": "t_uint256"
							},
							{
								"astId": 1269,
								"contract": "contracts/smartContract.sol:smartContract",
								"label": "BNBchargedByAdmin",
								"offset": 0,
								"slot": "6",
								"type": "t_uint256"
							}
						],
						"numberOfBytes": "224"
					},
					"t_uint256": {
						"encoding": "inplace",
						"label": "uint256",
						"numberOfBytes": "32"
					}
				}
			},
			"userdoc": {
				"kind": "user",
				"methods": {},
				"version": 1
			}
		}
	}
}