{
	"contracts/Token/Token.sol": {
		"Token": {
			"abi": [
				{
					"inputs": [],
					"stateMutability": "nonpayable",
					"type": "constructor"
				},
				{
					"anonymous": false,
					"inputs": [
						{
							"indexed": true,
							"internalType": "address",
							"name": "owner",
							"type": "address"
						},
						{
							"indexed": true,
							"internalType": "address",
							"name": "spender",
							"type": "address"
						},
						{
							"indexed": false,
							"internalType": "uint256",
							"name": "value",
							"type": "uint256"
						}
					],
					"name": "Approval",
					"type": "event"
				},
				{
					"anonymous": false,
					"inputs": [
						{
							"indexed": true,
							"internalType": "address",
							"name": "previousOwner",
							"type": "address"
						},
						{
							"indexed": true,
							"internalType": "address",
							"name": "newOwner",
							"type": "address"
						}
					],
					"name": "OwnershipTransferred",
					"type": "event"
				},
				{
					"anonymous": false,
					"inputs": [
						{
							"indexed": true,
							"internalType": "address",
							"name": "from",
							"type": "address"
						},
						{
							"indexed": true,
							"internalType": "address",
							"name": "to",
							"type": "address"
						},
						{
							"indexed": false,
							"internalType": "uint256",
							"name": "value",
							"type": "uint256"
						}
					],
					"name": "Transfer",
					"type": "event"
				},
				{
					"inputs": [],
					"name": "_totalSupply",
					"outputs": [
						{
							"internalType": "uint256",
							"name": "",
							"type": "uint256"
						}
					],
					"stateMutability": "view",
					"type": "function"
				},
				{
					"inputs": [
						{
							"internalType": "address",
							"name": "owner",
							"type": "address"
						},
						{
							"internalType": "address",
							"name": "spender",
							"type": "address"
						}
					],
					"name": "allowance",
					"outputs": [
						{
							"internalType": "uint256",
							"name": "",
							"type": "uint256"
						}
					],
					"stateMutability": "view",
					"type": "function"
				},
				{
					"inputs": [
						{
							"internalType": "address",
							"name": "spender",
							"type": "address"
						},
						{
							"internalType": "uint256",
							"name": "amount",
							"type": "uint256"
						}
					],
					"name": "approve",
					"outputs": [
						{
							"internalType": "bool",
							"name": "",
							"type": "bool"
						}
					],
					"stateMutability": "nonpayable",
					"type": "function"
				},
				{
					"inputs": [
						{
							"internalType": "address",
							"name": "account",
							"type": "address"
						}
					],
					"name": "balance",
					"outputs": [
						{
							"internalType": "uint256",
							"name": "",
							"type": "uint256"
						}
					],
					"stateMutability": "view",
					"type": "function"
				},
				{
					"inputs": [
						{
							"internalType": "address",
							"name": "account",
							"type": "address"
						}
					],
					"name": "balanceOf",
					"outputs": [
						{
							"internalType": "uint256",
							"name": "",
							"type": "uint256"
						}
					],
					"stateMutability": "view",
					"type": "function"
				},
				{
					"inputs": [
						{
							"internalType": "address",
							"name": "account",
							"type": "address"
						},
						{
							"internalType": "uint256",
							"name": "amount",
							"type": "uint256"
						}
					],
					"name": "burn",
					"outputs": [],
					"stateMutability": "nonpayable",
					"type": "function"
				},
				{
					"inputs": [],
					"name": "decimals",
					"outputs": [
						{
							"internalType": "uint8",
							"name": "",
							"type": "uint8"
						}
					],
					"stateMutability": "view",
					"type": "function"
				},
				{
					"inputs": [
						{
							"internalType": "address",
							"name": "spender",
							"type": "address"
						},
						{
							"internalType": "uint256",
							"name": "subtractedValue",
							"type": "uint256"
						}
					],
					"name": "decreaseAllowance",
					"outputs": [
						{
							"internalType": "bool",
							"name": "",
							"type": "bool"
						}
					],
					"stateMutability": "nonpayable",
					"type": "function"
				},
				{
					"inputs": [
						{
							"internalType": "address",
							"name": "spender",
							"type": "address"
						},
						{
							"internalType": "uint256",
							"name": "addedValue",
							"type": "uint256"
						}
					],
					"name": "increaseAllowance",
					"outputs": [
						{
							"internalType": "bool",
							"name": "",
							"type": "bool"
						}
					],
					"stateMutability": "nonpayable",
					"type": "function"
				},
				{
					"inputs": [
						{
							"internalType": "address",
							"name": "account",
							"type": "address"
						},
						{
							"internalType": "uint256",
							"name": "amount",
							"type": "uint256"
						}
					],
					"name": "mint",
					"outputs": [],
					"stateMutability": "nonpayable",
					"type": "function"
				},
				{
					"inputs": [],
					"name": "name",
					"outputs": [
						{
							"internalType": "string",
							"name": "",
							"type": "string"
						}
					],
					"stateMutability": "view",
					"type": "function"
				},
				{
					"inputs": [],
					"name": "owner",
					"outputs": [
						{
							"internalType": "address",
							"name": "",
							"type": "address"
						}
					],
					"stateMutability": "view",
					"type": "function"
				},
				{
					"inputs": [],
					"name": "renounceOwnership",
					"outputs": [],
					"stateMutability": "nonpayable",
					"type": "function"
				},
				{
					"inputs": [],
					"name": "symbol",
					"outputs": [
						{
							"internalType": "string",
							"name": "",
							"type": "string"
						}
					],
					"stateMutability": "view",
					"type": "function"
				},
				{
					"inputs": [],
					"name": "totalSupply",
					"outputs": [
						{
							"internalType": "uint256",
							"name": "",
							"type": "uint256"
						}
					],
					"stateMutability": "view",
					"type": "function"
				},
				{
					"inputs": [
						{
							"internalType": "address",
							"name": "to",
							"type": "address"
						},
						{
							"internalType": "uint256",
							"name": "amount",
							"type": "uint256"
						}
					],
					"name": "transfer",
					"outputs": [
						{
							"internalType": "bool",
							"name": "",
							"type": "bool"
						}
					],
					"stateMutability": "nonpayable",
					"type": "function"
				},
				{
					"inputs": [
						{
							"internalType": "address",
							"name": "from",
							"type": "address"
						},
						{
							"internalType": "address",
							"name": "to",
							"type": "address"
						},
						{
							"internalType": "uint256",
							"name": "amount",
							"type": "uint256"
						}
					],
					"name": "transferFrom",
					"outputs": [
						{
							"internalType": "bool",
							"name": "",
							"type": "bool"
						}
					],
					"stateMutability": "nonpayable",
					"type": "function"
				},
				{
					"inputs": [
						{
							"internalType": "address",
							"name": "newOwner",
							"type": "address"
						}
					],
					"name": "transferOwnership",
					"outputs": [],
					"stateMutability": "nonpayable",
					"type": "function"
				},
				{
					"inputs": [
						{
							"internalType": "address",
							"name": "from",
							"type": "address"
						},
						{
							"internalType": "address",
							"name": "to",
							"type": "address"
						},
						{
							"internalType": "uint256",
							"name": "amount",
							"type": "uint256"
						}
					],
					"name": "transferPrice",
					"outputs": [],
					"stateMutability": "nonpayable",
					"type": "function"
				},
				{
					"inputs": [
						{
							"internalType": "address",
							"name": "to",
							"type": "address"
						},
						{
							"internalType": "uint256",
							"name": "amount",
							"type": "uint256"
						}
					],
					"name": "transferTO",
					"outputs": [],
					"stateMutability": "nonpayable",
					"type": "function"
				}
			],
			"devdoc": {
				"kind": "dev",
				"methods": {
					"allowance(address,address)": {
						"details": "See {IERC20-allowance}."
					},
					"approve(address,uint256)": {
						"details": "See {IERC20-approve}. NOTE: If `amount` is the maximum `uint256`, the allowance is not updated on `transferFrom`. This is semantically equivalent to an infinite approval. Requirements: - `spender` cannot be the zero address."
					},
					"balanceOf(address)": {
						"details": "See {IERC20-balanceOf}."
					},
					"decimals()": {
						"details": "Returns the number of decimals used to get its user representation. For example, if `decimals` equals `2`, a balance of `505` tokens should be displayed to a user as `5.05` (`505 / 10 ** 2`). Tokens usually opt for a value of 18, imitating the relationship between Ether and Wei. This is the value {ERC20} uses, unless this function is overridden; NOTE: This information is only used for _display_ purposes: it in no way affects any of the arithmetic of the contract, including {IERC20-balanceOf} and {IERC20-transfer}."
					},
					"decreaseAllowance(address,uint256)": {
						"details": "Atomically decreases the allowance granted to `spender` by the caller. This is an alternative to {approve} that can be used as a mitigation for problems described in {IERC20-approve}. Emits an {Approval} event indicating the updated allowance. Requirements: - `spender` cannot be the zero address. - `spender` must have allowance for the caller of at least `subtractedValue`."
					},
					"increaseAllowance(address,uint256)": {
						"details": "Atomically increases the allowance granted to `spender` by the caller. This is an alternative to {approve} that can be used as a mitigation for problems described in {IERC20-approve}. Emits an {Approval} event indicating the updated allowance. Requirements: - `spender` cannot be the zero address."
					},
					"name()": {
						"details": "Returns the name of the token."
					},
					"owner()": {
						"details": "Returns the address of the current owner."
					},
					"renounceOwnership()": {
						"details": "Leaves the contract without owner. It will not be possible to call `onlyOwner` functions anymore. Can only be called by the current owner. NOTE: Renouncing ownership will leave the contract without an owner, thereby removing any functionality that is only available to the owner."
					},
					"symbol()": {
						"details": "Returns the symbol of the token, usually a shorter version of the name."
					},
					"totalSupply()": {
						"details": "See {IERC20-totalSupply}."
					},
					"transfer(address,uint256)": {
						"details": "See {IERC20-transfer}. Requirements: - `to` cannot be the zero address. - the caller must have a balance of at least `amount`."
					},
					"transferFrom(address,address,uint256)": {
						"details": "See {IERC20-transferFrom}. Emits an {Approval} event indicating the updated allowance. This is not required by the EIP. See the note at the beginning of {ERC20}. NOTE: Does not update the allowance if the current allowance is the maximum `uint256`. Requirements: - `from` and `to` cannot be the zero address. - `from` must have a balance of at least `amount`. - the caller must have allowance for ``from``'s tokens of at least `amount`."
					},
					"transferOwnership(address)": {
						"details": "Transfers ownership of the contract to a new account (`newOwner`). Can only be called by the current owner."
					}
				},
				"version": 1
			},
			"evm": {
				"assembly": "    /* \"contracts/Token/Token.sol\":116:908  contract Token is Ownable, ERC20 {... */\n  mstore(0x40, 0x80)\n    /* \"contracts/Token/Token.sol\":192:321  constructor() ERC20(\"COIN\", \"CN\", 9) {... */\n  callvalue\n  dup1\n  iszero\n  tag_1\n  jumpi\n  0x00\n  dup1\n  revert\ntag_1:\n  pop\n    /* \"contracts/Token/ERC20.sol\":2059:2257  constructor(... */\n  mload(0x40)\n  dup1\n  0x40\n  add\n  0x40\n  mstore\n  dup1\n  0x04\n  dup2\n  mstore\n  0x20\n  add\n  0x434f494e00000000000000000000000000000000000000000000000000000000\n  dup2\n  mstore\n  pop\n  mload(0x40)\n  dup1\n  0x40\n  add\n  0x40\n  mstore\n  dup1\n  0x02\n  dup2\n  mstore\n  0x20\n  add\n  0x434e000000000000000000000000000000000000000000000000000000000000\n  dup2\n  mstore\n  pop\n    /* \"contracts/Token/Token.sol\":226:227  9 */\n  0x09\n    /* \"contracts/Token/utils/Ownable.sol\":967:999  _transferOwnership(_msgSender()) */\n  tag_6\n    /* \"contracts/Token/utils/Ownable.sol\":986:998  _msgSender() */\n  tag_7\n    /* \"contracts/Token/utils/Ownable.sol\":986:996  _msgSender */\n  shl(0x20, tag_8)\n    /* \"contracts/Token/utils/Ownable.sol\":986:998  _msgSender() */\n  0x20\n  shr\n  jump\t// in\ntag_7:\n    /* \"contracts/Token/utils/Ownable.sol\":967:985  _transferOwnership */\n  shl(0x20, tag_9)\n    /* \"contracts/Token/utils/Ownable.sol\":967:999  _transferOwnership(_msgSender()) */\n  0x20\n  shr\n  jump\t// in\ntag_6:\n    /* \"contracts/Token/ERC20.sol\":2186:2191  name_ */\n  dup3\n    /* \"contracts/Token/ERC20.sol\":2178:2183  _name */\n  0x04\n    /* \"contracts/Token/ERC20.sol\":2178:2191  _name = name_ */\n  swap1\n  dup1\n  mload\n  swap1\n  0x20\n  add\n  swap1\n  tag_11\n  swap3\n  swap2\n  swap1\n  tag_12\n  jump\t// in\ntag_11:\n  pop\n    /* \"contracts/Token/ERC20.sol\":2212:2219  symbol_ */\n  dup2\n    /* \"contracts/Token/ERC20.sol\":2202:2209  _symbol */\n  0x05\n    /* \"contracts/Token/ERC20.sol\":2202:2219  _symbol = symbol_ */\n  swap1\n  dup1\n  mload\n  swap1\n  0x20\n  add\n  swap1\n  tag_13\n  swap3\n  swap2\n  swap1\n  tag_12\n  jump\t// in\ntag_13:\n  pop\n    /* \"contracts/Token/ERC20.sol\":2241:2249  decimal_ */\n  dup1\n    /* \"contracts/Token/ERC20.sol\":2230:2238  _decimal */\n  0x06\n    /* \"contracts/Token/ERC20.sol\":2230:2249  _decimal = decimal_ */\n  dup2\n  swap1\n  sstore\n  pop\n    /* \"contracts/Token/ERC20.sol\":2059:2257  constructor(... */\n  pop\n  pop\n  pop\n    /* \"contracts/Token/Token.sol\":255:274  100000000 * (10**9) */\n  0x016345785d8a0000\n    /* \"contracts/Token/Token.sol\":240:252  _totalSupply */\n  0x07\n    /* \"contracts/Token/Token.sol\":240:274  _totalSupply = 100000000 * (10**9) */\n  dup2\n  swap1\n  sstore\n  pop\n    /* \"contracts/Token/Token.sol\":285:313  _mint(owner(), _totalSupply) */\n  tag_15\n    /* \"contracts/Token/Token.sol\":291:298  owner() */\n  tag_16\n    /* \"contracts/Token/Token.sol\":291:296  owner */\n  shl(0x20, tag_17)\n    /* \"contracts/Token/Token.sol\":291:298  owner() */\n  0x20\n  shr\n  jump\t// in\ntag_16:\n    /* \"contracts/Token/Token.sol\":300:312  _totalSupply */\n  sload(0x07)\n    /* \"contracts/Token/Token.sol\":285:290  _mint */\n  shl(0x20, tag_18)\n    /* \"contracts/Token/Token.sol\":285:313  _mint(owner(), _totalSupply) */\n  0x20\n  shr\n  jump\t// in\ntag_15:\n    /* \"contracts/Token/Token.sol\":116:908  contract Token is Ownable, ERC20 {... */\n  jump(tag_19)\n    /* \"contracts/Token/utils/Context.sol\":657:755  function _msgSender() internal view virtual returns (address) {... */\ntag_8:\n    /* \"contracts/Token/utils/Context.sol\":710:717  address */\n  0x00\n    /* \"contracts/Token/utils/Context.sol\":737:747  msg.sender */\n  caller\n    /* \"contracts/Token/utils/Context.sol\":730:747  return msg.sender */\n  swap1\n  pop\n    /* \"contracts/Token/utils/Context.sol\":657:755  function _msgSender() internal view virtual returns (address) {... */\n  swap1\n  jump\t// out\n    /* \"contracts/Token/utils/Ownable.sol\":2395:2586  function _transferOwnership(address newOwner) internal virtual {... */\ntag_9:\n    /* \"contracts/Token/utils/Ownable.sol\":2469:2485  address oldOwner */\n  0x00\n    /* \"contracts/Token/utils/Ownable.sol\":2488:2494  _owner */\n  dup1\n  0x00\n  swap1\n  sload\n  swap1\n  0x0100\n  exp\n  swap1\n  div\n  0xffffffffffffffffffffffffffffffffffffffff\n  and\n    /* \"contracts/Token/utils/Ownable.sol\":2469:2494  address oldOwner = _owner */\n  swap1\n  pop\n    /* \"contracts/Token/utils/Ownable.sol\":2514:2522  newOwner */\n  dup2\n    /* \"contracts/Token/utils/Ownable.sol\":2505:2511  _owner */\n  0x00\n  dup1\n    /* \"contracts/Token/utils/Ownable.sol\":2505:2522  _owner = newOwner */\n  0x0100\n  exp\n  dup2\n  sload\n  dup2\n  0xffffffffffffffffffffffffffffffffffffffff\n  mul\n  not\n  and\n  swap1\n  dup4\n  0xffffffffffffffffffffffffffffffffffffffff\n  and\n  mul\n  or\n  swap1\n  sstore\n  pop\n    /* \"contracts/Token/utils/Ownable.sol\":2569:2577  newOwner */\n  dup2\n    /* \"contracts/Token/utils/Ownable.sol\":2538:2578  OwnershipTransferred(oldOwner, newOwner) */\n  0xffffffffffffffffffffffffffffffffffffffff\n  and\n    /* \"contracts/Token/utils/Ownable.sol\":2559:2567  oldOwner */\n  dup2\n    /* \"contracts/Token/utils/Ownable.sol\":2538:2578  OwnershipTransferred(oldOwner, newOwner) */\n  0xffffffffffffffffffffffffffffffffffffffff\n  and\n  0x8be0079c531659141344cd1fd0a4f28419497f9722a3daafe3b4186f6b6457e0\n  mload(0x40)\n  mload(0x40)\n  dup1\n  swap2\n  sub\n  swap1\n  log3\n    /* \"contracts/Token/utils/Ownable.sol\":2458:2586  {... */\n  pop\n    /* \"contracts/Token/utils/Ownable.sol\":2395:2586  function _transferOwnership(address newOwner) internal virtual {... */\n  pop\n  jump\t// out\n    /* \"contracts/Token/utils/Ownable.sol\":1088:1175  function owner() public view virtual returns (address) {... */\ntag_17:\n    /* \"contracts/Token/utils/Ownable.sol\":1134:1141  address */\n  0x00\n    /* \"contracts/Token/utils/Ownable.sol\":1161:1167  _owner */\n  dup1\n  0x00\n  swap1\n  sload\n  swap1\n  0x0100\n  exp\n  swap1\n  div\n  0xffffffffffffffffffffffffffffffffffffffff\n  and\n    /* \"contracts/Token/utils/Ownable.sol\":1154:1167  return _owner */\n  swap1\n  pop\n    /* \"contracts/Token/utils/Ownable.sol\":1088:1175  function owner() public view virtual returns (address) {... */\n  swap1\n  jump\t// out\n    /* \"contracts/Token/ERC20.sol\":9096:9495  function _mint(address account, uint256 amount) internal virtual {... */\ntag_18:\n    /* \"contracts/Token/ERC20.sol\":9199:9200  0 */\n  0x00\n    /* \"contracts/Token/ERC20.sol\":9180:9201  account != address(0) */\n  0xffffffffffffffffffffffffffffffffffffffff\n  and\n    /* \"contracts/Token/ERC20.sol\":9180:9187  account */\n  dup3\n    /* \"contracts/Token/ERC20.sol\":9180:9201  account != address(0) */\n  0xffffffffffffffffffffffffffffffffffffffff\n  and\n  sub\n    /* \"contracts/Token/ERC20.sol\":9172:9237  require(account != address(0), \"ERC20: mint to the zero address\") */\n  tag_24\n  jumpi\n  mload(0x40)\n  0x08c379a000000000000000000000000000000000000000000000000000000000\n  dup2\n  mstore\n  0x04\n  add\n  tag_25\n  swap1\n  tag_26\n  jump\t// in\ntag_25:\n  mload(0x40)\n  dup1\n  swap2\n  sub\n  swap1\n  revert\ntag_24:\n    /* \"contracts/Token/ERC20.sol\":9250:9299  _beforeTokenTransfer(address(0), account, amount) */\n  tag_27\n    /* \"contracts/Token/ERC20.sol\":9279:9280  0 */\n  0x00\n    /* \"contracts/Token/ERC20.sol\":9283:9290  account */\n  dup4\n    /* \"contracts/Token/ERC20.sol\":9292:9298  amount */\n  dup4\n    /* \"contracts/Token/ERC20.sol\":9250:9270  _beforeTokenTransfer */\n  shl(0x20, tag_28)\n    /* \"contracts/Token/ERC20.sol\":9250:9299  _beforeTokenTransfer(address(0), account, amount) */\n  0x20\n  shr\n  jump\t// in\ntag_27:\n    /* \"contracts/Token/ERC20.sol\":9328:9334  amount */\n  dup1\n    /* \"contracts/Token/ERC20.sol\":9312:9324  _totalSupply */\n  0x03\n  0x00\n    /* \"contracts/Token/ERC20.sol\":9312:9334  _totalSupply += amount */\n  dup3\n  dup3\n  sload\n  tag_29\n  swap2\n  swap1\n  tag_30\n  jump\t// in\ntag_29:\n  swap3\n  pop\n  pop\n  dup2\n  swap1\n  sstore\n  pop\n    /* \"contracts/Token/ERC20.sol\":9367:9373  amount */\n  dup1\n    /* \"contracts/Token/ERC20.sol\":9345:9354  _balances */\n  0x01\n    /* \"contracts/Token/ERC20.sol\":9345:9363  _balances[account] */\n  0x00\n    /* \"contracts/Token/ERC20.sol\":9355:9362  account */\n  dup5\n    /* \"contracts/Token/ERC20.sol\":9345:9363  _balances[account] */\n  0xffffffffffffffffffffffffffffffffffffffff\n  and\n  0xffffffffffffffffffffffffffffffffffffffff\n  and\n  dup2\n  mstore\n  0x20\n  add\n  swap1\n  dup2\n  mstore\n  0x20\n  add\n  0x00\n  keccak256\n  0x00\n    /* \"contracts/Token/ERC20.sol\":9345:9373  _balances[account] += amount */\n  dup3\n  dup3\n  sload\n  tag_31\n  swap2\n  swap1\n  tag_30\n  jump\t// in\ntag_31:\n  swap3\n  pop\n  pop\n  dup2\n  swap1\n  sstore\n  pop\n    /* \"contracts/Token/ERC20.sol\":9410:9417  account */\n  dup2\n    /* \"contracts/Token/ERC20.sol\":9389:9426  Transfer(address(0), account, amount) */\n  0xffffffffffffffffffffffffffffffffffffffff\n  and\n    /* \"contracts/Token/ERC20.sol\":9406:9407  0 */\n  0x00\n    /* \"contracts/Token/ERC20.sol\":9389:9426  Transfer(address(0), account, amount) */\n  0xffffffffffffffffffffffffffffffffffffffff\n  and\n  0xddf252ad1be2c89b69c2b068fc378daa952ba7f163c4a11628f55a4df523b3ef\n    /* \"contracts/Token/ERC20.sol\":9419:9425  amount */\n  dup4\n    /* \"contracts/Token/ERC20.sol\":9389:9426  Transfer(address(0), account, amount) */\n  mload(0x40)\n  tag_32\n  swap2\n  swap1\n  tag_33\n  jump\t// in\ntag_32:\n  mload(0x40)\n  dup1\n  swap2\n  sub\n  swap1\n  log3\n    /* \"contracts/Token/ERC20.sol\":9439:9487  _afterTokenTransfer(address(0), account, amount) */\n  tag_34\n    /* \"contracts/Token/ERC20.sol\":9467:9468  0 */\n  0x00\n    /* \"contracts/Token/ERC20.sol\":9471:9478  account */\n  dup4\n    /* \"contracts/Token/ERC20.sol\":9480:9486  amount */\n  dup4\n    /* \"contracts/Token/ERC20.sol\":9439:9458  _afterTokenTransfer */\n  shl(0x20, tag_35)\n    /* \"contracts/Token/ERC20.sol\":9439:9487  _afterTokenTransfer(address(0), account, amount) */\n  0x20\n  shr\n  jump\t// in\ntag_34:\n    /* \"contracts/Token/ERC20.sol\":9096:9495  function _mint(address account, uint256 amount) internal virtual {... */\n  pop\n  pop\n  jump\t// out\n    /* \"contracts/Token/ERC20.sol\":12630:12755  function _beforeTokenTransfer(... */\ntag_28:\n  pop\n  pop\n  pop\n  jump\t// out\n    /* \"contracts/Token/ERC20.sol\":13359:13483  function _afterTokenTransfer(... */\ntag_35:\n  pop\n  pop\n  pop\n  jump\t// out\n    /* \"contracts/Token/Token.sol\":116:908  contract Token is Ownable, ERC20 {... */\ntag_12:\n  dup3\n  dup1\n  sload\n  tag_38\n  swap1\n  tag_39\n  jump\t// in\ntag_38:\n  swap1\n  0x00\n  mstore\n  keccak256(0x00, 0x20)\n  swap1\n  0x1f\n  add\n  0x20\n  swap1\n  div\n  dup2\n  add\n  swap3\n  dup3\n  tag_41\n  jumpi\n  0x00\n  dup6\n  sstore\n  jump(tag_40)\ntag_41:\n  dup3\n  0x1f\n  lt\n  tag_42\n  jumpi\n  dup1\n  mload\n  not(0xff)\n  and\n  dup4\n  dup1\n  add\n  or\n  dup6\n  sstore\n  jump(tag_40)\ntag_42:\n  dup3\n  dup1\n  add\n  0x01\n  add\n  dup6\n  sstore\n  dup3\n  iszero\n  tag_40\n  jumpi\n  swap2\n  dup3\n  add\ntag_43:\n  dup3\n  dup2\n  gt\n  iszero\n  tag_44\n  jumpi\n  dup3\n  mload\n  dup3\n  sstore\n  swap2\n  0x20\n  add\n  swap2\n  swap1\n  0x01\n  add\n  swap1\n  jump(tag_43)\ntag_44:\ntag_40:\n  pop\n  swap1\n  pop\n  tag_45\n  swap2\n  swap1\n  tag_46\n  jump\t// in\ntag_45:\n  pop\n  swap1\n  jump\t// out\ntag_46:\ntag_47:\n  dup1\n  dup3\n  gt\n  iszero\n  tag_48\n  jumpi\n  0x00\n  dup2\n  0x00\n  swap1\n  sstore\n  pop\n  0x01\n  add\n  jump(tag_47)\ntag_48:\n  pop\n  swap1\n  jump\t// out\n    /* \"#utility.yul\":7:176   */\ntag_49:\n    /* \"#utility.yul\":91:102   */\n  0x00\n    /* \"#utility.yul\":125:131   */\n  dup3\n    /* \"#utility.yul\":120:123   */\n  dup3\n    /* \"#utility.yul\":113:132   */\n  mstore\n    /* \"#utility.yul\":165:169   */\n  0x20\n    /* \"#utility.yul\":160:163   */\n  dup3\n    /* \"#utility.yul\":156:170   */\n  add\n    /* \"#utility.yul\":141:170   */\n  swap1\n  pop\n    /* \"#utility.yul\":7:176   */\n  swap3\n  swap2\n  pop\n  pop\n  jump\t// out\n    /* \"#utility.yul\":182:363   */\ntag_50:\n    /* \"#utility.yul\":322:355   */\n  0x45524332303a206d696e7420746f20746865207a65726f206164647265737300\n    /* \"#utility.yul\":318:319   */\n  0x00\n    /* \"#utility.yul\":310:316   */\n  dup3\n    /* \"#utility.yul\":306:320   */\n  add\n    /* \"#utility.yul\":299:356   */\n  mstore\n    /* \"#utility.yul\":182:363   */\n  pop\n  jump\t// out\n    /* \"#utility.yul\":369:735   */\ntag_51:\n    /* \"#utility.yul\":511:514   */\n  0x00\n    /* \"#utility.yul\":532:599   */\n  tag_60\n    /* \"#utility.yul\":596:598   */\n  0x1f\n    /* \"#utility.yul\":591:594   */\n  dup4\n    /* \"#utility.yul\":532:599   */\n  tag_49\n  jump\t// in\ntag_60:\n    /* \"#utility.yul\":525:599   */\n  swap2\n  pop\n    /* \"#utility.yul\":608:701   */\n  tag_61\n    /* \"#utility.yul\":697:700   */\n  dup3\n    /* \"#utility.yul\":608:701   */\n  tag_50\n  jump\t// in\ntag_61:\n    /* \"#utility.yul\":726:728   */\n  0x20\n    /* \"#utility.yul\":721:724   */\n  dup3\n    /* \"#utility.yul\":717:729   */\n  add\n    /* \"#utility.yul\":710:729   */\n  swap1\n  pop\n    /* \"#utility.yul\":369:735   */\n  swap2\n  swap1\n  pop\n  jump\t// out\n    /* \"#utility.yul\":741:1160   */\ntag_26:\n    /* \"#utility.yul\":907:911   */\n  0x00\n    /* \"#utility.yul\":945:947   */\n  0x20\n    /* \"#utility.yul\":934:943   */\n  dup3\n    /* \"#utility.yul\":930:948   */\n  add\n    /* \"#utility.yul\":922:948   */\n  swap1\n  pop\n    /* \"#utility.yul\":994:1003   */\n  dup2\n    /* \"#utility.yul\":988:992   */\n  dup2\n    /* \"#utility.yul\":984:1004   */\n  sub\n    /* \"#utility.yul\":980:981   */\n  0x00\n    /* \"#utility.yul\":969:978   */\n  dup4\n    /* \"#utility.yul\":965:982   */\n  add\n    /* \"#utility.yul\":958:1005   */\n  mstore\n    /* \"#utility.yul\":1022:1153   */\n  tag_63\n    /* \"#utility.yul\":1148:1152   */\n  dup2\n    /* \"#utility.yul\":1022:1153   */\n  tag_51\n  jump\t// in\ntag_63:\n    /* \"#utility.yul\":1014:1153   */\n  swap1\n  pop\n    /* \"#utility.yul\":741:1160   */\n  swap2\n  swap1\n  pop\n  jump\t// out\n    /* \"#utility.yul\":1166:1243   */\ntag_52:\n    /* \"#utility.yul\":1203:1210   */\n  0x00\n    /* \"#utility.yul\":1232:1237   */\n  dup2\n    /* \"#utility.yul\":1221:1237   */\n  swap1\n  pop\n    /* \"#utility.yul\":1166:1243   */\n  swap2\n  swap1\n  pop\n  jump\t// out\n    /* \"#utility.yul\":1249:1429   */\ntag_53:\n    /* \"#utility.yul\":1297:1374   */\n  0x4e487b7100000000000000000000000000000000000000000000000000000000\n    /* \"#utility.yul\":1294:1295   */\n  0x00\n    /* \"#utility.yul\":1287:1375   */\n  mstore\n    /* \"#utility.yul\":1394:1398   */\n  0x11\n    /* \"#utility.yul\":1391:1392   */\n  0x04\n    /* \"#utility.yul\":1384:1399   */\n  mstore\n    /* \"#utility.yul\":1418:1422   */\n  0x24\n    /* \"#utility.yul\":1415:1416   */\n  0x00\n    /* \"#utility.yul\":1408:1423   */\n  revert\n    /* \"#utility.yul\":1435:1740   */\ntag_30:\n    /* \"#utility.yul\":1475:1478   */\n  0x00\n    /* \"#utility.yul\":1494:1514   */\n  tag_67\n    /* \"#utility.yul\":1512:1513   */\n  dup3\n    /* \"#utility.yul\":1494:1514   */\n  tag_52\n  jump\t// in\ntag_67:\n    /* \"#utility.yul\":1489:1514   */\n  swap2\n  pop\n    /* \"#utility.yul\":1528:1548   */\n  tag_68\n    /* \"#utility.yul\":1546:1547   */\n  dup4\n    /* \"#utility.yul\":1528:1548   */\n  tag_52\n  jump\t// in\ntag_68:\n    /* \"#utility.yul\":1523:1548   */\n  swap3\n  pop\n    /* \"#utility.yul\":1682:1683   */\n  dup3\n    /* \"#utility.yul\":1614:1680   */\n  0xffffffffffffffffffffffffffffffffffffffffffffffffffffffffffffffff\n    /* \"#utility.yul\":1610:1684   */\n  sub\n    /* \"#utility.yul\":1607:1608   */\n  dup3\n    /* \"#utility.yul\":1604:1685   */\n  gt\n    /* \"#utility.yul\":1601:1708   */\n  iszero\n  tag_69\n  jumpi\n    /* \"#utility.yul\":1688:1706   */\n  tag_70\n  tag_53\n  jump\t// in\ntag_70:\n    /* \"#utility.yul\":1601:1708   */\ntag_69:\n    /* \"#utility.yul\":1732:1733   */\n  dup3\n    /* \"#utility.yul\":1729:1730   */\n  dup3\n    /* \"#utility.yul\":1725:1734   */\n  add\n    /* \"#utility.yul\":1718:1734   */\n  swap1\n  pop\n    /* \"#utility.yul\":1435:1740   */\n  swap3\n  swap2\n  pop\n  pop\n  jump\t// out\n    /* \"#utility.yul\":1746:1864   */\ntag_54:\n    /* \"#utility.yul\":1833:1857   */\n  tag_72\n    /* \"#utility.yul\":1851:1856   */\n  dup2\n    /* \"#utility.yul\":1833:1857   */\n  tag_52\n  jump\t// in\ntag_72:\n    /* \"#utility.yul\":1828:1831   */\n  dup3\n    /* \"#utility.yul\":1821:1858   */\n  mstore\n    /* \"#utility.yul\":1746:1864   */\n  pop\n  pop\n  jump\t// out\n    /* \"#utility.yul\":1870:2092   */\ntag_33:\n    /* \"#utility.yul\":1963:1967   */\n  0x00\n    /* \"#utility.yul\":2001:2003   */\n  0x20\n    /* \"#utility.yul\":1990:1999   */\n  dup3\n    /* \"#utility.yul\":1986:2004   */\n  add\n    /* \"#utility.yul\":1978:2004   */\n  swap1\n  pop\n    /* \"#utility.yul\":2014:2085   */\n  tag_74\n    /* \"#utility.yul\":2082:2083   */\n  0x00\n    /* \"#utility.yul\":2071:2080   */\n  dup4\n    /* \"#utility.yul\":2067:2084   */\n  add\n    /* \"#utility.yul\":2058:2064   */\n  dup5\n    /* \"#utility.yul\":2014:2085   */\n  tag_54\n  jump\t// in\ntag_74:\n    /* \"#utility.yul\":1870:2092   */\n  swap3\n  swap2\n  pop\n  pop\n  jump\t// out\n    /* \"#utility.yul\":2098:2278   */\ntag_55:\n    /* \"#utility.yul\":2146:2223   */\n  0x4e487b7100000000000000000000000000000000000000000000000000000000\n    /* \"#utility.yul\":2143:2144   */\n  0x00\n    /* \"#utility.yul\":2136:2224   */\n  mstore\n    /* \"#utility.yul\":2243:2247   */\n  0x22\n    /* \"#utility.yul\":2240:2241   */\n  0x04\n    /* \"#utility.yul\":2233:2248   */\n  mstore\n    /* \"#utility.yul\":2267:2271   */\n  0x24\n    /* \"#utility.yul\":2264:2265   */\n  0x00\n    /* \"#utility.yul\":2257:2272   */\n  revert\n    /* \"#utility.yul\":2284:2604   */\ntag_39:\n    /* \"#utility.yul\":2328:2334   */\n  0x00\n    /* \"#utility.yul\":2365:2366   */\n  0x02\n    /* \"#utility.yul\":2359:2363   */\n  dup3\n    /* \"#utility.yul\":2355:2367   */\n  div\n    /* \"#utility.yul\":2345:2367   */\n  swap1\n  pop\n    /* \"#utility.yul\":2412:2413   */\n  0x01\n    /* \"#utility.yul\":2406:2410   */\n  dup3\n    /* \"#utility.yul\":2402:2414   */\n  and\n    /* \"#utility.yul\":2433:2451   */\n  dup1\n    /* \"#utility.yul\":2423:2504   */\n  tag_77\n  jumpi\n    /* \"#utility.yul\":2489:2493   */\n  0x7f\n    /* \"#utility.yul\":2481:2487   */\n  dup3\n    /* \"#utility.yul\":2477:2494   */\n  and\n    /* \"#utility.yul\":2467:2494   */\n  swap2\n  pop\n    /* \"#utility.yul\":2423:2504   */\ntag_77:\n    /* \"#utility.yul\":2551:2553   */\n  0x20\n    /* \"#utility.yul\":2543:2549   */\n  dup3\n    /* \"#utility.yul\":2540:2554   */\n  lt\n    /* \"#utility.yul\":2520:2538   */\n  dup2\n    /* \"#utility.yul\":2517:2555   */\n  sub\n    /* \"#utility.yul\":2514:2598   */\n  tag_78\n  jumpi\n    /* \"#utility.yul\":2570:2588   */\n  tag_79\n  tag_55\n  jump\t// in\ntag_79:\n    /* \"#utility.yul\":2514:2598   */\ntag_78:\n    /* \"#utility.yul\":2335:2604   */\n  pop\n    /* \"#utility.yul\":2284:2604   */\n  swap2\n  swap1\n  pop\n  jump\t// out\n    /* \"contracts/Token/Token.sol\":116:908  contract Token is Ownable, ERC20 {... */\ntag_19:\n  dataSize(sub_0)\n  dup1\n  dataOffset(sub_0)\n  0x00\n  codecopy\n  0x00\n  return\nstop\n\nsub_0: assembly {\n        /* \"contracts/Token/Token.sol\":116:908  contract Token is Ownable, ERC20 {... */\n      mstore(0x40, 0x80)\n      callvalue\n      dup1\n      iszero\n      tag_1\n      jumpi\n      0x00\n      dup1\n      revert\n    tag_1:\n      pop\n      jumpi(tag_2, lt(calldatasize, 0x04))\n      shr(0xe0, calldataload(0x00))\n      dup1\n      0x8da5cb5b\n      gt\n      tag_23\n      jumpi\n      dup1\n      0xb45ee9ef\n      gt\n      tag_24\n      jumpi\n      dup1\n      0xb45ee9ef\n      eq\n      tag_18\n      jumpi\n      dup1\n      0xdd62ed3e\n      eq\n      tag_19\n      jumpi\n      dup1\n      0xe3d670d7\n      eq\n      tag_20\n      jumpi\n      dup1\n      0xf2fde38b\n      eq\n      tag_21\n      jumpi\n      dup1\n      0xf6cd9f0e\n      eq\n      tag_22\n      jumpi\n      jump(tag_2)\n    tag_24:\n      dup1\n      0x8da5cb5b\n      eq\n      tag_13\n      jumpi\n      dup1\n      0x95d89b41\n      eq\n      tag_14\n      jumpi\n      dup1\n      0x9dc29fac\n      eq\n      tag_15\n      jumpi\n      dup1\n      0xa457c2d7\n      eq\n      tag_16\n      jumpi\n      dup1\n      0xa9059cbb\n      eq\n      tag_17\n      jumpi\n      jump(tag_2)\n    tag_23:\n      dup1\n      0x39509351\n      gt\n      tag_25\n      jumpi\n      dup1\n      0x39509351\n      eq\n      tag_8\n      jumpi\n      dup1\n      0x3eaaf86b\n      eq\n      tag_9\n      jumpi\n      dup1\n      0x40c10f19\n      eq\n      tag_10\n      jumpi\n      dup1\n      0x70a08231\n      eq\n      tag_11\n      jumpi\n      dup1\n      0x715018a6\n      eq\n      tag_12\n      jumpi\n      jump(tag_2)\n    tag_25:\n      dup1\n      0x06fdde03\n      eq\n      tag_3\n      jumpi\n      dup1\n      0x095ea7b3\n      eq\n      tag_4\n      jumpi\n      dup1\n      0x18160ddd\n      eq\n      tag_5\n      jumpi\n      dup1\n      0x23b872dd\n      eq\n      tag_6\n      jumpi\n      dup1\n      0x313ce567\n      eq\n      tag_7\n      jumpi\n    tag_2:\n      0x00\n      dup1\n      revert\n        /* \"contracts/Token/ERC20.sol\":2327:2427  function name() public view virtual override returns (string memory) {... */\n    tag_3:\n      tag_26\n      tag_27\n      jump\t// in\n    tag_26:\n      mload(0x40)\n      tag_28\n      swap2\n      swap1\n      tag_29\n      jump\t// in\n    tag_28:\n      mload(0x40)\n      dup1\n      swap2\n      sub\n      swap1\n      return\n        /* \"contracts/Token/ERC20.sol\":4818:5060  function approve(address spender, uint256 amount)... */\n    tag_4:\n      tag_30\n      0x04\n      dup1\n      calldatasize\n      sub\n      dup2\n      add\n      swap1\n      tag_31\n      swap2\n      swap1\n      tag_32\n      jump\t// in\n    tag_31:\n      tag_33\n      jump\t// in\n    tag_30:\n      mload(0x40)\n      tag_34\n      swap2\n      swap1\n      tag_35\n      jump\t// in\n    tag_34:\n      mload(0x40)\n      dup1\n      swap2\n      sub\n      swap1\n      return\n        /* \"contracts/Token/ERC20.sol\":3446:3554  function totalSupply() public view virtual override returns (uint256) {... */\n    tag_5:\n      tag_36\n      tag_37\n      jump\t// in\n    tag_36:\n      mload(0x40)\n      tag_38\n      swap2\n      swap1\n      tag_39\n      jump\t// in\n    tag_38:\n      mload(0x40)\n      dup1\n      swap2\n      sub\n      swap1\n      return\n        /* \"contracts/Token/ERC20.sol\":5640:5935  function transferFrom(... */\n    tag_6:\n      tag_40\n      0x04\n      dup1\n      calldatasize\n      sub\n      dup2\n      add\n      swap1\n      tag_41\n      swap2\n      swap1\n      tag_42\n      jump\t// in\n    tag_41:\n      tag_43\n      jump\t// in\n    tag_40:\n      mload(0x40)\n      tag_44\n      swap2\n      swap1\n      tag_35\n      jump\t// in\n    tag_44:\n      mload(0x40)\n      dup1\n      swap2\n      sub\n      swap1\n      return\n        /* \"contracts/Token/ERC20.sol\":3289:3381  function decimals() public view virtual override returns (uint8) {... */\n    tag_7:\n      tag_45\n      tag_46\n      jump\t// in\n    tag_45:\n      mload(0x40)\n      tag_47\n      swap2\n      swap1\n      tag_48\n      jump\t// in\n    tag_47:\n      mload(0x40)\n      dup1\n      swap2\n      sub\n      swap1\n      return\n        /* \"contracts/Token/ERC20.sol\":6344:6614  function increaseAllowance(address spender, uint256 addedValue)... */\n    tag_8:\n      tag_49\n      0x04\n      dup1\n      calldatasize\n      sub\n      dup2\n      add\n      swap1\n      tag_50\n      swap2\n      swap1\n      tag_32\n      jump\t// in\n    tag_50:\n      tag_51\n      jump\t// in\n    tag_49:\n      mload(0x40)\n      tag_52\n      swap2\n      swap1\n      tag_35\n      jump\t// in\n    tag_52:\n      mload(0x40)\n      dup1\n      swap2\n      sub\n      swap1\n      return\n        /* \"contracts/Token/Token.sol\":156:183  uint256 public _totalSupply */\n    tag_9:\n      tag_53\n      tag_54\n      jump\t// in\n    tag_53:\n      mload(0x40)\n      tag_55\n      swap2\n      swap1\n      tag_39\n      jump\t// in\n    tag_55:\n      mload(0x40)\n      dup1\n      swap2\n      sub\n      swap1\n      return\n        /* \"contracts/Token/Token.sol\":707:802  function mint(address account, uint256 amount) public {... */\n    tag_10:\n      tag_56\n      0x04\n      dup1\n      calldatasize\n      sub\n      dup2\n      add\n      swap1\n      tag_57\n      swap2\n      swap1\n      tag_32\n      jump\t// in\n    tag_57:\n      tag_58\n      jump\t// in\n    tag_56:\n      stop\n        /* \"contracts/Token/ERC20.sol\":3617:3794  function balanceOf(address account)... */\n    tag_11:\n      tag_59\n      0x04\n      dup1\n      calldatasize\n      sub\n      dup2\n      add\n      swap1\n      tag_60\n      swap2\n      swap1\n      tag_61\n      jump\t// in\n    tag_60:\n      tag_62\n      jump\t// in\n    tag_59:\n      mload(0x40)\n      tag_63\n      swap2\n      swap1\n      tag_39\n      jump\t// in\n    tag_63:\n      mload(0x40)\n      dup1\n      swap2\n      sub\n      swap1\n      return\n        /* \"contracts/Token/utils/Ownable.sol\":1739:1842  function renounceOwnership() public virtual onlyOwner {... */\n    tag_12:\n      tag_64\n      tag_65\n      jump\t// in\n    tag_64:\n      stop\n        /* \"contracts/Token/utils/Ownable.sol\":1088:1175  function owner() public view virtual returns (address) {... */\n    tag_13:\n      tag_66\n      tag_67\n      jump\t// in\n    tag_66:\n      mload(0x40)\n      tag_68\n      swap2\n      swap1\n      tag_69\n      jump\t// in\n    tag_68:\n      mload(0x40)\n      dup1\n      swap2\n      sub\n      swap1\n      return\n        /* \"contracts/Token/ERC20.sol\":2546:2650  function symbol() public view virtual override returns (string memory) {... */\n    tag_14:\n      tag_70\n      tag_71\n      jump\t// in\n    tag_70:\n      mload(0x40)\n      tag_72\n      swap2\n      swap1\n      tag_29\n      jump\t// in\n    tag_72:\n      mload(0x40)\n      dup1\n      swap2\n      sub\n      swap1\n      return\n        /* \"contracts/Token/Token.sol\":810:905  function burn(address account, uint256 amount) public {... */\n    tag_15:\n      tag_73\n      0x04\n      dup1\n      calldatasize\n      sub\n      dup2\n      add\n      swap1\n      tag_74\n      swap2\n      swap1\n      tag_32\n      jump\t// in\n    tag_74:\n      tag_75\n      jump\t// in\n    tag_73:\n      stop\n        /* \"contracts/Token/ERC20.sol\":7117:7622  function decreaseAllowance(address spender, uint256 subtractedValue)... */\n    tag_16:\n      tag_76\n      0x04\n      dup1\n      calldatasize\n      sub\n      dup2\n      add\n      swap1\n      tag_77\n      swap2\n      swap1\n      tag_32\n      jump\t// in\n    tag_77:\n      tag_78\n      jump\t// in\n    tag_76:\n      mload(0x40)\n      tag_79\n      swap2\n      swap1\n      tag_35\n      jump\t// in\n    tag_79:\n      mload(0x40)\n      dup1\n      swap2\n      sub\n      swap1\n      return\n        /* \"contracts/Token/ERC20.sol\":4000:4234  function transfer(address to, uint256 amount)... */\n    tag_17:\n      tag_80\n      0x04\n      dup1\n      calldatasize\n      sub\n      dup2\n      add\n      swap1\n      tag_81\n      swap2\n      swap1\n      tag_32\n      jump\t// in\n    tag_81:\n      tag_82\n      jump\t// in\n    tag_80:\n      mload(0x40)\n      tag_83\n      swap2\n      swap1\n      tag_35\n      jump\t// in\n    tag_83:\n      mload(0x40)\n      dup1\n      swap2\n      sub\n      swap1\n      return\n        /* \"contracts/Token/Token.sol\":445:597  function transferPrice(... */\n    tag_18:\n      tag_84\n      0x04\n      dup1\n      calldatasize\n      sub\n      dup2\n      add\n      swap1\n      tag_85\n      swap2\n      swap1\n      tag_42\n      jump\t// in\n    tag_85:\n      tag_86\n      jump\t// in\n    tag_84:\n      stop\n        /* \"contracts/Token/ERC20.sol\":4297:4498  function allowance(address owner, address spender)... */\n    tag_19:\n      tag_87\n      0x04\n      dup1\n      calldatasize\n      sub\n      dup2\n      add\n      swap1\n      tag_88\n      swap2\n      swap1\n      tag_89\n      jump\t// in\n    tag_88:\n      tag_90\n      jump\t// in\n    tag_87:\n      mload(0x40)\n      tag_91\n      swap2\n      swap1\n      tag_39\n      jump\t// in\n    tag_91:\n      mload(0x40)\n      dup1\n      swap2\n      sub\n      swap1\n      return\n        /* \"contracts/Token/Token.sol\":329:437  function balance(address account) public view returns (uint256) {... */\n    tag_20:\n      tag_92\n      0x04\n      dup1\n      calldatasize\n      sub\n      dup2\n      add\n      swap1\n      tag_93\n      swap2\n      swap1\n      tag_61\n      jump\t// in\n    tag_93:\n      tag_94\n      jump\t// in\n    tag_92:\n      mload(0x40)\n      tag_95\n      swap2\n      swap1\n      tag_39\n      jump\t// in\n    tag_95:\n      mload(0x40)\n      dup1\n      swap2\n      sub\n      swap1\n      return\n        /* \"contracts/Token/utils/Ownable.sol\":1997:2235  function transferOwnership(address newOwner) public virtual onlyOwner {... */\n    tag_21:\n      tag_96\n      0x04\n      dup1\n      calldatasize\n      sub\n      dup2\n      add\n      swap1\n      tag_97\n      swap2\n      swap1\n      tag_61\n      jump\t// in\n    tag_97:\n      tag_98\n      jump\t// in\n    tag_96:\n      stop\n        /* \"contracts/Token/Token.sol\":605:699  function transferTO(address to, uint256 amount) public {... */\n    tag_22:\n      tag_99\n      0x04\n      dup1\n      calldatasize\n      sub\n      dup2\n      add\n      swap1\n      tag_100\n      swap2\n      swap1\n      tag_32\n      jump\t// in\n    tag_100:\n      tag_101\n      jump\t// in\n    tag_99:\n      stop\n        /* \"contracts/Token/ERC20.sol\":2327:2427  function name() public view virtual override returns (string memory) {... */\n    tag_27:\n        /* \"contracts/Token/ERC20.sol\":2381:2394  string memory */\n      0x60\n        /* \"contracts/Token/ERC20.sol\":2414:2419  _name */\n      0x04\n        /* \"contracts/Token/ERC20.sol\":2407:2419  return _name */\n      dup1\n      sload\n      tag_103\n      swap1\n      tag_104\n      jump\t// in\n    tag_103:\n      dup1\n      0x1f\n      add\n      0x20\n      dup1\n      swap2\n      div\n      mul\n      0x20\n      add\n      mload(0x40)\n      swap1\n      dup2\n      add\n      0x40\n      mstore\n      dup1\n      swap3\n      swap2\n      swap1\n      dup2\n      dup2\n      mstore\n      0x20\n      add\n      dup3\n      dup1\n      sload\n      tag_105\n      swap1\n      tag_104\n      jump\t// in\n    tag_105:\n      dup1\n      iszero\n      tag_106\n      jumpi\n      dup1\n      0x1f\n      lt\n      tag_107\n      jumpi\n      0x0100\n      dup1\n      dup4\n      sload\n      div\n      mul\n      dup4\n      mstore\n      swap2\n      0x20\n      add\n      swap2\n      jump(tag_106)\n    tag_107:\n      dup3\n      add\n      swap2\n      swap1\n      0x00\n      mstore\n      keccak256(0x00, 0x20)\n      swap1\n    tag_108:\n      dup2\n      sload\n      dup2\n      mstore\n      swap1\n      0x01\n      add\n      swap1\n      0x20\n      add\n      dup1\n      dup4\n      gt\n      tag_108\n      jumpi\n      dup3\n      swap1\n      sub\n      0x1f\n      and\n      dup3\n      add\n      swap2\n    tag_106:\n      pop\n      pop\n      pop\n      pop\n      pop\n      swap1\n      pop\n        /* \"contracts/Token/ERC20.sol\":2327:2427  function name() public view virtual override returns (string memory) {... */\n      swap1\n      jump\t// out\n        /* \"contracts/Token/ERC20.sol\":4818:5060  function approve(address spender, uint256 amount)... */\n    tag_33:\n        /* \"contracts/Token/ERC20.sol\":4937:4941  bool */\n      0x00\n        /* \"contracts/Token/ERC20.sol\":4959:4972  address owner */\n      dup1\n        /* \"contracts/Token/ERC20.sol\":4975:4987  _msgSender() */\n      tag_110\n        /* \"contracts/Token/ERC20.sol\":4975:4985  _msgSender */\n      tag_111\n        /* \"contracts/Token/ERC20.sol\":4975:4987  _msgSender() */\n      jump\t// in\n    tag_110:\n        /* \"contracts/Token/ERC20.sol\":4959:4987  address owner = _msgSender() */\n      swap1\n      pop\n        /* \"contracts/Token/ERC20.sol\":4998:5030  _approve(owner, spender, amount) */\n      tag_112\n        /* \"contracts/Token/ERC20.sol\":5007:5012  owner */\n      dup2\n        /* \"contracts/Token/ERC20.sol\":5014:5021  spender */\n      dup6\n        /* \"contracts/Token/ERC20.sol\":5023:5029  amount */\n      dup6\n        /* \"contracts/Token/ERC20.sol\":4998:5006  _approve */\n      tag_113\n        /* \"contracts/Token/ERC20.sol\":4998:5030  _approve(owner, spender, amount) */\n      jump\t// in\n    tag_112:\n        /* \"contracts/Token/ERC20.sol\":5048:5052  true */\n      0x01\n        /* \"contracts/Token/ERC20.sol\":5041:5052  return true */\n      swap2\n      pop\n      pop\n        /* \"contracts/Token/ERC20.sol\":4818:5060  function approve(address spender, uint256 amount)... */\n      swap3\n      swap2\n      pop\n      pop\n      jump\t// out\n        /* \"contracts/Token/ERC20.sol\":3446:3554  function totalSupply() public view virtual override returns (uint256) {... */\n    tag_37:\n        /* \"contracts/Token/ERC20.sol\":3507:3514  uint256 */\n      0x00\n        /* \"contracts/Token/ERC20.sol\":3534:3546  _totalSupply */\n      sload(0x03)\n        /* \"contracts/Token/ERC20.sol\":3527:3546  return _totalSupply */\n      swap1\n      pop\n        /* \"contracts/Token/ERC20.sol\":3446:3554  function totalSupply() public view virtual override returns (uint256) {... */\n      swap1\n      jump\t// out\n        /* \"contracts/Token/ERC20.sol\":5640:5935  function transferFrom(... */\n    tag_43:\n        /* \"contracts/Token/ERC20.sol\":5771:5775  bool */\n      0x00\n        /* \"contracts/Token/ERC20.sol\":5788:5803  address spender */\n      dup1\n        /* \"contracts/Token/ERC20.sol\":5806:5818  _msgSender() */\n      tag_116\n        /* \"contracts/Token/ERC20.sol\":5806:5816  _msgSender */\n      tag_111\n        /* \"contracts/Token/ERC20.sol\":5806:5818  _msgSender() */\n      jump\t// in\n    tag_116:\n        /* \"contracts/Token/ERC20.sol\":5788:5818  address spender = _msgSender() */\n      swap1\n      pop\n        /* \"contracts/Token/ERC20.sol\":5829:5867  _spendAllowance(from, spender, amount) */\n      tag_117\n        /* \"contracts/Token/ERC20.sol\":5845:5849  from */\n      dup6\n        /* \"contracts/Token/ERC20.sol\":5851:5858  spender */\n      dup3\n        /* \"contracts/Token/ERC20.sol\":5860:5866  amount */\n      dup6\n        /* \"contracts/Token/ERC20.sol\":5829:5844  _spendAllowance */\n      tag_118\n        /* \"contracts/Token/ERC20.sol\":5829:5867  _spendAllowance(from, spender, amount) */\n      jump\t// in\n    tag_117:\n        /* \"contracts/Token/ERC20.sol\":5878:5905  _transfer(from, to, amount) */\n      tag_119\n        /* \"contracts/Token/ERC20.sol\":5888:5892  from */\n      dup6\n        /* \"contracts/Token/ERC20.sol\":5894:5896  to */\n      dup6\n        /* \"contracts/Token/ERC20.sol\":5898:5904  amount */\n      dup6\n        /* \"contracts/Token/ERC20.sol\":5878:5887  _transfer */\n      tag_120\n        /* \"contracts/Token/ERC20.sol\":5878:5905  _transfer(from, to, amount) */\n      jump\t// in\n    tag_119:\n        /* \"contracts/Token/ERC20.sol\":5923:5927  true */\n      0x01\n        /* \"contracts/Token/ERC20.sol\":5916:5927  return true */\n      swap2\n      pop\n      pop\n        /* \"contracts/Token/ERC20.sol\":5640:5935  function transferFrom(... */\n      swap4\n      swap3\n      pop\n      pop\n      pop\n      jump\t// out\n        /* \"contracts/Token/ERC20.sol\":3289:3381  function decimals() public view virtual override returns (uint8) {... */\n    tag_46:\n        /* \"contracts/Token/ERC20.sol\":3347:3352  uint8 */\n      0x00\n        /* \"contracts/Token/ERC20.sol\":3372:3373  9 */\n      0x09\n        /* \"contracts/Token/ERC20.sol\":3365:3373  return 9 */\n      swap1\n      pop\n        /* \"contracts/Token/ERC20.sol\":3289:3381  function decimals() public view virtual override returns (uint8) {... */\n      swap1\n      jump\t// out\n        /* \"contracts/Token/ERC20.sol\":6344:6614  function increaseAllowance(address spender, uint256 addedValue)... */\n    tag_51:\n        /* \"contracts/Token/ERC20.sol\":6459:6463  bool */\n      0x00\n        /* \"contracts/Token/ERC20.sol\":6481:6494  address owner */\n      dup1\n        /* \"contracts/Token/ERC20.sol\":6497:6509  _msgSender() */\n      tag_123\n        /* \"contracts/Token/ERC20.sol\":6497:6507  _msgSender */\n      tag_111\n        /* \"contracts/Token/ERC20.sol\":6497:6509  _msgSender() */\n      jump\t// in\n    tag_123:\n        /* \"contracts/Token/ERC20.sol\":6481:6509  address owner = _msgSender() */\n      swap1\n      pop\n        /* \"contracts/Token/ERC20.sol\":6520:6584  _approve(owner, spender, allowance(owner, spender) + addedValue) */\n      tag_124\n        /* \"contracts/Token/ERC20.sol\":6529:6534  owner */\n      dup2\n        /* \"contracts/Token/ERC20.sol\":6536:6543  spender */\n      dup6\n        /* \"contracts/Token/ERC20.sol\":6573:6583  addedValue */\n      dup6\n        /* \"contracts/Token/ERC20.sol\":6545:6570  allowance(owner, spender) */\n      tag_125\n        /* \"contracts/Token/ERC20.sol\":6555:6560  owner */\n      dup6\n        /* \"contracts/Token/ERC20.sol\":6562:6569  spender */\n      dup10\n        /* \"contracts/Token/ERC20.sol\":6545:6554  allowance */\n      tag_90\n        /* \"contracts/Token/ERC20.sol\":6545:6570  allowance(owner, spender) */\n      jump\t// in\n    tag_125:\n        /* \"contracts/Token/ERC20.sol\":6545:6583  allowance(owner, spender) + addedValue */\n      tag_126\n      swap2\n      swap1\n      tag_127\n      jump\t// in\n    tag_126:\n        /* \"contracts/Token/ERC20.sol\":6520:6528  _approve */\n      tag_113\n        /* \"contracts/Token/ERC20.sol\":6520:6584  _approve(owner, spender, allowance(owner, spender) + addedValue) */\n      jump\t// in\n    tag_124:\n        /* \"contracts/Token/ERC20.sol\":6602:6606  true */\n      0x01\n        /* \"contracts/Token/ERC20.sol\":6595:6606  return true */\n      swap2\n      pop\n      pop\n        /* \"contracts/Token/ERC20.sol\":6344:6614  function increaseAllowance(address spender, uint256 addedValue)... */\n      swap3\n      swap2\n      pop\n      pop\n      jump\t// out\n        /* \"contracts/Token/Token.sol\":156:183  uint256 public _totalSupply */\n    tag_54:\n      sload(0x07)\n      dup2\n      jump\t// out\n        /* \"contracts/Token/Token.sol\":707:802  function mint(address account, uint256 amount) public {... */\n    tag_58:\n        /* \"contracts/Token/Token.sol\":772:794  _mint(account, amount) */\n      tag_129\n        /* \"contracts/Token/Token.sol\":778:785  account */\n      dup3\n        /* \"contracts/Token/Token.sol\":787:793  amount */\n      dup3\n        /* \"contracts/Token/Token.sol\":772:777  _mint */\n      tag_130\n        /* \"contracts/Token/Token.sol\":772:794  _mint(account, amount) */\n      jump\t// in\n    tag_129:\n        /* \"contracts/Token/Token.sol\":707:802  function mint(address account, uint256 amount) public {... */\n      pop\n      pop\n      jump\t// out\n        /* \"contracts/Token/ERC20.sol\":3617:3794  function balanceOf(address account)... */\n    tag_62:\n        /* \"contracts/Token/ERC20.sol\":3736:3743  uint256 */\n      0x00\n        /* \"contracts/Token/ERC20.sol\":3768:3777  _balances */\n      0x01\n        /* \"contracts/Token/ERC20.sol\":3768:3786  _balances[account] */\n      0x00\n        /* \"contracts/Token/ERC20.sol\":3778:3785  account */\n      dup4\n        /* \"contracts/Token/ERC20.sol\":3768:3786  _balances[account] */\n      0xffffffffffffffffffffffffffffffffffffffff\n      and\n      0xffffffffffffffffffffffffffffffffffffffff\n      and\n      dup2\n      mstore\n      0x20\n      add\n      swap1\n      dup2\n      mstore\n      0x20\n      add\n      0x00\n      keccak256\n      sload\n        /* \"contracts/Token/ERC20.sol\":3761:3786  return _balances[account] */\n      swap1\n      pop\n        /* \"contracts/Token/ERC20.sol\":3617:3794  function balanceOf(address account)... */\n      swap2\n      swap1\n      pop\n      jump\t// out\n        /* \"contracts/Token/utils/Ownable.sol\":1739:1842  function renounceOwnership() public virtual onlyOwner {... */\n    tag_65:\n        /* \"contracts/Token/utils/Ownable.sol\":1319:1331  _msgSender() */\n      tag_133\n        /* \"contracts/Token/utils/Ownable.sol\":1319:1329  _msgSender */\n      tag_111\n        /* \"contracts/Token/utils/Ownable.sol\":1319:1331  _msgSender() */\n      jump\t// in\n    tag_133:\n        /* \"contracts/Token/utils/Ownable.sol\":1308:1331  owner() == _msgSender() */\n      0xffffffffffffffffffffffffffffffffffffffff\n      and\n        /* \"contracts/Token/utils/Ownable.sol\":1308:1315  owner() */\n      tag_134\n        /* \"contracts/Token/utils/Ownable.sol\":1308:1313  owner */\n      tag_67\n        /* \"contracts/Token/utils/Ownable.sol\":1308:1315  owner() */\n      jump\t// in\n    tag_134:\n        /* \"contracts/Token/utils/Ownable.sol\":1308:1331  owner() == _msgSender() */\n      0xffffffffffffffffffffffffffffffffffffffff\n      and\n      eq\n        /* \"contracts/Token/utils/Ownable.sol\":1300:1368  require(owner() == _msgSender(), \"Ownable: caller is not the owner\") */\n      tag_135\n      jumpi\n      mload(0x40)\n      0x08c379a000000000000000000000000000000000000000000000000000000000\n      dup2\n      mstore\n      0x04\n      add\n      tag_136\n      swap1\n      tag_137\n      jump\t// in\n    tag_136:\n      mload(0x40)\n      dup1\n      swap2\n      sub\n      swap1\n      revert\n    tag_135:\n        /* \"contracts/Token/utils/Ownable.sol\":1804:1834  _transferOwnership(address(0)) */\n      tag_139\n        /* \"contracts/Token/utils/Ownable.sol\":1831:1832  0 */\n      0x00\n        /* \"contracts/Token/utils/Ownable.sol\":1804:1822  _transferOwnership */\n      tag_140\n        /* \"contracts/Token/utils/Ownable.sol\":1804:1834  _transferOwnership(address(0)) */\n      jump\t// in\n    tag_139:\n        /* \"contracts/Token/utils/Ownable.sol\":1739:1842  function renounceOwnership() public virtual onlyOwner {... */\n      jump\t// out\n        /* \"contracts/Token/utils/Ownable.sol\":1088:1175  function owner() public view virtual returns (address) {... */\n    tag_67:\n        /* \"contracts/Token/utils/Ownable.sol\":1134:1141  address */\n      0x00\n        /* \"contracts/Token/utils/Ownable.sol\":1161:1167  _owner */\n      dup1\n      0x00\n      swap1\n      sload\n      swap1\n      0x0100\n      exp\n      swap1\n      div\n      0xffffffffffffffffffffffffffffffffffffffff\n      and\n        /* \"contracts/Token/utils/Ownable.sol\":1154:1167  return _owner */\n      swap1\n      pop\n        /* \"contracts/Token/utils/Ownable.sol\":1088:1175  function owner() public view virtual returns (address) {... */\n      swap1\n      jump\t// out\n        /* \"contracts/Token/ERC20.sol\":2546:2650  function symbol() public view virtual override returns (string memory) {... */\n    tag_71:\n        /* \"contracts/Token/ERC20.sol\":2602:2615  string memory */\n      0x60\n        /* \"contracts/Token/ERC20.sol\":2635:2642  _symbol */\n      0x05\n        /* \"contracts/Token/ERC20.sol\":2628:2642  return _symbol */\n      dup1\n      sload\n      tag_143\n      swap1\n      tag_104\n      jump\t// in\n    tag_143:\n      dup1\n      0x1f\n      add\n      0x20\n      dup1\n      swap2\n      div\n      mul\n      0x20\n      add\n      mload(0x40)\n      swap1\n      dup2\n      add\n      0x40\n      mstore\n      dup1\n      swap3\n      swap2\n      swap1\n      dup2\n      dup2\n      mstore\n      0x20\n      add\n      dup3\n      dup1\n      sload\n      tag_144\n      swap1\n      tag_104\n      jump\t// in\n    tag_144:\n      dup1\n      iszero\n      tag_145\n      jumpi\n      dup1\n      0x1f\n      lt\n      tag_146\n      jumpi\n      0x0100\n      dup1\n      dup4\n      sload\n      div\n      mul\n      dup4\n      mstore\n      swap2\n      0x20\n      add\n      swap2\n      jump(tag_145)\n    tag_146:\n      dup3\n      add\n      swap2\n      swap1\n      0x00\n      mstore\n      keccak256(0x00, 0x20)\n      swap1\n    tag_147:\n      dup2\n      sload\n      dup2\n      mstore\n      swap1\n      0x01\n      add\n      swap1\n      0x20\n      add\n      dup1\n      dup4\n      gt\n      tag_147\n      jumpi\n      dup3\n      swap1\n      sub\n      0x1f\n      and\n      dup3\n      add\n      swap2\n    tag_145:\n      pop\n      pop\n      pop\n      pop\n      pop\n      swap1\n      pop\n        /* \"contracts/Token/ERC20.sol\":2546:2650  function symbol() public view virtual override returns (string memory) {... */\n      swap1\n      jump\t// out\n        /* \"contracts/Token/Token.sol\":810:905  function burn(address account, uint256 amount) public {... */\n    tag_75:\n        /* \"contracts/Token/Token.sol\":875:897  _burn(account, amount) */\n      tag_149\n        /* \"contracts/Token/Token.sol\":881:888  account */\n      dup3\n        /* \"contracts/Token/Token.sol\":890:896  amount */\n      dup3\n        /* \"contracts/Token/Token.sol\":875:880  _burn */\n      tag_150\n        /* \"contracts/Token/Token.sol\":875:897  _burn(account, amount) */\n      jump\t// in\n    tag_149:\n        /* \"contracts/Token/Token.sol\":810:905  function burn(address account, uint256 amount) public {... */\n      pop\n      pop\n      jump\t// out\n        /* \"contracts/Token/ERC20.sol\":7117:7622  function decreaseAllowance(address spender, uint256 subtractedValue)... */\n    tag_78:\n        /* \"contracts/Token/ERC20.sol\":7237:7241  bool */\n      0x00\n        /* \"contracts/Token/ERC20.sol\":7259:7272  address owner */\n      dup1\n        /* \"contracts/Token/ERC20.sol\":7275:7287  _msgSender() */\n      tag_152\n        /* \"contracts/Token/ERC20.sol\":7275:7285  _msgSender */\n      tag_111\n        /* \"contracts/Token/ERC20.sol\":7275:7287  _msgSender() */\n      jump\t// in\n    tag_152:\n        /* \"contracts/Token/ERC20.sol\":7259:7287  address owner = _msgSender() */\n      swap1\n      pop\n        /* \"contracts/Token/ERC20.sol\":7298:7322  uint256 currentAllowance */\n      0x00\n        /* \"contracts/Token/ERC20.sol\":7325:7350  allowance(owner, spender) */\n      tag_153\n        /* \"contracts/Token/ERC20.sol\":7335:7340  owner */\n      dup3\n        /* \"contracts/Token/ERC20.sol\":7342:7349  spender */\n      dup7\n        /* \"contracts/Token/ERC20.sol\":7325:7334  allowance */\n      tag_90\n        /* \"contracts/Token/ERC20.sol\":7325:7350  allowance(owner, spender) */\n      jump\t// in\n    tag_153:\n        /* \"contracts/Token/ERC20.sol\":7298:7350  uint256 currentAllowance = allowance(owner, spender) */\n      swap1\n      pop\n        /* \"contracts/Token/ERC20.sol\":7403:7418  subtractedValue */\n      dup4\n        /* \"contracts/Token/ERC20.sol\":7383:7399  currentAllowance */\n      dup2\n        /* \"contracts/Token/ERC20.sol\":7383:7418  currentAllowance >= subtractedValue */\n      lt\n      iszero\n        /* \"contracts/Token/ERC20.sol\":7361:7483  require(... */\n      tag_154\n      jumpi\n      mload(0x40)\n      0x08c379a000000000000000000000000000000000000000000000000000000000\n      dup2\n      mstore\n      0x04\n      add\n      tag_155\n      swap1\n      tag_156\n      jump\t// in\n    tag_155:\n      mload(0x40)\n      dup1\n      swap2\n      sub\n      swap1\n      revert\n    tag_154:\n        /* \"contracts/Token/ERC20.sol\":7519:7579  _approve(owner, spender, currentAllowance - subtractedValue) */\n      tag_157\n        /* \"contracts/Token/ERC20.sol\":7528:7533  owner */\n      dup3\n        /* \"contracts/Token/ERC20.sol\":7535:7542  spender */\n      dup7\n        /* \"contracts/Token/ERC20.sol\":7563:7578  subtractedValue */\n      dup7\n        /* \"contracts/Token/ERC20.sol\":7544:7560  currentAllowance */\n      dup5\n        /* \"contracts/Token/ERC20.sol\":7544:7578  currentAllowance - subtractedValue */\n      sub\n        /* \"contracts/Token/ERC20.sol\":7519:7527  _approve */\n      tag_113\n        /* \"contracts/Token/ERC20.sol\":7519:7579  _approve(owner, spender, currentAllowance - subtractedValue) */\n      jump\t// in\n    tag_157:\n        /* \"contracts/Token/ERC20.sol\":7610:7614  true */\n      0x01\n        /* \"contracts/Token/ERC20.sol\":7603:7614  return true */\n      swap3\n      pop\n      pop\n      pop\n        /* \"contracts/Token/ERC20.sol\":7117:7622  function decreaseAllowance(address spender, uint256 subtractedValue)... */\n      swap3\n      swap2\n      pop\n      pop\n      jump\t// out\n        /* \"contracts/Token/ERC20.sol\":4000:4234  function transfer(address to, uint256 amount)... */\n    tag_82:\n        /* \"contracts/Token/ERC20.sol\":4115:4119  bool */\n      0x00\n        /* \"contracts/Token/ERC20.sol\":4137:4150  address owner */\n      dup1\n        /* \"contracts/Token/ERC20.sol\":4153:4165  _msgSender() */\n      tag_159\n        /* \"contracts/Token/ERC20.sol\":4153:4163  _msgSender */\n      tag_111\n        /* \"contracts/Token/ERC20.sol\":4153:4165  _msgSender() */\n      jump\t// in\n    tag_159:\n        /* \"contracts/Token/ERC20.sol\":4137:4165  address owner = _msgSender() */\n      swap1\n      pop\n        /* \"contracts/Token/ERC20.sol\":4176:4204  _transfer(owner, to, amount) */\n      tag_160\n        /* \"contracts/Token/ERC20.sol\":4186:4191  owner */\n      dup2\n        /* \"contracts/Token/ERC20.sol\":4193:4195  to */\n      dup6\n        /* \"contracts/Token/ERC20.sol\":4197:4203  amount */\n      dup6\n        /* \"contracts/Token/ERC20.sol\":4176:4185  _transfer */\n      tag_120\n        /* \"contracts/Token/ERC20.sol\":4176:4204  _transfer(owner, to, amount) */\n      jump\t// in\n    tag_160:\n        /* \"contracts/Token/ERC20.sol\":4222:4226  true */\n      0x01\n        /* \"contracts/Token/ERC20.sol\":4215:4226  return true */\n      swap2\n      pop\n      pop\n        /* \"contracts/Token/ERC20.sol\":4000:4234  function transfer(address to, uint256 amount)... */\n      swap3\n      swap2\n      pop\n      pop\n      jump\t// out\n        /* \"contracts/Token/Token.sol\":445:597  function transferPrice(... */\n    tag_86:\n        /* \"contracts/Token/Token.sol\":562:589  _transfer(from, to, amount) */\n      tag_162\n        /* \"contracts/Token/Token.sol\":572:576  from */\n      dup4\n        /* \"contracts/Token/Token.sol\":578:580  to */\n      dup4\n        /* \"contracts/Token/Token.sol\":582:588  amount */\n      dup4\n        /* \"contracts/Token/Token.sol\":562:571  _transfer */\n      tag_120\n        /* \"contracts/Token/Token.sol\":562:589  _transfer(from, to, amount) */\n      jump\t// in\n    tag_162:\n        /* \"contracts/Token/Token.sol\":445:597  function transferPrice(... */\n      pop\n      pop\n      pop\n      jump\t// out\n        /* \"contracts/Token/ERC20.sol\":4297:4498  function allowance(address owner, address spender)... */\n    tag_90:\n        /* \"contracts/Token/ERC20.sol\":4431:4438  uint256 */\n      0x00\n        /* \"contracts/Token/ERC20.sol\":4463:4474  _allowances */\n      0x02\n        /* \"contracts/Token/ERC20.sol\":4463:4481  _allowances[owner] */\n      0x00\n        /* \"contracts/Token/ERC20.sol\":4475:4480  owner */\n      dup5\n        /* \"contracts/Token/ERC20.sol\":4463:4481  _allowances[owner] */\n      0xffffffffffffffffffffffffffffffffffffffff\n      and\n      0xffffffffffffffffffffffffffffffffffffffff\n      and\n      dup2\n      mstore\n      0x20\n      add\n      swap1\n      dup2\n      mstore\n      0x20\n      add\n      0x00\n      keccak256\n        /* \"contracts/Token/ERC20.sol\":4463:4490  _allowances[owner][spender] */\n      0x00\n        /* \"contracts/Token/ERC20.sol\":4482:4489  spender */\n      dup4\n        /* \"contracts/Token/ERC20.sol\":4463:4490  _allowances[owner][spender] */\n      0xffffffffffffffffffffffffffffffffffffffff\n      and\n      0xffffffffffffffffffffffffffffffffffffffff\n      and\n      dup2\n      mstore\n      0x20\n      add\n      swap1\n      dup2\n      mstore\n      0x20\n      add\n      0x00\n      keccak256\n      sload\n        /* \"contracts/Token/ERC20.sol\":4456:4490  return _allowances[owner][spender] */\n      swap1\n      pop\n        /* \"contracts/Token/ERC20.sol\":4297:4498  function allowance(address owner, address spender)... */\n      swap3\n      swap2\n      pop\n      pop\n      jump\t// out\n        /* \"contracts/Token/Token.sol\":329:437  function balance(address account) public view returns (uint256) {... */\n    tag_94:\n        /* \"contracts/Token/Token.sol\":384:391  uint256 */\n      0x00\n        /* \"contracts/Token/Token.sol\":411:429  balanceOf(account) */\n      tag_165\n        /* \"contracts/Token/Token.sol\":421:428  account */\n      dup3\n        /* \"contracts/Token/Token.sol\":411:420  balanceOf */\n      tag_62\n        /* \"contracts/Token/Token.sol\":411:429  balanceOf(account) */\n      jump\t// in\n    tag_165:\n        /* \"contracts/Token/Token.sol\":404:429  return balanceOf(account) */\n      swap1\n      pop\n        /* \"contracts/Token/Token.sol\":329:437  function balance(address account) public view returns (uint256) {... */\n      swap2\n      swap1\n      pop\n      jump\t// out\n        /* \"contracts/Token/utils/Ownable.sol\":1997:2235  function transferOwnership(address newOwner) public virtual onlyOwner {... */\n    tag_98:\n        /* \"contracts/Token/utils/Ownable.sol\":1319:1331  _msgSender() */\n      tag_167\n        /* \"contracts/Token/utils/Ownable.sol\":1319:1329  _msgSender */\n      tag_111\n        /* \"contracts/Token/utils/Ownable.sol\":1319:1331  _msgSender() */\n      jump\t// in\n    tag_167:\n        /* \"contracts/Token/utils/Ownable.sol\":1308:1331  owner() == _msgSender() */\n      0xffffffffffffffffffffffffffffffffffffffff\n      and\n        /* \"contracts/Token/utils/Ownable.sol\":1308:1315  owner() */\n      tag_168\n        /* \"contracts/Token/utils/Ownable.sol\":1308:1313  owner */\n      tag_67\n        /* \"contracts/Token/utils/Ownable.sol\":1308:1315  owner() */\n      jump\t// in\n    tag_168:\n        /* \"contracts/Token/utils/Ownable.sol\":1308:1331  owner() == _msgSender() */\n      0xffffffffffffffffffffffffffffffffffffffff\n      and\n      eq\n        /* \"contracts/Token/utils/Ownable.sol\":1300:1368  require(owner() == _msgSender(), \"Ownable: caller is not the owner\") */\n      tag_169\n      jumpi\n      mload(0x40)\n      0x08c379a000000000000000000000000000000000000000000000000000000000\n      dup2\n      mstore\n      0x04\n      add\n      tag_170\n      swap1\n      tag_137\n      jump\t// in\n    tag_170:\n      mload(0x40)\n      dup1\n      swap2\n      sub\n      swap1\n      revert\n    tag_169:\n        /* \"contracts/Token/utils/Ownable.sol\":2120:2121  0 */\n      0x00\n        /* \"contracts/Token/utils/Ownable.sol\":2100:2122  newOwner != address(0) */\n      0xffffffffffffffffffffffffffffffffffffffff\n      and\n        /* \"contracts/Token/utils/Ownable.sol\":2100:2108  newOwner */\n      dup2\n        /* \"contracts/Token/utils/Ownable.sol\":2100:2122  newOwner != address(0) */\n      0xffffffffffffffffffffffffffffffffffffffff\n      and\n      sub\n        /* \"contracts/Token/utils/Ownable.sol\":2078:2188  require(... */\n      tag_172\n      jumpi\n      mload(0x40)\n      0x08c379a000000000000000000000000000000000000000000000000000000000\n      dup2\n      mstore\n      0x04\n      add\n      tag_173\n      swap1\n      tag_174\n      jump\t// in\n    tag_173:\n      mload(0x40)\n      dup1\n      swap2\n      sub\n      swap1\n      revert\n    tag_172:\n        /* \"contracts/Token/utils/Ownable.sol\":2199:2227  _transferOwnership(newOwner) */\n      tag_175\n        /* \"contracts/Token/utils/Ownable.sol\":2218:2226  newOwner */\n      dup2\n        /* \"contracts/Token/utils/Ownable.sol\":2199:2217  _transferOwnership */\n      tag_140\n        /* \"contracts/Token/utils/Ownable.sol\":2199:2227  _transferOwnership(newOwner) */\n      jump\t// in\n    tag_175:\n        /* \"contracts/Token/utils/Ownable.sol\":1997:2235  function transferOwnership(address newOwner) public virtual onlyOwner {... */\n      pop\n      jump\t// out\n        /* \"contracts/Token/Token.sol\":605:699  function transferTO(address to, uint256 amount) public {... */\n    tag_101:\n        /* \"contracts/Token/Token.sol\":671:691  transfer(to, amount) */\n      tag_177\n        /* \"contracts/Token/Token.sol\":680:682  to */\n      dup3\n        /* \"contracts/Token/Token.sol\":684:690  amount */\n      dup3\n        /* \"contracts/Token/Token.sol\":671:679  transfer */\n      tag_82\n        /* \"contracts/Token/Token.sol\":671:691  transfer(to, amount) */\n      jump\t// in\n    tag_177:\n      pop\n        /* \"contracts/Token/Token.sol\":605:699  function transferTO(address to, uint256 amount) public {... */\n      pop\n      pop\n      jump\t// out\n        /* \"contracts/Token/utils/Context.sol\":657:755  function _msgSender() internal view virtual returns (address) {... */\n    tag_111:\n        /* \"contracts/Token/utils/Context.sol\":710:717  address */\n      0x00\n        /* \"contracts/Token/utils/Context.sol\":737:747  msg.sender */\n      caller\n        /* \"contracts/Token/utils/Context.sol\":730:747  return msg.sender */\n      swap1\n      pop\n        /* \"contracts/Token/utils/Context.sol\":657:755  function _msgSender() internal view virtual returns (address) {... */\n      swap1\n      jump\t// out\n        /* \"contracts/Token/ERC20.sol\":10857:11237  function _approve(... */\n    tag_113:\n        /* \"contracts/Token/ERC20.sol\":11010:11011  0 */\n      0x00\n        /* \"contracts/Token/ERC20.sol\":10993:11012  owner != address(0) */\n      0xffffffffffffffffffffffffffffffffffffffff\n      and\n        /* \"contracts/Token/ERC20.sol\":10993:10998  owner */\n      dup4\n        /* \"contracts/Token/ERC20.sol\":10993:11012  owner != address(0) */\n      0xffffffffffffffffffffffffffffffffffffffff\n      and\n      sub\n        /* \"contracts/Token/ERC20.sol\":10985:11053  require(owner != address(0), \"ERC20: approve from the zero address\") */\n      tag_180\n      jumpi\n      mload(0x40)\n      0x08c379a000000000000000000000000000000000000000000000000000000000\n      dup2\n      mstore\n      0x04\n      add\n      tag_181\n      swap1\n      tag_182\n      jump\t// in\n    tag_181:\n      mload(0x40)\n      dup1\n      swap2\n      sub\n      swap1\n      revert\n    tag_180:\n        /* \"contracts/Token/ERC20.sol\":11091:11092  0 */\n      0x00\n        /* \"contracts/Token/ERC20.sol\":11072:11093  spender != address(0) */\n      0xffffffffffffffffffffffffffffffffffffffff\n      and\n        /* \"contracts/Token/ERC20.sol\":11072:11079  spender */\n      dup3\n        /* \"contracts/Token/ERC20.sol\":11072:11093  spender != address(0) */\n      0xffffffffffffffffffffffffffffffffffffffff\n      and\n      sub\n        /* \"contracts/Token/ERC20.sol\":11064:11132  require(spender != address(0), \"ERC20: approve to the zero address\") */\n      tag_183\n      jumpi\n      mload(0x40)\n      0x08c379a000000000000000000000000000000000000000000000000000000000\n      dup2\n      mstore\n      0x04\n      add\n      tag_184\n      swap1\n      tag_185\n      jump\t// in\n    tag_184:\n      mload(0x40)\n      dup1\n      swap2\n      sub\n      swap1\n      revert\n    tag_183:\n        /* \"contracts/Token/ERC20.sol\":11175:11181  amount */\n      dup1\n        /* \"contracts/Token/ERC20.sol\":11145:11156  _allowances */\n      0x02\n        /* \"contracts/Token/ERC20.sol\":11145:11163  _allowances[owner] */\n      0x00\n        /* \"contracts/Token/ERC20.sol\":11157:11162  owner */\n      dup6\n        /* \"contracts/Token/ERC20.sol\":11145:11163  _allowances[owner] */\n      0xffffffffffffffffffffffffffffffffffffffff\n      and\n      0xffffffffffffffffffffffffffffffffffffffff\n      and\n      dup2\n      mstore\n      0x20\n      add\n      swap1\n      dup2\n      mstore\n      0x20\n      add\n      0x00\n      keccak256\n        /* \"contracts/Token/ERC20.sol\":11145:11172  _allowances[owner][spender] */\n      0x00\n        /* \"contracts/Token/ERC20.sol\":11164:11171  spender */\n      dup5\n        /* \"contracts/Token/ERC20.sol\":11145:11172  _allowances[owner][spender] */\n      0xffffffffffffffffffffffffffffffffffffffff\n      and\n      0xffffffffffffffffffffffffffffffffffffffff\n      and\n      dup2\n      mstore\n      0x20\n      add\n      swap1\n      dup2\n      mstore\n      0x20\n      add\n      0x00\n      keccak256\n        /* \"contracts/Token/ERC20.sol\":11145:11181  _allowances[owner][spender] = amount */\n      dup2\n      swap1\n      sstore\n      pop\n        /* \"contracts/Token/ERC20.sol\":11213:11220  spender */\n      dup2\n        /* \"contracts/Token/ERC20.sol\":11197:11229  Approval(owner, spender, amount) */\n      0xffffffffffffffffffffffffffffffffffffffff\n      and\n        /* \"contracts/Token/ERC20.sol\":11206:11211  owner */\n      dup4\n        /* \"contracts/Token/ERC20.sol\":11197:11229  Approval(owner, spender, amount) */\n      0xffffffffffffffffffffffffffffffffffffffff\n      and\n      0x8c5be1e5ebec7d5bd14f71427d1e84f3dd0314c0f7b2291e5b200ac8c7c3b925\n        /* \"contracts/Token/ERC20.sol\":11222:11228  amount */\n      dup4\n        /* \"contracts/Token/ERC20.sol\":11197:11229  Approval(owner, spender, amount) */\n      mload(0x40)\n      tag_186\n      swap2\n      swap1\n      tag_39\n      jump\t// in\n    tag_186:\n      mload(0x40)\n      dup1\n      swap2\n      sub\n      swap1\n      log3\n        /* \"contracts/Token/ERC20.sol\":10857:11237  function _approve(... */\n      pop\n      pop\n      pop\n      jump\t// out\n        /* \"contracts/Token/ERC20.sol\":11528:12030  function _spendAllowance(... */\n    tag_118:\n        /* \"contracts/Token/ERC20.sol\":11663:11687  uint256 currentAllowance */\n      0x00\n        /* \"contracts/Token/ERC20.sol\":11690:11715  allowance(owner, spender) */\n      tag_188\n        /* \"contracts/Token/ERC20.sol\":11700:11705  owner */\n      dup5\n        /* \"contracts/Token/ERC20.sol\":11707:11714  spender */\n      dup5\n        /* \"contracts/Token/ERC20.sol\":11690:11699  allowance */\n      tag_90\n        /* \"contracts/Token/ERC20.sol\":11690:11715  allowance(owner, spender) */\n      jump\t// in\n    tag_188:\n        /* \"contracts/Token/ERC20.sol\":11663:11715  uint256 currentAllowance = allowance(owner, spender) */\n      swap1\n      pop\n        /* \"contracts/Token/ERC20.sol\":11750:11767  type(uint256).max */\n      0xffffffffffffffffffffffffffffffffffffffffffffffffffffffffffffffff\n        /* \"contracts/Token/ERC20.sol\":11730:11746  currentAllowance */\n      dup2\n        /* \"contracts/Token/ERC20.sol\":11730:11767  currentAllowance != type(uint256).max */\n      eq\n        /* \"contracts/Token/ERC20.sol\":11726:12023  if (currentAllowance != type(uint256).max) {... */\n      tag_189\n      jumpi\n        /* \"contracts/Token/ERC20.sol\":11830:11836  amount */\n      dup2\n        /* \"contracts/Token/ERC20.sol\":11810:11826  currentAllowance */\n      dup2\n        /* \"contracts/Token/ERC20.sol\":11810:11836  currentAllowance >= amount */\n      lt\n      iszero\n        /* \"contracts/Token/ERC20.sol\":11784:11901  require(... */\n      tag_190\n      jumpi\n      mload(0x40)\n      0x08c379a000000000000000000000000000000000000000000000000000000000\n      dup2\n      mstore\n      0x04\n      add\n      tag_191\n      swap1\n      tag_192\n      jump\t// in\n    tag_191:\n      mload(0x40)\n      dup1\n      swap2\n      sub\n      swap1\n      revert\n    tag_190:\n        /* \"contracts/Token/ERC20.sol\":11945:11996  _approve(owner, spender, currentAllowance - amount) */\n      tag_193\n        /* \"contracts/Token/ERC20.sol\":11954:11959  owner */\n      dup5\n        /* \"contracts/Token/ERC20.sol\":11961:11968  spender */\n      dup5\n        /* \"contracts/Token/ERC20.sol\":11989:11995  amount */\n      dup5\n        /* \"contracts/Token/ERC20.sol\":11970:11986  currentAllowance */\n      dup5\n        /* \"contracts/Token/ERC20.sol\":11970:11995  currentAllowance - amount */\n      sub\n        /* \"contracts/Token/ERC20.sol\":11945:11953  _approve */\n      tag_113\n        /* \"contracts/Token/ERC20.sol\":11945:11996  _approve(owner, spender, currentAllowance - amount) */\n      jump\t// in\n    tag_193:\n        /* \"contracts/Token/ERC20.sol\":11726:12023  if (currentAllowance != type(uint256).max) {... */\n    tag_189:\n        /* \"contracts/Token/ERC20.sol\":11652:12030  {... */\n      pop\n        /* \"contracts/Token/ERC20.sol\":11528:12030  function _spendAllowance(... */\n      pop\n      pop\n      pop\n      jump\t// out\n        /* \"contracts/Token/ERC20.sol\":8101:8809  function _transfer(... */\n    tag_120:\n        /* \"contracts/Token/ERC20.sol\":8248:8249  0 */\n      0x00\n        /* \"contracts/Token/ERC20.sol\":8232:8250  from != address(0) */\n      0xffffffffffffffffffffffffffffffffffffffff\n      and\n        /* \"contracts/Token/ERC20.sol\":8232:8236  from */\n      dup4\n        /* \"contracts/Token/ERC20.sol\":8232:8250  from != address(0) */\n      0xffffffffffffffffffffffffffffffffffffffff\n      and\n      sub\n        /* \"contracts/Token/ERC20.sol\":8224:8292  require(from != address(0), \"ERC20: transfer from the zero address\") */\n      tag_195\n      jumpi\n      mload(0x40)\n      0x08c379a000000000000000000000000000000000000000000000000000000000\n      dup2\n      mstore\n      0x04\n      add\n      tag_196\n      swap1\n      tag_197\n      jump\t// in\n    tag_196:\n      mload(0x40)\n      dup1\n      swap2\n      sub\n      swap1\n      revert\n    tag_195:\n        /* \"contracts/Token/ERC20.sol\":8325:8326  0 */\n      0x00\n        /* \"contracts/Token/ERC20.sol\":8311:8327  to != address(0) */\n      0xffffffffffffffffffffffffffffffffffffffff\n      and\n        /* \"contracts/Token/ERC20.sol\":8311:8313  to */\n      dup3\n        /* \"contracts/Token/ERC20.sol\":8311:8327  to != address(0) */\n      0xffffffffffffffffffffffffffffffffffffffff\n      and\n      sub\n        /* \"contracts/Token/ERC20.sol\":8303:8367  require(to != address(0), \"ERC20: transfer to the zero address\") */\n      tag_198\n      jumpi\n      mload(0x40)\n      0x08c379a000000000000000000000000000000000000000000000000000000000\n      dup2\n      mstore\n      0x04\n      add\n      tag_199\n      swap1\n      tag_200\n      jump\t// in\n    tag_199:\n      mload(0x40)\n      dup1\n      swap2\n      sub\n      swap1\n      revert\n    tag_198:\n        /* \"contracts/Token/ERC20.sol\":8380:8418  _beforeTokenTransfer(from, to, amount) */\n      tag_201\n        /* \"contracts/Token/ERC20.sol\":8401:8405  from */\n      dup4\n        /* \"contracts/Token/ERC20.sol\":8407:8409  to */\n      dup4\n        /* \"contracts/Token/ERC20.sol\":8411:8417  amount */\n      dup4\n        /* \"contracts/Token/ERC20.sol\":8380:8400  _beforeTokenTransfer */\n      tag_202\n        /* \"contracts/Token/ERC20.sol\":8380:8418  _beforeTokenTransfer(from, to, amount) */\n      jump\t// in\n    tag_201:\n        /* \"contracts/Token/ERC20.sol\":8431:8450  uint256 fromBalance */\n      0x00\n        /* \"contracts/Token/ERC20.sol\":8453:8462  _balances */\n      0x01\n        /* \"contracts/Token/ERC20.sol\":8453:8468  _balances[from] */\n      0x00\n        /* \"contracts/Token/ERC20.sol\":8463:8467  from */\n      dup6\n        /* \"contracts/Token/ERC20.sol\":8453:8468  _balances[from] */\n      0xffffffffffffffffffffffffffffffffffffffff\n      and\n      0xffffffffffffffffffffffffffffffffffffffff\n      and\n      dup2\n      mstore\n      0x20\n      add\n      swap1\n      dup2\n      mstore\n      0x20\n      add\n      0x00\n      keccak256\n      sload\n        /* \"contracts/Token/ERC20.sol\":8431:8468  uint256 fromBalance = _balances[from] */\n      swap1\n      pop\n        /* \"contracts/Token/ERC20.sol\":8516:8522  amount */\n      dup2\n        /* \"contracts/Token/ERC20.sol\":8501:8512  fromBalance */\n      dup2\n        /* \"contracts/Token/ERC20.sol\":8501:8522  fromBalance >= amount */\n      lt\n      iszero\n        /* \"contracts/Token/ERC20.sol\":8479:8588  require(... */\n      tag_203\n      jumpi\n      mload(0x40)\n      0x08c379a000000000000000000000000000000000000000000000000000000000\n      dup2\n      mstore\n      0x04\n      add\n      tag_204\n      swap1\n      tag_205\n      jump\t// in\n    tag_204:\n      mload(0x40)\n      dup1\n      swap2\n      sub\n      swap1\n      revert\n    tag_203:\n        /* \"contracts/Token/ERC20.sol\":8656:8662  amount */\n      dup2\n        /* \"contracts/Token/ERC20.sol\":8642:8653  fromBalance */\n      dup2\n        /* \"contracts/Token/ERC20.sol\":8642:8662  fromBalance - amount */\n      sub\n        /* \"contracts/Token/ERC20.sol\":8624:8633  _balances */\n      0x01\n        /* \"contracts/Token/ERC20.sol\":8624:8639  _balances[from] */\n      0x00\n        /* \"contracts/Token/ERC20.sol\":8634:8638  from */\n      dup7\n        /* \"contracts/Token/ERC20.sol\":8624:8639  _balances[from] */\n      0xffffffffffffffffffffffffffffffffffffffff\n      and\n      0xffffffffffffffffffffffffffffffffffffffff\n      and\n      dup2\n      mstore\n      0x20\n      add\n      swap1\n      dup2\n      mstore\n      0x20\n      add\n      0x00\n      keccak256\n        /* \"contracts/Token/ERC20.sol\":8624:8662  _balances[from] = fromBalance - amount */\n      dup2\n      swap1\n      sstore\n      pop\n        /* \"contracts/Token/ERC20.sol\":8701:8707  amount */\n      dup2\n        /* \"contracts/Token/ERC20.sol\":8684:8693  _balances */\n      0x01\n        /* \"contracts/Token/ERC20.sol\":8684:8697  _balances[to] */\n      0x00\n        /* \"contracts/Token/ERC20.sol\":8694:8696  to */\n      dup6\n        /* \"contracts/Token/ERC20.sol\":8684:8697  _balances[to] */\n      0xffffffffffffffffffffffffffffffffffffffff\n      and\n      0xffffffffffffffffffffffffffffffffffffffff\n      and\n      dup2\n      mstore\n      0x20\n      add\n      swap1\n      dup2\n      mstore\n      0x20\n      add\n      0x00\n      keccak256\n      0x00\n        /* \"contracts/Token/ERC20.sol\":8684:8707  _balances[to] += amount */\n      dup3\n      dup3\n      sload\n      tag_206\n      swap2\n      swap1\n      tag_127\n      jump\t// in\n    tag_206:\n      swap3\n      pop\n      pop\n      dup2\n      swap1\n      sstore\n      pop\n        /* \"contracts/Token/ERC20.sol\":8740:8742  to */\n      dup3\n        /* \"contracts/Token/ERC20.sol\":8725:8751  Transfer(from, to, amount) */\n      0xffffffffffffffffffffffffffffffffffffffff\n      and\n        /* \"contracts/Token/ERC20.sol\":8734:8738  from */\n      dup5\n        /* \"contracts/Token/ERC20.sol\":8725:8751  Transfer(from, to, amount) */\n      0xffffffffffffffffffffffffffffffffffffffff\n      and\n      0xddf252ad1be2c89b69c2b068fc378daa952ba7f163c4a11628f55a4df523b3ef\n        /* \"contracts/Token/ERC20.sol\":8744:8750  amount */\n      dup5\n        /* \"contracts/Token/ERC20.sol\":8725:8751  Transfer(from, to, amount) */\n      mload(0x40)\n      tag_207\n      swap2\n      swap1\n      tag_39\n      jump\t// in\n    tag_207:\n      mload(0x40)\n      dup1\n      swap2\n      sub\n      swap1\n      log3\n        /* \"contracts/Token/ERC20.sol\":8764:8801  _afterTokenTransfer(from, to, amount) */\n      tag_208\n        /* \"contracts/Token/ERC20.sol\":8784:8788  from */\n      dup5\n        /* \"contracts/Token/ERC20.sol\":8790:8792  to */\n      dup5\n        /* \"contracts/Token/ERC20.sol\":8794:8800  amount */\n      dup5\n        /* \"contracts/Token/ERC20.sol\":8764:8783  _afterTokenTransfer */\n      tag_209\n        /* \"contracts/Token/ERC20.sol\":8764:8801  _afterTokenTransfer(from, to, amount) */\n      jump\t// in\n    tag_208:\n        /* \"contracts/Token/ERC20.sol\":8213:8809  {... */\n      pop\n        /* \"contracts/Token/ERC20.sol\":8101:8809  function _transfer(... */\n      pop\n      pop\n      pop\n      jump\t// out\n        /* \"contracts/Token/ERC20.sol\":9096:9495  function _mint(address account, uint256 amount) internal virtual {... */\n    tag_130:\n        /* \"contracts/Token/ERC20.sol\":9199:9200  0 */\n      0x00\n        /* \"contracts/Token/ERC20.sol\":9180:9201  account != address(0) */\n      0xffffffffffffffffffffffffffffffffffffffff\n      and\n        /* \"contracts/Token/ERC20.sol\":9180:9187  account */\n      dup3\n        /* \"contracts/Token/ERC20.sol\":9180:9201  account != address(0) */\n      0xffffffffffffffffffffffffffffffffffffffff\n      and\n      sub\n        /* \"contracts/Token/ERC20.sol\":9172:9237  require(account != address(0), \"ERC20: mint to the zero address\") */\n      tag_211\n      jumpi\n      mload(0x40)\n      0x08c379a000000000000000000000000000000000000000000000000000000000\n      dup2\n      mstore\n      0x04\n      add\n      tag_212\n      swap1\n      tag_213\n      jump\t// in\n    tag_212:\n      mload(0x40)\n      dup1\n      swap2\n      sub\n      swap1\n      revert\n    tag_211:\n        /* \"contracts/Token/ERC20.sol\":9250:9299  _beforeTokenTransfer(address(0), account, amount) */\n      tag_214\n        /* \"contracts/Token/ERC20.sol\":9279:9280  0 */\n      0x00\n        /* \"contracts/Token/ERC20.sol\":9283:9290  account */\n      dup4\n        /* \"contracts/Token/ERC20.sol\":9292:9298  amount */\n      dup4\n        /* \"contracts/Token/ERC20.sol\":9250:9270  _beforeTokenTransfer */\n      tag_202\n        /* \"contracts/Token/ERC20.sol\":9250:9299  _beforeTokenTransfer(address(0), account, amount) */\n      jump\t// in\n    tag_214:\n        /* \"contracts/Token/ERC20.sol\":9328:9334  amount */\n      dup1\n        /* \"contracts/Token/ERC20.sol\":9312:9324  _totalSupply */\n      0x03\n      0x00\n        /* \"contracts/Token/ERC20.sol\":9312:9334  _totalSupply += amount */\n      dup3\n      dup3\n      sload\n      tag_215\n      swap2\n      swap1\n      tag_127\n      jump\t// in\n    tag_215:\n      swap3\n      pop\n      pop\n      dup2\n      swap1\n      sstore\n      pop\n        /* \"contracts/Token/ERC20.sol\":9367:9373  amount */\n      dup1\n        /* \"contracts/Token/ERC20.sol\":9345:9354  _balances */\n      0x01\n        /* \"contracts/Token/ERC20.sol\":9345:9363  _balances[account] */\n      0x00\n        /* \"contracts/Token/ERC20.sol\":9355:9362  account */\n      dup5\n        /* \"contracts/Token/ERC20.sol\":9345:9363  _balances[account] */\n      0xffffffffffffffffffffffffffffffffffffffff\n      and\n      0xffffffffffffffffffffffffffffffffffffffff\n      and\n      dup2\n      mstore\n      0x20\n      add\n      swap1\n      dup2\n      mstore\n      0x20\n      add\n      0x00\n      keccak256\n      0x00\n        /* \"contracts/Token/ERC20.sol\":9345:9373  _balances[account] += amount */\n      dup3\n      dup3\n      sload\n      tag_216\n      swap2\n      swap1\n      tag_127\n      jump\t// in\n    tag_216:\n      swap3\n      pop\n      pop\n      dup2\n      swap1\n      sstore\n      pop\n        /* \"contracts/Token/ERC20.sol\":9410:9417  account */\n      dup2\n        /* \"contracts/Token/ERC20.sol\":9389:9426  Transfer(address(0), account, amount) */\n      0xffffffffffffffffffffffffffffffffffffffff\n      and\n        /* \"contracts/Token/ERC20.sol\":9406:9407  0 */\n      0x00\n        /* \"contracts/Token/ERC20.sol\":9389:9426  Transfer(address(0), account, amount) */\n      0xffffffffffffffffffffffffffffffffffffffff\n      and\n      0xddf252ad1be2c89b69c2b068fc378daa952ba7f163c4a11628f55a4df523b3ef\n        /* \"contracts/Token/ERC20.sol\":9419:9425  amount */\n      dup4\n        /* \"contracts/Token/ERC20.sol\":9389:9426  Transfer(address(0), account, amount) */\n      mload(0x40)\n      tag_217\n      swap2\n      swap1\n      tag_39\n      jump\t// in\n    tag_217:\n      mload(0x40)\n      dup1\n      swap2\n      sub\n      swap1\n      log3\n        /* \"contracts/Token/ERC20.sol\":9439:9487  _afterTokenTransfer(address(0), account, amount) */\n      tag_218\n        /* \"contracts/Token/ERC20.sol\":9467:9468  0 */\n      0x00\n        /* \"contracts/Token/ERC20.sol\":9471:9478  account */\n      dup4\n        /* \"contracts/Token/ERC20.sol\":9480:9486  amount */\n      dup4\n        /* \"contracts/Token/ERC20.sol\":9439:9458  _afterTokenTransfer */\n      tag_209\n        /* \"contracts/Token/ERC20.sol\":9439:9487  _afterTokenTransfer(address(0), account, amount) */\n      jump\t// in\n    tag_218:\n        /* \"contracts/Token/ERC20.sol\":9096:9495  function _mint(address account, uint256 amount) internal virtual {... */\n      pop\n      pop\n      jump\t// out\n        /* \"contracts/Token/utils/Ownable.sol\":2395:2586  function _transferOwnership(address newOwner) internal virtual {... */\n    tag_140:\n        /* \"contracts/Token/utils/Ownable.sol\":2469:2485  address oldOwner */\n      0x00\n        /* \"contracts/Token/utils/Ownable.sol\":2488:2494  _owner */\n      dup1\n      0x00\n      swap1\n      sload\n      swap1\n      0x0100\n      exp\n      swap1\n      div\n      0xffffffffffffffffffffffffffffffffffffffff\n      and\n        /* \"contracts/Token/utils/Ownable.sol\":2469:2494  address oldOwner = _owner */\n      swap1\n      pop\n        /* \"contracts/Token/utils/Ownable.sol\":2514:2522  newOwner */\n      dup2\n        /* \"contracts/Token/utils/Ownable.sol\":2505:2511  _owner */\n      0x00\n      dup1\n        /* \"contracts/Token/utils/Ownable.sol\":2505:2522  _owner = newOwner */\n      0x0100\n      exp\n      dup2\n      sload\n      dup2\n      0xffffffffffffffffffffffffffffffffffffffff\n      mul\n      not\n      and\n      swap1\n      dup4\n      0xffffffffffffffffffffffffffffffffffffffff\n      and\n      mul\n      or\n      swap1\n      sstore\n      pop\n        /* \"contracts/Token/utils/Ownable.sol\":2569:2577  newOwner */\n      dup2\n        /* \"contracts/Token/utils/Ownable.sol\":2538:2578  OwnershipTransferred(oldOwner, newOwner) */\n      0xffffffffffffffffffffffffffffffffffffffff\n      and\n        /* \"contracts/Token/utils/Ownable.sol\":2559:2567  oldOwner */\n      dup2\n        /* \"contracts/Token/utils/Ownable.sol\":2538:2578  OwnershipTransferred(oldOwner, newOwner) */\n      0xffffffffffffffffffffffffffffffffffffffff\n      and\n      0x8be0079c531659141344cd1fd0a4f28419497f9722a3daafe3b4186f6b6457e0\n      mload(0x40)\n      mload(0x40)\n      dup1\n      swap2\n      sub\n      swap1\n      log3\n        /* \"contracts/Token/utils/Ownable.sol\":2458:2586  {... */\n      pop\n        /* \"contracts/Token/utils/Ownable.sol\":2395:2586  function _transferOwnership(address newOwner) internal virtual {... */\n      pop\n      jump\t// out\n        /* \"contracts/Token/ERC20.sol\":9828:10419  function _burn(address account, uint256 amount) internal virtual {... */\n    tag_150:\n        /* \"contracts/Token/ERC20.sol\":9931:9932  0 */\n      0x00\n        /* \"contracts/Token/ERC20.sol\":9912:9933  account != address(0) */\n      0xffffffffffffffffffffffffffffffffffffffff\n      and\n        /* \"contracts/Token/ERC20.sol\":9912:9919  account */\n      dup3\n        /* \"contracts/Token/ERC20.sol\":9912:9933  account != address(0) */\n      0xffffffffffffffffffffffffffffffffffffffff\n      and\n      sub\n        /* \"contracts/Token/ERC20.sol\":9904:9971  require(account != address(0), \"ERC20: burn from the zero address\") */\n      tag_221\n      jumpi\n      mload(0x40)\n      0x08c379a000000000000000000000000000000000000000000000000000000000\n      dup2\n      mstore\n      0x04\n      add\n      tag_222\n      swap1\n      tag_223\n      jump\t// in\n    tag_222:\n      mload(0x40)\n      dup1\n      swap2\n      sub\n      swap1\n      revert\n    tag_221:\n        /* \"contracts/Token/ERC20.sol\":9984:10033  _beforeTokenTransfer(account, address(0), amount) */\n      tag_224\n        /* \"contracts/Token/ERC20.sol\":10005:10012  account */\n      dup3\n        /* \"contracts/Token/ERC20.sol\":10022:10023  0 */\n      0x00\n        /* \"contracts/Token/ERC20.sol\":10026:10032  amount */\n      dup4\n        /* \"contracts/Token/ERC20.sol\":9984:10004  _beforeTokenTransfer */\n      tag_202\n        /* \"contracts/Token/ERC20.sol\":9984:10033  _beforeTokenTransfer(account, address(0), amount) */\n      jump\t// in\n    tag_224:\n        /* \"contracts/Token/ERC20.sol\":10046:10068  uint256 accountBalance */\n      0x00\n        /* \"contracts/Token/ERC20.sol\":10071:10080  _balances */\n      0x01\n        /* \"contracts/Token/ERC20.sol\":10071:10089  _balances[account] */\n      0x00\n        /* \"contracts/Token/ERC20.sol\":10081:10088  account */\n      dup5\n        /* \"contracts/Token/ERC20.sol\":10071:10089  _balances[account] */\n      0xffffffffffffffffffffffffffffffffffffffff\n      and\n      0xffffffffffffffffffffffffffffffffffffffff\n      and\n      dup2\n      mstore\n      0x20\n      add\n      swap1\n      dup2\n      mstore\n      0x20\n      add\n      0x00\n      keccak256\n      sload\n        /* \"contracts/Token/ERC20.sol\":10046:10089  uint256 accountBalance = _balances[account] */\n      swap1\n      pop\n        /* \"contracts/Token/ERC20.sol\":10126:10132  amount */\n      dup2\n        /* \"contracts/Token/ERC20.sol\":10108:10122  accountBalance */\n      dup2\n        /* \"contracts/Token/ERC20.sol\":10108:10132  accountBalance >= amount */\n      lt\n      iszero\n        /* \"contracts/Token/ERC20.sol\":10100:10171  require(accountBalance >= amount, \"ERC20: burn amount exceeds balance\") */\n      tag_225\n      jumpi\n      mload(0x40)\n      0x08c379a000000000000000000000000000000000000000000000000000000000\n      dup2\n      mstore\n      0x04\n      add\n      tag_226\n      swap1\n      tag_227\n      jump\t// in\n    tag_226:\n      mload(0x40)\n      dup1\n      swap2\n      sub\n      swap1\n      revert\n    tag_225:\n        /* \"contracts/Token/ERC20.sol\":10245:10251  amount */\n      dup2\n        /* \"contracts/Token/ERC20.sol\":10228:10242  accountBalance */\n      dup2\n        /* \"contracts/Token/ERC20.sol\":10228:10251  accountBalance - amount */\n      sub\n        /* \"contracts/Token/ERC20.sol\":10207:10216  _balances */\n      0x01\n        /* \"contracts/Token/ERC20.sol\":10207:10225  _balances[account] */\n      0x00\n        /* \"contracts/Token/ERC20.sol\":10217:10224  account */\n      dup6\n        /* \"contracts/Token/ERC20.sol\":10207:10225  _balances[account] */\n      0xffffffffffffffffffffffffffffffffffffffff\n      and\n      0xffffffffffffffffffffffffffffffffffffffff\n      and\n      dup2\n      mstore\n      0x20\n      add\n      swap1\n      dup2\n      mstore\n      0x20\n      add\n      0x00\n      keccak256\n        /* \"contracts/Token/ERC20.sol\":10207:10251  _balances[account] = accountBalance - amount */\n      dup2\n      swap1\n      sstore\n      pop\n        /* \"contracts/Token/ERC20.sol\":10289:10295  amount */\n      dup2\n        /* \"contracts/Token/ERC20.sol\":10273:10285  _totalSupply */\n      0x03\n      0x00\n        /* \"contracts/Token/ERC20.sol\":10273:10295  _totalSupply -= amount */\n      dup3\n      dup3\n      sload\n      tag_228\n      swap2\n      swap1\n      tag_229\n      jump\t// in\n    tag_228:\n      swap3\n      pop\n      pop\n      dup2\n      swap1\n      sstore\n      pop\n        /* \"contracts/Token/ERC20.sol\":10339:10340  0 */\n      0x00\n        /* \"contracts/Token/ERC20.sol\":10313:10350  Transfer(account, address(0), amount) */\n      0xffffffffffffffffffffffffffffffffffffffff\n      and\n        /* \"contracts/Token/ERC20.sol\":10322:10329  account */\n      dup4\n        /* \"contracts/Token/ERC20.sol\":10313:10350  Transfer(account, address(0), amount) */\n      0xffffffffffffffffffffffffffffffffffffffff\n      and\n      0xddf252ad1be2c89b69c2b068fc378daa952ba7f163c4a11628f55a4df523b3ef\n        /* \"contracts/Token/ERC20.sol\":10343:10349  amount */\n      dup5\n        /* \"contracts/Token/ERC20.sol\":10313:10350  Transfer(account, address(0), amount) */\n      mload(0x40)\n      tag_230\n      swap2\n      swap1\n      tag_39\n      jump\t// in\n    tag_230:\n      mload(0x40)\n      dup1\n      swap2\n      sub\n      swap1\n      log3\n        /* \"contracts/Token/ERC20.sol\":10363:10411  _afterTokenTransfer(account, address(0), amount) */\n      tag_231\n        /* \"contracts/Token/ERC20.sol\":10383:10390  account */\n      dup4\n        /* \"contracts/Token/ERC20.sol\":10400:10401  0 */\n      0x00\n        /* \"contracts/Token/ERC20.sol\":10404:10410  amount */\n      dup5\n        /* \"contracts/Token/ERC20.sol\":10363:10382  _afterTokenTransfer */\n      tag_209\n        /* \"contracts/Token/ERC20.sol\":10363:10411  _afterTokenTransfer(account, address(0), amount) */\n      jump\t// in\n    tag_231:\n        /* \"contracts/Token/ERC20.sol\":9893:10419  {... */\n      pop\n        /* \"contracts/Token/ERC20.sol\":9828:10419  function _burn(address account, uint256 amount) internal virtual {... */\n      pop\n      pop\n      jump\t// out\n        /* \"contracts/Token/ERC20.sol\":12630:12755  function _beforeTokenTransfer(... */\n    tag_202:\n      pop\n      pop\n      pop\n      jump\t// out\n        /* \"contracts/Token/ERC20.sol\":13359:13483  function _afterTokenTransfer(... */\n    tag_209:\n      pop\n      pop\n      pop\n      jump\t// out\n        /* \"#utility.yul\":7:106   */\n    tag_234:\n        /* \"#utility.yul\":59:65   */\n      0x00\n        /* \"#utility.yul\":93:98   */\n      dup2\n        /* \"#utility.yul\":87:99   */\n      mload\n        /* \"#utility.yul\":77:99   */\n      swap1\n      pop\n        /* \"#utility.yul\":7:106   */\n      swap2\n      swap1\n      pop\n      jump\t// out\n        /* \"#utility.yul\":112:281   */\n    tag_235:\n        /* \"#utility.yul\":196:207   */\n      0x00\n        /* \"#utility.yul\":230:236   */\n      dup3\n        /* \"#utility.yul\":225:228   */\n      dup3\n        /* \"#utility.yul\":218:237   */\n      mstore\n        /* \"#utility.yul\":270:274   */\n      0x20\n        /* \"#utility.yul\":265:268   */\n      dup3\n        /* \"#utility.yul\":261:275   */\n      add\n        /* \"#utility.yul\":246:275   */\n      swap1\n      pop\n        /* \"#utility.yul\":112:281   */\n      swap3\n      swap2\n      pop\n      pop\n      jump\t// out\n        /* \"#utility.yul\":287:594   */\n    tag_236:\n        /* \"#utility.yul\":355:356   */\n      0x00\n        /* \"#utility.yul\":365:478   */\n    tag_285:\n        /* \"#utility.yul\":379:385   */\n      dup4\n        /* \"#utility.yul\":376:377   */\n      dup2\n        /* \"#utility.yul\":373:386   */\n      lt\n        /* \"#utility.yul\":365:478   */\n      iszero\n      tag_287\n      jumpi\n        /* \"#utility.yul\":464:465   */\n      dup1\n        /* \"#utility.yul\":459:462   */\n      dup3\n        /* \"#utility.yul\":455:466   */\n      add\n        /* \"#utility.yul\":449:467   */\n      mload\n        /* \"#utility.yul\":445:446   */\n      dup2\n        /* \"#utility.yul\":440:443   */\n      dup5\n        /* \"#utility.yul\":436:447   */\n      add\n        /* \"#utility.yul\":429:468   */\n      mstore\n        /* \"#utility.yul\":401:403   */\n      0x20\n        /* \"#utility.yul\":398:399   */\n      dup2\n        /* \"#utility.yul\":394:404   */\n      add\n        /* \"#utility.yul\":389:404   */\n      swap1\n      pop\n        /* \"#utility.yul\":365:478   */\n      jump(tag_285)\n    tag_287:\n        /* \"#utility.yul\":496:502   */\n      dup4\n        /* \"#utility.yul\":493:494   */\n      dup2\n        /* \"#utility.yul\":490:503   */\n      gt\n        /* \"#utility.yul\":487:588   */\n      iszero\n      tag_288\n      jumpi\n        /* \"#utility.yul\":576:577   */\n      0x00\n        /* \"#utility.yul\":567:573   */\n      dup5\n        /* \"#utility.yul\":562:565   */\n      dup5\n        /* \"#utility.yul\":558:574   */\n      add\n        /* \"#utility.yul\":551:578   */\n      mstore\n        /* \"#utility.yul\":487:588   */\n    tag_288:\n        /* \"#utility.yul\":336:594   */\n      pop\n        /* \"#utility.yul\":287:594   */\n      pop\n      pop\n      pop\n      jump\t// out\n        /* \"#utility.yul\":600:702   */\n    tag_237:\n        /* \"#utility.yul\":641:647   */\n      0x00\n        /* \"#utility.yul\":692:694   */\n      0x1f\n        /* \"#utility.yul\":688:695   */\n      not\n        /* \"#utility.yul\":683:685   */\n      0x1f\n        /* \"#utility.yul\":676:681   */\n      dup4\n        /* \"#utility.yul\":672:686   */\n      add\n        /* \"#utility.yul\":668:696   */\n      and\n        /* \"#utility.yul\":658:696   */\n      swap1\n      pop\n        /* \"#utility.yul\":600:702   */\n      swap2\n      swap1\n      pop\n      jump\t// out\n        /* \"#utility.yul\":708:1072   */\n    tag_238:\n        /* \"#utility.yul\":796:799   */\n      0x00\n        /* \"#utility.yul\":824:863   */\n      tag_291\n        /* \"#utility.yul\":857:862   */\n      dup3\n        /* \"#utility.yul\":824:863   */\n      tag_234\n      jump\t// in\n    tag_291:\n        /* \"#utility.yul\":879:950   */\n      tag_292\n        /* \"#utility.yul\":943:949   */\n      dup2\n        /* \"#utility.yul\":938:941   */\n      dup6\n        /* \"#utility.yul\":879:950   */\n      tag_235\n      jump\t// in\n    tag_292:\n        /* \"#utility.yul\":872:950   */\n      swap4\n      pop\n        /* \"#utility.yul\":959:1011   */\n      tag_293\n        /* \"#utility.yul\":1004:1010   */\n      dup2\n        /* \"#utility.yul\":999:1002   */\n      dup6\n        /* \"#utility.yul\":992:996   */\n      0x20\n        /* \"#utility.yul\":985:990   */\n      dup7\n        /* \"#utility.yul\":981:997   */\n      add\n        /* \"#utility.yul\":959:1011   */\n      tag_236\n      jump\t// in\n    tag_293:\n        /* \"#utility.yul\":1036:1065   */\n      tag_294\n        /* \"#utility.yul\":1058:1064   */\n      dup2\n        /* \"#utility.yul\":1036:1065   */\n      tag_237\n      jump\t// in\n    tag_294:\n        /* \"#utility.yul\":1031:1034   */\n      dup5\n        /* \"#utility.yul\":1027:1066   */\n      add\n        /* \"#utility.yul\":1020:1066   */\n      swap2\n      pop\n        /* \"#utility.yul\":800:1072   */\n      pop\n        /* \"#utility.yul\":708:1072   */\n      swap3\n      swap2\n      pop\n      pop\n      jump\t// out\n        /* \"#utility.yul\":1078:1391   */\n    tag_29:\n        /* \"#utility.yul\":1191:1195   */\n      0x00\n        /* \"#utility.yul\":1229:1231   */\n      0x20\n        /* \"#utility.yul\":1218:1227   */\n      dup3\n        /* \"#utility.yul\":1214:1232   */\n      add\n        /* \"#utility.yul\":1206:1232   */\n      swap1\n      pop\n        /* \"#utility.yul\":1278:1287   */\n      dup2\n        /* \"#utility.yul\":1272:1276   */\n      dup2\n        /* \"#utility.yul\":1268:1288   */\n      sub\n        /* \"#utility.yul\":1264:1265   */\n      0x00\n        /* \"#utility.yul\":1253:1262   */\n      dup4\n        /* \"#utility.yul\":1249:1266   */\n      add\n        /* \"#utility.yul\":1242:1289   */\n      mstore\n        /* \"#utility.yul\":1306:1384   */\n      tag_296\n        /* \"#utility.yul\":1379:1383   */\n      dup2\n        /* \"#utility.yul\":1370:1376   */\n      dup5\n        /* \"#utility.yul\":1306:1384   */\n      tag_238\n      jump\t// in\n    tag_296:\n        /* \"#utility.yul\":1298:1384   */\n      swap1\n      pop\n        /* \"#utility.yul\":1078:1391   */\n      swap3\n      swap2\n      pop\n      pop\n      jump\t// out\n        /* \"#utility.yul\":1478:1595   */\n    tag_240:\n        /* \"#utility.yul\":1587:1588   */\n      0x00\n        /* \"#utility.yul\":1584:1585   */\n      dup1\n        /* \"#utility.yul\":1577:1589   */\n      revert\n        /* \"#utility.yul\":1724:1850   */\n    tag_242:\n        /* \"#utility.yul\":1761:1768   */\n      0x00\n        /* \"#utility.yul\":1801:1843   */\n      0xffffffffffffffffffffffffffffffffffffffff\n        /* \"#utility.yul\":1794:1799   */\n      dup3\n        /* \"#utility.yul\":1790:1844   */\n      and\n        /* \"#utility.yul\":1779:1844   */\n      swap1\n      pop\n        /* \"#utility.yul\":1724:1850   */\n      swap2\n      swap1\n      pop\n      jump\t// out\n        /* \"#utility.yul\":1856:1952   */\n    tag_243:\n        /* \"#utility.yul\":1893:1900   */\n      0x00\n        /* \"#utility.yul\":1922:1946   */\n      tag_302\n        /* \"#utility.yul\":1940:1945   */\n      dup3\n        /* \"#utility.yul\":1922:1946   */\n      tag_242\n      jump\t// in\n    tag_302:\n        /* \"#utility.yul\":1911:1946   */\n      swap1\n      pop\n        /* \"#utility.yul\":1856:1952   */\n      swap2\n      swap1\n      pop\n      jump\t// out\n        /* \"#utility.yul\":1958:2080   */\n    tag_244:\n        /* \"#utility.yul\":2031:2055   */\n      tag_304\n        /* \"#utility.yul\":2049:2054   */\n      dup2\n        /* \"#utility.yul\":2031:2055   */\n      tag_243\n      jump\t// in\n    tag_304:\n        /* \"#utility.yul\":2024:2029   */\n      dup2\n        /* \"#utility.yul\":2021:2056   */\n      eq\n        /* \"#utility.yul\":2011:2074   */\n      tag_305\n      jumpi\n        /* \"#utility.yul\":2070:2071   */\n      0x00\n        /* \"#utility.yul\":2067:2068   */\n      dup1\n        /* \"#utility.yul\":2060:2072   */\n      revert\n        /* \"#utility.yul\":2011:2074   */\n    tag_305:\n        /* \"#utility.yul\":1958:2080   */\n      pop\n      jump\t// out\n        /* \"#utility.yul\":2086:2225   */\n    tag_245:\n        /* \"#utility.yul\":2132:2137   */\n      0x00\n        /* \"#utility.yul\":2170:2176   */\n      dup2\n        /* \"#utility.yul\":2157:2177   */\n      calldataload\n        /* \"#utility.yul\":2148:2177   */\n      swap1\n      pop\n        /* \"#utility.yul\":2186:2219   */\n      tag_307\n        /* \"#utility.yul\":2213:2218   */\n      dup2\n        /* \"#utility.yul\":2186:2219   */\n      tag_244\n      jump\t// in\n    tag_307:\n        /* \"#utility.yul\":2086:2225   */\n      swap3\n      swap2\n      pop\n      pop\n      jump\t// out\n        /* \"#utility.yul\":2231:2308   */\n    tag_246:\n        /* \"#utility.yul\":2268:2275   */\n      0x00\n        /* \"#utility.yul\":2297:2302   */\n      dup2\n        /* \"#utility.yul\":2286:2302   */\n      swap1\n      pop\n        /* \"#utility.yul\":2231:2308   */\n      swap2\n      swap1\n      pop\n      jump\t// out\n        /* \"#utility.yul\":2314:2436   */\n    tag_247:\n        /* \"#utility.yul\":2387:2411   */\n      tag_310\n        /* \"#utility.yul\":2405:2410   */\n      dup2\n        /* \"#utility.yul\":2387:2411   */\n      tag_246\n      jump\t// in\n    tag_310:\n        /* \"#utility.yul\":2380:2385   */\n      dup2\n        /* \"#utility.yul\":2377:2412   */\n      eq\n        /* \"#utility.yul\":2367:2430   */\n      tag_311\n      jumpi\n        /* \"#utility.yul\":2426:2427   */\n      0x00\n        /* \"#utility.yul\":2423:2424   */\n      dup1\n        /* \"#utility.yul\":2416:2428   */\n      revert\n        /* \"#utility.yul\":2367:2430   */\n    tag_311:\n        /* \"#utility.yul\":2314:2436   */\n      pop\n      jump\t// out\n        /* \"#utility.yul\":2442:2581   */\n    tag_248:\n        /* \"#utility.yul\":2488:2493   */\n      0x00\n        /* \"#utility.yul\":2526:2532   */\n      dup2\n        /* \"#utility.yul\":2513:2533   */\n      calldataload\n        /* \"#utility.yul\":2504:2533   */\n      swap1\n      pop\n        /* \"#utility.yul\":2542:2575   */\n      tag_313\n        /* \"#utility.yul\":2569:2574   */\n      dup2\n        /* \"#utility.yul\":2542:2575   */\n      tag_247\n      jump\t// in\n    tag_313:\n        /* \"#utility.yul\":2442:2581   */\n      swap3\n      swap2\n      pop\n      pop\n      jump\t// out\n        /* \"#utility.yul\":2587:3061   */\n    tag_32:\n        /* \"#utility.yul\":2655:2661   */\n      0x00\n        /* \"#utility.yul\":2663:2669   */\n      dup1\n        /* \"#utility.yul\":2712:2714   */\n      0x40\n        /* \"#utility.yul\":2700:2709   */\n      dup4\n        /* \"#utility.yul\":2691:2698   */\n      dup6\n        /* \"#utility.yul\":2687:2710   */\n      sub\n        /* \"#utility.yul\":2683:2715   */\n      slt\n        /* \"#utility.yul\":2680:2799   */\n      iszero\n      tag_315\n      jumpi\n        /* \"#utility.yul\":2718:2797   */\n      tag_316\n      tag_240\n      jump\t// in\n    tag_316:\n        /* \"#utility.yul\":2680:2799   */\n    tag_315:\n        /* \"#utility.yul\":2838:2839   */\n      0x00\n        /* \"#utility.yul\":2863:2916   */\n      tag_317\n        /* \"#utility.yul\":2908:2915   */\n      dup6\n        /* \"#utility.yul\":2899:2905   */\n      dup3\n        /* \"#utility.yul\":2888:2897   */\n      dup7\n        /* \"#utility.yul\":2884:2906   */\n      add\n        /* \"#utility.yul\":2863:2916   */\n      tag_245\n      jump\t// in\n    tag_317:\n        /* \"#utility.yul\":2853:2916   */\n      swap3\n      pop\n        /* \"#utility.yul\":2809:2926   */\n      pop\n        /* \"#utility.yul\":2965:2967   */\n      0x20\n        /* \"#utility.yul\":2991:3044   */\n      tag_318\n        /* \"#utility.yul\":3036:3043   */\n      dup6\n        /* \"#utility.yul\":3027:3033   */\n      dup3\n        /* \"#utility.yul\":3016:3025   */\n      dup7\n        /* \"#utility.yul\":3012:3034   */\n      add\n        /* \"#utility.yul\":2991:3044   */\n      tag_248\n      jump\t// in\n    tag_318:\n        /* \"#utility.yul\":2981:3044   */\n      swap2\n      pop\n        /* \"#utility.yul\":2936:3054   */\n      pop\n        /* \"#utility.yul\":2587:3061   */\n      swap3\n      pop\n      swap3\n      swap1\n      pop\n      jump\t// out\n        /* \"#utility.yul\":3067:3157   */\n    tag_249:\n        /* \"#utility.yul\":3101:3108   */\n      0x00\n        /* \"#utility.yul\":3144:3149   */\n      dup2\n        /* \"#utility.yul\":3137:3150   */\n      iszero\n        /* \"#utility.yul\":3130:3151   */\n      iszero\n        /* \"#utility.yul\":3119:3151   */\n      swap1\n      pop\n        /* \"#utility.yul\":3067:3157   */\n      swap2\n      swap1\n      pop\n      jump\t// out\n        /* \"#utility.yul\":3163:3272   */\n    tag_250:\n        /* \"#utility.yul\":3244:3265   */\n      tag_321\n        /* \"#utility.yul\":3259:3264   */\n      dup2\n        /* \"#utility.yul\":3244:3265   */\n      tag_249\n      jump\t// in\n    tag_321:\n        /* \"#utility.yul\":3239:3242   */\n      dup3\n        /* \"#utility.yul\":3232:3266   */\n      mstore\n        /* \"#utility.yul\":3163:3272   */\n      pop\n      pop\n      jump\t// out\n        /* \"#utility.yul\":3278:3488   */\n    tag_35:\n        /* \"#utility.yul\":3365:3369   */\n      0x00\n        /* \"#utility.yul\":3403:3405   */\n      0x20\n        /* \"#utility.yul\":3392:3401   */\n      dup3\n        /* \"#utility.yul\":3388:3406   */\n      add\n        /* \"#utility.yul\":3380:3406   */\n      swap1\n      pop\n        /* \"#utility.yul\":3416:3481   */\n      tag_323\n        /* \"#utility.yul\":3478:3479   */\n      0x00\n        /* \"#utility.yul\":3467:3476   */\n      dup4\n        /* \"#utility.yul\":3463:3480   */\n      add\n        /* \"#utility.yul\":3454:3460   */\n      dup5\n        /* \"#utility.yul\":3416:3481   */\n      tag_250\n      jump\t// in\n    tag_323:\n        /* \"#utility.yul\":3278:3488   */\n      swap3\n      swap2\n      pop\n      pop\n      jump\t// out\n        /* \"#utility.yul\":3494:3612   */\n    tag_251:\n        /* \"#utility.yul\":3581:3605   */\n      tag_325\n        /* \"#utility.yul\":3599:3604   */\n      dup2\n        /* \"#utility.yul\":3581:3605   */\n      tag_246\n      jump\t// in\n    tag_325:\n        /* \"#utility.yul\":3576:3579   */\n      dup3\n        /* \"#utility.yul\":3569:3606   */\n      mstore\n        /* \"#utility.yul\":3494:3612   */\n      pop\n      pop\n      jump\t// out\n        /* \"#utility.yul\":3618:3840   */\n    tag_39:\n        /* \"#utility.yul\":3711:3715   */\n      0x00\n        /* \"#utility.yul\":3749:3751   */\n      0x20\n        /* \"#utility.yul\":3738:3747   */\n      dup3\n        /* \"#utility.yul\":3734:3752   */\n      add\n        /* \"#utility.yul\":3726:3752   */\n      swap1\n      pop\n        /* \"#utility.yul\":3762:3833   */\n      tag_327\n        /* \"#utility.yul\":3830:3831   */\n      0x00\n        /* \"#utility.yul\":3819:3828   */\n      dup4\n        /* \"#utility.yul\":3815:3832   */\n      add\n        /* \"#utility.yul\":3806:3812   */\n      dup5\n        /* \"#utility.yul\":3762:3833   */\n      tag_251\n      jump\t// in\n    tag_327:\n        /* \"#utility.yul\":3618:3840   */\n      swap3\n      swap2\n      pop\n      pop\n      jump\t// out\n        /* \"#utility.yul\":3846:4465   */\n    tag_42:\n        /* \"#utility.yul\":3923:3929   */\n      0x00\n        /* \"#utility.yul\":3931:3937   */\n      dup1\n        /* \"#utility.yul\":3939:3945   */\n      0x00\n        /* \"#utility.yul\":3988:3990   */\n      0x60\n        /* \"#utility.yul\":3976:3985   */\n      dup5\n        /* \"#utility.yul\":3967:3974   */\n      dup7\n        /* \"#utility.yul\":3963:3986   */\n      sub\n        /* \"#utility.yul\":3959:3991   */\n      slt\n        /* \"#utility.yul\":3956:4075   */\n      iszero\n      tag_329\n      jumpi\n        /* \"#utility.yul\":3994:4073   */\n      tag_330\n      tag_240\n      jump\t// in\n    tag_330:\n        /* \"#utility.yul\":3956:4075   */\n    tag_329:\n        /* \"#utility.yul\":4114:4115   */\n      0x00\n        /* \"#utility.yul\":4139:4192   */\n      tag_331\n        /* \"#utility.yul\":4184:4191   */\n      dup7\n        /* \"#utility.yul\":4175:4181   */\n      dup3\n        /* \"#utility.yul\":4164:4173   */\n      dup8\n        /* \"#utility.yul\":4160:4182   */\n      add\n        /* \"#utility.yul\":4139:4192   */\n      tag_245\n      jump\t// in\n    tag_331:\n        /* \"#utility.yul\":4129:4192   */\n      swap4\n      pop\n        /* \"#utility.yul\":4085:4202   */\n      pop\n        /* \"#utility.yul\":4241:4243   */\n      0x20\n        /* \"#utility.yul\":4267:4320   */\n      tag_332\n        /* \"#utility.yul\":4312:4319   */\n      dup7\n        /* \"#utility.yul\":4303:4309   */\n      dup3\n        /* \"#utility.yul\":4292:4301   */\n      dup8\n        /* \"#utility.yul\":4288:4310   */\n      add\n        /* \"#utility.yul\":4267:4320   */\n      tag_245\n      jump\t// in\n    tag_332:\n        /* \"#utility.yul\":4257:4320   */\n      swap3\n      pop\n        /* \"#utility.yul\":4212:4330   */\n      pop\n        /* \"#utility.yul\":4369:4371   */\n      0x40\n        /* \"#utility.yul\":4395:4448   */\n      tag_333\n        /* \"#utility.yul\":4440:4447   */\n      dup7\n        /* \"#utility.yul\":4431:4437   */\n      dup3\n        /* \"#utility.yul\":4420:4429   */\n      dup8\n        /* \"#utility.yul\":4416:4438   */\n      add\n        /* \"#utility.yul\":4395:4448   */\n      tag_248\n      jump\t// in\n    tag_333:\n        /* \"#utility.yul\":4385:4448   */\n      swap2\n      pop\n        /* \"#utility.yul\":4340:4458   */\n      pop\n        /* \"#utility.yul\":3846:4465   */\n      swap3\n      pop\n      swap3\n      pop\n      swap3\n      jump\t// out\n        /* \"#utility.yul\":4471:4557   */\n    tag_252:\n        /* \"#utility.yul\":4506:4513   */\n      0x00\n        /* \"#utility.yul\":4546:4550   */\n      0xff\n        /* \"#utility.yul\":4539:4544   */\n      dup3\n        /* \"#utility.yul\":4535:4551   */\n      and\n        /* \"#utility.yul\":4524:4551   */\n      swap1\n      pop\n        /* \"#utility.yul\":4471:4557   */\n      swap2\n      swap1\n      pop\n      jump\t// out\n        /* \"#utility.yul\":4563:4675   */\n    tag_253:\n        /* \"#utility.yul\":4646:4668   */\n      tag_336\n        /* \"#utility.yul\":4662:4667   */\n      dup2\n        /* \"#utility.yul\":4646:4668   */\n      tag_252\n      jump\t// in\n    tag_336:\n        /* \"#utility.yul\":4641:4644   */\n      dup3\n        /* \"#utility.yul\":4634:4669   */\n      mstore\n        /* \"#utility.yul\":4563:4675   */\n      pop\n      pop\n      jump\t// out\n        /* \"#utility.yul\":4681:4895   */\n    tag_48:\n        /* \"#utility.yul\":4770:4774   */\n      0x00\n        /* \"#utility.yul\":4808:4810   */\n      0x20\n        /* \"#utility.yul\":4797:4806   */\n      dup3\n        /* \"#utility.yul\":4793:4811   */\n      add\n        /* \"#utility.yul\":4785:4811   */\n      swap1\n      pop\n        /* \"#utility.yul\":4821:4888   */\n      tag_338\n        /* \"#utility.yul\":4885:4886   */\n      0x00\n        /* \"#utility.yul\":4874:4883   */\n      dup4\n        /* \"#utility.yul\":4870:4887   */\n      add\n        /* \"#utility.yul\":4861:4867   */\n      dup5\n        /* \"#utility.yul\":4821:4888   */\n      tag_253\n      jump\t// in\n    tag_338:\n        /* \"#utility.yul\":4681:4895   */\n      swap3\n      swap2\n      pop\n      pop\n      jump\t// out\n        /* \"#utility.yul\":4901:5230   */\n    tag_61:\n        /* \"#utility.yul\":4960:4966   */\n      0x00\n        /* \"#utility.yul\":5009:5011   */\n      0x20\n        /* \"#utility.yul\":4997:5006   */\n      dup3\n        /* \"#utility.yul\":4988:4995   */\n      dup5\n        /* \"#utility.yul\":4984:5007   */\n      sub\n        /* \"#utility.yul\":4980:5012   */\n      slt\n        /* \"#utility.yul\":4977:5096   */\n      iszero\n      tag_340\n      jumpi\n        /* \"#utility.yul\":5015:5094   */\n      tag_341\n      tag_240\n      jump\t// in\n    tag_341:\n        /* \"#utility.yul\":4977:5096   */\n    tag_340:\n        /* \"#utility.yul\":5135:5136   */\n      0x00\n        /* \"#utility.yul\":5160:5213   */\n      tag_342\n        /* \"#utility.yul\":5205:5212   */\n      dup5\n        /* \"#utility.yul\":5196:5202   */\n      dup3\n        /* \"#utility.yul\":5185:5194   */\n      dup6\n        /* \"#utility.yul\":5181:5203   */\n      add\n        /* \"#utility.yul\":5160:5213   */\n      tag_245\n      jump\t// in\n    tag_342:\n        /* \"#utility.yul\":5150:5213   */\n      swap2\n      pop\n        /* \"#utility.yul\":5106:5223   */\n      pop\n        /* \"#utility.yul\":4901:5230   */\n      swap3\n      swap2\n      pop\n      pop\n      jump\t// out\n        /* \"#utility.yul\":5236:5354   */\n    tag_254:\n        /* \"#utility.yul\":5323:5347   */\n      tag_344\n        /* \"#utility.yul\":5341:5346   */\n      dup2\n        /* \"#utility.yul\":5323:5347   */\n      tag_243\n      jump\t// in\n    tag_344:\n        /* \"#utility.yul\":5318:5321   */\n      dup3\n        /* \"#utility.yul\":5311:5348   */\n      mstore\n        /* \"#utility.yul\":5236:5354   */\n      pop\n      pop\n      jump\t// out\n        /* \"#utility.yul\":5360:5582   */\n    tag_69:\n        /* \"#utility.yul\":5453:5457   */\n      0x00\n        /* \"#utility.yul\":5491:5493   */\n      0x20\n        /* \"#utility.yul\":5480:5489   */\n      dup3\n        /* \"#utility.yul\":5476:5494   */\n      add\n        /* \"#utility.yul\":5468:5494   */\n      swap1\n      pop\n        /* \"#utility.yul\":5504:5575   */\n      tag_346\n        /* \"#utility.yul\":5572:5573   */\n      0x00\n        /* \"#utility.yul\":5561:5570   */\n      dup4\n        /* \"#utility.yul\":5557:5574   */\n      add\n        /* \"#utility.yul\":5548:5554   */\n      dup5\n        /* \"#utility.yul\":5504:5575   */\n      tag_254\n      jump\t// in\n    tag_346:\n        /* \"#utility.yul\":5360:5582   */\n      swap3\n      swap2\n      pop\n      pop\n      jump\t// out\n        /* \"#utility.yul\":5588:6062   */\n    tag_89:\n        /* \"#utility.yul\":5656:5662   */\n      0x00\n        /* \"#utility.yul\":5664:5670   */\n      dup1\n        /* \"#utility.yul\":5713:5715   */\n      0x40\n        /* \"#utility.yul\":5701:5710   */\n      dup4\n        /* \"#utility.yul\":5692:5699   */\n      dup6\n        /* \"#utility.yul\":5688:5711   */\n      sub\n        /* \"#utility.yul\":5684:5716   */\n      slt\n        /* \"#utility.yul\":5681:5800   */\n      iszero\n      tag_348\n      jumpi\n        /* \"#utility.yul\":5719:5798   */\n      tag_349\n      tag_240\n      jump\t// in\n    tag_349:\n        /* \"#utility.yul\":5681:5800   */\n    tag_348:\n        /* \"#utility.yul\":5839:5840   */\n      0x00\n        /* \"#utility.yul\":5864:5917   */\n      tag_350\n        /* \"#utility.yul\":5909:5916   */\n      dup6\n        /* \"#utility.yul\":5900:5906   */\n      dup3\n        /* \"#utility.yul\":5889:5898   */\n      dup7\n        /* \"#utility.yul\":5885:5907   */\n      add\n        /* \"#utility.yul\":5864:5917   */\n      tag_245\n      jump\t// in\n    tag_350:\n        /* \"#utility.yul\":5854:5917   */\n      swap3\n      pop\n        /* \"#utility.yul\":5810:5927   */\n      pop\n        /* \"#utility.yul\":5966:5968   */\n      0x20\n        /* \"#utility.yul\":5992:6045   */\n      tag_351\n        /* \"#utility.yul\":6037:6044   */\n      dup6\n        /* \"#utility.yul\":6028:6034   */\n      dup3\n        /* \"#utility.yul\":6017:6026   */\n      dup7\n        /* \"#utility.yul\":6013:6035   */\n      add\n        /* \"#utility.yul\":5992:6045   */\n      tag_245\n      jump\t// in\n    tag_351:\n        /* \"#utility.yul\":5982:6045   */\n      swap2\n      pop\n        /* \"#utility.yul\":5937:6055   */\n      pop\n        /* \"#utility.yul\":5588:6062   */\n      swap3\n      pop\n      swap3\n      swap1\n      pop\n      jump\t// out\n        /* \"#utility.yul\":6068:6248   */\n    tag_255:\n        /* \"#utility.yul\":6116:6193   */\n      0x4e487b7100000000000000000000000000000000000000000000000000000000\n        /* \"#utility.yul\":6113:6114   */\n      0x00\n        /* \"#utility.yul\":6106:6194   */\n      mstore\n        /* \"#utility.yul\":6213:6217   */\n      0x22\n        /* \"#utility.yul\":6210:6211   */\n      0x04\n        /* \"#utility.yul\":6203:6218   */\n      mstore\n        /* \"#utility.yul\":6237:6241   */\n      0x24\n        /* \"#utility.yul\":6234:6235   */\n      0x00\n        /* \"#utility.yul\":6227:6242   */\n      revert\n        /* \"#utility.yul\":6254:6574   */\n    tag_104:\n        /* \"#utility.yul\":6298:6304   */\n      0x00\n        /* \"#utility.yul\":6335:6336   */\n      0x02\n        /* \"#utility.yul\":6329:6333   */\n      dup3\n        /* \"#utility.yul\":6325:6337   */\n      div\n        /* \"#utility.yul\":6315:6337   */\n      swap1\n      pop\n        /* \"#utility.yul\":6382:6383   */\n      0x01\n        /* \"#utility.yul\":6376:6380   */\n      dup3\n        /* \"#utility.yul\":6372:6384   */\n      and\n        /* \"#utility.yul\":6403:6421   */\n      dup1\n        /* \"#utility.yul\":6393:6474   */\n      tag_354\n      jumpi\n        /* \"#utility.yul\":6459:6463   */\n      0x7f\n        /* \"#utility.yul\":6451:6457   */\n      dup3\n        /* \"#utility.yul\":6447:6464   */\n      and\n        /* \"#utility.yul\":6437:6464   */\n      swap2\n      pop\n        /* \"#utility.yul\":6393:6474   */\n    tag_354:\n        /* \"#utility.yul\":6521:6523   */\n      0x20\n        /* \"#utility.yul\":6513:6519   */\n      dup3\n        /* \"#utility.yul\":6510:6524   */\n      lt\n        /* \"#utility.yul\":6490:6508   */\n      dup2\n        /* \"#utility.yul\":6487:6525   */\n      sub\n        /* \"#utility.yul\":6484:6568   */\n      tag_355\n      jumpi\n        /* \"#utility.yul\":6540:6558   */\n      tag_356\n      tag_255\n      jump\t// in\n    tag_356:\n        /* \"#utility.yul\":6484:6568   */\n    tag_355:\n        /* \"#utility.yul\":6305:6574   */\n      pop\n        /* \"#utility.yul\":6254:6574   */\n      swap2\n      swap1\n      pop\n      jump\t// out\n        /* \"#utility.yul\":6580:6760   */\n    tag_256:\n        /* \"#utility.yul\":6628:6705   */\n      0x4e487b7100000000000000000000000000000000000000000000000000000000\n        /* \"#utility.yul\":6625:6626   */\n      0x00\n        /* \"#utility.yul\":6618:6706   */\n      mstore\n        /* \"#utility.yul\":6725:6729   */\n      0x11\n        /* \"#utility.yul\":6722:6723   */\n      0x04\n        /* \"#utility.yul\":6715:6730   */\n      mstore\n        /* \"#utility.yul\":6749:6753   */\n      0x24\n        /* \"#utility.yul\":6746:6747   */\n      0x00\n        /* \"#utility.yul\":6739:6754   */\n      revert\n        /* \"#utility.yul\":6766:7071   */\n    tag_127:\n        /* \"#utility.yul\":6806:6809   */\n      0x00\n        /* \"#utility.yul\":6825:6845   */\n      tag_359\n        /* \"#utility.yul\":6843:6844   */\n      dup3\n        /* \"#utility.yul\":6825:6845   */\n      tag_246\n      jump\t// in\n    tag_359:\n        /* \"#utility.yul\":6820:6845   */\n      swap2\n      pop\n        /* \"#utility.yul\":6859:6879   */\n      tag_360\n        /* \"#utility.yul\":6877:6878   */\n      dup4\n        /* \"#utility.yul\":6859:6879   */\n      tag_246\n      jump\t// in\n    tag_360:\n        /* \"#utility.yul\":6854:6879   */\n      swap3\n      pop\n        /* \"#utility.yul\":7013:7014   */\n      dup3\n        /* \"#utility.yul\":6945:7011   */\n      0xffffffffffffffffffffffffffffffffffffffffffffffffffffffffffffffff\n        /* \"#utility.yul\":6941:7015   */\n      sub\n        /* \"#utility.yul\":6938:6939   */\n      dup3\n        /* \"#utility.yul\":6935:7016   */\n      gt\n        /* \"#utility.yul\":6932:7039   */\n      iszero\n      tag_361\n      jumpi\n        /* \"#utility.yul\":7019:7037   */\n      tag_362\n      tag_256\n      jump\t// in\n    tag_362:\n        /* \"#utility.yul\":6932:7039   */\n    tag_361:\n        /* \"#utility.yul\":7063:7064   */\n      dup3\n        /* \"#utility.yul\":7060:7061   */\n      dup3\n        /* \"#utility.yul\":7056:7065   */\n      add\n        /* \"#utility.yul\":7049:7065   */\n      swap1\n      pop\n        /* \"#utility.yul\":6766:7071   */\n      swap3\n      swap2\n      pop\n      pop\n      jump\t// out\n        /* \"#utility.yul\":7077:7259   */\n    tag_257:\n        /* \"#utility.yul\":7217:7251   */\n      0x4f776e61626c653a2063616c6c6572206973206e6f7420746865206f776e6572\n        /* \"#utility.yul\":7213:7214   */\n      0x00\n        /* \"#utility.yul\":7205:7211   */\n      dup3\n        /* \"#utility.yul\":7201:7215   */\n      add\n        /* \"#utility.yul\":7194:7252   */\n      mstore\n        /* \"#utility.yul\":7077:7259   */\n      pop\n      jump\t// out\n        /* \"#utility.yul\":7265:7631   */\n    tag_258:\n        /* \"#utility.yul\":7407:7410   */\n      0x00\n        /* \"#utility.yul\":7428:7495   */\n      tag_365\n        /* \"#utility.yul\":7492:7494   */\n      0x20\n        /* \"#utility.yul\":7487:7490   */\n      dup4\n        /* \"#utility.yul\":7428:7495   */\n      tag_235\n      jump\t// in\n    tag_365:\n        /* \"#utility.yul\":7421:7495   */\n      swap2\n      pop\n        /* \"#utility.yul\":7504:7597   */\n      tag_366\n        /* \"#utility.yul\":7593:7596   */\n      dup3\n        /* \"#utility.yul\":7504:7597   */\n      tag_257\n      jump\t// in\n    tag_366:\n        /* \"#utility.yul\":7622:7624   */\n      0x20\n        /* \"#utility.yul\":7617:7620   */\n      dup3\n        /* \"#utility.yul\":7613:7625   */\n      add\n        /* \"#utility.yul\":7606:7625   */\n      swap1\n      pop\n        /* \"#utility.yul\":7265:7631   */\n      swap2\n      swap1\n      pop\n      jump\t// out\n        /* \"#utility.yul\":7637:8056   */\n    tag_137:\n        /* \"#utility.yul\":7803:7807   */\n      0x00\n        /* \"#utility.yul\":7841:7843   */\n      0x20\n        /* \"#utility.yul\":7830:7839   */\n      dup3\n        /* \"#utility.yul\":7826:7844   */\n      add\n        /* \"#utility.yul\":7818:7844   */\n      swap1\n      pop\n        /* \"#utility.yul\":7890:7899   */\n      dup2\n        /* \"#utility.yul\":7884:7888   */\n      dup2\n        /* \"#utility.yul\":7880:7900   */\n      sub\n        /* \"#utility.yul\":7876:7877   */\n      0x00\n        /* \"#utility.yul\":7865:7874   */\n      dup4\n        /* \"#utility.yul\":7861:7878   */\n      add\n        /* \"#utility.yul\":7854:7901   */\n      mstore\n        /* \"#utility.yul\":7918:8049   */\n      tag_368\n        /* \"#utility.yul\":8044:8048   */\n      dup2\n        /* \"#utility.yul\":7918:8049   */\n      tag_258\n      jump\t// in\n    tag_368:\n        /* \"#utility.yul\":7910:8049   */\n      swap1\n      pop\n        /* \"#utility.yul\":7637:8056   */\n      swap2\n      swap1\n      pop\n      jump\t// out\n        /* \"#utility.yul\":8062:8286   */\n    tag_259:\n        /* \"#utility.yul\":8202:8236   */\n      0x45524332303a2064656372656173656420616c6c6f77616e63652062656c6f77\n        /* \"#utility.yul\":8198:8199   */\n      0x00\n        /* \"#utility.yul\":8190:8196   */\n      dup3\n        /* \"#utility.yul\":8186:8200   */\n      add\n        /* \"#utility.yul\":8179:8237   */\n      mstore\n        /* \"#utility.yul\":8271:8278   */\n      0x207a65726f000000000000000000000000000000000000000000000000000000\n        /* \"#utility.yul\":8266:8268   */\n      0x20\n        /* \"#utility.yul\":8258:8264   */\n      dup3\n        /* \"#utility.yul\":8254:8269   */\n      add\n        /* \"#utility.yul\":8247:8279   */\n      mstore\n        /* \"#utility.yul\":8062:8286   */\n      pop\n      jump\t// out\n        /* \"#utility.yul\":8292:8658   */\n    tag_260:\n        /* \"#utility.yul\":8434:8437   */\n      0x00\n        /* \"#utility.yul\":8455:8522   */\n      tag_371\n        /* \"#utility.yul\":8519:8521   */\n      0x25\n        /* \"#utility.yul\":8514:8517   */\n      dup4\n        /* \"#utility.yul\":8455:8522   */\n      tag_235\n      jump\t// in\n    tag_371:\n        /* \"#utility.yul\":8448:8522   */\n      swap2\n      pop\n        /* \"#utility.yul\":8531:8624   */\n      tag_372\n        /* \"#utility.yul\":8620:8623   */\n      dup3\n        /* \"#utility.yul\":8531:8624   */\n      tag_259\n      jump\t// in\n    tag_372:\n        /* \"#utility.yul\":8649:8651   */\n      0x40\n        /* \"#utility.yul\":8644:8647   */\n      dup3\n        /* \"#utility.yul\":8640:8652   */\n      add\n        /* \"#utility.yul\":8633:8652   */\n      swap1\n      pop\n        /* \"#utility.yul\":8292:8658   */\n      swap2\n      swap1\n      pop\n      jump\t// out\n        /* \"#utility.yul\":8664:9083   */\n    tag_156:\n        /* \"#utility.yul\":8830:8834   */\n      0x00\n        /* \"#utility.yul\":8868:8870   */\n      0x20\n        /* \"#utility.yul\":8857:8866   */\n      dup3\n        /* \"#utility.yul\":8853:8871   */\n      add\n        /* \"#utility.yul\":8845:8871   */\n      swap1\n      pop\n        /* \"#utility.yul\":8917:8926   */\n      dup2\n        /* \"#utility.yul\":8911:8915   */\n      dup2\n        /* \"#utility.yul\":8907:8927   */\n      sub\n        /* \"#utility.yul\":8903:8904   */\n      0x00\n        /* \"#utility.yul\":8892:8901   */\n      dup4\n        /* \"#utility.yul\":8888:8905   */\n      add\n        /* \"#utility.yul\":8881:8928   */\n      mstore\n        /* \"#utility.yul\":8945:9076   */\n      tag_374\n        /* \"#utility.yul\":9071:9075   */\n      dup2\n        /* \"#utility.yul\":8945:9076   */\n      tag_260\n      jump\t// in\n    tag_374:\n        /* \"#utility.yul\":8937:9076   */\n      swap1\n      pop\n        /* \"#utility.yul\":8664:9083   */\n      swap2\n      swap1\n      pop\n      jump\t// out\n        /* \"#utility.yul\":9089:9314   */\n    tag_261:\n        /* \"#utility.yul\":9229:9263   */\n      0x4f776e61626c653a206e6577206f776e657220697320746865207a65726f2061\n        /* \"#utility.yul\":9225:9226   */\n      0x00\n        /* \"#utility.yul\":9217:9223   */\n      dup3\n        /* \"#utility.yul\":9213:9227   */\n      add\n        /* \"#utility.yul\":9206:9264   */\n      mstore\n        /* \"#utility.yul\":9298:9306   */\n      0x6464726573730000000000000000000000000000000000000000000000000000\n        /* \"#utility.yul\":9293:9295   */\n      0x20\n        /* \"#utility.yul\":9285:9291   */\n      dup3\n        /* \"#utility.yul\":9281:9296   */\n      add\n        /* \"#utility.yul\":9274:9307   */\n      mstore\n        /* \"#utility.yul\":9089:9314   */\n      pop\n      jump\t// out\n        /* \"#utility.yul\":9320:9686   */\n    tag_262:\n        /* \"#utility.yul\":9462:9465   */\n      0x00\n        /* \"#utility.yul\":9483:9550   */\n      tag_377\n        /* \"#utility.yul\":9547:9549   */\n      0x26\n        /* \"#utility.yul\":9542:9545   */\n      dup4\n        /* \"#utility.yul\":9483:9550   */\n      tag_235\n      jump\t// in\n    tag_377:\n        /* \"#utility.yul\":9476:9550   */\n      swap2\n      pop\n        /* \"#utility.yul\":9559:9652   */\n      tag_378\n        /* \"#utility.yul\":9648:9651   */\n      dup3\n        /* \"#utility.yul\":9559:9652   */\n      tag_261\n      jump\t// in\n    tag_378:\n        /* \"#utility.yul\":9677:9679   */\n      0x40\n        /* \"#utility.yul\":9672:9675   */\n      dup3\n        /* \"#utility.yul\":9668:9680   */\n      add\n        /* \"#utility.yul\":9661:9680   */\n      swap1\n      pop\n        /* \"#utility.yul\":9320:9686   */\n      swap2\n      swap1\n      pop\n      jump\t// out\n        /* \"#utility.yul\":9692:10111   */\n    tag_174:\n        /* \"#utility.yul\":9858:9862   */\n      0x00\n        /* \"#utility.yul\":9896:9898   */\n      0x20\n        /* \"#utility.yul\":9885:9894   */\n      dup3\n        /* \"#utility.yul\":9881:9899   */\n      add\n        /* \"#utility.yul\":9873:9899   */\n      swap1\n      pop\n        /* \"#utility.yul\":9945:9954   */\n      dup2\n        /* \"#utility.yul\":9939:9943   */\n      dup2\n        /* \"#utility.yul\":9935:9955   */\n      sub\n        /* \"#utility.yul\":9931:9932   */\n      0x00\n        /* \"#utility.yul\":9920:9929   */\n      dup4\n        /* \"#utility.yul\":9916:9933   */\n      add\n        /* \"#utility.yul\":9909:9956   */\n      mstore\n        /* \"#utility.yul\":9973:10104   */\n      tag_380\n        /* \"#utility.yul\":10099:10103   */\n      dup2\n        /* \"#utility.yul\":9973:10104   */\n      tag_262\n      jump\t// in\n    tag_380:\n        /* \"#utility.yul\":9965:10104   */\n      swap1\n      pop\n        /* \"#utility.yul\":9692:10111   */\n      swap2\n      swap1\n      pop\n      jump\t// out\n        /* \"#utility.yul\":10117:10340   */\n    tag_263:\n        /* \"#utility.yul\":10257:10291   */\n      0x45524332303a20617070726f76652066726f6d20746865207a65726f20616464\n        /* \"#utility.yul\":10253:10254   */\n      0x00\n        /* \"#utility.yul\":10245:10251   */\n      dup3\n        /* \"#utility.yul\":10241:10255   */\n      add\n        /* \"#utility.yul\":10234:10292   */\n      mstore\n        /* \"#utility.yul\":10326:10332   */\n      0x7265737300000000000000000000000000000000000000000000000000000000\n        /* \"#utility.yul\":10321:10323   */\n      0x20\n        /* \"#utility.yul\":10313:10319   */\n      dup3\n        /* \"#utility.yul\":10309:10324   */\n      add\n        /* \"#utility.yul\":10302:10333   */\n      mstore\n        /* \"#utility.yul\":10117:10340   */\n      pop\n      jump\t// out\n        /* \"#utility.yul\":10346:10712   */\n    tag_264:\n        /* \"#utility.yul\":10488:10491   */\n      0x00\n        /* \"#utility.yul\":10509:10576   */\n      tag_383\n        /* \"#utility.yul\":10573:10575   */\n      0x24\n        /* \"#utility.yul\":10568:10571   */\n      dup4\n        /* \"#utility.yul\":10509:10576   */\n      tag_235\n      jump\t// in\n    tag_383:\n        /* \"#utility.yul\":10502:10576   */\n      swap2\n      pop\n        /* \"#utility.yul\":10585:10678   */\n      tag_384\n        /* \"#utility.yul\":10674:10677   */\n      dup3\n        /* \"#utility.yul\":10585:10678   */\n      tag_263\n      jump\t// in\n    tag_384:\n        /* \"#utility.yul\":10703:10705   */\n      0x40\n        /* \"#utility.yul\":10698:10701   */\n      dup3\n        /* \"#utility.yul\":10694:10706   */\n      add\n        /* \"#utility.yul\":10687:10706   */\n      swap1\n      pop\n        /* \"#utility.yul\":10346:10712   */\n      swap2\n      swap1\n      pop\n      jump\t// out\n        /* \"#utility.yul\":10718:11137   */\n    tag_182:\n        /* \"#utility.yul\":10884:10888   */\n      0x00\n        /* \"#utility.yul\":10922:10924   */\n      0x20\n        /* \"#utility.yul\":10911:10920   */\n      dup3\n        /* \"#utility.yul\":10907:10925   */\n      add\n        /* \"#utility.yul\":10899:10925   */\n      swap1\n      pop\n        /* \"#utility.yul\":10971:10980   */\n      dup2\n        /* \"#utility.yul\":10965:10969   */\n      dup2\n        /* \"#utility.yul\":10961:10981   */\n      sub\n        /* \"#utility.yul\":10957:10958   */\n      0x00\n        /* \"#utility.yul\":10946:10955   */\n      dup4\n        /* \"#utility.yul\":10942:10959   */\n      add\n        /* \"#utility.yul\":10935:10982   */\n      mstore\n        /* \"#utility.yul\":10999:11130   */\n      tag_386\n        /* \"#utility.yul\":11125:11129   */\n      dup2\n        /* \"#utility.yul\":10999:11130   */\n      tag_264\n      jump\t// in\n    tag_386:\n        /* \"#utility.yul\":10991:11130   */\n      swap1\n      pop\n        /* \"#utility.yul\":10718:11137   */\n      swap2\n      swap1\n      pop\n      jump\t// out\n        /* \"#utility.yul\":11143:11364   */\n    tag_265:\n        /* \"#utility.yul\":11283:11317   */\n      0x45524332303a20617070726f766520746f20746865207a65726f206164647265\n        /* \"#utility.yul\":11279:11280   */\n      0x00\n        /* \"#utility.yul\":11271:11277   */\n      dup3\n        /* \"#utility.yul\":11267:11281   */\n      add\n        /* \"#utility.yul\":11260:11318   */\n      mstore\n        /* \"#utility.yul\":11352:11356   */\n      0x7373000000000000000000000000000000000000000000000000000000000000\n        /* \"#utility.yul\":11347:11349   */\n      0x20\n        /* \"#utility.yul\":11339:11345   */\n      dup3\n        /* \"#utility.yul\":11335:11350   */\n      add\n        /* \"#utility.yul\":11328:11357   */\n      mstore\n        /* \"#utility.yul\":11143:11364   */\n      pop\n      jump\t// out\n        /* \"#utility.yul\":11370:11736   */\n    tag_266:\n        /* \"#utility.yul\":11512:11515   */\n      0x00\n        /* \"#utility.yul\":11533:11600   */\n      tag_389\n        /* \"#utility.yul\":11597:11599   */\n      0x22\n        /* \"#utility.yul\":11592:11595   */\n      dup4\n        /* \"#utility.yul\":11533:11600   */\n      tag_235\n      jump\t// in\n    tag_389:\n        /* \"#utility.yul\":11526:11600   */\n      swap2\n      pop\n        /* \"#utility.yul\":11609:11702   */\n      tag_390\n        /* \"#utility.yul\":11698:11701   */\n      dup3\n        /* \"#utility.yul\":11609:11702   */\n      tag_265\n      jump\t// in\n    tag_390:\n        /* \"#utility.yul\":11727:11729   */\n      0x40\n        /* \"#utility.yul\":11722:11725   */\n      dup3\n        /* \"#utility.yul\":11718:11730   */\n      add\n        /* \"#utility.yul\":11711:11730   */\n      swap1\n      pop\n        /* \"#utility.yul\":11370:11736   */\n      swap2\n      swap1\n      pop\n      jump\t// out\n        /* \"#utility.yul\":11742:12161   */\n    tag_185:\n        /* \"#utility.yul\":11908:11912   */\n      0x00\n        /* \"#utility.yul\":11946:11948   */\n      0x20\n        /* \"#utility.yul\":11935:11944   */\n      dup3\n        /* \"#utility.yul\":11931:11949   */\n      add\n        /* \"#utility.yul\":11923:11949   */\n      swap1\n      pop\n        /* \"#utility.yul\":11995:12004   */\n      dup2\n        /* \"#utility.yul\":11989:11993   */\n      dup2\n        /* \"#utility.yul\":11985:12005   */\n      sub\n        /* \"#utility.yul\":11981:11982   */\n      0x00\n        /* \"#utility.yul\":11970:11979   */\n      dup4\n        /* \"#utility.yul\":11966:11983   */\n      add\n        /* \"#utility.yul\":11959:12006   */\n      mstore\n        /* \"#utility.yul\":12023:12154   */\n      tag_392\n        /* \"#utility.yul\":12149:12153   */\n      dup2\n        /* \"#utility.yul\":12023:12154   */\n      tag_266\n      jump\t// in\n    tag_392:\n        /* \"#utility.yul\":12015:12154   */\n      swap1\n      pop\n        /* \"#utility.yul\":11742:12161   */\n      swap2\n      swap1\n      pop\n      jump\t// out\n        /* \"#utility.yul\":12167:12346   */\n    tag_267:\n        /* \"#utility.yul\":12307:12338   */\n      0x45524332303a20696e73756666696369656e7420616c6c6f77616e6365000000\n        /* \"#utility.yul\":12303:12304   */\n      0x00\n        /* \"#utility.yul\":12295:12301   */\n      dup3\n        /* \"#utility.yul\":12291:12305   */\n      add\n        /* \"#utility.yul\":12284:12339   */\n      mstore\n        /* \"#utility.yul\":12167:12346   */\n      pop\n      jump\t// out\n        /* \"#utility.yul\":12352:12718   */\n    tag_268:\n        /* \"#utility.yul\":12494:12497   */\n      0x00\n        /* \"#utility.yul\":12515:12582   */\n      tag_395\n        /* \"#utility.yul\":12579:12581   */\n      0x1d\n        /* \"#utility.yul\":12574:12577   */\n      dup4\n        /* \"#utility.yul\":12515:12582   */\n      tag_235\n      jump\t// in\n    tag_395:\n        /* \"#utility.yul\":12508:12582   */\n      swap2\n      pop\n        /* \"#utility.yul\":12591:12684   */\n      tag_396\n        /* \"#utility.yul\":12680:12683   */\n      dup3\n        /* \"#utility.yul\":12591:12684   */\n      tag_267\n      jump\t// in\n    tag_396:\n        /* \"#utility.yul\":12709:12711   */\n      0x20\n        /* \"#utility.yul\":12704:12707   */\n      dup3\n        /* \"#utility.yul\":12700:12712   */\n      add\n        /* \"#utility.yul\":12693:12712   */\n      swap1\n      pop\n        /* \"#utility.yul\":12352:12718   */\n      swap2\n      swap1\n      pop\n      jump\t// out\n        /* \"#utility.yul\":12724:13143   */\n    tag_192:\n        /* \"#utility.yul\":12890:12894   */\n      0x00\n        /* \"#utility.yul\":12928:12930   */\n      0x20\n        /* \"#utility.yul\":12917:12926   */\n      dup3\n        /* \"#utility.yul\":12913:12931   */\n      add\n        /* \"#utility.yul\":12905:12931   */\n      swap1\n      pop\n        /* \"#utility.yul\":12977:12986   */\n      dup2\n        /* \"#utility.yul\":12971:12975   */\n      dup2\n        /* \"#utility.yul\":12967:12987   */\n      sub\n        /* \"#utility.yul\":12963:12964   */\n      0x00\n        /* \"#utility.yul\":12952:12961   */\n      dup4\n        /* \"#utility.yul\":12948:12965   */\n      add\n        /* \"#utility.yul\":12941:12988   */\n      mstore\n        /* \"#utility.yul\":13005:13136   */\n      tag_398\n        /* \"#utility.yul\":13131:13135   */\n      dup2\n        /* \"#utility.yul\":13005:13136   */\n      tag_268\n      jump\t// in\n    tag_398:\n        /* \"#utility.yul\":12997:13136   */\n      swap1\n      pop\n        /* \"#utility.yul\":12724:13143   */\n      swap2\n      swap1\n      pop\n      jump\t// out\n        /* \"#utility.yul\":13149:13373   */\n    tag_269:\n        /* \"#utility.yul\":13289:13323   */\n      0x45524332303a207472616e736665722066726f6d20746865207a65726f206164\n        /* \"#utility.yul\":13285:13286   */\n      0x00\n        /* \"#utility.yul\":13277:13283   */\n      dup3\n        /* \"#utility.yul\":13273:13287   */\n      add\n        /* \"#utility.yul\":13266:13324   */\n      mstore\n        /* \"#utility.yul\":13358:13365   */\n      0x6472657373000000000000000000000000000000000000000000000000000000\n        /* \"#utility.yul\":13353:13355   */\n      0x20\n        /* \"#utility.yul\":13345:13351   */\n      dup3\n        /* \"#utility.yul\":13341:13356   */\n      add\n        /* \"#utility.yul\":13334:13366   */\n      mstore\n        /* \"#utility.yul\":13149:13373   */\n      pop\n      jump\t// out\n        /* \"#utility.yul\":13379:13745   */\n    tag_270:\n        /* \"#utility.yul\":13521:13524   */\n      0x00\n        /* \"#utility.yul\":13542:13609   */\n      tag_401\n        /* \"#utility.yul\":13606:13608   */\n      0x25\n        /* \"#utility.yul\":13601:13604   */\n      dup4\n        /* \"#utility.yul\":13542:13609   */\n      tag_235\n      jump\t// in\n    tag_401:\n        /* \"#utility.yul\":13535:13609   */\n      swap2\n      pop\n        /* \"#utility.yul\":13618:13711   */\n      tag_402\n        /* \"#utility.yul\":13707:13710   */\n      dup3\n        /* \"#utility.yul\":13618:13711   */\n      tag_269\n      jump\t// in\n    tag_402:\n        /* \"#utility.yul\":13736:13738   */\n      0x40\n        /* \"#utility.yul\":13731:13734   */\n      dup3\n        /* \"#utility.yul\":13727:13739   */\n      add\n        /* \"#utility.yul\":13720:13739   */\n      swap1\n      pop\n        /* \"#utility.yul\":13379:13745   */\n      swap2\n      swap1\n      pop\n      jump\t// out\n        /* \"#utility.yul\":13751:14170   */\n    tag_197:\n        /* \"#utility.yul\":13917:13921   */\n      0x00\n        /* \"#utility.yul\":13955:13957   */\n      0x20\n        /* \"#utility.yul\":13944:13953   */\n      dup3\n        /* \"#utility.yul\":13940:13958   */\n      add\n        /* \"#utility.yul\":13932:13958   */\n      swap1\n      pop\n        /* \"#utility.yul\":14004:14013   */\n      dup2\n        /* \"#utility.yul\":13998:14002   */\n      dup2\n        /* \"#utility.yul\":13994:14014   */\n      sub\n        /* \"#utility.yul\":13990:13991   */\n      0x00\n        /* \"#utility.yul\":13979:13988   */\n      dup4\n        /* \"#utility.yul\":13975:13992   */\n      add\n        /* \"#utility.yul\":13968:14015   */\n      mstore\n        /* \"#utility.yul\":14032:14163   */\n      tag_404\n        /* \"#utility.yul\":14158:14162   */\n      dup2\n        /* \"#utility.yul\":14032:14163   */\n      tag_270\n      jump\t// in\n    tag_404:\n        /* \"#utility.yul\":14024:14163   */\n      swap1\n      pop\n        /* \"#utility.yul\":13751:14170   */\n      swap2\n      swap1\n      pop\n      jump\t// out\n        /* \"#utility.yul\":14176:14398   */\n    tag_271:\n        /* \"#utility.yul\":14316:14350   */\n      0x45524332303a207472616e7366657220746f20746865207a65726f2061646472\n        /* \"#utility.yul\":14312:14313   */\n      0x00\n        /* \"#utility.yul\":14304:14310   */\n      dup3\n        /* \"#utility.yul\":14300:14314   */\n      add\n        /* \"#utility.yul\":14293:14351   */\n      mstore\n        /* \"#utility.yul\":14385:14390   */\n      0x6573730000000000000000000000000000000000000000000000000000000000\n        /* \"#utility.yul\":14380:14382   */\n      0x20\n        /* \"#utility.yul\":14372:14378   */\n      dup3\n        /* \"#utility.yul\":14368:14383   */\n      add\n        /* \"#utility.yul\":14361:14391   */\n      mstore\n        /* \"#utility.yul\":14176:14398   */\n      pop\n      jump\t// out\n        /* \"#utility.yul\":14404:14770   */\n    tag_272:\n        /* \"#utility.yul\":14546:14549   */\n      0x00\n        /* \"#utility.yul\":14567:14634   */\n      tag_407\n        /* \"#utility.yul\":14631:14633   */\n      0x23\n        /* \"#utility.yul\":14626:14629   */\n      dup4\n        /* \"#utility.yul\":14567:14634   */\n      tag_235\n      jump\t// in\n    tag_407:\n        /* \"#utility.yul\":14560:14634   */\n      swap2\n      pop\n        /* \"#utility.yul\":14643:14736   */\n      tag_408\n        /* \"#utility.yul\":14732:14735   */\n      dup3\n        /* \"#utility.yul\":14643:14736   */\n      tag_271\n      jump\t// in\n    tag_408:\n        /* \"#utility.yul\":14761:14763   */\n      0x40\n        /* \"#utility.yul\":14756:14759   */\n      dup3\n        /* \"#utility.yul\":14752:14764   */\n      add\n        /* \"#utility.yul\":14745:14764   */\n      swap1\n      pop\n        /* \"#utility.yul\":14404:14770   */\n      swap2\n      swap1\n      pop\n      jump\t// out\n        /* \"#utility.yul\":14776:15195   */\n    tag_200:\n        /* \"#utility.yul\":14942:14946   */\n      0x00\n        /* \"#utility.yul\":14980:14982   */\n      0x20\n        /* \"#utility.yul\":14969:14978   */\n      dup3\n        /* \"#utility.yul\":14965:14983   */\n      add\n        /* \"#utility.yul\":14957:14983   */\n      swap1\n      pop\n        /* \"#utility.yul\":15029:15038   */\n      dup2\n        /* \"#utility.yul\":15023:15027   */\n      dup2\n        /* \"#utility.yul\":15019:15039   */\n      sub\n        /* \"#utility.yul\":15015:15016   */\n      0x00\n        /* \"#utility.yul\":15004:15013   */\n      dup4\n        /* \"#utility.yul\":15000:15017   */\n      add\n        /* \"#utility.yul\":14993:15040   */\n      mstore\n        /* \"#utility.yul\":15057:15188   */\n      tag_410\n        /* \"#utility.yul\":15183:15187   */\n      dup2\n        /* \"#utility.yul\":15057:15188   */\n      tag_272\n      jump\t// in\n    tag_410:\n        /* \"#utility.yul\":15049:15188   */\n      swap1\n      pop\n        /* \"#utility.yul\":14776:15195   */\n      swap2\n      swap1\n      pop\n      jump\t// out\n        /* \"#utility.yul\":15201:15426   */\n    tag_273:\n        /* \"#utility.yul\":15341:15375   */\n      0x45524332303a207472616e7366657220616d6f756e7420657863656564732062\n        /* \"#utility.yul\":15337:15338   */\n      0x00\n        /* \"#utility.yul\":15329:15335   */\n      dup3\n        /* \"#utility.yul\":15325:15339   */\n      add\n        /* \"#utility.yul\":15318:15376   */\n      mstore\n        /* \"#utility.yul\":15410:15418   */\n      0x616c616e63650000000000000000000000000000000000000000000000000000\n        /* \"#utility.yul\":15405:15407   */\n      0x20\n        /* \"#utility.yul\":15397:15403   */\n      dup3\n        /* \"#utility.yul\":15393:15408   */\n      add\n        /* \"#utility.yul\":15386:15419   */\n      mstore\n        /* \"#utility.yul\":15201:15426   */\n      pop\n      jump\t// out\n        /* \"#utility.yul\":15432:15798   */\n    tag_274:\n        /* \"#utility.yul\":15574:15577   */\n      0x00\n        /* \"#utility.yul\":15595:15662   */\n      tag_413\n        /* \"#utility.yul\":15659:15661   */\n      0x26\n        /* \"#utility.yul\":15654:15657   */\n      dup4\n        /* \"#utility.yul\":15595:15662   */\n      tag_235\n      jump\t// in\n    tag_413:\n        /* \"#utility.yul\":15588:15662   */\n      swap2\n      pop\n        /* \"#utility.yul\":15671:15764   */\n      tag_414\n        /* \"#utility.yul\":15760:15763   */\n      dup3\n        /* \"#utility.yul\":15671:15764   */\n      tag_273\n      jump\t// in\n    tag_414:\n        /* \"#utility.yul\":15789:15791   */\n      0x40\n        /* \"#utility.yul\":15784:15787   */\n      dup3\n        /* \"#utility.yul\":15780:15792   */\n      add\n        /* \"#utility.yul\":15773:15792   */\n      swap1\n      pop\n        /* \"#utility.yul\":15432:15798   */\n      swap2\n      swap1\n      pop\n      jump\t// out\n        /* \"#utility.yul\":15804:16223   */\n    tag_205:\n        /* \"#utility.yul\":15970:15974   */\n      0x00\n        /* \"#utility.yul\":16008:16010   */\n      0x20\n        /* \"#utility.yul\":15997:16006   */\n      dup3\n        /* \"#utility.yul\":15993:16011   */\n      add\n        /* \"#utility.yul\":15985:16011   */\n      swap1\n      pop\n        /* \"#utility.yul\":16057:16066   */\n      dup2\n        /* \"#utility.yul\":16051:16055   */\n      dup2\n        /* \"#utility.yul\":16047:16067   */\n      sub\n        /* \"#utility.yul\":16043:16044   */\n      0x00\n        /* \"#utility.yul\":16032:16041   */\n      dup4\n        /* \"#utility.yul\":16028:16045   */\n      add\n        /* \"#utility.yul\":16021:16068   */\n      mstore\n        /* \"#utility.yul\":16085:16216   */\n      tag_416\n        /* \"#utility.yul\":16211:16215   */\n      dup2\n        /* \"#utility.yul\":16085:16216   */\n      tag_274\n      jump\t// in\n    tag_416:\n        /* \"#utility.yul\":16077:16216   */\n      swap1\n      pop\n        /* \"#utility.yul\":15804:16223   */\n      swap2\n      swap1\n      pop\n      jump\t// out\n        /* \"#utility.yul\":16229:16410   */\n    tag_275:\n        /* \"#utility.yul\":16369:16402   */\n      0x45524332303a206d696e7420746f20746865207a65726f206164647265737300\n        /* \"#utility.yul\":16365:16366   */\n      0x00\n        /* \"#utility.yul\":16357:16363   */\n      dup3\n        /* \"#utility.yul\":16353:16367   */\n      add\n        /* \"#utility.yul\":16346:16403   */\n      mstore\n        /* \"#utility.yul\":16229:16410   */\n      pop\n      jump\t// out\n        /* \"#utility.yul\":16416:16782   */\n    tag_276:\n        /* \"#utility.yul\":16558:16561   */\n      0x00\n        /* \"#utility.yul\":16579:16646   */\n      tag_419\n        /* \"#utility.yul\":16643:16645   */\n      0x1f\n        /* \"#utility.yul\":16638:16641   */\n      dup4\n        /* \"#utility.yul\":16579:16646   */\n      tag_235\n      jump\t// in\n    tag_419:\n        /* \"#utility.yul\":16572:16646   */\n      swap2\n      pop\n        /* \"#utility.yul\":16655:16748   */\n      tag_420\n        /* \"#utility.yul\":16744:16747   */\n      dup3\n        /* \"#utility.yul\":16655:16748   */\n      tag_275\n      jump\t// in\n    tag_420:\n        /* \"#utility.yul\":16773:16775   */\n      0x20\n        /* \"#utility.yul\":16768:16771   */\n      dup3\n        /* \"#utility.yul\":16764:16776   */\n      add\n        /* \"#utility.yul\":16757:16776   */\n      swap1\n      pop\n        /* \"#utility.yul\":16416:16782   */\n      swap2\n      swap1\n      pop\n      jump\t// out\n        /* \"#utility.yul\":16788:17207   */\n    tag_213:\n        /* \"#utility.yul\":16954:16958   */\n      0x00\n        /* \"#utility.yul\":16992:16994   */\n      0x20\n        /* \"#utility.yul\":16981:16990   */\n      dup3\n        /* \"#utility.yul\":16977:16995   */\n      add\n        /* \"#utility.yul\":16969:16995   */\n      swap1\n      pop\n        /* \"#utility.yul\":17041:17050   */\n      dup2\n        /* \"#utility.yul\":17035:17039   */\n      dup2\n        /* \"#utility.yul\":17031:17051   */\n      sub\n        /* \"#utility.yul\":17027:17028   */\n      0x00\n        /* \"#utility.yul\":17016:17025   */\n      dup4\n        /* \"#utility.yul\":17012:17029   */\n      add\n        /* \"#utility.yul\":17005:17052   */\n      mstore\n        /* \"#utility.yul\":17069:17200   */\n      tag_422\n        /* \"#utility.yul\":17195:17199   */\n      dup2\n        /* \"#utility.yul\":17069:17200   */\n      tag_276\n      jump\t// in\n    tag_422:\n        /* \"#utility.yul\":17061:17200   */\n      swap1\n      pop\n        /* \"#utility.yul\":16788:17207   */\n      swap2\n      swap1\n      pop\n      jump\t// out\n        /* \"#utility.yul\":17213:17433   */\n    tag_277:\n        /* \"#utility.yul\":17353:17387   */\n      0x45524332303a206275726e2066726f6d20746865207a65726f20616464726573\n        /* \"#utility.yul\":17349:17350   */\n      0x00\n        /* \"#utility.yul\":17341:17347   */\n      dup3\n        /* \"#utility.yul\":17337:17351   */\n      add\n        /* \"#utility.yul\":17330:17388   */\n      mstore\n        /* \"#utility.yul\":17422:17425   */\n      0x7300000000000000000000000000000000000000000000000000000000000000\n        /* \"#utility.yul\":17417:17419   */\n      0x20\n        /* \"#utility.yul\":17409:17415   */\n      dup3\n        /* \"#utility.yul\":17405:17420   */\n      add\n        /* \"#utility.yul\":17398:17426   */\n      mstore\n        /* \"#utility.yul\":17213:17433   */\n      pop\n      jump\t// out\n        /* \"#utility.yul\":17439:17805   */\n    tag_278:\n        /* \"#utility.yul\":17581:17584   */\n      0x00\n        /* \"#utility.yul\":17602:17669   */\n      tag_425\n        /* \"#utility.yul\":17666:17668   */\n      0x21\n        /* \"#utility.yul\":17661:17664   */\n      dup4\n        /* \"#utility.yul\":17602:17669   */\n      tag_235\n      jump\t// in\n    tag_425:\n        /* \"#utility.yul\":17595:17669   */\n      swap2\n      pop\n        /* \"#utility.yul\":17678:17771   */\n      tag_426\n        /* \"#utility.yul\":17767:17770   */\n      dup3\n        /* \"#utility.yul\":17678:17771   */\n      tag_277\n      jump\t// in\n    tag_426:\n        /* \"#utility.yul\":17796:17798   */\n      0x40\n        /* \"#utility.yul\":17791:17794   */\n      dup3\n        /* \"#utility.yul\":17787:17799   */\n      add\n        /* \"#utility.yul\":17780:17799   */\n      swap1\n      pop\n        /* \"#utility.yul\":17439:17805   */\n      swap2\n      swap1\n      pop\n      jump\t// out\n        /* \"#utility.yul\":17811:18230   */\n    tag_223:\n        /* \"#utility.yul\":17977:17981   */\n      0x00\n        /* \"#utility.yul\":18015:18017   */\n      0x20\n        /* \"#utility.yul\":18004:18013   */\n      dup3\n        /* \"#utility.yul\":18000:18018   */\n      add\n        /* \"#utility.yul\":17992:18018   */\n      swap1\n      pop\n        /* \"#utility.yul\":18064:18073   */\n      dup2\n        /* \"#utility.yul\":18058:18062   */\n      dup2\n        /* \"#utility.yul\":18054:18074   */\n      sub\n        /* \"#utility.yul\":18050:18051   */\n      0x00\n        /* \"#utility.yul\":18039:18048   */\n      dup4\n        /* \"#utility.yul\":18035:18052   */\n      add\n        /* \"#utility.yul\":18028:18075   */\n      mstore\n        /* \"#utility.yul\":18092:18223   */\n      tag_428\n        /* \"#utility.yul\":18218:18222   */\n      dup2\n        /* \"#utility.yul\":18092:18223   */\n      tag_278\n      jump\t// in\n    tag_428:\n        /* \"#utility.yul\":18084:18223   */\n      swap1\n      pop\n        /* \"#utility.yul\":17811:18230   */\n      swap2\n      swap1\n      pop\n      jump\t// out\n        /* \"#utility.yul\":18236:18457   */\n    tag_279:\n        /* \"#utility.yul\":18376:18410   */\n      0x45524332303a206275726e20616d6f756e7420657863656564732062616c616e\n        /* \"#utility.yul\":18372:18373   */\n      0x00\n        /* \"#utility.yul\":18364:18370   */\n      dup3\n        /* \"#utility.yul\":18360:18374   */\n      add\n        /* \"#utility.yul\":18353:18411   */\n      mstore\n        /* \"#utility.yul\":18445:18449   */\n      0x6365000000000000000000000000000000000000000000000000000000000000\n        /* \"#utility.yul\":18440:18442   */\n      0x20\n        /* \"#utility.yul\":18432:18438   */\n      dup3\n        /* \"#utility.yul\":18428:18443   */\n      add\n        /* \"#utility.yul\":18421:18450   */\n      mstore\n        /* \"#utility.yul\":18236:18457   */\n      pop\n      jump\t// out\n        /* \"#utility.yul\":18463:18829   */\n    tag_280:\n        /* \"#utility.yul\":18605:18608   */\n      0x00\n        /* \"#utility.yul\":18626:18693   */\n      tag_431\n        /* \"#utility.yul\":18690:18692   */\n      0x22\n        /* \"#utility.yul\":18685:18688   */\n      dup4\n        /* \"#utility.yul\":18626:18693   */\n      tag_235\n      jump\t// in\n    tag_431:\n        /* \"#utility.yul\":18619:18693   */\n      swap2\n      pop\n        /* \"#utility.yul\":18702:18795   */\n      tag_432\n        /* \"#utility.yul\":18791:18794   */\n      dup3\n        /* \"#utility.yul\":18702:18795   */\n      tag_279\n      jump\t// in\n    tag_432:\n        /* \"#utility.yul\":18820:18822   */\n      0x40\n        /* \"#utility.yul\":18815:18818   */\n      dup3\n        /* \"#utility.yul\":18811:18823   */\n      add\n        /* \"#utility.yul\":18804:18823   */\n      swap1\n      pop\n        /* \"#utility.yul\":18463:18829   */\n      swap2\n      swap1\n      pop\n      jump\t// out\n        /* \"#utility.yul\":18835:19254   */\n    tag_227:\n        /* \"#utility.yul\":19001:19005   */\n      0x00\n        /* \"#utility.yul\":19039:19041   */\n      0x20\n        /* \"#utility.yul\":19028:19037   */\n      dup3\n        /* \"#utility.yul\":19024:19042   */\n      add\n        /* \"#utility.yul\":19016:19042   */\n      swap1\n      pop\n        /* \"#utility.yul\":19088:19097   */\n      dup2\n        /* \"#utility.yul\":19082:19086   */\n      dup2\n        /* \"#utility.yul\":19078:19098   */\n      sub\n        /* \"#utility.yul\":19074:19075   */\n      0x00\n        /* \"#utility.yul\":19063:19072   */\n      dup4\n        /* \"#utility.yul\":19059:19076   */\n      add\n        /* \"#utility.yul\":19052:19099   */\n      mstore\n        /* \"#utility.yul\":19116:19247   */\n      tag_434\n        /* \"#utility.yul\":19242:19246   */\n      dup2\n        /* \"#utility.yul\":19116:19247   */\n      tag_280\n      jump\t// in\n    tag_434:\n        /* \"#utility.yul\":19108:19247   */\n      swap1\n      pop\n        /* \"#utility.yul\":18835:19254   */\n      swap2\n      swap1\n      pop\n      jump\t// out\n        /* \"#utility.yul\":19260:19451   */\n    tag_229:\n        /* \"#utility.yul\":19300:19304   */\n      0x00\n        /* \"#utility.yul\":19320:19340   */\n      tag_436\n        /* \"#utility.yul\":19338:19339   */\n      dup3\n        /* \"#utility.yul\":19320:19340   */\n      tag_246\n      jump\t// in\n    tag_436:\n        /* \"#utility.yul\":19315:19340   */\n      swap2\n      pop\n        /* \"#utility.yul\":19354:19374   */\n      tag_437\n        /* \"#utility.yul\":19372:19373   */\n      dup4\n        /* \"#utility.yul\":19354:19374   */\n      tag_246\n      jump\t// in\n    tag_437:\n        /* \"#utility.yul\":19349:19374   */\n      swap3\n      pop\n        /* \"#utility.yul\":19393:19394   */\n      dup3\n        /* \"#utility.yul\":19390:19391   */\n      dup3\n        /* \"#utility.yul\":19387:19395   */\n      lt\n        /* \"#utility.yul\":19384:19418   */\n      iszero\n      tag_438\n      jumpi\n        /* \"#utility.yul\":19398:19416   */\n      tag_439\n      tag_256\n      jump\t// in\n    tag_439:\n        /* \"#utility.yul\":19384:19418   */\n    tag_438:\n        /* \"#utility.yul\":19443:19444   */\n      dup3\n        /* \"#utility.yul\":19440:19441   */\n      dup3\n        /* \"#utility.yul\":19436:19445   */\n      sub\n        /* \"#utility.yul\":19428:19445   */\n      swap1\n      pop\n        /* \"#utility.yul\":19260:19451   */\n      swap3\n      swap2\n      pop\n      pop\n      jump\t// out\n\n    auxdata: 0xa26469706673582212203be33d8dba732f621ffd6f4aab79ccec6f13244ac9d063af3c3a3af742b56f7964736f6c634300080e0033\n}\n",
				"bytecode": {
					"linkReferences": {},
					"object": "60806040523480156200001157600080fd5b506040518060400160405280600481526020017f434f494e000000000000000000000000000000000000000000000000000000008152506040518060400160405280600281526020017f434e0000000000000000000000000000000000000000000000000000000000008152506009620000a0620000946200011460201b60201c565b6200011c60201b60201c565b8260049080519060200190620000b89291906200038c565b508160059080519060200190620000d19291906200038c565b508060068190555050505067016345785d8a00006007819055506200010e620000ff620001e060201b60201c565b6007546200020960201b60201c565b620005e7565b600033905090565b60008060009054906101000a900473ffffffffffffffffffffffffffffffffffffffff169050816000806101000a81548173ffffffffffffffffffffffffffffffffffffffff021916908373ffffffffffffffffffffffffffffffffffffffff1602179055508173ffffffffffffffffffffffffffffffffffffffff168173ffffffffffffffffffffffffffffffffffffffff167f8be0079c531659141344cd1fd0a4f28419497f9722a3daafe3b4186f6b6457e060405160405180910390a35050565b60008060009054906101000a900473ffffffffffffffffffffffffffffffffffffffff16905090565b600073ffffffffffffffffffffffffffffffffffffffff168273ffffffffffffffffffffffffffffffffffffffff16036200027b576040517f08c379a000000000000000000000000000000000000000000000000000000000815260040162000272906200049d565b60405180910390fd5b6200028f600083836200038260201b60201c565b8060036000828254620002a39190620004f8565b9250508190555080600160008473ffffffffffffffffffffffffffffffffffffffff1673ffffffffffffffffffffffffffffffffffffffff1681526020019081526020016000206000828254620002fb9190620004f8565b925050819055508173ffffffffffffffffffffffffffffffffffffffff16600073ffffffffffffffffffffffffffffffffffffffff167fddf252ad1be2c89b69c2b068fc378daa952ba7f163c4a11628f55a4df523b3ef8360405162000362919062000566565b60405180910390a36200037e600083836200038760201b60201c565b5050565b505050565b505050565b8280546200039a90620005b2565b90600052602060002090601f016020900481019282620003be57600085556200040a565b82601f10620003d957805160ff19168380011785556200040a565b828001600101855582156200040a579182015b8281111562000409578251825591602001919060010190620003ec565b5b5090506200041991906200041d565b5090565b5b80821115620004385760008160009055506001016200041e565b5090565b600082825260208201905092915050565b7f45524332303a206d696e7420746f20746865207a65726f206164647265737300600082015250565b600062000485601f836200043c565b915062000492826200044d565b602082019050919050565b60006020820190508181036000830152620004b88162000476565b9050919050565b6000819050919050565b7f4e487b7100000000000000000000000000000000000000000000000000000000600052601160045260246000fd5b60006200050582620004bf565b91506200051283620004bf565b9250827fffffffffffffffffffffffffffffffffffffffffffffffffffffffffffffffff038211156200054a5762000549620004c9565b5b828201905092915050565b6200056081620004bf565b82525050565b60006020820190506200057d600083018462000555565b92915050565b7f4e487b7100000000000000000000000000000000000000000000000000000000600052602260045260246000fd5b60006002820490506001821680620005cb57607f821691505b602082108103620005e157620005e062000583565b5b50919050565b611ccf80620005f76000396000f3fe608060405234801561001057600080fd5b506004361061012c5760003560e01c80638da5cb5b116100ad578063b45ee9ef11610071578063b45ee9ef14610347578063dd62ed3e14610363578063e3d670d714610393578063f2fde38b146103c3578063f6cd9f0e146103df5761012c565b80638da5cb5b1461028f57806395d89b41146102ad5780639dc29fac146102cb578063a457c2d7146102e7578063a9059cbb146103175761012c565b806339509351116100f457806339509351146101eb5780633eaaf86b1461021b57806340c10f191461023957806370a0823114610255578063715018a6146102855761012c565b806306fdde0314610131578063095ea7b31461014f57806318160ddd1461017f57806323b872dd1461019d578063313ce567146101cd575b600080fd5b6101396103fb565b604051610146919061129e565b60405180910390f35b61016960048036038101906101649190611359565b61048d565b60405161017691906113b4565b60405180910390f35b6101876104b0565b60405161019491906113de565b60405180910390f35b6101b760048036038101906101b291906113f9565b6104ba565b6040516101c491906113b4565b60405180910390f35b6101d56104e9565b6040516101e29190611468565b60405180910390f35b61020560048036038101906102009190611359565b6104f2565b60405161021291906113b4565b60405180910390f35b610223610529565b60405161023091906113de565b60405180910390f35b610253600480360381019061024e9190611359565b61052f565b005b61026f600480360381019061026a9190611483565b61053d565b60405161027c91906113de565b60405180910390f35b61028d610586565b005b61029761060e565b6040516102a491906114bf565b60405180910390f35b6102b5610637565b6040516102c2919061129e565b60405180910390f35b6102e560048036038101906102e09190611359565b6106c9565b005b61030160048036038101906102fc9190611359565b6106d7565b60405161030e91906113b4565b60405180910390f35b610331600480360381019061032c9190611359565b61074e565b60405161033e91906113b4565b60405180910390f35b610361600480360381019061035c91906113f9565b610771565b005b61037d600480360381019061037891906114da565b610781565b60405161038a91906113de565b60405180910390f35b6103ad60048036038101906103a89190611483565b610808565b6040516103ba91906113de565b60405180910390f35b6103dd60048036038101906103d89190611483565b61081a565b005b6103f960048036038101906103f49190611359565b610911565b005b60606004805461040a90611549565b80601f016020809104026020016040519081016040528092919081815260200182805461043690611549565b80156104835780601f1061045857610100808354040283529160200191610483565b820191906000526020600020905b81548152906001019060200180831161046657829003601f168201915b5050505050905090565b600080610498610920565b90506104a5818585610928565b600191505092915050565b6000600354905090565b6000806104c5610920565b90506104d2858285610af1565b6104dd858585610b7d565b60019150509392505050565b60006009905090565b6000806104fd610920565b905061051e81858561050f8589610781565b61051991906115a9565b610928565b600191505092915050565b60075481565b6105398282610dff565b5050565b6000600160008373ffffffffffffffffffffffffffffffffffffffff1673ffffffffffffffffffffffffffffffffffffffff168152602001908152602001600020549050919050565b61058e610920565b73ffffffffffffffffffffffffffffffffffffffff166105ac61060e565b73ffffffffffffffffffffffffffffffffffffffff1614610602576040517f08c379a00000000000000000000000000000000000000000000000000000000081526004016105f99061164b565b60405180910390fd5b61060c6000610f5f565b565b60008060009054906101000a900473ffffffffffffffffffffffffffffffffffffffff16905090565b60606005805461064690611549565b80601f016020809104026020016040519081016040528092919081815260200182805461067290611549565b80156106bf5780601f10610694576101008083540402835291602001916106bf565b820191906000526020600020905b8154815290600101906020018083116106a257829003601f168201915b5050505050905090565b6106d38282611023565b5050565b6000806106e2610920565b905060006106f08286610781565b905083811015610735576040517f08c379a000000000000000000000000000000000000000000000000000000000815260040161072c906116dd565b60405180910390fd5b6107428286868403610928565b60019250505092915050565b600080610759610920565b9050610766818585610b7d565b600191505092915050565b61077c838383610b7d565b505050565b6000600260008473ffffffffffffffffffffffffffffffffffffffff1673ffffffffffffffffffffffffffffffffffffffff16815260200190815260200160002060008373ffffffffffffffffffffffffffffffffffffffff1673ffffffffffffffffffffffffffffffffffffffff16815260200190815260200160002054905092915050565b60006108138261053d565b9050919050565b610822610920565b73ffffffffffffffffffffffffffffffffffffffff1661084061060e565b73ffffffffffffffffffffffffffffffffffffffff1614610896576040517f08c379a000000000000000000000000000000000000000000000000000000000815260040161088d9061164b565b60405180910390fd5b600073ffffffffffffffffffffffffffffffffffffffff168173ffffffffffffffffffffffffffffffffffffffff1603610905576040517f08c379a00000000000000000000000000000000000000000000000000000000081526004016108fc9061176f565b60405180910390fd5b61090e81610f5f565b50565b61091b828261074e565b505050565b600033905090565b600073ffffffffffffffffffffffffffffffffffffffff168373ffffffffffffffffffffffffffffffffffffffff1603610997576040517f08c379a000000000000000000000000000000000000000000000000000000000815260040161098e90611801565b60405180910390fd5b600073ffffffffffffffffffffffffffffffffffffffff168273ffffffffffffffffffffffffffffffffffffffff1603610a06576040517f08c379a00000000000000000000000000000000000000000000000000000000081526004016109fd90611893565b60405180910390fd5b80600260008573ffffffffffffffffffffffffffffffffffffffff1673ffffffffffffffffffffffffffffffffffffffff16815260200190815260200160002060008473ffffffffffffffffffffffffffffffffffffffff1673ffffffffffffffffffffffffffffffffffffffff168152602001908152602001600020819055508173ffffffffffffffffffffffffffffffffffffffff168373ffffffffffffffffffffffffffffffffffffffff167f8c5be1e5ebec7d5bd14f71427d1e84f3dd0314c0f7b2291e5b200ac8c7c3b92583604051610ae491906113de565b60405180910390a3505050565b6000610afd8484610781565b90507fffffffffffffffffffffffffffffffffffffffffffffffffffffffffffffffff8114610b775781811015610b69576040517f08c379a0000000000000000000000000000000000000000000000000000000008152600401610b60906118ff565b60405180910390fd5b610b768484848403610928565b5b50505050565b600073ffffffffffffffffffffffffffffffffffffffff168373ffffffffffffffffffffffffffffffffffffffff1603610bec576040517f08c379a0000000000000000000000000000000000000000000000000000000008152600401610be390611991565b60405180910390fd5b600073ffffffffffffffffffffffffffffffffffffffff168273ffffffffffffffffffffffffffffffffffffffff1603610c5b576040517f08c379a0000000000000000000000000000000000000000000000000000000008152600401610c5290611a23565b60405180910390fd5b610c668383836111fb565b6000600160008573ffffffffffffffffffffffffffffffffffffffff1673ffffffffffffffffffffffffffffffffffffffff16815260200190815260200160002054905081811015610ced576040517f08c379a0000000000000000000000000000000000000000000000000000000008152600401610ce490611ab5565b60405180910390fd5b818103600160008673ffffffffffffffffffffffffffffffffffffffff1673ffffffffffffffffffffffffffffffffffffffff1681526020019081526020016000208190555081600160008573ffffffffffffffffffffffffffffffffffffffff1673ffffffffffffffffffffffffffffffffffffffff1681526020019081526020016000206000828254610d8291906115a9565b925050819055508273ffffffffffffffffffffffffffffffffffffffff168473ffffffffffffffffffffffffffffffffffffffff167fddf252ad1be2c89b69c2b068fc378daa952ba7f163c4a11628f55a4df523b3ef84604051610de691906113de565b60405180910390a3610df9848484611200565b50505050565b600073ffffffffffffffffffffffffffffffffffffffff168273ffffffffffffffffffffffffffffffffffffffff1603610e6e576040517f08c379a0000000000000000000000000000000000000000000000000000000008152600401610e6590611b21565b60405180910390fd5b610e7a600083836111fb565b8060036000828254610e8c91906115a9565b9250508190555080600160008473ffffffffffffffffffffffffffffffffffffffff1673ffffffffffffffffffffffffffffffffffffffff1681526020019081526020016000206000828254610ee291906115a9565b925050819055508173ffffffffffffffffffffffffffffffffffffffff16600073ffffffffffffffffffffffffffffffffffffffff167fddf252ad1be2c89b69c2b068fc378daa952ba7f163c4a11628f55a4df523b3ef83604051610f4791906113de565b60405180910390a3610f5b60008383611200565b5050565b60008060009054906101000a900473ffffffffffffffffffffffffffffffffffffffff169050816000806101000a81548173ffffffffffffffffffffffffffffffffffffffff021916908373ffffffffffffffffffffffffffffffffffffffff1602179055508173ffffffffffffffffffffffffffffffffffffffff168173ffffffffffffffffffffffffffffffffffffffff167f8be0079c531659141344cd1fd0a4f28419497f9722a3daafe3b4186f6b6457e060405160405180910390a35050565b600073ffffffffffffffffffffffffffffffffffffffff168273ffffffffffffffffffffffffffffffffffffffff1603611092576040517f08c379a000000000000000000000000000000000000000000000000000000000815260040161108990611bb3565b60405180910390fd5b61109e826000836111fb565b6000600160008473ffffffffffffffffffffffffffffffffffffffff1673ffffffffffffffffffffffffffffffffffffffff16815260200190815260200160002054905081811015611125576040517f08c379a000000000000000000000000000000000000000000000000000000000815260040161111c90611c45565b60405180910390fd5b818103600160008573ffffffffffffffffffffffffffffffffffffffff1673ffffffffffffffffffffffffffffffffffffffff16815260200190815260200160002081905550816003600082825461117d9190611c65565b92505081905550600073ffffffffffffffffffffffffffffffffffffffff168373ffffffffffffffffffffffffffffffffffffffff167fddf252ad1be2c89b69c2b068fc378daa952ba7f163c4a11628f55a4df523b3ef846040516111e291906113de565b60405180910390a36111f683600084611200565b505050565b505050565b505050565b600081519050919050565b600082825260208201905092915050565b60005b8381101561123f578082015181840152602081019050611224565b8381111561124e576000848401525b50505050565b6000601f19601f8301169050919050565b600061127082611205565b61127a8185611210565b935061128a818560208601611221565b61129381611254565b840191505092915050565b600060208201905081810360008301526112b88184611265565b905092915050565b600080fd5b600073ffffffffffffffffffffffffffffffffffffffff82169050919050565b60006112f0826112c5565b9050919050565b611300816112e5565b811461130b57600080fd5b50565b60008135905061131d816112f7565b92915050565b6000819050919050565b61133681611323565b811461134157600080fd5b50565b6000813590506113538161132d565b92915050565b600080604083850312156113705761136f6112c0565b5b600061137e8582860161130e565b925050602061138f85828601611344565b9150509250929050565b60008115159050919050565b6113ae81611399565b82525050565b60006020820190506113c960008301846113a5565b92915050565b6113d881611323565b82525050565b60006020820190506113f360008301846113cf565b92915050565b600080600060608486031215611412576114116112c0565b5b60006114208682870161130e565b93505060206114318682870161130e565b925050604061144286828701611344565b9150509250925092565b600060ff82169050919050565b6114628161144c565b82525050565b600060208201905061147d6000830184611459565b92915050565b600060208284031215611499576114986112c0565b5b60006114a78482850161130e565b91505092915050565b6114b9816112e5565b82525050565b60006020820190506114d460008301846114b0565b92915050565b600080604083850312156114f1576114f06112c0565b5b60006114ff8582860161130e565b92505060206115108582860161130e565b9150509250929050565b7f4e487b7100000000000000000000000000000000000000000000000000000000600052602260045260246000fd5b6000600282049050600182168061156157607f821691505b6020821081036115745761157361151a565b5b50919050565b7f4e487b7100000000000000000000000000000000000000000000000000000000600052601160045260246000fd5b60006115b482611323565b91506115bf83611323565b9250827fffffffffffffffffffffffffffffffffffffffffffffffffffffffffffffffff038211156115f4576115f361157a565b5b828201905092915050565b7f4f776e61626c653a2063616c6c6572206973206e6f7420746865206f776e6572600082015250565b6000611635602083611210565b9150611640826115ff565b602082019050919050565b6000602082019050818103600083015261166481611628565b9050919050565b7f45524332303a2064656372656173656420616c6c6f77616e63652062656c6f7760008201527f207a65726f000000000000000000000000000000000000000000000000000000602082015250565b60006116c7602583611210565b91506116d28261166b565b604082019050919050565b600060208201905081810360008301526116f6816116ba565b9050919050565b7f4f776e61626c653a206e6577206f776e657220697320746865207a65726f206160008201527f6464726573730000000000000000000000000000000000000000000000000000602082015250565b6000611759602683611210565b9150611764826116fd565b604082019050919050565b600060208201905081810360008301526117888161174c565b9050919050565b7f45524332303a20617070726f76652066726f6d20746865207a65726f2061646460008201527f7265737300000000000000000000000000000000000000000000000000000000602082015250565b60006117eb602483611210565b91506117f68261178f565b604082019050919050565b6000602082019050818103600083015261181a816117de565b9050919050565b7f45524332303a20617070726f766520746f20746865207a65726f20616464726560008201527f7373000000000000000000000000000000000000000000000000000000000000602082015250565b600061187d602283611210565b915061188882611821565b604082019050919050565b600060208201905081810360008301526118ac81611870565b9050919050565b7f45524332303a20696e73756666696369656e7420616c6c6f77616e6365000000600082015250565b60006118e9601d83611210565b91506118f4826118b3565b602082019050919050565b60006020820190508181036000830152611918816118dc565b9050919050565b7f45524332303a207472616e736665722066726f6d20746865207a65726f20616460008201527f6472657373000000000000000000000000000000000000000000000000000000602082015250565b600061197b602583611210565b91506119868261191f565b604082019050919050565b600060208201905081810360008301526119aa8161196e565b9050919050565b7f45524332303a207472616e7366657220746f20746865207a65726f206164647260008201527f6573730000000000000000000000000000000000000000000000000000000000602082015250565b6000611a0d602383611210565b9150611a18826119b1565b604082019050919050565b60006020820190508181036000830152611a3c81611a00565b9050919050565b7f45524332303a207472616e7366657220616d6f756e742065786365656473206260008201527f616c616e63650000000000000000000000000000000000000000000000000000602082015250565b6000611a9f602683611210565b9150611aaa82611a43565b604082019050919050565b60006020820190508181036000830152611ace81611a92565b9050919050565b7f45524332303a206d696e7420746f20746865207a65726f206164647265737300600082015250565b6000611b0b601f83611210565b9150611b1682611ad5565b602082019050919050565b60006020820190508181036000830152611b3a81611afe565b9050919050565b7f45524332303a206275726e2066726f6d20746865207a65726f2061646472657360008201527f7300000000000000000000000000000000000000000000000000000000000000602082015250565b6000611b9d602183611210565b9150611ba882611b41565b604082019050919050565b60006020820190508181036000830152611bcc81611b90565b9050919050565b7f45524332303a206275726e20616d6f756e7420657863656564732062616c616e60008201527f6365000000000000000000000000000000000000000000000000000000000000602082015250565b6000611c2f602283611210565b9150611c3a82611bd3565b604082019050919050565b60006020820190508181036000830152611c5e81611c22565b9050919050565b6000611c7082611323565b9150611c7b83611323565b925082821015611c8e57611c8d61157a565b5b82820390509291505056fea26469706673582212203be33d8dba732f621ffd6f4aab79ccec6f13244ac9d063af3c3a3af742b56f7964736f6c634300080e0033",
					"opcodes": "PUSH1 0x80 PUSH1 0x40 MSTORE CALLVALUE DUP1 ISZERO PUSH3 0x11 JUMPI PUSH1 0x0 DUP1 REVERT JUMPDEST POP PUSH1 0x40 MLOAD DUP1 PUSH1 0x40 ADD PUSH1 0x40 MSTORE DUP1 PUSH1 0x4 DUP2 MSTORE PUSH1 0x20 ADD PUSH32 0x434F494E00000000000000000000000000000000000000000000000000000000 DUP2 MSTORE POP PUSH1 0x40 MLOAD DUP1 PUSH1 0x40 ADD PUSH1 0x40 MSTORE DUP1 PUSH1 0x2 DUP2 MSTORE PUSH1 0x20 ADD PUSH32 0x434E000000000000000000000000000000000000000000000000000000000000 DUP2 MSTORE POP PUSH1 0x9 PUSH3 0xA0 PUSH3 0x94 PUSH3 0x114 PUSH1 0x20 SHL PUSH1 0x20 SHR JUMP JUMPDEST PUSH3 0x11C PUSH1 0x20 SHL PUSH1 0x20 SHR JUMP JUMPDEST DUP3 PUSH1 0x4 SWAP1 DUP1 MLOAD SWAP1 PUSH1 0x20 ADD SWAP1 PUSH3 0xB8 SWAP3 SWAP2 SWAP1 PUSH3 0x38C JUMP JUMPDEST POP DUP2 PUSH1 0x5 SWAP1 DUP1 MLOAD SWAP1 PUSH1 0x20 ADD SWAP1 PUSH3 0xD1 SWAP3 SWAP2 SWAP1 PUSH3 0x38C JUMP JUMPDEST POP DUP1 PUSH1 0x6 DUP2 SWAP1 SSTORE POP POP POP POP PUSH8 0x16345785D8A0000 PUSH1 0x7 DUP2 SWAP1 SSTORE POP PUSH3 0x10E PUSH3 0xFF PUSH3 0x1E0 PUSH1 0x20 SHL PUSH1 0x20 SHR JUMP JUMPDEST PUSH1 0x7 SLOAD PUSH3 0x209 PUSH1 0x20 SHL PUSH1 0x20 SHR JUMP JUMPDEST PUSH3 0x5E7 JUMP JUMPDEST PUSH1 0x0 CALLER SWAP1 POP SWAP1 JUMP JUMPDEST PUSH1 0x0 DUP1 PUSH1 0x0 SWAP1 SLOAD SWAP1 PUSH2 0x100 EXP SWAP1 DIV PUSH20 0xFFFFFFFFFFFFFFFFFFFFFFFFFFFFFFFFFFFFFFFF AND SWAP1 POP DUP2 PUSH1 0x0 DUP1 PUSH2 0x100 EXP DUP2 SLOAD DUP2 PUSH20 0xFFFFFFFFFFFFFFFFFFFFFFFFFFFFFFFFFFFFFFFF MUL NOT AND SWAP1 DUP4 PUSH20 0xFFFFFFFFFFFFFFFFFFFFFFFFFFFFFFFFFFFFFFFF AND MUL OR SWAP1 SSTORE POP DUP2 PUSH20 0xFFFFFFFFFFFFFFFFFFFFFFFFFFFFFFFFFFFFFFFF AND DUP2 PUSH20 0xFFFFFFFFFFFFFFFFFFFFFFFFFFFFFFFFFFFFFFFF AND PUSH32 0x8BE0079C531659141344CD1FD0A4F28419497F9722A3DAAFE3B4186F6B6457E0 PUSH1 0x40 MLOAD PUSH1 0x40 MLOAD DUP1 SWAP2 SUB SWAP1 LOG3 POP POP JUMP JUMPDEST PUSH1 0x0 DUP1 PUSH1 0x0 SWAP1 SLOAD SWAP1 PUSH2 0x100 EXP SWAP1 DIV PUSH20 0xFFFFFFFFFFFFFFFFFFFFFFFFFFFFFFFFFFFFFFFF AND SWAP1 POP SWAP1 JUMP JUMPDEST PUSH1 0x0 PUSH20 0xFFFFFFFFFFFFFFFFFFFFFFFFFFFFFFFFFFFFFFFF AND DUP3 PUSH20 0xFFFFFFFFFFFFFFFFFFFFFFFFFFFFFFFFFFFFFFFF AND SUB PUSH3 0x27B JUMPI PUSH1 0x40 MLOAD PUSH32 0x8C379A000000000000000000000000000000000000000000000000000000000 DUP2 MSTORE PUSH1 0x4 ADD PUSH3 0x272 SWAP1 PUSH3 0x49D JUMP JUMPDEST PUSH1 0x40 MLOAD DUP1 SWAP2 SUB SWAP1 REVERT JUMPDEST PUSH3 0x28F PUSH1 0x0 DUP4 DUP4 PUSH3 0x382 PUSH1 0x20 SHL PUSH1 0x20 SHR JUMP JUMPDEST DUP1 PUSH1 0x3 PUSH1 0x0 DUP3 DUP3 SLOAD PUSH3 0x2A3 SWAP2 SWAP1 PUSH3 0x4F8 JUMP JUMPDEST SWAP3 POP POP DUP2 SWAP1 SSTORE POP DUP1 PUSH1 0x1 PUSH1 0x0 DUP5 PUSH20 0xFFFFFFFFFFFFFFFFFFFFFFFFFFFFFFFFFFFFFFFF AND PUSH20 0xFFFFFFFFFFFFFFFFFFFFFFFFFFFFFFFFFFFFFFFF AND DUP2 MSTORE PUSH1 0x20 ADD SWAP1 DUP2 MSTORE PUSH1 0x20 ADD PUSH1 0x0 KECCAK256 PUSH1 0x0 DUP3 DUP3 SLOAD PUSH3 0x2FB SWAP2 SWAP1 PUSH3 0x4F8 JUMP JUMPDEST SWAP3 POP POP DUP2 SWAP1 SSTORE POP DUP2 PUSH20 0xFFFFFFFFFFFFFFFFFFFFFFFFFFFFFFFFFFFFFFFF AND PUSH1 0x0 PUSH20 0xFFFFFFFFFFFFFFFFFFFFFFFFFFFFFFFFFFFFFFFF AND PUSH32 0xDDF252AD1BE2C89B69C2B068FC378DAA952BA7F163C4A11628F55A4DF523B3EF DUP4 PUSH1 0x40 MLOAD PUSH3 0x362 SWAP2 SWAP1 PUSH3 0x566 JUMP JUMPDEST PUSH1 0x40 MLOAD DUP1 SWAP2 SUB SWAP1 LOG3 PUSH3 0x37E PUSH1 0x0 DUP4 DUP4 PUSH3 0x387 PUSH1 0x20 SHL PUSH1 0x20 SHR JUMP JUMPDEST POP POP JUMP JUMPDEST POP POP POP JUMP JUMPDEST POP POP POP JUMP JUMPDEST DUP3 DUP1 SLOAD PUSH3 0x39A SWAP1 PUSH3 0x5B2 JUMP JUMPDEST SWAP1 PUSH1 0x0 MSTORE PUSH1 0x20 PUSH1 0x0 KECCAK256 SWAP1 PUSH1 0x1F ADD PUSH1 0x20 SWAP1 DIV DUP2 ADD SWAP3 DUP3 PUSH3 0x3BE JUMPI PUSH1 0x0 DUP6 SSTORE PUSH3 0x40A JUMP JUMPDEST DUP3 PUSH1 0x1F LT PUSH3 0x3D9 JUMPI DUP1 MLOAD PUSH1 0xFF NOT AND DUP4 DUP1 ADD OR DUP6 SSTORE PUSH3 0x40A JUMP JUMPDEST DUP3 DUP1 ADD PUSH1 0x1 ADD DUP6 SSTORE DUP3 ISZERO PUSH3 0x40A JUMPI SWAP2 DUP3 ADD JUMPDEST DUP3 DUP2 GT ISZERO PUSH3 0x409 JUMPI DUP3 MLOAD DUP3 SSTORE SWAP2 PUSH1 0x20 ADD SWAP2 SWAP1 PUSH1 0x1 ADD SWAP1 PUSH3 0x3EC JUMP JUMPDEST JUMPDEST POP SWAP1 POP PUSH3 0x419 SWAP2 SWAP1 PUSH3 0x41D JUMP JUMPDEST POP SWAP1 JUMP JUMPDEST JUMPDEST DUP1 DUP3 GT ISZERO PUSH3 0x438 JUMPI PUSH1 0x0 DUP2 PUSH1 0x0 SWAP1 SSTORE POP PUSH1 0x1 ADD PUSH3 0x41E JUMP JUMPDEST POP SWAP1 JUMP JUMPDEST PUSH1 0x0 DUP3 DUP3 MSTORE PUSH1 0x20 DUP3 ADD SWAP1 POP SWAP3 SWAP2 POP POP JUMP JUMPDEST PUSH32 0x45524332303A206D696E7420746F20746865207A65726F206164647265737300 PUSH1 0x0 DUP3 ADD MSTORE POP JUMP JUMPDEST PUSH1 0x0 PUSH3 0x485 PUSH1 0x1F DUP4 PUSH3 0x43C JUMP JUMPDEST SWAP2 POP PUSH3 0x492 DUP3 PUSH3 0x44D JUMP JUMPDEST PUSH1 0x20 DUP3 ADD SWAP1 POP SWAP2 SWAP1 POP JUMP JUMPDEST PUSH1 0x0 PUSH1 0x20 DUP3 ADD SWAP1 POP DUP2 DUP2 SUB PUSH1 0x0 DUP4 ADD MSTORE PUSH3 0x4B8 DUP2 PUSH3 0x476 JUMP JUMPDEST SWAP1 POP SWAP2 SWAP1 POP JUMP JUMPDEST PUSH1 0x0 DUP2 SWAP1 POP SWAP2 SWAP1 POP JUMP JUMPDEST PUSH32 0x4E487B7100000000000000000000000000000000000000000000000000000000 PUSH1 0x0 MSTORE PUSH1 0x11 PUSH1 0x4 MSTORE PUSH1 0x24 PUSH1 0x0 REVERT JUMPDEST PUSH1 0x0 PUSH3 0x505 DUP3 PUSH3 0x4BF JUMP JUMPDEST SWAP2 POP PUSH3 0x512 DUP4 PUSH3 0x4BF JUMP JUMPDEST SWAP3 POP DUP3 PUSH32 0xFFFFFFFFFFFFFFFFFFFFFFFFFFFFFFFFFFFFFFFFFFFFFFFFFFFFFFFFFFFFFFFF SUB DUP3 GT ISZERO PUSH3 0x54A JUMPI PUSH3 0x549 PUSH3 0x4C9 JUMP JUMPDEST JUMPDEST DUP3 DUP3 ADD SWAP1 POP SWAP3 SWAP2 POP POP JUMP JUMPDEST PUSH3 0x560 DUP2 PUSH3 0x4BF JUMP JUMPDEST DUP3 MSTORE POP POP JUMP JUMPDEST PUSH1 0x0 PUSH1 0x20 DUP3 ADD SWAP1 POP PUSH3 0x57D PUSH1 0x0 DUP4 ADD DUP5 PUSH3 0x555 JUMP JUMPDEST SWAP3 SWAP2 POP POP JUMP JUMPDEST PUSH32 0x4E487B7100000000000000000000000000000000000000000000000000000000 PUSH1 0x0 MSTORE PUSH1 0x22 PUSH1 0x4 MSTORE PUSH1 0x24 PUSH1 0x0 REVERT JUMPDEST PUSH1 0x0 PUSH1 0x2 DUP3 DIV SWAP1 POP PUSH1 0x1 DUP3 AND DUP1 PUSH3 0x5CB JUMPI PUSH1 0x7F DUP3 AND SWAP2 POP JUMPDEST PUSH1 0x20 DUP3 LT DUP2 SUB PUSH3 0x5E1 JUMPI PUSH3 0x5E0 PUSH3 0x583 JUMP JUMPDEST JUMPDEST POP SWAP2 SWAP1 POP JUMP JUMPDEST PUSH2 0x1CCF DUP1 PUSH3 0x5F7 PUSH1 0x0 CODECOPY PUSH1 0x0 RETURN INVALID PUSH1 0x80 PUSH1 0x40 MSTORE CALLVALUE DUP1 ISZERO PUSH2 0x10 JUMPI PUSH1 0x0 DUP1 REVERT JUMPDEST POP PUSH1 0x4 CALLDATASIZE LT PUSH2 0x12C JUMPI PUSH1 0x0 CALLDATALOAD PUSH1 0xE0 SHR DUP1 PUSH4 0x8DA5CB5B GT PUSH2 0xAD JUMPI DUP1 PUSH4 0xB45EE9EF GT PUSH2 0x71 JUMPI DUP1 PUSH4 0xB45EE9EF EQ PUSH2 0x347 JUMPI DUP1 PUSH4 0xDD62ED3E EQ PUSH2 0x363 JUMPI DUP1 PUSH4 0xE3D670D7 EQ PUSH2 0x393 JUMPI DUP1 PUSH4 0xF2FDE38B EQ PUSH2 0x3C3 JUMPI DUP1 PUSH4 0xF6CD9F0E EQ PUSH2 0x3DF JUMPI PUSH2 0x12C JUMP JUMPDEST DUP1 PUSH4 0x8DA5CB5B EQ PUSH2 0x28F JUMPI DUP1 PUSH4 0x95D89B41 EQ PUSH2 0x2AD JUMPI DUP1 PUSH4 0x9DC29FAC EQ PUSH2 0x2CB JUMPI DUP1 PUSH4 0xA457C2D7 EQ PUSH2 0x2E7 JUMPI DUP1 PUSH4 0xA9059CBB EQ PUSH2 0x317 JUMPI PUSH2 0x12C JUMP JUMPDEST DUP1 PUSH4 0x39509351 GT PUSH2 0xF4 JUMPI DUP1 PUSH4 0x39509351 EQ PUSH2 0x1EB JUMPI DUP1 PUSH4 0x3EAAF86B EQ PUSH2 0x21B JUMPI DUP1 PUSH4 0x40C10F19 EQ PUSH2 0x239 JUMPI DUP1 PUSH4 0x70A08231 EQ PUSH2 0x255 JUMPI DUP1 PUSH4 0x715018A6 EQ PUSH2 0x285 JUMPI PUSH2 0x12C JUMP JUMPDEST DUP1 PUSH4 0x6FDDE03 EQ PUSH2 0x131 JUMPI DUP1 PUSH4 0x95EA7B3 EQ PUSH2 0x14F JUMPI DUP1 PUSH4 0x18160DDD EQ PUSH2 0x17F JUMPI DUP1 PUSH4 0x23B872DD EQ PUSH2 0x19D JUMPI DUP1 PUSH4 0x313CE567 EQ PUSH2 0x1CD JUMPI JUMPDEST PUSH1 0x0 DUP1 REVERT JUMPDEST PUSH2 0x139 PUSH2 0x3FB JUMP JUMPDEST PUSH1 0x40 MLOAD PUSH2 0x146 SWAP2 SWAP1 PUSH2 0x129E JUMP JUMPDEST PUSH1 0x40 MLOAD DUP1 SWAP2 SUB SWAP1 RETURN JUMPDEST PUSH2 0x169 PUSH1 0x4 DUP1 CALLDATASIZE SUB DUP2 ADD SWAP1 PUSH2 0x164 SWAP2 SWAP1 PUSH2 0x1359 JUMP JUMPDEST PUSH2 0x48D JUMP JUMPDEST PUSH1 0x40 MLOAD PUSH2 0x176 SWAP2 SWAP1 PUSH2 0x13B4 JUMP JUMPDEST PUSH1 0x40 MLOAD DUP1 SWAP2 SUB SWAP1 RETURN JUMPDEST PUSH2 0x187 PUSH2 0x4B0 JUMP JUMPDEST PUSH1 0x40 MLOAD PUSH2 0x194 SWAP2 SWAP1 PUSH2 0x13DE JUMP JUMPDEST PUSH1 0x40 MLOAD DUP1 SWAP2 SUB SWAP1 RETURN JUMPDEST PUSH2 0x1B7 PUSH1 0x4 DUP1 CALLDATASIZE SUB DUP2 ADD SWAP1 PUSH2 0x1B2 SWAP2 SWAP1 PUSH2 0x13F9 JUMP JUMPDEST PUSH2 0x4BA JUMP JUMPDEST PUSH1 0x40 MLOAD PUSH2 0x1C4 SWAP2 SWAP1 PUSH2 0x13B4 JUMP JUMPDEST PUSH1 0x40 MLOAD DUP1 SWAP2 SUB SWAP1 RETURN JUMPDEST PUSH2 0x1D5 PUSH2 0x4E9 JUMP JUMPDEST PUSH1 0x40 MLOAD PUSH2 0x1E2 SWAP2 SWAP1 PUSH2 0x1468 JUMP JUMPDEST PUSH1 0x40 MLOAD DUP1 SWAP2 SUB SWAP1 RETURN JUMPDEST PUSH2 0x205 PUSH1 0x4 DUP1 CALLDATASIZE SUB DUP2 ADD SWAP1 PUSH2 0x200 SWAP2 SWAP1 PUSH2 0x1359 JUMP JUMPDEST PUSH2 0x4F2 JUMP JUMPDEST PUSH1 0x40 MLOAD PUSH2 0x212 SWAP2 SWAP1 PUSH2 0x13B4 JUMP JUMPDEST PUSH1 0x40 MLOAD DUP1 SWAP2 SUB SWAP1 RETURN JUMPDEST PUSH2 0x223 PUSH2 0x529 JUMP JUMPDEST PUSH1 0x40 MLOAD PUSH2 0x230 SWAP2 SWAP1 PUSH2 0x13DE JUMP JUMPDEST PUSH1 0x40 MLOAD DUP1 SWAP2 SUB SWAP1 RETURN JUMPDEST PUSH2 0x253 PUSH1 0x4 DUP1 CALLDATASIZE SUB DUP2 ADD SWAP1 PUSH2 0x24E SWAP2 SWAP1 PUSH2 0x1359 JUMP JUMPDEST PUSH2 0x52F JUMP JUMPDEST STOP JUMPDEST PUSH2 0x26F PUSH1 0x4 DUP1 CALLDATASIZE SUB DUP2 ADD SWAP1 PUSH2 0x26A SWAP2 SWAP1 PUSH2 0x1483 JUMP JUMPDEST PUSH2 0x53D JUMP JUMPDEST PUSH1 0x40 MLOAD PUSH2 0x27C SWAP2 SWAP1 PUSH2 0x13DE JUMP JUMPDEST PUSH1 0x40 MLOAD DUP1 SWAP2 SUB SWAP1 RETURN JUMPDEST PUSH2 0x28D PUSH2 0x586 JUMP JUMPDEST STOP JUMPDEST PUSH2 0x297 PUSH2 0x60E JUMP JUMPDEST PUSH1 0x40 MLOAD PUSH2 0x2A4 SWAP2 SWAP1 PUSH2 0x14BF JUMP JUMPDEST PUSH1 0x40 MLOAD DUP1 SWAP2 SUB SWAP1 RETURN JUMPDEST PUSH2 0x2B5 PUSH2 0x637 JUMP JUMPDEST PUSH1 0x40 MLOAD PUSH2 0x2C2 SWAP2 SWAP1 PUSH2 0x129E JUMP JUMPDEST PUSH1 0x40 MLOAD DUP1 SWAP2 SUB SWAP1 RETURN JUMPDEST PUSH2 0x2E5 PUSH1 0x4 DUP1 CALLDATASIZE SUB DUP2 ADD SWAP1 PUSH2 0x2E0 SWAP2 SWAP1 PUSH2 0x1359 JUMP JUMPDEST PUSH2 0x6C9 JUMP JUMPDEST STOP JUMPDEST PUSH2 0x301 PUSH1 0x4 DUP1 CALLDATASIZE SUB DUP2 ADD SWAP1 PUSH2 0x2FC SWAP2 SWAP1 PUSH2 0x1359 JUMP JUMPDEST PUSH2 0x6D7 JUMP JUMPDEST PUSH1 0x40 MLOAD PUSH2 0x30E SWAP2 SWAP1 PUSH2 0x13B4 JUMP JUMPDEST PUSH1 0x40 MLOAD DUP1 SWAP2 SUB SWAP1 RETURN JUMPDEST PUSH2 0x331 PUSH1 0x4 DUP1 CALLDATASIZE SUB DUP2 ADD SWAP1 PUSH2 0x32C SWAP2 SWAP1 PUSH2 0x1359 JUMP JUMPDEST PUSH2 0x74E JUMP JUMPDEST PUSH1 0x40 MLOAD PUSH2 0x33E SWAP2 SWAP1 PUSH2 0x13B4 JUMP JUMPDEST PUSH1 0x40 MLOAD DUP1 SWAP2 SUB SWAP1 RETURN JUMPDEST PUSH2 0x361 PUSH1 0x4 DUP1 CALLDATASIZE SUB DUP2 ADD SWAP1 PUSH2 0x35C SWAP2 SWAP1 PUSH2 0x13F9 JUMP JUMPDEST PUSH2 0x771 JUMP JUMPDEST STOP JUMPDEST PUSH2 0x37D PUSH1 0x4 DUP1 CALLDATASIZE SUB DUP2 ADD SWAP1 PUSH2 0x378 SWAP2 SWAP1 PUSH2 0x14DA JUMP JUMPDEST PUSH2 0x781 JUMP JUMPDEST PUSH1 0x40 MLOAD PUSH2 0x38A SWAP2 SWAP1 PUSH2 0x13DE JUMP JUMPDEST PUSH1 0x40 MLOAD DUP1 SWAP2 SUB SWAP1 RETURN JUMPDEST PUSH2 0x3AD PUSH1 0x4 DUP1 CALLDATASIZE SUB DUP2 ADD SWAP1 PUSH2 0x3A8 SWAP2 SWAP1 PUSH2 0x1483 JUMP JUMPDEST PUSH2 0x808 JUMP JUMPDEST PUSH1 0x40 MLOAD PUSH2 0x3BA SWAP2 SWAP1 PUSH2 0x13DE JUMP JUMPDEST PUSH1 0x40 MLOAD DUP1 SWAP2 SUB SWAP1 RETURN JUMPDEST PUSH2 0x3DD PUSH1 0x4 DUP1 CALLDATASIZE SUB DUP2 ADD SWAP1 PUSH2 0x3D8 SWAP2 SWAP1 PUSH2 0x1483 JUMP JUMPDEST PUSH2 0x81A JUMP JUMPDEST STOP JUMPDEST PUSH2 0x3F9 PUSH1 0x4 DUP1 CALLDATASIZE SUB DUP2 ADD SWAP1 PUSH2 0x3F4 SWAP2 SWAP1 PUSH2 0x1359 JUMP JUMPDEST PUSH2 0x911 JUMP JUMPDEST STOP JUMPDEST PUSH1 0x60 PUSH1 0x4 DUP1 SLOAD PUSH2 0x40A SWAP1 PUSH2 0x1549 JUMP JUMPDEST DUP1 PUSH1 0x1F ADD PUSH1 0x20 DUP1 SWAP2 DIV MUL PUSH1 0x20 ADD PUSH1 0x40 MLOAD SWAP1 DUP2 ADD PUSH1 0x40 MSTORE DUP1 SWAP3 SWAP2 SWAP1 DUP2 DUP2 MSTORE PUSH1 0x20 ADD DUP3 DUP1 SLOAD PUSH2 0x436 SWAP1 PUSH2 0x1549 JUMP JUMPDEST DUP1 ISZERO PUSH2 0x483 JUMPI DUP1 PUSH1 0x1F LT PUSH2 0x458 JUMPI PUSH2 0x100 DUP1 DUP4 SLOAD DIV MUL DUP4 MSTORE SWAP2 PUSH1 0x20 ADD SWAP2 PUSH2 0x483 JUMP JUMPDEST DUP3 ADD SWAP2 SWAP1 PUSH1 0x0 MSTORE PUSH1 0x20 PUSH1 0x0 KECCAK256 SWAP1 JUMPDEST DUP2 SLOAD DUP2 MSTORE SWAP1 PUSH1 0x1 ADD SWAP1 PUSH1 0x20 ADD DUP1 DUP4 GT PUSH2 0x466 JUMPI DUP3 SWAP1 SUB PUSH1 0x1F AND DUP3 ADD SWAP2 JUMPDEST POP POP POP POP POP SWAP1 POP SWAP1 JUMP JUMPDEST PUSH1 0x0 DUP1 PUSH2 0x498 PUSH2 0x920 JUMP JUMPDEST SWAP1 POP PUSH2 0x4A5 DUP2 DUP6 DUP6 PUSH2 0x928 JUMP JUMPDEST PUSH1 0x1 SWAP2 POP POP SWAP3 SWAP2 POP POP JUMP JUMPDEST PUSH1 0x0 PUSH1 0x3 SLOAD SWAP1 POP SWAP1 JUMP JUMPDEST PUSH1 0x0 DUP1 PUSH2 0x4C5 PUSH2 0x920 JUMP JUMPDEST SWAP1 POP PUSH2 0x4D2 DUP6 DUP3 DUP6 PUSH2 0xAF1 JUMP JUMPDEST PUSH2 0x4DD DUP6 DUP6 DUP6 PUSH2 0xB7D JUMP JUMPDEST PUSH1 0x1 SWAP2 POP POP SWAP4 SWAP3 POP POP POP JUMP JUMPDEST PUSH1 0x0 PUSH1 0x9 SWAP1 POP SWAP1 JUMP JUMPDEST PUSH1 0x0 DUP1 PUSH2 0x4FD PUSH2 0x920 JUMP JUMPDEST SWAP1 POP PUSH2 0x51E DUP2 DUP6 DUP6 PUSH2 0x50F DUP6 DUP10 PUSH2 0x781 JUMP JUMPDEST PUSH2 0x519 SWAP2 SWAP1 PUSH2 0x15A9 JUMP JUMPDEST PUSH2 0x928 JUMP JUMPDEST PUSH1 0x1 SWAP2 POP POP SWAP3 SWAP2 POP POP JUMP JUMPDEST PUSH1 0x7 SLOAD DUP2 JUMP JUMPDEST PUSH2 0x539 DUP3 DUP3 PUSH2 0xDFF JUMP JUMPDEST POP POP JUMP JUMPDEST PUSH1 0x0 PUSH1 0x1 PUSH1 0x0 DUP4 PUSH20 0xFFFFFFFFFFFFFFFFFFFFFFFFFFFFFFFFFFFFFFFF AND PUSH20 0xFFFFFFFFFFFFFFFFFFFFFFFFFFFFFFFFFFFFFFFF AND DUP2 MSTORE PUSH1 0x20 ADD SWAP1 DUP2 MSTORE PUSH1 0x20 ADD PUSH1 0x0 KECCAK256 SLOAD SWAP1 POP SWAP2 SWAP1 POP JUMP JUMPDEST PUSH2 0x58E PUSH2 0x920 JUMP JUMPDEST PUSH20 0xFFFFFFFFFFFFFFFFFFFFFFFFFFFFFFFFFFFFFFFF AND PUSH2 0x5AC PUSH2 0x60E JUMP JUMPDEST PUSH20 0xFFFFFFFFFFFFFFFFFFFFFFFFFFFFFFFFFFFFFFFF AND EQ PUSH2 0x602 JUMPI PUSH1 0x40 MLOAD PUSH32 0x8C379A000000000000000000000000000000000000000000000000000000000 DUP2 MSTORE PUSH1 0x4 ADD PUSH2 0x5F9 SWAP1 PUSH2 0x164B JUMP JUMPDEST PUSH1 0x40 MLOAD DUP1 SWAP2 SUB SWAP1 REVERT JUMPDEST PUSH2 0x60C PUSH1 0x0 PUSH2 0xF5F JUMP JUMPDEST JUMP JUMPDEST PUSH1 0x0 DUP1 PUSH1 0x0 SWAP1 SLOAD SWAP1 PUSH2 0x100 EXP SWAP1 DIV PUSH20 0xFFFFFFFFFFFFFFFFFFFFFFFFFFFFFFFFFFFFFFFF AND SWAP1 POP SWAP1 JUMP JUMPDEST PUSH1 0x60 PUSH1 0x5 DUP1 SLOAD PUSH2 0x646 SWAP1 PUSH2 0x1549 JUMP JUMPDEST DUP1 PUSH1 0x1F ADD PUSH1 0x20 DUP1 SWAP2 DIV MUL PUSH1 0x20 ADD PUSH1 0x40 MLOAD SWAP1 DUP2 ADD PUSH1 0x40 MSTORE DUP1 SWAP3 SWAP2 SWAP1 DUP2 DUP2 MSTORE PUSH1 0x20 ADD DUP3 DUP1 SLOAD PUSH2 0x672 SWAP1 PUSH2 0x1549 JUMP JUMPDEST DUP1 ISZERO PUSH2 0x6BF JUMPI DUP1 PUSH1 0x1F LT PUSH2 0x694 JUMPI PUSH2 0x100 DUP1 DUP4 SLOAD DIV MUL DUP4 MSTORE SWAP2 PUSH1 0x20 ADD SWAP2 PUSH2 0x6BF JUMP JUMPDEST DUP3 ADD SWAP2 SWAP1 PUSH1 0x0 MSTORE PUSH1 0x20 PUSH1 0x0 KECCAK256 SWAP1 JUMPDEST DUP2 SLOAD DUP2 MSTORE SWAP1 PUSH1 0x1 ADD SWAP1 PUSH1 0x20 ADD DUP1 DUP4 GT PUSH2 0x6A2 JUMPI DUP3 SWAP1 SUB PUSH1 0x1F AND DUP3 ADD SWAP2 JUMPDEST POP POP POP POP POP SWAP1 POP SWAP1 JUMP JUMPDEST PUSH2 0x6D3 DUP3 DUP3 PUSH2 0x1023 JUMP JUMPDEST POP POP JUMP JUMPDEST PUSH1 0x0 DUP1 PUSH2 0x6E2 PUSH2 0x920 JUMP JUMPDEST SWAP1 POP PUSH1 0x0 PUSH2 0x6F0 DUP3 DUP7 PUSH2 0x781 JUMP JUMPDEST SWAP1 POP DUP4 DUP2 LT ISZERO PUSH2 0x735 JUMPI PUSH1 0x40 MLOAD PUSH32 0x8C379A000000000000000000000000000000000000000000000000000000000 DUP2 MSTORE PUSH1 0x4 ADD PUSH2 0x72C SWAP1 PUSH2 0x16DD JUMP JUMPDEST PUSH1 0x40 MLOAD DUP1 SWAP2 SUB SWAP1 REVERT JUMPDEST PUSH2 0x742 DUP3 DUP7 DUP7 DUP5 SUB PUSH2 0x928 JUMP JUMPDEST PUSH1 0x1 SWAP3 POP POP POP SWAP3 SWAP2 POP POP JUMP JUMPDEST PUSH1 0x0 DUP1 PUSH2 0x759 PUSH2 0x920 JUMP JUMPDEST SWAP1 POP PUSH2 0x766 DUP2 DUP6 DUP6 PUSH2 0xB7D JUMP JUMPDEST PUSH1 0x1 SWAP2 POP POP SWAP3 SWAP2 POP POP JUMP JUMPDEST PUSH2 0x77C DUP4 DUP4 DUP4 PUSH2 0xB7D JUMP JUMPDEST POP POP POP JUMP JUMPDEST PUSH1 0x0 PUSH1 0x2 PUSH1 0x0 DUP5 PUSH20 0xFFFFFFFFFFFFFFFFFFFFFFFFFFFFFFFFFFFFFFFF AND PUSH20 0xFFFFFFFFFFFFFFFFFFFFFFFFFFFFFFFFFFFFFFFF AND DUP2 MSTORE PUSH1 0x20 ADD SWAP1 DUP2 MSTORE PUSH1 0x20 ADD PUSH1 0x0 KECCAK256 PUSH1 0x0 DUP4 PUSH20 0xFFFFFFFFFFFFFFFFFFFFFFFFFFFFFFFFFFFFFFFF AND PUSH20 0xFFFFFFFFFFFFFFFFFFFFFFFFFFFFFFFFFFFFFFFF AND DUP2 MSTORE PUSH1 0x20 ADD SWAP1 DUP2 MSTORE PUSH1 0x20 ADD PUSH1 0x0 KECCAK256 SLOAD SWAP1 POP SWAP3 SWAP2 POP POP JUMP JUMPDEST PUSH1 0x0 PUSH2 0x813 DUP3 PUSH2 0x53D JUMP JUMPDEST SWAP1 POP SWAP2 SWAP1 POP JUMP JUMPDEST PUSH2 0x822 PUSH2 0x920 JUMP JUMPDEST PUSH20 0xFFFFFFFFFFFFFFFFFFFFFFFFFFFFFFFFFFFFFFFF AND PUSH2 0x840 PUSH2 0x60E JUMP JUMPDEST PUSH20 0xFFFFFFFFFFFFFFFFFFFFFFFFFFFFFFFFFFFFFFFF AND EQ PUSH2 0x896 JUMPI PUSH1 0x40 MLOAD PUSH32 0x8C379A000000000000000000000000000000000000000000000000000000000 DUP2 MSTORE PUSH1 0x4 ADD PUSH2 0x88D SWAP1 PUSH2 0x164B JUMP JUMPDEST PUSH1 0x40 MLOAD DUP1 SWAP2 SUB SWAP1 REVERT JUMPDEST PUSH1 0x0 PUSH20 0xFFFFFFFFFFFFFFFFFFFFFFFFFFFFFFFFFFFFFFFF AND DUP2 PUSH20 0xFFFFFFFFFFFFFFFFFFFFFFFFFFFFFFFFFFFFFFFF AND SUB PUSH2 0x905 JUMPI PUSH1 0x40 MLOAD PUSH32 0x8C379A000000000000000000000000000000000000000000000000000000000 DUP2 MSTORE PUSH1 0x4 ADD PUSH2 0x8FC SWAP1 PUSH2 0x176F JUMP JUMPDEST PUSH1 0x40 MLOAD DUP1 SWAP2 SUB SWAP1 REVERT JUMPDEST PUSH2 0x90E DUP2 PUSH2 0xF5F JUMP JUMPDEST POP JUMP JUMPDEST PUSH2 0x91B DUP3 DUP3 PUSH2 0x74E JUMP JUMPDEST POP POP POP JUMP JUMPDEST PUSH1 0x0 CALLER SWAP1 POP SWAP1 JUMP JUMPDEST PUSH1 0x0 PUSH20 0xFFFFFFFFFFFFFFFFFFFFFFFFFFFFFFFFFFFFFFFF AND DUP4 PUSH20 0xFFFFFFFFFFFFFFFFFFFFFFFFFFFFFFFFFFFFFFFF AND SUB PUSH2 0x997 JUMPI PUSH1 0x40 MLOAD PUSH32 0x8C379A000000000000000000000000000000000000000000000000000000000 DUP2 MSTORE PUSH1 0x4 ADD PUSH2 0x98E SWAP1 PUSH2 0x1801 JUMP JUMPDEST PUSH1 0x40 MLOAD DUP1 SWAP2 SUB SWAP1 REVERT JUMPDEST PUSH1 0x0 PUSH20 0xFFFFFFFFFFFFFFFFFFFFFFFFFFFFFFFFFFFFFFFF AND DUP3 PUSH20 0xFFFFFFFFFFFFFFFFFFFFFFFFFFFFFFFFFFFFFFFF AND SUB PUSH2 0xA06 JUMPI PUSH1 0x40 MLOAD PUSH32 0x8C379A000000000000000000000000000000000000000000000000000000000 DUP2 MSTORE PUSH1 0x4 ADD PUSH2 0x9FD SWAP1 PUSH2 0x1893 JUMP JUMPDEST PUSH1 0x40 MLOAD DUP1 SWAP2 SUB SWAP1 REVERT JUMPDEST DUP1 PUSH1 0x2 PUSH1 0x0 DUP6 PUSH20 0xFFFFFFFFFFFFFFFFFFFFFFFFFFFFFFFFFFFFFFFF AND PUSH20 0xFFFFFFFFFFFFFFFFFFFFFFFFFFFFFFFFFFFFFFFF AND DUP2 MSTORE PUSH1 0x20 ADD SWAP1 DUP2 MSTORE PUSH1 0x20 ADD PUSH1 0x0 KECCAK256 PUSH1 0x0 DUP5 PUSH20 0xFFFFFFFFFFFFFFFFFFFFFFFFFFFFFFFFFFFFFFFF AND PUSH20 0xFFFFFFFFFFFFFFFFFFFFFFFFFFFFFFFFFFFFFFFF AND DUP2 MSTORE PUSH1 0x20 ADD SWAP1 DUP2 MSTORE PUSH1 0x20 ADD PUSH1 0x0 KECCAK256 DUP2 SWAP1 SSTORE POP DUP2 PUSH20 0xFFFFFFFFFFFFFFFFFFFFFFFFFFFFFFFFFFFFFFFF AND DUP4 PUSH20 0xFFFFFFFFFFFFFFFFFFFFFFFFFFFFFFFFFFFFFFFF AND PUSH32 0x8C5BE1E5EBEC7D5BD14F71427D1E84F3DD0314C0F7B2291E5B200AC8C7C3B925 DUP4 PUSH1 0x40 MLOAD PUSH2 0xAE4 SWAP2 SWAP1 PUSH2 0x13DE JUMP JUMPDEST PUSH1 0x40 MLOAD DUP1 SWAP2 SUB SWAP1 LOG3 POP POP POP JUMP JUMPDEST PUSH1 0x0 PUSH2 0xAFD DUP5 DUP5 PUSH2 0x781 JUMP JUMPDEST SWAP1 POP PUSH32 0xFFFFFFFFFFFFFFFFFFFFFFFFFFFFFFFFFFFFFFFFFFFFFFFFFFFFFFFFFFFFFFFF DUP2 EQ PUSH2 0xB77 JUMPI DUP2 DUP2 LT ISZERO PUSH2 0xB69 JUMPI PUSH1 0x40 MLOAD PUSH32 0x8C379A000000000000000000000000000000000000000000000000000000000 DUP2 MSTORE PUSH1 0x4 ADD PUSH2 0xB60 SWAP1 PUSH2 0x18FF JUMP JUMPDEST PUSH1 0x40 MLOAD DUP1 SWAP2 SUB SWAP1 REVERT JUMPDEST PUSH2 0xB76 DUP5 DUP5 DUP5 DUP5 SUB PUSH2 0x928 JUMP JUMPDEST JUMPDEST POP POP POP POP JUMP JUMPDEST PUSH1 0x0 PUSH20 0xFFFFFFFFFFFFFFFFFFFFFFFFFFFFFFFFFFFFFFFF AND DUP4 PUSH20 0xFFFFFFFFFFFFFFFFFFFFFFFFFFFFFFFFFFFFFFFF AND SUB PUSH2 0xBEC JUMPI PUSH1 0x40 MLOAD PUSH32 0x8C379A000000000000000000000000000000000000000000000000000000000 DUP2 MSTORE PUSH1 0x4 ADD PUSH2 0xBE3 SWAP1 PUSH2 0x1991 JUMP JUMPDEST PUSH1 0x40 MLOAD DUP1 SWAP2 SUB SWAP1 REVERT JUMPDEST PUSH1 0x0 PUSH20 0xFFFFFFFFFFFFFFFFFFFFFFFFFFFFFFFFFFFFFFFF AND DUP3 PUSH20 0xFFFFFFFFFFFFFFFFFFFFFFFFFFFFFFFFFFFFFFFF AND SUB PUSH2 0xC5B JUMPI PUSH1 0x40 MLOAD PUSH32 0x8C379A000000000000000000000000000000000000000000000000000000000 DUP2 MSTORE PUSH1 0x4 ADD PUSH2 0xC52 SWAP1 PUSH2 0x1A23 JUMP JUMPDEST PUSH1 0x40 MLOAD DUP1 SWAP2 SUB SWAP1 REVERT JUMPDEST PUSH2 0xC66 DUP4 DUP4 DUP4 PUSH2 0x11FB JUMP JUMPDEST PUSH1 0x0 PUSH1 0x1 PUSH1 0x0 DUP6 PUSH20 0xFFFFFFFFFFFFFFFFFFFFFFFFFFFFFFFFFFFFFFFF AND PUSH20 0xFFFFFFFFFFFFFFFFFFFFFFFFFFFFFFFFFFFFFFFF AND DUP2 MSTORE PUSH1 0x20 ADD SWAP1 DUP2 MSTORE PUSH1 0x20 ADD PUSH1 0x0 KECCAK256 SLOAD SWAP1 POP DUP2 DUP2 LT ISZERO PUSH2 0xCED JUMPI PUSH1 0x40 MLOAD PUSH32 0x8C379A000000000000000000000000000000000000000000000000000000000 DUP2 MSTORE PUSH1 0x4 ADD PUSH2 0xCE4 SWAP1 PUSH2 0x1AB5 JUMP JUMPDEST PUSH1 0x40 MLOAD DUP1 SWAP2 SUB SWAP1 REVERT JUMPDEST DUP2 DUP2 SUB PUSH1 0x1 PUSH1 0x0 DUP7 PUSH20 0xFFFFFFFFFFFFFFFFFFFFFFFFFFFFFFFFFFFFFFFF AND PUSH20 0xFFFFFFFFFFFFFFFFFFFFFFFFFFFFFFFFFFFFFFFF AND DUP2 MSTORE PUSH1 0x20 ADD SWAP1 DUP2 MSTORE PUSH1 0x20 ADD PUSH1 0x0 KECCAK256 DUP2 SWAP1 SSTORE POP DUP2 PUSH1 0x1 PUSH1 0x0 DUP6 PUSH20 0xFFFFFFFFFFFFFFFFFFFFFFFFFFFFFFFFFFFFFFFF AND PUSH20 0xFFFFFFFFFFFFFFFFFFFFFFFFFFFFFFFFFFFFFFFF AND DUP2 MSTORE PUSH1 0x20 ADD SWAP1 DUP2 MSTORE PUSH1 0x20 ADD PUSH1 0x0 KECCAK256 PUSH1 0x0 DUP3 DUP3 SLOAD PUSH2 0xD82 SWAP2 SWAP1 PUSH2 0x15A9 JUMP JUMPDEST SWAP3 POP POP DUP2 SWAP1 SSTORE POP DUP3 PUSH20 0xFFFFFFFFFFFFFFFFFFFFFFFFFFFFFFFFFFFFFFFF AND DUP5 PUSH20 0xFFFFFFFFFFFFFFFFFFFFFFFFFFFFFFFFFFFFFFFF AND PUSH32 0xDDF252AD1BE2C89B69C2B068FC378DAA952BA7F163C4A11628F55A4DF523B3EF DUP5 PUSH1 0x40 MLOAD PUSH2 0xDE6 SWAP2 SWAP1 PUSH2 0x13DE JUMP JUMPDEST PUSH1 0x40 MLOAD DUP1 SWAP2 SUB SWAP1 LOG3 PUSH2 0xDF9 DUP5 DUP5 DUP5 PUSH2 0x1200 JUMP JUMPDEST POP POP POP POP JUMP JUMPDEST PUSH1 0x0 PUSH20 0xFFFFFFFFFFFFFFFFFFFFFFFFFFFFFFFFFFFFFFFF AND DUP3 PUSH20 0xFFFFFFFFFFFFFFFFFFFFFFFFFFFFFFFFFFFFFFFF AND SUB PUSH2 0xE6E JUMPI PUSH1 0x40 MLOAD PUSH32 0x8C379A000000000000000000000000000000000000000000000000000000000 DUP2 MSTORE PUSH1 0x4 ADD PUSH2 0xE65 SWAP1 PUSH2 0x1B21 JUMP JUMPDEST PUSH1 0x40 MLOAD DUP1 SWAP2 SUB SWAP1 REVERT JUMPDEST PUSH2 0xE7A PUSH1 0x0 DUP4 DUP4 PUSH2 0x11FB JUMP JUMPDEST DUP1 PUSH1 0x3 PUSH1 0x0 DUP3 DUP3 SLOAD PUSH2 0xE8C SWAP2 SWAP1 PUSH2 0x15A9 JUMP JUMPDEST SWAP3 POP POP DUP2 SWAP1 SSTORE POP DUP1 PUSH1 0x1 PUSH1 0x0 DUP5 PUSH20 0xFFFFFFFFFFFFFFFFFFFFFFFFFFFFFFFFFFFFFFFF AND PUSH20 0xFFFFFFFFFFFFFFFFFFFFFFFFFFFFFFFFFFFFFFFF AND DUP2 MSTORE PUSH1 0x20 ADD SWAP1 DUP2 MSTORE PUSH1 0x20 ADD PUSH1 0x0 KECCAK256 PUSH1 0x0 DUP3 DUP3 SLOAD PUSH2 0xEE2 SWAP2 SWAP1 PUSH2 0x15A9 JUMP JUMPDEST SWAP3 POP POP DUP2 SWAP1 SSTORE POP DUP2 PUSH20 0xFFFFFFFFFFFFFFFFFFFFFFFFFFFFFFFFFFFFFFFF AND PUSH1 0x0 PUSH20 0xFFFFFFFFFFFFFFFFFFFFFFFFFFFFFFFFFFFFFFFF AND PUSH32 0xDDF252AD1BE2C89B69C2B068FC378DAA952BA7F163C4A11628F55A4DF523B3EF DUP4 PUSH1 0x40 MLOAD PUSH2 0xF47 SWAP2 SWAP1 PUSH2 0x13DE JUMP JUMPDEST PUSH1 0x40 MLOAD DUP1 SWAP2 SUB SWAP1 LOG3 PUSH2 0xF5B PUSH1 0x0 DUP4 DUP4 PUSH2 0x1200 JUMP JUMPDEST POP POP JUMP JUMPDEST PUSH1 0x0 DUP1 PUSH1 0x0 SWAP1 SLOAD SWAP1 PUSH2 0x100 EXP SWAP1 DIV PUSH20 0xFFFFFFFFFFFFFFFFFFFFFFFFFFFFFFFFFFFFFFFF AND SWAP1 POP DUP2 PUSH1 0x0 DUP1 PUSH2 0x100 EXP DUP2 SLOAD DUP2 PUSH20 0xFFFFFFFFFFFFFFFFFFFFFFFFFFFFFFFFFFFFFFFF MUL NOT AND SWAP1 DUP4 PUSH20 0xFFFFFFFFFFFFFFFFFFFFFFFFFFFFFFFFFFFFFFFF AND MUL OR SWAP1 SSTORE POP DUP2 PUSH20 0xFFFFFFFFFFFFFFFFFFFFFFFFFFFFFFFFFFFFFFFF AND DUP2 PUSH20 0xFFFFFFFFFFFFFFFFFFFFFFFFFFFFFFFFFFFFFFFF AND PUSH32 0x8BE0079C531659141344CD1FD0A4F28419497F9722A3DAAFE3B4186F6B6457E0 PUSH1 0x40 MLOAD PUSH1 0x40 MLOAD DUP1 SWAP2 SUB SWAP1 LOG3 POP POP JUMP JUMPDEST PUSH1 0x0 PUSH20 0xFFFFFFFFFFFFFFFFFFFFFFFFFFFFFFFFFFFFFFFF AND DUP3 PUSH20 0xFFFFFFFFFFFFFFFFFFFFFFFFFFFFFFFFFFFFFFFF AND SUB PUSH2 0x1092 JUMPI PUSH1 0x40 MLOAD PUSH32 0x8C379A000000000000000000000000000000000000000000000000000000000 DUP2 MSTORE PUSH1 0x4 ADD PUSH2 0x1089 SWAP1 PUSH2 0x1BB3 JUMP JUMPDEST PUSH1 0x40 MLOAD DUP1 SWAP2 SUB SWAP1 REVERT JUMPDEST PUSH2 0x109E DUP3 PUSH1 0x0 DUP4 PUSH2 0x11FB JUMP JUMPDEST PUSH1 0x0 PUSH1 0x1 PUSH1 0x0 DUP5 PUSH20 0xFFFFFFFFFFFFFFFFFFFFFFFFFFFFFFFFFFFFFFFF AND PUSH20 0xFFFFFFFFFFFFFFFFFFFFFFFFFFFFFFFFFFFFFFFF AND DUP2 MSTORE PUSH1 0x20 ADD SWAP1 DUP2 MSTORE PUSH1 0x20 ADD PUSH1 0x0 KECCAK256 SLOAD SWAP1 POP DUP2 DUP2 LT ISZERO PUSH2 0x1125 JUMPI PUSH1 0x40 MLOAD PUSH32 0x8C379A000000000000000000000000000000000000000000000000000000000 DUP2 MSTORE PUSH1 0x4 ADD PUSH2 0x111C SWAP1 PUSH2 0x1C45 JUMP JUMPDEST PUSH1 0x40 MLOAD DUP1 SWAP2 SUB SWAP1 REVERT JUMPDEST DUP2 DUP2 SUB PUSH1 0x1 PUSH1 0x0 DUP6 PUSH20 0xFFFFFFFFFFFFFFFFFFFFFFFFFFFFFFFFFFFFFFFF AND PUSH20 0xFFFFFFFFFFFFFFFFFFFFFFFFFFFFFFFFFFFFFFFF AND DUP2 MSTORE PUSH1 0x20 ADD SWAP1 DUP2 MSTORE PUSH1 0x20 ADD PUSH1 0x0 KECCAK256 DUP2 SWAP1 SSTORE POP DUP2 PUSH1 0x3 PUSH1 0x0 DUP3 DUP3 SLOAD PUSH2 0x117D SWAP2 SWAP1 PUSH2 0x1C65 JUMP JUMPDEST SWAP3 POP POP DUP2 SWAP1 SSTORE POP PUSH1 0x0 PUSH20 0xFFFFFFFFFFFFFFFFFFFFFFFFFFFFFFFFFFFFFFFF AND DUP4 PUSH20 0xFFFFFFFFFFFFFFFFFFFFFFFFFFFFFFFFFFFFFFFF AND PUSH32 0xDDF252AD1BE2C89B69C2B068FC378DAA952BA7F163C4A11628F55A4DF523B3EF DUP5 PUSH1 0x40 MLOAD PUSH2 0x11E2 SWAP2 SWAP1 PUSH2 0x13DE JUMP JUMPDEST PUSH1 0x40 MLOAD DUP1 SWAP2 SUB SWAP1 LOG3 PUSH2 0x11F6 DUP4 PUSH1 0x0 DUP5 PUSH2 0x1200 JUMP JUMPDEST POP POP POP JUMP JUMPDEST POP POP POP JUMP JUMPDEST POP POP POP JUMP JUMPDEST PUSH1 0x0 DUP2 MLOAD SWAP1 POP SWAP2 SWAP1 POP JUMP JUMPDEST PUSH1 0x0 DUP3 DUP3 MSTORE PUSH1 0x20 DUP3 ADD SWAP1 POP SWAP3 SWAP2 POP POP JUMP JUMPDEST PUSH1 0x0 JUMPDEST DUP4 DUP2 LT ISZERO PUSH2 0x123F JUMPI DUP1 DUP3 ADD MLOAD DUP2 DUP5 ADD MSTORE PUSH1 0x20 DUP2 ADD SWAP1 POP PUSH2 0x1224 JUMP JUMPDEST DUP4 DUP2 GT ISZERO PUSH2 0x124E JUMPI PUSH1 0x0 DUP5 DUP5 ADD MSTORE JUMPDEST POP POP POP POP JUMP JUMPDEST PUSH1 0x0 PUSH1 0x1F NOT PUSH1 0x1F DUP4 ADD AND SWAP1 POP SWAP2 SWAP1 POP JUMP JUMPDEST PUSH1 0x0 PUSH2 0x1270 DUP3 PUSH2 0x1205 JUMP JUMPDEST PUSH2 0x127A DUP2 DUP6 PUSH2 0x1210 JUMP JUMPDEST SWAP4 POP PUSH2 0x128A DUP2 DUP6 PUSH1 0x20 DUP7 ADD PUSH2 0x1221 JUMP JUMPDEST PUSH2 0x1293 DUP2 PUSH2 0x1254 JUMP JUMPDEST DUP5 ADD SWAP2 POP POP SWAP3 SWAP2 POP POP JUMP JUMPDEST PUSH1 0x0 PUSH1 0x20 DUP3 ADD SWAP1 POP DUP2 DUP2 SUB PUSH1 0x0 DUP4 ADD MSTORE PUSH2 0x12B8 DUP2 DUP5 PUSH2 0x1265 JUMP JUMPDEST SWAP1 POP SWAP3 SWAP2 POP POP JUMP JUMPDEST PUSH1 0x0 DUP1 REVERT JUMPDEST PUSH1 0x0 PUSH20 0xFFFFFFFFFFFFFFFFFFFFFFFFFFFFFFFFFFFFFFFF DUP3 AND SWAP1 POP SWAP2 SWAP1 POP JUMP JUMPDEST PUSH1 0x0 PUSH2 0x12F0 DUP3 PUSH2 0x12C5 JUMP JUMPDEST SWAP1 POP SWAP2 SWAP1 POP JUMP JUMPDEST PUSH2 0x1300 DUP2 PUSH2 0x12E5 JUMP JUMPDEST DUP2 EQ PUSH2 0x130B JUMPI PUSH1 0x0 DUP1 REVERT JUMPDEST POP JUMP JUMPDEST PUSH1 0x0 DUP2 CALLDATALOAD SWAP1 POP PUSH2 0x131D DUP2 PUSH2 0x12F7 JUMP JUMPDEST SWAP3 SWAP2 POP POP JUMP JUMPDEST PUSH1 0x0 DUP2 SWAP1 POP SWAP2 SWAP1 POP JUMP JUMPDEST PUSH2 0x1336 DUP2 PUSH2 0x1323 JUMP JUMPDEST DUP2 EQ PUSH2 0x1341 JUMPI PUSH1 0x0 DUP1 REVERT JUMPDEST POP JUMP JUMPDEST PUSH1 0x0 DUP2 CALLDATALOAD SWAP1 POP PUSH2 0x1353 DUP2 PUSH2 0x132D JUMP JUMPDEST SWAP3 SWAP2 POP POP JUMP JUMPDEST PUSH1 0x0 DUP1 PUSH1 0x40 DUP4 DUP6 SUB SLT ISZERO PUSH2 0x1370 JUMPI PUSH2 0x136F PUSH2 0x12C0 JUMP JUMPDEST JUMPDEST PUSH1 0x0 PUSH2 0x137E DUP6 DUP3 DUP7 ADD PUSH2 0x130E JUMP JUMPDEST SWAP3 POP POP PUSH1 0x20 PUSH2 0x138F DUP6 DUP3 DUP7 ADD PUSH2 0x1344 JUMP JUMPDEST SWAP2 POP POP SWAP3 POP SWAP3 SWAP1 POP JUMP JUMPDEST PUSH1 0x0 DUP2 ISZERO ISZERO SWAP1 POP SWAP2 SWAP1 POP JUMP JUMPDEST PUSH2 0x13AE DUP2 PUSH2 0x1399 JUMP JUMPDEST DUP3 MSTORE POP POP JUMP JUMPDEST PUSH1 0x0 PUSH1 0x20 DUP3 ADD SWAP1 POP PUSH2 0x13C9 PUSH1 0x0 DUP4 ADD DUP5 PUSH2 0x13A5 JUMP JUMPDEST SWAP3 SWAP2 POP POP JUMP JUMPDEST PUSH2 0x13D8 DUP2 PUSH2 0x1323 JUMP JUMPDEST DUP3 MSTORE POP POP JUMP JUMPDEST PUSH1 0x0 PUSH1 0x20 DUP3 ADD SWAP1 POP PUSH2 0x13F3 PUSH1 0x0 DUP4 ADD DUP5 PUSH2 0x13CF JUMP JUMPDEST SWAP3 SWAP2 POP POP JUMP JUMPDEST PUSH1 0x0 DUP1 PUSH1 0x0 PUSH1 0x60 DUP5 DUP7 SUB SLT ISZERO PUSH2 0x1412 JUMPI PUSH2 0x1411 PUSH2 0x12C0 JUMP JUMPDEST JUMPDEST PUSH1 0x0 PUSH2 0x1420 DUP7 DUP3 DUP8 ADD PUSH2 0x130E JUMP JUMPDEST SWAP4 POP POP PUSH1 0x20 PUSH2 0x1431 DUP7 DUP3 DUP8 ADD PUSH2 0x130E JUMP JUMPDEST SWAP3 POP POP PUSH1 0x40 PUSH2 0x1442 DUP7 DUP3 DUP8 ADD PUSH2 0x1344 JUMP JUMPDEST SWAP2 POP POP SWAP3 POP SWAP3 POP SWAP3 JUMP JUMPDEST PUSH1 0x0 PUSH1 0xFF DUP3 AND SWAP1 POP SWAP2 SWAP1 POP JUMP JUMPDEST PUSH2 0x1462 DUP2 PUSH2 0x144C JUMP JUMPDEST DUP3 MSTORE POP POP JUMP JUMPDEST PUSH1 0x0 PUSH1 0x20 DUP3 ADD SWAP1 POP PUSH2 0x147D PUSH1 0x0 DUP4 ADD DUP5 PUSH2 0x1459 JUMP JUMPDEST SWAP3 SWAP2 POP POP JUMP JUMPDEST PUSH1 0x0 PUSH1 0x20 DUP3 DUP5 SUB SLT ISZERO PUSH2 0x1499 JUMPI PUSH2 0x1498 PUSH2 0x12C0 JUMP JUMPDEST JUMPDEST PUSH1 0x0 PUSH2 0x14A7 DUP5 DUP3 DUP6 ADD PUSH2 0x130E JUMP JUMPDEST SWAP2 POP POP SWAP3 SWAP2 POP POP JUMP JUMPDEST PUSH2 0x14B9 DUP2 PUSH2 0x12E5 JUMP JUMPDEST DUP3 MSTORE POP POP JUMP JUMPDEST PUSH1 0x0 PUSH1 0x20 DUP3 ADD SWAP1 POP PUSH2 0x14D4 PUSH1 0x0 DUP4 ADD DUP5 PUSH2 0x14B0 JUMP JUMPDEST SWAP3 SWAP2 POP POP JUMP JUMPDEST PUSH1 0x0 DUP1 PUSH1 0x40 DUP4 DUP6 SUB SLT ISZERO PUSH2 0x14F1 JUMPI PUSH2 0x14F0 PUSH2 0x12C0 JUMP JUMPDEST JUMPDEST PUSH1 0x0 PUSH2 0x14FF DUP6 DUP3 DUP7 ADD PUSH2 0x130E JUMP JUMPDEST SWAP3 POP POP PUSH1 0x20 PUSH2 0x1510 DUP6 DUP3 DUP7 ADD PUSH2 0x130E JUMP JUMPDEST SWAP2 POP POP SWAP3 POP SWAP3 SWAP1 POP JUMP JUMPDEST PUSH32 0x4E487B7100000000000000000000000000000000000000000000000000000000 PUSH1 0x0 MSTORE PUSH1 0x22 PUSH1 0x4 MSTORE PUSH1 0x24 PUSH1 0x0 REVERT JUMPDEST PUSH1 0x0 PUSH1 0x2 DUP3 DIV SWAP1 POP PUSH1 0x1 DUP3 AND DUP1 PUSH2 0x1561 JUMPI PUSH1 0x7F DUP3 AND SWAP2 POP JUMPDEST PUSH1 0x20 DUP3 LT DUP2 SUB PUSH2 0x1574 JUMPI PUSH2 0x1573 PUSH2 0x151A JUMP JUMPDEST JUMPDEST POP SWAP2 SWAP1 POP JUMP JUMPDEST PUSH32 0x4E487B7100000000000000000000000000000000000000000000000000000000 PUSH1 0x0 MSTORE PUSH1 0x11 PUSH1 0x4 MSTORE PUSH1 0x24 PUSH1 0x0 REVERT JUMPDEST PUSH1 0x0 PUSH2 0x15B4 DUP3 PUSH2 0x1323 JUMP JUMPDEST SWAP2 POP PUSH2 0x15BF DUP4 PUSH2 0x1323 JUMP JUMPDEST SWAP3 POP DUP3 PUSH32 0xFFFFFFFFFFFFFFFFFFFFFFFFFFFFFFFFFFFFFFFFFFFFFFFFFFFFFFFFFFFFFFFF SUB DUP3 GT ISZERO PUSH2 0x15F4 JUMPI PUSH2 0x15F3 PUSH2 0x157A JUMP JUMPDEST JUMPDEST DUP3 DUP3 ADD SWAP1 POP SWAP3 SWAP2 POP POP JUMP JUMPDEST PUSH32 0x4F776E61626C653A2063616C6C6572206973206E6F7420746865206F776E6572 PUSH1 0x0 DUP3 ADD MSTORE POP JUMP JUMPDEST PUSH1 0x0 PUSH2 0x1635 PUSH1 0x20 DUP4 PUSH2 0x1210 JUMP JUMPDEST SWAP2 POP PUSH2 0x1640 DUP3 PUSH2 0x15FF JUMP JUMPDEST PUSH1 0x20 DUP3 ADD SWAP1 POP SWAP2 SWAP1 POP JUMP JUMPDEST PUSH1 0x0 PUSH1 0x20 DUP3 ADD SWAP1 POP DUP2 DUP2 SUB PUSH1 0x0 DUP4 ADD MSTORE PUSH2 0x1664 DUP2 PUSH2 0x1628 JUMP JUMPDEST SWAP1 POP SWAP2 SWAP1 POP JUMP JUMPDEST PUSH32 0x45524332303A2064656372656173656420616C6C6F77616E63652062656C6F77 PUSH1 0x0 DUP3 ADD MSTORE PUSH32 0x207A65726F000000000000000000000000000000000000000000000000000000 PUSH1 0x20 DUP3 ADD MSTORE POP JUMP JUMPDEST PUSH1 0x0 PUSH2 0x16C7 PUSH1 0x25 DUP4 PUSH2 0x1210 JUMP JUMPDEST SWAP2 POP PUSH2 0x16D2 DUP3 PUSH2 0x166B JUMP JUMPDEST PUSH1 0x40 DUP3 ADD SWAP1 POP SWAP2 SWAP1 POP JUMP JUMPDEST PUSH1 0x0 PUSH1 0x20 DUP3 ADD SWAP1 POP DUP2 DUP2 SUB PUSH1 0x0 DUP4 ADD MSTORE PUSH2 0x16F6 DUP2 PUSH2 0x16BA JUMP JUMPDEST SWAP1 POP SWAP2 SWAP1 POP JUMP JUMPDEST PUSH32 0x4F776E61626C653A206E6577206F776E657220697320746865207A65726F2061 PUSH1 0x0 DUP3 ADD MSTORE PUSH32 0x6464726573730000000000000000000000000000000000000000000000000000 PUSH1 0x20 DUP3 ADD MSTORE POP JUMP JUMPDEST PUSH1 0x0 PUSH2 0x1759 PUSH1 0x26 DUP4 PUSH2 0x1210 JUMP JUMPDEST SWAP2 POP PUSH2 0x1764 DUP3 PUSH2 0x16FD JUMP JUMPDEST PUSH1 0x40 DUP3 ADD SWAP1 POP SWAP2 SWAP1 POP JUMP JUMPDEST PUSH1 0x0 PUSH1 0x20 DUP3 ADD SWAP1 POP DUP2 DUP2 SUB PUSH1 0x0 DUP4 ADD MSTORE PUSH2 0x1788 DUP2 PUSH2 0x174C JUMP JUMPDEST SWAP1 POP SWAP2 SWAP1 POP JUMP JUMPDEST PUSH32 0x45524332303A20617070726F76652066726F6D20746865207A65726F20616464 PUSH1 0x0 DUP3 ADD MSTORE PUSH32 0x7265737300000000000000000000000000000000000000000000000000000000 PUSH1 0x20 DUP3 ADD MSTORE POP JUMP JUMPDEST PUSH1 0x0 PUSH2 0x17EB PUSH1 0x24 DUP4 PUSH2 0x1210 JUMP JUMPDEST SWAP2 POP PUSH2 0x17F6 DUP3 PUSH2 0x178F JUMP JUMPDEST PUSH1 0x40 DUP3 ADD SWAP1 POP SWAP2 SWAP1 POP JUMP JUMPDEST PUSH1 0x0 PUSH1 0x20 DUP3 ADD SWAP1 POP DUP2 DUP2 SUB PUSH1 0x0 DUP4 ADD MSTORE PUSH2 0x181A DUP2 PUSH2 0x17DE JUMP JUMPDEST SWAP1 POP SWAP2 SWAP1 POP JUMP JUMPDEST PUSH32 0x45524332303A20617070726F766520746F20746865207A65726F206164647265 PUSH1 0x0 DUP3 ADD MSTORE PUSH32 0x7373000000000000000000000000000000000000000000000000000000000000 PUSH1 0x20 DUP3 ADD MSTORE POP JUMP JUMPDEST PUSH1 0x0 PUSH2 0x187D PUSH1 0x22 DUP4 PUSH2 0x1210 JUMP JUMPDEST SWAP2 POP PUSH2 0x1888 DUP3 PUSH2 0x1821 JUMP JUMPDEST PUSH1 0x40 DUP3 ADD SWAP1 POP SWAP2 SWAP1 POP JUMP JUMPDEST PUSH1 0x0 PUSH1 0x20 DUP3 ADD SWAP1 POP DUP2 DUP2 SUB PUSH1 0x0 DUP4 ADD MSTORE PUSH2 0x18AC DUP2 PUSH2 0x1870 JUMP JUMPDEST SWAP1 POP SWAP2 SWAP1 POP JUMP JUMPDEST PUSH32 0x45524332303A20696E73756666696369656E7420616C6C6F77616E6365000000 PUSH1 0x0 DUP3 ADD MSTORE POP JUMP JUMPDEST PUSH1 0x0 PUSH2 0x18E9 PUSH1 0x1D DUP4 PUSH2 0x1210 JUMP JUMPDEST SWAP2 POP PUSH2 0x18F4 DUP3 PUSH2 0x18B3 JUMP JUMPDEST PUSH1 0x20 DUP3 ADD SWAP1 POP SWAP2 SWAP1 POP JUMP JUMPDEST PUSH1 0x0 PUSH1 0x20 DUP3 ADD SWAP1 POP DUP2 DUP2 SUB PUSH1 0x0 DUP4 ADD MSTORE PUSH2 0x1918 DUP2 PUSH2 0x18DC JUMP JUMPDEST SWAP1 POP SWAP2 SWAP1 POP JUMP JUMPDEST PUSH32 0x45524332303A207472616E736665722066726F6D20746865207A65726F206164 PUSH1 0x0 DUP3 ADD MSTORE PUSH32 0x6472657373000000000000000000000000000000000000000000000000000000 PUSH1 0x20 DUP3 ADD MSTORE POP JUMP JUMPDEST PUSH1 0x0 PUSH2 0x197B PUSH1 0x25 DUP4 PUSH2 0x1210 JUMP JUMPDEST SWAP2 POP PUSH2 0x1986 DUP3 PUSH2 0x191F JUMP JUMPDEST PUSH1 0x40 DUP3 ADD SWAP1 POP SWAP2 SWAP1 POP JUMP JUMPDEST PUSH1 0x0 PUSH1 0x20 DUP3 ADD SWAP1 POP DUP2 DUP2 SUB PUSH1 0x0 DUP4 ADD MSTORE PUSH2 0x19AA DUP2 PUSH2 0x196E JUMP JUMPDEST SWAP1 POP SWAP2 SWAP1 POP JUMP JUMPDEST PUSH32 0x45524332303A207472616E7366657220746F20746865207A65726F2061646472 PUSH1 0x0 DUP3 ADD MSTORE PUSH32 0x6573730000000000000000000000000000000000000000000000000000000000 PUSH1 0x20 DUP3 ADD MSTORE POP JUMP JUMPDEST PUSH1 0x0 PUSH2 0x1A0D PUSH1 0x23 DUP4 PUSH2 0x1210 JUMP JUMPDEST SWAP2 POP PUSH2 0x1A18 DUP3 PUSH2 0x19B1 JUMP JUMPDEST PUSH1 0x40 DUP3 ADD SWAP1 POP SWAP2 SWAP1 POP JUMP JUMPDEST PUSH1 0x0 PUSH1 0x20 DUP3 ADD SWAP1 POP DUP2 DUP2 SUB PUSH1 0x0 DUP4 ADD MSTORE PUSH2 0x1A3C DUP2 PUSH2 0x1A00 JUMP JUMPDEST SWAP1 POP SWAP2 SWAP1 POP JUMP JUMPDEST PUSH32 0x45524332303A207472616E7366657220616D6F756E7420657863656564732062 PUSH1 0x0 DUP3 ADD MSTORE PUSH32 0x616C616E63650000000000000000000000000000000000000000000000000000 PUSH1 0x20 DUP3 ADD MSTORE POP JUMP JUMPDEST PUSH1 0x0 PUSH2 0x1A9F PUSH1 0x26 DUP4 PUSH2 0x1210 JUMP JUMPDEST SWAP2 POP PUSH2 0x1AAA DUP3 PUSH2 0x1A43 JUMP JUMPDEST PUSH1 0x40 DUP3 ADD SWAP1 POP SWAP2 SWAP1 POP JUMP JUMPDEST PUSH1 0x0 PUSH1 0x20 DUP3 ADD SWAP1 POP DUP2 DUP2 SUB PUSH1 0x0 DUP4 ADD MSTORE PUSH2 0x1ACE DUP2 PUSH2 0x1A92 JUMP JUMPDEST SWAP1 POP SWAP2 SWAP1 POP JUMP JUMPDEST PUSH32 0x45524332303A206D696E7420746F20746865207A65726F206164647265737300 PUSH1 0x0 DUP3 ADD MSTORE POP JUMP JUMPDEST PUSH1 0x0 PUSH2 0x1B0B PUSH1 0x1F DUP4 PUSH2 0x1210 JUMP JUMPDEST SWAP2 POP PUSH2 0x1B16 DUP3 PUSH2 0x1AD5 JUMP JUMPDEST PUSH1 0x20 DUP3 ADD SWAP1 POP SWAP2 SWAP1 POP JUMP JUMPDEST PUSH1 0x0 PUSH1 0x20 DUP3 ADD SWAP1 POP DUP2 DUP2 SUB PUSH1 0x0 DUP4 ADD MSTORE PUSH2 0x1B3A DUP2 PUSH2 0x1AFE JUMP JUMPDEST SWAP1 POP SWAP2 SWAP1 POP JUMP JUMPDEST PUSH32 0x45524332303A206275726E2066726F6D20746865207A65726F20616464726573 PUSH1 0x0 DUP3 ADD MSTORE PUSH32 0x7300000000000000000000000000000000000000000000000000000000000000 PUSH1 0x20 DUP3 ADD MSTORE POP JUMP JUMPDEST PUSH1 0x0 PUSH2 0x1B9D PUSH1 0x21 DUP4 PUSH2 0x1210 JUMP JUMPDEST SWAP2 POP PUSH2 0x1BA8 DUP3 PUSH2 0x1B41 JUMP JUMPDEST PUSH1 0x40 DUP3 ADD SWAP1 POP SWAP2 SWAP1 POP JUMP JUMPDEST PUSH1 0x0 PUSH1 0x20 DUP3 ADD SWAP1 POP DUP2 DUP2 SUB PUSH1 0x0 DUP4 ADD MSTORE PUSH2 0x1BCC DUP2 PUSH2 0x1B90 JUMP JUMPDEST SWAP1 POP SWAP2 SWAP1 POP JUMP JUMPDEST PUSH32 0x45524332303A206275726E20616D6F756E7420657863656564732062616C616E PUSH1 0x0 DUP3 ADD MSTORE PUSH32 0x6365000000000000000000000000000000000000000000000000000000000000 PUSH1 0x20 DUP3 ADD MSTORE POP JUMP JUMPDEST PUSH1 0x0 PUSH2 0x1C2F PUSH1 0x22 DUP4 PUSH2 0x1210 JUMP JUMPDEST SWAP2 POP PUSH2 0x1C3A DUP3 PUSH2 0x1BD3 JUMP JUMPDEST PUSH1 0x40 DUP3 ADD SWAP1 POP SWAP2 SWAP1 POP JUMP JUMPDEST PUSH1 0x0 PUSH1 0x20 DUP3 ADD SWAP1 POP DUP2 DUP2 SUB PUSH1 0x0 DUP4 ADD MSTORE PUSH2 0x1C5E DUP2 PUSH2 0x1C22 JUMP JUMPDEST SWAP1 POP SWAP2 SWAP1 POP JUMP JUMPDEST PUSH1 0x0 PUSH2 0x1C70 DUP3 PUSH2 0x1323 JUMP JUMPDEST SWAP2 POP PUSH2 0x1C7B DUP4 PUSH2 0x1323 JUMP JUMPDEST SWAP3 POP DUP3 DUP3 LT ISZERO PUSH2 0x1C8E JUMPI PUSH2 0x1C8D PUSH2 0x157A JUMP JUMPDEST JUMPDEST DUP3 DUP3 SUB SWAP1 POP SWAP3 SWAP2 POP POP JUMP INVALID LOG2 PUSH5 0x6970667358 0x22 SLT KECCAK256 EXTCODESIZE 0xE3 RETURNDATASIZE DUP14 0xBA PUSH20 0x2F621FFD6F4AAB79CCEC6F13244AC9D063AF3C3A GASPRICE 0xF7 TIMESTAMP 0xB5 PUSH16 0x7964736F6C634300080E003300000000 "
				},
				"gasEstimates": {
					"creation": {
						"codeDepositCost": "1475000",
						"executionCost": "infinite",
						"totalCost": "infinite"
					},
					"external": {
						"_totalSupply()": "2474",
						"allowance(address,address)": "infinite",
						"approve(address,uint256)": "infinite",
						"balance(address)": "2950",
						"balanceOf(address)": "2930",
						"burn(address,uint256)": "infinite",
						"decimals()": "455",
						"decreaseAllowance(address,uint256)": "infinite",
						"increaseAllowance(address,uint256)": "infinite",
						"mint(address,uint256)": "infinite",
						"name()": "infinite",
						"owner()": "2545",
						"renounceOwnership()": "30485",
						"symbol()": "infinite",
						"totalSupply()": "2505",
						"transfer(address,uint256)": "infinite",
						"transferFrom(address,address,uint256)": "infinite",
						"transferOwnership(address)": "30808",
						"transferPrice(address,address,uint256)": "infinite",
						"transferTO(address,uint256)": "infinite"
					}
				},
				"methodIdentifiers": {
					"_totalSupply()": "3eaaf86b",
					"allowance(address,address)": "dd62ed3e",
					"approve(address,uint256)": "095ea7b3",
					"balance(address)": "e3d670d7",
					"balanceOf(address)": "70a08231",
					"burn(address,uint256)": "9dc29fac",
					"decimals()": "313ce567",
					"decreaseAllowance(address,uint256)": "a457c2d7",
					"increaseAllowance(address,uint256)": "39509351",
					"mint(address,uint256)": "40c10f19",
					"name()": "06fdde03",
					"owner()": "8da5cb5b",
					"renounceOwnership()": "715018a6",
					"symbol()": "95d89b41",
					"totalSupply()": "18160ddd",
					"transfer(address,uint256)": "a9059cbb",
					"transferFrom(address,address,uint256)": "23b872dd",
					"transferOwnership(address)": "f2fde38b",
					"transferPrice(address,address,uint256)": "b45ee9ef",
					"transferTO(address,uint256)": "f6cd9f0e"
				}
			},
			"storageLayout": {
				"storage": [
					{
						"astId": 828,
						"contract": "contracts/Token/Token.sol:Token",
						"label": "_owner",
						"offset": 0,
						"slot": "0",
						"type": "t_address"
					},
					{
						"astId": 15,
						"contract": "contracts/Token/Token.sol:Token",
						"label": "_balances",
						"offset": 0,
						"slot": "1",
						"type": "t_mapping(t_address,t_uint256)"
					},
					{
						"astId": 21,
						"contract": "contracts/Token/Token.sol:Token",
						"label": "_allowances",
						"offset": 0,
						"slot": "2",
						"type": "t_mapping(t_address,t_mapping(t_address,t_uint256))"
					},
					{
						"astId": 23,
						"contract": "contracts/Token/Token.sol:Token",
						"label": "_totalSupply",
						"offset": 0,
						"slot": "3",
						"type": "t_uint256"
					},
					{
						"astId": 25,
						"contract": "contracts/Token/Token.sol:Token",
						"label": "_name",
						"offset": 0,
						"slot": "4",
						"type": "t_string_storage"
					},
					{
						"astId": 27,
						"contract": "contracts/Token/Token.sol:Token",
						"label": "_symbol",
						"offset": 0,
						"slot": "5",
						"type": "t_string_storage"
					},
					{
						"astId": 29,
						"contract": "contracts/Token/Token.sol:Token",
						"label": "_decimal",
						"offset": 0,
						"slot": "6",
						"type": "t_uint256"
					},
					{
						"astId": 681,
						"contract": "contracts/Token/Token.sol:Token",
						"label": "_totalSupply",
						"offset": 0,
						"slot": "7",
						"type": "t_uint256"
					}
				],
				"types": {
					"t_address": {
						"encoding": "inplace",
						"label": "address",
						"numberOfBytes": "20"
					},
					"t_mapping(t_address,t_mapping(t_address,t_uint256))": {
						"encoding": "mapping",
						"key": "t_address",
						"label": "mapping(address => mapping(address => uint256))",
						"numberOfBytes": "32",
						"value": "t_mapping(t_address,t_uint256)"
					},
					"t_mapping(t_address,t_uint256)": {
						"encoding": "mapping",
						"key": "t_address",
						"label": "mapping(address => uint256)",
						"numberOfBytes": "32",
						"value": "t_uint256"
					},
					"t_string_storage": {
						"encoding": "bytes",
						"label": "string",
						"numberOfBytes": "32"
					},
					"t_uint256": {
						"encoding": "inplace",
						"label": "uint256",
						"numberOfBytes": "32"
					}
				}
			},
			"userdoc": {
				"kind": "user",
				"methods": {},
				"version": 1
			}
		}
	}
}