{
	"contracts/smartContract.sol": {
		"smartContract": {
			"abi": [
				{
					"anonymous": false,
					"inputs": [
						{
							"indexed": true,
							"internalType": "address",
							"name": "previousOwner",
							"type": "address"
						},
						{
							"indexed": true,
							"internalType": "address",
							"name": "newOwner",
							"type": "address"
						}
					],
					"name": "OwnershipTransferred",
					"type": "event"
				},
				{
					"inputs": [],
					"name": "AdminAddress",
					"outputs": [
						{
							"internalType": "address",
							"name": "",
							"type": "address"
						}
					],
					"stateMutability": "view",
					"type": "function"
				},
				{
					"inputs": [],
					"name": "Coin",
					"outputs": [
						{
							"internalType": "contract Token",
							"name": "",
							"type": "address"
						}
					],
					"stateMutability": "view",
					"type": "function"
				},
				{
					"inputs": [
						{
							"internalType": "address",
							"name": "",
							"type": "address"
						},
						{
							"internalType": "uint256",
							"name": "",
							"type": "uint256"
						}
					],
					"name": "buyInfo",
					"outputs": [
						{
							"internalType": "uint256",
							"name": "ID",
							"type": "uint256"
						},
						{
							"internalType": "uint256",
							"name": "buyTime",
							"type": "uint256"
						},
						{
							"internalType": "bool",
							"name": "registered",
							"type": "bool"
						}
					],
					"stateMutability": "view",
					"type": "function"
				},
				{
					"inputs": [
						{
							"internalType": "uint256",
							"name": "id",
							"type": "uint256"
						}
					],
					"name": "buyInformation",
					"outputs": [
						{
							"internalType": "uint256",
							"name": "ID",
							"type": "uint256"
						},
						{
							"internalType": "uint256",
							"name": "buyTime",
							"type": "uint256"
						},
						{
							"internalType": "bool",
							"name": "registered",
							"type": "bool"
						}
					],
					"stateMutability": "view",
					"type": "function"
				},
				{
					"inputs": [
						{
							"internalType": "address",
							"name": "user",
							"type": "address"
						}
					],
					"name": "getIdsOfUser",
					"outputs": [
						{
							"internalType": "uint256[]",
							"name": "",
							"type": "uint256[]"
						}
					],
					"stateMutability": "view",
					"type": "function"
				},
				{
					"inputs": [
						{
							"internalType": "contract Token",
							"name": "_Coin",
							"type": "address"
						},
						{
							"internalType": "address",
							"name": "_adminAddress",
							"type": "address"
						},
						{
							"internalType": "uint256",
							"name": "amount",
							"type": "uint256"
						}
					],
					"name": "initialize",
					"outputs": [],
					"stateMutability": "nonpayable",
					"type": "function"
				},
				{
					"inputs": [],
					"name": "initialized",
					"outputs": [
						{
							"internalType": "bool",
							"name": "",
							"type": "bool"
						}
					],
					"stateMutability": "view",
					"type": "function"
				},
				{
					"inputs": [],
					"name": "owner",
					"outputs": [
						{
							"internalType": "address",
							"name": "",
							"type": "address"
						}
					],
					"stateMutability": "view",
					"type": "function"
				},
				{
					"inputs": [],
					"name": "renounceOwnership",
					"outputs": [],
					"stateMutability": "nonpayable",
					"type": "function"
				},
				{
					"inputs": [
						{
							"internalType": "address",
							"name": "_admin",
							"type": "address"
						}
					],
					"name": "setAdminAddress",
					"outputs": [],
					"stateMutability": "nonpayable",
					"type": "function"
				},
				{
					"inputs": [],
					"name": "totalInvesters",
					"outputs": [
						{
							"internalType": "uint256",
							"name": "",
							"type": "uint256"
						}
					],
					"stateMutability": "view",
					"type": "function"
				},
				{
					"inputs": [
						{
							"internalType": "address",
							"name": "newOwner",
							"type": "address"
						}
					],
					"name": "transferOwnership",
					"outputs": [],
					"stateMutability": "nonpayable",
					"type": "function"
				}
			],
			"devdoc": {
				"kind": "dev",
				"methods": {
					"owner()": {
						"details": "Returns the address of the current owner."
					},
					"renounceOwnership()": {
						"details": "Leaves the contract without owner. It will not be possible to call `onlyOwner` functions anymore. Can only be called by the current owner. NOTE: Renouncing ownership will leave the contract without an owner, thereby removing any functionality that is only available to the owner."
					},
					"transferOwnership(address)": {
						"details": "Transfers ownership of the contract to a new account (`newOwner`). Can only be called by the current owner."
					}
				},
				"version": 1
			},
			"evm": {
				"assembly": "    /* \"contracts/smartContract.sol\":166:1709  contract smartContract is Ownable {... */\n  mstore(0x40, 0x80)\n  callvalue\n  dup1\n  iszero\n  tag_1\n  jumpi\n  0x00\n  dup1\n  revert\ntag_1:\n  pop\n    /* \"contracts/Token/utils/Ownable.sol\":967:999  _transferOwnership(_msgSender()) */\n  tag_4\n    /* \"contracts/Token/utils/Ownable.sol\":986:998  _msgSender() */\n  tag_5\n    /* \"contracts/Token/utils/Ownable.sol\":986:996  _msgSender */\n  shl(0x20, tag_6)\n    /* \"contracts/Token/utils/Ownable.sol\":986:998  _msgSender() */\n  0x20\n  shr\n  jump\t// in\ntag_5:\n    /* \"contracts/Token/utils/Ownable.sol\":967:985  _transferOwnership */\n  shl(0x20, tag_7)\n    /* \"contracts/Token/utils/Ownable.sol\":967:999  _transferOwnership(_msgSender()) */\n  0x20\n  shr\n  jump\t// in\ntag_4:\n    /* \"contracts/smartContract.sol\":166:1709  contract smartContract is Ownable {... */\n  jump(tag_8)\n    /* \"contracts/Token/utils/Context.sol\":657:755  function _msgSender() internal view virtual returns (address) {... */\ntag_6:\n    /* \"contracts/Token/utils/Context.sol\":710:717  address */\n  0x00\n    /* \"contracts/Token/utils/Context.sol\":737:747  msg.sender */\n  caller\n    /* \"contracts/Token/utils/Context.sol\":730:747  return msg.sender */\n  swap1\n  pop\n    /* \"contracts/Token/utils/Context.sol\":657:755  function _msgSender() internal view virtual returns (address) {... */\n  swap1\n  jump\t// out\n    /* \"contracts/Token/utils/Ownable.sol\":2395:2586  function _transferOwnership(address newOwner) internal virtual {... */\ntag_7:\n    /* \"contracts/Token/utils/Ownable.sol\":2469:2485  address oldOwner */\n  0x00\n    /* \"contracts/Token/utils/Ownable.sol\":2488:2494  _owner */\n  dup1\n  0x00\n  swap1\n  sload\n  swap1\n  0x0100\n  exp\n  swap1\n  div\n  0xffffffffffffffffffffffffffffffffffffffff\n  and\n    /* \"contracts/Token/utils/Ownable.sol\":2469:2494  address oldOwner = _owner */\n  swap1\n  pop\n    /* \"contracts/Token/utils/Ownable.sol\":2514:2522  newOwner */\n  dup2\n    /* \"contracts/Token/utils/Ownable.sol\":2505:2511  _owner */\n  0x00\n  dup1\n    /* \"contracts/Token/utils/Ownable.sol\":2505:2522  _owner = newOwner */\n  0x0100\n  exp\n  dup2\n  sload\n  dup2\n  0xffffffffffffffffffffffffffffffffffffffff\n  mul\n  not\n  and\n  swap1\n  dup4\n  0xffffffffffffffffffffffffffffffffffffffff\n  and\n  mul\n  or\n  swap1\n  sstore\n  pop\n    /* \"contracts/Token/utils/Ownable.sol\":2569:2577  newOwner */\n  dup2\n    /* \"contracts/Token/utils/Ownable.sol\":2538:2578  OwnershipTransferred(oldOwner, newOwner) */\n  0xffffffffffffffffffffffffffffffffffffffff\n  and\n    /* \"contracts/Token/utils/Ownable.sol\":2559:2567  oldOwner */\n  dup2\n    /* \"contracts/Token/utils/Ownable.sol\":2538:2578  OwnershipTransferred(oldOwner, newOwner) */\n  0xffffffffffffffffffffffffffffffffffffffff\n  and\n  0x8be0079c531659141344cd1fd0a4f28419497f9722a3daafe3b4186f6b6457e0\n  mload(0x40)\n  mload(0x40)\n  dup1\n  swap2\n  sub\n  swap1\n  log3\n    /* \"contracts/Token/utils/Ownable.sol\":2458:2586  {... */\n  pop\n    /* \"contracts/Token/utils/Ownable.sol\":2395:2586  function _transferOwnership(address newOwner) internal virtual {... */\n  pop\n  jump\t// out\n    /* \"contracts/smartContract.sol\":166:1709  contract smartContract is Ownable {... */\ntag_8:\n  dataSize(sub_0)\n  dup1\n  dataOffset(sub_0)\n  0x00\n  codecopy\n  0x00\n  return\nstop\n\nsub_0: assembly {\n        /* \"contracts/smartContract.sol\":166:1709  contract smartContract is Ownable {... */\n      mstore(0x40, 0x80)\n      callvalue\n      dup1\n      iszero\n      tag_1\n      jumpi\n      0x00\n      dup1\n      revert\n    tag_1:\n      pop\n      jumpi(tag_2, lt(calldatasize, 0x04))\n      shr(0xe0, calldataload(0x00))\n      dup1\n      0x715018a6\n      gt\n      tag_15\n      jumpi\n      dup1\n      0x715018a6\n      eq\n      tag_9\n      jumpi\n      dup1\n      0x8637856d\n      eq\n      tag_10\n      jumpi\n      dup1\n      0x8da5cb5b\n      eq\n      tag_11\n      jumpi\n      dup1\n      0xa77b2e37\n      eq\n      tag_12\n      jumpi\n      dup1\n      0xaf0afec9\n      eq\n      tag_13\n      jumpi\n      dup1\n      0xf2fde38b\n      eq\n      tag_14\n      jumpi\n      jump(tag_2)\n    tag_15:\n      dup1\n      0x158ef93e\n      eq\n      tag_3\n      jumpi\n      dup1\n      0x1794bb3c\n      eq\n      tag_4\n      jumpi\n      dup1\n      0x28f661e3\n      eq\n      tag_5\n      jumpi\n      dup1\n      0x29e78c82\n      eq\n      tag_6\n      jumpi\n      dup1\n      0x2c1e816d\n      eq\n      tag_7\n      jumpi\n      dup1\n      0x5f4fd1f7\n      eq\n      tag_8\n      jumpi\n    tag_2:\n      0x00\n      dup1\n      revert\n        /* \"contracts/smartContract.sol\":323:346  bool public initialized */\n    tag_3:\n      tag_16\n      tag_17\n      jump\t// in\n    tag_16:\n      mload(0x40)\n      tag_18\n      swap2\n      swap1\n      tag_19\n      jump\t// in\n    tag_18:\n      mload(0x40)\n      dup1\n      swap2\n      sub\n      swap1\n      return\n        /* \"contracts/smartContract.sol\":591:1003  function initialize(... */\n    tag_4:\n      tag_20\n      0x04\n      dup1\n      calldatasize\n      sub\n      dup2\n      add\n      swap1\n      tag_21\n      swap2\n      swap1\n      tag_22\n      jump\t// in\n    tag_21:\n      tag_23\n      jump\t// in\n    tag_20:\n      stop\n        /* \"contracts/smartContract.sol\":240:267  address public AdminAddress */\n    tag_5:\n      tag_24\n      tag_25\n      jump\t// in\n    tag_24:\n      mload(0x40)\n      tag_26\n      swap2\n      swap1\n      tag_27\n      jump\t// in\n    tag_26:\n      mload(0x40)\n      dup1\n      swap2\n      sub\n      swap1\n      return\n        /* \"contracts/smartContract.sol\":1348:1706  function buyInformation(uint256 id)... */\n    tag_6:\n      tag_28\n      0x04\n      dup1\n      calldatasize\n      sub\n      dup2\n      add\n      swap1\n      tag_29\n      swap2\n      swap1\n      tag_30\n      jump\t// in\n    tag_29:\n      tag_31\n      jump\t// in\n    tag_28:\n      mload(0x40)\n      tag_32\n      swap4\n      swap3\n      swap2\n      swap1\n      tag_33\n      jump\t// in\n    tag_32:\n      mload(0x40)\n      dup1\n      swap2\n      sub\n      swap1\n      return\n        /* \"contracts/smartContract.sol\":1013:1111  function setAdminAddress(address _admin) public onlyOwner {... */\n    tag_7:\n      tag_34\n      0x04\n      dup1\n      calldatasize\n      sub\n      dup2\n      add\n      swap1\n      tag_35\n      swap2\n      swap1\n      tag_36\n      jump\t// in\n    tag_35:\n      tag_37\n      jump\t// in\n    tag_34:\n      stop\n        /* \"contracts/smartContract.sol\":1219:1340  function getIdsOfUser(address user) public view returns (uint256[] memory) {... */\n    tag_8:\n      tag_38\n      0x04\n      dup1\n      calldatasize\n      sub\n      dup2\n      add\n      swap1\n      tag_39\n      swap2\n      swap1\n      tag_36\n      jump\t// in\n    tag_39:\n      tag_40\n      jump\t// in\n    tag_38:\n      mload(0x40)\n      tag_41\n      swap2\n      swap1\n      tag_42\n      jump\t// in\n    tag_41:\n      mload(0x40)\n      dup1\n      swap2\n      sub\n      swap1\n      return\n        /* \"contracts/Token/utils/Ownable.sol\":1739:1842  function renounceOwnership() public virtual onlyOwner {... */\n    tag_9:\n      tag_43\n      tag_44\n      jump\t// in\n    tag_43:\n      stop\n        /* \"contracts/smartContract.sol\":355:422  mapping(address => mapping(uint256 => purchaseInfo)) public buyInfo */\n    tag_10:\n      tag_45\n      0x04\n      dup1\n      calldatasize\n      sub\n      dup2\n      add\n      swap1\n      tag_46\n      swap2\n      swap1\n      tag_47\n      jump\t// in\n    tag_46:\n      tag_48\n      jump\t// in\n    tag_45:\n      mload(0x40)\n      tag_49\n      swap4\n      swap3\n      swap2\n      swap1\n      tag_33\n      jump\t// in\n    tag_49:\n      mload(0x40)\n      dup1\n      swap2\n      sub\n      swap1\n      return\n        /* \"contracts/Token/utils/Ownable.sol\":1088:1175  function owner() public view virtual returns (address) {... */\n    tag_11:\n      tag_50\n      tag_51\n      jump\t// in\n    tag_50:\n      mload(0x40)\n      tag_52\n      swap2\n      swap1\n      tag_27\n      jump\t// in\n    tag_52:\n      mload(0x40)\n      dup1\n      swap2\n      sub\n      swap1\n      return\n        /* \"contracts/smartContract.sol\":274:291  Token public Coin */\n    tag_12:\n      tag_53\n      tag_54\n      jump\t// in\n    tag_53:\n      mload(0x40)\n      tag_55\n      swap2\n      swap1\n      tag_56\n      jump\t// in\n    tag_55:\n      mload(0x40)\n      dup1\n      swap2\n      sub\n      swap1\n      return\n        /* \"contracts/smartContract.sol\":1119:1211  function totalInvesters() public view returns (uint256) {... */\n    tag_13:\n      tag_57\n      tag_58\n      jump\t// in\n    tag_57:\n      mload(0x40)\n      tag_59\n      swap2\n      swap1\n      tag_60\n      jump\t// in\n    tag_59:\n      mload(0x40)\n      dup1\n      swap2\n      sub\n      swap1\n      return\n        /* \"contracts/Token/utils/Ownable.sol\":1997:2235  function transferOwnership(address newOwner) public virtual onlyOwner {... */\n    tag_14:\n      tag_61\n      0x04\n      dup1\n      calldatasize\n      sub\n      dup2\n      add\n      swap1\n      tag_62\n      swap2\n      swap1\n      tag_36\n      jump\t// in\n    tag_62:\n      tag_63\n      jump\t// in\n    tag_61:\n      stop\n        /* \"contracts/smartContract.sol\":323:346  bool public initialized */\n    tag_17:\n      0x04\n      0x00\n      swap1\n      sload\n      swap1\n      0x0100\n      exp\n      swap1\n      div\n      0xff\n      and\n      dup2\n      jump\t// out\n        /* \"contracts/smartContract.sol\":591:1003  function initialize(... */\n    tag_23:\n        /* \"contracts/Token/utils/Ownable.sol\":1319:1331  _msgSender() */\n      tag_65\n        /* \"contracts/Token/utils/Ownable.sol\":1319:1329  _msgSender */\n      tag_66\n        /* \"contracts/Token/utils/Ownable.sol\":1319:1331  _msgSender() */\n      jump\t// in\n    tag_65:\n        /* \"contracts/Token/utils/Ownable.sol\":1308:1331  owner() == _msgSender() */\n      0xffffffffffffffffffffffffffffffffffffffff\n      and\n        /* \"contracts/Token/utils/Ownable.sol\":1308:1315  owner() */\n      tag_67\n        /* \"contracts/Token/utils/Ownable.sol\":1308:1313  owner */\n      tag_51\n        /* \"contracts/Token/utils/Ownable.sol\":1308:1315  owner() */\n      jump\t// in\n    tag_67:\n        /* \"contracts/Token/utils/Ownable.sol\":1308:1331  owner() == _msgSender() */\n      0xffffffffffffffffffffffffffffffffffffffff\n      and\n      eq\n        /* \"contracts/Token/utils/Ownable.sol\":1300:1368  require(owner() == _msgSender(), \"Ownable: caller is not the owner\") */\n      tag_68\n      jumpi\n      mload(0x40)\n      0x08c379a000000000000000000000000000000000000000000000000000000000\n      dup2\n      mstore\n      0x04\n      add\n      tag_69\n      swap1\n      tag_70\n      jump\t// in\n    tag_69:\n      mload(0x40)\n      dup1\n      swap2\n      sub\n      swap1\n      revert\n    tag_68:\n        /* \"contracts/smartContract.sol\":880:885  _Coin */\n      dup3\n        /* \"contracts/smartContract.sol\":867:871  Coin */\n      0x02\n      0x00\n        /* \"contracts/smartContract.sol\":867:886  Coin = Token(_Coin) */\n      0x0100\n      exp\n      dup2\n      sload\n      dup2\n      0xffffffffffffffffffffffffffffffffffffffff\n      mul\n      not\n      and\n      swap1\n      dup4\n      0xffffffffffffffffffffffffffffffffffffffff\n      and\n      mul\n      or\n      swap1\n      sstore\n      pop\n        /* \"contracts/smartContract.sol\":920:933  _adminAddress */\n      dup2\n        /* \"contracts/smartContract.sol\":897:909  AdminAddress */\n      0x01\n      0x00\n        /* \"contracts/smartContract.sol\":897:934  AdminAddress = address(_adminAddress) */\n      0x0100\n      exp\n      dup2\n      sload\n      dup2\n      0xffffffffffffffffffffffffffffffffffffffff\n      mul\n      not\n      and\n      swap1\n      dup4\n      0xffffffffffffffffffffffffffffffffffffffff\n      and\n      mul\n      or\n      swap1\n      sstore\n      pop\n        /* \"contracts/smartContract.sol\":945:949  Coin */\n      0x02\n      0x00\n      swap1\n      sload\n      swap1\n      0x0100\n      exp\n      swap1\n      div\n      0xffffffffffffffffffffffffffffffffffffffff\n      and\n        /* \"contracts/smartContract.sol\":945:963  Coin.transferPrice */\n      0xffffffffffffffffffffffffffffffffffffffff\n      and\n      0xb45ee9ef\n        /* \"contracts/smartContract.sol\":964:971  owner() */\n      tag_72\n        /* \"contracts/smartContract.sol\":964:969  owner */\n      tag_51\n        /* \"contracts/smartContract.sol\":964:971  owner() */\n      jump\t// in\n    tag_72:\n        /* \"contracts/smartContract.sol\":973:986  _adminAddress */\n      dup5\n        /* \"contracts/smartContract.sol\":988:994  amount */\n      dup5\n        /* \"contracts/smartContract.sol\":945:995  Coin.transferPrice(owner(), _adminAddress, amount) */\n      mload(0x40)\n      dup5\n      0xffffffff\n      and\n      0xe0\n      shl\n      dup2\n      mstore\n      0x04\n      add\n      tag_73\n      swap4\n      swap3\n      swap2\n      swap1\n      tag_74\n      jump\t// in\n    tag_73:\n      0x00\n      mload(0x40)\n      dup1\n      dup4\n      sub\n      dup2\n      0x00\n      dup8\n      dup1\n      extcodesize\n      iszero\n      dup1\n      iszero\n      tag_75\n      jumpi\n      0x00\n      dup1\n      revert\n    tag_75:\n      pop\n      gas\n      call\n      iszero\n      dup1\n      iszero\n      tag_77\n      jumpi\n      returndatasize\n      0x00\n      dup1\n      returndatacopy\n      revert(0x00, returndatasize)\n    tag_77:\n      pop\n      pop\n      pop\n      pop\n        /* \"contracts/smartContract.sol\":591:1003  function initialize(... */\n      pop\n      pop\n      pop\n      jump\t// out\n        /* \"contracts/smartContract.sol\":240:267  address public AdminAddress */\n    tag_25:\n      0x01\n      0x00\n      swap1\n      sload\n      swap1\n      0x0100\n      exp\n      swap1\n      div\n      0xffffffffffffffffffffffffffffffffffffffff\n      and\n      dup2\n      jump\t// out\n        /* \"contracts/smartContract.sol\":1348:1706  function buyInformation(uint256 id)... */\n    tag_31:\n        /* \"contracts/smartContract.sol\":1446:1456  uint256 ID */\n      0x00\n        /* \"contracts/smartContract.sol\":1471:1486  uint256 buyTime */\n      dup1\n        /* \"contracts/smartContract.sol\":1501:1516  bool registered */\n      0x00\n        /* \"contracts/smartContract.sol\":1566:1573  buyInfo */\n      0x05\n        /* \"contracts/smartContract.sol\":1566:1585  buyInfo[msg.sender] */\n      0x00\n        /* \"contracts/smartContract.sol\":1574:1584  msg.sender */\n      caller\n        /* \"contracts/smartContract.sol\":1566:1585  buyInfo[msg.sender] */\n      0xffffffffffffffffffffffffffffffffffffffff\n      and\n      0xffffffffffffffffffffffffffffffffffffffff\n      and\n      dup2\n      mstore\n      0x20\n      add\n      swap1\n      dup2\n      mstore\n      0x20\n      add\n      0x00\n      keccak256\n        /* \"contracts/smartContract.sol\":1566:1589  buyInfo[msg.sender][id] */\n      0x00\n        /* \"contracts/smartContract.sol\":1586:1588  id */\n      dup6\n        /* \"contracts/smartContract.sol\":1566:1589  buyInfo[msg.sender][id] */\n      dup2\n      mstore\n      0x20\n      add\n      swap1\n      dup2\n      mstore\n      0x20\n      add\n      0x00\n      keccak256\n        /* \"contracts/smartContract.sol\":1566:1592  buyInfo[msg.sender][id].ID */\n      0x00\n      add\n      sload\n        /* \"contracts/smartContract.sol\":1607:1614  buyInfo */\n      0x05\n        /* \"contracts/smartContract.sol\":1607:1626  buyInfo[msg.sender] */\n      0x00\n        /* \"contracts/smartContract.sol\":1615:1625  msg.sender */\n      caller\n        /* \"contracts/smartContract.sol\":1607:1626  buyInfo[msg.sender] */\n      0xffffffffffffffffffffffffffffffffffffffff\n      and\n      0xffffffffffffffffffffffffffffffffffffffff\n      and\n      dup2\n      mstore\n      0x20\n      add\n      swap1\n      dup2\n      mstore\n      0x20\n      add\n      0x00\n      keccak256\n        /* \"contracts/smartContract.sol\":1607:1630  buyInfo[msg.sender][id] */\n      0x00\n        /* \"contracts/smartContract.sol\":1627:1629  id */\n      dup7\n        /* \"contracts/smartContract.sol\":1607:1630  buyInfo[msg.sender][id] */\n      dup2\n      mstore\n      0x20\n      add\n      swap1\n      dup2\n      mstore\n      0x20\n      add\n      0x00\n      keccak256\n        /* \"contracts/smartContract.sol\":1607:1638  buyInfo[msg.sender][id].buyTime */\n      0x01\n      add\n      sload\n        /* \"contracts/smartContract.sol\":1653:1660  buyInfo */\n      0x05\n        /* \"contracts/smartContract.sol\":1653:1672  buyInfo[msg.sender] */\n      0x00\n        /* \"contracts/smartContract.sol\":1661:1671  msg.sender */\n      caller\n        /* \"contracts/smartContract.sol\":1653:1672  buyInfo[msg.sender] */\n      0xffffffffffffffffffffffffffffffffffffffff\n      and\n      0xffffffffffffffffffffffffffffffffffffffff\n      and\n      dup2\n      mstore\n      0x20\n      add\n      swap1\n      dup2\n      mstore\n      0x20\n      add\n      0x00\n      keccak256\n        /* \"contracts/smartContract.sol\":1653:1676  buyInfo[msg.sender][id] */\n      0x00\n        /* \"contracts/smartContract.sol\":1673:1675  id */\n      dup8\n        /* \"contracts/smartContract.sol\":1653:1676  buyInfo[msg.sender][id] */\n      dup2\n      mstore\n      0x20\n      add\n      swap1\n      dup2\n      mstore\n      0x20\n      add\n      0x00\n      keccak256\n        /* \"contracts/smartContract.sol\":1653:1687  buyInfo[msg.sender][id].registered */\n      0x02\n      add\n      0x00\n      swap1\n      sload\n      swap1\n      0x0100\n      exp\n      swap1\n      div\n      0xff\n      and\n        /* \"contracts/smartContract.sol\":1544:1698  return (... */\n      swap3\n      pop\n      swap3\n      pop\n      swap3\n      pop\n        /* \"contracts/smartContract.sol\":1348:1706  function buyInformation(uint256 id)... */\n      swap2\n      swap4\n      swap1\n      swap3\n      pop\n      jump\t// out\n        /* \"contracts/smartContract.sol\":1013:1111  function setAdminAddress(address _admin) public onlyOwner {... */\n    tag_37:\n        /* \"contracts/Token/utils/Ownable.sol\":1319:1331  _msgSender() */\n      tag_80\n        /* \"contracts/Token/utils/Ownable.sol\":1319:1329  _msgSender */\n      tag_66\n        /* \"contracts/Token/utils/Ownable.sol\":1319:1331  _msgSender() */\n      jump\t// in\n    tag_80:\n        /* \"contracts/Token/utils/Ownable.sol\":1308:1331  owner() == _msgSender() */\n      0xffffffffffffffffffffffffffffffffffffffff\n      and\n        /* \"contracts/Token/utils/Ownable.sol\":1308:1315  owner() */\n      tag_81\n        /* \"contracts/Token/utils/Ownable.sol\":1308:1313  owner */\n      tag_51\n        /* \"contracts/Token/utils/Ownable.sol\":1308:1315  owner() */\n      jump\t// in\n    tag_81:\n        /* \"contracts/Token/utils/Ownable.sol\":1308:1331  owner() == _msgSender() */\n      0xffffffffffffffffffffffffffffffffffffffff\n      and\n      eq\n        /* \"contracts/Token/utils/Ownable.sol\":1300:1368  require(owner() == _msgSender(), \"Ownable: caller is not the owner\") */\n      tag_82\n      jumpi\n      mload(0x40)\n      0x08c379a000000000000000000000000000000000000000000000000000000000\n      dup2\n      mstore\n      0x04\n      add\n      tag_83\n      swap1\n      tag_70\n      jump\t// in\n    tag_83:\n      mload(0x40)\n      dup1\n      swap2\n      sub\n      swap1\n      revert\n    tag_82:\n        /* \"contracts/smartContract.sol\":1097:1103  _admin */\n      dup1\n        /* \"contracts/smartContract.sol\":1082:1094  AdminAddress */\n      0x01\n      0x00\n        /* \"contracts/smartContract.sol\":1082:1103  AdminAddress = _admin */\n      0x0100\n      exp\n      dup2\n      sload\n      dup2\n      0xffffffffffffffffffffffffffffffffffffffff\n      mul\n      not\n      and\n      swap1\n      dup4\n      0xffffffffffffffffffffffffffffffffffffffff\n      and\n      mul\n      or\n      swap1\n      sstore\n      pop\n        /* \"contracts/smartContract.sol\":1013:1111  function setAdminAddress(address _admin) public onlyOwner {... */\n      pop\n      jump\t// out\n        /* \"contracts/smartContract.sol\":1219:1340  function getIdsOfUser(address user) public view returns (uint256[] memory) {... */\n    tag_40:\n        /* \"contracts/smartContract.sol\":1276:1292  uint256[] memory */\n      0x60\n        /* \"contracts/smartContract.sol\":1312:1326  getIDByAddress */\n      0x06\n        /* \"contracts/smartContract.sol\":1312:1332  getIDByAddress[user] */\n      0x00\n        /* \"contracts/smartContract.sol\":1327:1331  user */\n      dup4\n        /* \"contracts/smartContract.sol\":1312:1332  getIDByAddress[user] */\n      0xffffffffffffffffffffffffffffffffffffffff\n      and\n      0xffffffffffffffffffffffffffffffffffffffff\n      and\n      dup2\n      mstore\n      0x20\n      add\n      swap1\n      dup2\n      mstore\n      0x20\n      add\n      0x00\n      keccak256\n        /* \"contracts/smartContract.sol\":1305:1332  return getIDByAddress[user] */\n      dup1\n      sload\n      dup1\n      0x20\n      mul\n      0x20\n      add\n      mload(0x40)\n      swap1\n      dup2\n      add\n      0x40\n      mstore\n      dup1\n      swap3\n      swap2\n      swap1\n      dup2\n      dup2\n      mstore\n      0x20\n      add\n      dup3\n      dup1\n      sload\n      dup1\n      iszero\n      tag_86\n      jumpi\n      0x20\n      mul\n      dup3\n      add\n      swap2\n      swap1\n      0x00\n      mstore\n      keccak256(0x00, 0x20)\n      swap1\n    tag_87:\n      dup2\n      sload\n      dup2\n      mstore\n      0x20\n      add\n      swap1\n      0x01\n      add\n      swap1\n      dup1\n      dup4\n      gt\n      tag_87\n      jumpi\n    tag_86:\n      pop\n      pop\n      pop\n      pop\n      pop\n      swap1\n      pop\n        /* \"contracts/smartContract.sol\":1219:1340  function getIdsOfUser(address user) public view returns (uint256[] memory) {... */\n      swap2\n      swap1\n      pop\n      jump\t// out\n        /* \"contracts/Token/utils/Ownable.sol\":1739:1842  function renounceOwnership() public virtual onlyOwner {... */\n    tag_44:\n        /* \"contracts/Token/utils/Ownable.sol\":1319:1331  _msgSender() */\n      tag_89\n        /* \"contracts/Token/utils/Ownable.sol\":1319:1329  _msgSender */\n      tag_66\n        /* \"contracts/Token/utils/Ownable.sol\":1319:1331  _msgSender() */\n      jump\t// in\n    tag_89:\n        /* \"contracts/Token/utils/Ownable.sol\":1308:1331  owner() == _msgSender() */\n      0xffffffffffffffffffffffffffffffffffffffff\n      and\n        /* \"contracts/Token/utils/Ownable.sol\":1308:1315  owner() */\n      tag_90\n        /* \"contracts/Token/utils/Ownable.sol\":1308:1313  owner */\n      tag_51\n        /* \"contracts/Token/utils/Ownable.sol\":1308:1315  owner() */\n      jump\t// in\n    tag_90:\n        /* \"contracts/Token/utils/Ownable.sol\":1308:1331  owner() == _msgSender() */\n      0xffffffffffffffffffffffffffffffffffffffff\n      and\n      eq\n        /* \"contracts/Token/utils/Ownable.sol\":1300:1368  require(owner() == _msgSender(), \"Ownable: caller is not the owner\") */\n      tag_91\n      jumpi\n      mload(0x40)\n      0x08c379a000000000000000000000000000000000000000000000000000000000\n      dup2\n      mstore\n      0x04\n      add\n      tag_92\n      swap1\n      tag_70\n      jump\t// in\n    tag_92:\n      mload(0x40)\n      dup1\n      swap2\n      sub\n      swap1\n      revert\n    tag_91:\n        /* \"contracts/Token/utils/Ownable.sol\":1804:1834  _transferOwnership(address(0)) */\n      tag_94\n        /* \"contracts/Token/utils/Ownable.sol\":1831:1832  0 */\n      0x00\n        /* \"contracts/Token/utils/Ownable.sol\":1804:1822  _transferOwnership */\n      tag_95\n        /* \"contracts/Token/utils/Ownable.sol\":1804:1834  _transferOwnership(address(0)) */\n      jump\t// in\n    tag_94:\n        /* \"contracts/Token/utils/Ownable.sol\":1739:1842  function renounceOwnership() public virtual onlyOwner {... */\n      jump\t// out\n        /* \"contracts/smartContract.sol\":355:422  mapping(address => mapping(uint256 => purchaseInfo)) public buyInfo */\n    tag_48:\n      mstore(0x20, 0x05)\n      dup2\n      0x00\n      mstore\n      mstore(0x20, keccak256(0x00, 0x40))\n      dup1\n      0x00\n      mstore\n      keccak256(0x00, 0x40)\n      0x00\n      swap2\n      pop\n      swap2\n      pop\n      pop\n      dup1\n      0x00\n      add\n      sload\n      swap1\n      dup1\n      0x01\n      add\n      sload\n      swap1\n      dup1\n      0x02\n      add\n      0x00\n      swap1\n      sload\n      swap1\n      0x0100\n      exp\n      swap1\n      div\n      0xff\n      and\n      swap1\n      pop\n      dup4\n      jump\t// out\n        /* \"contracts/Token/utils/Ownable.sol\":1088:1175  function owner() public view virtual returns (address) {... */\n    tag_51:\n        /* \"contracts/Token/utils/Ownable.sol\":1134:1141  address */\n      0x00\n        /* \"contracts/Token/utils/Ownable.sol\":1161:1167  _owner */\n      dup1\n      0x00\n      swap1\n      sload\n      swap1\n      0x0100\n      exp\n      swap1\n      div\n      0xffffffffffffffffffffffffffffffffffffffff\n      and\n        /* \"contracts/Token/utils/Ownable.sol\":1154:1167  return _owner */\n      swap1\n      pop\n        /* \"contracts/Token/utils/Ownable.sol\":1088:1175  function owner() public view virtual returns (address) {... */\n      swap1\n      jump\t// out\n        /* \"contracts/smartContract.sol\":274:291  Token public Coin */\n    tag_54:\n      0x02\n      0x00\n      swap1\n      sload\n      swap1\n      0x0100\n      exp\n      swap1\n      div\n      0xffffffffffffffffffffffffffffffffffffffff\n      and\n      dup2\n      jump\t// out\n        /* \"contracts/smartContract.sol\":1119:1211  function totalInvesters() public view returns (uint256) {... */\n    tag_58:\n        /* \"contracts/smartContract.sol\":1166:1173  uint256 */\n      0x00\n        /* \"contracts/smartContract.sol\":1193:1203  investerID */\n      sload(0x03)\n        /* \"contracts/smartContract.sol\":1186:1203  return investerID */\n      swap1\n      pop\n        /* \"contracts/smartContract.sol\":1119:1211  function totalInvesters() public view returns (uint256) {... */\n      swap1\n      jump\t// out\n        /* \"contracts/Token/utils/Ownable.sol\":1997:2235  function transferOwnership(address newOwner) public virtual onlyOwner {... */\n    tag_63:\n        /* \"contracts/Token/utils/Ownable.sol\":1319:1331  _msgSender() */\n      tag_99\n        /* \"contracts/Token/utils/Ownable.sol\":1319:1329  _msgSender */\n      tag_66\n        /* \"contracts/Token/utils/Ownable.sol\":1319:1331  _msgSender() */\n      jump\t// in\n    tag_99:\n        /* \"contracts/Token/utils/Ownable.sol\":1308:1331  owner() == _msgSender() */\n      0xffffffffffffffffffffffffffffffffffffffff\n      and\n        /* \"contracts/Token/utils/Ownable.sol\":1308:1315  owner() */\n      tag_100\n        /* \"contracts/Token/utils/Ownable.sol\":1308:1313  owner */\n      tag_51\n        /* \"contracts/Token/utils/Ownable.sol\":1308:1315  owner() */\n      jump\t// in\n    tag_100:\n        /* \"contracts/Token/utils/Ownable.sol\":1308:1331  owner() == _msgSender() */\n      0xffffffffffffffffffffffffffffffffffffffff\n      and\n      eq\n        /* \"contracts/Token/utils/Ownable.sol\":1300:1368  require(owner() == _msgSender(), \"Ownable: caller is not the owner\") */\n      tag_101\n      jumpi\n      mload(0x40)\n      0x08c379a000000000000000000000000000000000000000000000000000000000\n      dup2\n      mstore\n      0x04\n      add\n      tag_102\n      swap1\n      tag_70\n      jump\t// in\n    tag_102:\n      mload(0x40)\n      dup1\n      swap2\n      sub\n      swap1\n      revert\n    tag_101:\n        /* \"contracts/Token/utils/Ownable.sol\":2120:2121  0 */\n      0x00\n        /* \"contracts/Token/utils/Ownable.sol\":2100:2122  newOwner != address(0) */\n      0xffffffffffffffffffffffffffffffffffffffff\n      and\n        /* \"contracts/Token/utils/Ownable.sol\":2100:2108  newOwner */\n      dup2\n        /* \"contracts/Token/utils/Ownable.sol\":2100:2122  newOwner != address(0) */\n      0xffffffffffffffffffffffffffffffffffffffff\n      and\n      sub\n        /* \"contracts/Token/utils/Ownable.sol\":2078:2188  require(... */\n      tag_104\n      jumpi\n      mload(0x40)\n      0x08c379a000000000000000000000000000000000000000000000000000000000\n      dup2\n      mstore\n      0x04\n      add\n      tag_105\n      swap1\n      tag_106\n      jump\t// in\n    tag_105:\n      mload(0x40)\n      dup1\n      swap2\n      sub\n      swap1\n      revert\n    tag_104:\n        /* \"contracts/Token/utils/Ownable.sol\":2199:2227  _transferOwnership(newOwner) */\n      tag_107\n        /* \"contracts/Token/utils/Ownable.sol\":2218:2226  newOwner */\n      dup2\n        /* \"contracts/Token/utils/Ownable.sol\":2199:2217  _transferOwnership */\n      tag_95\n        /* \"contracts/Token/utils/Ownable.sol\":2199:2227  _transferOwnership(newOwner) */\n      jump\t// in\n    tag_107:\n        /* \"contracts/Token/utils/Ownable.sol\":1997:2235  function transferOwnership(address newOwner) public virtual onlyOwner {... */\n      pop\n      jump\t// out\n        /* \"contracts/Token/utils/Context.sol\":657:755  function _msgSender() internal view virtual returns (address) {... */\n    tag_66:\n        /* \"contracts/Token/utils/Context.sol\":710:717  address */\n      0x00\n        /* \"contracts/Token/utils/Context.sol\":737:747  msg.sender */\n      caller\n        /* \"contracts/Token/utils/Context.sol\":730:747  return msg.sender */\n      swap1\n      pop\n        /* \"contracts/Token/utils/Context.sol\":657:755  function _msgSender() internal view virtual returns (address) {... */\n      swap1\n      jump\t// out\n        /* \"contracts/Token/utils/Ownable.sol\":2395:2586  function _transferOwnership(address newOwner) internal virtual {... */\n    tag_95:\n        /* \"contracts/Token/utils/Ownable.sol\":2469:2485  address oldOwner */\n      0x00\n        /* \"contracts/Token/utils/Ownable.sol\":2488:2494  _owner */\n      dup1\n      0x00\n      swap1\n      sload\n      swap1\n      0x0100\n      exp\n      swap1\n      div\n      0xffffffffffffffffffffffffffffffffffffffff\n      and\n        /* \"contracts/Token/utils/Ownable.sol\":2469:2494  address oldOwner = _owner */\n      swap1\n      pop\n        /* \"contracts/Token/utils/Ownable.sol\":2514:2522  newOwner */\n      dup2\n        /* \"contracts/Token/utils/Ownable.sol\":2505:2511  _owner */\n      0x00\n      dup1\n        /* \"contracts/Token/utils/Ownable.sol\":2505:2522  _owner = newOwner */\n      0x0100\n      exp\n      dup2\n      sload\n      dup2\n      0xffffffffffffffffffffffffffffffffffffffff\n      mul\n      not\n      and\n      swap1\n      dup4\n      0xffffffffffffffffffffffffffffffffffffffff\n      and\n      mul\n      or\n      swap1\n      sstore\n      pop\n        /* \"contracts/Token/utils/Ownable.sol\":2569:2577  newOwner */\n      dup2\n        /* \"contracts/Token/utils/Ownable.sol\":2538:2578  OwnershipTransferred(oldOwner, newOwner) */\n      0xffffffffffffffffffffffffffffffffffffffff\n      and\n        /* \"contracts/Token/utils/Ownable.sol\":2559:2567  oldOwner */\n      dup2\n        /* \"contracts/Token/utils/Ownable.sol\":2538:2578  OwnershipTransferred(oldOwner, newOwner) */\n      0xffffffffffffffffffffffffffffffffffffffff\n      and\n      0x8be0079c531659141344cd1fd0a4f28419497f9722a3daafe3b4186f6b6457e0\n      mload(0x40)\n      mload(0x40)\n      dup1\n      swap2\n      sub\n      swap1\n      log3\n        /* \"contracts/Token/utils/Ownable.sol\":2458:2586  {... */\n      pop\n        /* \"contracts/Token/utils/Ownable.sol\":2395:2586  function _transferOwnership(address newOwner) internal virtual {... */\n      pop\n      jump\t// out\n        /* \"#utility.yul\":7:97   */\n    tag_110:\n        /* \"#utility.yul\":41:48   */\n      0x00\n        /* \"#utility.yul\":84:89   */\n      dup2\n        /* \"#utility.yul\":77:90   */\n      iszero\n        /* \"#utility.yul\":70:91   */\n      iszero\n        /* \"#utility.yul\":59:91   */\n      swap1\n      pop\n        /* \"#utility.yul\":7:97   */\n      swap2\n      swap1\n      pop\n      jump\t// out\n        /* \"#utility.yul\":103:212   */\n    tag_111:\n        /* \"#utility.yul\":184:205   */\n      tag_147\n        /* \"#utility.yul\":199:204   */\n      dup2\n        /* \"#utility.yul\":184:205   */\n      tag_110\n      jump\t// in\n    tag_147:\n        /* \"#utility.yul\":179:182   */\n      dup3\n        /* \"#utility.yul\":172:206   */\n      mstore\n        /* \"#utility.yul\":103:212   */\n      pop\n      pop\n      jump\t// out\n        /* \"#utility.yul\":218:428   */\n    tag_19:\n        /* \"#utility.yul\":305:309   */\n      0x00\n        /* \"#utility.yul\":343:345   */\n      0x20\n        /* \"#utility.yul\":332:341   */\n      dup3\n        /* \"#utility.yul\":328:346   */\n      add\n        /* \"#utility.yul\":320:346   */\n      swap1\n      pop\n        /* \"#utility.yul\":356:421   */\n      tag_149\n        /* \"#utility.yul\":418:419   */\n      0x00\n        /* \"#utility.yul\":407:416   */\n      dup4\n        /* \"#utility.yul\":403:420   */\n      add\n        /* \"#utility.yul\":394:400   */\n      dup5\n        /* \"#utility.yul\":356:421   */\n      tag_111\n      jump\t// in\n    tag_149:\n        /* \"#utility.yul\":218:428   */\n      swap3\n      swap2\n      pop\n      pop\n      jump\t// out\n        /* \"#utility.yul\":515:632   */\n    tag_113:\n        /* \"#utility.yul\":624:625   */\n      0x00\n        /* \"#utility.yul\":621:622   */\n      dup1\n        /* \"#utility.yul\":614:626   */\n      revert\n        /* \"#utility.yul\":761:887   */\n    tag_115:\n        /* \"#utility.yul\":798:805   */\n      0x00\n        /* \"#utility.yul\":838:880   */\n      0xffffffffffffffffffffffffffffffffffffffff\n        /* \"#utility.yul\":831:836   */\n      dup3\n        /* \"#utility.yul\":827:881   */\n      and\n        /* \"#utility.yul\":816:881   */\n      swap1\n      pop\n        /* \"#utility.yul\":761:887   */\n      swap2\n      swap1\n      pop\n      jump\t// out\n        /* \"#utility.yul\":893:989   */\n    tag_116:\n        /* \"#utility.yul\":930:937   */\n      0x00\n        /* \"#utility.yul\":959:983   */\n      tag_155\n        /* \"#utility.yul\":977:982   */\n      dup3\n        /* \"#utility.yul\":959:983   */\n      tag_115\n      jump\t// in\n    tag_155:\n        /* \"#utility.yul\":948:983   */\n      swap1\n      pop\n        /* \"#utility.yul\":893:989   */\n      swap2\n      swap1\n      pop\n      jump\t// out\n        /* \"#utility.yul\":995:1104   */\n    tag_117:\n        /* \"#utility.yul\":1045:1052   */\n      0x00\n        /* \"#utility.yul\":1074:1098   */\n      tag_157\n        /* \"#utility.yul\":1092:1097   */\n      dup3\n        /* \"#utility.yul\":1074:1098   */\n      tag_116\n      jump\t// in\n    tag_157:\n        /* \"#utility.yul\":1063:1098   */\n      swap1\n      pop\n        /* \"#utility.yul\":995:1104   */\n      swap2\n      swap1\n      pop\n      jump\t// out\n        /* \"#utility.yul\":1110:1258   */\n    tag_118:\n        /* \"#utility.yul\":1196:1233   */\n      tag_159\n        /* \"#utility.yul\":1227:1232   */\n      dup2\n        /* \"#utility.yul\":1196:1233   */\n      tag_117\n      jump\t// in\n    tag_159:\n        /* \"#utility.yul\":1189:1194   */\n      dup2\n        /* \"#utility.yul\":1186:1234   */\n      eq\n        /* \"#utility.yul\":1176:1252   */\n      tag_160\n      jumpi\n        /* \"#utility.yul\":1248:1249   */\n      0x00\n        /* \"#utility.yul\":1245:1246   */\n      dup1\n        /* \"#utility.yul\":1238:1250   */\n      revert\n        /* \"#utility.yul\":1176:1252   */\n    tag_160:\n        /* \"#utility.yul\":1110:1258   */\n      pop\n      jump\t// out\n        /* \"#utility.yul\":1264:1429   */\n    tag_119:\n        /* \"#utility.yul\":1323:1328   */\n      0x00\n        /* \"#utility.yul\":1361:1367   */\n      dup2\n        /* \"#utility.yul\":1348:1368   */\n      calldataload\n        /* \"#utility.yul\":1339:1368   */\n      swap1\n      pop\n        /* \"#utility.yul\":1377:1423   */\n      tag_162\n        /* \"#utility.yul\":1417:1422   */\n      dup2\n        /* \"#utility.yul\":1377:1423   */\n      tag_118\n      jump\t// in\n    tag_162:\n        /* \"#utility.yul\":1264:1429   */\n      swap3\n      swap2\n      pop\n      pop\n      jump\t// out\n        /* \"#utility.yul\":1435:1557   */\n    tag_120:\n        /* \"#utility.yul\":1508:1532   */\n      tag_164\n        /* \"#utility.yul\":1526:1531   */\n      dup2\n        /* \"#utility.yul\":1508:1532   */\n      tag_116\n      jump\t// in\n    tag_164:\n        /* \"#utility.yul\":1501:1506   */\n      dup2\n        /* \"#utility.yul\":1498:1533   */\n      eq\n        /* \"#utility.yul\":1488:1551   */\n      tag_165\n      jumpi\n        /* \"#utility.yul\":1547:1548   */\n      0x00\n        /* \"#utility.yul\":1544:1545   */\n      dup1\n        /* \"#utility.yul\":1537:1549   */\n      revert\n        /* \"#utility.yul\":1488:1551   */\n    tag_165:\n        /* \"#utility.yul\":1435:1557   */\n      pop\n      jump\t// out\n        /* \"#utility.yul\":1563:1702   */\n    tag_121:\n        /* \"#utility.yul\":1609:1614   */\n      0x00\n        /* \"#utility.yul\":1647:1653   */\n      dup2\n        /* \"#utility.yul\":1634:1654   */\n      calldataload\n        /* \"#utility.yul\":1625:1654   */\n      swap1\n      pop\n        /* \"#utility.yul\":1663:1696   */\n      tag_167\n        /* \"#utility.yul\":1690:1695   */\n      dup2\n        /* \"#utility.yul\":1663:1696   */\n      tag_120\n      jump\t// in\n    tag_167:\n        /* \"#utility.yul\":1563:1702   */\n      swap3\n      swap2\n      pop\n      pop\n      jump\t// out\n        /* \"#utility.yul\":1708:1785   */\n    tag_122:\n        /* \"#utility.yul\":1745:1752   */\n      0x00\n        /* \"#utility.yul\":1774:1779   */\n      dup2\n        /* \"#utility.yul\":1763:1779   */\n      swap1\n      pop\n        /* \"#utility.yul\":1708:1785   */\n      swap2\n      swap1\n      pop\n      jump\t// out\n        /* \"#utility.yul\":1791:1913   */\n    tag_123:\n        /* \"#utility.yul\":1864:1888   */\n      tag_170\n        /* \"#utility.yul\":1882:1887   */\n      dup2\n        /* \"#utility.yul\":1864:1888   */\n      tag_122\n      jump\t// in\n    tag_170:\n        /* \"#utility.yul\":1857:1862   */\n      dup2\n        /* \"#utility.yul\":1854:1889   */\n      eq\n        /* \"#utility.yul\":1844:1907   */\n      tag_171\n      jumpi\n        /* \"#utility.yul\":1903:1904   */\n      0x00\n        /* \"#utility.yul\":1900:1901   */\n      dup1\n        /* \"#utility.yul\":1893:1905   */\n      revert\n        /* \"#utility.yul\":1844:1907   */\n    tag_171:\n        /* \"#utility.yul\":1791:1913   */\n      pop\n      jump\t// out\n        /* \"#utility.yul\":1919:2058   */\n    tag_124:\n        /* \"#utility.yul\":1965:1970   */\n      0x00\n        /* \"#utility.yul\":2003:2009   */\n      dup2\n        /* \"#utility.yul\":1990:2010   */\n      calldataload\n        /* \"#utility.yul\":1981:2010   */\n      swap1\n      pop\n        /* \"#utility.yul\":2019:2052   */\n      tag_173\n        /* \"#utility.yul\":2046:2051   */\n      dup2\n        /* \"#utility.yul\":2019:2052   */\n      tag_123\n      jump\t// in\n    tag_173:\n        /* \"#utility.yul\":1919:2058   */\n      swap3\n      swap2\n      pop\n      pop\n      jump\t// out\n        /* \"#utility.yul\":2064:2709   */\n    tag_22:\n        /* \"#utility.yul\":2154:2160   */\n      0x00\n        /* \"#utility.yul\":2162:2168   */\n      dup1\n        /* \"#utility.yul\":2170:2176   */\n      0x00\n        /* \"#utility.yul\":2219:2221   */\n      0x60\n        /* \"#utility.yul\":2207:2216   */\n      dup5\n        /* \"#utility.yul\":2198:2205   */\n      dup7\n        /* \"#utility.yul\":2194:2217   */\n      sub\n        /* \"#utility.yul\":2190:2222   */\n      slt\n        /* \"#utility.yul\":2187:2306   */\n      iszero\n      tag_175\n      jumpi\n        /* \"#utility.yul\":2225:2304   */\n      tag_176\n      tag_113\n      jump\t// in\n    tag_176:\n        /* \"#utility.yul\":2187:2306   */\n    tag_175:\n        /* \"#utility.yul\":2345:2346   */\n      0x00\n        /* \"#utility.yul\":2370:2436   */\n      tag_177\n        /* \"#utility.yul\":2428:2435   */\n      dup7\n        /* \"#utility.yul\":2419:2425   */\n      dup3\n        /* \"#utility.yul\":2408:2417   */\n      dup8\n        /* \"#utility.yul\":2404:2426   */\n      add\n        /* \"#utility.yul\":2370:2436   */\n      tag_119\n      jump\t// in\n    tag_177:\n        /* \"#utility.yul\":2360:2436   */\n      swap4\n      pop\n        /* \"#utility.yul\":2316:2446   */\n      pop\n        /* \"#utility.yul\":2485:2487   */\n      0x20\n        /* \"#utility.yul\":2511:2564   */\n      tag_178\n        /* \"#utility.yul\":2556:2563   */\n      dup7\n        /* \"#utility.yul\":2547:2553   */\n      dup3\n        /* \"#utility.yul\":2536:2545   */\n      dup8\n        /* \"#utility.yul\":2532:2554   */\n      add\n        /* \"#utility.yul\":2511:2564   */\n      tag_121\n      jump\t// in\n    tag_178:\n        /* \"#utility.yul\":2501:2564   */\n      swap3\n      pop\n        /* \"#utility.yul\":2456:2574   */\n      pop\n        /* \"#utility.yul\":2613:2615   */\n      0x40\n        /* \"#utility.yul\":2639:2692   */\n      tag_179\n        /* \"#utility.yul\":2684:2691   */\n      dup7\n        /* \"#utility.yul\":2675:2681   */\n      dup3\n        /* \"#utility.yul\":2664:2673   */\n      dup8\n        /* \"#utility.yul\":2660:2682   */\n      add\n        /* \"#utility.yul\":2639:2692   */\n      tag_124\n      jump\t// in\n    tag_179:\n        /* \"#utility.yul\":2629:2692   */\n      swap2\n      pop\n        /* \"#utility.yul\":2584:2702   */\n      pop\n        /* \"#utility.yul\":2064:2709   */\n      swap3\n      pop\n      swap3\n      pop\n      swap3\n      jump\t// out\n        /* \"#utility.yul\":2715:2833   */\n    tag_125:\n        /* \"#utility.yul\":2802:2826   */\n      tag_181\n        /* \"#utility.yul\":2820:2825   */\n      dup2\n        /* \"#utility.yul\":2802:2826   */\n      tag_116\n      jump\t// in\n    tag_181:\n        /* \"#utility.yul\":2797:2800   */\n      dup3\n        /* \"#utility.yul\":2790:2827   */\n      mstore\n        /* \"#utility.yul\":2715:2833   */\n      pop\n      pop\n      jump\t// out\n        /* \"#utility.yul\":2839:3061   */\n    tag_27:\n        /* \"#utility.yul\":2932:2936   */\n      0x00\n        /* \"#utility.yul\":2970:2972   */\n      0x20\n        /* \"#utility.yul\":2959:2968   */\n      dup3\n        /* \"#utility.yul\":2955:2973   */\n      add\n        /* \"#utility.yul\":2947:2973   */\n      swap1\n      pop\n        /* \"#utility.yul\":2983:3054   */\n      tag_183\n        /* \"#utility.yul\":3051:3052   */\n      0x00\n        /* \"#utility.yul\":3040:3049   */\n      dup4\n        /* \"#utility.yul\":3036:3053   */\n      add\n        /* \"#utility.yul\":3027:3033   */\n      dup5\n        /* \"#utility.yul\":2983:3054   */\n      tag_125\n      jump\t// in\n    tag_183:\n        /* \"#utility.yul\":2839:3061   */\n      swap3\n      swap2\n      pop\n      pop\n      jump\t// out\n        /* \"#utility.yul\":3067:3396   */\n    tag_30:\n        /* \"#utility.yul\":3126:3132   */\n      0x00\n        /* \"#utility.yul\":3175:3177   */\n      0x20\n        /* \"#utility.yul\":3163:3172   */\n      dup3\n        /* \"#utility.yul\":3154:3161   */\n      dup5\n        /* \"#utility.yul\":3150:3173   */\n      sub\n        /* \"#utility.yul\":3146:3178   */\n      slt\n        /* \"#utility.yul\":3143:3262   */\n      iszero\n      tag_185\n      jumpi\n        /* \"#utility.yul\":3181:3260   */\n      tag_186\n      tag_113\n      jump\t// in\n    tag_186:\n        /* \"#utility.yul\":3143:3262   */\n    tag_185:\n        /* \"#utility.yul\":3301:3302   */\n      0x00\n        /* \"#utility.yul\":3326:3379   */\n      tag_187\n        /* \"#utility.yul\":3371:3378   */\n      dup5\n        /* \"#utility.yul\":3362:3368   */\n      dup3\n        /* \"#utility.yul\":3351:3360   */\n      dup6\n        /* \"#utility.yul\":3347:3369   */\n      add\n        /* \"#utility.yul\":3326:3379   */\n      tag_124\n      jump\t// in\n    tag_187:\n        /* \"#utility.yul\":3316:3379   */\n      swap2\n      pop\n        /* \"#utility.yul\":3272:3389   */\n      pop\n        /* \"#utility.yul\":3067:3396   */\n      swap3\n      swap2\n      pop\n      pop\n      jump\t// out\n        /* \"#utility.yul\":3402:3520   */\n    tag_126:\n        /* \"#utility.yul\":3489:3513   */\n      tag_189\n        /* \"#utility.yul\":3507:3512   */\n      dup2\n        /* \"#utility.yul\":3489:3513   */\n      tag_122\n      jump\t// in\n    tag_189:\n        /* \"#utility.yul\":3484:3487   */\n      dup3\n        /* \"#utility.yul\":3477:3514   */\n      mstore\n        /* \"#utility.yul\":3402:3520   */\n      pop\n      pop\n      jump\t// out\n        /* \"#utility.yul\":3526:3956   */\n    tag_33:\n        /* \"#utility.yul\":3669:3673   */\n      0x00\n        /* \"#utility.yul\":3707:3709   */\n      0x60\n        /* \"#utility.yul\":3696:3705   */\n      dup3\n        /* \"#utility.yul\":3692:3710   */\n      add\n        /* \"#utility.yul\":3684:3710   */\n      swap1\n      pop\n        /* \"#utility.yul\":3720:3791   */\n      tag_191\n        /* \"#utility.yul\":3788:3789   */\n      0x00\n        /* \"#utility.yul\":3777:3786   */\n      dup4\n        /* \"#utility.yul\":3773:3790   */\n      add\n        /* \"#utility.yul\":3764:3770   */\n      dup7\n        /* \"#utility.yul\":3720:3791   */\n      tag_126\n      jump\t// in\n    tag_191:\n        /* \"#utility.yul\":3801:3873   */\n      tag_192\n        /* \"#utility.yul\":3869:3871   */\n      0x20\n        /* \"#utility.yul\":3858:3867   */\n      dup4\n        /* \"#utility.yul\":3854:3872   */\n      add\n        /* \"#utility.yul\":3845:3851   */\n      dup6\n        /* \"#utility.yul\":3801:3873   */\n      tag_126\n      jump\t// in\n    tag_192:\n        /* \"#utility.yul\":3883:3949   */\n      tag_193\n        /* \"#utility.yul\":3945:3947   */\n      0x40\n        /* \"#utility.yul\":3934:3943   */\n      dup4\n        /* \"#utility.yul\":3930:3948   */\n      add\n        /* \"#utility.yul\":3921:3927   */\n      dup5\n        /* \"#utility.yul\":3883:3949   */\n      tag_111\n      jump\t// in\n    tag_193:\n        /* \"#utility.yul\":3526:3956   */\n      swap5\n      swap4\n      pop\n      pop\n      pop\n      pop\n      jump\t// out\n        /* \"#utility.yul\":3962:4291   */\n    tag_36:\n        /* \"#utility.yul\":4021:4027   */\n      0x00\n        /* \"#utility.yul\":4070:4072   */\n      0x20\n        /* \"#utility.yul\":4058:4067   */\n      dup3\n        /* \"#utility.yul\":4049:4056   */\n      dup5\n        /* \"#utility.yul\":4045:4068   */\n      sub\n        /* \"#utility.yul\":4041:4073   */\n      slt\n        /* \"#utility.yul\":4038:4157   */\n      iszero\n      tag_195\n      jumpi\n        /* \"#utility.yul\":4076:4155   */\n      tag_196\n      tag_113\n      jump\t// in\n    tag_196:\n        /* \"#utility.yul\":4038:4157   */\n    tag_195:\n        /* \"#utility.yul\":4196:4197   */\n      0x00\n        /* \"#utility.yul\":4221:4274   */\n      tag_197\n        /* \"#utility.yul\":4266:4273   */\n      dup5\n        /* \"#utility.yul\":4257:4263   */\n      dup3\n        /* \"#utility.yul\":4246:4255   */\n      dup6\n        /* \"#utility.yul\":4242:4264   */\n      add\n        /* \"#utility.yul\":4221:4274   */\n      tag_121\n      jump\t// in\n    tag_197:\n        /* \"#utility.yul\":4211:4274   */\n      swap2\n      pop\n        /* \"#utility.yul\":4167:4284   */\n      pop\n        /* \"#utility.yul\":3962:4291   */\n      swap3\n      swap2\n      pop\n      pop\n      jump\t// out\n        /* \"#utility.yul\":4297:4411   */\n    tag_127:\n        /* \"#utility.yul\":4364:4370   */\n      0x00\n        /* \"#utility.yul\":4398:4403   */\n      dup2\n        /* \"#utility.yul\":4392:4404   */\n      mload\n        /* \"#utility.yul\":4382:4404   */\n      swap1\n      pop\n        /* \"#utility.yul\":4297:4411   */\n      swap2\n      swap1\n      pop\n      jump\t// out\n        /* \"#utility.yul\":4417:4601   */\n    tag_128:\n        /* \"#utility.yul\":4516:4527   */\n      0x00\n        /* \"#utility.yul\":4550:4556   */\n      dup3\n        /* \"#utility.yul\":4545:4548   */\n      dup3\n        /* \"#utility.yul\":4538:4557   */\n      mstore\n        /* \"#utility.yul\":4590:4594   */\n      0x20\n        /* \"#utility.yul\":4585:4588   */\n      dup3\n        /* \"#utility.yul\":4581:4595   */\n      add\n        /* \"#utility.yul\":4566:4595   */\n      swap1\n      pop\n        /* \"#utility.yul\":4417:4601   */\n      swap3\n      swap2\n      pop\n      pop\n      jump\t// out\n        /* \"#utility.yul\":4607:4739   */\n    tag_129:\n        /* \"#utility.yul\":4674:4678   */\n      0x00\n        /* \"#utility.yul\":4697:4700   */\n      dup2\n        /* \"#utility.yul\":4689:4700   */\n      swap1\n      pop\n        /* \"#utility.yul\":4727:4731   */\n      0x20\n        /* \"#utility.yul\":4722:4725   */\n      dup3\n        /* \"#utility.yul\":4718:4732   */\n      add\n        /* \"#utility.yul\":4710:4732   */\n      swap1\n      pop\n        /* \"#utility.yul\":4607:4739   */\n      swap2\n      swap1\n      pop\n      jump\t// out\n        /* \"#utility.yul\":4745:4853   */\n    tag_130:\n        /* \"#utility.yul\":4822:4846   */\n      tag_202\n        /* \"#utility.yul\":4840:4845   */\n      dup2\n        /* \"#utility.yul\":4822:4846   */\n      tag_122\n      jump\t// in\n    tag_202:\n        /* \"#utility.yul\":4817:4820   */\n      dup3\n        /* \"#utility.yul\":4810:4847   */\n      mstore\n        /* \"#utility.yul\":4745:4853   */\n      pop\n      pop\n      jump\t// out\n        /* \"#utility.yul\":4859:5038   */\n    tag_131:\n        /* \"#utility.yul\":4928:4938   */\n      0x00\n        /* \"#utility.yul\":4949:4995   */\n      tag_204\n        /* \"#utility.yul\":4991:4994   */\n      dup4\n        /* \"#utility.yul\":4983:4989   */\n      dup4\n        /* \"#utility.yul\":4949:4995   */\n      tag_130\n      jump\t// in\n    tag_204:\n        /* \"#utility.yul\":5027:5031   */\n      0x20\n        /* \"#utility.yul\":5022:5025   */\n      dup4\n        /* \"#utility.yul\":5018:5032   */\n      add\n        /* \"#utility.yul\":5004:5032   */\n      swap1\n      pop\n        /* \"#utility.yul\":4859:5038   */\n      swap3\n      swap2\n      pop\n      pop\n      jump\t// out\n        /* \"#utility.yul\":5044:5157   */\n    tag_132:\n        /* \"#utility.yul\":5114:5118   */\n      0x00\n        /* \"#utility.yul\":5146:5150   */\n      0x20\n        /* \"#utility.yul\":5141:5144   */\n      dup3\n        /* \"#utility.yul\":5137:5151   */\n      add\n        /* \"#utility.yul\":5129:5151   */\n      swap1\n      pop\n        /* \"#utility.yul\":5044:5157   */\n      swap2\n      swap1\n      pop\n      jump\t// out\n        /* \"#utility.yul\":5193:5925   */\n    tag_133:\n        /* \"#utility.yul\":5312:5315   */\n      0x00\n        /* \"#utility.yul\":5341:5395   */\n      tag_207\n        /* \"#utility.yul\":5389:5394   */\n      dup3\n        /* \"#utility.yul\":5341:5395   */\n      tag_127\n      jump\t// in\n    tag_207:\n        /* \"#utility.yul\":5411:5497   */\n      tag_208\n        /* \"#utility.yul\":5490:5496   */\n      dup2\n        /* \"#utility.yul\":5485:5488   */\n      dup6\n        /* \"#utility.yul\":5411:5497   */\n      tag_128\n      jump\t// in\n    tag_208:\n        /* \"#utility.yul\":5404:5497   */\n      swap4\n      pop\n        /* \"#utility.yul\":5521:5577   */\n      tag_209\n        /* \"#utility.yul\":5571:5576   */\n      dup4\n        /* \"#utility.yul\":5521:5577   */\n      tag_129\n      jump\t// in\n    tag_209:\n        /* \"#utility.yul\":5600:5607   */\n      dup1\n        /* \"#utility.yul\":5631:5632   */\n      0x00\n        /* \"#utility.yul\":5616:5900   */\n    tag_210:\n        /* \"#utility.yul\":5641:5647   */\n      dup4\n        /* \"#utility.yul\":5638:5639   */\n      dup2\n        /* \"#utility.yul\":5635:5648   */\n      lt\n        /* \"#utility.yul\":5616:5900   */\n      iszero\n      tag_212\n      jumpi\n        /* \"#utility.yul\":5717:5723   */\n      dup2\n        /* \"#utility.yul\":5711:5724   */\n      mload\n        /* \"#utility.yul\":5744:5807   */\n      tag_213\n        /* \"#utility.yul\":5803:5806   */\n      dup9\n        /* \"#utility.yul\":5788:5801   */\n      dup3\n        /* \"#utility.yul\":5744:5807   */\n      tag_131\n      jump\t// in\n    tag_213:\n        /* \"#utility.yul\":5737:5807   */\n      swap8\n      pop\n        /* \"#utility.yul\":5830:5890   */\n      tag_214\n        /* \"#utility.yul\":5883:5889   */\n      dup4\n        /* \"#utility.yul\":5830:5890   */\n      tag_132\n      jump\t// in\n    tag_214:\n        /* \"#utility.yul\":5820:5890   */\n      swap3\n      pop\n        /* \"#utility.yul\":5676:5900   */\n      pop\n        /* \"#utility.yul\":5663:5664   */\n      0x01\n        /* \"#utility.yul\":5660:5661   */\n      dup2\n        /* \"#utility.yul\":5656:5665   */\n      add\n        /* \"#utility.yul\":5651:5665   */\n      swap1\n      pop\n        /* \"#utility.yul\":5616:5900   */\n      jump(tag_210)\n    tag_212:\n        /* \"#utility.yul\":5620:5634   */\n      pop\n        /* \"#utility.yul\":5916:5919   */\n      dup6\n        /* \"#utility.yul\":5909:5919   */\n      swap4\n      pop\n        /* \"#utility.yul\":5317:5925   */\n      pop\n      pop\n      pop\n        /* \"#utility.yul\":5193:5925   */\n      swap3\n      swap2\n      pop\n      pop\n      jump\t// out\n        /* \"#utility.yul\":5931:6304   */\n    tag_42:\n        /* \"#utility.yul\":6074:6078   */\n      0x00\n        /* \"#utility.yul\":6112:6114   */\n      0x20\n        /* \"#utility.yul\":6101:6110   */\n      dup3\n        /* \"#utility.yul\":6097:6115   */\n      add\n        /* \"#utility.yul\":6089:6115   */\n      swap1\n      pop\n        /* \"#utility.yul\":6161:6170   */\n      dup2\n        /* \"#utility.yul\":6155:6159   */\n      dup2\n        /* \"#utility.yul\":6151:6171   */\n      sub\n        /* \"#utility.yul\":6147:6148   */\n      0x00\n        /* \"#utility.yul\":6136:6145   */\n      dup4\n        /* \"#utility.yul\":6132:6149   */\n      add\n        /* \"#utility.yul\":6125:6172   */\n      mstore\n        /* \"#utility.yul\":6189:6297   */\n      tag_216\n        /* \"#utility.yul\":6292:6296   */\n      dup2\n        /* \"#utility.yul\":6283:6289   */\n      dup5\n        /* \"#utility.yul\":6189:6297   */\n      tag_133\n      jump\t// in\n    tag_216:\n        /* \"#utility.yul\":6181:6297   */\n      swap1\n      pop\n        /* \"#utility.yul\":5931:6304   */\n      swap3\n      swap2\n      pop\n      pop\n      jump\t// out\n        /* \"#utility.yul\":6310:6784   */\n    tag_47:\n        /* \"#utility.yul\":6378:6384   */\n      0x00\n        /* \"#utility.yul\":6386:6392   */\n      dup1\n        /* \"#utility.yul\":6435:6437   */\n      0x40\n        /* \"#utility.yul\":6423:6432   */\n      dup4\n        /* \"#utility.yul\":6414:6421   */\n      dup6\n        /* \"#utility.yul\":6410:6433   */\n      sub\n        /* \"#utility.yul\":6406:6438   */\n      slt\n        /* \"#utility.yul\":6403:6522   */\n      iszero\n      tag_218\n      jumpi\n        /* \"#utility.yul\":6441:6520   */\n      tag_219\n      tag_113\n      jump\t// in\n    tag_219:\n        /* \"#utility.yul\":6403:6522   */\n    tag_218:\n        /* \"#utility.yul\":6561:6562   */\n      0x00\n        /* \"#utility.yul\":6586:6639   */\n      tag_220\n        /* \"#utility.yul\":6631:6638   */\n      dup6\n        /* \"#utility.yul\":6622:6628   */\n      dup3\n        /* \"#utility.yul\":6611:6620   */\n      dup7\n        /* \"#utility.yul\":6607:6629   */\n      add\n        /* \"#utility.yul\":6586:6639   */\n      tag_121\n      jump\t// in\n    tag_220:\n        /* \"#utility.yul\":6576:6639   */\n      swap3\n      pop\n        /* \"#utility.yul\":6532:6649   */\n      pop\n        /* \"#utility.yul\":6688:6690   */\n      0x20\n        /* \"#utility.yul\":6714:6767   */\n      tag_221\n        /* \"#utility.yul\":6759:6766   */\n      dup6\n        /* \"#utility.yul\":6750:6756   */\n      dup3\n        /* \"#utility.yul\":6739:6748   */\n      dup7\n        /* \"#utility.yul\":6735:6757   */\n      add\n        /* \"#utility.yul\":6714:6767   */\n      tag_124\n      jump\t// in\n    tag_221:\n        /* \"#utility.yul\":6704:6767   */\n      swap2\n      pop\n        /* \"#utility.yul\":6659:6777   */\n      pop\n        /* \"#utility.yul\":6310:6784   */\n      swap3\n      pop\n      swap3\n      swap1\n      pop\n      jump\t// out\n        /* \"#utility.yul\":6790:6850   */\n    tag_134:\n        /* \"#utility.yul\":6818:6821   */\n      0x00\n        /* \"#utility.yul\":6839:6844   */\n      dup2\n        /* \"#utility.yul\":6832:6844   */\n      swap1\n      pop\n        /* \"#utility.yul\":6790:6850   */\n      swap2\n      swap1\n      pop\n      jump\t// out\n        /* \"#utility.yul\":6856:6998   */\n    tag_135:\n        /* \"#utility.yul\":6906:6915   */\n      0x00\n        /* \"#utility.yul\":6939:6992   */\n      tag_224\n        /* \"#utility.yul\":6957:6991   */\n      tag_225\n        /* \"#utility.yul\":6966:6990   */\n      tag_226\n        /* \"#utility.yul\":6984:6989   */\n      dup5\n        /* \"#utility.yul\":6966:6990   */\n      tag_115\n      jump\t// in\n    tag_226:\n        /* \"#utility.yul\":6957:6991   */\n      tag_134\n      jump\t// in\n    tag_225:\n        /* \"#utility.yul\":6939:6992   */\n      tag_115\n      jump\t// in\n    tag_224:\n        /* \"#utility.yul\":6926:6992   */\n      swap1\n      pop\n        /* \"#utility.yul\":6856:6998   */\n      swap2\n      swap1\n      pop\n      jump\t// out\n        /* \"#utility.yul\":7004:7130   */\n    tag_136:\n        /* \"#utility.yul\":7054:7063   */\n      0x00\n        /* \"#utility.yul\":7087:7124   */\n      tag_228\n        /* \"#utility.yul\":7118:7123   */\n      dup3\n        /* \"#utility.yul\":7087:7124   */\n      tag_135\n      jump\t// in\n    tag_228:\n        /* \"#utility.yul\":7074:7124   */\n      swap1\n      pop\n        /* \"#utility.yul\":7004:7130   */\n      swap2\n      swap1\n      pop\n      jump\t// out\n        /* \"#utility.yul\":7136:7275   */\n    tag_137:\n        /* \"#utility.yul\":7199:7208   */\n      0x00\n        /* \"#utility.yul\":7232:7269   */\n      tag_230\n        /* \"#utility.yul\":7263:7268   */\n      dup3\n        /* \"#utility.yul\":7232:7269   */\n      tag_136\n      jump\t// in\n    tag_230:\n        /* \"#utility.yul\":7219:7269   */\n      swap1\n      pop\n        /* \"#utility.yul\":7136:7275   */\n      swap2\n      swap1\n      pop\n      jump\t// out\n        /* \"#utility.yul\":7281:7438   */\n    tag_138:\n        /* \"#utility.yul\":7381:7431   */\n      tag_232\n        /* \"#utility.yul\":7425:7430   */\n      dup2\n        /* \"#utility.yul\":7381:7431   */\n      tag_137\n      jump\t// in\n    tag_232:\n        /* \"#utility.yul\":7376:7379   */\n      dup3\n        /* \"#utility.yul\":7369:7432   */\n      mstore\n        /* \"#utility.yul\":7281:7438   */\n      pop\n      pop\n      jump\t// out\n        /* \"#utility.yul\":7444:7692   */\n    tag_56:\n        /* \"#utility.yul\":7550:7554   */\n      0x00\n        /* \"#utility.yul\":7588:7590   */\n      0x20\n        /* \"#utility.yul\":7577:7586   */\n      dup3\n        /* \"#utility.yul\":7573:7591   */\n      add\n        /* \"#utility.yul\":7565:7591   */\n      swap1\n      pop\n        /* \"#utility.yul\":7601:7685   */\n      tag_234\n        /* \"#utility.yul\":7682:7683   */\n      0x00\n        /* \"#utility.yul\":7671:7680   */\n      dup4\n        /* \"#utility.yul\":7667:7684   */\n      add\n        /* \"#utility.yul\":7658:7664   */\n      dup5\n        /* \"#utility.yul\":7601:7685   */\n      tag_138\n      jump\t// in\n    tag_234:\n        /* \"#utility.yul\":7444:7692   */\n      swap3\n      swap2\n      pop\n      pop\n      jump\t// out\n        /* \"#utility.yul\":7698:7920   */\n    tag_60:\n        /* \"#utility.yul\":7791:7795   */\n      0x00\n        /* \"#utility.yul\":7829:7831   */\n      0x20\n        /* \"#utility.yul\":7818:7827   */\n      dup3\n        /* \"#utility.yul\":7814:7832   */\n      add\n        /* \"#utility.yul\":7806:7832   */\n      swap1\n      pop\n        /* \"#utility.yul\":7842:7913   */\n      tag_236\n        /* \"#utility.yul\":7910:7911   */\n      0x00\n        /* \"#utility.yul\":7899:7908   */\n      dup4\n        /* \"#utility.yul\":7895:7912   */\n      add\n        /* \"#utility.yul\":7886:7892   */\n      dup5\n        /* \"#utility.yul\":7842:7913   */\n      tag_126\n      jump\t// in\n    tag_236:\n        /* \"#utility.yul\":7698:7920   */\n      swap3\n      swap2\n      pop\n      pop\n      jump\t// out\n        /* \"#utility.yul\":7926:8095   */\n    tag_139:\n        /* \"#utility.yul\":8010:8021   */\n      0x00\n        /* \"#utility.yul\":8044:8050   */\n      dup3\n        /* \"#utility.yul\":8039:8042   */\n      dup3\n        /* \"#utility.yul\":8032:8051   */\n      mstore\n        /* \"#utility.yul\":8084:8088   */\n      0x20\n        /* \"#utility.yul\":8079:8082   */\n      dup3\n        /* \"#utility.yul\":8075:8089   */\n      add\n        /* \"#utility.yul\":8060:8089   */\n      swap1\n      pop\n        /* \"#utility.yul\":7926:8095   */\n      swap3\n      swap2\n      pop\n      pop\n      jump\t// out\n        /* \"#utility.yul\":8101:8283   */\n    tag_140:\n        /* \"#utility.yul\":8241:8275   */\n      0x4f776e61626c653a2063616c6c6572206973206e6f7420746865206f776e6572\n        /* \"#utility.yul\":8237:8238   */\n      0x00\n        /* \"#utility.yul\":8229:8235   */\n      dup3\n        /* \"#utility.yul\":8225:8239   */\n      add\n        /* \"#utility.yul\":8218:8276   */\n      mstore\n        /* \"#utility.yul\":8101:8283   */\n      pop\n      jump\t// out\n        /* \"#utility.yul\":8289:8655   */\n    tag_141:\n        /* \"#utility.yul\":8431:8434   */\n      0x00\n        /* \"#utility.yul\":8452:8519   */\n      tag_240\n        /* \"#utility.yul\":8516:8518   */\n      0x20\n        /* \"#utility.yul\":8511:8514   */\n      dup4\n        /* \"#utility.yul\":8452:8519   */\n      tag_139\n      jump\t// in\n    tag_240:\n        /* \"#utility.yul\":8445:8519   */\n      swap2\n      pop\n        /* \"#utility.yul\":8528:8621   */\n      tag_241\n        /* \"#utility.yul\":8617:8620   */\n      dup3\n        /* \"#utility.yul\":8528:8621   */\n      tag_140\n      jump\t// in\n    tag_241:\n        /* \"#utility.yul\":8646:8648   */\n      0x20\n        /* \"#utility.yul\":8641:8644   */\n      dup3\n        /* \"#utility.yul\":8637:8649   */\n      add\n        /* \"#utility.yul\":8630:8649   */\n      swap1\n      pop\n        /* \"#utility.yul\":8289:8655   */\n      swap2\n      swap1\n      pop\n      jump\t// out\n        /* \"#utility.yul\":8661:9080   */\n    tag_70:\n        /* \"#utility.yul\":8827:8831   */\n      0x00\n        /* \"#utility.yul\":8865:8867   */\n      0x20\n        /* \"#utility.yul\":8854:8863   */\n      dup3\n        /* \"#utility.yul\":8850:8868   */\n      add\n        /* \"#utility.yul\":8842:8868   */\n      swap1\n      pop\n        /* \"#utility.yul\":8914:8923   */\n      dup2\n        /* \"#utility.yul\":8908:8912   */\n      dup2\n        /* \"#utility.yul\":8904:8924   */\n      sub\n        /* \"#utility.yul\":8900:8901   */\n      0x00\n        /* \"#utility.yul\":8889:8898   */\n      dup4\n        /* \"#utility.yul\":8885:8902   */\n      add\n        /* \"#utility.yul\":8878:8925   */\n      mstore\n        /* \"#utility.yul\":8942:9073   */\n      tag_243\n        /* \"#utility.yul\":9068:9072   */\n      dup2\n        /* \"#utility.yul\":8942:9073   */\n      tag_141\n      jump\t// in\n    tag_243:\n        /* \"#utility.yul\":8934:9073   */\n      swap1\n      pop\n        /* \"#utility.yul\":8661:9080   */\n      swap2\n      swap1\n      pop\n      jump\t// out\n        /* \"#utility.yul\":9086:9528   */\n    tag_74:\n        /* \"#utility.yul\":9235:9239   */\n      0x00\n        /* \"#utility.yul\":9273:9275   */\n      0x60\n        /* \"#utility.yul\":9262:9271   */\n      dup3\n        /* \"#utility.yul\":9258:9276   */\n      add\n        /* \"#utility.yul\":9250:9276   */\n      swap1\n      pop\n        /* \"#utility.yul\":9286:9357   */\n      tag_245\n        /* \"#utility.yul\":9354:9355   */\n      0x00\n        /* \"#utility.yul\":9343:9352   */\n      dup4\n        /* \"#utility.yul\":9339:9356   */\n      add\n        /* \"#utility.yul\":9330:9336   */\n      dup7\n        /* \"#utility.yul\":9286:9357   */\n      tag_125\n      jump\t// in\n    tag_245:\n        /* \"#utility.yul\":9367:9439   */\n      tag_246\n        /* \"#utility.yul\":9435:9437   */\n      0x20\n        /* \"#utility.yul\":9424:9433   */\n      dup4\n        /* \"#utility.yul\":9420:9438   */\n      add\n        /* \"#utility.yul\":9411:9417   */\n      dup6\n        /* \"#utility.yul\":9367:9439   */\n      tag_125\n      jump\t// in\n    tag_246:\n        /* \"#utility.yul\":9449:9521   */\n      tag_247\n        /* \"#utility.yul\":9517:9519   */\n      0x40\n        /* \"#utility.yul\":9506:9515   */\n      dup4\n        /* \"#utility.yul\":9502:9520   */\n      add\n        /* \"#utility.yul\":9493:9499   */\n      dup5\n        /* \"#utility.yul\":9449:9521   */\n      tag_126\n      jump\t// in\n    tag_247:\n        /* \"#utility.yul\":9086:9528   */\n      swap5\n      swap4\n      pop\n      pop\n      pop\n      pop\n      jump\t// out\n        /* \"#utility.yul\":9534:9759   */\n    tag_142:\n        /* \"#utility.yul\":9674:9708   */\n      0x4f776e61626c653a206e6577206f776e657220697320746865207a65726f2061\n        /* \"#utility.yul\":9670:9671   */\n      0x00\n        /* \"#utility.yul\":9662:9668   */\n      dup3\n        /* \"#utility.yul\":9658:9672   */\n      add\n        /* \"#utility.yul\":9651:9709   */\n      mstore\n        /* \"#utility.yul\":9743:9751   */\n      0x6464726573730000000000000000000000000000000000000000000000000000\n        /* \"#utility.yul\":9738:9740   */\n      0x20\n        /* \"#utility.yul\":9730:9736   */\n      dup3\n        /* \"#utility.yul\":9726:9741   */\n      add\n        /* \"#utility.yul\":9719:9752   */\n      mstore\n        /* \"#utility.yul\":9534:9759   */\n      pop\n      jump\t// out\n        /* \"#utility.yul\":9765:10131   */\n    tag_143:\n        /* \"#utility.yul\":9907:9910   */\n      0x00\n        /* \"#utility.yul\":9928:9995   */\n      tag_250\n        /* \"#utility.yul\":9992:9994   */\n      0x26\n        /* \"#utility.yul\":9987:9990   */\n      dup4\n        /* \"#utility.yul\":9928:9995   */\n      tag_139\n      jump\t// in\n    tag_250:\n        /* \"#utility.yul\":9921:9995   */\n      swap2\n      pop\n        /* \"#utility.yul\":10004:10097   */\n      tag_251\n        /* \"#utility.yul\":10093:10096   */\n      dup3\n        /* \"#utility.yul\":10004:10097   */\n      tag_142\n      jump\t// in\n    tag_251:\n        /* \"#utility.yul\":10122:10124   */\n      0x40\n        /* \"#utility.yul\":10117:10120   */\n      dup3\n        /* \"#utility.yul\":10113:10125   */\n      add\n        /* \"#utility.yul\":10106:10125   */\n      swap1\n      pop\n        /* \"#utility.yul\":9765:10131   */\n      swap2\n      swap1\n      pop\n      jump\t// out\n        /* \"#utility.yul\":10137:10556   */\n    tag_106:\n        /* \"#utility.yul\":10303:10307   */\n      0x00\n        /* \"#utility.yul\":10341:10343   */\n      0x20\n        /* \"#utility.yul\":10330:10339   */\n      dup3\n        /* \"#utility.yul\":10326:10344   */\n      add\n        /* \"#utility.yul\":10318:10344   */\n      swap1\n      pop\n        /* \"#utility.yul\":10390:10399   */\n      dup2\n        /* \"#utility.yul\":10384:10388   */\n      dup2\n        /* \"#utility.yul\":10380:10400   */\n      sub\n        /* \"#utility.yul\":10376:10377   */\n      0x00\n        /* \"#utility.yul\":10365:10374   */\n      dup4\n        /* \"#utility.yul\":10361:10378   */\n      add\n        /* \"#utility.yul\":10354:10401   */\n      mstore\n        /* \"#utility.yul\":10418:10549   */\n      tag_253\n        /* \"#utility.yul\":10544:10548   */\n      dup2\n        /* \"#utility.yul\":10418:10549   */\n      tag_143\n      jump\t// in\n    tag_253:\n        /* \"#utility.yul\":10410:10549   */\n      swap1\n      pop\n        /* \"#utility.yul\":10137:10556   */\n      swap2\n      swap1\n      pop\n      jump\t// out\n\n    auxdata: 0xa2646970667358221220a5702893e08d247c3c4528f7ea4e2ec992b2371c468e5a57b2ac8c3e4cf4ea8f64736f6c634300080e0033\n}\n",
				"bytecode": {
					"linkReferences": {},
					"object": "608060405234801561001057600080fd5b5061002d61002261003260201b60201c565b61003a60201b60201c565b6100fe565b600033905090565b60008060009054906101000a900473ffffffffffffffffffffffffffffffffffffffff169050816000806101000a81548173ffffffffffffffffffffffffffffffffffffffff021916908373ffffffffffffffffffffffffffffffffffffffff1602179055508173ffffffffffffffffffffffffffffffffffffffff168173ffffffffffffffffffffffffffffffffffffffff167f8be0079c531659141344cd1fd0a4f28419497f9722a3daafe3b4186f6b6457e060405160405180910390a35050565b610eca8061010d6000396000f3fe608060405234801561001057600080fd5b50600436106100b45760003560e01c8063715018a611610071578063715018a61461018f5780638637856d146101995780638da5cb5b146101cb578063a77b2e37146101e9578063af0afec914610207578063f2fde38b14610225576100b4565b8063158ef93e146100b95780631794bb3c146100d757806328f661e3146100f357806329e78c82146101115780632c1e816d146101435780635f4fd1f71461015f575b600080fd5b6100c1610241565b6040516100ce919061098a565b60405180910390f35b6100f160048036038101906100ec9190610a7c565b610254565b005b6100fb6103ef565b6040516101089190610ade565b60405180910390f35b61012b60048036038101906101269190610af9565b610415565b60405161013a93929190610b35565b60405180910390f35b61015d60048036038101906101589190610b6c565b610530565b005b61017960048036038101906101749190610b6c565b6105f0565b6040516101869190610c57565b60405180910390f35b610197610687565b005b6101b360048036038101906101ae9190610c79565b61070f565b6040516101c293929190610b35565b60405180910390f35b6101d3610753565b6040516101e09190610ade565b60405180910390f35b6101f161077c565b6040516101fe9190610d18565b60405180910390f35b61020f6107a2565b60405161021c9190610d33565b60405180910390f35b61023f600480360381019061023a9190610b6c565b6107ac565b005b600460009054906101000a900460ff1681565b61025c6108a3565b73ffffffffffffffffffffffffffffffffffffffff1661027a610753565b73ffffffffffffffffffffffffffffffffffffffff16146102d0576040517f08c379a00000000000000000000000000000000000000000000000000000000081526004016102c790610dab565b60405180910390fd5b82600260006101000a81548173ffffffffffffffffffffffffffffffffffffffff021916908373ffffffffffffffffffffffffffffffffffffffff16021790555081600160006101000a81548173ffffffffffffffffffffffffffffffffffffffff021916908373ffffffffffffffffffffffffffffffffffffffff160217905550600260009054906101000a900473ffffffffffffffffffffffffffffffffffffffff1673ffffffffffffffffffffffffffffffffffffffff1663b45ee9ef610398610753565b84846040518463ffffffff1660e01b81526004016103b893929190610dcb565b600060405180830381600087803b1580156103d257600080fd5b505af11580156103e6573d6000803e3d6000fd5b50505050505050565b600160009054906101000a900473ffffffffffffffffffffffffffffffffffffffff1681565b6000806000600560003373ffffffffffffffffffffffffffffffffffffffff1673ffffffffffffffffffffffffffffffffffffffff168152602001908152602001600020600085815260200190815260200160002060000154600560003373ffffffffffffffffffffffffffffffffffffffff1673ffffffffffffffffffffffffffffffffffffffff168152602001908152602001600020600086815260200190815260200160002060010154600560003373ffffffffffffffffffffffffffffffffffffffff1673ffffffffffffffffffffffffffffffffffffffff168152602001908152602001600020600087815260200190815260200160002060020160009054906101000a900460ff169250925092509193909250565b6105386108a3565b73ffffffffffffffffffffffffffffffffffffffff16610556610753565b73ffffffffffffffffffffffffffffffffffffffff16146105ac576040517f08c379a00000000000000000000000000000000000000000000000000000000081526004016105a390610dab565b60405180910390fd5b80600160006101000a81548173ffffffffffffffffffffffffffffffffffffffff021916908373ffffffffffffffffffffffffffffffffffffffff16021790555050565b6060600660008373ffffffffffffffffffffffffffffffffffffffff1673ffffffffffffffffffffffffffffffffffffffff16815260200190815260200160002080548060200260200160405190810160405280929190818152602001828054801561067b57602002820191906000526020600020905b815481526020019060010190808311610667575b50505050509050919050565b61068f6108a3565b73ffffffffffffffffffffffffffffffffffffffff166106ad610753565b73ffffffffffffffffffffffffffffffffffffffff1614610703576040517f08c379a00000000000000000000000000000000000000000000000000000000081526004016106fa90610dab565b60405180910390fd5b61070d60006108ab565b565b6005602052816000526040600020602052806000526040600020600091509150508060000154908060010154908060020160009054906101000a900460ff16905083565b60008060009054906101000a900473ffffffffffffffffffffffffffffffffffffffff16905090565b600260009054906101000a900473ffffffffffffffffffffffffffffffffffffffff1681565b6000600354905090565b6107b46108a3565b73ffffffffffffffffffffffffffffffffffffffff166107d2610753565b73ffffffffffffffffffffffffffffffffffffffff1614610828576040517f08c379a000000000000000000000000000000000000000000000000000000000815260040161081f90610dab565b60405180910390fd5b600073ffffffffffffffffffffffffffffffffffffffff168173ffffffffffffffffffffffffffffffffffffffff1603610897576040517f08c379a000000000000000000000000000000000000000000000000000000000815260040161088e90610e74565b60405180910390fd5b6108a0816108ab565b50565b600033905090565b60008060009054906101000a900473ffffffffffffffffffffffffffffffffffffffff169050816000806101000a81548173ffffffffffffffffffffffffffffffffffffffff021916908373ffffffffffffffffffffffffffffffffffffffff1602179055508173ffffffffffffffffffffffffffffffffffffffff168173ffffffffffffffffffffffffffffffffffffffff167f8be0079c531659141344cd1fd0a4f28419497f9722a3daafe3b4186f6b6457e060405160405180910390a35050565b60008115159050919050565b6109848161096f565b82525050565b600060208201905061099f600083018461097b565b92915050565b600080fd5b600073ffffffffffffffffffffffffffffffffffffffff82169050919050565b60006109d5826109aa565b9050919050565b60006109e7826109ca565b9050919050565b6109f7816109dc565b8114610a0257600080fd5b50565b600081359050610a14816109ee565b92915050565b610a23816109ca565b8114610a2e57600080fd5b50565b600081359050610a4081610a1a565b92915050565b6000819050919050565b610a5981610a46565b8114610a6457600080fd5b50565b600081359050610a7681610a50565b92915050565b600080600060608486031215610a9557610a946109a5565b5b6000610aa386828701610a05565b9350506020610ab486828701610a31565b9250506040610ac586828701610a67565b9150509250925092565b610ad8816109ca565b82525050565b6000602082019050610af36000830184610acf565b92915050565b600060208284031215610b0f57610b0e6109a5565b5b6000610b1d84828501610a67565b91505092915050565b610b2f81610a46565b82525050565b6000606082019050610b4a6000830186610b26565b610b576020830185610b26565b610b64604083018461097b565b949350505050565b600060208284031215610b8257610b816109a5565b5b6000610b9084828501610a31565b91505092915050565b600081519050919050565b600082825260208201905092915050565b6000819050602082019050919050565b610bce81610a46565b82525050565b6000610be08383610bc5565b60208301905092915050565b6000602082019050919050565b6000610c0482610b99565b610c0e8185610ba4565b9350610c1983610bb5565b8060005b83811015610c4a578151610c318882610bd4565b9750610c3c83610bec565b925050600181019050610c1d565b5085935050505092915050565b60006020820190508181036000830152610c718184610bf9565b905092915050565b60008060408385031215610c9057610c8f6109a5565b5b6000610c9e85828601610a31565b9250506020610caf85828601610a67565b9150509250929050565b6000819050919050565b6000610cde610cd9610cd4846109aa565b610cb9565b6109aa565b9050919050565b6000610cf082610cc3565b9050919050565b6000610d0282610ce5565b9050919050565b610d1281610cf7565b82525050565b6000602082019050610d2d6000830184610d09565b92915050565b6000602082019050610d486000830184610b26565b92915050565b600082825260208201905092915050565b7f4f776e61626c653a2063616c6c6572206973206e6f7420746865206f776e6572600082015250565b6000610d95602083610d4e565b9150610da082610d5f565b602082019050919050565b60006020820190508181036000830152610dc481610d88565b9050919050565b6000606082019050610de06000830186610acf565b610ded6020830185610acf565b610dfa6040830184610b26565b949350505050565b7f4f776e61626c653a206e6577206f776e657220697320746865207a65726f206160008201527f6464726573730000000000000000000000000000000000000000000000000000602082015250565b6000610e5e602683610d4e565b9150610e6982610e02565b604082019050919050565b60006020820190508181036000830152610e8d81610e51565b905091905056fea2646970667358221220a5702893e08d247c3c4528f7ea4e2ec992b2371c468e5a57b2ac8c3e4cf4ea8f64736f6c634300080e0033",
					"opcodes": "PUSH1 0x80 PUSH1 0x40 MSTORE CALLVALUE DUP1 ISZERO PUSH2 0x10 JUMPI PUSH1 0x0 DUP1 REVERT JUMPDEST POP PUSH2 0x2D PUSH2 0x22 PUSH2 0x32 PUSH1 0x20 SHL PUSH1 0x20 SHR JUMP JUMPDEST PUSH2 0x3A PUSH1 0x20 SHL PUSH1 0x20 SHR JUMP JUMPDEST PUSH2 0xFE JUMP JUMPDEST PUSH1 0x0 CALLER SWAP1 POP SWAP1 JUMP JUMPDEST PUSH1 0x0 DUP1 PUSH1 0x0 SWAP1 SLOAD SWAP1 PUSH2 0x100 EXP SWAP1 DIV PUSH20 0xFFFFFFFFFFFFFFFFFFFFFFFFFFFFFFFFFFFFFFFF AND SWAP1 POP DUP2 PUSH1 0x0 DUP1 PUSH2 0x100 EXP DUP2 SLOAD DUP2 PUSH20 0xFFFFFFFFFFFFFFFFFFFFFFFFFFFFFFFFFFFFFFFF MUL NOT AND SWAP1 DUP4 PUSH20 0xFFFFFFFFFFFFFFFFFFFFFFFFFFFFFFFFFFFFFFFF AND MUL OR SWAP1 SSTORE POP DUP2 PUSH20 0xFFFFFFFFFFFFFFFFFFFFFFFFFFFFFFFFFFFFFFFF AND DUP2 PUSH20 0xFFFFFFFFFFFFFFFFFFFFFFFFFFFFFFFFFFFFFFFF AND PUSH32 0x8BE0079C531659141344CD1FD0A4F28419497F9722A3DAAFE3B4186F6B6457E0 PUSH1 0x40 MLOAD PUSH1 0x40 MLOAD DUP1 SWAP2 SUB SWAP1 LOG3 POP POP JUMP JUMPDEST PUSH2 0xECA DUP1 PUSH2 0x10D PUSH1 0x0 CODECOPY PUSH1 0x0 RETURN INVALID PUSH1 0x80 PUSH1 0x40 MSTORE CALLVALUE DUP1 ISZERO PUSH2 0x10 JUMPI PUSH1 0x0 DUP1 REVERT JUMPDEST POP PUSH1 0x4 CALLDATASIZE LT PUSH2 0xB4 JUMPI PUSH1 0x0 CALLDATALOAD PUSH1 0xE0 SHR DUP1 PUSH4 0x715018A6 GT PUSH2 0x71 JUMPI DUP1 PUSH4 0x715018A6 EQ PUSH2 0x18F JUMPI DUP1 PUSH4 0x8637856D EQ PUSH2 0x199 JUMPI DUP1 PUSH4 0x8DA5CB5B EQ PUSH2 0x1CB JUMPI DUP1 PUSH4 0xA77B2E37 EQ PUSH2 0x1E9 JUMPI DUP1 PUSH4 0xAF0AFEC9 EQ PUSH2 0x207 JUMPI DUP1 PUSH4 0xF2FDE38B EQ PUSH2 0x225 JUMPI PUSH2 0xB4 JUMP JUMPDEST DUP1 PUSH4 0x158EF93E EQ PUSH2 0xB9 JUMPI DUP1 PUSH4 0x1794BB3C EQ PUSH2 0xD7 JUMPI DUP1 PUSH4 0x28F661E3 EQ PUSH2 0xF3 JUMPI DUP1 PUSH4 0x29E78C82 EQ PUSH2 0x111 JUMPI DUP1 PUSH4 0x2C1E816D EQ PUSH2 0x143 JUMPI DUP1 PUSH4 0x5F4FD1F7 EQ PUSH2 0x15F JUMPI JUMPDEST PUSH1 0x0 DUP1 REVERT JUMPDEST PUSH2 0xC1 PUSH2 0x241 JUMP JUMPDEST PUSH1 0x40 MLOAD PUSH2 0xCE SWAP2 SWAP1 PUSH2 0x98A JUMP JUMPDEST PUSH1 0x40 MLOAD DUP1 SWAP2 SUB SWAP1 RETURN JUMPDEST PUSH2 0xF1 PUSH1 0x4 DUP1 CALLDATASIZE SUB DUP2 ADD SWAP1 PUSH2 0xEC SWAP2 SWAP1 PUSH2 0xA7C JUMP JUMPDEST PUSH2 0x254 JUMP JUMPDEST STOP JUMPDEST PUSH2 0xFB PUSH2 0x3EF JUMP JUMPDEST PUSH1 0x40 MLOAD PUSH2 0x108 SWAP2 SWAP1 PUSH2 0xADE JUMP JUMPDEST PUSH1 0x40 MLOAD DUP1 SWAP2 SUB SWAP1 RETURN JUMPDEST PUSH2 0x12B PUSH1 0x4 DUP1 CALLDATASIZE SUB DUP2 ADD SWAP1 PUSH2 0x126 SWAP2 SWAP1 PUSH2 0xAF9 JUMP JUMPDEST PUSH2 0x415 JUMP JUMPDEST PUSH1 0x40 MLOAD PUSH2 0x13A SWAP4 SWAP3 SWAP2 SWAP1 PUSH2 0xB35 JUMP JUMPDEST PUSH1 0x40 MLOAD DUP1 SWAP2 SUB SWAP1 RETURN JUMPDEST PUSH2 0x15D PUSH1 0x4 DUP1 CALLDATASIZE SUB DUP2 ADD SWAP1 PUSH2 0x158 SWAP2 SWAP1 PUSH2 0xB6C JUMP JUMPDEST PUSH2 0x530 JUMP JUMPDEST STOP JUMPDEST PUSH2 0x179 PUSH1 0x4 DUP1 CALLDATASIZE SUB DUP2 ADD SWAP1 PUSH2 0x174 SWAP2 SWAP1 PUSH2 0xB6C JUMP JUMPDEST PUSH2 0x5F0 JUMP JUMPDEST PUSH1 0x40 MLOAD PUSH2 0x186 SWAP2 SWAP1 PUSH2 0xC57 JUMP JUMPDEST PUSH1 0x40 MLOAD DUP1 SWAP2 SUB SWAP1 RETURN JUMPDEST PUSH2 0x197 PUSH2 0x687 JUMP JUMPDEST STOP JUMPDEST PUSH2 0x1B3 PUSH1 0x4 DUP1 CALLDATASIZE SUB DUP2 ADD SWAP1 PUSH2 0x1AE SWAP2 SWAP1 PUSH2 0xC79 JUMP JUMPDEST PUSH2 0x70F JUMP JUMPDEST PUSH1 0x40 MLOAD PUSH2 0x1C2 SWAP4 SWAP3 SWAP2 SWAP1 PUSH2 0xB35 JUMP JUMPDEST PUSH1 0x40 MLOAD DUP1 SWAP2 SUB SWAP1 RETURN JUMPDEST PUSH2 0x1D3 PUSH2 0x753 JUMP JUMPDEST PUSH1 0x40 MLOAD PUSH2 0x1E0 SWAP2 SWAP1 PUSH2 0xADE JUMP JUMPDEST PUSH1 0x40 MLOAD DUP1 SWAP2 SUB SWAP1 RETURN JUMPDEST PUSH2 0x1F1 PUSH2 0x77C JUMP JUMPDEST PUSH1 0x40 MLOAD PUSH2 0x1FE SWAP2 SWAP1 PUSH2 0xD18 JUMP JUMPDEST PUSH1 0x40 MLOAD DUP1 SWAP2 SUB SWAP1 RETURN JUMPDEST PUSH2 0x20F PUSH2 0x7A2 JUMP JUMPDEST PUSH1 0x40 MLOAD PUSH2 0x21C SWAP2 SWAP1 PUSH2 0xD33 JUMP JUMPDEST PUSH1 0x40 MLOAD DUP1 SWAP2 SUB SWAP1 RETURN JUMPDEST PUSH2 0x23F PUSH1 0x4 DUP1 CALLDATASIZE SUB DUP2 ADD SWAP1 PUSH2 0x23A SWAP2 SWAP1 PUSH2 0xB6C JUMP JUMPDEST PUSH2 0x7AC JUMP JUMPDEST STOP JUMPDEST PUSH1 0x4 PUSH1 0x0 SWAP1 SLOAD SWAP1 PUSH2 0x100 EXP SWAP1 DIV PUSH1 0xFF AND DUP2 JUMP JUMPDEST PUSH2 0x25C PUSH2 0x8A3 JUMP JUMPDEST PUSH20 0xFFFFFFFFFFFFFFFFFFFFFFFFFFFFFFFFFFFFFFFF AND PUSH2 0x27A PUSH2 0x753 JUMP JUMPDEST PUSH20 0xFFFFFFFFFFFFFFFFFFFFFFFFFFFFFFFFFFFFFFFF AND EQ PUSH2 0x2D0 JUMPI PUSH1 0x40 MLOAD PUSH32 0x8C379A000000000000000000000000000000000000000000000000000000000 DUP2 MSTORE PUSH1 0x4 ADD PUSH2 0x2C7 SWAP1 PUSH2 0xDAB JUMP JUMPDEST PUSH1 0x40 MLOAD DUP1 SWAP2 SUB SWAP1 REVERT JUMPDEST DUP3 PUSH1 0x2 PUSH1 0x0 PUSH2 0x100 EXP DUP2 SLOAD DUP2 PUSH20 0xFFFFFFFFFFFFFFFFFFFFFFFFFFFFFFFFFFFFFFFF MUL NOT AND SWAP1 DUP4 PUSH20 0xFFFFFFFFFFFFFFFFFFFFFFFFFFFFFFFFFFFFFFFF AND MUL OR SWAP1 SSTORE POP DUP2 PUSH1 0x1 PUSH1 0x0 PUSH2 0x100 EXP DUP2 SLOAD DUP2 PUSH20 0xFFFFFFFFFFFFFFFFFFFFFFFFFFFFFFFFFFFFFFFF MUL NOT AND SWAP1 DUP4 PUSH20 0xFFFFFFFFFFFFFFFFFFFFFFFFFFFFFFFFFFFFFFFF AND MUL OR SWAP1 SSTORE POP PUSH1 0x2 PUSH1 0x0 SWAP1 SLOAD SWAP1 PUSH2 0x100 EXP SWAP1 DIV PUSH20 0xFFFFFFFFFFFFFFFFFFFFFFFFFFFFFFFFFFFFFFFF AND PUSH20 0xFFFFFFFFFFFFFFFFFFFFFFFFFFFFFFFFFFFFFFFF AND PUSH4 0xB45EE9EF PUSH2 0x398 PUSH2 0x753 JUMP JUMPDEST DUP5 DUP5 PUSH1 0x40 MLOAD DUP5 PUSH4 0xFFFFFFFF AND PUSH1 0xE0 SHL DUP2 MSTORE PUSH1 0x4 ADD PUSH2 0x3B8 SWAP4 SWAP3 SWAP2 SWAP1 PUSH2 0xDCB JUMP JUMPDEST PUSH1 0x0 PUSH1 0x40 MLOAD DUP1 DUP4 SUB DUP2 PUSH1 0x0 DUP8 DUP1 EXTCODESIZE ISZERO DUP1 ISZERO PUSH2 0x3D2 JUMPI PUSH1 0x0 DUP1 REVERT JUMPDEST POP GAS CALL ISZERO DUP1 ISZERO PUSH2 0x3E6 JUMPI RETURNDATASIZE PUSH1 0x0 DUP1 RETURNDATACOPY RETURNDATASIZE PUSH1 0x0 REVERT JUMPDEST POP POP POP POP POP POP POP JUMP JUMPDEST PUSH1 0x1 PUSH1 0x0 SWAP1 SLOAD SWAP1 PUSH2 0x100 EXP SWAP1 DIV PUSH20 0xFFFFFFFFFFFFFFFFFFFFFFFFFFFFFFFFFFFFFFFF AND DUP2 JUMP JUMPDEST PUSH1 0x0 DUP1 PUSH1 0x0 PUSH1 0x5 PUSH1 0x0 CALLER PUSH20 0xFFFFFFFFFFFFFFFFFFFFFFFFFFFFFFFFFFFFFFFF AND PUSH20 0xFFFFFFFFFFFFFFFFFFFFFFFFFFFFFFFFFFFFFFFF AND DUP2 MSTORE PUSH1 0x20 ADD SWAP1 DUP2 MSTORE PUSH1 0x20 ADD PUSH1 0x0 KECCAK256 PUSH1 0x0 DUP6 DUP2 MSTORE PUSH1 0x20 ADD SWAP1 DUP2 MSTORE PUSH1 0x20 ADD PUSH1 0x0 KECCAK256 PUSH1 0x0 ADD SLOAD PUSH1 0x5 PUSH1 0x0 CALLER PUSH20 0xFFFFFFFFFFFFFFFFFFFFFFFFFFFFFFFFFFFFFFFF AND PUSH20 0xFFFFFFFFFFFFFFFFFFFFFFFFFFFFFFFFFFFFFFFF AND DUP2 MSTORE PUSH1 0x20 ADD SWAP1 DUP2 MSTORE PUSH1 0x20 ADD PUSH1 0x0 KECCAK256 PUSH1 0x0 DUP7 DUP2 MSTORE PUSH1 0x20 ADD SWAP1 DUP2 MSTORE PUSH1 0x20 ADD PUSH1 0x0 KECCAK256 PUSH1 0x1 ADD SLOAD PUSH1 0x5 PUSH1 0x0 CALLER PUSH20 0xFFFFFFFFFFFFFFFFFFFFFFFFFFFFFFFFFFFFFFFF AND PUSH20 0xFFFFFFFFFFFFFFFFFFFFFFFFFFFFFFFFFFFFFFFF AND DUP2 MSTORE PUSH1 0x20 ADD SWAP1 DUP2 MSTORE PUSH1 0x20 ADD PUSH1 0x0 KECCAK256 PUSH1 0x0 DUP8 DUP2 MSTORE PUSH1 0x20 ADD SWAP1 DUP2 MSTORE PUSH1 0x20 ADD PUSH1 0x0 KECCAK256 PUSH1 0x2 ADD PUSH1 0x0 SWAP1 SLOAD SWAP1 PUSH2 0x100 EXP SWAP1 DIV PUSH1 0xFF AND SWAP3 POP SWAP3 POP SWAP3 POP SWAP2 SWAP4 SWAP1 SWAP3 POP JUMP JUMPDEST PUSH2 0x538 PUSH2 0x8A3 JUMP JUMPDEST PUSH20 0xFFFFFFFFFFFFFFFFFFFFFFFFFFFFFFFFFFFFFFFF AND PUSH2 0x556 PUSH2 0x753 JUMP JUMPDEST PUSH20 0xFFFFFFFFFFFFFFFFFFFFFFFFFFFFFFFFFFFFFFFF AND EQ PUSH2 0x5AC JUMPI PUSH1 0x40 MLOAD PUSH32 0x8C379A000000000000000000000000000000000000000000000000000000000 DUP2 MSTORE PUSH1 0x4 ADD PUSH2 0x5A3 SWAP1 PUSH2 0xDAB JUMP JUMPDEST PUSH1 0x40 MLOAD DUP1 SWAP2 SUB SWAP1 REVERT JUMPDEST DUP1 PUSH1 0x1 PUSH1 0x0 PUSH2 0x100 EXP DUP2 SLOAD DUP2 PUSH20 0xFFFFFFFFFFFFFFFFFFFFFFFFFFFFFFFFFFFFFFFF MUL NOT AND SWAP1 DUP4 PUSH20 0xFFFFFFFFFFFFFFFFFFFFFFFFFFFFFFFFFFFFFFFF AND MUL OR SWAP1 SSTORE POP POP JUMP JUMPDEST PUSH1 0x60 PUSH1 0x6 PUSH1 0x0 DUP4 PUSH20 0xFFFFFFFFFFFFFFFFFFFFFFFFFFFFFFFFFFFFFFFF AND PUSH20 0xFFFFFFFFFFFFFFFFFFFFFFFFFFFFFFFFFFFFFFFF AND DUP2 MSTORE PUSH1 0x20 ADD SWAP1 DUP2 MSTORE PUSH1 0x20 ADD PUSH1 0x0 KECCAK256 DUP1 SLOAD DUP1 PUSH1 0x20 MUL PUSH1 0x20 ADD PUSH1 0x40 MLOAD SWAP1 DUP2 ADD PUSH1 0x40 MSTORE DUP1 SWAP3 SWAP2 SWAP1 DUP2 DUP2 MSTORE PUSH1 0x20 ADD DUP3 DUP1 SLOAD DUP1 ISZERO PUSH2 0x67B JUMPI PUSH1 0x20 MUL DUP3 ADD SWAP2 SWAP1 PUSH1 0x0 MSTORE PUSH1 0x20 PUSH1 0x0 KECCAK256 SWAP1 JUMPDEST DUP2 SLOAD DUP2 MSTORE PUSH1 0x20 ADD SWAP1 PUSH1 0x1 ADD SWAP1 DUP1 DUP4 GT PUSH2 0x667 JUMPI JUMPDEST POP POP POP POP POP SWAP1 POP SWAP2 SWAP1 POP JUMP JUMPDEST PUSH2 0x68F PUSH2 0x8A3 JUMP JUMPDEST PUSH20 0xFFFFFFFFFFFFFFFFFFFFFFFFFFFFFFFFFFFFFFFF AND PUSH2 0x6AD PUSH2 0x753 JUMP JUMPDEST PUSH20 0xFFFFFFFFFFFFFFFFFFFFFFFFFFFFFFFFFFFFFFFF AND EQ PUSH2 0x703 JUMPI PUSH1 0x40 MLOAD PUSH32 0x8C379A000000000000000000000000000000000000000000000000000000000 DUP2 MSTORE PUSH1 0x4 ADD PUSH2 0x6FA SWAP1 PUSH2 0xDAB JUMP JUMPDEST PUSH1 0x40 MLOAD DUP1 SWAP2 SUB SWAP1 REVERT JUMPDEST PUSH2 0x70D PUSH1 0x0 PUSH2 0x8AB JUMP JUMPDEST JUMP JUMPDEST PUSH1 0x5 PUSH1 0x20 MSTORE DUP2 PUSH1 0x0 MSTORE PUSH1 0x40 PUSH1 0x0 KECCAK256 PUSH1 0x20 MSTORE DUP1 PUSH1 0x0 MSTORE PUSH1 0x40 PUSH1 0x0 KECCAK256 PUSH1 0x0 SWAP2 POP SWAP2 POP POP DUP1 PUSH1 0x0 ADD SLOAD SWAP1 DUP1 PUSH1 0x1 ADD SLOAD SWAP1 DUP1 PUSH1 0x2 ADD PUSH1 0x0 SWAP1 SLOAD SWAP1 PUSH2 0x100 EXP SWAP1 DIV PUSH1 0xFF AND SWAP1 POP DUP4 JUMP JUMPDEST PUSH1 0x0 DUP1 PUSH1 0x0 SWAP1 SLOAD SWAP1 PUSH2 0x100 EXP SWAP1 DIV PUSH20 0xFFFFFFFFFFFFFFFFFFFFFFFFFFFFFFFFFFFFFFFF AND SWAP1 POP SWAP1 JUMP JUMPDEST PUSH1 0x2 PUSH1 0x0 SWAP1 SLOAD SWAP1 PUSH2 0x100 EXP SWAP1 DIV PUSH20 0xFFFFFFFFFFFFFFFFFFFFFFFFFFFFFFFFFFFFFFFF AND DUP2 JUMP JUMPDEST PUSH1 0x0 PUSH1 0x3 SLOAD SWAP1 POP SWAP1 JUMP JUMPDEST PUSH2 0x7B4 PUSH2 0x8A3 JUMP JUMPDEST PUSH20 0xFFFFFFFFFFFFFFFFFFFFFFFFFFFFFFFFFFFFFFFF AND PUSH2 0x7D2 PUSH2 0x753 JUMP JUMPDEST PUSH20 0xFFFFFFFFFFFFFFFFFFFFFFFFFFFFFFFFFFFFFFFF AND EQ PUSH2 0x828 JUMPI PUSH1 0x40 MLOAD PUSH32 0x8C379A000000000000000000000000000000000000000000000000000000000 DUP2 MSTORE PUSH1 0x4 ADD PUSH2 0x81F SWAP1 PUSH2 0xDAB JUMP JUMPDEST PUSH1 0x40 MLOAD DUP1 SWAP2 SUB SWAP1 REVERT JUMPDEST PUSH1 0x0 PUSH20 0xFFFFFFFFFFFFFFFFFFFFFFFFFFFFFFFFFFFFFFFF AND DUP2 PUSH20 0xFFFFFFFFFFFFFFFFFFFFFFFFFFFFFFFFFFFFFFFF AND SUB PUSH2 0x897 JUMPI PUSH1 0x40 MLOAD PUSH32 0x8C379A000000000000000000000000000000000000000000000000000000000 DUP2 MSTORE PUSH1 0x4 ADD PUSH2 0x88E SWAP1 PUSH2 0xE74 JUMP JUMPDEST PUSH1 0x40 MLOAD DUP1 SWAP2 SUB SWAP1 REVERT JUMPDEST PUSH2 0x8A0 DUP2 PUSH2 0x8AB JUMP JUMPDEST POP JUMP JUMPDEST PUSH1 0x0 CALLER SWAP1 POP SWAP1 JUMP JUMPDEST PUSH1 0x0 DUP1 PUSH1 0x0 SWAP1 SLOAD SWAP1 PUSH2 0x100 EXP SWAP1 DIV PUSH20 0xFFFFFFFFFFFFFFFFFFFFFFFFFFFFFFFFFFFFFFFF AND SWAP1 POP DUP2 PUSH1 0x0 DUP1 PUSH2 0x100 EXP DUP2 SLOAD DUP2 PUSH20 0xFFFFFFFFFFFFFFFFFFFFFFFFFFFFFFFFFFFFFFFF MUL NOT AND SWAP1 DUP4 PUSH20 0xFFFFFFFFFFFFFFFFFFFFFFFFFFFFFFFFFFFFFFFF AND MUL OR SWAP1 SSTORE POP DUP2 PUSH20 0xFFFFFFFFFFFFFFFFFFFFFFFFFFFFFFFFFFFFFFFF AND DUP2 PUSH20 0xFFFFFFFFFFFFFFFFFFFFFFFFFFFFFFFFFFFFFFFF AND PUSH32 0x8BE0079C531659141344CD1FD0A4F28419497F9722A3DAAFE3B4186F6B6457E0 PUSH1 0x40 MLOAD PUSH1 0x40 MLOAD DUP1 SWAP2 SUB SWAP1 LOG3 POP POP JUMP JUMPDEST PUSH1 0x0 DUP2 ISZERO ISZERO SWAP1 POP SWAP2 SWAP1 POP JUMP JUMPDEST PUSH2 0x984 DUP2 PUSH2 0x96F JUMP JUMPDEST DUP3 MSTORE POP POP JUMP JUMPDEST PUSH1 0x0 PUSH1 0x20 DUP3 ADD SWAP1 POP PUSH2 0x99F PUSH1 0x0 DUP4 ADD DUP5 PUSH2 0x97B JUMP JUMPDEST SWAP3 SWAP2 POP POP JUMP JUMPDEST PUSH1 0x0 DUP1 REVERT JUMPDEST PUSH1 0x0 PUSH20 0xFFFFFFFFFFFFFFFFFFFFFFFFFFFFFFFFFFFFFFFF DUP3 AND SWAP1 POP SWAP2 SWAP1 POP JUMP JUMPDEST PUSH1 0x0 PUSH2 0x9D5 DUP3 PUSH2 0x9AA JUMP JUMPDEST SWAP1 POP SWAP2 SWAP1 POP JUMP JUMPDEST PUSH1 0x0 PUSH2 0x9E7 DUP3 PUSH2 0x9CA JUMP JUMPDEST SWAP1 POP SWAP2 SWAP1 POP JUMP JUMPDEST PUSH2 0x9F7 DUP2 PUSH2 0x9DC JUMP JUMPDEST DUP2 EQ PUSH2 0xA02 JUMPI PUSH1 0x0 DUP1 REVERT JUMPDEST POP JUMP JUMPDEST PUSH1 0x0 DUP2 CALLDATALOAD SWAP1 POP PUSH2 0xA14 DUP2 PUSH2 0x9EE JUMP JUMPDEST SWAP3 SWAP2 POP POP JUMP JUMPDEST PUSH2 0xA23 DUP2 PUSH2 0x9CA JUMP JUMPDEST DUP2 EQ PUSH2 0xA2E JUMPI PUSH1 0x0 DUP1 REVERT JUMPDEST POP JUMP JUMPDEST PUSH1 0x0 DUP2 CALLDATALOAD SWAP1 POP PUSH2 0xA40 DUP2 PUSH2 0xA1A JUMP JUMPDEST SWAP3 SWAP2 POP POP JUMP JUMPDEST PUSH1 0x0 DUP2 SWAP1 POP SWAP2 SWAP1 POP JUMP JUMPDEST PUSH2 0xA59 DUP2 PUSH2 0xA46 JUMP JUMPDEST DUP2 EQ PUSH2 0xA64 JUMPI PUSH1 0x0 DUP1 REVERT JUMPDEST POP JUMP JUMPDEST PUSH1 0x0 DUP2 CALLDATALOAD SWAP1 POP PUSH2 0xA76 DUP2 PUSH2 0xA50 JUMP JUMPDEST SWAP3 SWAP2 POP POP JUMP JUMPDEST PUSH1 0x0 DUP1 PUSH1 0x0 PUSH1 0x60 DUP5 DUP7 SUB SLT ISZERO PUSH2 0xA95 JUMPI PUSH2 0xA94 PUSH2 0x9A5 JUMP JUMPDEST JUMPDEST PUSH1 0x0 PUSH2 0xAA3 DUP7 DUP3 DUP8 ADD PUSH2 0xA05 JUMP JUMPDEST SWAP4 POP POP PUSH1 0x20 PUSH2 0xAB4 DUP7 DUP3 DUP8 ADD PUSH2 0xA31 JUMP JUMPDEST SWAP3 POP POP PUSH1 0x40 PUSH2 0xAC5 DUP7 DUP3 DUP8 ADD PUSH2 0xA67 JUMP JUMPDEST SWAP2 POP POP SWAP3 POP SWAP3 POP SWAP3 JUMP JUMPDEST PUSH2 0xAD8 DUP2 PUSH2 0x9CA JUMP JUMPDEST DUP3 MSTORE POP POP JUMP JUMPDEST PUSH1 0x0 PUSH1 0x20 DUP3 ADD SWAP1 POP PUSH2 0xAF3 PUSH1 0x0 DUP4 ADD DUP5 PUSH2 0xACF JUMP JUMPDEST SWAP3 SWAP2 POP POP JUMP JUMPDEST PUSH1 0x0 PUSH1 0x20 DUP3 DUP5 SUB SLT ISZERO PUSH2 0xB0F JUMPI PUSH2 0xB0E PUSH2 0x9A5 JUMP JUMPDEST JUMPDEST PUSH1 0x0 PUSH2 0xB1D DUP5 DUP3 DUP6 ADD PUSH2 0xA67 JUMP JUMPDEST SWAP2 POP POP SWAP3 SWAP2 POP POP JUMP JUMPDEST PUSH2 0xB2F DUP2 PUSH2 0xA46 JUMP JUMPDEST DUP3 MSTORE POP POP JUMP JUMPDEST PUSH1 0x0 PUSH1 0x60 DUP3 ADD SWAP1 POP PUSH2 0xB4A PUSH1 0x0 DUP4 ADD DUP7 PUSH2 0xB26 JUMP JUMPDEST PUSH2 0xB57 PUSH1 0x20 DUP4 ADD DUP6 PUSH2 0xB26 JUMP JUMPDEST PUSH2 0xB64 PUSH1 0x40 DUP4 ADD DUP5 PUSH2 0x97B JUMP JUMPDEST SWAP5 SWAP4 POP POP POP POP JUMP JUMPDEST PUSH1 0x0 PUSH1 0x20 DUP3 DUP5 SUB SLT ISZERO PUSH2 0xB82 JUMPI PUSH2 0xB81 PUSH2 0x9A5 JUMP JUMPDEST JUMPDEST PUSH1 0x0 PUSH2 0xB90 DUP5 DUP3 DUP6 ADD PUSH2 0xA31 JUMP JUMPDEST SWAP2 POP POP SWAP3 SWAP2 POP POP JUMP JUMPDEST PUSH1 0x0 DUP2 MLOAD SWAP1 POP SWAP2 SWAP1 POP JUMP JUMPDEST PUSH1 0x0 DUP3 DUP3 MSTORE PUSH1 0x20 DUP3 ADD SWAP1 POP SWAP3 SWAP2 POP POP JUMP JUMPDEST PUSH1 0x0 DUP2 SWAP1 POP PUSH1 0x20 DUP3 ADD SWAP1 POP SWAP2 SWAP1 POP JUMP JUMPDEST PUSH2 0xBCE DUP2 PUSH2 0xA46 JUMP JUMPDEST DUP3 MSTORE POP POP JUMP JUMPDEST PUSH1 0x0 PUSH2 0xBE0 DUP4 DUP4 PUSH2 0xBC5 JUMP JUMPDEST PUSH1 0x20 DUP4 ADD SWAP1 POP SWAP3 SWAP2 POP POP JUMP JUMPDEST PUSH1 0x0 PUSH1 0x20 DUP3 ADD SWAP1 POP SWAP2 SWAP1 POP JUMP JUMPDEST PUSH1 0x0 PUSH2 0xC04 DUP3 PUSH2 0xB99 JUMP JUMPDEST PUSH2 0xC0E DUP2 DUP6 PUSH2 0xBA4 JUMP JUMPDEST SWAP4 POP PUSH2 0xC19 DUP4 PUSH2 0xBB5 JUMP JUMPDEST DUP1 PUSH1 0x0 JUMPDEST DUP4 DUP2 LT ISZERO PUSH2 0xC4A JUMPI DUP2 MLOAD PUSH2 0xC31 DUP9 DUP3 PUSH2 0xBD4 JUMP JUMPDEST SWAP8 POP PUSH2 0xC3C DUP4 PUSH2 0xBEC JUMP JUMPDEST SWAP3 POP POP PUSH1 0x1 DUP2 ADD SWAP1 POP PUSH2 0xC1D JUMP JUMPDEST POP DUP6 SWAP4 POP POP POP POP SWAP3 SWAP2 POP POP JUMP JUMPDEST PUSH1 0x0 PUSH1 0x20 DUP3 ADD SWAP1 POP DUP2 DUP2 SUB PUSH1 0x0 DUP4 ADD MSTORE PUSH2 0xC71 DUP2 DUP5 PUSH2 0xBF9 JUMP JUMPDEST SWAP1 POP SWAP3 SWAP2 POP POP JUMP JUMPDEST PUSH1 0x0 DUP1 PUSH1 0x40 DUP4 DUP6 SUB SLT ISZERO PUSH2 0xC90 JUMPI PUSH2 0xC8F PUSH2 0x9A5 JUMP JUMPDEST JUMPDEST PUSH1 0x0 PUSH2 0xC9E DUP6 DUP3 DUP7 ADD PUSH2 0xA31 JUMP JUMPDEST SWAP3 POP POP PUSH1 0x20 PUSH2 0xCAF DUP6 DUP3 DUP7 ADD PUSH2 0xA67 JUMP JUMPDEST SWAP2 POP POP SWAP3 POP SWAP3 SWAP1 POP JUMP JUMPDEST PUSH1 0x0 DUP2 SWAP1 POP SWAP2 SWAP1 POP JUMP JUMPDEST PUSH1 0x0 PUSH2 0xCDE PUSH2 0xCD9 PUSH2 0xCD4 DUP5 PUSH2 0x9AA JUMP JUMPDEST PUSH2 0xCB9 JUMP JUMPDEST PUSH2 0x9AA JUMP JUMPDEST SWAP1 POP SWAP2 SWAP1 POP JUMP JUMPDEST PUSH1 0x0 PUSH2 0xCF0 DUP3 PUSH2 0xCC3 JUMP JUMPDEST SWAP1 POP SWAP2 SWAP1 POP JUMP JUMPDEST PUSH1 0x0 PUSH2 0xD02 DUP3 PUSH2 0xCE5 JUMP JUMPDEST SWAP1 POP SWAP2 SWAP1 POP JUMP JUMPDEST PUSH2 0xD12 DUP2 PUSH2 0xCF7 JUMP JUMPDEST DUP3 MSTORE POP POP JUMP JUMPDEST PUSH1 0x0 PUSH1 0x20 DUP3 ADD SWAP1 POP PUSH2 0xD2D PUSH1 0x0 DUP4 ADD DUP5 PUSH2 0xD09 JUMP JUMPDEST SWAP3 SWAP2 POP POP JUMP JUMPDEST PUSH1 0x0 PUSH1 0x20 DUP3 ADD SWAP1 POP PUSH2 0xD48 PUSH1 0x0 DUP4 ADD DUP5 PUSH2 0xB26 JUMP JUMPDEST SWAP3 SWAP2 POP POP JUMP JUMPDEST PUSH1 0x0 DUP3 DUP3 MSTORE PUSH1 0x20 DUP3 ADD SWAP1 POP SWAP3 SWAP2 POP POP JUMP JUMPDEST PUSH32 0x4F776E61626C653A2063616C6C6572206973206E6F7420746865206F776E6572 PUSH1 0x0 DUP3 ADD MSTORE POP JUMP JUMPDEST PUSH1 0x0 PUSH2 0xD95 PUSH1 0x20 DUP4 PUSH2 0xD4E JUMP JUMPDEST SWAP2 POP PUSH2 0xDA0 DUP3 PUSH2 0xD5F JUMP JUMPDEST PUSH1 0x20 DUP3 ADD SWAP1 POP SWAP2 SWAP1 POP JUMP JUMPDEST PUSH1 0x0 PUSH1 0x20 DUP3 ADD SWAP1 POP DUP2 DUP2 SUB PUSH1 0x0 DUP4 ADD MSTORE PUSH2 0xDC4 DUP2 PUSH2 0xD88 JUMP JUMPDEST SWAP1 POP SWAP2 SWAP1 POP JUMP JUMPDEST PUSH1 0x0 PUSH1 0x60 DUP3 ADD SWAP1 POP PUSH2 0xDE0 PUSH1 0x0 DUP4 ADD DUP7 PUSH2 0xACF JUMP JUMPDEST PUSH2 0xDED PUSH1 0x20 DUP4 ADD DUP6 PUSH2 0xACF JUMP JUMPDEST PUSH2 0xDFA PUSH1 0x40 DUP4 ADD DUP5 PUSH2 0xB26 JUMP JUMPDEST SWAP5 SWAP4 POP POP POP POP JUMP JUMPDEST PUSH32 0x4F776E61626C653A206E6577206F776E657220697320746865207A65726F2061 PUSH1 0x0 DUP3 ADD MSTORE PUSH32 0x6464726573730000000000000000000000000000000000000000000000000000 PUSH1 0x20 DUP3 ADD MSTORE POP JUMP JUMPDEST PUSH1 0x0 PUSH2 0xE5E PUSH1 0x26 DUP4 PUSH2 0xD4E JUMP JUMPDEST SWAP2 POP PUSH2 0xE69 DUP3 PUSH2 0xE02 JUMP JUMPDEST PUSH1 0x40 DUP3 ADD SWAP1 POP SWAP2 SWAP1 POP JUMP JUMPDEST PUSH1 0x0 PUSH1 0x20 DUP3 ADD SWAP1 POP DUP2 DUP2 SUB PUSH1 0x0 DUP4 ADD MSTORE PUSH2 0xE8D DUP2 PUSH2 0xE51 JUMP JUMPDEST SWAP1 POP SWAP2 SWAP1 POP JUMP INVALID LOG2 PUSH5 0x6970667358 0x22 SLT KECCAK256 0xA5 PUSH17 0x2893E08D247C3C4528F7EA4E2EC992B237 SHR CHAINID DUP15 GAS JUMPI 0xB2 0xAC DUP13 RETURNDATACOPY 0x4C DELEGATECALL 0xEA DUP16 PUSH5 0x736F6C6343 STOP ADDMOD 0xE STOP CALLER "
				},
				"gasEstimates": {
					"creation": {
						"codeDepositCost": "757200",
						"executionCost": "infinite",
						"totalCost": "infinite"
					},
					"external": {
						"AdminAddress()": "2559",
						"Coin()": "infinite",
						"buyInfo(address,uint256)": "infinite",
						"buyInformation(uint256)": "infinite",
						"getIdsOfUser(address)": "infinite",
						"initialize(address,address,uint256)": "infinite",
						"initialized()": "2472",
						"owner()": "2566",
						"renounceOwnership()": "30374",
						"setAdminAddress(address)": "27051",
						"totalInvesters()": "2525",
						"transferOwnership(address)": "30830"
					}
				},
				"methodIdentifiers": {
					"AdminAddress()": "28f661e3",
					"Coin()": "a77b2e37",
					"buyInfo(address,uint256)": "8637856d",
					"buyInformation(uint256)": "29e78c82",
					"getIdsOfUser(address)": "5f4fd1f7",
					"initialize(address,address,uint256)": "1794bb3c",
					"initialized()": "158ef93e",
					"owner()": "8da5cb5b",
					"renounceOwnership()": "715018a6",
					"setAdminAddress(address)": "2c1e816d",
					"totalInvesters()": "af0afec9",
					"transferOwnership(address)": "f2fde38b"
				}
			},
			"storageLayout": {
				"storage": [
					{
						"astId": 828,
						"contract": "contracts/smartContract.sol:smartContract",
						"label": "_owner",
						"offset": 0,
						"slot": "0",
						"type": "t_address"
					},
					{
						"astId": 1249,
						"contract": "contracts/smartContract.sol:smartContract",
						"label": "AdminAddress",
						"offset": 0,
						"slot": "1",
						"type": "t_address"
					},
					{
						"astId": 1252,
						"contract": "contracts/smartContract.sol:smartContract",
						"label": "Coin",
						"offset": 0,
						"slot": "2",
						"type": "t_contract(Token)773"
					},
					{
						"astId": 1254,
						"contract": "contracts/smartContract.sol:smartContract",
						"label": "investerID",
						"offset": 0,
						"slot": "3",
						"type": "t_uint256"
					},
					{
						"astId": 1256,
						"contract": "contracts/smartContract.sol:smartContract",
						"label": "initialized",
						"offset": 0,
						"slot": "4",
						"type": "t_bool"
					},
					{
						"astId": 1263,
						"contract": "contracts/smartContract.sol:smartContract",
						"label": "buyInfo",
						"offset": 0,
						"slot": "5",
						"type": "t_mapping(t_address,t_mapping(t_uint256,t_struct(purchaseInfo)1275_storage))"
					},
					{
						"astId": 1268,
						"contract": "contracts/smartContract.sol:smartContract",
						"label": "getIDByAddress",
						"offset": 0,
						"slot": "6",
						"type": "t_mapping(t_address,t_array(t_uint256)dyn_storage)"
					}
				],
				"types": {
					"t_address": {
						"encoding": "inplace",
						"label": "address",
						"numberOfBytes": "20"
					},
					"t_array(t_uint256)dyn_storage": {
						"base": "t_uint256",
						"encoding": "dynamic_array",
						"label": "uint256[]",
						"numberOfBytes": "32"
					},
					"t_bool": {
						"encoding": "inplace",
						"label": "bool",
						"numberOfBytes": "1"
					},
					"t_contract(Token)773": {
						"encoding": "inplace",
						"label": "contract Token",
						"numberOfBytes": "20"
					},
					"t_mapping(t_address,t_array(t_uint256)dyn_storage)": {
						"encoding": "mapping",
						"key": "t_address",
						"label": "mapping(address => uint256[])",
						"numberOfBytes": "32",
						"value": "t_array(t_uint256)dyn_storage"
					},
					"t_mapping(t_address,t_mapping(t_uint256,t_struct(purchaseInfo)1275_storage))": {
						"encoding": "mapping",
						"key": "t_address",
						"label": "mapping(address => mapping(uint256 => struct smartContract.purchaseInfo))",
						"numberOfBytes": "32",
						"value": "t_mapping(t_uint256,t_struct(purchaseInfo)1275_storage)"
					},
					"t_mapping(t_uint256,t_struct(purchaseInfo)1275_storage)": {
						"encoding": "mapping",
						"key": "t_uint256",
						"label": "mapping(uint256 => struct smartContract.purchaseInfo)",
						"numberOfBytes": "32",
						"value": "t_struct(purchaseInfo)1275_storage"
					},
					"t_struct(purchaseInfo)1275_storage": {
						"encoding": "inplace",
						"label": "struct smartContract.purchaseInfo",
						"members": [
							{
								"astId": 1270,
								"contract": "contracts/smartContract.sol:smartContract",
								"label": "ID",
								"offset": 0,
								"slot": "0",
								"type": "t_uint256"
							},
							{
								"astId": 1272,
								"contract": "contracts/smartContract.sol:smartContract",
								"label": "buyTime",
								"offset": 0,
								"slot": "1",
								"type": "t_uint256"
							},
							{
								"astId": 1274,
								"contract": "contracts/smartContract.sol:smartContract",
								"label": "registered",
								"offset": 0,
								"slot": "2",
								"type": "t_bool"
							}
						],
						"numberOfBytes": "96"
					},
					"t_uint256": {
						"encoding": "inplace",
						"label": "uint256",
						"numberOfBytes": "32"
					}
				}
			},
			"userdoc": {
				"kind": "user",
				"methods": {},
				"version": 1
			}
		}
	}
}